{
	"contracts/DiasporaRemitEscrow.sol": {
		"DiasporaRemitEscrow": {
			"abi": [
				{
					"inputs": [],
					"stateMutability": "nonpayable",
					"type": "constructor"
				},
				{
					"inputs": [],
					"name": "AlreadyFunded",
					"type": "error"
				},
				{
					"inputs": [],
					"name": "AlreadyRefunded",
					"type": "error"
				},
				{
					"inputs": [],
					"name": "DeadlineNotPassed",
					"type": "error"
				},
				{
					"inputs": [],
					"name": "DeadlinePassed",
					"type": "error"
				},
				{
					"inputs": [],
					"name": "EmptyPurpose",
					"type": "error"
				},
				{
					"inputs": [],
					"name": "InvalidAddress",
					"type": "error"
				},
				{
					"inputs": [],
					"name": "InvalidAmount",
					"type": "error"
				},
				{
					"inputs": [],
					"name": "InvalidPercentage",
					"type": "error"
				},
				{
					"inputs": [
						{
							"internalType": "enum DiasporaRemitEscrow.TransferStatus",
							"name": "current",
							"type": "uint8"
						},
						{
							"internalType": "enum DiasporaRemitEscrow.TransferStatus",
							"name": "required",
							"type": "uint8"
						}
					],
					"name": "InvalidStatus",
					"type": "error"
				},
				{
					"inputs": [],
					"name": "NotFunded",
					"type": "error"
				},
				{
					"inputs": [],
					"name": "ReentrancyDetected",
					"type": "error"
				},
				{
					"inputs": [],
					"name": "TransferFailed",
					"type": "error"
				},
				{
					"inputs": [
						{
							"internalType": "uint256",
							"name": "transferId",
							"type": "uint256"
						}
					],
					"name": "TransferNotFound",
					"type": "error"
				},
				{
					"inputs": [
						{
							"internalType": "address",
							"name": "caller",
							"type": "address"
						}
					],
					"name": "Unauthorized",
					"type": "error"
				},
				{
					"anonymous": false,
					"inputs": [
						{
							"indexed": true,
							"internalType": "uint256",
							"name": "transferId",
							"type": "uint256"
						},
						{
							"indexed": false,
							"internalType": "uint256",
							"name": "oldDeadline",
							"type": "uint256"
						},
						{
							"indexed": false,
							"internalType": "uint256",
							"name": "newDeadline",
							"type": "uint256"
						}
					],
					"name": "DeadlineExtended",
					"type": "event"
				},
				{
					"anonymous": false,
					"inputs": [
						{
							"indexed": true,
							"internalType": "uint256",
							"name": "transferId",
							"type": "uint256"
						},
						{
							"indexed": false,
							"internalType": "address",
							"name": "resolver",
							"type": "address"
						},
						{
							"indexed": false,
							"internalType": "bool",
							"name": "favorRecipient",
							"type": "bool"
						},
						{
							"indexed": false,
							"internalType": "uint256",
							"name": "recipientAmount",
							"type": "uint256"
						},
						{
							"indexed": false,
							"internalType": "uint256",
							"name": "senderAmount",
							"type": "uint256"
						}
					],
					"name": "DisputeResolved",
					"type": "event"
				},
				{
					"anonymous": false,
					"inputs": [
						{
							"indexed": true,
							"internalType": "uint256",
							"name": "transferId",
							"type": "uint256"
						},
						{
							"indexed": false,
							"internalType": "address",
							"name": "oldRecipient",
							"type": "address"
						},
						{
							"indexed": false,
							"internalType": "address",
							"name": "newRecipient",
							"type": "address"
						}
					],
					"name": "RecipientUpdated",
					"type": "event"
				},
				{
					"anonymous": false,
					"inputs": [
						{
							"indexed": true,
							"internalType": "uint256",
							"name": "transferId",
							"type": "uint256"
						},
						{
							"indexed": true,
							"internalType": "address",
							"name": "recipient",
							"type": "address"
						},
						{
							"indexed": false,
							"internalType": "uint256",
							"name": "amount",
							"type": "uint256"
						},
						{
							"indexed": false,
							"internalType": "uint256",
							"name": "platformFee",
							"type": "uint256"
						}
					],
					"name": "TransferCompleted",
					"type": "event"
				},
				{
					"anonymous": false,
					"inputs": [
						{
							"indexed": true,
							"internalType": "uint256",
							"name": "transferId",
							"type": "uint256"
						},
						{
							"indexed": true,
							"internalType": "address",
							"name": "sender",
							"type": "address"
						},
						{
							"indexed": true,
							"internalType": "address",
							"name": "recipient",
							"type": "address"
						},
						{
							"indexed": false,
							"internalType": "address",
							"name": "validator",
							"type": "address"
						},
						{
							"indexed": false,
							"internalType": "uint256",
							"name": "amount",
							"type": "uint256"
						},
						{
							"indexed": false,
							"internalType": "string",
							"name": "purpose",
							"type": "string"
						}
					],
					"name": "TransferCreated",
					"type": "event"
				},
				{
					"anonymous": false,
					"inputs": [
						{
							"indexed": true,
							"internalType": "uint256",
							"name": "transferId",
							"type": "uint256"
						},
						{
							"indexed": true,
							"internalType": "address",
							"name": "disputedBy",
							"type": "address"
						},
						{
							"indexed": false,
							"internalType": "string",
							"name": "reason",
							"type": "string"
						}
					],
					"name": "TransferDisputed",
					"type": "event"
				},
				{
					"anonymous": false,
					"inputs": [
						{
							"indexed": true,
							"internalType": "uint256",
							"name": "transferId",
							"type": "uint256"
						},
						{
							"indexed": false,
							"internalType": "uint256",
							"name": "amount",
							"type": "uint256"
						},
						{
							"indexed": false,
							"internalType": "uint256",
							"name": "deadline",
							"type": "uint256"
						}
					],
					"name": "TransferFunded",
					"type": "event"
				},
				{
					"anonymous": false,
					"inputs": [
						{
							"indexed": true,
							"internalType": "uint256",
							"name": "transferId",
							"type": "uint256"
						},
						{
							"indexed": true,
							"internalType": "address",
							"name": "sender",
							"type": "address"
						},
						{
							"indexed": false,
							"internalType": "uint256",
							"name": "amount",
							"type": "uint256"
						}
					],
					"name": "TransferRefunded",
					"type": "event"
				},
				{
					"anonymous": false,
					"inputs": [
						{
							"indexed": true,
							"internalType": "uint256",
							"name": "transferId",
							"type": "uint256"
						},
						{
							"indexed": true,
							"internalType": "address",
							"name": "validator",
							"type": "address"
						},
						{
							"indexed": false,
							"internalType": "string",
							"name": "note",
							"type": "string"
						}
					],
					"name": "TransferValidated",
					"type": "event"
				},
				{
					"anonymous": false,
					"inputs": [
						{
							"indexed": true,
							"internalType": "uint256",
							"name": "transferId",
							"type": "uint256"
						},
						{
							"indexed": false,
							"internalType": "address",
							"name": "oldValidator",
							"type": "address"
						},
						{
							"indexed": false,
							"internalType": "address",
							"name": "newValidator",
							"type": "address"
						}
					],
					"name": "ValidatorUpdated",
					"type": "event"
				},
				{
					"stateMutability": "payable",
					"type": "fallback"
				},
				{
					"inputs": [
						{
							"internalType": "address",
							"name": "_recipient",
							"type": "address"
						},
						{
							"internalType": "address",
							"name": "_validator",
							"type": "address"
						},
						{
							"internalType": "string",
							"name": "_purpose",
							"type": "string"
						},
						{
							"internalType": "uint256",
							"name": "_deadlineSeconds",
							"type": "uint256"
						}
					],
					"name": "createAndFundTransfer",
					"outputs": [
						{
							"internalType": "uint256",
							"name": "",
							"type": "uint256"
						}
					],
					"stateMutability": "payable",
					"type": "function"
				},
				{
					"inputs": [
						{
							"internalType": "address",
							"name": "_recipient",
							"type": "address"
						},
						{
							"internalType": "address",
							"name": "_validator",
							"type": "address"
						},
						{
							"internalType": "string",
							"name": "_purpose",
							"type": "string"
						},
						{
							"internalType": "uint256",
							"name": "_deadlineSeconds",
							"type": "uint256"
						}
					],
					"name": "createTransfer",
					"outputs": [
						{
							"internalType": "uint256",
							"name": "",
							"type": "uint256"
						}
					],
					"stateMutability": "nonpayable",
					"type": "function"
				},
				{
					"inputs": [
						{
							"internalType": "uint256",
							"name": "_transferId",
							"type": "uint256"
						},
						{
							"internalType": "uint256",
							"name": "_additionalSeconds",
							"type": "uint256"
						}
					],
					"name": "extendDeadline",
					"outputs": [],
					"stateMutability": "nonpayable",
					"type": "function"
				},
				{
					"inputs": [
						{
							"internalType": "uint256",
							"name": "_transferId",
							"type": "uint256"
						}
					],
					"name": "fundTransfer",
					"outputs": [],
					"stateMutability": "payable",
					"type": "function"
				},
				{
					"inputs": [],
					"name": "getContractBalance",
					"outputs": [
						{
							"internalType": "uint256",
							"name": "",
							"type": "uint256"
						}
					],
					"stateMutability": "view",
					"type": "function"
				},
				{
					"inputs": [],
					"name": "getPlatformStats",
					"outputs": [
						{
							"internalType": "uint256",
							"name": "_totalTransfers",
							"type": "uint256"
						},
						{
							"internalType": "uint256",
							"name": "_totalValueLocked",
							"type": "uint256"
						},
						{
							"internalType": "uint256",
							"name": "_platformFeePercentage",
							"type": "uint256"
						}
					],
					"stateMutability": "view",
					"type": "function"
				},
				{
					"inputs": [
						{
							"internalType": "address",
							"name": "_recipient",
							"type": "address"
						}
					],
					"name": "getRecipientTransfers",
					"outputs": [
						{
							"internalType": "uint256[]",
							"name": "",
							"type": "uint256[]"
						}
					],
					"stateMutability": "view",
					"type": "function"
				},
				{
					"inputs": [
						{
							"internalType": "address",
							"name": "_sender",
							"type": "address"
						}
					],
					"name": "getSenderTransfers",
					"outputs": [
						{
							"internalType": "uint256[]",
							"name": "",
							"type": "uint256[]"
						}
					],
					"stateMutability": "view",
					"type": "function"
				},
				{
					"inputs": [
						{
							"internalType": "uint256",
							"name": "_transferId",
							"type": "uint256"
						}
					],
					"name": "getTransfer",
					"outputs": [
						{
							"internalType": "address",
							"name": "sender",
							"type": "address"
						},
						{
							"internalType": "address",
							"name": "recipient",
							"type": "address"
						},
						{
							"internalType": "address",
							"name": "validator",
							"type": "address"
						},
						{
							"internalType": "uint256",
							"name": "amount",
							"type": "uint256"
						},
						{
							"internalType": "uint256",
							"name": "deadline",
							"type": "uint256"
						},
						{
							"internalType": "enum DiasporaRemitEscrow.TransferStatus",
							"name": "status",
							"type": "uint8"
						},
						{
							"internalType": "string",
							"name": "purpose",
							"type": "string"
						},
						{
							"internalType": "string",
							"name": "validationNote",
							"type": "string"
						},
						{
							"internalType": "uint256",
							"name": "createdAt",
							"type": "uint256"
						},
						{
							"internalType": "uint256",
							"name": "releasedAt",
							"type": "uint256"
						},
						{
							"internalType": "bool",
							"name": "isRefunded",
							"type": "bool"
						}
					],
					"stateMutability": "view",
					"type": "function"
				},
				{
					"inputs": [
						{
							"internalType": "uint256",
							"name": "_transferId",
							"type": "uint256"
						}
					],
					"name": "getTransferStatus",
					"outputs": [
						{
							"internalType": "enum DiasporaRemitEscrow.TransferStatus",
							"name": "status",
							"type": "uint8"
						},
						{
							"internalType": "bool",
							"name": "isFunded",
							"type": "bool"
						},
						{
							"internalType": "bool",
							"name": "isValidated",
							"type": "bool"
						},
						{
							"internalType": "bool",
							"name": "isCompleted",
							"type": "bool"
						},
						{
							"internalType": "bool",
							"name": "isRefunded",
							"type": "bool"
						},
						{
							"internalType": "bool",
							"name": "canRefund",
							"type": "bool"
						},
						{
							"internalType": "uint256",
							"name": "timeRemaining",
							"type": "uint256"
						}
					],
					"stateMutability": "view",
					"type": "function"
				},
				{
					"inputs": [
						{
							"internalType": "address",
							"name": "_validator",
							"type": "address"
						}
					],
					"name": "getValidatorTransfers",
					"outputs": [
						{
							"internalType": "uint256[]",
							"name": "",
							"type": "uint256[]"
						}
					],
					"stateMutability": "view",
					"type": "function"
				},
				{
					"inputs": [
						{
							"internalType": "address",
							"name": "_user",
							"type": "address"
						}
					],
					"name": "isUserVerified",
					"outputs": [
						{
							"internalType": "bool",
							"name": "",
							"type": "bool"
						}
					],
					"stateMutability": "view",
					"type": "function"
				},
				{
					"inputs": [
						{
							"internalType": "address",
							"name": "_validator",
							"type": "address"
						}
					],
					"name": "isValidatorCertified",
					"outputs": [
						{
							"internalType": "bool",
							"name": "",
							"type": "bool"
						}
					],
					"stateMutability": "view",
					"type": "function"
				},
				{
					"inputs": [],
					"name": "owner",
					"outputs": [
						{
							"internalType": "address",
							"name": "",
							"type": "address"
						}
					],
					"stateMutability": "view",
					"type": "function"
				},
				{
					"inputs": [],
					"name": "platformFeePercentage",
					"outputs": [
						{
							"internalType": "uint256",
							"name": "",
							"type": "uint256"
						}
					],
					"stateMutability": "view",
					"type": "function"
				},
				{
					"inputs": [
						{
							"internalType": "uint256",
							"name": "_transferId",
							"type": "uint256"
						},
						{
							"internalType": "string",
							"name": "_reason",
							"type": "string"
						}
					],
					"name": "raiseDispute",
					"outputs": [],
					"stateMutability": "nonpayable",
					"type": "function"
				},
				{
					"inputs": [
						{
							"internalType": "address",
							"name": "",
							"type": "address"
						},
						{
							"internalType": "uint256",
							"name": "",
							"type": "uint256"
						}
					],
					"name": "recipientTransfers",
					"outputs": [
						{
							"internalType": "uint256",
							"name": "",
							"type": "uint256"
						}
					],
					"stateMutability": "view",
					"type": "function"
				},
				{
					"inputs": [
						{
							"internalType": "uint256",
							"name": "_transferId",
							"type": "uint256"
						}
					],
					"name": "refundTransfer",
					"outputs": [],
					"stateMutability": "nonpayable",
					"type": "function"
				},
				{
					"inputs": [
						{
							"internalType": "uint256",
							"name": "_transferId",
							"type": "uint256"
						},
						{
							"internalType": "uint8",
							"name": "_percentageToRecipient",
							"type": "uint8"
						}
					],
					"name": "resolveDispute",
					"outputs": [],
					"stateMutability": "nonpayable",
					"type": "function"
				},
				{
					"inputs": [
						{
							"internalType": "address",
							"name": "",
							"type": "address"
						},
						{
							"internalType": "uint256",
							"name": "",
							"type": "uint256"
						}
					],
					"name": "senderTransfers",
					"outputs": [
						{
							"internalType": "uint256",
							"name": "",
							"type": "uint256"
						}
					],
					"stateMutability": "view",
					"type": "function"
				},
				{
					"inputs": [
						{
							"internalType": "address",
							"name": "_registry",
							"type": "address"
						}
					],
					"name": "setUserRegistry",
					"outputs": [],
					"stateMutability": "nonpayable",
					"type": "function"
				},
				{
					"inputs": [
						{
							"internalType": "address",
							"name": "_registry",
							"type": "address"
						}
					],
					"name": "setValidatorRegistry",
					"outputs": [],
					"stateMutability": "nonpayable",
					"type": "function"
				},
				{
					"inputs": [],
					"name": "totalTransfers",
					"outputs": [
						{
							"internalType": "uint256",
							"name": "",
							"type": "uint256"
						}
					],
					"stateMutability": "view",
					"type": "function"
				},
				{
					"inputs": [],
					"name": "totalValueLocked",
					"outputs": [
						{
							"internalType": "uint256",
							"name": "",
							"type": "uint256"
						}
					],
					"stateMutability": "view",
					"type": "function"
				},
				{
					"inputs": [
						{
							"internalType": "uint256",
							"name": "",
							"type": "uint256"
						}
					],
					"name": "transfers",
					"outputs": [
						{
							"internalType": "uint256",
							"name": "transferId",
							"type": "uint256"
						},
						{
							"internalType": "address",
							"name": "sender",
							"type": "address"
						},
						{
							"internalType": "address",
							"name": "recipient",
							"type": "address"
						},
						{
							"internalType": "address",
							"name": "validator",
							"type": "address"
						},
						{
							"internalType": "uint256",
							"name": "amount",
							"type": "uint256"
						},
						{
							"internalType": "uint256",
							"name": "deadline",
							"type": "uint256"
						},
						{
							"internalType": "enum DiasporaRemitEscrow.TransferStatus",
							"name": "status",
							"type": "uint8"
						},
						{
							"internalType": "string",
							"name": "purpose",
							"type": "string"
						},
						{
							"internalType": "string",
							"name": "validationNote",
							"type": "string"
						},
						{
							"internalType": "uint256",
							"name": "createdAt",
							"type": "uint256"
						},
						{
							"internalType": "uint256",
							"name": "releasedAt",
							"type": "uint256"
						},
						{
							"internalType": "bool",
							"name": "isRefunded",
							"type": "bool"
						}
					],
					"stateMutability": "view",
					"type": "function"
				},
				{
					"inputs": [
						{
							"internalType": "uint256",
							"name": "_newFeePercentage",
							"type": "uint256"
						}
					],
					"name": "updatePlatformFee",
					"outputs": [],
					"stateMutability": "nonpayable",
					"type": "function"
				},
				{
					"inputs": [
						{
							"internalType": "uint256",
							"name": "_transferId",
							"type": "uint256"
						},
						{
							"internalType": "address",
							"name": "_newRecipient",
							"type": "address"
						}
					],
					"name": "updateRecipient",
					"outputs": [],
					"stateMutability": "nonpayable",
					"type": "function"
				},
				{
					"inputs": [
						{
							"internalType": "uint256",
							"name": "_transferId",
							"type": "uint256"
						},
						{
							"internalType": "address",
							"name": "_newValidator",
							"type": "address"
						}
					],
					"name": "updateValidator",
					"outputs": [],
					"stateMutability": "nonpayable",
					"type": "function"
				},
				{
					"inputs": [],
					"name": "userRegistry",
					"outputs": [
						{
							"internalType": "contract IUserRegistry",
							"name": "",
							"type": "address"
						}
					],
					"stateMutability": "view",
					"type": "function"
				},
				{
					"inputs": [
						{
							"internalType": "uint256",
							"name": "_transferId",
							"type": "uint256"
						},
						{
							"internalType": "string",
							"name": "_note",
							"type": "string"
						}
					],
					"name": "validateTransfer",
					"outputs": [],
					"stateMutability": "nonpayable",
					"type": "function"
				},
				{
					"inputs": [],
					"name": "validatorRegistry",
					"outputs": [
						{
							"internalType": "contract IValidatorRegistry",
							"name": "",
							"type": "address"
						}
					],
					"stateMutability": "view",
					"type": "function"
				},
				{
					"inputs": [
						{
							"internalType": "address",
							"name": "",
							"type": "address"
						},
						{
							"internalType": "uint256",
							"name": "",
							"type": "uint256"
						}
					],
					"name": "validatorTransfers",
					"outputs": [
						{
							"internalType": "uint256",
							"name": "",
							"type": "uint256"
						}
					],
					"stateMutability": "view",
					"type": "function"
				},
				{
					"inputs": [
						{
							"internalType": "uint256",
							"name": "_transferId",
							"type": "uint256"
						}
					],
					"name": "withdrawFunds",
					"outputs": [],
					"stateMutability": "nonpayable",
					"type": "function"
				},
				{
					"stateMutability": "payable",
					"type": "receive"
				}
			],
			"devdoc": {
				"kind": "dev",
				"methods": {},
				"version": 1
			},
			"evm": {
				"assembly": "    /* \"contracts/DiasporaRemitEscrow.sol\":909:18711  contract DiasporaRemitEscrow {... */\n  mstore(0x40, 0x80)\n    /* \"contracts/DiasporaRemitEscrow.sol\":1480:1481  1 */\n  0x01\n    /* \"contracts/DiasporaRemitEscrow.sol\":1441:1481  uint256 public platformFeePercentage = 1 */\n  dup1\n  sstore\n    /* \"contracts/DiasporaRemitEscrow.sol\":1834:1835  1 */\n  0x01\n    /* \"contracts/DiasporaRemitEscrow.sol\":1809:1835  uint256 private locked = 1 */\n  0x08\n  sstore\n    /* \"contracts/DiasporaRemitEscrow.sol\":4529:4580  constructor() {... */\n  callvalue\n  dup1\n  iszero\n  tag_1\n  jumpi\n  revert(0x00, 0x00)\ntag_1:\n  pop\n    /* \"contracts/DiasporaRemitEscrow.sol\":4562:4572  msg.sender */\n  caller\n    /* \"contracts/DiasporaRemitEscrow.sol\":4554:4559  owner */\n  0x00\n  0x00\n    /* \"contracts/DiasporaRemitEscrow.sol\":4554:4572  owner = msg.sender */\n  0x0100\n  exp\n  dup2\n  sload\n  dup2\n  0xffffffffffffffffffffffffffffffffffffffff\n  mul\n  not\n  and\n  swap1\n  dup4\n  0xffffffffffffffffffffffffffffffffffffffff\n  and\n  mul\n  or\n  swap1\n  sstore\n  pop\n    /* \"contracts/DiasporaRemitEscrow.sol\":909:18711  contract DiasporaRemitEscrow {... */\n  dataSize(sub_0)\n  dup1\n  dataOffset(sub_0)\n  0x00\n  codecopy\n  0x00\n  return\nstop\n\nsub_0: assembly {\n        /* \"contracts/DiasporaRemitEscrow.sol\":909:18711  contract DiasporaRemitEscrow {... */\n      mstore(0x40, 0x80)\n      jumpi(tag_1, lt(calldatasize, 0x04))\n      shr(0xe0, calldataload(0x00))\n      dup1\n      0x9259061e\n      gt\n      tag_36\n      jumpi\n      dup1\n      0xb3d50e37\n      gt\n      tag_37\n      jumpi\n      dup1\n      0xe55e4211\n      gt\n      tag_38\n      jumpi\n      dup1\n      0xe55e4211\n      eq\n      tag_31\n      jumpi\n      dup1\n      0xeaf8294b\n      eq\n      tag_32\n      jumpi\n      dup1\n      0xec18154e\n      eq\n      tag_33\n      jumpi\n      dup1\n      0xf376ebbb\n      eq\n      tag_34\n      jumpi\n      dup1\n      0xf3fee05d\n      eq\n      tag_35\n      jumpi\n      jump(tag_2)\n    tag_38:\n      dup1\n      0xb3d50e37\n      eq\n      tag_27\n      jumpi\n      dup1\n      0xb93c3770\n      eq\n      tag_28\n      jumpi\n      dup1\n      0xc16fe907\n      eq\n      tag_29\n      jumpi\n      dup1\n      0xcdd78cfc\n      eq\n      tag_30\n      jumpi\n      jump(tag_2)\n    tag_37:\n      dup1\n      0x9cb80f00\n      gt\n      tag_39\n      jumpi\n      dup1\n      0x9cb80f00\n      eq\n      tag_23\n      jumpi\n      dup1\n      0xaa0b5988\n      eq\n      tag_24\n      jumpi\n      dup1\n      0xace417e0\n      eq\n      tag_25\n      jumpi\n      dup1\n      0xb0d5451b\n      eq\n      tag_26\n      jumpi\n      jump(tag_2)\n    tag_39:\n      dup1\n      0x9259061e\n      eq\n      tag_19\n      jumpi\n      dup1\n      0x9377d711\n      eq\n      tag_20\n      jumpi\n      dup1\n      0x9bfd3f9d\n      eq\n      tag_21\n      jumpi\n      dup1\n      0x9c51d4a1\n      eq\n      tag_22\n      jumpi\n      jump(tag_2)\n    tag_36:\n      dup1\n      0x49773050\n      gt\n      tag_40\n      jumpi\n      dup1\n      0x5c7460d6\n      gt\n      tag_41\n      jumpi\n      dup1\n      0x5c7460d6\n      eq\n      tag_15\n      jumpi\n      dup1\n      0x6353f887\n      eq\n      tag_16\n      jumpi\n      dup1\n      0x6f9fb98a\n      eq\n      tag_17\n      jumpi\n      dup1\n      0x8da5cb5b\n      eq\n      tag_18\n      jumpi\n      jump(tag_2)\n    tag_41:\n      dup1\n      0x49773050\n      eq\n      tag_11\n      jumpi\n      dup1\n      0x4b920afe\n      eq\n      tag_12\n      jumpi\n      dup1\n      0x5a27cbcb\n      eq\n      tag_13\n      jumpi\n      dup1\n      0x5aef573c\n      eq\n      tag_14\n      jumpi\n      jump(tag_2)\n    tag_40:\n      dup1\n      0x2beca249\n      gt\n      tag_42\n      jumpi\n      dup1\n      0x2beca249\n      eq\n      tag_7\n      jumpi\n      dup1\n      0x2d1fdef6\n      eq\n      tag_8\n      jumpi\n      dup1\n      0x3bf47720\n      eq\n      tag_9\n      jumpi\n      dup1\n      0x42b0a8ce\n      eq\n      tag_10\n      jumpi\n      jump(tag_2)\n    tag_42:\n      dup1\n      0x04233456\n      eq\n      tag_3\n      jumpi\n      dup1\n      0x136d8883\n      eq\n      tag_4\n      jumpi\n      dup1\n      0x155dd5ee\n      eq\n      tag_5\n      jumpi\n      dup1\n      0x2bbdcb4e\n      eq\n      tag_6\n      jumpi\n      jump(tag_2)\n    tag_1:\n      jumpi(tag_2, calldatasize)\n        /* \"contracts/DiasporaRemitEscrow.sol\":18555:18610  revert(\"Use createAndFundTransfer() or fundTransfer()\") */\n      mload(0x40)\n      0x08c379a000000000000000000000000000000000000000000000000000000000\n      dup2\n      mstore\n      0x04\n      add\n      tag_45\n      swap1\n      tag_46\n      jump\t// in\n    tag_45:\n      mload(0x40)\n      dup1\n      swap2\n      sub\n      swap1\n      revert\n        /* \"contracts/DiasporaRemitEscrow.sol\":909:18711  contract DiasporaRemitEscrow {... */\n    tag_2:\n        /* \"contracts/DiasporaRemitEscrow.sol\":18669:18700  revert(\"Invalid function call\") */\n      mload(0x40)\n      0x08c379a000000000000000000000000000000000000000000000000000000000\n      dup2\n      mstore\n      0x04\n      add\n      tag_49\n      swap1\n      tag_50\n      jump\t// in\n    tag_49:\n      mload(0x40)\n      dup1\n      swap2\n      sub\n      swap1\n      revert\n        /* \"contracts/DiasporaRemitEscrow.sol\":15893:16041  function getRecipientTransfers(address _recipient) external view returns (uint256[] memory) {... */\n    tag_3:\n      callvalue\n      dup1\n      iszero\n      tag_51\n      jumpi\n      revert(0x00, 0x00)\n    tag_51:\n      pop\n      tag_52\n      0x04\n      dup1\n      calldatasize\n      sub\n      dup2\n      add\n      swap1\n      tag_53\n      swap2\n      swap1\n      tag_54\n      jump\t// in\n    tag_53:\n      tag_55\n      jump\t// in\n    tag_52:\n      mload(0x40)\n      tag_56\n      swap2\n      swap1\n      tag_57\n      jump\t// in\n    tag_56:\n      mload(0x40)\n      dup1\n      swap2\n      sub\n      swap1\n      return\n        /* \"contracts/DiasporaRemitEscrow.sol\":17615:17833  function getPlatformStats() external view returns (uint256 _totalTransfers, uint256 _totalValueLocked, uint256 _platformFeePercentage) {... */\n    tag_4:\n      callvalue\n      dup1\n      iszero\n      tag_58\n      jumpi\n      revert(0x00, 0x00)\n    tag_58:\n      pop\n      tag_59\n      tag_60\n      jump\t// in\n    tag_59:\n      mload(0x40)\n      tag_61\n      swap4\n      swap3\n      swap2\n      swap1\n      tag_62\n      jump\t// in\n    tag_61:\n      mload(0x40)\n      dup1\n      swap2\n      sub\n      swap1\n      return\n        /* \"contracts/DiasporaRemitEscrow.sol\":8547:9807  function withdrawFunds(uint256 _transferId)... */\n    tag_5:\n      callvalue\n      dup1\n      iszero\n      tag_63\n      jumpi\n      revert(0x00, 0x00)\n    tag_63:\n      pop\n      tag_64\n      0x04\n      dup1\n      calldatasize\n      sub\n      dup2\n      add\n      swap1\n      tag_65\n      swap2\n      swap1\n      tag_66\n      jump\t// in\n    tag_65:\n      tag_67\n      jump\t// in\n    tag_64:\n      stop\n        /* \"contracts/DiasporaRemitEscrow.sol\":1620:1672  mapping(address => uint256[]) public senderTransfers */\n    tag_6:\n      callvalue\n      dup1\n      iszero\n      tag_68\n      jumpi\n      revert(0x00, 0x00)\n    tag_68:\n      pop\n      tag_69\n      0x04\n      dup1\n      calldatasize\n      sub\n      dup2\n      add\n      swap1\n      tag_70\n      swap2\n      swap1\n      tag_71\n      jump\t// in\n    tag_70:\n      tag_72\n      jump\t// in\n    tag_69:\n      mload(0x40)\n      tag_73\n      swap2\n      swap1\n      tag_74\n      jump\t// in\n    tag_73:\n      mload(0x40)\n      dup1\n      swap2\n      sub\n      swap1\n      return\n        /* \"contracts/DiasporaRemitEscrow.sol\":16417:16641  function isValidatorCertified(address _validator) external view returns (bool) {... */\n    tag_7:\n      callvalue\n      dup1\n      iszero\n      tag_75\n      jumpi\n      revert(0x00, 0x00)\n    tag_75:\n      pop\n      tag_76\n      0x04\n      dup1\n      calldatasize\n      sub\n      dup2\n      add\n      swap1\n      tag_77\n      swap2\n      swap1\n      tag_54\n      jump\t// in\n    tag_77:\n      tag_78\n      jump\t// in\n    tag_76:\n      mload(0x40)\n      tag_79\n      swap2\n      swap1\n      tag_80\n      jump\t// in\n    tag_79:\n      mload(0x40)\n      dup1\n      swap2\n      sub\n      swap1\n      return\n        /* \"contracts/DiasporaRemitEscrow.sol\":14156:14786  function extendDeadline(uint256 _transferId, uint256 _additionalSeconds)... */\n    tag_8:\n      callvalue\n      dup1\n      iszero\n      tag_81\n      jumpi\n      revert(0x00, 0x00)\n    tag_81:\n      pop\n      tag_82\n      0x04\n      dup1\n      calldatasize\n      sub\n      dup2\n      add\n      swap1\n      tag_83\n      swap2\n      swap1\n      tag_84\n      jump\t// in\n    tag_83:\n      tag_85\n      jump\t// in\n    tag_82:\n      stop\n        /* \"contracts/DiasporaRemitEscrow.sol\":1488:1517  uint256 public totalTransfers */\n    tag_9:\n      callvalue\n      dup1\n      iszero\n      tag_86\n      jumpi\n      revert(0x00, 0x00)\n    tag_86:\n      pop\n      tag_87\n      tag_88\n      jump\t// in\n    tag_87:\n      mload(0x40)\n      tag_89\n      swap2\n      swap1\n      tag_74\n      jump\t// in\n    tag_89:\n      mload(0x40)\n      dup1\n      swap2\n      sub\n      swap1\n      return\n        /* \"contracts/DiasporaRemitEscrow.sol\":16053:16201  function getValidatorTransfers(address _validator) external view returns (uint256[] memory) {... */\n    tag_10:\n      callvalue\n      dup1\n      iszero\n      tag_90\n      jumpi\n      revert(0x00, 0x00)\n    tag_90:\n      pop\n      tag_91\n      0x04\n      dup1\n      calldatasize\n      sub\n      dup2\n      add\n      swap1\n      tag_92\n      swap2\n      swap1\n      tag_54\n      jump\t// in\n    tag_92:\n      tag_93\n      jump\t// in\n    tag_91:\n      mload(0x40)\n      tag_94\n      swap2\n      swap1\n      tag_57\n      jump\t// in\n    tag_94:\n      mload(0x40)\n      dup1\n      swap2\n      sub\n      swap1\n      return\n        /* \"contracts/DiasporaRemitEscrow.sol\":4725:4861  function setValidatorRegistry(address _registry) external onlyOwner {... */\n    tag_11:\n      callvalue\n      dup1\n      iszero\n      tag_95\n      jumpi\n      revert(0x00, 0x00)\n    tag_95:\n      pop\n      tag_96\n      0x04\n      dup1\n      calldatasize\n      sub\n      dup2\n      add\n      swap1\n      tag_97\n      swap2\n      swap1\n      tag_54\n      jump\t// in\n    tag_97:\n      tag_98\n      jump\t// in\n    tag_96:\n      stop\n        /* \"contracts/DiasporaRemitEscrow.sol\":7676:8535  function validateTransfer(uint256 _transferId, string calldata _note)... */\n    tag_12:\n      callvalue\n      dup1\n      iszero\n      tag_99\n      jumpi\n      revert(0x00, 0x00)\n    tag_99:\n      pop\n      tag_100\n      0x04\n      dup1\n      calldatasize\n      sub\n      dup2\n      add\n      swap1\n      tag_101\n      swap2\n      swap1\n      tag_102\n      jump\t// in\n    tag_101:\n      tag_103\n      jump\t// in\n    tag_100:\n      stop\n        /* \"contracts/DiasporaRemitEscrow.sol\":13486:14144  function updateValidator(uint256 _transferId, address _newValidator)... */\n    tag_13:\n      callvalue\n      dup1\n      iszero\n      tag_104\n      jumpi\n      revert(0x00, 0x00)\n    tag_104:\n      pop\n      tag_105\n      0x04\n      dup1\n      calldatasize\n      sub\n      dup2\n      add\n      swap1\n      tag_106\n      swap2\n      swap1\n      tag_107\n      jump\t// in\n    tag_106:\n      tag_108\n      jump\t// in\n    tag_105:\n      stop\n        /* \"contracts/DiasporaRemitEscrow.sol\":10758:11445  function raiseDispute(uint256 _transferId, string calldata _reason)... */\n    tag_14:\n      callvalue\n      dup1\n      iszero\n      tag_109\n      jumpi\n      revert(0x00, 0x00)\n    tag_109:\n      pop\n      tag_110\n      0x04\n      dup1\n      calldatasize\n      sub\n      dup2\n      add\n      swap1\n      tag_111\n      swap2\n      swap1\n      tag_102\n      jump\t// in\n    tag_111:\n      tag_112\n      jump\t// in\n    tag_110:\n      stop\n        /* \"contracts/DiasporaRemitEscrow.sol\":1892:1925  IUserRegistry public userRegistry */\n    tag_15:\n      callvalue\n      dup1\n      iszero\n      tag_113\n      jumpi\n      revert(0x00, 0x00)\n    tag_113:\n      pop\n      tag_114\n      tag_115\n      jump\t// in\n    tag_114:\n      mload(0x40)\n      tag_116\n      swap2\n      swap1\n      tag_117\n      jump\t// in\n    tag_116:\n      mload(0x40)\n      dup1\n      swap2\n      sub\n      swap1\n      return\n        /* \"contracts/DiasporaRemitEscrow.sol\":4873:6200  function createTransfer(... */\n    tag_16:\n      callvalue\n      dup1\n      iszero\n      tag_118\n      jumpi\n      revert(0x00, 0x00)\n    tag_118:\n      pop\n      tag_119\n      0x04\n      dup1\n      calldatasize\n      sub\n      dup2\n      add\n      swap1\n      tag_120\n      swap2\n      swap1\n      tag_121\n      jump\t// in\n    tag_120:\n      tag_122\n      jump\t// in\n    tag_119:\n      mload(0x40)\n      tag_123\n      swap2\n      swap1\n      tag_74\n      jump\t// in\n    tag_123:\n      mload(0x40)\n      dup1\n      swap2\n      sub\n      swap1\n      return\n        /* \"contracts/DiasporaRemitEscrow.sol\":17494:17603  function getContractBalance() external view returns (uint256) {... */\n    tag_17:\n      callvalue\n      dup1\n      iszero\n      tag_124\n      jumpi\n      revert(0x00, 0x00)\n    tag_124:\n      pop\n      tag_125\n      tag_126\n      jump\t// in\n    tag_125:\n      mload(0x40)\n      tag_127\n      swap2\n      swap1\n      tag_74\n      jump\t// in\n    tag_127:\n      mload(0x40)\n      dup1\n      swap2\n      sub\n      swap1\n      return\n        /* \"contracts/DiasporaRemitEscrow.sol\":1414:1434  address public owner */\n    tag_18:\n      callvalue\n      dup1\n      iszero\n      tag_128\n      jumpi\n      revert(0x00, 0x00)\n    tag_128:\n      pop\n      tag_129\n      tag_130\n      jump\t// in\n    tag_129:\n      mload(0x40)\n      tag_131\n      swap2\n      swap1\n      tag_132\n      jump\t// in\n    tag_131:\n      mload(0x40)\n      dup1\n      swap2\n      sub\n      swap1\n      return\n        /* \"contracts/DiasporaRemitEscrow.sol\":6968:7664  function createAndFundTransfer(... */\n    tag_19:\n      tag_133\n      0x04\n      dup1\n      calldatasize\n      sub\n      dup2\n      add\n      swap1\n      tag_134\n      swap2\n      swap1\n      tag_121\n      jump\t// in\n    tag_134:\n      tag_135\n      jump\t// in\n    tag_133:\n      mload(0x40)\n      tag_136\n      swap2\n      swap1\n      tag_74\n      jump\t// in\n    tag_136:\n      mload(0x40)\n      dup1\n      swap2\n      sub\n      swap1\n      return\n        /* \"contracts/DiasporaRemitEscrow.sol\":1568:1613  mapping(uint256 => Transfer) public transfers */\n    tag_20:\n      callvalue\n      dup1\n      iszero\n      tag_137\n      jumpi\n      revert(0x00, 0x00)\n    tag_137:\n      pop\n      tag_138\n      0x04\n      dup1\n      calldatasize\n      sub\n      dup2\n      add\n      swap1\n      tag_139\n      swap2\n      swap1\n      tag_66\n      jump\t// in\n    tag_139:\n      tag_140\n      jump\t// in\n    tag_138:\n      mload(0x40)\n      tag_141\n      swap13\n      swap12\n      swap11\n      swap10\n      swap9\n      swap8\n      swap7\n      swap6\n      swap5\n      swap4\n      swap3\n      swap2\n      swap1\n      tag_142\n      jump\t// in\n    tag_141:\n      mload(0x40)\n      dup1\n      swap2\n      sub\n      swap1\n      return\n        /* \"contracts/DiasporaRemitEscrow.sol\":1741:1796  mapping(address => uint256[]) public validatorTransfers */\n    tag_21:\n      callvalue\n      dup1\n      iszero\n      tag_143\n      jumpi\n      revert(0x00, 0x00)\n    tag_143:\n      pop\n      tag_144\n      0x04\n      dup1\n      calldatasize\n      sub\n      dup2\n      add\n      swap1\n      tag_145\n      swap2\n      swap1\n      tag_71\n      jump\t// in\n    tag_145:\n      tag_146\n      jump\t// in\n    tag_144:\n      mload(0x40)\n      tag_147\n      swap2\n      swap1\n      tag_74\n      jump\t// in\n    tag_147:\n      mload(0x40)\n      dup1\n      swap2\n      sub\n      swap1\n      return\n        /* \"contracts/DiasporaRemitEscrow.sol\":15745:15881  function getSenderTransfers(address _sender) external view returns (uint256[] memory) {... */\n    tag_22:\n      callvalue\n      dup1\n      iszero\n      tag_148\n      jumpi\n      revert(0x00, 0x00)\n    tag_148:\n      pop\n      tag_149\n      0x04\n      dup1\n      calldatasize\n      sub\n      dup2\n      add\n      swap1\n      tag_150\n      swap2\n      swap1\n      tag_54\n      jump\t// in\n    tag_150:\n      tag_151\n      jump\t// in\n    tag_149:\n      mload(0x40)\n      tag_152\n      swap2\n      swap1\n      tag_57\n      jump\t// in\n    tag_152:\n      mload(0x40)\n      dup1\n      swap2\n      sub\n      swap1\n      return\n        /* \"contracts/DiasporaRemitEscrow.sol\":1679:1734  mapping(address => uint256[]) public recipientTransfers */\n    tag_23:\n      callvalue\n      dup1\n      iszero\n      tag_153\n      jumpi\n      revert(0x00, 0x00)\n    tag_153:\n      pop\n      tag_154\n      0x04\n      dup1\n      calldatasize\n      sub\n      dup2\n      add\n      swap1\n      tag_155\n      swap2\n      swap1\n      tag_71\n      jump\t// in\n    tag_155:\n      tag_156\n      jump\t// in\n    tag_154:\n      mload(0x40)\n      tag_157\n      swap2\n      swap1\n      tag_74\n      jump\t// in\n    tag_157:\n      mload(0x40)\n      dup1\n      swap2\n      sub\n      swap1\n      return\n        /* \"contracts/DiasporaRemitEscrow.sol\":14798:14996  function updatePlatformFee(uint256 _newFeePercentage) external onlyOwner {... */\n    tag_24:\n      callvalue\n      dup1\n      iszero\n      tag_158\n      jumpi\n      revert(0x00, 0x00)\n    tag_158:\n      pop\n      tag_159\n      0x04\n      dup1\n      calldatasize\n      sub\n      dup2\n      add\n      swap1\n      tag_160\n      swap2\n      swap1\n      tag_66\n      jump\t// in\n    tag_160:\n      tag_161\n      jump\t// in\n    tag_159:\n      stop\n        /* \"contracts/DiasporaRemitEscrow.sol\":16213:16405  function isUserVerified(address _user) external view returns (bool) {... */\n    tag_25:\n      callvalue\n      dup1\n      iszero\n      tag_162\n      jumpi\n      revert(0x00, 0x00)\n    tag_162:\n      pop\n      tag_163\n      0x04\n      dup1\n      calldatasize\n      sub\n      dup2\n      add\n      swap1\n      tag_164\n      swap2\n      swap1\n      tag_54\n      jump\t// in\n    tag_164:\n      tag_165\n      jump\t// in\n    tag_163:\n      mload(0x40)\n      tag_166\n      swap2\n      swap1\n      tag_80\n      jump\t// in\n    tag_166:\n      mload(0x40)\n      dup1\n      swap2\n      sub\n      swap1\n      return\n        /* \"contracts/DiasporaRemitEscrow.sol\":4592:4713  function setUserRegistry(address _registry) external onlyOwner {... */\n    tag_26:\n      callvalue\n      dup1\n      iszero\n      tag_167\n      jumpi\n      revert(0x00, 0x00)\n    tag_167:\n      pop\n      tag_168\n      0x04\n      dup1\n      calldatasize\n      sub\n      dup2\n      add\n      swap1\n      tag_169\n      swap2\n      swap1\n      tag_54\n      jump\t// in\n    tag_169:\n      tag_170\n      jump\t// in\n    tag_168:\n      stop\n        /* \"contracts/DiasporaRemitEscrow.sol\":12860:13474  function updateRecipient(uint256 _transferId, address _newRecipient)... */\n    tag_27:\n      callvalue\n      dup1\n      iszero\n      tag_171\n      jumpi\n      revert(0x00, 0x00)\n    tag_171:\n      pop\n      tag_172\n      0x04\n      dup1\n      calldatasize\n      sub\n      dup2\n      add\n      swap1\n      tag_173\n      swap2\n      swap1\n      tag_107\n      jump\t// in\n    tag_173:\n      tag_174\n      jump\t// in\n    tag_172:\n      stop\n        /* \"contracts/DiasporaRemitEscrow.sol\":16653:17482  function getTransferStatus(uint256 _transferId)... */\n    tag_28:\n      callvalue\n      dup1\n      iszero\n      tag_175\n      jumpi\n      revert(0x00, 0x00)\n    tag_175:\n      pop\n      tag_176\n      0x04\n      dup1\n      calldatasize\n      sub\n      dup2\n      add\n      swap1\n      tag_177\n      swap2\n      swap1\n      tag_66\n      jump\t// in\n    tag_177:\n      tag_178\n      jump\t// in\n    tag_176:\n      mload(0x40)\n      tag_179\n      swap8\n      swap7\n      swap6\n      swap5\n      swap4\n      swap3\n      swap2\n      swap1\n      tag_180\n      jump\t// in\n    tag_179:\n      mload(0x40)\n      dup1\n      swap2\n      sub\n      swap1\n      return\n        /* \"contracts/DiasporaRemitEscrow.sol\":15008:15733  function getTransfer(uint256 _transferId)... */\n    tag_29:\n      callvalue\n      dup1\n      iszero\n      tag_181\n      jumpi\n      revert(0x00, 0x00)\n    tag_181:\n      pop\n      tag_182\n      0x04\n      dup1\n      calldatasize\n      sub\n      dup2\n      add\n      swap1\n      tag_183\n      swap2\n      swap1\n      tag_66\n      jump\t// in\n    tag_183:\n      tag_184\n      jump\t// in\n    tag_182:\n      mload(0x40)\n      tag_185\n      swap12\n      swap11\n      swap10\n      swap9\n      swap8\n      swap7\n      swap6\n      swap5\n      swap4\n      swap3\n      swap2\n      swap1\n      tag_186\n      jump\t// in\n    tag_185:\n      mload(0x40)\n      dup1\n      swap2\n      sub\n      swap1\n      return\n        /* \"contracts/DiasporaRemitEscrow.sol\":1441:1481  uint256 public platformFeePercentage = 1 */\n    tag_30:\n      callvalue\n      dup1\n      iszero\n      tag_187\n      jumpi\n      revert(0x00, 0x00)\n    tag_187:\n      pop\n      tag_188\n      tag_189\n      jump\t// in\n    tag_188:\n      mload(0x40)\n      tag_190\n      swap2\n      swap1\n      tag_74\n      jump\t// in\n    tag_190:\n      mload(0x40)\n      dup1\n      swap2\n      sub\n      swap1\n      return\n        /* \"contracts/DiasporaRemitEscrow.sol\":11457:12848  function resolveDispute(uint256 _transferId, uint8 _percentageToRecipient)... */\n    tag_31:\n      callvalue\n      dup1\n      iszero\n      tag_191\n      jumpi\n      revert(0x00, 0x00)\n    tag_191:\n      pop\n      tag_192\n      0x04\n      dup1\n      calldatasize\n      sub\n      dup2\n      add\n      swap1\n      tag_193\n      swap2\n      swap1\n      tag_194\n      jump\t// in\n    tag_193:\n      tag_195\n      jump\t// in\n    tag_192:\n      stop\n        /* \"contracts/DiasporaRemitEscrow.sol\":6212:6956  function fundTransfer(uint256 _transferId) ... */\n    tag_32:\n      tag_196\n      0x04\n      dup1\n      calldatasize\n      sub\n      dup2\n      add\n      swap1\n      tag_197\n      swap2\n      swap1\n      tag_66\n      jump\t// in\n    tag_197:\n      tag_198\n      jump\t// in\n    tag_196:\n      stop\n        /* \"contracts/DiasporaRemitEscrow.sol\":1524:1555  uint256 public totalValueLocked */\n    tag_33:\n      callvalue\n      dup1\n      iszero\n      tag_199\n      jumpi\n      revert(0x00, 0x00)\n    tag_199:\n      pop\n      tag_200\n      tag_201\n      jump\t// in\n    tag_200:\n      mload(0x40)\n      tag_202\n      swap2\n      swap1\n      tag_74\n      jump\t// in\n    tag_202:\n      mload(0x40)\n      dup1\n      swap2\n      sub\n      swap1\n      return\n        /* \"contracts/DiasporaRemitEscrow.sol\":1932:1975  IValidatorRegistry public validatorRegistry */\n    tag_34:\n      callvalue\n      dup1\n      iszero\n      tag_203\n      jumpi\n      revert(0x00, 0x00)\n    tag_203:\n      pop\n      tag_204\n      tag_205\n      jump\t// in\n    tag_204:\n      mload(0x40)\n      tag_206\n      swap2\n      swap1\n      tag_207\n      jump\t// in\n    tag_206:\n      mload(0x40)\n      dup1\n      swap2\n      sub\n      swap1\n      return\n        /* \"contracts/DiasporaRemitEscrow.sol\":9819:10746  function refundTransfer(uint256 _transferId)... */\n    tag_35:\n      callvalue\n      dup1\n      iszero\n      tag_208\n      jumpi\n      revert(0x00, 0x00)\n    tag_208:\n      pop\n      tag_209\n      0x04\n      dup1\n      calldatasize\n      sub\n      dup2\n      add\n      swap1\n      tag_210\n      swap2\n      swap1\n      tag_66\n      jump\t// in\n    tag_210:\n      tag_211\n      jump\t// in\n    tag_209:\n      stop\n        /* \"contracts/DiasporaRemitEscrow.sol\":15893:16041  function getRecipientTransfers(address _recipient) external view returns (uint256[] memory) {... */\n    tag_55:\n        /* \"contracts/DiasporaRemitEscrow.sol\":15967:15983  uint256[] memory */\n      0x60\n        /* \"contracts/DiasporaRemitEscrow.sol\":16003:16021  recipientTransfers */\n      0x06\n        /* \"contracts/DiasporaRemitEscrow.sol\":16003:16033  recipientTransfers[_recipient] */\n      0x00\n        /* \"contracts/DiasporaRemitEscrow.sol\":16022:16032  _recipient */\n      dup4\n        /* \"contracts/DiasporaRemitEscrow.sol\":16003:16033  recipientTransfers[_recipient] */\n      0xffffffffffffffffffffffffffffffffffffffff\n      and\n      0xffffffffffffffffffffffffffffffffffffffff\n      and\n      dup2\n      mstore\n      0x20\n      add\n      swap1\n      dup2\n      mstore\n      0x20\n      add\n      0x00\n      keccak256\n        /* \"contracts/DiasporaRemitEscrow.sol\":15996:16033  return recipientTransfers[_recipient] */\n      dup1\n      sload\n      dup1\n      0x20\n      mul\n      0x20\n      add\n      mload(0x40)\n      swap1\n      dup2\n      add\n      0x40\n      mstore\n      dup1\n      swap3\n      swap2\n      swap1\n      dup2\n      dup2\n      mstore\n      0x20\n      add\n      dup3\n      dup1\n      sload\n      dup1\n      iszero\n      tag_213\n      jumpi\n      0x20\n      mul\n      dup3\n      add\n      swap2\n      swap1\n      0x00\n      mstore\n      keccak256(0x00, 0x20)\n      swap1\n    tag_214:\n      dup2\n      sload\n      dup2\n      mstore\n      0x20\n      add\n      swap1\n      0x01\n      add\n      swap1\n      dup1\n      dup4\n      gt\n      tag_214\n      jumpi\n    tag_213:\n      pop\n      pop\n      pop\n      pop\n      pop\n      swap1\n      pop\n        /* \"contracts/DiasporaRemitEscrow.sol\":15893:16041  function getRecipientTransfers(address _recipient) external view returns (uint256[] memory) {... */\n      swap2\n      swap1\n      pop\n      jump\t// out\n        /* \"contracts/DiasporaRemitEscrow.sol\":17615:17833  function getPlatformStats() external view returns (uint256 _totalTransfers, uint256 _totalValueLocked, uint256 _platformFeePercentage) {... */\n    tag_60:\n        /* \"contracts/DiasporaRemitEscrow.sol\":17666:17689  uint256 _totalTransfers */\n      0x00\n        /* \"contracts/DiasporaRemitEscrow.sol\":17691:17716  uint256 _totalValueLocked */\n      0x00\n        /* \"contracts/DiasporaRemitEscrow.sol\":17718:17748  uint256 _platformFeePercentage */\n      0x00\n        /* \"contracts/DiasporaRemitEscrow.sol\":17769:17783  totalTransfers */\n      sload(0x02)\n        /* \"contracts/DiasporaRemitEscrow.sol\":17785:17801  totalValueLocked */\n      sload(0x03)\n        /* \"contracts/DiasporaRemitEscrow.sol\":17803:17824  platformFeePercentage */\n      sload(0x01)\n        /* \"contracts/DiasporaRemitEscrow.sol\":17761:17825  return (totalTransfers, totalValueLocked, platformFeePercentage) */\n      swap3\n      pop\n      swap3\n      pop\n      swap3\n      pop\n        /* \"contracts/DiasporaRemitEscrow.sol\":17615:17833  function getPlatformStats() external view returns (uint256 _totalTransfers, uint256 _totalValueLocked, uint256 _platformFeePercentage) {... */\n      swap1\n      swap2\n      swap3\n      jump\t// out\n        /* \"contracts/DiasporaRemitEscrow.sol\":8547:9807  function withdrawFunds(uint256 _transferId)... */\n    tag_67:\n        /* \"contracts/DiasporaRemitEscrow.sol\":8633:8644  _transferId */\n      dup1\n        /* \"contracts/DiasporaRemitEscrow.sol\":3941:3955  totalTransfers */\n      sload(0x02)\n        /* \"contracts/DiasporaRemitEscrow.sol\":3926:3937  _transferId */\n      dup2\n        /* \"contracts/DiasporaRemitEscrow.sol\":3926:3955  _transferId >= totalTransfers */\n      lt\n        /* \"contracts/DiasporaRemitEscrow.sol\":3922:3993  if (_transferId >= totalTransfers) revert TransferNotFound(_transferId) */\n      tag_217\n      jumpi\n        /* \"contracts/DiasporaRemitEscrow.sol\":3981:3992  _transferId */\n      dup1\n        /* \"contracts/DiasporaRemitEscrow.sol\":3964:3993  TransferNotFound(_transferId) */\n      mload(0x40)\n      0xee9ffcb700000000000000000000000000000000000000000000000000000000\n      dup2\n      mstore\n      0x04\n      add\n      tag_218\n      swap2\n      swap1\n      tag_74\n      jump\t// in\n    tag_218:\n      mload(0x40)\n      dup1\n      swap2\n      sub\n      swap1\n      revert\n        /* \"contracts/DiasporaRemitEscrow.sol\":3922:3993  if (_transferId >= totalTransfers) revert TransferNotFound(_transferId) */\n    tag_217:\n        /* \"contracts/DiasporaRemitEscrow.sol\":8669:8680  _transferId */\n      dup2\n        /* \"contracts/DiasporaRemitEscrow.sol\":4284:4294  msg.sender */\n      caller\n        /* \"contracts/DiasporaRemitEscrow.sol\":4248:4294  transfers[_transferId].recipient != msg.sender */\n      0xffffffffffffffffffffffffffffffffffffffff\n      and\n        /* \"contracts/DiasporaRemitEscrow.sol\":4248:4257  transfers */\n      0x04\n        /* \"contracts/DiasporaRemitEscrow.sol\":4248:4270  transfers[_transferId] */\n      0x00\n        /* \"contracts/DiasporaRemitEscrow.sol\":4258:4269  _transferId */\n      dup4\n        /* \"contracts/DiasporaRemitEscrow.sol\":4248:4270  transfers[_transferId] */\n      dup2\n      mstore\n      0x20\n      add\n      swap1\n      dup2\n      mstore\n      0x20\n      add\n      0x00\n      keccak256\n        /* \"contracts/DiasporaRemitEscrow.sol\":4248:4280  transfers[_transferId].recipient */\n      0x02\n      add\n      0x00\n      swap1\n      sload\n      swap1\n      0x0100\n      exp\n      swap1\n      div\n      0xffffffffffffffffffffffffffffffffffffffff\n      and\n        /* \"contracts/DiasporaRemitEscrow.sol\":4248:4294  transfers[_transferId].recipient != msg.sender */\n      0xffffffffffffffffffffffffffffffffffffffff\n      and\n      eq\n        /* \"contracts/DiasporaRemitEscrow.sol\":4244:4327  if (transfers[_transferId].recipient != msg.sender) revert Unauthorized(msg.sender) */\n      tag_220\n      jumpi\n        /* \"contracts/DiasporaRemitEscrow.sol\":4316:4326  msg.sender */\n      caller\n        /* \"contracts/DiasporaRemitEscrow.sol\":4303:4327  Unauthorized(msg.sender) */\n      mload(0x40)\n      0x8e4a23d600000000000000000000000000000000000000000000000000000000\n      dup2\n      mstore\n      0x04\n      add\n      tag_221\n      swap2\n      swap1\n      tag_132\n      jump\t// in\n    tag_221:\n      mload(0x40)\n      dup1\n      swap2\n      sub\n      swap1\n      revert\n        /* \"contracts/DiasporaRemitEscrow.sol\":4244:4327  if (transfers[_transferId].recipient != msg.sender) revert Unauthorized(msg.sender) */\n    tag_220:\n        /* \"contracts/DiasporaRemitEscrow.sol\":3642:3643  1 */\n      0x01\n        /* \"contracts/DiasporaRemitEscrow.sol\":3632:3638  locked */\n      sload(0x08)\n        /* \"contracts/DiasporaRemitEscrow.sol\":3632:3643  locked != 1 */\n      eq\n        /* \"contracts/DiasporaRemitEscrow.sol\":3628:3672  if (locked != 1) revert ReentrancyDetected() */\n      tag_223\n      jumpi\n        /* \"contracts/DiasporaRemitEscrow.sol\":3652:3672  ReentrancyDetected() */\n      mload(0x40)\n      0xc5f2be5100000000000000000000000000000000000000000000000000000000\n      dup2\n      mstore\n      0x04\n      add\n      mload(0x40)\n      dup1\n      swap2\n      sub\n      swap1\n      revert\n        /* \"contracts/DiasporaRemitEscrow.sol\":3628:3672  if (locked != 1) revert ReentrancyDetected() */\n    tag_223:\n        /* \"contracts/DiasporaRemitEscrow.sol\":3692:3693  2 */\n      0x02\n        /* \"contracts/DiasporaRemitEscrow.sol\":3683:3689  locked */\n      0x08\n        /* \"contracts/DiasporaRemitEscrow.sol\":3683:3693  locked = 2 */\n      dup2\n      swap1\n      sstore\n      pop\n        /* \"contracts/DiasporaRemitEscrow.sol\":8720:8745  Transfer storage transfer */\n      0x00\n        /* \"contracts/DiasporaRemitEscrow.sol\":8748:8757  transfers */\n      0x04\n        /* \"contracts/DiasporaRemitEscrow.sol\":8748:8770  transfers[_transferId] */\n      0x00\n        /* \"contracts/DiasporaRemitEscrow.sol\":8758:8769  _transferId */\n      dup6\n        /* \"contracts/DiasporaRemitEscrow.sol\":8748:8770  transfers[_transferId] */\n      dup2\n      mstore\n      0x20\n      add\n      swap1\n      dup2\n      mstore\n      0x20\n      add\n      0x00\n      keccak256\n        /* \"contracts/DiasporaRemitEscrow.sol\":8720:8770  Transfer storage transfer = transfers[_transferId] */\n      swap1\n      pop\n        /* \"contracts/DiasporaRemitEscrow.sol\":8814:8838  TransferStatus.Validated */\n      0x02\n        /* \"contracts/DiasporaRemitEscrow.sol\":8795:8838  transfer.status != TransferStatus.Validated */\n      0x05\n      dup2\n      gt\n      iszero\n      tag_225\n      jumpi\n      tag_226\n      tag_227\n      jump\t// in\n    tag_226:\n    tag_225:\n        /* \"contracts/DiasporaRemitEscrow.sol\":8795:8803  transfer */\n      dup2\n        /* \"contracts/DiasporaRemitEscrow.sol\":8795:8810  transfer.status */\n      0x06\n      add\n      0x00\n      swap1\n      sload\n      swap1\n      0x0100\n      exp\n      swap1\n      div\n      0xff\n      and\n        /* \"contracts/DiasporaRemitEscrow.sol\":8795:8838  transfer.status != TransferStatus.Validated */\n      0x05\n      dup2\n      gt\n      iszero\n      tag_228\n      jumpi\n      tag_229\n      tag_227\n      jump\t// in\n    tag_229:\n    tag_228:\n      eq\n        /* \"contracts/DiasporaRemitEscrow.sol\":8791:8930  if (transfer.status != TransferStatus.Validated) {... */\n      tag_230\n      jumpi\n        /* \"contracts/DiasporaRemitEscrow.sol\":8876:8884  transfer */\n      dup1\n        /* \"contracts/DiasporaRemitEscrow.sol\":8876:8891  transfer.status */\n      0x06\n      add\n      0x00\n      swap1\n      sload\n      swap1\n      0x0100\n      exp\n      swap1\n      div\n      0xff\n      and\n        /* \"contracts/DiasporaRemitEscrow.sol\":8893:8917  TransferStatus.Validated */\n      0x02\n        /* \"contracts/DiasporaRemitEscrow.sol\":8862:8918  InvalidStatus(transfer.status, TransferStatus.Validated) */\n      mload(0x40)\n      0xf924664d00000000000000000000000000000000000000000000000000000000\n      dup2\n      mstore\n      0x04\n      add\n      tag_231\n      swap3\n      swap2\n      swap1\n      tag_232\n      jump\t// in\n    tag_231:\n      mload(0x40)\n      dup1\n      swap2\n      sub\n      swap1\n      revert\n        /* \"contracts/DiasporaRemitEscrow.sol\":8791:8930  if (transfer.status != TransferStatus.Validated) {... */\n    tag_230:\n        /* \"contracts/DiasporaRemitEscrow.sol\":8963:8964  0 */\n      0x00\n        /* \"contracts/DiasporaRemitEscrow.sol\":8944:8952  transfer */\n      dup2\n        /* \"contracts/DiasporaRemitEscrow.sol\":8944:8959  transfer.amount */\n      0x04\n      add\n      sload\n        /* \"contracts/DiasporaRemitEscrow.sol\":8944:8964  transfer.amount == 0 */\n      sub\n        /* \"contracts/DiasporaRemitEscrow.sol\":8940:8984  if (transfer.amount == 0) revert NotFunded() */\n      tag_233\n      jumpi\n        /* \"contracts/DiasporaRemitEscrow.sol\":8973:8984  NotFunded() */\n      mload(0x40)\n      0xd5ef09ba00000000000000000000000000000000000000000000000000000000\n      dup2\n      mstore\n      0x04\n      add\n      mload(0x40)\n      dup1\n      swap2\n      sub\n      swap1\n      revert\n        /* \"contracts/DiasporaRemitEscrow.sol\":8940:8984  if (transfer.amount == 0) revert NotFunded() */\n    tag_233:\n        /* \"contracts/DiasporaRemitEscrow.sol\":9005:9024  uint256 totalAmount */\n      0x00\n        /* \"contracts/DiasporaRemitEscrow.sol\":9027:9035  transfer */\n      dup2\n        /* \"contracts/DiasporaRemitEscrow.sol\":9027:9042  transfer.amount */\n      0x04\n      add\n      sload\n        /* \"contracts/DiasporaRemitEscrow.sol\":9005:9042  uint256 totalAmount = transfer.amount */\n      swap1\n      pop\n        /* \"contracts/DiasporaRemitEscrow.sol\":9053:9072  uint256 platformFee */\n      0x00\n        /* \"contracts/DiasporaRemitEscrow.sol\":9115:9118  100 */\n      0x64\n        /* \"contracts/DiasporaRemitEscrow.sol\":9090:9111  platformFeePercentage */\n      sload(0x01)\n        /* \"contracts/DiasporaRemitEscrow.sol\":9076:9087  totalAmount */\n      dup4\n        /* \"contracts/DiasporaRemitEscrow.sol\":9076:9111  totalAmount * platformFeePercentage */\n      tag_234\n      swap2\n      swap1\n      tag_235\n      jump\t// in\n    tag_234:\n        /* \"contracts/DiasporaRemitEscrow.sol\":9075:9118  (totalAmount * platformFeePercentage) / 100 */\n      tag_236\n      swap2\n      swap1\n      tag_237\n      jump\t// in\n    tag_236:\n        /* \"contracts/DiasporaRemitEscrow.sol\":9053:9118  uint256 platformFee = (totalAmount * platformFeePercentage) / 100 */\n      swap1\n      pop\n        /* \"contracts/DiasporaRemitEscrow.sol\":9129:9152  uint256 recipientAmount */\n      0x00\n        /* \"contracts/DiasporaRemitEscrow.sol\":9169:9180  platformFee */\n      dup2\n        /* \"contracts/DiasporaRemitEscrow.sol\":9155:9166  totalAmount */\n      dup4\n        /* \"contracts/DiasporaRemitEscrow.sol\":9155:9180  totalAmount - platformFee */\n      tag_238\n      swap2\n      swap1\n      tag_239\n      jump\t// in\n    tag_238:\n        /* \"contracts/DiasporaRemitEscrow.sol\":9129:9180  uint256 recipientAmount = totalAmount - platformFee */\n      swap1\n      pop\n        /* \"contracts/DiasporaRemitEscrow.sol\":9219:9243  TransferStatus.Completed */\n      0x03\n        /* \"contracts/DiasporaRemitEscrow.sol\":9201:9209  transfer */\n      dup5\n        /* \"contracts/DiasporaRemitEscrow.sol\":9201:9216  transfer.status */\n      0x06\n      add\n      0x00\n        /* \"contracts/DiasporaRemitEscrow.sol\":9201:9243  transfer.status = TransferStatus.Completed */\n      0x0100\n      exp\n      dup2\n      sload\n      dup2\n      0xff\n      mul\n      not\n      and\n      swap1\n      dup4\n      0x05\n      dup2\n      gt\n      iszero\n      tag_240\n      jumpi\n      tag_241\n      tag_227\n      jump\t// in\n    tag_241:\n    tag_240:\n      mul\n      or\n      swap1\n      sstore\n      pop\n        /* \"contracts/DiasporaRemitEscrow.sol\":9276:9291  block.timestamp */\n      timestamp\n        /* \"contracts/DiasporaRemitEscrow.sol\":9254:9262  transfer */\n      dup5\n        /* \"contracts/DiasporaRemitEscrow.sol\":9254:9273  transfer.releasedAt */\n      0x0a\n      add\n        /* \"contracts/DiasporaRemitEscrow.sol\":9254:9291  transfer.releasedAt = block.timestamp */\n      dup2\n      swap1\n      sstore\n      pop\n        /* \"contracts/DiasporaRemitEscrow.sol\":9332:9343  totalAmount */\n      dup3\n        /* \"contracts/DiasporaRemitEscrow.sol\":9312:9328  totalValueLocked */\n      0x03\n      0x00\n        /* \"contracts/DiasporaRemitEscrow.sol\":9312:9343  totalValueLocked -= totalAmount */\n      dup3\n      dup3\n      sload\n      tag_242\n      swap2\n      swap1\n      tag_239\n      jump\t// in\n    tag_242:\n      swap3\n      pop\n      pop\n      dup2\n      swap1\n      sstore\n      pop\n        /* \"contracts/DiasporaRemitEscrow.sol\":9477:9478  0 */\n      0x00\n        /* \"contracts/DiasporaRemitEscrow.sol\":9444:9479  address(userRegistry) != address(0) */\n      0xffffffffffffffffffffffffffffffffffffffff\n      and\n        /* \"contracts/DiasporaRemitEscrow.sol\":9452:9464  userRegistry */\n      0x09\n      0x00\n      swap1\n      sload\n      swap1\n      0x0100\n      exp\n      swap1\n      div\n      0xffffffffffffffffffffffffffffffffffffffff\n      and\n        /* \"contracts/DiasporaRemitEscrow.sol\":9444:9479  address(userRegistry) != address(0) */\n      0xffffffffffffffffffffffffffffffffffffffff\n      and\n      eq\n        /* \"contracts/DiasporaRemitEscrow.sol\":9440:9546  if (address(userRegistry) != address(0)) {... */\n      tag_243\n      jumpi\n        /* \"contracts/DiasporaRemitEscrow.sol\":9496:9534  _updateUserReputation(transfer.sender) */\n      tag_244\n        /* \"contracts/DiasporaRemitEscrow.sol\":9518:9526  transfer */\n      dup5\n        /* \"contracts/DiasporaRemitEscrow.sol\":9518:9533  transfer.sender */\n      0x01\n      add\n      0x00\n      swap1\n      sload\n      swap1\n      0x0100\n      exp\n      swap1\n      div\n      0xffffffffffffffffffffffffffffffffffffffff\n      and\n        /* \"contracts/DiasporaRemitEscrow.sol\":9496:9517  _updateUserReputation */\n      tag_245\n        /* \"contracts/DiasporaRemitEscrow.sol\":9496:9534  _updateUserReputation(transfer.sender) */\n      jump\t// in\n    tag_244:\n        /* \"contracts/DiasporaRemitEscrow.sol\":9440:9546  if (address(userRegistry) != address(0)) {... */\n    tag_243:\n        /* \"contracts/DiasporaRemitEscrow.sol\":9567:9579  bool success */\n      0x00\n        /* \"contracts/DiasporaRemitEscrow.sol\":9593:9601  transfer */\n      dup5\n        /* \"contracts/DiasporaRemitEscrow.sol\":9593:9611  transfer.recipient */\n      0x02\n      add\n      0x00\n      swap1\n      sload\n      swap1\n      0x0100\n      exp\n      swap1\n      div\n      0xffffffffffffffffffffffffffffffffffffffff\n      and\n        /* \"contracts/DiasporaRemitEscrow.sol\":9585:9617  payable(transfer.recipient).call */\n      0xffffffffffffffffffffffffffffffffffffffff\n      and\n        /* \"contracts/DiasporaRemitEscrow.sol\":9625:9640  recipientAmount */\n      dup3\n        /* \"contracts/DiasporaRemitEscrow.sol\":9585:9645  payable(transfer.recipient).call{value: recipientAmount}(\"\") */\n      mload(0x40)\n      tag_246\n      swap1\n      tag_247\n      jump\t// in\n    tag_246:\n      0x00\n      mload(0x40)\n      dup1\n      dup4\n      sub\n      dup2\n      dup6\n      dup8\n      gas\n      call\n      swap3\n      pop\n      pop\n      pop\n      returndatasize\n      dup1\n      0x00\n      dup2\n      eq\n      tag_250\n      jumpi\n      mload(0x40)\n      swap2\n      pop\n      and(add(returndatasize, 0x3f), not(0x1f))\n      dup3\n      add\n      0x40\n      mstore\n      returndatasize\n      dup3\n      mstore\n      returndatasize\n      0x00\n      0x20\n      dup5\n      add\n      returndatacopy\n      jump(tag_249)\n    tag_250:\n      0x60\n      swap2\n      pop\n    tag_249:\n      pop\n        /* \"contracts/DiasporaRemitEscrow.sol\":9566:9645  (bool success, ) = payable(transfer.recipient).call{value: recipientAmount}(\"\") */\n      pop\n      swap1\n      pop\n        /* \"contracts/DiasporaRemitEscrow.sol\":9661:9668  success */\n      dup1\n        /* \"contracts/DiasporaRemitEscrow.sol\":9656:9693  if (!success) revert TransferFailed() */\n      tag_251\n      jumpi\n        /* \"contracts/DiasporaRemitEscrow.sol\":9677:9693  TransferFailed() */\n      mload(0x40)\n      0x90b8ec1800000000000000000000000000000000000000000000000000000000\n      dup2\n      mstore\n      0x04\n      add\n      mload(0x40)\n      dup1\n      swap2\n      sub\n      swap1\n      revert\n        /* \"contracts/DiasporaRemitEscrow.sol\":9656:9693  if (!success) revert TransferFailed() */\n    tag_251:\n        /* \"contracts/DiasporaRemitEscrow.sol\":9750:9758  transfer */\n      dup5\n        /* \"contracts/DiasporaRemitEscrow.sol\":9750:9768  transfer.recipient */\n      0x02\n      add\n      0x00\n      swap1\n      sload\n      swap1\n      0x0100\n      exp\n      swap1\n      div\n      0xffffffffffffffffffffffffffffffffffffffff\n      and\n        /* \"contracts/DiasporaRemitEscrow.sol\":9719:9799  TransferCompleted(_transferId, transfer.recipient, recipientAmount, platformFee) */\n      0xffffffffffffffffffffffffffffffffffffffff\n      and\n        /* \"contracts/DiasporaRemitEscrow.sol\":9737:9748  _transferId */\n      dup9\n        /* \"contracts/DiasporaRemitEscrow.sol\":9719:9799  TransferCompleted(_transferId, transfer.recipient, recipientAmount, platformFee) */\n      0x8f034c05208e51e526ae64863f6f62ce04aa7d67d7568c54c28bcda6f1ced6a9\n        /* \"contracts/DiasporaRemitEscrow.sol\":9770:9785  recipientAmount */\n      dup5\n        /* \"contracts/DiasporaRemitEscrow.sol\":9787:9798  platformFee */\n      dup7\n        /* \"contracts/DiasporaRemitEscrow.sol\":9719:9799  TransferCompleted(_transferId, transfer.recipient, recipientAmount, platformFee) */\n      mload(0x40)\n      tag_252\n      swap3\n      swap2\n      swap1\n      tag_253\n      jump\t// in\n    tag_252:\n      mload(0x40)\n      dup1\n      swap2\n      sub\n      swap1\n      log3\n        /* \"contracts/DiasporaRemitEscrow.sol\":8709:9807  {... */\n      pop\n      pop\n      pop\n      pop\n      pop\n        /* \"contracts/DiasporaRemitEscrow.sol\":3725:3726  1 */\n      0x01\n        /* \"contracts/DiasporaRemitEscrow.sol\":3716:3722  locked */\n      0x08\n        /* \"contracts/DiasporaRemitEscrow.sol\":3716:3726  locked = 1 */\n      dup2\n      swap1\n      sstore\n      pop\n        /* \"contracts/DiasporaRemitEscrow.sol\":4004:4005  _ */\n      pop\n        /* \"contracts/DiasporaRemitEscrow.sol\":8547:9807  function withdrawFunds(uint256 _transferId)... */\n      pop\n      pop\n      jump\t// out\n        /* \"contracts/DiasporaRemitEscrow.sol\":1620:1672  mapping(address => uint256[]) public senderTransfers */\n    tag_72:\n      mstore(0x20, 0x05)\n      dup2\n      0x00\n      mstore\n      keccak256(0x00, 0x40)\n      dup2\n      dup2\n      sload\n      dup2\n      lt\n      tag_254\n      jumpi\n      0x00\n      dup1\n      revert\n    tag_254:\n      swap1\n      0x00\n      mstore\n      keccak256(0x00, 0x20)\n      add\n      0x00\n      swap2\n      pop\n      swap2\n      pop\n      pop\n      sload\n      dup2\n      jump\t// out\n        /* \"contracts/DiasporaRemitEscrow.sol\":16417:16641  function isValidatorCertified(address _validator) external view returns (bool) {... */\n    tag_78:\n        /* \"contracts/DiasporaRemitEscrow.sol\":16490:16494  bool */\n      0x00\n        /* \"contracts/DiasporaRemitEscrow.sol\":16549:16550  0 */\n      0x00\n        /* \"contracts/DiasporaRemitEscrow.sol\":16511:16551  address(validatorRegistry) == address(0) */\n      0xffffffffffffffffffffffffffffffffffffffff\n      and\n        /* \"contracts/DiasporaRemitEscrow.sol\":16519:16536  validatorRegistry */\n      0x0a\n      0x00\n      swap1\n      sload\n      swap1\n      0x0100\n      exp\n      swap1\n      div\n      0xffffffffffffffffffffffffffffffffffffffff\n      and\n        /* \"contracts/DiasporaRemitEscrow.sol\":16511:16551  address(validatorRegistry) == address(0) */\n      0xffffffffffffffffffffffffffffffffffffffff\n      and\n      sub\n        /* \"contracts/DiasporaRemitEscrow.sol\":16507:16565  if (address(validatorRegistry) == address(0)) return false */\n      tag_257\n      jumpi\n        /* \"contracts/DiasporaRemitEscrow.sol\":16560:16565  false */\n      0x00\n        /* \"contracts/DiasporaRemitEscrow.sol\":16553:16565  return false */\n      swap1\n      pop\n      jump(tag_256)\n        /* \"contracts/DiasporaRemitEscrow.sol\":16507:16565  if (address(validatorRegistry) == address(0)) return false */\n    tag_257:\n        /* \"contracts/DiasporaRemitEscrow.sol\":16583:16600  validatorRegistry */\n      0x0a\n      0x00\n      swap1\n      sload\n      swap1\n      0x0100\n      exp\n      swap1\n      div\n      0xffffffffffffffffffffffffffffffffffffffff\n      and\n        /* \"contracts/DiasporaRemitEscrow.sol\":16583:16621  validatorRegistry.isCertifiedValidator */\n      0xffffffffffffffffffffffffffffffffffffffff\n      and\n      0x305ea318\n        /* \"contracts/DiasporaRemitEscrow.sol\":16622:16632  _validator */\n      dup4\n        /* \"contracts/DiasporaRemitEscrow.sol\":16583:16633  validatorRegistry.isCertifiedValidator(_validator) */\n      mload(0x40)\n      dup3\n      0xffffffff\n      and\n      0xe0\n      shl\n      dup2\n      mstore\n      0x04\n      add\n      tag_258\n      swap2\n      swap1\n      tag_132\n      jump\t// in\n    tag_258:\n      0x20\n      mload(0x40)\n      dup1\n      dup4\n      sub\n      dup2\n      dup7\n      gas\n      staticcall\n      iszero\n      dup1\n      iszero\n      tag_260\n      jumpi\n      returndatacopy(0x00, 0x00, returndatasize)\n      revert(0x00, returndatasize)\n    tag_260:\n      pop\n      pop\n      pop\n      pop\n      mload(0x40)\n      returndatasize\n      not(0x1f)\n      0x1f\n      dup3\n      add\n      and\n      dup3\n      add\n      dup1\n      0x40\n      mstore\n      pop\n      dup2\n      add\n      swap1\n      tag_261\n      swap2\n      swap1\n      tag_262\n      jump\t// in\n    tag_261:\n        /* \"contracts/DiasporaRemitEscrow.sol\":16576:16633  return validatorRegistry.isCertifiedValidator(_validator) */\n      swap1\n      pop\n        /* \"contracts/DiasporaRemitEscrow.sol\":16417:16641  function isValidatorCertified(address _validator) external view returns (bool) {... */\n    tag_256:\n      swap2\n      swap1\n      pop\n      jump\t// out\n        /* \"contracts/DiasporaRemitEscrow.sol\":14156:14786  function extendDeadline(uint256 _transferId, uint256 _additionalSeconds)... */\n    tag_85:\n        /* \"contracts/DiasporaRemitEscrow.sol\":14271:14282  _transferId */\n      dup2\n        /* \"contracts/DiasporaRemitEscrow.sol\":3941:3955  totalTransfers */\n      sload(0x02)\n        /* \"contracts/DiasporaRemitEscrow.sol\":3926:3937  _transferId */\n      dup2\n        /* \"contracts/DiasporaRemitEscrow.sol\":3926:3955  _transferId >= totalTransfers */\n      lt\n        /* \"contracts/DiasporaRemitEscrow.sol\":3922:3993  if (_transferId >= totalTransfers) revert TransferNotFound(_transferId) */\n      tag_264\n      jumpi\n        /* \"contracts/DiasporaRemitEscrow.sol\":3981:3992  _transferId */\n      dup1\n        /* \"contracts/DiasporaRemitEscrow.sol\":3964:3993  TransferNotFound(_transferId) */\n      mload(0x40)\n      0xee9ffcb700000000000000000000000000000000000000000000000000000000\n      dup2\n      mstore\n      0x04\n      add\n      tag_265\n      swap2\n      swap1\n      tag_74\n      jump\t// in\n    tag_265:\n      mload(0x40)\n      dup1\n      swap2\n      sub\n      swap1\n      revert\n        /* \"contracts/DiasporaRemitEscrow.sol\":3922:3993  if (_transferId >= totalTransfers) revert TransferNotFound(_transferId) */\n    tag_264:\n        /* \"contracts/DiasporaRemitEscrow.sol\":14304:14315  _transferId */\n      dup3\n        /* \"contracts/DiasporaRemitEscrow.sol\":4114:4124  msg.sender */\n      caller\n        /* \"contracts/DiasporaRemitEscrow.sol\":4081:4124  transfers[_transferId].sender != msg.sender */\n      0xffffffffffffffffffffffffffffffffffffffff\n      and\n        /* \"contracts/DiasporaRemitEscrow.sol\":4081:4090  transfers */\n      0x04\n        /* \"contracts/DiasporaRemitEscrow.sol\":4081:4103  transfers[_transferId] */\n      0x00\n        /* \"contracts/DiasporaRemitEscrow.sol\":4091:4102  _transferId */\n      dup4\n        /* \"contracts/DiasporaRemitEscrow.sol\":4081:4103  transfers[_transferId] */\n      dup2\n      mstore\n      0x20\n      add\n      swap1\n      dup2\n      mstore\n      0x20\n      add\n      0x00\n      keccak256\n        /* \"contracts/DiasporaRemitEscrow.sol\":4081:4110  transfers[_transferId].sender */\n      0x01\n      add\n      0x00\n      swap1\n      sload\n      swap1\n      0x0100\n      exp\n      swap1\n      div\n      0xffffffffffffffffffffffffffffffffffffffff\n      and\n        /* \"contracts/DiasporaRemitEscrow.sol\":4081:4124  transfers[_transferId].sender != msg.sender */\n      0xffffffffffffffffffffffffffffffffffffffff\n      and\n      eq\n        /* \"contracts/DiasporaRemitEscrow.sol\":4077:4157  if (transfers[_transferId].sender != msg.sender) revert Unauthorized(msg.sender) */\n      tag_267\n      jumpi\n        /* \"contracts/DiasporaRemitEscrow.sol\":4146:4156  msg.sender */\n      caller\n        /* \"contracts/DiasporaRemitEscrow.sol\":4133:4157  Unauthorized(msg.sender) */\n      mload(0x40)\n      0x8e4a23d600000000000000000000000000000000000000000000000000000000\n      dup2\n      mstore\n      0x04\n      add\n      tag_268\n      swap2\n      swap1\n      tag_132\n      jump\t// in\n    tag_268:\n      mload(0x40)\n      dup1\n      swap2\n      sub\n      swap1\n      revert\n        /* \"contracts/DiasporaRemitEscrow.sol\":4077:4157  if (transfers[_transferId].sender != msg.sender) revert Unauthorized(msg.sender) */\n    tag_267:\n        /* \"contracts/DiasporaRemitEscrow.sol\":14333:14358  Transfer storage transfer */\n      0x00\n        /* \"contracts/DiasporaRemitEscrow.sol\":14361:14370  transfers */\n      0x04\n        /* \"contracts/DiasporaRemitEscrow.sol\":14361:14383  transfers[_transferId] */\n      0x00\n        /* \"contracts/DiasporaRemitEscrow.sol\":14371:14382  _transferId */\n      dup7\n        /* \"contracts/DiasporaRemitEscrow.sol\":14361:14383  transfers[_transferId] */\n      dup2\n      mstore\n      0x20\n      add\n      swap1\n      dup2\n      mstore\n      0x20\n      add\n      0x00\n      keccak256\n        /* \"contracts/DiasporaRemitEscrow.sol\":14333:14383  Transfer storage transfer = transfers[_transferId] */\n      swap1\n      pop\n        /* \"contracts/DiasporaRemitEscrow.sol\":14417:14438  TransferStatus.Funded */\n      0x01\n        /* \"contracts/DiasporaRemitEscrow.sol\":14398:14438  transfer.status != TransferStatus.Funded */\n      0x05\n      dup2\n      gt\n      iszero\n      tag_270\n      jumpi\n      tag_271\n      tag_227\n      jump\t// in\n    tag_271:\n    tag_270:\n        /* \"contracts/DiasporaRemitEscrow.sol\":14398:14406  transfer */\n      dup2\n        /* \"contracts/DiasporaRemitEscrow.sol\":14398:14413  transfer.status */\n      0x06\n      add\n      0x00\n      swap1\n      sload\n      swap1\n      0x0100\n      exp\n      swap1\n      div\n      0xff\n      and\n        /* \"contracts/DiasporaRemitEscrow.sol\":14398:14438  transfer.status != TransferStatus.Funded */\n      0x05\n      dup2\n      gt\n      iszero\n      tag_272\n      jumpi\n      tag_273\n      tag_227\n      jump\t// in\n    tag_273:\n    tag_272:\n      eq\n        /* \"contracts/DiasporaRemitEscrow.sol\":14394:14527  if (transfer.status != TransferStatus.Funded) {... */\n      tag_274\n      jumpi\n        /* \"contracts/DiasporaRemitEscrow.sol\":14476:14484  transfer */\n      dup1\n        /* \"contracts/DiasporaRemitEscrow.sol\":14476:14491  transfer.status */\n      0x06\n      add\n      0x00\n      swap1\n      sload\n      swap1\n      0x0100\n      exp\n      swap1\n      div\n      0xff\n      and\n        /* \"contracts/DiasporaRemitEscrow.sol\":14493:14514  TransferStatus.Funded */\n      0x01\n        /* \"contracts/DiasporaRemitEscrow.sol\":14462:14515  InvalidStatus(transfer.status, TransferStatus.Funded) */\n      mload(0x40)\n      0xf924664d00000000000000000000000000000000000000000000000000000000\n      dup2\n      mstore\n      0x04\n      add\n      tag_275\n      swap3\n      swap2\n      swap1\n      tag_232\n      jump\t// in\n    tag_275:\n      mload(0x40)\n      dup1\n      swap2\n      sub\n      swap1\n      revert\n        /* \"contracts/DiasporaRemitEscrow.sol\":14394:14527  if (transfer.status != TransferStatus.Funded) {... */\n    tag_274:\n        /* \"contracts/DiasporaRemitEscrow.sol\":14559:14567  transfer */\n      dup1\n        /* \"contracts/DiasporaRemitEscrow.sol\":14559:14576  transfer.deadline */\n      0x05\n      add\n      sload\n        /* \"contracts/DiasporaRemitEscrow.sol\":14541:14556  block.timestamp */\n      timestamp\n        /* \"contracts/DiasporaRemitEscrow.sol\":14541:14576  block.timestamp > transfer.deadline */\n      gt\n        /* \"contracts/DiasporaRemitEscrow.sol\":14537:14601  if (block.timestamp > transfer.deadline) revert DeadlinePassed() */\n      iszero\n      tag_276\n      jumpi\n        /* \"contracts/DiasporaRemitEscrow.sol\":14585:14601  DeadlinePassed() */\n      mload(0x40)\n      0x70f65caa00000000000000000000000000000000000000000000000000000000\n      dup2\n      mstore\n      0x04\n      add\n      mload(0x40)\n      dup1\n      swap2\n      sub\n      swap1\n      revert\n        /* \"contracts/DiasporaRemitEscrow.sol\":14537:14601  if (block.timestamp > transfer.deadline) revert DeadlinePassed() */\n    tag_276:\n        /* \"contracts/DiasporaRemitEscrow.sol\":14612:14631  uint256 oldDeadline */\n      0x00\n        /* \"contracts/DiasporaRemitEscrow.sol\":14634:14642  transfer */\n      dup2\n        /* \"contracts/DiasporaRemitEscrow.sol\":14634:14651  transfer.deadline */\n      0x05\n      add\n      sload\n        /* \"contracts/DiasporaRemitEscrow.sol\":14612:14651  uint256 oldDeadline = transfer.deadline */\n      swap1\n      pop\n        /* \"contracts/DiasporaRemitEscrow.sol\":14683:14701  _additionalSeconds */\n      dup5\n        /* \"contracts/DiasporaRemitEscrow.sol\":14662:14670  transfer */\n      dup3\n        /* \"contracts/DiasporaRemitEscrow.sol\":14662:14679  transfer.deadline */\n      0x05\n      add\n      0x00\n        /* \"contracts/DiasporaRemitEscrow.sol\":14662:14701  transfer.deadline += _additionalSeconds */\n      dup3\n      dup3\n      sload\n      tag_277\n      swap2\n      swap1\n      tag_278\n      jump\t// in\n    tag_277:\n      swap3\n      pop\n      pop\n      dup2\n      swap1\n      sstore\n      pop\n        /* \"contracts/DiasporaRemitEscrow.sol\":14734:14745  _transferId */\n      dup6\n        /* \"contracts/DiasporaRemitEscrow.sol\":14717:14778  DeadlineExtended(_transferId, oldDeadline, transfer.deadline) */\n      0x514af8ba7abbcaa858d00568e0788cd39416a39195eac9780f8730cd4fcfb103\n        /* \"contracts/DiasporaRemitEscrow.sol\":14747:14758  oldDeadline */\n      dup3\n        /* \"contracts/DiasporaRemitEscrow.sol\":14760:14768  transfer */\n      dup5\n        /* \"contracts/DiasporaRemitEscrow.sol\":14760:14777  transfer.deadline */\n      0x05\n      add\n      sload\n        /* \"contracts/DiasporaRemitEscrow.sol\":14717:14778  DeadlineExtended(_transferId, oldDeadline, transfer.deadline) */\n      mload(0x40)\n      tag_279\n      swap3\n      swap2\n      swap1\n      tag_253\n      jump\t// in\n    tag_279:\n      mload(0x40)\n      dup1\n      swap2\n      sub\n      swap1\n      log2\n        /* \"contracts/DiasporaRemitEscrow.sol\":14322:14786  {... */\n      pop\n      pop\n        /* \"contracts/DiasporaRemitEscrow.sol\":4004:4005  _ */\n      pop\n        /* \"contracts/DiasporaRemitEscrow.sol\":14156:14786  function extendDeadline(uint256 _transferId, uint256 _additionalSeconds)... */\n      pop\n      pop\n      pop\n      jump\t// out\n        /* \"contracts/DiasporaRemitEscrow.sol\":1488:1517  uint256 public totalTransfers */\n    tag_88:\n      sload(0x02)\n      dup2\n      jump\t// out\n        /* \"contracts/DiasporaRemitEscrow.sol\":16053:16201  function getValidatorTransfers(address _validator) external view returns (uint256[] memory) {... */\n    tag_93:\n        /* \"contracts/DiasporaRemitEscrow.sol\":16127:16143  uint256[] memory */\n      0x60\n        /* \"contracts/DiasporaRemitEscrow.sol\":16163:16181  validatorTransfers */\n      0x07\n        /* \"contracts/DiasporaRemitEscrow.sol\":16163:16193  validatorTransfers[_validator] */\n      0x00\n        /* \"contracts/DiasporaRemitEscrow.sol\":16182:16192  _validator */\n      dup4\n        /* \"contracts/DiasporaRemitEscrow.sol\":16163:16193  validatorTransfers[_validator] */\n      0xffffffffffffffffffffffffffffffffffffffff\n      and\n      0xffffffffffffffffffffffffffffffffffffffff\n      and\n      dup2\n      mstore\n      0x20\n      add\n      swap1\n      dup2\n      mstore\n      0x20\n      add\n      0x00\n      keccak256\n        /* \"contracts/DiasporaRemitEscrow.sol\":16156:16193  return validatorTransfers[_validator] */\n      dup1\n      sload\n      dup1\n      0x20\n      mul\n      0x20\n      add\n      mload(0x40)\n      swap1\n      dup2\n      add\n      0x40\n      mstore\n      dup1\n      swap3\n      swap2\n      swap1\n      dup2\n      dup2\n      mstore\n      0x20\n      add\n      dup3\n      dup1\n      sload\n      dup1\n      iszero\n      tag_281\n      jumpi\n      0x20\n      mul\n      dup3\n      add\n      swap2\n      swap1\n      0x00\n      mstore\n      keccak256(0x00, 0x20)\n      swap1\n    tag_282:\n      dup2\n      sload\n      dup2\n      mstore\n      0x20\n      add\n      swap1\n      0x01\n      add\n      swap1\n      dup1\n      dup4\n      gt\n      tag_282\n      jumpi\n    tag_281:\n      pop\n      pop\n      pop\n      pop\n      pop\n      swap1\n      pop\n        /* \"contracts/DiasporaRemitEscrow.sol\":16053:16201  function getValidatorTransfers(address _validator) external view returns (uint256[] memory) {... */\n      swap2\n      swap1\n      pop\n      jump\t// out\n        /* \"contracts/DiasporaRemitEscrow.sol\":4725:4861  function setValidatorRegistry(address _registry) external onlyOwner {... */\n    tag_98:\n        /* \"contracts/DiasporaRemitEscrow.sol\":3796:3801  owner */\n      0x00\n      0x00\n      swap1\n      sload\n      swap1\n      0x0100\n      exp\n      swap1\n      div\n      0xffffffffffffffffffffffffffffffffffffffff\n      and\n        /* \"contracts/DiasporaRemitEscrow.sol\":3782:3801  msg.sender != owner */\n      0xffffffffffffffffffffffffffffffffffffffff\n      and\n        /* \"contracts/DiasporaRemitEscrow.sol\":3782:3792  msg.sender */\n      caller\n        /* \"contracts/DiasporaRemitEscrow.sol\":3782:3801  msg.sender != owner */\n      0xffffffffffffffffffffffffffffffffffffffff\n      and\n      eq\n        /* \"contracts/DiasporaRemitEscrow.sol\":3778:3834  if (msg.sender != owner) revert Unauthorized(msg.sender) */\n      tag_284\n      jumpi\n        /* \"contracts/DiasporaRemitEscrow.sol\":3823:3833  msg.sender */\n      caller\n        /* \"contracts/DiasporaRemitEscrow.sol\":3810:3834  Unauthorized(msg.sender) */\n      mload(0x40)\n      0x8e4a23d600000000000000000000000000000000000000000000000000000000\n      dup2\n      mstore\n      0x04\n      add\n      tag_285\n      swap2\n      swap1\n      tag_132\n      jump\t// in\n    tag_285:\n      mload(0x40)\n      dup1\n      swap2\n      sub\n      swap1\n      revert\n        /* \"contracts/DiasporaRemitEscrow.sol\":3778:3834  if (msg.sender != owner) revert Unauthorized(msg.sender) */\n    tag_284:\n        /* \"contracts/DiasporaRemitEscrow.sol\":4843:4852  _registry */\n      dup1\n        /* \"contracts/DiasporaRemitEscrow.sol\":4804:4821  validatorRegistry */\n      0x0a\n      0x00\n        /* \"contracts/DiasporaRemitEscrow.sol\":4804:4853  validatorRegistry = IValidatorRegistry(_registry) */\n      0x0100\n      exp\n      dup2\n      sload\n      dup2\n      0xffffffffffffffffffffffffffffffffffffffff\n      mul\n      not\n      and\n      swap1\n      dup4\n      0xffffffffffffffffffffffffffffffffffffffff\n      and\n      mul\n      or\n      swap1\n      sstore\n      pop\n        /* \"contracts/DiasporaRemitEscrow.sol\":4725:4861  function setValidatorRegistry(address _registry) external onlyOwner {... */\n      pop\n      jump\t// out\n        /* \"contracts/DiasporaRemitEscrow.sol\":7676:8535  function validateTransfer(uint256 _transferId, string calldata _note)... */\n    tag_103:\n        /* \"contracts/DiasporaRemitEscrow.sol\":7788:7799  _transferId */\n      dup3\n        /* \"contracts/DiasporaRemitEscrow.sol\":3941:3955  totalTransfers */\n      sload(0x02)\n        /* \"contracts/DiasporaRemitEscrow.sol\":3926:3937  _transferId */\n      dup2\n        /* \"contracts/DiasporaRemitEscrow.sol\":3926:3955  _transferId >= totalTransfers */\n      lt\n        /* \"contracts/DiasporaRemitEscrow.sol\":3922:3993  if (_transferId >= totalTransfers) revert TransferNotFound(_transferId) */\n      tag_288\n      jumpi\n        /* \"contracts/DiasporaRemitEscrow.sol\":3981:3992  _transferId */\n      dup1\n        /* \"contracts/DiasporaRemitEscrow.sol\":3964:3993  TransferNotFound(_transferId) */\n      mload(0x40)\n      0xee9ffcb700000000000000000000000000000000000000000000000000000000\n      dup2\n      mstore\n      0x04\n      add\n      tag_289\n      swap2\n      swap1\n      tag_74\n      jump\t// in\n    tag_289:\n      mload(0x40)\n      dup1\n      swap2\n      sub\n      swap1\n      revert\n        /* \"contracts/DiasporaRemitEscrow.sol\":3922:3993  if (_transferId >= totalTransfers) revert TransferNotFound(_transferId) */\n    tag_288:\n        /* \"contracts/DiasporaRemitEscrow.sol\":7824:7835  _transferId */\n      dup4\n        /* \"contracts/DiasporaRemitEscrow.sol\":4454:4464  msg.sender */\n      caller\n        /* \"contracts/DiasporaRemitEscrow.sol\":4418:4464  transfers[_transferId].validator != msg.sender */\n      0xffffffffffffffffffffffffffffffffffffffff\n      and\n        /* \"contracts/DiasporaRemitEscrow.sol\":4418:4427  transfers */\n      0x04\n        /* \"contracts/DiasporaRemitEscrow.sol\":4418:4440  transfers[_transferId] */\n      0x00\n        /* \"contracts/DiasporaRemitEscrow.sol\":4428:4439  _transferId */\n      dup4\n        /* \"contracts/DiasporaRemitEscrow.sol\":4418:4440  transfers[_transferId] */\n      dup2\n      mstore\n      0x20\n      add\n      swap1\n      dup2\n      mstore\n      0x20\n      add\n      0x00\n      keccak256\n        /* \"contracts/DiasporaRemitEscrow.sol\":4418:4450  transfers[_transferId].validator */\n      0x03\n      add\n      0x00\n      swap1\n      sload\n      swap1\n      0x0100\n      exp\n      swap1\n      div\n      0xffffffffffffffffffffffffffffffffffffffff\n      and\n        /* \"contracts/DiasporaRemitEscrow.sol\":4418:4464  transfers[_transferId].validator != msg.sender */\n      0xffffffffffffffffffffffffffffffffffffffff\n      and\n      eq\n        /* \"contracts/DiasporaRemitEscrow.sol\":4414:4497  if (transfers[_transferId].validator != msg.sender) revert Unauthorized(msg.sender) */\n      tag_291\n      jumpi\n        /* \"contracts/DiasporaRemitEscrow.sol\":4486:4496  msg.sender */\n      caller\n        /* \"contracts/DiasporaRemitEscrow.sol\":4473:4497  Unauthorized(msg.sender) */\n      mload(0x40)\n      0x8e4a23d600000000000000000000000000000000000000000000000000000000\n      dup2\n      mstore\n      0x04\n      add\n      tag_292\n      swap2\n      swap1\n      tag_132\n      jump\t// in\n    tag_292:\n      mload(0x40)\n      dup1\n      swap2\n      sub\n      swap1\n      revert\n        /* \"contracts/DiasporaRemitEscrow.sol\":4414:4497  if (transfers[_transferId].validator != msg.sender) revert Unauthorized(msg.sender) */\n    tag_291:\n        /* \"contracts/DiasporaRemitEscrow.sol\":7853:7878  Transfer storage transfer */\n      0x00\n        /* \"contracts/DiasporaRemitEscrow.sol\":7881:7890  transfers */\n      0x04\n        /* \"contracts/DiasporaRemitEscrow.sol\":7881:7903  transfers[_transferId] */\n      0x00\n        /* \"contracts/DiasporaRemitEscrow.sol\":7891:7902  _transferId */\n      dup8\n        /* \"contracts/DiasporaRemitEscrow.sol\":7881:7903  transfers[_transferId] */\n      dup2\n      mstore\n      0x20\n      add\n      swap1\n      dup2\n      mstore\n      0x20\n      add\n      0x00\n      keccak256\n        /* \"contracts/DiasporaRemitEscrow.sol\":7853:7903  Transfer storage transfer = transfers[_transferId] */\n      swap1\n      pop\n        /* \"contracts/DiasporaRemitEscrow.sol\":7947:7968  TransferStatus.Funded */\n      0x01\n        /* \"contracts/DiasporaRemitEscrow.sol\":7928:7968  transfer.status != TransferStatus.Funded */\n      0x05\n      dup2\n      gt\n      iszero\n      tag_294\n      jumpi\n      tag_295\n      tag_227\n      jump\t// in\n    tag_295:\n    tag_294:\n        /* \"contracts/DiasporaRemitEscrow.sol\":7928:7936  transfer */\n      dup2\n        /* \"contracts/DiasporaRemitEscrow.sol\":7928:7943  transfer.status */\n      0x06\n      add\n      0x00\n      swap1\n      sload\n      swap1\n      0x0100\n      exp\n      swap1\n      div\n      0xff\n      and\n        /* \"contracts/DiasporaRemitEscrow.sol\":7928:7968  transfer.status != TransferStatus.Funded */\n      0x05\n      dup2\n      gt\n      iszero\n      tag_296\n      jumpi\n      tag_297\n      tag_227\n      jump\t// in\n    tag_297:\n    tag_296:\n      eq\n        /* \"contracts/DiasporaRemitEscrow.sol\":7924:8057  if (transfer.status != TransferStatus.Funded) {... */\n      tag_298\n      jumpi\n        /* \"contracts/DiasporaRemitEscrow.sol\":8006:8014  transfer */\n      dup1\n        /* \"contracts/DiasporaRemitEscrow.sol\":8006:8021  transfer.status */\n      0x06\n      add\n      0x00\n      swap1\n      sload\n      swap1\n      0x0100\n      exp\n      swap1\n      div\n      0xff\n      and\n        /* \"contracts/DiasporaRemitEscrow.sol\":8023:8044  TransferStatus.Funded */\n      0x01\n        /* \"contracts/DiasporaRemitEscrow.sol\":7992:8045  InvalidStatus(transfer.status, TransferStatus.Funded) */\n      mload(0x40)\n      0xf924664d00000000000000000000000000000000000000000000000000000000\n      dup2\n      mstore\n      0x04\n      add\n      tag_299\n      swap3\n      swap2\n      swap1\n      tag_232\n      jump\t// in\n    tag_299:\n      mload(0x40)\n      dup1\n      swap2\n      sub\n      swap1\n      revert\n        /* \"contracts/DiasporaRemitEscrow.sol\":7924:8057  if (transfer.status != TransferStatus.Funded) {... */\n    tag_298:\n        /* \"contracts/DiasporaRemitEscrow.sol\":8089:8097  transfer */\n      dup1\n        /* \"contracts/DiasporaRemitEscrow.sol\":8089:8106  transfer.deadline */\n      0x05\n      add\n      sload\n        /* \"contracts/DiasporaRemitEscrow.sol\":8071:8086  block.timestamp */\n      timestamp\n        /* \"contracts/DiasporaRemitEscrow.sol\":8071:8106  block.timestamp > transfer.deadline */\n      gt\n        /* \"contracts/DiasporaRemitEscrow.sol\":8067:8131  if (block.timestamp > transfer.deadline) revert DeadlinePassed() */\n      iszero\n      tag_300\n      jumpi\n        /* \"contracts/DiasporaRemitEscrow.sol\":8115:8131  DeadlinePassed() */\n      mload(0x40)\n      0x70f65caa00000000000000000000000000000000000000000000000000000000\n      dup2\n      mstore\n      0x04\n      add\n      mload(0x40)\n      dup1\n      swap2\n      sub\n      swap1\n      revert\n        /* \"contracts/DiasporaRemitEscrow.sol\":8067:8131  if (block.timestamp > transfer.deadline) revert DeadlinePassed() */\n    tag_300:\n        /* \"contracts/DiasporaRemitEscrow.sol\":8170:8194  TransferStatus.Validated */\n      0x02\n        /* \"contracts/DiasporaRemitEscrow.sol\":8152:8160  transfer */\n      dup2\n        /* \"contracts/DiasporaRemitEscrow.sol\":8152:8167  transfer.status */\n      0x06\n      add\n      0x00\n        /* \"contracts/DiasporaRemitEscrow.sol\":8152:8194  transfer.status = TransferStatus.Validated */\n      0x0100\n      exp\n      dup2\n      sload\n      dup2\n      0xff\n      mul\n      not\n      and\n      swap1\n      dup4\n      0x05\n      dup2\n      gt\n      iszero\n      tag_301\n      jumpi\n      tag_302\n      tag_227\n      jump\t// in\n    tag_302:\n    tag_301:\n      mul\n      or\n      swap1\n      sstore\n      pop\n        /* \"contracts/DiasporaRemitEscrow.sol\":8231:8236  _note */\n      dup5\n      dup5\n        /* \"contracts/DiasporaRemitEscrow.sol\":8205:8213  transfer */\n      dup3\n        /* \"contracts/DiasporaRemitEscrow.sol\":8205:8228  transfer.validationNote */\n      0x08\n      add\n        /* \"contracts/DiasporaRemitEscrow.sol\":8205:8236  transfer.validationNote = _note */\n      swap2\n      dup3\n      tag_303\n      swap3\n      swap2\n      swap1\n      tag_304\n      jump\t// in\n    tag_303:\n      pop\n        /* \"contracts/DiasporaRemitEscrow.sol\":8370:8371  0 */\n      0x00\n        /* \"contracts/DiasporaRemitEscrow.sol\":8332:8372  address(validatorRegistry) != address(0) */\n      0xffffffffffffffffffffffffffffffffffffffff\n      and\n        /* \"contracts/DiasporaRemitEscrow.sol\":8340:8357  validatorRegistry */\n      0x0a\n      0x00\n      swap1\n      sload\n      swap1\n      0x0100\n      exp\n      swap1\n      div\n      0xffffffffffffffffffffffffffffffffffffffff\n      and\n        /* \"contracts/DiasporaRemitEscrow.sol\":8332:8372  address(validatorRegistry) != address(0) */\n      0xffffffffffffffffffffffffffffffffffffffff\n      and\n      eq\n        /* \"contracts/DiasporaRemitEscrow.sol\":8328:8453  if (address(validatorRegistry) != address(0)) {... */\n      tag_305\n      jumpi\n        /* \"contracts/DiasporaRemitEscrow.sol\":8389:8406  validatorRegistry */\n      0x0a\n      0x00\n      swap1\n      sload\n      swap1\n      0x0100\n      exp\n      swap1\n      div\n      0xffffffffffffffffffffffffffffffffffffffff\n      and\n        /* \"contracts/DiasporaRemitEscrow.sol\":8389:8423  validatorRegistry.recordValidation */\n      0xffffffffffffffffffffffffffffffffffffffff\n      and\n      0x1d11308e\n        /* \"contracts/DiasporaRemitEscrow.sol\":8424:8434  msg.sender */\n      caller\n        /* \"contracts/DiasporaRemitEscrow.sol\":8436:8440  true */\n      0x01\n        /* \"contracts/DiasporaRemitEscrow.sol\":8389:8441  validatorRegistry.recordValidation(msg.sender, true) */\n      mload(0x40)\n      dup4\n      0xffffffff\n      and\n      0xe0\n      shl\n      dup2\n      mstore\n      0x04\n      add\n      tag_306\n      swap3\n      swap2\n      swap1\n      tag_307\n      jump\t// in\n    tag_306:\n      0x00\n      mload(0x40)\n      dup1\n      dup4\n      sub\n      dup2\n      0x00\n      dup8\n      dup1\n      extcodesize\n      iszero\n      dup1\n      iszero\n      tag_308\n      jumpi\n      revert(0x00, 0x00)\n    tag_308:\n      pop\n      gas\n      call\n      iszero\n      dup1\n      iszero\n      tag_310\n      jumpi\n      returndatacopy(0x00, 0x00, returndatasize)\n      revert(0x00, returndatasize)\n    tag_310:\n      pop\n      pop\n      pop\n      pop\n        /* \"contracts/DiasporaRemitEscrow.sol\":8328:8453  if (address(validatorRegistry) != address(0)) {... */\n    tag_305:\n        /* \"contracts/DiasporaRemitEscrow.sol\":8509:8519  msg.sender */\n      caller\n        /* \"contracts/DiasporaRemitEscrow.sol\":8478:8527  TransferValidated(_transferId, msg.sender, _note) */\n      0xffffffffffffffffffffffffffffffffffffffff\n      and\n        /* \"contracts/DiasporaRemitEscrow.sol\":8496:8507  _transferId */\n      dup7\n        /* \"contracts/DiasporaRemitEscrow.sol\":8478:8527  TransferValidated(_transferId, msg.sender, _note) */\n      0x800ef3e3b110573f2f50295ca58cb134587dec0061753c905e35e84f2efb8c52\n        /* \"contracts/DiasporaRemitEscrow.sol\":8521:8526  _note */\n      dup8\n      dup8\n        /* \"contracts/DiasporaRemitEscrow.sol\":8478:8527  TransferValidated(_transferId, msg.sender, _note) */\n      mload(0x40)\n      tag_311\n      swap3\n      swap2\n      swap1\n      tag_312\n      jump\t// in\n    tag_311:\n      mload(0x40)\n      dup1\n      swap2\n      sub\n      swap1\n      log3\n        /* \"contracts/DiasporaRemitEscrow.sol\":7842:8535  {... */\n      pop\n        /* \"contracts/DiasporaRemitEscrow.sol\":4004:4005  _ */\n      pop\n        /* \"contracts/DiasporaRemitEscrow.sol\":7676:8535  function validateTransfer(uint256 _transferId, string calldata _note)... */\n      pop\n      pop\n      pop\n      pop\n      jump\t// out\n        /* \"contracts/DiasporaRemitEscrow.sol\":13486:14144  function updateValidator(uint256 _transferId, address _newValidator)... */\n    tag_108:\n        /* \"contracts/DiasporaRemitEscrow.sol\":13597:13608  _transferId */\n      dup2\n        /* \"contracts/DiasporaRemitEscrow.sol\":3941:3955  totalTransfers */\n      sload(0x02)\n        /* \"contracts/DiasporaRemitEscrow.sol\":3926:3937  _transferId */\n      dup2\n        /* \"contracts/DiasporaRemitEscrow.sol\":3926:3955  _transferId >= totalTransfers */\n      lt\n        /* \"contracts/DiasporaRemitEscrow.sol\":3922:3993  if (_transferId >= totalTransfers) revert TransferNotFound(_transferId) */\n      tag_314\n      jumpi\n        /* \"contracts/DiasporaRemitEscrow.sol\":3981:3992  _transferId */\n      dup1\n        /* \"contracts/DiasporaRemitEscrow.sol\":3964:3993  TransferNotFound(_transferId) */\n      mload(0x40)\n      0xee9ffcb700000000000000000000000000000000000000000000000000000000\n      dup2\n      mstore\n      0x04\n      add\n      tag_315\n      swap2\n      swap1\n      tag_74\n      jump\t// in\n    tag_315:\n      mload(0x40)\n      dup1\n      swap2\n      sub\n      swap1\n      revert\n        /* \"contracts/DiasporaRemitEscrow.sol\":3922:3993  if (_transferId >= totalTransfers) revert TransferNotFound(_transferId) */\n    tag_314:\n        /* \"contracts/DiasporaRemitEscrow.sol\":13630:13641  _transferId */\n      dup3\n        /* \"contracts/DiasporaRemitEscrow.sol\":4114:4124  msg.sender */\n      caller\n        /* \"contracts/DiasporaRemitEscrow.sol\":4081:4124  transfers[_transferId].sender != msg.sender */\n      0xffffffffffffffffffffffffffffffffffffffff\n      and\n        /* \"contracts/DiasporaRemitEscrow.sol\":4081:4090  transfers */\n      0x04\n        /* \"contracts/DiasporaRemitEscrow.sol\":4081:4103  transfers[_transferId] */\n      0x00\n        /* \"contracts/DiasporaRemitEscrow.sol\":4091:4102  _transferId */\n      dup4\n        /* \"contracts/DiasporaRemitEscrow.sol\":4081:4103  transfers[_transferId] */\n      dup2\n      mstore\n      0x20\n      add\n      swap1\n      dup2\n      mstore\n      0x20\n      add\n      0x00\n      keccak256\n        /* \"contracts/DiasporaRemitEscrow.sol\":4081:4110  transfers[_transferId].sender */\n      0x01\n      add\n      0x00\n      swap1\n      sload\n      swap1\n      0x0100\n      exp\n      swap1\n      div\n      0xffffffffffffffffffffffffffffffffffffffff\n      and\n        /* \"contracts/DiasporaRemitEscrow.sol\":4081:4124  transfers[_transferId].sender != msg.sender */\n      0xffffffffffffffffffffffffffffffffffffffff\n      and\n      eq\n        /* \"contracts/DiasporaRemitEscrow.sol\":4077:4157  if (transfers[_transferId].sender != msg.sender) revert Unauthorized(msg.sender) */\n      tag_317\n      jumpi\n        /* \"contracts/DiasporaRemitEscrow.sol\":4146:4156  msg.sender */\n      caller\n        /* \"contracts/DiasporaRemitEscrow.sol\":4133:4157  Unauthorized(msg.sender) */\n      mload(0x40)\n      0x8e4a23d600000000000000000000000000000000000000000000000000000000\n      dup2\n      mstore\n      0x04\n      add\n      tag_318\n      swap2\n      swap1\n      tag_132\n      jump\t// in\n    tag_318:\n      mload(0x40)\n      dup1\n      swap2\n      sub\n      swap1\n      revert\n        /* \"contracts/DiasporaRemitEscrow.sol\":4077:4157  if (transfers[_transferId].sender != msg.sender) revert Unauthorized(msg.sender) */\n    tag_317:\n        /* \"contracts/DiasporaRemitEscrow.sol\":13688:13689  0 */\n      0x00\n        /* \"contracts/DiasporaRemitEscrow.sol\":13663:13690  _newValidator == address(0) */\n      0xffffffffffffffffffffffffffffffffffffffff\n      and\n        /* \"contracts/DiasporaRemitEscrow.sol\":13663:13676  _newValidator */\n      dup4\n        /* \"contracts/DiasporaRemitEscrow.sol\":13663:13690  _newValidator == address(0) */\n      0xffffffffffffffffffffffffffffffffffffffff\n      and\n      sub\n        /* \"contracts/DiasporaRemitEscrow.sol\":13659:13715  if (_newValidator == address(0)) revert InvalidAddress() */\n      tag_320\n      jumpi\n        /* \"contracts/DiasporaRemitEscrow.sol\":13699:13715  InvalidAddress() */\n      mload(0x40)\n      0xe6c4247b00000000000000000000000000000000000000000000000000000000\n      dup2\n      mstore\n      0x04\n      add\n      mload(0x40)\n      dup1\n      swap2\n      sub\n      swap1\n      revert\n        /* \"contracts/DiasporaRemitEscrow.sol\":13659:13715  if (_newValidator == address(0)) revert InvalidAddress() */\n    tag_320:\n        /* \"contracts/DiasporaRemitEscrow.sol\":13726:13751  Transfer storage transfer */\n      0x00\n        /* \"contracts/DiasporaRemitEscrow.sol\":13754:13763  transfers */\n      0x04\n        /* \"contracts/DiasporaRemitEscrow.sol\":13754:13776  transfers[_transferId] */\n      0x00\n        /* \"contracts/DiasporaRemitEscrow.sol\":13764:13775  _transferId */\n      dup7\n        /* \"contracts/DiasporaRemitEscrow.sol\":13754:13776  transfers[_transferId] */\n      dup2\n      mstore\n      0x20\n      add\n      swap1\n      dup2\n      mstore\n      0x20\n      add\n      0x00\n      keccak256\n        /* \"contracts/DiasporaRemitEscrow.sol\":13726:13776  Transfer storage transfer = transfers[_transferId] */\n      swap1\n      pop\n        /* \"contracts/DiasporaRemitEscrow.sol\":13810:13832  TransferStatus.Created */\n      0x00\n        /* \"contracts/DiasporaRemitEscrow.sol\":13791:13832  transfer.status != TransferStatus.Created */\n      0x05\n      dup2\n      gt\n      iszero\n      tag_321\n      jumpi\n      tag_322\n      tag_227\n      jump\t// in\n    tag_322:\n    tag_321:\n        /* \"contracts/DiasporaRemitEscrow.sol\":13791:13799  transfer */\n      dup2\n        /* \"contracts/DiasporaRemitEscrow.sol\":13791:13806  transfer.status */\n      0x06\n      add\n      0x00\n      swap1\n      sload\n      swap1\n      0x0100\n      exp\n      swap1\n      div\n      0xff\n      and\n        /* \"contracts/DiasporaRemitEscrow.sol\":13791:13832  transfer.status != TransferStatus.Created */\n      0x05\n      dup2\n      gt\n      iszero\n      tag_323\n      jumpi\n      tag_324\n      tag_227\n      jump\t// in\n    tag_324:\n    tag_323:\n      eq\n      iszero\n        /* \"contracts/DiasporaRemitEscrow.sol\":13791:13876  transfer.status != TransferStatus.Created && transfer.status != TransferStatus.Funded */\n      dup1\n      iszero\n      tag_325\n      jumpi\n      pop\n        /* \"contracts/DiasporaRemitEscrow.sol\":13855:13876  TransferStatus.Funded */\n      0x01\n        /* \"contracts/DiasporaRemitEscrow.sol\":13836:13876  transfer.status != TransferStatus.Funded */\n      0x05\n      dup2\n      gt\n      iszero\n      tag_326\n      jumpi\n      tag_327\n      tag_227\n      jump\t// in\n    tag_327:\n    tag_326:\n        /* \"contracts/DiasporaRemitEscrow.sol\":13836:13844  transfer */\n      dup2\n        /* \"contracts/DiasporaRemitEscrow.sol\":13836:13851  transfer.status */\n      0x06\n      add\n      0x00\n      swap1\n      sload\n      swap1\n      0x0100\n      exp\n      swap1\n      div\n      0xff\n      and\n        /* \"contracts/DiasporaRemitEscrow.sol\":13836:13876  transfer.status != TransferStatus.Funded */\n      0x05\n      dup2\n      gt\n      iszero\n      tag_328\n      jumpi\n      tag_329\n      tag_227\n      jump\t// in\n    tag_329:\n    tag_328:\n      eq\n      iszero\n        /* \"contracts/DiasporaRemitEscrow.sol\":13791:13876  transfer.status != TransferStatus.Created && transfer.status != TransferStatus.Funded */\n    tag_325:\n        /* \"contracts/DiasporaRemitEscrow.sol\":13787:13966  if (transfer.status != TransferStatus.Created && transfer.status != TransferStatus.Funded) {... */\n      iszero\n      tag_330\n      jumpi\n        /* \"contracts/DiasporaRemitEscrow.sol\":13914:13922  transfer */\n      dup1\n        /* \"contracts/DiasporaRemitEscrow.sol\":13914:13929  transfer.status */\n      0x06\n      add\n      0x00\n      swap1\n      sload\n      swap1\n      0x0100\n      exp\n      swap1\n      div\n      0xff\n      and\n        /* \"contracts/DiasporaRemitEscrow.sol\":13931:13953  TransferStatus.Created */\n      0x00\n        /* \"contracts/DiasporaRemitEscrow.sol\":13900:13954  InvalidStatus(transfer.status, TransferStatus.Created) */\n      mload(0x40)\n      0xf924664d00000000000000000000000000000000000000000000000000000000\n      dup2\n      mstore\n      0x04\n      add\n      tag_331\n      swap3\n      swap2\n      swap1\n      tag_232\n      jump\t// in\n    tag_331:\n      mload(0x40)\n      dup1\n      swap2\n      sub\n      swap1\n      revert\n        /* \"contracts/DiasporaRemitEscrow.sol\":13787:13966  if (transfer.status != TransferStatus.Created && transfer.status != TransferStatus.Funded) {... */\n    tag_330:\n        /* \"contracts/DiasporaRemitEscrow.sol\":13976:13996  address oldValidator */\n      0x00\n        /* \"contracts/DiasporaRemitEscrow.sol\":13999:14007  transfer */\n      dup2\n        /* \"contracts/DiasporaRemitEscrow.sol\":13999:14017  transfer.validator */\n      0x03\n      add\n      0x00\n      swap1\n      sload\n      swap1\n      0x0100\n      exp\n      swap1\n      div\n      0xffffffffffffffffffffffffffffffffffffffff\n      and\n        /* \"contracts/DiasporaRemitEscrow.sol\":13976:14017  address oldValidator = transfer.validator */\n      swap1\n      pop\n        /* \"contracts/DiasporaRemitEscrow.sol\":14049:14062  _newValidator */\n      dup5\n        /* \"contracts/DiasporaRemitEscrow.sol\":14028:14036  transfer */\n      dup3\n        /* \"contracts/DiasporaRemitEscrow.sol\":14028:14046  transfer.validator */\n      0x03\n      add\n      0x00\n        /* \"contracts/DiasporaRemitEscrow.sol\":14028:14062  transfer.validator = _newValidator */\n      0x0100\n      exp\n      dup2\n      sload\n      dup2\n      0xffffffffffffffffffffffffffffffffffffffff\n      mul\n      not\n      and\n      swap1\n      dup4\n      0xffffffffffffffffffffffffffffffffffffffff\n      and\n      mul\n      or\n      swap1\n      sstore\n      pop\n        /* \"contracts/DiasporaRemitEscrow.sol\":14095:14106  _transferId */\n      dup6\n        /* \"contracts/DiasporaRemitEscrow.sol\":14078:14136  ValidatorUpdated(_transferId, oldValidator, _newValidator) */\n      0x2acb199b487dd9d4949bf0ce3a2b36baa7e688eb88197841015161a98b3d8747\n        /* \"contracts/DiasporaRemitEscrow.sol\":14108:14120  oldValidator */\n      dup3\n        /* \"contracts/DiasporaRemitEscrow.sol\":14122:14135  _newValidator */\n      dup8\n        /* \"contracts/DiasporaRemitEscrow.sol\":14078:14136  ValidatorUpdated(_transferId, oldValidator, _newValidator) */\n      mload(0x40)\n      tag_332\n      swap3\n      swap2\n      swap1\n      tag_333\n      jump\t// in\n    tag_332:\n      mload(0x40)\n      dup1\n      swap2\n      sub\n      swap1\n      log2\n        /* \"contracts/DiasporaRemitEscrow.sol\":13648:14144  {... */\n      pop\n      pop\n        /* \"contracts/DiasporaRemitEscrow.sol\":4004:4005  _ */\n      pop\n        /* \"contracts/DiasporaRemitEscrow.sol\":13486:14144  function updateValidator(uint256 _transferId, address _newValidator)... */\n      pop\n      pop\n      pop\n      jump\t// out\n        /* \"contracts/DiasporaRemitEscrow.sol\":10758:11445  function raiseDispute(uint256 _transferId, string calldata _reason)... */\n    tag_112:\n        /* \"contracts/DiasporaRemitEscrow.sol\":10868:10879  _transferId */\n      dup3\n        /* \"contracts/DiasporaRemitEscrow.sol\":3941:3955  totalTransfers */\n      sload(0x02)\n        /* \"contracts/DiasporaRemitEscrow.sol\":3926:3937  _transferId */\n      dup2\n        /* \"contracts/DiasporaRemitEscrow.sol\":3926:3955  _transferId >= totalTransfers */\n      lt\n        /* \"contracts/DiasporaRemitEscrow.sol\":3922:3993  if (_transferId >= totalTransfers) revert TransferNotFound(_transferId) */\n      tag_335\n      jumpi\n        /* \"contracts/DiasporaRemitEscrow.sol\":3981:3992  _transferId */\n      dup1\n        /* \"contracts/DiasporaRemitEscrow.sol\":3964:3993  TransferNotFound(_transferId) */\n      mload(0x40)\n      0xee9ffcb700000000000000000000000000000000000000000000000000000000\n      dup2\n      mstore\n      0x04\n      add\n      tag_336\n      swap2\n      swap1\n      tag_74\n      jump\t// in\n    tag_336:\n      mload(0x40)\n      dup1\n      swap2\n      sub\n      swap1\n      revert\n        /* \"contracts/DiasporaRemitEscrow.sol\":3922:3993  if (_transferId >= totalTransfers) revert TransferNotFound(_transferId) */\n    tag_335:\n        /* \"contracts/DiasporaRemitEscrow.sol\":10897:10922  Transfer storage transfer */\n      0x00\n        /* \"contracts/DiasporaRemitEscrow.sol\":10925:10934  transfers */\n      0x04\n        /* \"contracts/DiasporaRemitEscrow.sol\":10925:10947  transfers[_transferId] */\n      0x00\n        /* \"contracts/DiasporaRemitEscrow.sol\":10935:10946  _transferId */\n      dup7\n        /* \"contracts/DiasporaRemitEscrow.sol\":10925:10947  transfers[_transferId] */\n      dup2\n      mstore\n      0x20\n      add\n      swap1\n      dup2\n      mstore\n      0x20\n      add\n      0x00\n      keccak256\n        /* \"contracts/DiasporaRemitEscrow.sol\":10897:10947  Transfer storage transfer = transfers[_transferId] */\n      swap1\n      pop\n        /* \"contracts/DiasporaRemitEscrow.sol\":10986:10994  transfer */\n      dup1\n        /* \"contracts/DiasporaRemitEscrow.sol\":10986:11001  transfer.sender */\n      0x01\n      add\n      0x00\n      swap1\n      sload\n      swap1\n      0x0100\n      exp\n      swap1\n      div\n      0xffffffffffffffffffffffffffffffffffffffff\n      and\n        /* \"contracts/DiasporaRemitEscrow.sol\":10972:11001  msg.sender != transfer.sender */\n      0xffffffffffffffffffffffffffffffffffffffff\n      and\n        /* \"contracts/DiasporaRemitEscrow.sol\":10972:10982  msg.sender */\n      caller\n        /* \"contracts/DiasporaRemitEscrow.sol\":10972:11001  msg.sender != transfer.sender */\n      0xffffffffffffffffffffffffffffffffffffffff\n      and\n      eq\n      iszero\n        /* \"contracts/DiasporaRemitEscrow.sol\":10972:11037  msg.sender != transfer.sender && msg.sender != transfer.recipient */\n      dup1\n      iszero\n      tag_338\n      jumpi\n      pop\n        /* \"contracts/DiasporaRemitEscrow.sol\":11019:11027  transfer */\n      dup1\n        /* \"contracts/DiasporaRemitEscrow.sol\":11019:11037  transfer.recipient */\n      0x02\n      add\n      0x00\n      swap1\n      sload\n      swap1\n      0x0100\n      exp\n      swap1\n      div\n      0xffffffffffffffffffffffffffffffffffffffff\n      and\n        /* \"contracts/DiasporaRemitEscrow.sol\":11005:11037  msg.sender != transfer.recipient */\n      0xffffffffffffffffffffffffffffffffffffffff\n      and\n        /* \"contracts/DiasporaRemitEscrow.sol\":11005:11015  msg.sender */\n      caller\n        /* \"contracts/DiasporaRemitEscrow.sol\":11005:11037  msg.sender != transfer.recipient */\n      0xffffffffffffffffffffffffffffffffffffffff\n      and\n      eq\n      iszero\n        /* \"contracts/DiasporaRemitEscrow.sol\":10972:11037  msg.sender != transfer.sender && msg.sender != transfer.recipient */\n    tag_338:\n        /* \"contracts/DiasporaRemitEscrow.sol\":10968:11097  if (msg.sender != transfer.sender && msg.sender != transfer.recipient) {... */\n      iszero\n      tag_339\n      jumpi\n        /* \"contracts/DiasporaRemitEscrow.sol\":11074:11084  msg.sender */\n      caller\n        /* \"contracts/DiasporaRemitEscrow.sol\":11061:11085  Unauthorized(msg.sender) */\n      mload(0x40)\n      0x8e4a23d600000000000000000000000000000000000000000000000000000000\n      dup2\n      mstore\n      0x04\n      add\n      tag_340\n      swap2\n      swap1\n      tag_132\n      jump\t// in\n    tag_340:\n      mload(0x40)\n      dup1\n      swap2\n      sub\n      swap1\n      revert\n        /* \"contracts/DiasporaRemitEscrow.sol\":10968:11097  if (msg.sender != transfer.sender && msg.sender != transfer.recipient) {... */\n    tag_339:\n        /* \"contracts/DiasporaRemitEscrow.sol\":11140:11164  TransferStatus.Validated */\n      0x02\n        /* \"contracts/DiasporaRemitEscrow.sol\":11121:11164  transfer.status != TransferStatus.Validated */\n      0x05\n      dup2\n      gt\n      iszero\n      tag_341\n      jumpi\n      tag_342\n      tag_227\n      jump\t// in\n    tag_342:\n    tag_341:\n        /* \"contracts/DiasporaRemitEscrow.sol\":11121:11129  transfer */\n      dup2\n        /* \"contracts/DiasporaRemitEscrow.sol\":11121:11136  transfer.status */\n      0x06\n      add\n      0x00\n      swap1\n      sload\n      swap1\n      0x0100\n      exp\n      swap1\n      div\n      0xff\n      and\n        /* \"contracts/DiasporaRemitEscrow.sol\":11121:11164  transfer.status != TransferStatus.Validated */\n      0x05\n      dup2\n      gt\n      iszero\n      tag_343\n      jumpi\n      tag_344\n      tag_227\n      jump\t// in\n    tag_344:\n    tag_343:\n      eq\n      iszero\n        /* \"contracts/DiasporaRemitEscrow.sol\":11121:11208  transfer.status != TransferStatus.Validated && transfer.status != TransferStatus.Funded */\n      dup1\n      iszero\n      tag_345\n      jumpi\n      pop\n        /* \"contracts/DiasporaRemitEscrow.sol\":11187:11208  TransferStatus.Funded */\n      0x01\n        /* \"contracts/DiasporaRemitEscrow.sol\":11168:11208  transfer.status != TransferStatus.Funded */\n      0x05\n      dup2\n      gt\n      iszero\n      tag_346\n      jumpi\n      tag_347\n      tag_227\n      jump\t// in\n    tag_347:\n    tag_346:\n        /* \"contracts/DiasporaRemitEscrow.sol\":11168:11176  transfer */\n      dup2\n        /* \"contracts/DiasporaRemitEscrow.sol\":11168:11183  transfer.status */\n      0x06\n      add\n      0x00\n      swap1\n      sload\n      swap1\n      0x0100\n      exp\n      swap1\n      div\n      0xff\n      and\n        /* \"contracts/DiasporaRemitEscrow.sol\":11168:11208  transfer.status != TransferStatus.Funded */\n      0x05\n      dup2\n      gt\n      iszero\n      tag_348\n      jumpi\n      tag_349\n      tag_227\n      jump\t// in\n    tag_349:\n    tag_348:\n      eq\n      iszero\n        /* \"contracts/DiasporaRemitEscrow.sol\":11121:11208  transfer.status != TransferStatus.Validated && transfer.status != TransferStatus.Funded */\n    tag_345:\n        /* \"contracts/DiasporaRemitEscrow.sol\":11117:11300  if (transfer.status != TransferStatus.Validated && transfer.status != TransferStatus.Funded) {... */\n      iszero\n      tag_350\n      jumpi\n        /* \"contracts/DiasporaRemitEscrow.sol\":11246:11254  transfer */\n      dup1\n        /* \"contracts/DiasporaRemitEscrow.sol\":11246:11261  transfer.status */\n      0x06\n      add\n      0x00\n      swap1\n      sload\n      swap1\n      0x0100\n      exp\n      swap1\n      div\n      0xff\n      and\n        /* \"contracts/DiasporaRemitEscrow.sol\":11263:11287  TransferStatus.Validated */\n      0x02\n        /* \"contracts/DiasporaRemitEscrow.sol\":11232:11288  InvalidStatus(transfer.status, TransferStatus.Validated) */\n      mload(0x40)\n      0xf924664d00000000000000000000000000000000000000000000000000000000\n      dup2\n      mstore\n      0x04\n      add\n      tag_351\n      swap3\n      swap2\n      swap1\n      tag_232\n      jump\t// in\n    tag_351:\n      mload(0x40)\n      dup1\n      swap2\n      sub\n      swap1\n      revert\n        /* \"contracts/DiasporaRemitEscrow.sol\":11117:11300  if (transfer.status != TransferStatus.Validated && transfer.status != TransferStatus.Funded) {... */\n    tag_350:\n        /* \"contracts/DiasporaRemitEscrow.sol\":11338:11361  TransferStatus.Disputed */\n      0x05\n        /* \"contracts/DiasporaRemitEscrow.sol\":11320:11328  transfer */\n      dup2\n        /* \"contracts/DiasporaRemitEscrow.sol\":11320:11335  transfer.status */\n      0x06\n      add\n      0x00\n        /* \"contracts/DiasporaRemitEscrow.sol\":11320:11361  transfer.status = TransferStatus.Disputed */\n      0x0100\n      exp\n      dup2\n      sload\n      dup2\n      0xff\n      mul\n      not\n      and\n      swap1\n      dup4\n      0x05\n      dup2\n      gt\n      iszero\n      tag_352\n      jumpi\n      tag_353\n      tag_227\n      jump\t// in\n    tag_353:\n    tag_352:\n      mul\n      or\n      swap1\n      sstore\n      pop\n        /* \"contracts/DiasporaRemitEscrow.sol\":11417:11427  msg.sender */\n      caller\n        /* \"contracts/DiasporaRemitEscrow.sol\":11387:11437  TransferDisputed(_transferId, msg.sender, _reason) */\n      0xffffffffffffffffffffffffffffffffffffffff\n      and\n        /* \"contracts/DiasporaRemitEscrow.sol\":11404:11415  _transferId */\n      dup6\n        /* \"contracts/DiasporaRemitEscrow.sol\":11387:11437  TransferDisputed(_transferId, msg.sender, _reason) */\n      0x556a5bf38cb59a9278ed161f499d231bbbed1025f2765aa08fb5688767a65e50\n        /* \"contracts/DiasporaRemitEscrow.sol\":11429:11436  _reason */\n      dup7\n      dup7\n        /* \"contracts/DiasporaRemitEscrow.sol\":11387:11437  TransferDisputed(_transferId, msg.sender, _reason) */\n      mload(0x40)\n      tag_354\n      swap3\n      swap2\n      swap1\n      tag_312\n      jump\t// in\n    tag_354:\n      mload(0x40)\n      dup1\n      swap2\n      sub\n      swap1\n      log3\n        /* \"contracts/DiasporaRemitEscrow.sol\":10886:11445  {... */\n      pop\n        /* \"contracts/DiasporaRemitEscrow.sol\":10758:11445  function raiseDispute(uint256 _transferId, string calldata _reason)... */\n      pop\n      pop\n      pop\n      pop\n      jump\t// out\n        /* \"contracts/DiasporaRemitEscrow.sol\":1892:1925  IUserRegistry public userRegistry */\n    tag_115:\n      0x09\n      0x00\n      swap1\n      sload\n      swap1\n      0x0100\n      exp\n      swap1\n      div\n      0xffffffffffffffffffffffffffffffffffffffff\n      and\n      dup2\n      jump\t// out\n        /* \"contracts/DiasporaRemitEscrow.sol\":4873:6200  function createTransfer(... */\n    tag_122:\n        /* \"contracts/DiasporaRemitEscrow.sol\":5046:5053  uint256 */\n      0x00\n        /* \"contracts/DiasporaRemitEscrow.sol\":5092:5093  0 */\n      0x00\n        /* \"contracts/DiasporaRemitEscrow.sol\":5070:5094  _recipient == address(0) */\n      0xffffffffffffffffffffffffffffffffffffffff\n      and\n        /* \"contracts/DiasporaRemitEscrow.sol\":5070:5080  _recipient */\n      dup6\n        /* \"contracts/DiasporaRemitEscrow.sol\":5070:5094  _recipient == address(0) */\n      0xffffffffffffffffffffffffffffffffffffffff\n      and\n      eq\n        /* \"contracts/DiasporaRemitEscrow.sol\":5070:5122  _recipient == address(0) || _validator == address(0) */\n      dup1\n      tag_356\n      jumpi\n      pop\n        /* \"contracts/DiasporaRemitEscrow.sol\":5120:5121  0 */\n      0x00\n        /* \"contracts/DiasporaRemitEscrow.sol\":5098:5122  _validator == address(0) */\n      0xffffffffffffffffffffffffffffffffffffffff\n      and\n        /* \"contracts/DiasporaRemitEscrow.sol\":5098:5108  _validator */\n      dup5\n        /* \"contracts/DiasporaRemitEscrow.sol\":5098:5122  _validator == address(0) */\n      0xffffffffffffffffffffffffffffffffffffffff\n      and\n      eq\n        /* \"contracts/DiasporaRemitEscrow.sol\":5070:5122  _recipient == address(0) || _validator == address(0) */\n    tag_356:\n        /* \"contracts/DiasporaRemitEscrow.sol\":5066:5147  if (_recipient == address(0) || _validator == address(0)) revert InvalidAddress() */\n      iszero\n      tag_357\n      jumpi\n        /* \"contracts/DiasporaRemitEscrow.sol\":5131:5147  InvalidAddress() */\n      mload(0x40)\n      0xe6c4247b00000000000000000000000000000000000000000000000000000000\n      dup2\n      mstore\n      0x04\n      add\n      mload(0x40)\n      dup1\n      swap2\n      sub\n      swap1\n      revert\n        /* \"contracts/DiasporaRemitEscrow.sol\":5066:5147  if (_recipient == address(0) || _validator == address(0)) revert InvalidAddress() */\n    tag_357:\n        /* \"contracts/DiasporaRemitEscrow.sol\":5188:5189  0 */\n      0x00\n        /* \"contracts/DiasporaRemitEscrow.sol\":5168:5176  _purpose */\n      dup4\n        /* \"contracts/DiasporaRemitEscrow.sol\":5162:5184  bytes(_purpose).length */\n      mload\n        /* \"contracts/DiasporaRemitEscrow.sol\":5162:5189  bytes(_purpose).length == 0 */\n      sub\n        /* \"contracts/DiasporaRemitEscrow.sol\":5158:5212  if (bytes(_purpose).length == 0) revert EmptyPurpose() */\n      tag_358\n      jumpi\n        /* \"contracts/DiasporaRemitEscrow.sol\":5198:5212  EmptyPurpose() */\n      mload(0x40)\n      0xdfa03e5000000000000000000000000000000000000000000000000000000000\n      dup2\n      mstore\n      0x04\n      add\n      mload(0x40)\n      dup1\n      swap2\n      sub\n      swap1\n      revert\n        /* \"contracts/DiasporaRemitEscrow.sol\":5158:5212  if (bytes(_purpose).length == 0) revert EmptyPurpose() */\n    tag_358:\n        /* \"contracts/DiasporaRemitEscrow.sol\":5246:5252  1 days */\n      0x015180\n        /* \"contracts/DiasporaRemitEscrow.sol\":5227:5243  _deadlineSeconds */\n      dup3\n        /* \"contracts/DiasporaRemitEscrow.sol\":5227:5252  _deadlineSeconds < 1 days */\n      lt\n        /* \"contracts/DiasporaRemitEscrow.sol\":5223:5276  if (_deadlineSeconds < 1 days) revert InvalidAmount() */\n      iszero\n      tag_359\n      jumpi\n        /* \"contracts/DiasporaRemitEscrow.sol\":5261:5276  InvalidAmount() */\n      mload(0x40)\n      0x2c5211c600000000000000000000000000000000000000000000000000000000\n      dup2\n      mstore\n      0x04\n      add\n      mload(0x40)\n      dup1\n      swap2\n      sub\n      swap1\n      revert\n        /* \"contracts/DiasporaRemitEscrow.sol\":5223:5276  if (_deadlineSeconds < 1 days) revert InvalidAmount() */\n    tag_359:\n        /* \"contracts/DiasporaRemitEscrow.sol\":5297:5315  uint256 transferId */\n      0x00\n        /* \"contracts/DiasporaRemitEscrow.sol\":5318:5332  totalTransfers */\n      sload(0x02)\n        /* \"contracts/DiasporaRemitEscrow.sol\":5297:5332  uint256 transferId = totalTransfers */\n      swap1\n      pop\n        /* \"contracts/DiasporaRemitEscrow.sol\":5377:5834  Transfer({... */\n      mload(0x40)\n      dup1\n      0x0180\n      add\n      0x40\n      mstore\n      dup1\n        /* \"contracts/DiasporaRemitEscrow.sol\":5413:5423  transferId */\n      dup3\n        /* \"contracts/DiasporaRemitEscrow.sol\":5377:5834  Transfer({... */\n      dup2\n      mstore\n      0x20\n      add\n        /* \"contracts/DiasporaRemitEscrow.sol\":5446:5456  msg.sender */\n      caller\n        /* \"contracts/DiasporaRemitEscrow.sol\":5377:5834  Transfer({... */\n      0xffffffffffffffffffffffffffffffffffffffff\n      and\n      dup2\n      mstore\n      0x20\n      add\n        /* \"contracts/DiasporaRemitEscrow.sol\":5482:5492  _recipient */\n      dup8\n        /* \"contracts/DiasporaRemitEscrow.sol\":5377:5834  Transfer({... */\n      0xffffffffffffffffffffffffffffffffffffffff\n      and\n      dup2\n      mstore\n      0x20\n      add\n        /* \"contracts/DiasporaRemitEscrow.sol\":5518:5528  _validator */\n      dup7\n        /* \"contracts/DiasporaRemitEscrow.sol\":5377:5834  Transfer({... */\n      0xffffffffffffffffffffffffffffffffffffffff\n      and\n      dup2\n      mstore\n      0x20\n      add\n        /* \"contracts/DiasporaRemitEscrow.sol\":5551:5552  0 */\n      0x00\n        /* \"contracts/DiasporaRemitEscrow.sol\":5377:5834  Transfer({... */\n      dup2\n      mstore\n      0x20\n      add\n        /* \"contracts/DiasporaRemitEscrow.sol\":5595:5611  _deadlineSeconds */\n      dup5\n        /* \"contracts/DiasporaRemitEscrow.sol\":5577:5592  block.timestamp */\n      timestamp\n        /* \"contracts/DiasporaRemitEscrow.sol\":5577:5611  block.timestamp + _deadlineSeconds */\n      tag_360\n      swap2\n      swap1\n      tag_278\n      jump\t// in\n    tag_360:\n        /* \"contracts/DiasporaRemitEscrow.sol\":5377:5834  Transfer({... */\n      dup2\n      mstore\n      0x20\n      add\n        /* \"contracts/DiasporaRemitEscrow.sol\":5634:5656  TransferStatus.Created */\n      0x00\n        /* \"contracts/DiasporaRemitEscrow.sol\":5377:5834  Transfer({... */\n      0x05\n      dup2\n      gt\n      iszero\n      tag_361\n      jumpi\n      tag_362\n      tag_227\n      jump\t// in\n    tag_362:\n    tag_361:\n      dup2\n      mstore\n      0x20\n      add\n        /* \"contracts/DiasporaRemitEscrow.sol\":5680:5688  _purpose */\n      dup6\n        /* \"contracts/DiasporaRemitEscrow.sol\":5377:5834  Transfer({... */\n      dup2\n      mstore\n      0x20\n      add\n      mload(0x40)\n      dup1\n      0x20\n      add\n      0x40\n      mstore\n      dup1\n      0x00\n      dup2\n      mstore\n      pop\n      dup2\n      mstore\n      0x20\n      add\n        /* \"contracts/DiasporaRemitEscrow.sol\":5747:5762  block.timestamp */\n      timestamp\n        /* \"contracts/DiasporaRemitEscrow.sol\":5377:5834  Transfer({... */\n      dup2\n      mstore\n      0x20\n      add\n        /* \"contracts/DiasporaRemitEscrow.sol\":5789:5790  0 */\n      0x00\n        /* \"contracts/DiasporaRemitEscrow.sol\":5377:5834  Transfer({... */\n      dup2\n      mstore\n      0x20\n      add\n        /* \"contracts/DiasporaRemitEscrow.sol\":5817:5822  false */\n      0x00\n        /* \"contracts/DiasporaRemitEscrow.sol\":5377:5834  Transfer({... */\n      iszero\n      iszero\n      dup2\n      mstore\n      pop\n        /* \"contracts/DiasporaRemitEscrow.sol\":5353:5362  transfers */\n      0x04\n        /* \"contracts/DiasporaRemitEscrow.sol\":5353:5374  transfers[transferId] */\n      0x00\n        /* \"contracts/DiasporaRemitEscrow.sol\":5363:5373  transferId */\n      dup4\n        /* \"contracts/DiasporaRemitEscrow.sol\":5353:5374  transfers[transferId] */\n      dup2\n      mstore\n      0x20\n      add\n      swap1\n      dup2\n      mstore\n      0x20\n      add\n      0x00\n      keccak256\n        /* \"contracts/DiasporaRemitEscrow.sol\":5353:5834  transfers[transferId] = Transfer({... */\n      0x00\n      dup3\n      add\n      mload\n      dup2\n      0x00\n      add\n      sstore\n      0x20\n      dup3\n      add\n      mload\n      dup2\n      0x01\n      add\n      exp(0x0100, 0x00)\n      dup2\n      sload\n      dup2\n      0xffffffffffffffffffffffffffffffffffffffff\n      mul\n      not\n      and\n      swap1\n      dup4\n      0xffffffffffffffffffffffffffffffffffffffff\n      and\n      mul\n      or\n      swap1\n      sstore\n      pop\n      0x40\n      dup3\n      add\n      mload\n      dup2\n      0x02\n      add\n      exp(0x0100, 0x00)\n      dup2\n      sload\n      dup2\n      0xffffffffffffffffffffffffffffffffffffffff\n      mul\n      not\n      and\n      swap1\n      dup4\n      0xffffffffffffffffffffffffffffffffffffffff\n      and\n      mul\n      or\n      swap1\n      sstore\n      pop\n      0x60\n      dup3\n      add\n      mload\n      dup2\n      0x03\n      add\n      exp(0x0100, 0x00)\n      dup2\n      sload\n      dup2\n      0xffffffffffffffffffffffffffffffffffffffff\n      mul\n      not\n      and\n      swap1\n      dup4\n      0xffffffffffffffffffffffffffffffffffffffff\n      and\n      mul\n      or\n      swap1\n      sstore\n      pop\n      0x80\n      dup3\n      add\n      mload\n      dup2\n      0x04\n      add\n      sstore\n      0xa0\n      dup3\n      add\n      mload\n      dup2\n      0x05\n      add\n      sstore\n      0xc0\n      dup3\n      add\n      mload\n      dup2\n      0x06\n      add\n      exp(0x0100, 0x00)\n      dup2\n      sload\n      dup2\n      0xff\n      mul\n      not\n      and\n      swap1\n      dup4\n      0x05\n      dup2\n      gt\n      iszero\n      tag_363\n      jumpi\n      tag_364\n      tag_227\n      jump\t// in\n    tag_364:\n    tag_363:\n      mul\n      or\n      swap1\n      sstore\n      pop\n      0xe0\n      dup3\n      add\n      mload\n      dup2\n      0x07\n      add\n      swap1\n      dup2\n      tag_365\n      swap2\n      swap1\n      tag_366\n      jump\t// in\n    tag_365:\n      pop\n      0x0100\n      dup3\n      add\n      mload\n      dup2\n      0x08\n      add\n      swap1\n      dup2\n      tag_367\n      swap2\n      swap1\n      tag_366\n      jump\t// in\n    tag_367:\n      pop\n      0x0120\n      dup3\n      add\n      mload\n      dup2\n      0x09\n      add\n      sstore\n      0x0140\n      dup3\n      add\n      mload\n      dup2\n      0x0a\n      add\n      sstore\n      0x0160\n      dup3\n      add\n      mload\n      dup2\n      0x0b\n      add\n      exp(0x0100, 0x00)\n      dup2\n      sload\n      dup2\n      0xff\n      mul\n      not\n      and\n      swap1\n      dup4\n      iszero\n      iszero\n      mul\n      or\n      swap1\n      sstore\n      pop\n      swap1\n      pop\n      pop\n        /* \"contracts/DiasporaRemitEscrow.sol\":5855:5870  senderTransfers */\n      0x05\n        /* \"contracts/DiasporaRemitEscrow.sol\":5855:5882  senderTransfers[msg.sender] */\n      0x00\n        /* \"contracts/DiasporaRemitEscrow.sol\":5871:5881  msg.sender */\n      caller\n        /* \"contracts/DiasporaRemitEscrow.sol\":5855:5882  senderTransfers[msg.sender] */\n      0xffffffffffffffffffffffffffffffffffffffff\n      and\n      0xffffffffffffffffffffffffffffffffffffffff\n      and\n      dup2\n      mstore\n      0x20\n      add\n      swap1\n      dup2\n      mstore\n      0x20\n      add\n      0x00\n      keccak256\n        /* \"contracts/DiasporaRemitEscrow.sol\":5888:5898  transferId */\n      dup2\n        /* \"contracts/DiasporaRemitEscrow.sol\":5855:5899  senderTransfers[msg.sender].push(transferId) */\n      swap1\n      dup1\n      0x01\n      dup2\n      sload\n      add\n      dup1\n      dup3\n      sstore\n      dup1\n      swap2\n      pop\n      pop\n      0x01\n      swap1\n      sub\n      swap1\n      0x00\n      mstore\n      keccak256(0x00, 0x20)\n      add\n      0x00\n      swap1\n      swap2\n      swap1\n      swap2\n      swap1\n      swap2\n      pop\n      sstore\n        /* \"contracts/DiasporaRemitEscrow.sol\":5910:5928  recipientTransfers */\n      0x06\n        /* \"contracts/DiasporaRemitEscrow.sol\":5910:5940  recipientTransfers[_recipient] */\n      0x00\n        /* \"contracts/DiasporaRemitEscrow.sol\":5929:5939  _recipient */\n      dup8\n        /* \"contracts/DiasporaRemitEscrow.sol\":5910:5940  recipientTransfers[_recipient] */\n      0xffffffffffffffffffffffffffffffffffffffff\n      and\n      0xffffffffffffffffffffffffffffffffffffffff\n      and\n      dup2\n      mstore\n      0x20\n      add\n      swap1\n      dup2\n      mstore\n      0x20\n      add\n      0x00\n      keccak256\n        /* \"contracts/DiasporaRemitEscrow.sol\":5946:5956  transferId */\n      dup2\n        /* \"contracts/DiasporaRemitEscrow.sol\":5910:5957  recipientTransfers[_recipient].push(transferId) */\n      swap1\n      dup1\n      0x01\n      dup2\n      sload\n      add\n      dup1\n      dup3\n      sstore\n      dup1\n      swap2\n      pop\n      pop\n      0x01\n      swap1\n      sub\n      swap1\n      0x00\n      mstore\n      keccak256(0x00, 0x20)\n      add\n      0x00\n      swap1\n      swap2\n      swap1\n      swap2\n      swap1\n      swap2\n      pop\n      sstore\n        /* \"contracts/DiasporaRemitEscrow.sol\":5968:5986  validatorTransfers */\n      0x07\n        /* \"contracts/DiasporaRemitEscrow.sol\":5968:5998  validatorTransfers[_validator] */\n      0x00\n        /* \"contracts/DiasporaRemitEscrow.sol\":5987:5997  _validator */\n      dup7\n        /* \"contracts/DiasporaRemitEscrow.sol\":5968:5998  validatorTransfers[_validator] */\n      0xffffffffffffffffffffffffffffffffffffffff\n      and\n      0xffffffffffffffffffffffffffffffffffffffff\n      and\n      dup2\n      mstore\n      0x20\n      add\n      swap1\n      dup2\n      mstore\n      0x20\n      add\n      0x00\n      keccak256\n        /* \"contracts/DiasporaRemitEscrow.sol\":6004:6014  transferId */\n      dup2\n        /* \"contracts/DiasporaRemitEscrow.sol\":5968:6015  validatorTransfers[_validator].push(transferId) */\n      swap1\n      dup1\n      0x01\n      dup2\n      sload\n      add\n      dup1\n      dup3\n      sstore\n      dup1\n      swap2\n      pop\n      pop\n      0x01\n      swap1\n      sub\n      swap1\n      0x00\n      mstore\n      keccak256(0x00, 0x20)\n      add\n      0x00\n      swap1\n      swap2\n      swap1\n      swap2\n      swap1\n      swap2\n      pop\n      sstore\n        /* \"contracts/DiasporaRemitEscrow.sol\":6036:6050  totalTransfers */\n      0x02\n      0x00\n        /* \"contracts/DiasporaRemitEscrow.sol\":6036:6052  totalTransfers++ */\n      dup2\n      sload\n      dup1\n      swap3\n      swap2\n      swap1\n      tag_371\n      swap1\n      tag_372\n      jump\t// in\n    tag_371:\n      swap2\n      swap1\n      pop\n      sstore\n      pop\n        /* \"contracts/DiasporaRemitEscrow.sol\":6118:6128  _recipient */\n      dup6\n        /* \"contracts/DiasporaRemitEscrow.sol\":6078:6154  TransferCreated(transferId, msg.sender, _recipient, _validator, 0, _purpose) */\n      0xffffffffffffffffffffffffffffffffffffffff\n      and\n        /* \"contracts/DiasporaRemitEscrow.sol\":6106:6116  msg.sender */\n      caller\n        /* \"contracts/DiasporaRemitEscrow.sol\":6078:6154  TransferCreated(transferId, msg.sender, _recipient, _validator, 0, _purpose) */\n      0xffffffffffffffffffffffffffffffffffffffff\n      and\n        /* \"contracts/DiasporaRemitEscrow.sol\":6094:6104  transferId */\n      dup3\n        /* \"contracts/DiasporaRemitEscrow.sol\":6078:6154  TransferCreated(transferId, msg.sender, _recipient, _validator, 0, _purpose) */\n      0xfec2e0001f23ac3e685805535a487f140c608e19fa1f37407b0ff7d71ede5bc7\n        /* \"contracts/DiasporaRemitEscrow.sol\":6130:6140  _validator */\n      dup9\n        /* \"contracts/DiasporaRemitEscrow.sol\":6142:6143  0 */\n      0x00\n        /* \"contracts/DiasporaRemitEscrow.sol\":6145:6153  _purpose */\n      dup10\n        /* \"contracts/DiasporaRemitEscrow.sol\":6078:6154  TransferCreated(transferId, msg.sender, _recipient, _validator, 0, _purpose) */\n      mload(0x40)\n      tag_373\n      swap4\n      swap3\n      swap2\n      swap1\n      tag_374\n      jump\t// in\n    tag_373:\n      mload(0x40)\n      dup1\n      swap2\n      sub\n      swap1\n      log4\n        /* \"contracts/DiasporaRemitEscrow.sol\":6182:6192  transferId */\n      dup1\n        /* \"contracts/DiasporaRemitEscrow.sol\":6175:6192  return transferId */\n      swap2\n      pop\n      pop\n        /* \"contracts/DiasporaRemitEscrow.sol\":4873:6200  function createTransfer(... */\n      swap5\n      swap4\n      pop\n      pop\n      pop\n      pop\n      jump\t// out\n        /* \"contracts/DiasporaRemitEscrow.sol\":17494:17603  function getContractBalance() external view returns (uint256) {... */\n    tag_126:\n        /* \"contracts/DiasporaRemitEscrow.sol\":17547:17554  uint256 */\n      0x00\n        /* \"contracts/DiasporaRemitEscrow.sol\":17574:17595  address(this).balance */\n      selfbalance\n        /* \"contracts/DiasporaRemitEscrow.sol\":17567:17595  return address(this).balance */\n      swap1\n      pop\n        /* \"contracts/DiasporaRemitEscrow.sol\":17494:17603  function getContractBalance() external view returns (uint256) {... */\n      swap1\n      jump\t// out\n        /* \"contracts/DiasporaRemitEscrow.sol\":1414:1434  address public owner */\n    tag_130:\n      0x00\n      0x00\n      swap1\n      sload\n      swap1\n      0x0100\n      exp\n      swap1\n      div\n      0xffffffffffffffffffffffffffffffffffffffff\n      and\n      dup2\n      jump\t// out\n        /* \"contracts/DiasporaRemitEscrow.sol\":6968:7664  function createAndFundTransfer(... */\n    tag_135:\n        /* \"contracts/DiasporaRemitEscrow.sol\":7158:7165  uint256 */\n      0x00\n        /* \"contracts/DiasporaRemitEscrow.sol\":7195:7196  0 */\n      0x00\n        /* \"contracts/DiasporaRemitEscrow.sol\":7182:7191  msg.value */\n      callvalue\n        /* \"contracts/DiasporaRemitEscrow.sol\":7182:7196  msg.value == 0 */\n      sub\n        /* \"contracts/DiasporaRemitEscrow.sol\":7178:7220  if (msg.value == 0) revert InvalidAmount() */\n      tag_377\n      jumpi\n        /* \"contracts/DiasporaRemitEscrow.sol\":7205:7220  InvalidAmount() */\n      mload(0x40)\n      0x2c5211c600000000000000000000000000000000000000000000000000000000\n      dup2\n      mstore\n      0x04\n      add\n      mload(0x40)\n      dup1\n      swap2\n      sub\n      swap1\n      revert\n        /* \"contracts/DiasporaRemitEscrow.sol\":7178:7220  if (msg.value == 0) revert InvalidAmount() */\n    tag_377:\n        /* \"contracts/DiasporaRemitEscrow.sol\":7241:7259  uint256 transferId */\n      0x00\n        /* \"contracts/DiasporaRemitEscrow.sol\":7262:7328  createTransfer(_recipient, _validator, _purpose, _deadlineSeconds) */\n      tag_378\n        /* \"contracts/DiasporaRemitEscrow.sol\":7277:7287  _recipient */\n      dup7\n        /* \"contracts/DiasporaRemitEscrow.sol\":7289:7299  _validator */\n      dup7\n        /* \"contracts/DiasporaRemitEscrow.sol\":7301:7309  _purpose */\n      dup7\n        /* \"contracts/DiasporaRemitEscrow.sol\":7311:7327  _deadlineSeconds */\n      dup7\n        /* \"contracts/DiasporaRemitEscrow.sol\":7262:7276  createTransfer */\n      tag_122\n        /* \"contracts/DiasporaRemitEscrow.sol\":7262:7328  createTransfer(_recipient, _validator, _purpose, _deadlineSeconds) */\n      jump\t// in\n    tag_378:\n        /* \"contracts/DiasporaRemitEscrow.sol\":7241:7328  uint256 transferId = createTransfer(_recipient, _validator, _purpose, _deadlineSeconds) */\n      swap1\n      pop\n        /* \"contracts/DiasporaRemitEscrow.sol\":7349:7374  Transfer storage transfer */\n      0x00\n        /* \"contracts/DiasporaRemitEscrow.sol\":7377:7386  transfers */\n      0x04\n        /* \"contracts/DiasporaRemitEscrow.sol\":7377:7398  transfers[transferId] */\n      0x00\n        /* \"contracts/DiasporaRemitEscrow.sol\":7387:7397  transferId */\n      dup4\n        /* \"contracts/DiasporaRemitEscrow.sol\":7377:7398  transfers[transferId] */\n      dup2\n      mstore\n      0x20\n      add\n      swap1\n      dup2\n      mstore\n      0x20\n      add\n      0x00\n      keccak256\n        /* \"contracts/DiasporaRemitEscrow.sol\":7349:7398  Transfer storage transfer = transfers[transferId] */\n      swap1\n      pop\n        /* \"contracts/DiasporaRemitEscrow.sol\":7427:7436  msg.value */\n      callvalue\n        /* \"contracts/DiasporaRemitEscrow.sol\":7409:7417  transfer */\n      dup2\n        /* \"contracts/DiasporaRemitEscrow.sol\":7409:7424  transfer.amount */\n      0x04\n      add\n        /* \"contracts/DiasporaRemitEscrow.sol\":7409:7436  transfer.amount = msg.value */\n      dup2\n      swap1\n      sstore\n      pop\n        /* \"contracts/DiasporaRemitEscrow.sol\":7465:7486  TransferStatus.Funded */\n      0x01\n        /* \"contracts/DiasporaRemitEscrow.sol\":7447:7455  transfer */\n      dup2\n        /* \"contracts/DiasporaRemitEscrow.sol\":7447:7462  transfer.status */\n      0x06\n      add\n      0x00\n        /* \"contracts/DiasporaRemitEscrow.sol\":7447:7486  transfer.status = TransferStatus.Funded */\n      0x0100\n      exp\n      dup2\n      sload\n      dup2\n      0xff\n      mul\n      not\n      and\n      swap1\n      dup4\n      0x05\n      dup2\n      gt\n      iszero\n      tag_379\n      jumpi\n      tag_380\n      tag_227\n      jump\t// in\n    tag_380:\n    tag_379:\n      mul\n      or\n      swap1\n      sstore\n      pop\n        /* \"contracts/DiasporaRemitEscrow.sol\":7527:7536  msg.value */\n      callvalue\n        /* \"contracts/DiasporaRemitEscrow.sol\":7507:7523  totalValueLocked */\n      0x03\n      0x00\n        /* \"contracts/DiasporaRemitEscrow.sol\":7507:7536  totalValueLocked += msg.value */\n      dup3\n      dup3\n      sload\n      tag_381\n      swap2\n      swap1\n      tag_278\n      jump\t// in\n    tag_381:\n      swap3\n      pop\n      pop\n      dup2\n      swap1\n      sstore\n      pop\n        /* \"contracts/DiasporaRemitEscrow.sol\":7577:7587  transferId */\n      dup2\n        /* \"contracts/DiasporaRemitEscrow.sol\":7562:7618  TransferFunded(transferId, msg.value, transfer.deadline) */\n      0xf984c0f6b056fe16b28046e36fcafa84a00d503f88f1d0afa768e4c206192b80\n        /* \"contracts/DiasporaRemitEscrow.sol\":7589:7598  msg.value */\n      callvalue\n        /* \"contracts/DiasporaRemitEscrow.sol\":7600:7608  transfer */\n      dup4\n        /* \"contracts/DiasporaRemitEscrow.sol\":7600:7617  transfer.deadline */\n      0x05\n      add\n      sload\n        /* \"contracts/DiasporaRemitEscrow.sol\":7562:7618  TransferFunded(transferId, msg.value, transfer.deadline) */\n      mload(0x40)\n      tag_382\n      swap3\n      swap2\n      swap1\n      tag_253\n      jump\t// in\n    tag_382:\n      mload(0x40)\n      dup1\n      swap2\n      sub\n      swap1\n      log2\n        /* \"contracts/DiasporaRemitEscrow.sol\":7646:7656  transferId */\n      dup2\n        /* \"contracts/DiasporaRemitEscrow.sol\":7639:7656  return transferId */\n      swap3\n      pop\n      pop\n      pop\n        /* \"contracts/DiasporaRemitEscrow.sol\":6968:7664  function createAndFundTransfer(... */\n      swap5\n      swap4\n      pop\n      pop\n      pop\n      pop\n      jump\t// out\n        /* \"contracts/DiasporaRemitEscrow.sol\":1568:1613  mapping(uint256 => Transfer) public transfers */\n    tag_140:\n      mstore(0x20, 0x04)\n      dup1\n      0x00\n      mstore\n      keccak256(0x00, 0x40)\n      0x00\n      swap2\n      pop\n      swap1\n      pop\n      dup1\n      0x00\n      add\n      sload\n      swap1\n      dup1\n      0x01\n      add\n      0x00\n      swap1\n      sload\n      swap1\n      0x0100\n      exp\n      swap1\n      div\n      0xffffffffffffffffffffffffffffffffffffffff\n      and\n      swap1\n      dup1\n      0x02\n      add\n      0x00\n      swap1\n      sload\n      swap1\n      0x0100\n      exp\n      swap1\n      div\n      0xffffffffffffffffffffffffffffffffffffffff\n      and\n      swap1\n      dup1\n      0x03\n      add\n      0x00\n      swap1\n      sload\n      swap1\n      0x0100\n      exp\n      swap1\n      div\n      0xffffffffffffffffffffffffffffffffffffffff\n      and\n      swap1\n      dup1\n      0x04\n      add\n      sload\n      swap1\n      dup1\n      0x05\n      add\n      sload\n      swap1\n      dup1\n      0x06\n      add\n      0x00\n      swap1\n      sload\n      swap1\n      0x0100\n      exp\n      swap1\n      div\n      0xff\n      and\n      swap1\n      dup1\n      0x07\n      add\n      dup1\n      sload\n      tag_383\n      swap1\n      tag_384\n      jump\t// in\n    tag_383:\n      dup1\n      0x1f\n      add\n      0x20\n      dup1\n      swap2\n      div\n      mul\n      0x20\n      add\n      mload(0x40)\n      swap1\n      dup2\n      add\n      0x40\n      mstore\n      dup1\n      swap3\n      swap2\n      swap1\n      dup2\n      dup2\n      mstore\n      0x20\n      add\n      dup3\n      dup1\n      sload\n      tag_385\n      swap1\n      tag_384\n      jump\t// in\n    tag_385:\n      dup1\n      iszero\n      tag_386\n      jumpi\n      dup1\n      0x1f\n      lt\n      tag_387\n      jumpi\n      0x0100\n      dup1\n      dup4\n      sload\n      div\n      mul\n      dup4\n      mstore\n      swap2\n      0x20\n      add\n      swap2\n      jump(tag_386)\n    tag_387:\n      dup3\n      add\n      swap2\n      swap1\n      0x00\n      mstore\n      keccak256(0x00, 0x20)\n      swap1\n    tag_388:\n      dup2\n      sload\n      dup2\n      mstore\n      swap1\n      0x01\n      add\n      swap1\n      0x20\n      add\n      dup1\n      dup4\n      gt\n      tag_388\n      jumpi\n      dup3\n      swap1\n      sub\n      0x1f\n      and\n      dup3\n      add\n      swap2\n    tag_386:\n      pop\n      pop\n      pop\n      pop\n      pop\n      swap1\n      dup1\n      0x08\n      add\n      dup1\n      sload\n      tag_389\n      swap1\n      tag_384\n      jump\t// in\n    tag_389:\n      dup1\n      0x1f\n      add\n      0x20\n      dup1\n      swap2\n      div\n      mul\n      0x20\n      add\n      mload(0x40)\n      swap1\n      dup2\n      add\n      0x40\n      mstore\n      dup1\n      swap3\n      swap2\n      swap1\n      dup2\n      dup2\n      mstore\n      0x20\n      add\n      dup3\n      dup1\n      sload\n      tag_390\n      swap1\n      tag_384\n      jump\t// in\n    tag_390:\n      dup1\n      iszero\n      tag_391\n      jumpi\n      dup1\n      0x1f\n      lt\n      tag_392\n      jumpi\n      0x0100\n      dup1\n      dup4\n      sload\n      div\n      mul\n      dup4\n      mstore\n      swap2\n      0x20\n      add\n      swap2\n      jump(tag_391)\n    tag_392:\n      dup3\n      add\n      swap2\n      swap1\n      0x00\n      mstore\n      keccak256(0x00, 0x20)\n      swap1\n    tag_393:\n      dup2\n      sload\n      dup2\n      mstore\n      swap1\n      0x01\n      add\n      swap1\n      0x20\n      add\n      dup1\n      dup4\n      gt\n      tag_393\n      jumpi\n      dup3\n      swap1\n      sub\n      0x1f\n      and\n      dup3\n      add\n      swap2\n    tag_391:\n      pop\n      pop\n      pop\n      pop\n      pop\n      swap1\n      dup1\n      0x09\n      add\n      sload\n      swap1\n      dup1\n      0x0a\n      add\n      sload\n      swap1\n      dup1\n      0x0b\n      add\n      0x00\n      swap1\n      sload\n      swap1\n      0x0100\n      exp\n      swap1\n      div\n      0xff\n      and\n      swap1\n      pop\n      dup13\n      jump\t// out\n        /* \"contracts/DiasporaRemitEscrow.sol\":1741:1796  mapping(address => uint256[]) public validatorTransfers */\n    tag_146:\n      mstore(0x20, 0x07)\n      dup2\n      0x00\n      mstore\n      keccak256(0x00, 0x40)\n      dup2\n      dup2\n      sload\n      dup2\n      lt\n      tag_394\n      jumpi\n      0x00\n      dup1\n      revert\n    tag_394:\n      swap1\n      0x00\n      mstore\n      keccak256(0x00, 0x20)\n      add\n      0x00\n      swap2\n      pop\n      swap2\n      pop\n      pop\n      sload\n      dup2\n      jump\t// out\n        /* \"contracts/DiasporaRemitEscrow.sol\":15745:15881  function getSenderTransfers(address _sender) external view returns (uint256[] memory) {... */\n    tag_151:\n        /* \"contracts/DiasporaRemitEscrow.sol\":15813:15829  uint256[] memory */\n      0x60\n        /* \"contracts/DiasporaRemitEscrow.sol\":15849:15864  senderTransfers */\n      0x05\n        /* \"contracts/DiasporaRemitEscrow.sol\":15849:15873  senderTransfers[_sender] */\n      0x00\n        /* \"contracts/DiasporaRemitEscrow.sol\":15865:15872  _sender */\n      dup4\n        /* \"contracts/DiasporaRemitEscrow.sol\":15849:15873  senderTransfers[_sender] */\n      0xffffffffffffffffffffffffffffffffffffffff\n      and\n      0xffffffffffffffffffffffffffffffffffffffff\n      and\n      dup2\n      mstore\n      0x20\n      add\n      swap1\n      dup2\n      mstore\n      0x20\n      add\n      0x00\n      keccak256\n        /* \"contracts/DiasporaRemitEscrow.sol\":15842:15873  return senderTransfers[_sender] */\n      dup1\n      sload\n      dup1\n      0x20\n      mul\n      0x20\n      add\n      mload(0x40)\n      swap1\n      dup2\n      add\n      0x40\n      mstore\n      dup1\n      swap3\n      swap2\n      swap1\n      dup2\n      dup2\n      mstore\n      0x20\n      add\n      dup3\n      dup1\n      sload\n      dup1\n      iszero\n      tag_397\n      jumpi\n      0x20\n      mul\n      dup3\n      add\n      swap2\n      swap1\n      0x00\n      mstore\n      keccak256(0x00, 0x20)\n      swap1\n    tag_398:\n      dup2\n      sload\n      dup2\n      mstore\n      0x20\n      add\n      swap1\n      0x01\n      add\n      swap1\n      dup1\n      dup4\n      gt\n      tag_398\n      jumpi\n    tag_397:\n      pop\n      pop\n      pop\n      pop\n      pop\n      swap1\n      pop\n        /* \"contracts/DiasporaRemitEscrow.sol\":15745:15881  function getSenderTransfers(address _sender) external view returns (uint256[] memory) {... */\n      swap2\n      swap1\n      pop\n      jump\t// out\n        /* \"contracts/DiasporaRemitEscrow.sol\":1679:1734  mapping(address => uint256[]) public recipientTransfers */\n    tag_156:\n      mstore(0x20, 0x06)\n      dup2\n      0x00\n      mstore\n      keccak256(0x00, 0x40)\n      dup2\n      dup2\n      sload\n      dup2\n      lt\n      tag_399\n      jumpi\n      0x00\n      dup1\n      revert\n    tag_399:\n      swap1\n      0x00\n      mstore\n      keccak256(0x00, 0x20)\n      add\n      0x00\n      swap2\n      pop\n      swap2\n      pop\n      pop\n      sload\n      dup2\n      jump\t// out\n        /* \"contracts/DiasporaRemitEscrow.sol\":14798:14996  function updatePlatformFee(uint256 _newFeePercentage) external onlyOwner {... */\n    tag_161:\n        /* \"contracts/DiasporaRemitEscrow.sol\":3796:3801  owner */\n      0x00\n      0x00\n      swap1\n      sload\n      swap1\n      0x0100\n      exp\n      swap1\n      div\n      0xffffffffffffffffffffffffffffffffffffffff\n      and\n        /* \"contracts/DiasporaRemitEscrow.sol\":3782:3801  msg.sender != owner */\n      0xffffffffffffffffffffffffffffffffffffffff\n      and\n        /* \"contracts/DiasporaRemitEscrow.sol\":3782:3792  msg.sender */\n      caller\n        /* \"contracts/DiasporaRemitEscrow.sol\":3782:3801  msg.sender != owner */\n      0xffffffffffffffffffffffffffffffffffffffff\n      and\n      eq\n        /* \"contracts/DiasporaRemitEscrow.sol\":3778:3834  if (msg.sender != owner) revert Unauthorized(msg.sender) */\n      tag_402\n      jumpi\n        /* \"contracts/DiasporaRemitEscrow.sol\":3823:3833  msg.sender */\n      caller\n        /* \"contracts/DiasporaRemitEscrow.sol\":3810:3834  Unauthorized(msg.sender) */\n      mload(0x40)\n      0x8e4a23d600000000000000000000000000000000000000000000000000000000\n      dup2\n      mstore\n      0x04\n      add\n      tag_403\n      swap2\n      swap1\n      tag_132\n      jump\t// in\n    tag_403:\n      mload(0x40)\n      dup1\n      swap2\n      sub\n      swap1\n      revert\n        /* \"contracts/DiasporaRemitEscrow.sol\":3778:3834  if (msg.sender != owner) revert Unauthorized(msg.sender) */\n    tag_402:\n        /* \"contracts/DiasporaRemitEscrow.sol\":14906:14908  10 */\n      0x0a\n        /* \"contracts/DiasporaRemitEscrow.sol\":14886:14903  _newFeePercentage */\n      dup2\n        /* \"contracts/DiasporaRemitEscrow.sol\":14886:14908  _newFeePercentage > 10 */\n      gt\n        /* \"contracts/DiasporaRemitEscrow.sol\":14882:14936  if (_newFeePercentage > 10) revert InvalidPercentage() */\n      iszero\n      tag_405\n      jumpi\n        /* \"contracts/DiasporaRemitEscrow.sol\":14917:14936  InvalidPercentage() */\n      mload(0x40)\n      0x1f3b85d300000000000000000000000000000000000000000000000000000000\n      dup2\n      mstore\n      0x04\n      add\n      mload(0x40)\n      dup1\n      swap2\n      sub\n      swap1\n      revert\n        /* \"contracts/DiasporaRemitEscrow.sol\":14882:14936  if (_newFeePercentage > 10) revert InvalidPercentage() */\n    tag_405:\n        /* \"contracts/DiasporaRemitEscrow.sol\":14971:14988  _newFeePercentage */\n      dup1\n        /* \"contracts/DiasporaRemitEscrow.sol\":14947:14968  platformFeePercentage */\n      0x01\n        /* \"contracts/DiasporaRemitEscrow.sol\":14947:14988  platformFeePercentage = _newFeePercentage */\n      dup2\n      swap1\n      sstore\n      pop\n        /* \"contracts/DiasporaRemitEscrow.sol\":14798:14996  function updatePlatformFee(uint256 _newFeePercentage) external onlyOwner {... */\n      pop\n      jump\t// out\n        /* \"contracts/DiasporaRemitEscrow.sol\":16213:16405  function isUserVerified(address _user) external view returns (bool) {... */\n    tag_165:\n        /* \"contracts/DiasporaRemitEscrow.sol\":16275:16279  bool */\n      0x00\n        /* \"contracts/DiasporaRemitEscrow.sol\":16329:16330  0 */\n      0x00\n        /* \"contracts/DiasporaRemitEscrow.sol\":16296:16331  address(userRegistry) == address(0) */\n      0xffffffffffffffffffffffffffffffffffffffff\n      and\n        /* \"contracts/DiasporaRemitEscrow.sol\":16304:16316  userRegistry */\n      0x09\n      0x00\n      swap1\n      sload\n      swap1\n      0x0100\n      exp\n      swap1\n      div\n      0xffffffffffffffffffffffffffffffffffffffff\n      and\n        /* \"contracts/DiasporaRemitEscrow.sol\":16296:16331  address(userRegistry) == address(0) */\n      0xffffffffffffffffffffffffffffffffffffffff\n      and\n      sub\n        /* \"contracts/DiasporaRemitEscrow.sol\":16292:16345  if (address(userRegistry) == address(0)) return false */\n      tag_407\n      jumpi\n        /* \"contracts/DiasporaRemitEscrow.sol\":16340:16345  false */\n      0x00\n        /* \"contracts/DiasporaRemitEscrow.sol\":16333:16345  return false */\n      swap1\n      pop\n      jump(tag_406)\n        /* \"contracts/DiasporaRemitEscrow.sol\":16292:16345  if (address(userRegistry) == address(0)) return false */\n    tag_407:\n        /* \"contracts/DiasporaRemitEscrow.sol\":16363:16375  userRegistry */\n      0x09\n      0x00\n      swap1\n      sload\n      swap1\n      0x0100\n      exp\n      swap1\n      div\n      0xffffffffffffffffffffffffffffffffffffffff\n      and\n        /* \"contracts/DiasporaRemitEscrow.sol\":16363:16390  userRegistry.isUserVerified */\n      0xffffffffffffffffffffffffffffffffffffffff\n      and\n      0xace417e0\n        /* \"contracts/DiasporaRemitEscrow.sol\":16391:16396  _user */\n      dup4\n        /* \"contracts/DiasporaRemitEscrow.sol\":16363:16397  userRegistry.isUserVerified(_user) */\n      mload(0x40)\n      dup3\n      0xffffffff\n      and\n      0xe0\n      shl\n      dup2\n      mstore\n      0x04\n      add\n      tag_408\n      swap2\n      swap1\n      tag_132\n      jump\t// in\n    tag_408:\n      0x20\n      mload(0x40)\n      dup1\n      dup4\n      sub\n      dup2\n      dup7\n      gas\n      staticcall\n      iszero\n      dup1\n      iszero\n      tag_410\n      jumpi\n      returndatacopy(0x00, 0x00, returndatasize)\n      revert(0x00, returndatasize)\n    tag_410:\n      pop\n      pop\n      pop\n      pop\n      mload(0x40)\n      returndatasize\n      not(0x1f)\n      0x1f\n      dup3\n      add\n      and\n      dup3\n      add\n      dup1\n      0x40\n      mstore\n      pop\n      dup2\n      add\n      swap1\n      tag_411\n      swap2\n      swap1\n      tag_262\n      jump\t// in\n    tag_411:\n        /* \"contracts/DiasporaRemitEscrow.sol\":16356:16397  return userRegistry.isUserVerified(_user) */\n      swap1\n      pop\n        /* \"contracts/DiasporaRemitEscrow.sol\":16213:16405  function isUserVerified(address _user) external view returns (bool) {... */\n    tag_406:\n      swap2\n      swap1\n      pop\n      jump\t// out\n        /* \"contracts/DiasporaRemitEscrow.sol\":4592:4713  function setUserRegistry(address _registry) external onlyOwner {... */\n    tag_170:\n        /* \"contracts/DiasporaRemitEscrow.sol\":3796:3801  owner */\n      0x00\n      0x00\n      swap1\n      sload\n      swap1\n      0x0100\n      exp\n      swap1\n      div\n      0xffffffffffffffffffffffffffffffffffffffff\n      and\n        /* \"contracts/DiasporaRemitEscrow.sol\":3782:3801  msg.sender != owner */\n      0xffffffffffffffffffffffffffffffffffffffff\n      and\n        /* \"contracts/DiasporaRemitEscrow.sol\":3782:3792  msg.sender */\n      caller\n        /* \"contracts/DiasporaRemitEscrow.sol\":3782:3801  msg.sender != owner */\n      0xffffffffffffffffffffffffffffffffffffffff\n      and\n      eq\n        /* \"contracts/DiasporaRemitEscrow.sol\":3778:3834  if (msg.sender != owner) revert Unauthorized(msg.sender) */\n      tag_413\n      jumpi\n        /* \"contracts/DiasporaRemitEscrow.sol\":3823:3833  msg.sender */\n      caller\n        /* \"contracts/DiasporaRemitEscrow.sol\":3810:3834  Unauthorized(msg.sender) */\n      mload(0x40)\n      0x8e4a23d600000000000000000000000000000000000000000000000000000000\n      dup2\n      mstore\n      0x04\n      add\n      tag_414\n      swap2\n      swap1\n      tag_132\n      jump\t// in\n    tag_414:\n      mload(0x40)\n      dup1\n      swap2\n      sub\n      swap1\n      revert\n        /* \"contracts/DiasporaRemitEscrow.sol\":3778:3834  if (msg.sender != owner) revert Unauthorized(msg.sender) */\n    tag_413:\n        /* \"contracts/DiasporaRemitEscrow.sol\":4695:4704  _registry */\n      dup1\n        /* \"contracts/DiasporaRemitEscrow.sol\":4666:4678  userRegistry */\n      0x09\n      0x00\n        /* \"contracts/DiasporaRemitEscrow.sol\":4666:4705  userRegistry = IUserRegistry(_registry) */\n      0x0100\n      exp\n      dup2\n      sload\n      dup2\n      0xffffffffffffffffffffffffffffffffffffffff\n      mul\n      not\n      and\n      swap1\n      dup4\n      0xffffffffffffffffffffffffffffffffffffffff\n      and\n      mul\n      or\n      swap1\n      sstore\n      pop\n        /* \"contracts/DiasporaRemitEscrow.sol\":4592:4713  function setUserRegistry(address _registry) external onlyOwner {... */\n      pop\n      jump\t// out\n        /* \"contracts/DiasporaRemitEscrow.sol\":12860:13474  function updateRecipient(uint256 _transferId, address _newRecipient)... */\n    tag_174:\n        /* \"contracts/DiasporaRemitEscrow.sol\":12971:12982  _transferId */\n      dup2\n        /* \"contracts/DiasporaRemitEscrow.sol\":3941:3955  totalTransfers */\n      sload(0x02)\n        /* \"contracts/DiasporaRemitEscrow.sol\":3926:3937  _transferId */\n      dup2\n        /* \"contracts/DiasporaRemitEscrow.sol\":3926:3955  _transferId >= totalTransfers */\n      lt\n        /* \"contracts/DiasporaRemitEscrow.sol\":3922:3993  if (_transferId >= totalTransfers) revert TransferNotFound(_transferId) */\n      tag_417\n      jumpi\n        /* \"contracts/DiasporaRemitEscrow.sol\":3981:3992  _transferId */\n      dup1\n        /* \"contracts/DiasporaRemitEscrow.sol\":3964:3993  TransferNotFound(_transferId) */\n      mload(0x40)\n      0xee9ffcb700000000000000000000000000000000000000000000000000000000\n      dup2\n      mstore\n      0x04\n      add\n      tag_418\n      swap2\n      swap1\n      tag_74\n      jump\t// in\n    tag_418:\n      mload(0x40)\n      dup1\n      swap2\n      sub\n      swap1\n      revert\n        /* \"contracts/DiasporaRemitEscrow.sol\":3922:3993  if (_transferId >= totalTransfers) revert TransferNotFound(_transferId) */\n    tag_417:\n        /* \"contracts/DiasporaRemitEscrow.sol\":13004:13015  _transferId */\n      dup3\n        /* \"contracts/DiasporaRemitEscrow.sol\":4114:4124  msg.sender */\n      caller\n        /* \"contracts/DiasporaRemitEscrow.sol\":4081:4124  transfers[_transferId].sender != msg.sender */\n      0xffffffffffffffffffffffffffffffffffffffff\n      and\n        /* \"contracts/DiasporaRemitEscrow.sol\":4081:4090  transfers */\n      0x04\n        /* \"contracts/DiasporaRemitEscrow.sol\":4081:4103  transfers[_transferId] */\n      0x00\n        /* \"contracts/DiasporaRemitEscrow.sol\":4091:4102  _transferId */\n      dup4\n        /* \"contracts/DiasporaRemitEscrow.sol\":4081:4103  transfers[_transferId] */\n      dup2\n      mstore\n      0x20\n      add\n      swap1\n      dup2\n      mstore\n      0x20\n      add\n      0x00\n      keccak256\n        /* \"contracts/DiasporaRemitEscrow.sol\":4081:4110  transfers[_transferId].sender */\n      0x01\n      add\n      0x00\n      swap1\n      sload\n      swap1\n      0x0100\n      exp\n      swap1\n      div\n      0xffffffffffffffffffffffffffffffffffffffff\n      and\n        /* \"contracts/DiasporaRemitEscrow.sol\":4081:4124  transfers[_transferId].sender != msg.sender */\n      0xffffffffffffffffffffffffffffffffffffffff\n      and\n      eq\n        /* \"contracts/DiasporaRemitEscrow.sol\":4077:4157  if (transfers[_transferId].sender != msg.sender) revert Unauthorized(msg.sender) */\n      tag_420\n      jumpi\n        /* \"contracts/DiasporaRemitEscrow.sol\":4146:4156  msg.sender */\n      caller\n        /* \"contracts/DiasporaRemitEscrow.sol\":4133:4157  Unauthorized(msg.sender) */\n      mload(0x40)\n      0x8e4a23d600000000000000000000000000000000000000000000000000000000\n      dup2\n      mstore\n      0x04\n      add\n      tag_421\n      swap2\n      swap1\n      tag_132\n      jump\t// in\n    tag_421:\n      mload(0x40)\n      dup1\n      swap2\n      sub\n      swap1\n      revert\n        /* \"contracts/DiasporaRemitEscrow.sol\":4077:4157  if (transfers[_transferId].sender != msg.sender) revert Unauthorized(msg.sender) */\n    tag_420:\n        /* \"contracts/DiasporaRemitEscrow.sol\":13062:13063  0 */\n      0x00\n        /* \"contracts/DiasporaRemitEscrow.sol\":13037:13064  _newRecipient == address(0) */\n      0xffffffffffffffffffffffffffffffffffffffff\n      and\n        /* \"contracts/DiasporaRemitEscrow.sol\":13037:13050  _newRecipient */\n      dup4\n        /* \"contracts/DiasporaRemitEscrow.sol\":13037:13064  _newRecipient == address(0) */\n      0xffffffffffffffffffffffffffffffffffffffff\n      and\n      sub\n        /* \"contracts/DiasporaRemitEscrow.sol\":13033:13089  if (_newRecipient == address(0)) revert InvalidAddress() */\n      tag_423\n      jumpi\n        /* \"contracts/DiasporaRemitEscrow.sol\":13073:13089  InvalidAddress() */\n      mload(0x40)\n      0xe6c4247b00000000000000000000000000000000000000000000000000000000\n      dup2\n      mstore\n      0x04\n      add\n      mload(0x40)\n      dup1\n      swap2\n      sub\n      swap1\n      revert\n        /* \"contracts/DiasporaRemitEscrow.sol\":13033:13089  if (_newRecipient == address(0)) revert InvalidAddress() */\n    tag_423:\n        /* \"contracts/DiasporaRemitEscrow.sol\":13100:13125  Transfer storage transfer */\n      0x00\n        /* \"contracts/DiasporaRemitEscrow.sol\":13128:13137  transfers */\n      0x04\n        /* \"contracts/DiasporaRemitEscrow.sol\":13128:13150  transfers[_transferId] */\n      0x00\n        /* \"contracts/DiasporaRemitEscrow.sol\":13138:13149  _transferId */\n      dup7\n        /* \"contracts/DiasporaRemitEscrow.sol\":13128:13150  transfers[_transferId] */\n      dup2\n      mstore\n      0x20\n      add\n      swap1\n      dup2\n      mstore\n      0x20\n      add\n      0x00\n      keccak256\n        /* \"contracts/DiasporaRemitEscrow.sol\":13100:13150  Transfer storage transfer = transfers[_transferId] */\n      swap1\n      pop\n        /* \"contracts/DiasporaRemitEscrow.sol\":13184:13206  TransferStatus.Created */\n      0x00\n        /* \"contracts/DiasporaRemitEscrow.sol\":13165:13206  transfer.status != TransferStatus.Created */\n      0x05\n      dup2\n      gt\n      iszero\n      tag_424\n      jumpi\n      tag_425\n      tag_227\n      jump\t// in\n    tag_425:\n    tag_424:\n        /* \"contracts/DiasporaRemitEscrow.sol\":13165:13173  transfer */\n      dup2\n        /* \"contracts/DiasporaRemitEscrow.sol\":13165:13180  transfer.status */\n      0x06\n      add\n      0x00\n      swap1\n      sload\n      swap1\n      0x0100\n      exp\n      swap1\n      div\n      0xff\n      and\n        /* \"contracts/DiasporaRemitEscrow.sol\":13165:13206  transfer.status != TransferStatus.Created */\n      0x05\n      dup2\n      gt\n      iszero\n      tag_426\n      jumpi\n      tag_427\n      tag_227\n      jump\t// in\n    tag_427:\n    tag_426:\n      eq\n        /* \"contracts/DiasporaRemitEscrow.sol\":13161:13296  if (transfer.status != TransferStatus.Created) {... */\n      tag_428\n      jumpi\n        /* \"contracts/DiasporaRemitEscrow.sol\":13244:13252  transfer */\n      dup1\n        /* \"contracts/DiasporaRemitEscrow.sol\":13244:13259  transfer.status */\n      0x06\n      add\n      0x00\n      swap1\n      sload\n      swap1\n      0x0100\n      exp\n      swap1\n      div\n      0xff\n      and\n        /* \"contracts/DiasporaRemitEscrow.sol\":13261:13283  TransferStatus.Created */\n      0x00\n        /* \"contracts/DiasporaRemitEscrow.sol\":13230:13284  InvalidStatus(transfer.status, TransferStatus.Created) */\n      mload(0x40)\n      0xf924664d00000000000000000000000000000000000000000000000000000000\n      dup2\n      mstore\n      0x04\n      add\n      tag_429\n      swap3\n      swap2\n      swap1\n      tag_232\n      jump\t// in\n    tag_429:\n      mload(0x40)\n      dup1\n      swap2\n      sub\n      swap1\n      revert\n        /* \"contracts/DiasporaRemitEscrow.sol\":13161:13296  if (transfer.status != TransferStatus.Created) {... */\n    tag_428:\n        /* \"contracts/DiasporaRemitEscrow.sol\":13306:13326  address oldRecipient */\n      0x00\n        /* \"contracts/DiasporaRemitEscrow.sol\":13329:13337  transfer */\n      dup2\n        /* \"contracts/DiasporaRemitEscrow.sol\":13329:13347  transfer.recipient */\n      0x02\n      add\n      0x00\n      swap1\n      sload\n      swap1\n      0x0100\n      exp\n      swap1\n      div\n      0xffffffffffffffffffffffffffffffffffffffff\n      and\n        /* \"contracts/DiasporaRemitEscrow.sol\":13306:13347  address oldRecipient = transfer.recipient */\n      swap1\n      pop\n        /* \"contracts/DiasporaRemitEscrow.sol\":13379:13392  _newRecipient */\n      dup5\n        /* \"contracts/DiasporaRemitEscrow.sol\":13358:13366  transfer */\n      dup3\n        /* \"contracts/DiasporaRemitEscrow.sol\":13358:13376  transfer.recipient */\n      0x02\n      add\n      0x00\n        /* \"contracts/DiasporaRemitEscrow.sol\":13358:13392  transfer.recipient = _newRecipient */\n      0x0100\n      exp\n      dup2\n      sload\n      dup2\n      0xffffffffffffffffffffffffffffffffffffffff\n      mul\n      not\n      and\n      swap1\n      dup4\n      0xffffffffffffffffffffffffffffffffffffffff\n      and\n      mul\n      or\n      swap1\n      sstore\n      pop\n        /* \"contracts/DiasporaRemitEscrow.sol\":13425:13436  _transferId */\n      dup6\n        /* \"contracts/DiasporaRemitEscrow.sol\":13408:13466  RecipientUpdated(_transferId, oldRecipient, _newRecipient) */\n      0xeb42f80d8691a4932e59d407b00ed90f3816304690706e7af5182e0cb3dcbd17\n        /* \"contracts/DiasporaRemitEscrow.sol\":13438:13450  oldRecipient */\n      dup3\n        /* \"contracts/DiasporaRemitEscrow.sol\":13452:13465  _newRecipient */\n      dup8\n        /* \"contracts/DiasporaRemitEscrow.sol\":13408:13466  RecipientUpdated(_transferId, oldRecipient, _newRecipient) */\n      mload(0x40)\n      tag_430\n      swap3\n      swap2\n      swap1\n      tag_333\n      jump\t// in\n    tag_430:\n      mload(0x40)\n      dup1\n      swap2\n      sub\n      swap1\n      log2\n        /* \"contracts/DiasporaRemitEscrow.sol\":13022:13474  {... */\n      pop\n      pop\n        /* \"contracts/DiasporaRemitEscrow.sol\":4004:4005  _ */\n      pop\n        /* \"contracts/DiasporaRemitEscrow.sol\":12860:13474  function updateRecipient(uint256 _transferId, address _newRecipient)... */\n      pop\n      pop\n      pop\n      jump\t// out\n        /* \"contracts/DiasporaRemitEscrow.sol\":16653:17482  function getTransferStatus(uint256 _transferId)... */\n    tag_178:\n        /* \"contracts/DiasporaRemitEscrow.sol\":16802:16823  TransferStatus status */\n      0x00\n        /* \"contracts/DiasporaRemitEscrow.sol\":16838:16851  bool isFunded */\n      0x00\n        /* \"contracts/DiasporaRemitEscrow.sol\":16866:16882  bool isValidated */\n      0x00\n        /* \"contracts/DiasporaRemitEscrow.sol\":16897:16913  bool isCompleted */\n      0x00\n        /* \"contracts/DiasporaRemitEscrow.sol\":16928:16943  bool isRefunded */\n      0x00\n        /* \"contracts/DiasporaRemitEscrow.sol\":16958:16972  bool canRefund */\n      0x00\n        /* \"contracts/DiasporaRemitEscrow.sol\":16987:17008  uint256 timeRemaining */\n      0x00\n        /* \"contracts/DiasporaRemitEscrow.sol\":16757:16768  _transferId */\n      dup8\n        /* \"contracts/DiasporaRemitEscrow.sol\":3941:3955  totalTransfers */\n      sload(0x02)\n        /* \"contracts/DiasporaRemitEscrow.sol\":3926:3937  _transferId */\n      dup2\n        /* \"contracts/DiasporaRemitEscrow.sol\":3926:3955  _transferId >= totalTransfers */\n      lt\n        /* \"contracts/DiasporaRemitEscrow.sol\":3922:3993  if (_transferId >= totalTransfers) revert TransferNotFound(_transferId) */\n      tag_432\n      jumpi\n        /* \"contracts/DiasporaRemitEscrow.sol\":3981:3992  _transferId */\n      dup1\n        /* \"contracts/DiasporaRemitEscrow.sol\":3964:3993  TransferNotFound(_transferId) */\n      mload(0x40)\n      0xee9ffcb700000000000000000000000000000000000000000000000000000000\n      dup2\n      mstore\n      0x04\n      add\n      tag_433\n      swap2\n      swap1\n      tag_74\n      jump\t// in\n    tag_433:\n      mload(0x40)\n      dup1\n      swap2\n      sub\n      swap1\n      revert\n        /* \"contracts/DiasporaRemitEscrow.sol\":3922:3993  if (_transferId >= totalTransfers) revert TransferNotFound(_transferId) */\n    tag_432:\n        /* \"contracts/DiasporaRemitEscrow.sol\":17036:17053  Transfer memory t */\n      0x00\n        /* \"contracts/DiasporaRemitEscrow.sol\":17056:17065  transfers */\n      0x04\n        /* \"contracts/DiasporaRemitEscrow.sol\":17056:17078  transfers[_transferId] */\n      0x00\n        /* \"contracts/DiasporaRemitEscrow.sol\":17066:17077  _transferId */\n      dup12\n        /* \"contracts/DiasporaRemitEscrow.sol\":17056:17078  transfers[_transferId] */\n      dup2\n      mstore\n      0x20\n      add\n      swap1\n      dup2\n      mstore\n      0x20\n      add\n      0x00\n      keccak256\n        /* \"contracts/DiasporaRemitEscrow.sol\":17036:17078  Transfer memory t = transfers[_transferId] */\n      mload(0x40)\n      dup1\n      0x0180\n      add\n      0x40\n      mstore\n      swap1\n      dup2\n      0x00\n      dup3\n      add\n      sload\n      dup2\n      mstore\n      0x20\n      add\n      0x01\n      dup3\n      add\n      0x00\n      swap1\n      sload\n      swap1\n      0x0100\n      exp\n      swap1\n      div\n      0xffffffffffffffffffffffffffffffffffffffff\n      and\n      0xffffffffffffffffffffffffffffffffffffffff\n      and\n      0xffffffffffffffffffffffffffffffffffffffff\n      and\n      dup2\n      mstore\n      0x20\n      add\n      0x02\n      dup3\n      add\n      0x00\n      swap1\n      sload\n      swap1\n      0x0100\n      exp\n      swap1\n      div\n      0xffffffffffffffffffffffffffffffffffffffff\n      and\n      0xffffffffffffffffffffffffffffffffffffffff\n      and\n      0xffffffffffffffffffffffffffffffffffffffff\n      and\n      dup2\n      mstore\n      0x20\n      add\n      0x03\n      dup3\n      add\n      0x00\n      swap1\n      sload\n      swap1\n      0x0100\n      exp\n      swap1\n      div\n      0xffffffffffffffffffffffffffffffffffffffff\n      and\n      0xffffffffffffffffffffffffffffffffffffffff\n      and\n      0xffffffffffffffffffffffffffffffffffffffff\n      and\n      dup2\n      mstore\n      0x20\n      add\n      0x04\n      dup3\n      add\n      sload\n      dup2\n      mstore\n      0x20\n      add\n      0x05\n      dup3\n      add\n      sload\n      dup2\n      mstore\n      0x20\n      add\n      0x06\n      dup3\n      add\n      0x00\n      swap1\n      sload\n      swap1\n      0x0100\n      exp\n      swap1\n      div\n      0xff\n      and\n      0x05\n      dup2\n      gt\n      iszero\n      tag_435\n      jumpi\n      tag_436\n      tag_227\n      jump\t// in\n    tag_436:\n    tag_435:\n      0x05\n      dup2\n      gt\n      iszero\n      tag_437\n      jumpi\n      tag_438\n      tag_227\n      jump\t// in\n    tag_438:\n    tag_437:\n      dup2\n      mstore\n      0x20\n      add\n      0x07\n      dup3\n      add\n      dup1\n      sload\n      tag_439\n      swap1\n      tag_384\n      jump\t// in\n    tag_439:\n      dup1\n      0x1f\n      add\n      0x20\n      dup1\n      swap2\n      div\n      mul\n      0x20\n      add\n      mload(0x40)\n      swap1\n      dup2\n      add\n      0x40\n      mstore\n      dup1\n      swap3\n      swap2\n      swap1\n      dup2\n      dup2\n      mstore\n      0x20\n      add\n      dup3\n      dup1\n      sload\n      tag_440\n      swap1\n      tag_384\n      jump\t// in\n    tag_440:\n      dup1\n      iszero\n      tag_441\n      jumpi\n      dup1\n      0x1f\n      lt\n      tag_442\n      jumpi\n      0x0100\n      dup1\n      dup4\n      sload\n      div\n      mul\n      dup4\n      mstore\n      swap2\n      0x20\n      add\n      swap2\n      jump(tag_441)\n    tag_442:\n      dup3\n      add\n      swap2\n      swap1\n      0x00\n      mstore\n      keccak256(0x00, 0x20)\n      swap1\n    tag_443:\n      dup2\n      sload\n      dup2\n      mstore\n      swap1\n      0x01\n      add\n      swap1\n      0x20\n      add\n      dup1\n      dup4\n      gt\n      tag_443\n      jumpi\n      dup3\n      swap1\n      sub\n      0x1f\n      and\n      dup3\n      add\n      swap2\n    tag_441:\n      pop\n      pop\n      pop\n      pop\n      pop\n      dup2\n      mstore\n      0x20\n      add\n      0x08\n      dup3\n      add\n      dup1\n      sload\n      tag_444\n      swap1\n      tag_384\n      jump\t// in\n    tag_444:\n      dup1\n      0x1f\n      add\n      0x20\n      dup1\n      swap2\n      div\n      mul\n      0x20\n      add\n      mload(0x40)\n      swap1\n      dup2\n      add\n      0x40\n      mstore\n      dup1\n      swap3\n      swap2\n      swap1\n      dup2\n      dup2\n      mstore\n      0x20\n      add\n      dup3\n      dup1\n      sload\n      tag_445\n      swap1\n      tag_384\n      jump\t// in\n    tag_445:\n      dup1\n      iszero\n      tag_446\n      jumpi\n      dup1\n      0x1f\n      lt\n      tag_447\n      jumpi\n      0x0100\n      dup1\n      dup4\n      sload\n      div\n      mul\n      dup4\n      mstore\n      swap2\n      0x20\n      add\n      swap2\n      jump(tag_446)\n    tag_447:\n      dup3\n      add\n      swap2\n      swap1\n      0x00\n      mstore\n      keccak256(0x00, 0x20)\n      swap1\n    tag_448:\n      dup2\n      sload\n      dup2\n      mstore\n      swap1\n      0x01\n      add\n      swap1\n      0x20\n      add\n      dup1\n      dup4\n      gt\n      tag_448\n      jumpi\n      dup3\n      swap1\n      sub\n      0x1f\n      and\n      dup3\n      add\n      swap2\n    tag_446:\n      pop\n      pop\n      pop\n      pop\n      pop\n      dup2\n      mstore\n      0x20\n      add\n      0x09\n      dup3\n      add\n      sload\n      dup2\n      mstore\n      0x20\n      add\n      0x0a\n      dup3\n      add\n      sload\n      dup2\n      mstore\n      0x20\n      add\n      0x0b\n      dup3\n      add\n      0x00\n      swap1\n      sload\n      swap1\n      0x0100\n      exp\n      swap1\n      div\n      0xff\n      and\n      iszero\n      iszero\n      iszero\n      iszero\n      dup2\n      mstore\n      pop\n      pop\n      swap1\n      pop\n        /* \"contracts/DiasporaRemitEscrow.sol\":17089:17104  bool _canRefund */\n      0x00\n        /* \"contracts/DiasporaRemitEscrow.sol\":17120:17141  TransferStatus.Funded */\n      0x01\n        /* \"contracts/DiasporaRemitEscrow.sol\":17108:17141  t.status == TransferStatus.Funded */\n      0x05\n      dup2\n      gt\n      iszero\n      tag_449\n      jumpi\n      tag_450\n      tag_227\n      jump\t// in\n    tag_450:\n    tag_449:\n        /* \"contracts/DiasporaRemitEscrow.sol\":17108:17109  t */\n      dup3\n        /* \"contracts/DiasporaRemitEscrow.sol\":17108:17116  t.status */\n      0xc0\n      add\n      mload\n        /* \"contracts/DiasporaRemitEscrow.sol\":17108:17141  t.status == TransferStatus.Funded */\n      0x05\n      dup2\n      gt\n      iszero\n      tag_451\n      jumpi\n      tag_452\n      tag_227\n      jump\t// in\n    tag_452:\n    tag_451:\n      eq\n        /* \"contracts/DiasporaRemitEscrow.sol\":17108:17174  t.status == TransferStatus.Funded && block.timestamp >= t.deadline */\n      dup1\n      iszero\n      tag_453\n      jumpi\n      pop\n        /* \"contracts/DiasporaRemitEscrow.sol\":17164:17165  t */\n      dup2\n        /* \"contracts/DiasporaRemitEscrow.sol\":17164:17174  t.deadline */\n      0xa0\n      add\n      mload\n        /* \"contracts/DiasporaRemitEscrow.sol\":17145:17160  block.timestamp */\n      timestamp\n        /* \"contracts/DiasporaRemitEscrow.sol\":17145:17174  block.timestamp >= t.deadline */\n      lt\n      iszero\n        /* \"contracts/DiasporaRemitEscrow.sol\":17108:17174  t.status == TransferStatus.Funded && block.timestamp >= t.deadline */\n    tag_453:\n        /* \"contracts/DiasporaRemitEscrow.sol\":17089:17175  bool _canRefund = (t.status == TransferStatus.Funded && block.timestamp >= t.deadline) */\n      swap1\n      pop\n        /* \"contracts/DiasporaRemitEscrow.sol\":17186:17208  uint256 _timeRemaining */\n      0x00\n        /* \"contracts/DiasporaRemitEscrow.sol\":17224:17239  block.timestamp */\n      timestamp\n        /* \"contracts/DiasporaRemitEscrow.sol\":17211:17212  t */\n      dup4\n        /* \"contracts/DiasporaRemitEscrow.sol\":17211:17221  t.deadline */\n      0xa0\n      add\n      mload\n        /* \"contracts/DiasporaRemitEscrow.sol\":17211:17239  t.deadline > block.timestamp */\n      gt\n        /* \"contracts/DiasporaRemitEscrow.sol\":17211:17274  t.deadline > block.timestamp ? t.deadline - block.timestamp : 0 */\n      tag_454\n      jumpi\n        /* \"contracts/DiasporaRemitEscrow.sol\":17273:17274  0 */\n      0x00\n        /* \"contracts/DiasporaRemitEscrow.sol\":17211:17274  t.deadline > block.timestamp ? t.deadline - block.timestamp : 0 */\n      jump(tag_455)\n    tag_454:\n        /* \"contracts/DiasporaRemitEscrow.sol\":17255:17270  block.timestamp */\n      timestamp\n        /* \"contracts/DiasporaRemitEscrow.sol\":17242:17243  t */\n      dup4\n        /* \"contracts/DiasporaRemitEscrow.sol\":17242:17252  t.deadline */\n      0xa0\n      add\n      mload\n        /* \"contracts/DiasporaRemitEscrow.sol\":17242:17270  t.deadline - block.timestamp */\n      tag_456\n      swap2\n      swap1\n      tag_239\n      jump\t// in\n    tag_456:\n        /* \"contracts/DiasporaRemitEscrow.sol\":17211:17274  t.deadline > block.timestamp ? t.deadline - block.timestamp : 0 */\n    tag_455:\n        /* \"contracts/DiasporaRemitEscrow.sol\":17186:17274  uint256 _timeRemaining = t.deadline > block.timestamp ? t.deadline - block.timestamp : 0 */\n      swap1\n      pop\n        /* \"contracts/DiasporaRemitEscrow.sol\":17293:17294  t */\n      dup3\n        /* \"contracts/DiasporaRemitEscrow.sol\":17293:17301  t.status */\n      0xc0\n      add\n      mload\n        /* \"contracts/DiasporaRemitEscrow.sol\":17314:17315  0 */\n      0x00\n        /* \"contracts/DiasporaRemitEscrow.sol\":17303:17304  t */\n      dup5\n        /* \"contracts/DiasporaRemitEscrow.sol\":17303:17311  t.amount */\n      0x80\n      add\n      mload\n        /* \"contracts/DiasporaRemitEscrow.sol\":17303:17315  t.amount > 0 */\n      gt\n        /* \"contracts/DiasporaRemitEscrow.sol\":17329:17353  TransferStatus.Validated */\n      0x02\n        /* \"contracts/DiasporaRemitEscrow.sol\":17317:17353  t.status == TransferStatus.Validated */\n      0x05\n      dup2\n      gt\n      iszero\n      tag_457\n      jumpi\n      tag_458\n      tag_227\n      jump\t// in\n    tag_458:\n    tag_457:\n        /* \"contracts/DiasporaRemitEscrow.sol\":17317:17318  t */\n      dup6\n        /* \"contracts/DiasporaRemitEscrow.sol\":17317:17325  t.status */\n      0xc0\n      add\n      mload\n        /* \"contracts/DiasporaRemitEscrow.sol\":17317:17353  t.status == TransferStatus.Validated */\n      0x05\n      dup2\n      gt\n      iszero\n      tag_459\n      jumpi\n      tag_460\n      tag_227\n      jump\t// in\n    tag_460:\n    tag_459:\n      eq\n        /* \"contracts/DiasporaRemitEscrow.sol\":17317:17393  t.status == TransferStatus.Validated || t.status == TransferStatus.Completed */\n      dup1\n      tag_461\n      jumpi\n      pop\n        /* \"contracts/DiasporaRemitEscrow.sol\":17369:17393  TransferStatus.Completed */\n      0x03\n        /* \"contracts/DiasporaRemitEscrow.sol\":17357:17393  t.status == TransferStatus.Completed */\n      0x05\n      dup2\n      gt\n      iszero\n      tag_462\n      jumpi\n      tag_463\n      tag_227\n      jump\t// in\n    tag_463:\n    tag_462:\n        /* \"contracts/DiasporaRemitEscrow.sol\":17357:17358  t */\n      dup6\n        /* \"contracts/DiasporaRemitEscrow.sol\":17357:17365  t.status */\n      0xc0\n      add\n      mload\n        /* \"contracts/DiasporaRemitEscrow.sol\":17357:17393  t.status == TransferStatus.Completed */\n      0x05\n      dup2\n      gt\n      iszero\n      tag_464\n      jumpi\n      tag_465\n      tag_227\n      jump\t// in\n    tag_465:\n    tag_464:\n      eq\n        /* \"contracts/DiasporaRemitEscrow.sol\":17317:17393  t.status == TransferStatus.Validated || t.status == TransferStatus.Completed */\n    tag_461:\n        /* \"contracts/DiasporaRemitEscrow.sol\":17407:17431  TransferStatus.Completed */\n      0x03\n        /* \"contracts/DiasporaRemitEscrow.sol\":17395:17431  t.status == TransferStatus.Completed */\n      0x05\n      dup2\n      gt\n      iszero\n      tag_466\n      jumpi\n      tag_467\n      tag_227\n      jump\t// in\n    tag_467:\n    tag_466:\n        /* \"contracts/DiasporaRemitEscrow.sol\":17395:17396  t */\n      dup7\n        /* \"contracts/DiasporaRemitEscrow.sol\":17395:17403  t.status */\n      0xc0\n      add\n      mload\n        /* \"contracts/DiasporaRemitEscrow.sol\":17395:17431  t.status == TransferStatus.Completed */\n      0x05\n      dup2\n      gt\n      iszero\n      tag_468\n      jumpi\n      tag_469\n      tag_227\n      jump\t// in\n    tag_469:\n    tag_468:\n      eq\n        /* \"contracts/DiasporaRemitEscrow.sol\":17433:17434  t */\n      dup7\n        /* \"contracts/DiasporaRemitEscrow.sol\":17433:17445  t.isRefunded */\n      0x0160\n      add\n      mload\n        /* \"contracts/DiasporaRemitEscrow.sol\":17447:17457  _canRefund */\n      dup7\n        /* \"contracts/DiasporaRemitEscrow.sol\":17459:17473  _timeRemaining */\n      dup7\n        /* \"contracts/DiasporaRemitEscrow.sol\":17285:17474  return (t.status, t.amount > 0, t.status == TransferStatus.Validated || t.status == TransferStatus.Completed, t.status == TransferStatus.Completed, t.isRefunded, _canRefund, _timeRemaining) */\n      swap11\n      pop\n      swap11\n      pop\n      swap11\n      pop\n      swap11\n      pop\n      swap11\n      pop\n      swap11\n      pop\n      swap11\n      pop\n      pop\n      pop\n      pop\n        /* \"contracts/DiasporaRemitEscrow.sol\":16653:17482  function getTransferStatus(uint256 _transferId)... */\n      pop\n      swap2\n      swap4\n      swap6\n      swap8\n      swap1\n      swap3\n      swap5\n      swap7\n      pop\n      jump\t// out\n        /* \"contracts/DiasporaRemitEscrow.sol\":15008:15733  function getTransfer(uint256 _transferId)... */\n    tag_184:\n        /* \"contracts/DiasporaRemitEscrow.sol\":15151:15165  address sender */\n      0x00\n        /* \"contracts/DiasporaRemitEscrow.sol\":15180:15197  address recipient */\n      0x00\n        /* \"contracts/DiasporaRemitEscrow.sol\":15212:15229  address validator */\n      0x00\n        /* \"contracts/DiasporaRemitEscrow.sol\":15244:15258  uint256 amount */\n      0x00\n        /* \"contracts/DiasporaRemitEscrow.sol\":15273:15289  uint256 deadline */\n      0x00\n        /* \"contracts/DiasporaRemitEscrow.sol\":15304:15325  TransferStatus status */\n      0x00\n        /* \"contracts/DiasporaRemitEscrow.sol\":15340:15361  string memory purpose */\n      0x60\n        /* \"contracts/DiasporaRemitEscrow.sol\":15376:15404  string memory validationNote */\n      dup1\n        /* \"contracts/DiasporaRemitEscrow.sol\":15419:15436  uint256 createdAt */\n      0x00\n        /* \"contracts/DiasporaRemitEscrow.sol\":15451:15469  uint256 releasedAt */\n      0x00\n        /* \"contracts/DiasporaRemitEscrow.sol\":15484:15499  bool isRefunded */\n      0x00\n        /* \"contracts/DiasporaRemitEscrow.sol\":15106:15117  _transferId */\n      dup12\n        /* \"contracts/DiasporaRemitEscrow.sol\":3941:3955  totalTransfers */\n      sload(0x02)\n        /* \"contracts/DiasporaRemitEscrow.sol\":3926:3937  _transferId */\n      dup2\n        /* \"contracts/DiasporaRemitEscrow.sol\":3926:3955  _transferId >= totalTransfers */\n      lt\n        /* \"contracts/DiasporaRemitEscrow.sol\":3922:3993  if (_transferId >= totalTransfers) revert TransferNotFound(_transferId) */\n      tag_471\n      jumpi\n        /* \"contracts/DiasporaRemitEscrow.sol\":3981:3992  _transferId */\n      dup1\n        /* \"contracts/DiasporaRemitEscrow.sol\":3964:3993  TransferNotFound(_transferId) */\n      mload(0x40)\n      0xee9ffcb700000000000000000000000000000000000000000000000000000000\n      dup2\n      mstore\n      0x04\n      add\n      tag_472\n      swap2\n      swap1\n      tag_74\n      jump\t// in\n    tag_472:\n      mload(0x40)\n      dup1\n      swap2\n      sub\n      swap1\n      revert\n        /* \"contracts/DiasporaRemitEscrow.sol\":3922:3993  if (_transferId >= totalTransfers) revert TransferNotFound(_transferId) */\n    tag_471:\n        /* \"contracts/DiasporaRemitEscrow.sol\":15527:15544  Transfer memory t */\n      0x00\n        /* \"contracts/DiasporaRemitEscrow.sol\":15547:15556  transfers */\n      0x04\n        /* \"contracts/DiasporaRemitEscrow.sol\":15547:15569  transfers[_transferId] */\n      0x00\n        /* \"contracts/DiasporaRemitEscrow.sol\":15557:15568  _transferId */\n      dup16\n        /* \"contracts/DiasporaRemitEscrow.sol\":15547:15569  transfers[_transferId] */\n      dup2\n      mstore\n      0x20\n      add\n      swap1\n      dup2\n      mstore\n      0x20\n      add\n      0x00\n      keccak256\n        /* \"contracts/DiasporaRemitEscrow.sol\":15527:15569  Transfer memory t = transfers[_transferId] */\n      mload(0x40)\n      dup1\n      0x0180\n      add\n      0x40\n      mstore\n      swap1\n      dup2\n      0x00\n      dup3\n      add\n      sload\n      dup2\n      mstore\n      0x20\n      add\n      0x01\n      dup3\n      add\n      0x00\n      swap1\n      sload\n      swap1\n      0x0100\n      exp\n      swap1\n      div\n      0xffffffffffffffffffffffffffffffffffffffff\n      and\n      0xffffffffffffffffffffffffffffffffffffffff\n      and\n      0xffffffffffffffffffffffffffffffffffffffff\n      and\n      dup2\n      mstore\n      0x20\n      add\n      0x02\n      dup3\n      add\n      0x00\n      swap1\n      sload\n      swap1\n      0x0100\n      exp\n      swap1\n      div\n      0xffffffffffffffffffffffffffffffffffffffff\n      and\n      0xffffffffffffffffffffffffffffffffffffffff\n      and\n      0xffffffffffffffffffffffffffffffffffffffff\n      and\n      dup2\n      mstore\n      0x20\n      add\n      0x03\n      dup3\n      add\n      0x00\n      swap1\n      sload\n      swap1\n      0x0100\n      exp\n      swap1\n      div\n      0xffffffffffffffffffffffffffffffffffffffff\n      and\n      0xffffffffffffffffffffffffffffffffffffffff\n      and\n      0xffffffffffffffffffffffffffffffffffffffff\n      and\n      dup2\n      mstore\n      0x20\n      add\n      0x04\n      dup3\n      add\n      sload\n      dup2\n      mstore\n      0x20\n      add\n      0x05\n      dup3\n      add\n      sload\n      dup2\n      mstore\n      0x20\n      add\n      0x06\n      dup3\n      add\n      0x00\n      swap1\n      sload\n      swap1\n      0x0100\n      exp\n      swap1\n      div\n      0xff\n      and\n      0x05\n      dup2\n      gt\n      iszero\n      tag_474\n      jumpi\n      tag_475\n      tag_227\n      jump\t// in\n    tag_475:\n    tag_474:\n      0x05\n      dup2\n      gt\n      iszero\n      tag_476\n      jumpi\n      tag_477\n      tag_227\n      jump\t// in\n    tag_477:\n    tag_476:\n      dup2\n      mstore\n      0x20\n      add\n      0x07\n      dup3\n      add\n      dup1\n      sload\n      tag_478\n      swap1\n      tag_384\n      jump\t// in\n    tag_478:\n      dup1\n      0x1f\n      add\n      0x20\n      dup1\n      swap2\n      div\n      mul\n      0x20\n      add\n      mload(0x40)\n      swap1\n      dup2\n      add\n      0x40\n      mstore\n      dup1\n      swap3\n      swap2\n      swap1\n      dup2\n      dup2\n      mstore\n      0x20\n      add\n      dup3\n      dup1\n      sload\n      tag_479\n      swap1\n      tag_384\n      jump\t// in\n    tag_479:\n      dup1\n      iszero\n      tag_480\n      jumpi\n      dup1\n      0x1f\n      lt\n      tag_481\n      jumpi\n      0x0100\n      dup1\n      dup4\n      sload\n      div\n      mul\n      dup4\n      mstore\n      swap2\n      0x20\n      add\n      swap2\n      jump(tag_480)\n    tag_481:\n      dup3\n      add\n      swap2\n      swap1\n      0x00\n      mstore\n      keccak256(0x00, 0x20)\n      swap1\n    tag_482:\n      dup2\n      sload\n      dup2\n      mstore\n      swap1\n      0x01\n      add\n      swap1\n      0x20\n      add\n      dup1\n      dup4\n      gt\n      tag_482\n      jumpi\n      dup3\n      swap1\n      sub\n      0x1f\n      and\n      dup3\n      add\n      swap2\n    tag_480:\n      pop\n      pop\n      pop\n      pop\n      pop\n      dup2\n      mstore\n      0x20\n      add\n      0x08\n      dup3\n      add\n      dup1\n      sload\n      tag_483\n      swap1\n      tag_384\n      jump\t// in\n    tag_483:\n      dup1\n      0x1f\n      add\n      0x20\n      dup1\n      swap2\n      div\n      mul\n      0x20\n      add\n      mload(0x40)\n      swap1\n      dup2\n      add\n      0x40\n      mstore\n      dup1\n      swap3\n      swap2\n      swap1\n      dup2\n      dup2\n      mstore\n      0x20\n      add\n      dup3\n      dup1\n      sload\n      tag_484\n      swap1\n      tag_384\n      jump\t// in\n    tag_484:\n      dup1\n      iszero\n      tag_485\n      jumpi\n      dup1\n      0x1f\n      lt\n      tag_486\n      jumpi\n      0x0100\n      dup1\n      dup4\n      sload\n      div\n      mul\n      dup4\n      mstore\n      swap2\n      0x20\n      add\n      swap2\n      jump(tag_485)\n    tag_486:\n      dup3\n      add\n      swap2\n      swap1\n      0x00\n      mstore\n      keccak256(0x00, 0x20)\n      swap1\n    tag_487:\n      dup2\n      sload\n      dup2\n      mstore\n      swap1\n      0x01\n      add\n      swap1\n      0x20\n      add\n      dup1\n      dup4\n      gt\n      tag_487\n      jumpi\n      dup3\n      swap1\n      sub\n      0x1f\n      and\n      dup3\n      add\n      swap2\n    tag_485:\n      pop\n      pop\n      pop\n      pop\n      pop\n      dup2\n      mstore\n      0x20\n      add\n      0x09\n      dup3\n      add\n      sload\n      dup2\n      mstore\n      0x20\n      add\n      0x0a\n      dup3\n      add\n      sload\n      dup2\n      mstore\n      0x20\n      add\n      0x0b\n      dup3\n      add\n      0x00\n      swap1\n      sload\n      swap1\n      0x0100\n      exp\n      swap1\n      div\n      0xff\n      and\n      iszero\n      iszero\n      iszero\n      iszero\n      dup2\n      mstore\n      pop\n      pop\n      swap1\n      pop\n        /* \"contracts/DiasporaRemitEscrow.sol\":15588:15589  t */\n      dup1\n        /* \"contracts/DiasporaRemitEscrow.sol\":15588:15596  t.sender */\n      0x20\n      add\n      mload\n        /* \"contracts/DiasporaRemitEscrow.sol\":15598:15599  t */\n      dup2\n        /* \"contracts/DiasporaRemitEscrow.sol\":15598:15609  t.recipient */\n      0x40\n      add\n      mload\n        /* \"contracts/DiasporaRemitEscrow.sol\":15611:15612  t */\n      dup3\n        /* \"contracts/DiasporaRemitEscrow.sol\":15611:15622  t.validator */\n      0x60\n      add\n      mload\n        /* \"contracts/DiasporaRemitEscrow.sol\":15624:15625  t */\n      dup4\n        /* \"contracts/DiasporaRemitEscrow.sol\":15624:15632  t.amount */\n      0x80\n      add\n      mload\n        /* \"contracts/DiasporaRemitEscrow.sol\":15634:15635  t */\n      dup5\n        /* \"contracts/DiasporaRemitEscrow.sol\":15634:15644  t.deadline */\n      0xa0\n      add\n      mload\n        /* \"contracts/DiasporaRemitEscrow.sol\":15646:15647  t */\n      dup6\n        /* \"contracts/DiasporaRemitEscrow.sol\":15646:15654  t.status */\n      0xc0\n      add\n      mload\n        /* \"contracts/DiasporaRemitEscrow.sol\":15656:15657  t */\n      dup7\n        /* \"contracts/DiasporaRemitEscrow.sol\":15656:15665  t.purpose */\n      0xe0\n      add\n      mload\n        /* \"contracts/DiasporaRemitEscrow.sol\":15667:15668  t */\n      dup8\n        /* \"contracts/DiasporaRemitEscrow.sol\":15667:15683  t.validationNote */\n      0x0100\n      add\n      mload\n        /* \"contracts/DiasporaRemitEscrow.sol\":15685:15686  t */\n      dup9\n        /* \"contracts/DiasporaRemitEscrow.sol\":15685:15696  t.createdAt */\n      0x0120\n      add\n      mload\n        /* \"contracts/DiasporaRemitEscrow.sol\":15698:15699  t */\n      dup10\n        /* \"contracts/DiasporaRemitEscrow.sol\":15698:15710  t.releasedAt */\n      0x0140\n      add\n      mload\n        /* \"contracts/DiasporaRemitEscrow.sol\":15712:15713  t */\n      dup11\n        /* \"contracts/DiasporaRemitEscrow.sol\":15712:15724  t.isRefunded */\n      0x0160\n      add\n      mload\n        /* \"contracts/DiasporaRemitEscrow.sol\":15580:15725  return (t.sender, t.recipient, t.validator, t.amount, t.deadline, t.status, t.purpose, t.validationNote, t.createdAt, t.releasedAt, t.isRefunded) */\n      swap13\n      pop\n      swap13\n      pop\n      swap13\n      pop\n      swap13\n      pop\n      swap13\n      pop\n      swap13\n      pop\n      swap13\n      pop\n      swap13\n      pop\n      swap13\n      pop\n      swap13\n      pop\n      swap13\n      pop\n      pop\n        /* \"contracts/DiasporaRemitEscrow.sol\":15008:15733  function getTransfer(uint256 _transferId)... */\n      pop\n      swap2\n      swap4\n      swap6\n      swap8\n      swap10\n      swap12\n      swap1\n      swap3\n      swap5\n      swap7\n      swap9\n      swap11\n      pop\n      jump\t// out\n        /* \"contracts/DiasporaRemitEscrow.sol\":1441:1481  uint256 public platformFeePercentage = 1 */\n    tag_189:\n      sload(0x01)\n      dup2\n      jump\t// out\n        /* \"contracts/DiasporaRemitEscrow.sol\":11457:12848  function resolveDispute(uint256 _transferId, uint8 _percentageToRecipient)... */\n    tag_195:\n        /* \"contracts/DiasporaRemitEscrow.sol\":3796:3801  owner */\n      0x00\n      0x00\n      swap1\n      sload\n      swap1\n      0x0100\n      exp\n      swap1\n      div\n      0xffffffffffffffffffffffffffffffffffffffff\n      and\n        /* \"contracts/DiasporaRemitEscrow.sol\":3782:3801  msg.sender != owner */\n      0xffffffffffffffffffffffffffffffffffffffff\n      and\n        /* \"contracts/DiasporaRemitEscrow.sol\":3782:3792  msg.sender */\n      caller\n        /* \"contracts/DiasporaRemitEscrow.sol\":3782:3801  msg.sender != owner */\n      0xffffffffffffffffffffffffffffffffffffffff\n      and\n      eq\n        /* \"contracts/DiasporaRemitEscrow.sol\":3778:3834  if (msg.sender != owner) revert Unauthorized(msg.sender) */\n      tag_489\n      jumpi\n        /* \"contracts/DiasporaRemitEscrow.sol\":3823:3833  msg.sender */\n      caller\n        /* \"contracts/DiasporaRemitEscrow.sol\":3810:3834  Unauthorized(msg.sender) */\n      mload(0x40)\n      0x8e4a23d600000000000000000000000000000000000000000000000000000000\n      dup2\n      mstore\n      0x04\n      add\n      tag_490\n      swap2\n      swap1\n      tag_132\n      jump\t// in\n    tag_490:\n      mload(0x40)\n      dup1\n      swap2\n      sub\n      swap1\n      revert\n        /* \"contracts/DiasporaRemitEscrow.sol\":3778:3834  if (msg.sender != owner) revert Unauthorized(msg.sender) */\n    tag_489:\n        /* \"contracts/DiasporaRemitEscrow.sol\":11593:11604  _transferId */\n      dup2\n        /* \"contracts/DiasporaRemitEscrow.sol\":3941:3955  totalTransfers */\n      sload(0x02)\n        /* \"contracts/DiasporaRemitEscrow.sol\":3926:3937  _transferId */\n      dup2\n        /* \"contracts/DiasporaRemitEscrow.sol\":3926:3955  _transferId >= totalTransfers */\n      lt\n        /* \"contracts/DiasporaRemitEscrow.sol\":3922:3993  if (_transferId >= totalTransfers) revert TransferNotFound(_transferId) */\n      tag_492\n      jumpi\n        /* \"contracts/DiasporaRemitEscrow.sol\":3981:3992  _transferId */\n      dup1\n        /* \"contracts/DiasporaRemitEscrow.sol\":3964:3993  TransferNotFound(_transferId) */\n      mload(0x40)\n      0xee9ffcb700000000000000000000000000000000000000000000000000000000\n      dup2\n      mstore\n      0x04\n      add\n      tag_493\n      swap2\n      swap1\n      tag_74\n      jump\t// in\n    tag_493:\n      mload(0x40)\n      dup1\n      swap2\n      sub\n      swap1\n      revert\n        /* \"contracts/DiasporaRemitEscrow.sol\":3922:3993  if (_transferId >= totalTransfers) revert TransferNotFound(_transferId) */\n    tag_492:\n        /* \"contracts/DiasporaRemitEscrow.sol\":3642:3643  1 */\n      0x01\n        /* \"contracts/DiasporaRemitEscrow.sol\":3632:3638  locked */\n      sload(0x08)\n        /* \"contracts/DiasporaRemitEscrow.sol\":3632:3643  locked != 1 */\n      eq\n        /* \"contracts/DiasporaRemitEscrow.sol\":3628:3672  if (locked != 1) revert ReentrancyDetected() */\n      tag_495\n      jumpi\n        /* \"contracts/DiasporaRemitEscrow.sol\":3652:3672  ReentrancyDetected() */\n      mload(0x40)\n      0xc5f2be5100000000000000000000000000000000000000000000000000000000\n      dup2\n      mstore\n      0x04\n      add\n      mload(0x40)\n      dup1\n      swap2\n      sub\n      swap1\n      revert\n        /* \"contracts/DiasporaRemitEscrow.sol\":3628:3672  if (locked != 1) revert ReentrancyDetected() */\n    tag_495:\n        /* \"contracts/DiasporaRemitEscrow.sol\":3692:3693  2 */\n      0x02\n        /* \"contracts/DiasporaRemitEscrow.sol\":3683:3689  locked */\n      0x08\n        /* \"contracts/DiasporaRemitEscrow.sol\":3683:3693  locked = 2 */\n      dup2\n      swap1\n      sstore\n      pop\n        /* \"contracts/DiasporaRemitEscrow.sol\":11644:11669  Transfer storage transfer */\n      0x00\n        /* \"contracts/DiasporaRemitEscrow.sol\":11672:11681  transfers */\n      0x04\n        /* \"contracts/DiasporaRemitEscrow.sol\":11672:11694  transfers[_transferId] */\n      0x00\n        /* \"contracts/DiasporaRemitEscrow.sol\":11682:11693  _transferId */\n      dup6\n        /* \"contracts/DiasporaRemitEscrow.sol\":11672:11694  transfers[_transferId] */\n      dup2\n      mstore\n      0x20\n      add\n      swap1\n      dup2\n      mstore\n      0x20\n      add\n      0x00\n      keccak256\n        /* \"contracts/DiasporaRemitEscrow.sol\":11644:11694  Transfer storage transfer = transfers[_transferId] */\n      swap1\n      pop\n        /* \"contracts/DiasporaRemitEscrow.sol\":11738:11761  TransferStatus.Disputed */\n      0x05\n        /* \"contracts/DiasporaRemitEscrow.sol\":11719:11761  transfer.status != TransferStatus.Disputed */\n      dup1\n      dup2\n      gt\n      iszero\n      tag_497\n      jumpi\n      tag_498\n      tag_227\n      jump\t// in\n    tag_498:\n    tag_497:\n        /* \"contracts/DiasporaRemitEscrow.sol\":11719:11727  transfer */\n      dup2\n        /* \"contracts/DiasporaRemitEscrow.sol\":11719:11734  transfer.status */\n      0x06\n      add\n      0x00\n      swap1\n      sload\n      swap1\n      0x0100\n      exp\n      swap1\n      div\n      0xff\n      and\n        /* \"contracts/DiasporaRemitEscrow.sol\":11719:11761  transfer.status != TransferStatus.Disputed */\n      0x05\n      dup2\n      gt\n      iszero\n      tag_499\n      jumpi\n      tag_500\n      tag_227\n      jump\t// in\n    tag_500:\n    tag_499:\n      eq\n        /* \"contracts/DiasporaRemitEscrow.sol\":11715:11852  if (transfer.status != TransferStatus.Disputed) {... */\n      tag_501\n      jumpi\n        /* \"contracts/DiasporaRemitEscrow.sol\":11799:11807  transfer */\n      dup1\n        /* \"contracts/DiasporaRemitEscrow.sol\":11799:11814  transfer.status */\n      0x06\n      add\n      0x00\n      swap1\n      sload\n      swap1\n      0x0100\n      exp\n      swap1\n      div\n      0xff\n      and\n        /* \"contracts/DiasporaRemitEscrow.sol\":11816:11839  TransferStatus.Disputed */\n      0x05\n        /* \"contracts/DiasporaRemitEscrow.sol\":11785:11840  InvalidStatus(transfer.status, TransferStatus.Disputed) */\n      mload(0x40)\n      0xf924664d00000000000000000000000000000000000000000000000000000000\n      dup2\n      mstore\n      0x04\n      add\n      tag_502\n      swap3\n      swap2\n      swap1\n      tag_232\n      jump\t// in\n    tag_502:\n      mload(0x40)\n      dup1\n      swap2\n      sub\n      swap1\n      revert\n        /* \"contracts/DiasporaRemitEscrow.sol\":11715:11852  if (transfer.status != TransferStatus.Disputed) {... */\n    tag_501:\n        /* \"contracts/DiasporaRemitEscrow.sol\":11891:11894  100 */\n      0x64\n        /* \"contracts/DiasporaRemitEscrow.sol\":11866:11888  _percentageToRecipient */\n      dup4\n        /* \"contracts/DiasporaRemitEscrow.sol\":11866:11894  _percentageToRecipient > 100 */\n      0xff\n      and\n      gt\n        /* \"contracts/DiasporaRemitEscrow.sol\":11862:11922  if (_percentageToRecipient > 100) revert InvalidPercentage() */\n      iszero\n      tag_503\n      jumpi\n        /* \"contracts/DiasporaRemitEscrow.sol\":11903:11922  InvalidPercentage() */\n      mload(0x40)\n      0x1f3b85d300000000000000000000000000000000000000000000000000000000\n      dup2\n      mstore\n      0x04\n      add\n      mload(0x40)\n      dup1\n      swap2\n      sub\n      swap1\n      revert\n        /* \"contracts/DiasporaRemitEscrow.sol\":11862:11922  if (_percentageToRecipient > 100) revert InvalidPercentage() */\n    tag_503:\n        /* \"contracts/DiasporaRemitEscrow.sol\":11943:11962  uint256 totalAmount */\n      0x00\n        /* \"contracts/DiasporaRemitEscrow.sol\":11965:11973  transfer */\n      dup2\n        /* \"contracts/DiasporaRemitEscrow.sol\":11965:11980  transfer.amount */\n      0x04\n      add\n      sload\n        /* \"contracts/DiasporaRemitEscrow.sol\":11943:11980  uint256 totalAmount = transfer.amount */\n      swap1\n      pop\n        /* \"contracts/DiasporaRemitEscrow.sol\":11991:12014  uint256 recipientAmount */\n      0x00\n        /* \"contracts/DiasporaRemitEscrow.sol\":12058:12061  100 */\n      0x64\n        /* \"contracts/DiasporaRemitEscrow.sol\":12032:12054  _percentageToRecipient */\n      dup6\n        /* \"contracts/DiasporaRemitEscrow.sol\":12018:12054  totalAmount * _percentageToRecipient */\n      0xff\n      and\n        /* \"contracts/DiasporaRemitEscrow.sol\":12018:12029  totalAmount */\n      dup4\n        /* \"contracts/DiasporaRemitEscrow.sol\":12018:12054  totalAmount * _percentageToRecipient */\n      tag_504\n      swap2\n      swap1\n      tag_235\n      jump\t// in\n    tag_504:\n        /* \"contracts/DiasporaRemitEscrow.sol\":12017:12061  (totalAmount * _percentageToRecipient) / 100 */\n      tag_505\n      swap2\n      swap1\n      tag_237\n      jump\t// in\n    tag_505:\n        /* \"contracts/DiasporaRemitEscrow.sol\":11991:12061  uint256 recipientAmount = (totalAmount * _percentageToRecipient) / 100 */\n      swap1\n      pop\n        /* \"contracts/DiasporaRemitEscrow.sol\":12072:12092  uint256 senderAmount */\n      0x00\n        /* \"contracts/DiasporaRemitEscrow.sol\":12109:12124  recipientAmount */\n      dup2\n        /* \"contracts/DiasporaRemitEscrow.sol\":12095:12106  totalAmount */\n      dup4\n        /* \"contracts/DiasporaRemitEscrow.sol\":12095:12124  totalAmount - recipientAmount */\n      tag_506\n      swap2\n      swap1\n      tag_239\n      jump\t// in\n    tag_506:\n        /* \"contracts/DiasporaRemitEscrow.sol\":12072:12124  uint256 senderAmount = totalAmount - recipientAmount */\n      swap1\n      pop\n        /* \"contracts/DiasporaRemitEscrow.sol\":12163:12187  TransferStatus.Completed */\n      0x03\n        /* \"contracts/DiasporaRemitEscrow.sol\":12145:12153  transfer */\n      dup5\n        /* \"contracts/DiasporaRemitEscrow.sol\":12145:12160  transfer.status */\n      0x06\n      add\n      0x00\n        /* \"contracts/DiasporaRemitEscrow.sol\":12145:12187  transfer.status = TransferStatus.Completed */\n      0x0100\n      exp\n      dup2\n      sload\n      dup2\n      0xff\n      mul\n      not\n      and\n      swap1\n      dup4\n      0x05\n      dup2\n      gt\n      iszero\n      tag_507\n      jumpi\n      tag_508\n      tag_227\n      jump\t// in\n    tag_508:\n    tag_507:\n      mul\n      or\n      swap1\n      sstore\n      pop\n        /* \"contracts/DiasporaRemitEscrow.sol\":12220:12235  block.timestamp */\n      timestamp\n        /* \"contracts/DiasporaRemitEscrow.sol\":12198:12206  transfer */\n      dup5\n        /* \"contracts/DiasporaRemitEscrow.sol\":12198:12217  transfer.releasedAt */\n      0x0a\n      add\n        /* \"contracts/DiasporaRemitEscrow.sol\":12198:12235  transfer.releasedAt = block.timestamp */\n      dup2\n      swap1\n      sstore\n      pop\n        /* \"contracts/DiasporaRemitEscrow.sol\":12276:12287  totalAmount */\n      dup3\n        /* \"contracts/DiasporaRemitEscrow.sol\":12256:12272  totalValueLocked */\n      0x03\n      0x00\n        /* \"contracts/DiasporaRemitEscrow.sol\":12256:12287  totalValueLocked -= totalAmount */\n      dup3\n      dup3\n      sload\n      tag_509\n      swap2\n      swap1\n      tag_239\n      jump\t// in\n    tag_509:\n      swap3\n      pop\n      pop\n      dup2\n      swap1\n      sstore\n      pop\n        /* \"contracts/DiasporaRemitEscrow.sol\":12330:12331  0 */\n      0x00\n        /* \"contracts/DiasporaRemitEscrow.sol\":12312:12327  recipientAmount */\n      dup3\n        /* \"contracts/DiasporaRemitEscrow.sol\":12312:12331  recipientAmount > 0 */\n      gt\n        /* \"contracts/DiasporaRemitEscrow.sol\":12308:12509  if (recipientAmount > 0) {... */\n      iszero\n      tag_510\n      jumpi\n        /* \"contracts/DiasporaRemitEscrow.sol\":12349:12370  bool successRecipient */\n      0x00\n        /* \"contracts/DiasporaRemitEscrow.sol\":12384:12392  transfer */\n      dup5\n        /* \"contracts/DiasporaRemitEscrow.sol\":12384:12402  transfer.recipient */\n      0x02\n      add\n      0x00\n      swap1\n      sload\n      swap1\n      0x0100\n      exp\n      swap1\n      div\n      0xffffffffffffffffffffffffffffffffffffffff\n      and\n        /* \"contracts/DiasporaRemitEscrow.sol\":12376:12408  payable(transfer.recipient).call */\n      0xffffffffffffffffffffffffffffffffffffffff\n      and\n        /* \"contracts/DiasporaRemitEscrow.sol\":12416:12431  recipientAmount */\n      dup4\n        /* \"contracts/DiasporaRemitEscrow.sol\":12376:12436  payable(transfer.recipient).call{value: recipientAmount}(\"\") */\n      mload(0x40)\n      tag_511\n      swap1\n      tag_247\n      jump\t// in\n    tag_511:\n      0x00\n      mload(0x40)\n      dup1\n      dup4\n      sub\n      dup2\n      dup6\n      dup8\n      gas\n      call\n      swap3\n      pop\n      pop\n      pop\n      returndatasize\n      dup1\n      0x00\n      dup2\n      eq\n      tag_514\n      jumpi\n      mload(0x40)\n      swap2\n      pop\n      and(add(returndatasize, 0x3f), not(0x1f))\n      dup3\n      add\n      0x40\n      mstore\n      returndatasize\n      dup3\n      mstore\n      returndatasize\n      0x00\n      0x20\n      dup5\n      add\n      returndatacopy\n      jump(tag_513)\n    tag_514:\n      0x60\n      swap2\n      pop\n    tag_513:\n      pop\n        /* \"contracts/DiasporaRemitEscrow.sol\":12348:12436  (bool successRecipient, ) = payable(transfer.recipient).call{value: recipientAmount}(\"\") */\n      pop\n      swap1\n      pop\n        /* \"contracts/DiasporaRemitEscrow.sol\":12456:12472  successRecipient */\n      dup1\n        /* \"contracts/DiasporaRemitEscrow.sol\":12451:12497  if (!successRecipient) revert TransferFailed() */\n      tag_515\n      jumpi\n        /* \"contracts/DiasporaRemitEscrow.sol\":12481:12497  TransferFailed() */\n      mload(0x40)\n      0x90b8ec1800000000000000000000000000000000000000000000000000000000\n      dup2\n      mstore\n      0x04\n      add\n      mload(0x40)\n      dup1\n      swap2\n      sub\n      swap1\n      revert\n        /* \"contracts/DiasporaRemitEscrow.sol\":12451:12497  if (!successRecipient) revert TransferFailed() */\n    tag_515:\n        /* \"contracts/DiasporaRemitEscrow.sol\":12333:12509  {... */\n      pop\n        /* \"contracts/DiasporaRemitEscrow.sol\":12308:12509  if (recipientAmount > 0) {... */\n    tag_510:\n        /* \"contracts/DiasporaRemitEscrow.sol\":12548:12549  0 */\n      0x00\n        /* \"contracts/DiasporaRemitEscrow.sol\":12533:12545  senderAmount */\n      dup2\n        /* \"contracts/DiasporaRemitEscrow.sol\":12533:12549  senderAmount > 0 */\n      gt\n        /* \"contracts/DiasporaRemitEscrow.sol\":12529:12715  if (senderAmount > 0) {... */\n      iszero\n      tag_516\n      jumpi\n        /* \"contracts/DiasporaRemitEscrow.sol\":12567:12585  bool successSender */\n      0x00\n        /* \"contracts/DiasporaRemitEscrow.sol\":12599:12607  transfer */\n      dup5\n        /* \"contracts/DiasporaRemitEscrow.sol\":12599:12614  transfer.sender */\n      0x01\n      add\n      0x00\n      swap1\n      sload\n      swap1\n      0x0100\n      exp\n      swap1\n      div\n      0xffffffffffffffffffffffffffffffffffffffff\n      and\n        /* \"contracts/DiasporaRemitEscrow.sol\":12591:12620  payable(transfer.sender).call */\n      0xffffffffffffffffffffffffffffffffffffffff\n      and\n        /* \"contracts/DiasporaRemitEscrow.sol\":12628:12640  senderAmount */\n      dup3\n        /* \"contracts/DiasporaRemitEscrow.sol\":12591:12645  payable(transfer.sender).call{value: senderAmount}(\"\") */\n      mload(0x40)\n      tag_517\n      swap1\n      tag_247\n      jump\t// in\n    tag_517:\n      0x00\n      mload(0x40)\n      dup1\n      dup4\n      sub\n      dup2\n      dup6\n      dup8\n      gas\n      call\n      swap3\n      pop\n      pop\n      pop\n      returndatasize\n      dup1\n      0x00\n      dup2\n      eq\n      tag_520\n      jumpi\n      mload(0x40)\n      swap2\n      pop\n      and(add(returndatasize, 0x3f), not(0x1f))\n      dup3\n      add\n      0x40\n      mstore\n      returndatasize\n      dup3\n      mstore\n      returndatasize\n      0x00\n      0x20\n      dup5\n      add\n      returndatacopy\n      jump(tag_519)\n    tag_520:\n      0x60\n      swap2\n      pop\n    tag_519:\n      pop\n        /* \"contracts/DiasporaRemitEscrow.sol\":12566:12645  (bool successSender, ) = payable(transfer.sender).call{value: senderAmount}(\"\") */\n      pop\n      swap1\n      pop\n        /* \"contracts/DiasporaRemitEscrow.sol\":12665:12678  successSender */\n      dup1\n        /* \"contracts/DiasporaRemitEscrow.sol\":12660:12703  if (!successSender) revert TransferFailed() */\n      tag_521\n      jumpi\n        /* \"contracts/DiasporaRemitEscrow.sol\":12687:12703  TransferFailed() */\n      mload(0x40)\n      0x90b8ec1800000000000000000000000000000000000000000000000000000000\n      dup2\n      mstore\n      0x04\n      add\n      mload(0x40)\n      dup1\n      swap2\n      sub\n      swap1\n      revert\n        /* \"contracts/DiasporaRemitEscrow.sol\":12660:12703  if (!successSender) revert TransferFailed() */\n    tag_521:\n        /* \"contracts/DiasporaRemitEscrow.sol\":12551:12715  {... */\n      pop\n        /* \"contracts/DiasporaRemitEscrow.sol\":12529:12715  if (senderAmount > 0) {... */\n    tag_516:\n        /* \"contracts/DiasporaRemitEscrow.sol\":12756:12767  _transferId */\n      dup7\n        /* \"contracts/DiasporaRemitEscrow.sol\":12740:12840  DisputeResolved(_transferId, msg.sender, _percentageToRecipient > 50, recipientAmount, senderAmount) */\n      0x3accdf79205b59d18e690f066707caf6d0ee4d4f59ded4fa88fdec5dde4accd9\n        /* \"contracts/DiasporaRemitEscrow.sol\":12769:12779  msg.sender */\n      caller\n        /* \"contracts/DiasporaRemitEscrow.sol\":12806:12808  50 */\n      0x32\n        /* \"contracts/DiasporaRemitEscrow.sol\":12781:12803  _percentageToRecipient */\n      dup10\n        /* \"contracts/DiasporaRemitEscrow.sol\":12781:12808  _percentageToRecipient > 50 */\n      0xff\n      and\n      gt\n        /* \"contracts/DiasporaRemitEscrow.sol\":12810:12825  recipientAmount */\n      dup6\n        /* \"contracts/DiasporaRemitEscrow.sol\":12827:12839  senderAmount */\n      dup6\n        /* \"contracts/DiasporaRemitEscrow.sol\":12740:12840  DisputeResolved(_transferId, msg.sender, _percentageToRecipient > 50, recipientAmount, senderAmount) */\n      mload(0x40)\n      tag_522\n      swap5\n      swap4\n      swap3\n      swap2\n      swap1\n      tag_523\n      jump\t// in\n    tag_522:\n      mload(0x40)\n      dup1\n      swap2\n      sub\n      swap1\n      log2\n        /* \"contracts/DiasporaRemitEscrow.sol\":11633:12848  {... */\n      pop\n      pop\n      pop\n      pop\n        /* \"contracts/DiasporaRemitEscrow.sol\":3725:3726  1 */\n      0x01\n        /* \"contracts/DiasporaRemitEscrow.sol\":3716:3722  locked */\n      0x08\n        /* \"contracts/DiasporaRemitEscrow.sol\":3716:3726  locked = 1 */\n      dup2\n      swap1\n      sstore\n      pop\n        /* \"contracts/DiasporaRemitEscrow.sol\":3845:3846  _ */\n      pop\n        /* \"contracts/DiasporaRemitEscrow.sol\":11457:12848  function resolveDispute(uint256 _transferId, uint8 _percentageToRecipient)... */\n      pop\n      pop\n      jump\t// out\n        /* \"contracts/DiasporaRemitEscrow.sol\":6212:6956  function fundTransfer(uint256 _transferId) ... */\n    tag_198:\n        /* \"contracts/DiasporaRemitEscrow.sol\":6317:6328  _transferId */\n      dup1\n        /* \"contracts/DiasporaRemitEscrow.sol\":3941:3955  totalTransfers */\n      sload(0x02)\n        /* \"contracts/DiasporaRemitEscrow.sol\":3926:3937  _transferId */\n      dup2\n        /* \"contracts/DiasporaRemitEscrow.sol\":3926:3955  _transferId >= totalTransfers */\n      lt\n        /* \"contracts/DiasporaRemitEscrow.sol\":3922:3993  if (_transferId >= totalTransfers) revert TransferNotFound(_transferId) */\n      tag_525\n      jumpi\n        /* \"contracts/DiasporaRemitEscrow.sol\":3981:3992  _transferId */\n      dup1\n        /* \"contracts/DiasporaRemitEscrow.sol\":3964:3993  TransferNotFound(_transferId) */\n      mload(0x40)\n      0xee9ffcb700000000000000000000000000000000000000000000000000000000\n      dup2\n      mstore\n      0x04\n      add\n      tag_526\n      swap2\n      swap1\n      tag_74\n      jump\t// in\n    tag_526:\n      mload(0x40)\n      dup1\n      swap2\n      sub\n      swap1\n      revert\n        /* \"contracts/DiasporaRemitEscrow.sol\":3922:3993  if (_transferId >= totalTransfers) revert TransferNotFound(_transferId) */\n    tag_525:\n        /* \"contracts/DiasporaRemitEscrow.sol\":6350:6361  _transferId */\n      dup2\n        /* \"contracts/DiasporaRemitEscrow.sol\":4114:4124  msg.sender */\n      caller\n        /* \"contracts/DiasporaRemitEscrow.sol\":4081:4124  transfers[_transferId].sender != msg.sender */\n      0xffffffffffffffffffffffffffffffffffffffff\n      and\n        /* \"contracts/DiasporaRemitEscrow.sol\":4081:4090  transfers */\n      0x04\n        /* \"contracts/DiasporaRemitEscrow.sol\":4081:4103  transfers[_transferId] */\n      0x00\n        /* \"contracts/DiasporaRemitEscrow.sol\":4091:4102  _transferId */\n      dup4\n        /* \"contracts/DiasporaRemitEscrow.sol\":4081:4103  transfers[_transferId] */\n      dup2\n      mstore\n      0x20\n      add\n      swap1\n      dup2\n      mstore\n      0x20\n      add\n      0x00\n      keccak256\n        /* \"contracts/DiasporaRemitEscrow.sol\":4081:4110  transfers[_transferId].sender */\n      0x01\n      add\n      0x00\n      swap1\n      sload\n      swap1\n      0x0100\n      exp\n      swap1\n      div\n      0xffffffffffffffffffffffffffffffffffffffff\n      and\n        /* \"contracts/DiasporaRemitEscrow.sol\":4081:4124  transfers[_transferId].sender != msg.sender */\n      0xffffffffffffffffffffffffffffffffffffffff\n      and\n      eq\n        /* \"contracts/DiasporaRemitEscrow.sol\":4077:4157  if (transfers[_transferId].sender != msg.sender) revert Unauthorized(msg.sender) */\n      tag_528\n      jumpi\n        /* \"contracts/DiasporaRemitEscrow.sol\":4146:4156  msg.sender */\n      caller\n        /* \"contracts/DiasporaRemitEscrow.sol\":4133:4157  Unauthorized(msg.sender) */\n      mload(0x40)\n      0x8e4a23d600000000000000000000000000000000000000000000000000000000\n      dup2\n      mstore\n      0x04\n      add\n      tag_529\n      swap2\n      swap1\n      tag_132\n      jump\t// in\n    tag_529:\n      mload(0x40)\n      dup1\n      swap2\n      sub\n      swap1\n      revert\n        /* \"contracts/DiasporaRemitEscrow.sol\":4077:4157  if (transfers[_transferId].sender != msg.sender) revert Unauthorized(msg.sender) */\n    tag_528:\n        /* \"contracts/DiasporaRemitEscrow.sol\":3642:3643  1 */\n      0x01\n        /* \"contracts/DiasporaRemitEscrow.sol\":3632:3638  locked */\n      sload(0x08)\n        /* \"contracts/DiasporaRemitEscrow.sol\":3632:3643  locked != 1 */\n      eq\n        /* \"contracts/DiasporaRemitEscrow.sol\":3628:3672  if (locked != 1) revert ReentrancyDetected() */\n      tag_531\n      jumpi\n        /* \"contracts/DiasporaRemitEscrow.sol\":3652:3672  ReentrancyDetected() */\n      mload(0x40)\n      0xc5f2be5100000000000000000000000000000000000000000000000000000000\n      dup2\n      mstore\n      0x04\n      add\n      mload(0x40)\n      dup1\n      swap2\n      sub\n      swap1\n      revert\n        /* \"contracts/DiasporaRemitEscrow.sol\":3628:3672  if (locked != 1) revert ReentrancyDetected() */\n    tag_531:\n        /* \"contracts/DiasporaRemitEscrow.sol\":3692:3693  2 */\n      0x02\n        /* \"contracts/DiasporaRemitEscrow.sol\":3683:3689  locked */\n      0x08\n        /* \"contracts/DiasporaRemitEscrow.sol\":3683:3693  locked = 2 */\n      dup2\n      swap1\n      sstore\n      pop\n        /* \"contracts/DiasporaRemitEscrow.sol\":6401:6426  Transfer storage transfer */\n      0x00\n        /* \"contracts/DiasporaRemitEscrow.sol\":6429:6438  transfers */\n      0x04\n        /* \"contracts/DiasporaRemitEscrow.sol\":6429:6451  transfers[_transferId] */\n      0x00\n        /* \"contracts/DiasporaRemitEscrow.sol\":6439:6450  _transferId */\n      dup6\n        /* \"contracts/DiasporaRemitEscrow.sol\":6429:6451  transfers[_transferId] */\n      dup2\n      mstore\n      0x20\n      add\n      swap1\n      dup2\n      mstore\n      0x20\n      add\n      0x00\n      keccak256\n        /* \"contracts/DiasporaRemitEscrow.sol\":6401:6451  Transfer storage transfer = transfers[_transferId] */\n      swap1\n      pop\n        /* \"contracts/DiasporaRemitEscrow.sol\":6495:6517  TransferStatus.Created */\n      0x00\n        /* \"contracts/DiasporaRemitEscrow.sol\":6476:6517  transfer.status != TransferStatus.Created */\n      0x05\n      dup2\n      gt\n      iszero\n      tag_533\n      jumpi\n      tag_534\n      tag_227\n      jump\t// in\n    tag_534:\n    tag_533:\n        /* \"contracts/DiasporaRemitEscrow.sol\":6476:6484  transfer */\n      dup2\n        /* \"contracts/DiasporaRemitEscrow.sol\":6476:6491  transfer.status */\n      0x06\n      add\n      0x00\n      swap1\n      sload\n      swap1\n      0x0100\n      exp\n      swap1\n      div\n      0xff\n      and\n        /* \"contracts/DiasporaRemitEscrow.sol\":6476:6517  transfer.status != TransferStatus.Created */\n      0x05\n      dup2\n      gt\n      iszero\n      tag_535\n      jumpi\n      tag_536\n      tag_227\n      jump\t// in\n    tag_536:\n    tag_535:\n      eq\n        /* \"contracts/DiasporaRemitEscrow.sol\":6472:6607  if (transfer.status != TransferStatus.Created) {... */\n      tag_537\n      jumpi\n        /* \"contracts/DiasporaRemitEscrow.sol\":6555:6563  transfer */\n      dup1\n        /* \"contracts/DiasporaRemitEscrow.sol\":6555:6570  transfer.status */\n      0x06\n      add\n      0x00\n      swap1\n      sload\n      swap1\n      0x0100\n      exp\n      swap1\n      div\n      0xff\n      and\n        /* \"contracts/DiasporaRemitEscrow.sol\":6572:6594  TransferStatus.Created */\n      0x00\n        /* \"contracts/DiasporaRemitEscrow.sol\":6541:6595  InvalidStatus(transfer.status, TransferStatus.Created) */\n      mload(0x40)\n      0xf924664d00000000000000000000000000000000000000000000000000000000\n      dup2\n      mstore\n      0x04\n      add\n      tag_538\n      swap3\n      swap2\n      swap1\n      tag_232\n      jump\t// in\n    tag_538:\n      mload(0x40)\n      dup1\n      swap2\n      sub\n      swap1\n      revert\n        /* \"contracts/DiasporaRemitEscrow.sol\":6472:6607  if (transfer.status != TransferStatus.Created) {... */\n    tag_537:\n        /* \"contracts/DiasporaRemitEscrow.sol\":6634:6635  0 */\n      0x00\n        /* \"contracts/DiasporaRemitEscrow.sol\":6621:6630  msg.value */\n      callvalue\n        /* \"contracts/DiasporaRemitEscrow.sol\":6621:6635  msg.value == 0 */\n      sub\n        /* \"contracts/DiasporaRemitEscrow.sol\":6617:6659  if (msg.value == 0) revert InvalidAmount() */\n      tag_539\n      jumpi\n        /* \"contracts/DiasporaRemitEscrow.sol\":6644:6659  InvalidAmount() */\n      mload(0x40)\n      0x2c5211c600000000000000000000000000000000000000000000000000000000\n      dup2\n      mstore\n      0x04\n      add\n      mload(0x40)\n      dup1\n      swap2\n      sub\n      swap1\n      revert\n        /* \"contracts/DiasporaRemitEscrow.sol\":6617:6659  if (msg.value == 0) revert InvalidAmount() */\n    tag_539:\n        /* \"contracts/DiasporaRemitEscrow.sol\":6692:6693  0 */\n      0x00\n        /* \"contracts/DiasporaRemitEscrow.sol\":6674:6682  transfer */\n      dup2\n        /* \"contracts/DiasporaRemitEscrow.sol\":6674:6689  transfer.amount */\n      0x04\n      add\n      sload\n        /* \"contracts/DiasporaRemitEscrow.sol\":6674:6693  transfer.amount > 0 */\n      gt\n        /* \"contracts/DiasporaRemitEscrow.sol\":6670:6717  if (transfer.amount > 0) revert AlreadyFunded() */\n      iszero\n      tag_540\n      jumpi\n        /* \"contracts/DiasporaRemitEscrow.sol\":6702:6717  AlreadyFunded() */\n      mload(0x40)\n      0x5adf638700000000000000000000000000000000000000000000000000000000\n      dup2\n      mstore\n      0x04\n      add\n      mload(0x40)\n      dup1\n      swap2\n      sub\n      swap1\n      revert\n        /* \"contracts/DiasporaRemitEscrow.sol\":6670:6717  if (transfer.amount > 0) revert AlreadyFunded() */\n    tag_540:\n        /* \"contracts/DiasporaRemitEscrow.sol\":6756:6765  msg.value */\n      callvalue\n        /* \"contracts/DiasporaRemitEscrow.sol\":6738:6746  transfer */\n      dup2\n        /* \"contracts/DiasporaRemitEscrow.sol\":6738:6753  transfer.amount */\n      0x04\n      add\n        /* \"contracts/DiasporaRemitEscrow.sol\":6738:6765  transfer.amount = msg.value */\n      dup2\n      swap1\n      sstore\n      pop\n        /* \"contracts/DiasporaRemitEscrow.sol\":6794:6815  TransferStatus.Funded */\n      0x01\n        /* \"contracts/DiasporaRemitEscrow.sol\":6776:6784  transfer */\n      dup2\n        /* \"contracts/DiasporaRemitEscrow.sol\":6776:6791  transfer.status */\n      0x06\n      add\n      0x00\n        /* \"contracts/DiasporaRemitEscrow.sol\":6776:6815  transfer.status = TransferStatus.Funded */\n      0x0100\n      exp\n      dup2\n      sload\n      dup2\n      0xff\n      mul\n      not\n      and\n      swap1\n      dup4\n      0x05\n      dup2\n      gt\n      iszero\n      tag_541\n      jumpi\n      tag_542\n      tag_227\n      jump\t// in\n    tag_542:\n    tag_541:\n      mul\n      or\n      swap1\n      sstore\n      pop\n        /* \"contracts/DiasporaRemitEscrow.sol\":6856:6865  msg.value */\n      callvalue\n        /* \"contracts/DiasporaRemitEscrow.sol\":6836:6852  totalValueLocked */\n      0x03\n      0x00\n        /* \"contracts/DiasporaRemitEscrow.sol\":6836:6865  totalValueLocked += msg.value */\n      dup3\n      dup3\n      sload\n      tag_543\n      swap2\n      swap1\n      tag_278\n      jump\t// in\n    tag_543:\n      swap3\n      pop\n      pop\n      dup2\n      swap1\n      sstore\n      pop\n        /* \"contracts/DiasporaRemitEscrow.sol\":6906:6917  _transferId */\n      dup4\n        /* \"contracts/DiasporaRemitEscrow.sol\":6891:6948  TransferFunded(_transferId, msg.value, transfer.deadline) */\n      0xf984c0f6b056fe16b28046e36fcafa84a00d503f88f1d0afa768e4c206192b80\n        /* \"contracts/DiasporaRemitEscrow.sol\":6919:6928  msg.value */\n      callvalue\n        /* \"contracts/DiasporaRemitEscrow.sol\":6930:6938  transfer */\n      dup4\n        /* \"contracts/DiasporaRemitEscrow.sol\":6930:6947  transfer.deadline */\n      0x05\n      add\n      sload\n        /* \"contracts/DiasporaRemitEscrow.sol\":6891:6948  TransferFunded(_transferId, msg.value, transfer.deadline) */\n      mload(0x40)\n      tag_544\n      swap3\n      swap2\n      swap1\n      tag_253\n      jump\t// in\n    tag_544:\n      mload(0x40)\n      dup1\n      swap2\n      sub\n      swap1\n      log2\n        /* \"contracts/DiasporaRemitEscrow.sol\":6390:6956  {... */\n      pop\n        /* \"contracts/DiasporaRemitEscrow.sol\":3725:3726  1 */\n      0x01\n        /* \"contracts/DiasporaRemitEscrow.sol\":3716:3722  locked */\n      0x08\n        /* \"contracts/DiasporaRemitEscrow.sol\":3716:3726  locked = 1 */\n      dup2\n      swap1\n      sstore\n      pop\n        /* \"contracts/DiasporaRemitEscrow.sol\":4004:4005  _ */\n      pop\n        /* \"contracts/DiasporaRemitEscrow.sol\":6212:6956  function fundTransfer(uint256 _transferId) ... */\n      pop\n      pop\n      jump\t// out\n        /* \"contracts/DiasporaRemitEscrow.sol\":1524:1555  uint256 public totalValueLocked */\n    tag_201:\n      sload(0x03)\n      dup2\n      jump\t// out\n        /* \"contracts/DiasporaRemitEscrow.sol\":1932:1975  IValidatorRegistry public validatorRegistry */\n    tag_205:\n      0x0a\n      0x00\n      swap1\n      sload\n      swap1\n      0x0100\n      exp\n      swap1\n      div\n      0xffffffffffffffffffffffffffffffffffffffff\n      and\n      dup2\n      jump\t// out\n        /* \"contracts/DiasporaRemitEscrow.sol\":9819:10746  function refundTransfer(uint256 _transferId)... */\n    tag_211:\n        /* \"contracts/DiasporaRemitEscrow.sol\":9906:9917  _transferId */\n      dup1\n        /* \"contracts/DiasporaRemitEscrow.sol\":3941:3955  totalTransfers */\n      sload(0x02)\n        /* \"contracts/DiasporaRemitEscrow.sol\":3926:3937  _transferId */\n      dup2\n        /* \"contracts/DiasporaRemitEscrow.sol\":3926:3955  _transferId >= totalTransfers */\n      lt\n        /* \"contracts/DiasporaRemitEscrow.sol\":3922:3993  if (_transferId >= totalTransfers) revert TransferNotFound(_transferId) */\n      tag_546\n      jumpi\n        /* \"contracts/DiasporaRemitEscrow.sol\":3981:3992  _transferId */\n      dup1\n        /* \"contracts/DiasporaRemitEscrow.sol\":3964:3993  TransferNotFound(_transferId) */\n      mload(0x40)\n      0xee9ffcb700000000000000000000000000000000000000000000000000000000\n      dup2\n      mstore\n      0x04\n      add\n      tag_547\n      swap2\n      swap1\n      tag_74\n      jump\t// in\n    tag_547:\n      mload(0x40)\n      dup1\n      swap2\n      sub\n      swap1\n      revert\n        /* \"contracts/DiasporaRemitEscrow.sol\":3922:3993  if (_transferId >= totalTransfers) revert TransferNotFound(_transferId) */\n    tag_546:\n        /* \"contracts/DiasporaRemitEscrow.sol\":3642:3643  1 */\n      0x01\n        /* \"contracts/DiasporaRemitEscrow.sol\":3632:3638  locked */\n      sload(0x08)\n        /* \"contracts/DiasporaRemitEscrow.sol\":3632:3643  locked != 1 */\n      eq\n        /* \"contracts/DiasporaRemitEscrow.sol\":3628:3672  if (locked != 1) revert ReentrancyDetected() */\n      tag_549\n      jumpi\n        /* \"contracts/DiasporaRemitEscrow.sol\":3652:3672  ReentrancyDetected() */\n      mload(0x40)\n      0xc5f2be5100000000000000000000000000000000000000000000000000000000\n      dup2\n      mstore\n      0x04\n      add\n      mload(0x40)\n      dup1\n      swap2\n      sub\n      swap1\n      revert\n        /* \"contracts/DiasporaRemitEscrow.sol\":3628:3672  if (locked != 1) revert ReentrancyDetected() */\n    tag_549:\n        /* \"contracts/DiasporaRemitEscrow.sol\":3692:3693  2 */\n      0x02\n        /* \"contracts/DiasporaRemitEscrow.sol\":3683:3689  locked */\n      0x08\n        /* \"contracts/DiasporaRemitEscrow.sol\":3683:3693  locked = 2 */\n      dup2\n      swap1\n      sstore\n      pop\n        /* \"contracts/DiasporaRemitEscrow.sol\":9957:9982  Transfer storage transfer */\n      0x00\n        /* \"contracts/DiasporaRemitEscrow.sol\":9985:9994  transfers */\n      0x04\n        /* \"contracts/DiasporaRemitEscrow.sol\":9985:10007  transfers[_transferId] */\n      0x00\n        /* \"contracts/DiasporaRemitEscrow.sol\":9995:10006  _transferId */\n      dup5\n        /* \"contracts/DiasporaRemitEscrow.sol\":9985:10007  transfers[_transferId] */\n      dup2\n      mstore\n      0x20\n      add\n      swap1\n      dup2\n      mstore\n      0x20\n      add\n      0x00\n      keccak256\n        /* \"contracts/DiasporaRemitEscrow.sol\":9957:10007  Transfer storage transfer = transfers[_transferId] */\n      swap1\n      pop\n        /* \"contracts/DiasporaRemitEscrow.sol\":10051:10072  TransferStatus.Funded */\n      0x01\n        /* \"contracts/DiasporaRemitEscrow.sol\":10032:10072  transfer.status != TransferStatus.Funded */\n      0x05\n      dup2\n      gt\n      iszero\n      tag_551\n      jumpi\n      tag_552\n      tag_227\n      jump\t// in\n    tag_552:\n    tag_551:\n        /* \"contracts/DiasporaRemitEscrow.sol\":10032:10040  transfer */\n      dup2\n        /* \"contracts/DiasporaRemitEscrow.sol\":10032:10047  transfer.status */\n      0x06\n      add\n      0x00\n      swap1\n      sload\n      swap1\n      0x0100\n      exp\n      swap1\n      div\n      0xff\n      and\n        /* \"contracts/DiasporaRemitEscrow.sol\":10032:10072  transfer.status != TransferStatus.Funded */\n      0x05\n      dup2\n      gt\n      iszero\n      tag_553\n      jumpi\n      tag_554\n      tag_227\n      jump\t// in\n    tag_554:\n    tag_553:\n      eq\n        /* \"contracts/DiasporaRemitEscrow.sol\":10028:10161  if (transfer.status != TransferStatus.Funded) {... */\n      tag_555\n      jumpi\n        /* \"contracts/DiasporaRemitEscrow.sol\":10110:10118  transfer */\n      dup1\n        /* \"contracts/DiasporaRemitEscrow.sol\":10110:10125  transfer.status */\n      0x06\n      add\n      0x00\n      swap1\n      sload\n      swap1\n      0x0100\n      exp\n      swap1\n      div\n      0xff\n      and\n        /* \"contracts/DiasporaRemitEscrow.sol\":10127:10148  TransferStatus.Funded */\n      0x01\n        /* \"contracts/DiasporaRemitEscrow.sol\":10096:10149  InvalidStatus(transfer.status, TransferStatus.Funded) */\n      mload(0x40)\n      0xf924664d00000000000000000000000000000000000000000000000000000000\n      dup2\n      mstore\n      0x04\n      add\n      tag_556\n      swap3\n      swap2\n      swap1\n      tag_232\n      jump\t// in\n    tag_556:\n      mload(0x40)\n      dup1\n      swap2\n      sub\n      swap1\n      revert\n        /* \"contracts/DiasporaRemitEscrow.sol\":10028:10161  if (transfer.status != TransferStatus.Funded) {... */\n    tag_555:\n        /* \"contracts/DiasporaRemitEscrow.sol\":10194:10202  transfer */\n      dup1\n        /* \"contracts/DiasporaRemitEscrow.sol\":10194:10211  transfer.deadline */\n      0x05\n      add\n      sload\n        /* \"contracts/DiasporaRemitEscrow.sol\":10175:10190  block.timestamp */\n      timestamp\n        /* \"contracts/DiasporaRemitEscrow.sol\":10175:10211  block.timestamp <= transfer.deadline */\n      gt\n        /* \"contracts/DiasporaRemitEscrow.sol\":10171:10239  if (block.timestamp <= transfer.deadline) revert DeadlineNotPassed() */\n      tag_557\n      jumpi\n        /* \"contracts/DiasporaRemitEscrow.sol\":10220:10239  DeadlineNotPassed() */\n      mload(0x40)\n      0x2eb3543000000000000000000000000000000000000000000000000000000000\n      dup2\n      mstore\n      0x04\n      add\n      mload(0x40)\n      dup1\n      swap2\n      sub\n      swap1\n      revert\n        /* \"contracts/DiasporaRemitEscrow.sol\":10171:10239  if (block.timestamp <= transfer.deadline) revert DeadlineNotPassed() */\n    tag_557:\n        /* \"contracts/DiasporaRemitEscrow.sol\":10254:10262  transfer */\n      dup1\n        /* \"contracts/DiasporaRemitEscrow.sol\":10254:10273  transfer.isRefunded */\n      0x0b\n      add\n      0x00\n      swap1\n      sload\n      swap1\n      0x0100\n      exp\n      swap1\n      div\n      0xff\n      and\n        /* \"contracts/DiasporaRemitEscrow.sol\":10250:10299  if (transfer.isRefunded) revert AlreadyRefunded() */\n      iszero\n      tag_558\n      jumpi\n        /* \"contracts/DiasporaRemitEscrow.sol\":10282:10299  AlreadyRefunded() */\n      mload(0x40)\n      0xa85e6f1a00000000000000000000000000000000000000000000000000000000\n      dup2\n      mstore\n      0x04\n      add\n      mload(0x40)\n      dup1\n      swap2\n      sub\n      swap1\n      revert\n        /* \"contracts/DiasporaRemitEscrow.sol\":10250:10299  if (transfer.isRefunded) revert AlreadyRefunded() */\n    tag_558:\n        /* \"contracts/DiasporaRemitEscrow.sol\":10320:10340  uint256 refundAmount */\n      0x00\n        /* \"contracts/DiasporaRemitEscrow.sol\":10343:10351  transfer */\n      dup2\n        /* \"contracts/DiasporaRemitEscrow.sol\":10343:10358  transfer.amount */\n      0x04\n      add\n      sload\n        /* \"contracts/DiasporaRemitEscrow.sol\":10320:10358  uint256 refundAmount = transfer.amount */\n      swap1\n      pop\n        /* \"contracts/DiasporaRemitEscrow.sol\":10397:10420  TransferStatus.Refunded */\n      0x04\n        /* \"contracts/DiasporaRemitEscrow.sol\":10379:10387  transfer */\n      dup3\n        /* \"contracts/DiasporaRemitEscrow.sol\":10379:10394  transfer.status */\n      0x06\n      add\n      0x00\n        /* \"contracts/DiasporaRemitEscrow.sol\":10379:10420  transfer.status = TransferStatus.Refunded */\n      0x0100\n      exp\n      dup2\n      sload\n      dup2\n      0xff\n      mul\n      not\n      and\n      swap1\n      dup4\n      0x05\n      dup2\n      gt\n      iszero\n      tag_559\n      jumpi\n      tag_560\n      tag_227\n      jump\t// in\n    tag_560:\n    tag_559:\n      mul\n      or\n      swap1\n      sstore\n      pop\n        /* \"contracts/DiasporaRemitEscrow.sol\":10453:10457  true */\n      0x01\n        /* \"contracts/DiasporaRemitEscrow.sol\":10431:10439  transfer */\n      dup3\n        /* \"contracts/DiasporaRemitEscrow.sol\":10431:10450  transfer.isRefunded */\n      0x0b\n      add\n      0x00\n        /* \"contracts/DiasporaRemitEscrow.sol\":10431:10457  transfer.isRefunded = true */\n      0x0100\n      exp\n      dup2\n      sload\n      dup2\n      0xff\n      mul\n      not\n      and\n      swap1\n      dup4\n      iszero\n      iszero\n      mul\n      or\n      swap1\n      sstore\n      pop\n        /* \"contracts/DiasporaRemitEscrow.sol\":10498:10510  refundAmount */\n      dup1\n        /* \"contracts/DiasporaRemitEscrow.sol\":10478:10494  totalValueLocked */\n      0x03\n      0x00\n        /* \"contracts/DiasporaRemitEscrow.sol\":10478:10510  totalValueLocked -= refundAmount */\n      dup3\n      dup3\n      sload\n      tag_561\n      swap2\n      swap1\n      tag_239\n      jump\t// in\n    tag_561:\n      swap3\n      pop\n      pop\n      dup2\n      swap1\n      sstore\n      pop\n        /* \"contracts/DiasporaRemitEscrow.sol\":10532:10544  bool success */\n      0x00\n        /* \"contracts/DiasporaRemitEscrow.sol\":10558:10566  transfer */\n      dup3\n        /* \"contracts/DiasporaRemitEscrow.sol\":10558:10573  transfer.sender */\n      0x01\n      add\n      0x00\n      swap1\n      sload\n      swap1\n      0x0100\n      exp\n      swap1\n      div\n      0xffffffffffffffffffffffffffffffffffffffff\n      and\n        /* \"contracts/DiasporaRemitEscrow.sol\":10550:10579  payable(transfer.sender).call */\n      0xffffffffffffffffffffffffffffffffffffffff\n      and\n        /* \"contracts/DiasporaRemitEscrow.sol\":10587:10599  refundAmount */\n      dup3\n        /* \"contracts/DiasporaRemitEscrow.sol\":10550:10604  payable(transfer.sender).call{value: refundAmount}(\"\") */\n      mload(0x40)\n      tag_562\n      swap1\n      tag_247\n      jump\t// in\n    tag_562:\n      0x00\n      mload(0x40)\n      dup1\n      dup4\n      sub\n      dup2\n      dup6\n      dup8\n      gas\n      call\n      swap3\n      pop\n      pop\n      pop\n      returndatasize\n      dup1\n      0x00\n      dup2\n      eq\n      tag_565\n      jumpi\n      mload(0x40)\n      swap2\n      pop\n      and(add(returndatasize, 0x3f), not(0x1f))\n      dup3\n      add\n      0x40\n      mstore\n      returndatasize\n      dup3\n      mstore\n      returndatasize\n      0x00\n      0x20\n      dup5\n      add\n      returndatacopy\n      jump(tag_564)\n    tag_565:\n      0x60\n      swap2\n      pop\n    tag_564:\n      pop\n        /* \"contracts/DiasporaRemitEscrow.sol\":10531:10604  (bool success, ) = payable(transfer.sender).call{value: refundAmount}(\"\") */\n      pop\n      swap1\n      pop\n        /* \"contracts/DiasporaRemitEscrow.sol\":10620:10627  success */\n      dup1\n        /* \"contracts/DiasporaRemitEscrow.sol\":10615:10652  if (!success) revert TransferFailed() */\n      tag_566\n      jumpi\n        /* \"contracts/DiasporaRemitEscrow.sol\":10636:10652  TransferFailed() */\n      mload(0x40)\n      0x90b8ec1800000000000000000000000000000000000000000000000000000000\n      dup2\n      mstore\n      0x04\n      add\n      mload(0x40)\n      dup1\n      swap2\n      sub\n      swap1\n      revert\n        /* \"contracts/DiasporaRemitEscrow.sol\":10615:10652  if (!success) revert TransferFailed() */\n    tag_566:\n        /* \"contracts/DiasporaRemitEscrow.sol\":10708:10716  transfer */\n      dup3\n        /* \"contracts/DiasporaRemitEscrow.sol\":10708:10723  transfer.sender */\n      0x01\n      add\n      0x00\n      swap1\n      sload\n      swap1\n      0x0100\n      exp\n      swap1\n      div\n      0xffffffffffffffffffffffffffffffffffffffff\n      and\n        /* \"contracts/DiasporaRemitEscrow.sol\":10678:10738  TransferRefunded(_transferId, transfer.sender, refundAmount) */\n      0xffffffffffffffffffffffffffffffffffffffff\n      and\n        /* \"contracts/DiasporaRemitEscrow.sol\":10695:10706  _transferId */\n      dup6\n        /* \"contracts/DiasporaRemitEscrow.sol\":10678:10738  TransferRefunded(_transferId, transfer.sender, refundAmount) */\n      0x1866a9bdac25bb7cbf867a60c0e9008732ac88da2ec6bf1d87641a09d38128b6\n        /* \"contracts/DiasporaRemitEscrow.sol\":10725:10737  refundAmount */\n      dup5\n        /* \"contracts/DiasporaRemitEscrow.sol\":10678:10738  TransferRefunded(_transferId, transfer.sender, refundAmount) */\n      mload(0x40)\n      tag_567\n      swap2\n      swap1\n      tag_74\n      jump\t// in\n    tag_567:\n      mload(0x40)\n      dup1\n      swap2\n      sub\n      swap1\n      log3\n        /* \"contracts/DiasporaRemitEscrow.sol\":9946:10746  {... */\n      pop\n      pop\n      pop\n        /* \"contracts/DiasporaRemitEscrow.sol\":3725:3726  1 */\n      0x01\n        /* \"contracts/DiasporaRemitEscrow.sol\":3716:3722  locked */\n      0x08\n        /* \"contracts/DiasporaRemitEscrow.sol\":3716:3726  locked = 1 */\n      dup2\n      swap1\n      sstore\n      pop\n        /* \"contracts/DiasporaRemitEscrow.sol\":9819:10746  function refundTransfer(uint256 _transferId)... */\n      pop\n      pop\n      jump\t// out\n        /* \"contracts/DiasporaRemitEscrow.sol\":17845:18505  function _updateUserReputation(address _user) internal {... */\n    tag_245:\n        /* \"contracts/DiasporaRemitEscrow.sol\":17911:17941  uint256[] memory userTransfers */\n      0x00\n        /* \"contracts/DiasporaRemitEscrow.sol\":17944:17959  senderTransfers */\n      0x05\n        /* \"contracts/DiasporaRemitEscrow.sol\":17944:17966  senderTransfers[_user] */\n      0x00\n        /* \"contracts/DiasporaRemitEscrow.sol\":17960:17965  _user */\n      dup4\n        /* \"contracts/DiasporaRemitEscrow.sol\":17944:17966  senderTransfers[_user] */\n      0xffffffffffffffffffffffffffffffffffffffff\n      and\n      0xffffffffffffffffffffffffffffffffffffffff\n      and\n      dup2\n      mstore\n      0x20\n      add\n      swap1\n      dup2\n      mstore\n      0x20\n      add\n      0x00\n      keccak256\n        /* \"contracts/DiasporaRemitEscrow.sol\":17911:17966  uint256[] memory userTransfers = senderTransfers[_user] */\n      dup1\n      sload\n      dup1\n      0x20\n      mul\n      0x20\n      add\n      mload(0x40)\n      swap1\n      dup2\n      add\n      0x40\n      mstore\n      dup1\n      swap3\n      swap2\n      swap1\n      dup2\n      dup2\n      mstore\n      0x20\n      add\n      dup3\n      dup1\n      sload\n      dup1\n      iszero\n      tag_569\n      jumpi\n      0x20\n      mul\n      dup3\n      add\n      swap2\n      swap1\n      0x00\n      mstore\n      keccak256(0x00, 0x20)\n      swap1\n    tag_570:\n      dup2\n      sload\n      dup2\n      mstore\n      0x20\n      add\n      swap1\n      0x01\n      add\n      swap1\n      dup1\n      dup4\n      gt\n      tag_570\n      jumpi\n    tag_569:\n      pop\n      pop\n      pop\n      pop\n      pop\n      swap1\n      pop\n        /* \"contracts/DiasporaRemitEscrow.sol\":18004:18005  0 */\n      0x00\n        /* \"contracts/DiasporaRemitEscrow.sol\":17981:17994  userTransfers */\n      dup2\n        /* \"contracts/DiasporaRemitEscrow.sol\":17981:18001  userTransfers.length */\n      mload\n        /* \"contracts/DiasporaRemitEscrow.sol\":17981:18005  userTransfers.length > 0 */\n      gt\n        /* \"contracts/DiasporaRemitEscrow.sol\":17977:18498  if (userTransfers.length > 0) {... */\n      iszero\n      tag_571\n      jumpi\n        /* \"contracts/DiasporaRemitEscrow.sol\":18022:18040  uint256 successful */\n      0x00\n        /* \"contracts/DiasporaRemitEscrow.sol\":18043:18044  0 */\n      0x00\n        /* \"contracts/DiasporaRemitEscrow.sol\":18022:18044  uint256 successful = 0 */\n      swap1\n      pop\n        /* \"contracts/DiasporaRemitEscrow.sol\":18059:18072  uint256 total */\n      0x00\n        /* \"contracts/DiasporaRemitEscrow.sol\":18098:18101  100 */\n      0x64\n        /* \"contracts/DiasporaRemitEscrow.sol\":18075:18088  userTransfers */\n      dup4\n        /* \"contracts/DiasporaRemitEscrow.sol\":18075:18095  userTransfers.length */\n      mload\n        /* \"contracts/DiasporaRemitEscrow.sol\":18075:18101  userTransfers.length > 100 */\n      gt\n        /* \"contracts/DiasporaRemitEscrow.sol\":18075:18130  userTransfers.length > 100 ? 100 : userTransfers.length */\n      tag_572\n      jumpi\n        /* \"contracts/DiasporaRemitEscrow.sol\":18110:18123  userTransfers */\n      dup3\n        /* \"contracts/DiasporaRemitEscrow.sol\":18110:18130  userTransfers.length */\n      mload\n        /* \"contracts/DiasporaRemitEscrow.sol\":18075:18130  userTransfers.length > 100 ? 100 : userTransfers.length */\n      jump(tag_573)\n    tag_572:\n        /* \"contracts/DiasporaRemitEscrow.sol\":18104:18107  100 */\n      0x64\n        /* \"contracts/DiasporaRemitEscrow.sol\":18075:18130  userTransfers.length > 100 ? 100 : userTransfers.length */\n    tag_573:\n        /* \"contracts/DiasporaRemitEscrow.sol\":18059:18130  uint256 total = userTransfers.length > 100 ? 100 : userTransfers.length */\n      swap1\n      pop\n        /* \"contracts/DiasporaRemitEscrow.sol\":18164:18173  uint256 i */\n      0x00\n        /* \"contracts/DiasporaRemitEscrow.sol\":18176:18177  0 */\n      0x00\n        /* \"contracts/DiasporaRemitEscrow.sol\":18164:18177  uint256 i = 0 */\n      swap1\n      pop\n        /* \"contracts/DiasporaRemitEscrow.sol\":18159:18352  for (uint256 i = 0; i < total; i++) {... */\n    tag_574:\n        /* \"contracts/DiasporaRemitEscrow.sol\":18183:18188  total */\n      dup2\n        /* \"contracts/DiasporaRemitEscrow.sol\":18179:18180  i */\n      dup2\n        /* \"contracts/DiasporaRemitEscrow.sol\":18179:18188  i < total */\n      lt\n        /* \"contracts/DiasporaRemitEscrow.sol\":18159:18352  for (uint256 i = 0; i < total; i++) {... */\n      iszero\n      tag_575\n      jumpi\n        /* \"contracts/DiasporaRemitEscrow.sol\":18256:18280  TransferStatus.Completed */\n      0x03\n        /* \"contracts/DiasporaRemitEscrow.sol\":18218:18280  transfers[userTransfers[i]].status == TransferStatus.Completed */\n      0x05\n      dup2\n      gt\n      iszero\n      tag_577\n      jumpi\n      tag_578\n      tag_227\n      jump\t// in\n    tag_578:\n    tag_577:\n        /* \"contracts/DiasporaRemitEscrow.sol\":18218:18227  transfers */\n      0x04\n        /* \"contracts/DiasporaRemitEscrow.sol\":18218:18245  transfers[userTransfers[i]] */\n      0x00\n        /* \"contracts/DiasporaRemitEscrow.sol\":18228:18241  userTransfers */\n      dup7\n        /* \"contracts/DiasporaRemitEscrow.sol\":18242:18243  i */\n      dup5\n        /* \"contracts/DiasporaRemitEscrow.sol\":18228:18244  userTransfers[i] */\n      dup2\n      mload\n      dup2\n      lt\n      tag_579\n      jumpi\n      tag_580\n      tag_581\n      jump\t// in\n    tag_580:\n    tag_579:\n      0x20\n      mul\n      0x20\n      add\n      add\n      mload\n        /* \"contracts/DiasporaRemitEscrow.sol\":18218:18245  transfers[userTransfers[i]] */\n      dup2\n      mstore\n      0x20\n      add\n      swap1\n      dup2\n      mstore\n      0x20\n      add\n      0x00\n      keccak256\n        /* \"contracts/DiasporaRemitEscrow.sol\":18218:18252  transfers[userTransfers[i]].status */\n      0x06\n      add\n      0x00\n      swap1\n      sload\n      swap1\n      0x0100\n      exp\n      swap1\n      div\n      0xff\n      and\n        /* \"contracts/DiasporaRemitEscrow.sol\":18218:18280  transfers[userTransfers[i]].status == TransferStatus.Completed */\n      0x05\n      dup2\n      gt\n      iszero\n      tag_582\n      jumpi\n      tag_583\n      tag_227\n      jump\t// in\n    tag_583:\n    tag_582:\n      sub\n        /* \"contracts/DiasporaRemitEscrow.sol\":18214:18337  if (transfers[userTransfers[i]].status == TransferStatus.Completed) {... */\n      tag_584\n      jumpi\n        /* \"contracts/DiasporaRemitEscrow.sol\":18305:18317  successful++ */\n      dup3\n      dup1\n      tag_585\n      swap1\n      tag_372\n      jump\t// in\n    tag_585:\n      swap4\n      pop\n      pop\n        /* \"contracts/DiasporaRemitEscrow.sol\":18214:18337  if (transfers[userTransfers[i]].status == TransferStatus.Completed) {... */\n    tag_584:\n        /* \"contracts/DiasporaRemitEscrow.sol\":18190:18193  i++ */\n      dup1\n      dup1\n      0x01\n      add\n      swap2\n      pop\n      pop\n        /* \"contracts/DiasporaRemitEscrow.sol\":18159:18352  for (uint256 i = 0; i < total; i++) {... */\n      jump(tag_574)\n    tag_575:\n      pop\n        /* \"contracts/DiasporaRemitEscrow.sol\":18380:18396  uint256 newScore */\n      0x00\n        /* \"contracts/DiasporaRemitEscrow.sol\":18420:18425  total */\n      dup2\n        /* \"contracts/DiasporaRemitEscrow.sol\":18413:18416  100 */\n      0x64\n        /* \"contracts/DiasporaRemitEscrow.sol\":18400:18410  successful */\n      dup5\n        /* \"contracts/DiasporaRemitEscrow.sol\":18400:18416  successful * 100 */\n      tag_586\n      swap2\n      swap1\n      tag_235\n      jump\t// in\n    tag_586:\n        /* \"contracts/DiasporaRemitEscrow.sol\":18399:18425  (successful * 100) / total */\n      tag_587\n      swap2\n      swap1\n      tag_237\n      jump\t// in\n    tag_587:\n        /* \"contracts/DiasporaRemitEscrow.sol\":18380:18425  uint256 newScore = (successful * 100) / total */\n      swap1\n      pop\n        /* \"contracts/DiasporaRemitEscrow.sol\":18440:18452  userRegistry */\n      0x09\n      0x00\n      swap1\n      sload\n      swap1\n      0x0100\n      exp\n      swap1\n      div\n      0xffffffffffffffffffffffffffffffffffffffff\n      and\n        /* \"contracts/DiasporaRemitEscrow.sol\":18440:18469  userRegistry.updateReputation */\n      0xffffffffffffffffffffffffffffffffffffffff\n      and\n      0xf5c91a08\n        /* \"contracts/DiasporaRemitEscrow.sol\":18470:18475  _user */\n      dup7\n        /* \"contracts/DiasporaRemitEscrow.sol\":18477:18485  newScore */\n      dup4\n        /* \"contracts/DiasporaRemitEscrow.sol\":18440:18486  userRegistry.updateReputation(_user, newScore) */\n      mload(0x40)\n      dup4\n      0xffffffff\n      and\n      0xe0\n      shl\n      dup2\n      mstore\n      0x04\n      add\n      tag_588\n      swap3\n      swap2\n      swap1\n      tag_589\n      jump\t// in\n    tag_588:\n      0x00\n      mload(0x40)\n      dup1\n      dup4\n      sub\n      dup2\n      0x00\n      dup8\n      dup1\n      extcodesize\n      iszero\n      dup1\n      iszero\n      tag_590\n      jumpi\n      revert(0x00, 0x00)\n    tag_590:\n      pop\n      gas\n      call\n      iszero\n      dup1\n      iszero\n      tag_592\n      jumpi\n      returndatacopy(0x00, 0x00, returndatasize)\n      revert(0x00, returndatasize)\n    tag_592:\n      pop\n      pop\n      pop\n      pop\n        /* \"contracts/DiasporaRemitEscrow.sol\":18007:18498  {... */\n      pop\n      pop\n      pop\n        /* \"contracts/DiasporaRemitEscrow.sol\":17977:18498  if (userTransfers.length > 0) {... */\n    tag_571:\n        /* \"contracts/DiasporaRemitEscrow.sol\":17900:18505  {... */\n      pop\n        /* \"contracts/DiasporaRemitEscrow.sol\":17845:18505  function _updateUserReputation(address _user) internal {... */\n      pop\n      jump\t// out\n        /* \"#utility.yul\":7:176   */\n    tag_593:\n        /* \"#utility.yul\":91:102   */\n      0x00\n        /* \"#utility.yul\":125:131   */\n      dup3\n        /* \"#utility.yul\":120:123   */\n      dup3\n        /* \"#utility.yul\":113:132   */\n      mstore\n        /* \"#utility.yul\":165:169   */\n      0x20\n        /* \"#utility.yul\":160:163   */\n      dup3\n        /* \"#utility.yul\":156:170   */\n      add\n        /* \"#utility.yul\":141:170   */\n      swap1\n      pop\n        /* \"#utility.yul\":7:176   */\n      swap3\n      swap2\n      pop\n      pop\n      jump\t// out\n        /* \"#utility.yul\":182:414   */\n    tag_594:\n        /* \"#utility.yul\":322:356   */\n      0x55736520637265617465416e6446756e645472616e736665722829206f722066\n        /* \"#utility.yul\":318:319   */\n      0x00\n        /* \"#utility.yul\":310:316   */\n      dup3\n        /* \"#utility.yul\":306:320   */\n      add\n        /* \"#utility.yul\":299:357   */\n      mstore\n        /* \"#utility.yul\":391:406   */\n      0x756e645472616e73666572282900000000000000000000000000000000000000\n        /* \"#utility.yul\":386:388   */\n      0x20\n        /* \"#utility.yul\":378:384   */\n      dup3\n        /* \"#utility.yul\":374:389   */\n      add\n        /* \"#utility.yul\":367:407   */\n      mstore\n        /* \"#utility.yul\":182:414   */\n      pop\n      jump\t// out\n        /* \"#utility.yul\":420:786   */\n    tag_595:\n        /* \"#utility.yul\":562:565   */\n      0x00\n        /* \"#utility.yul\":583:650   */\n      tag_680\n        /* \"#utility.yul\":647:649   */\n      0x2d\n        /* \"#utility.yul\":642:645   */\n      dup4\n        /* \"#utility.yul\":583:650   */\n      tag_593\n      jump\t// in\n    tag_680:\n        /* \"#utility.yul\":576:650   */\n      swap2\n      pop\n        /* \"#utility.yul\":659:752   */\n      tag_681\n        /* \"#utility.yul\":748:751   */\n      dup3\n        /* \"#utility.yul\":659:752   */\n      tag_594\n      jump\t// in\n    tag_681:\n        /* \"#utility.yul\":777:779   */\n      0x40\n        /* \"#utility.yul\":772:775   */\n      dup3\n        /* \"#utility.yul\":768:780   */\n      add\n        /* \"#utility.yul\":761:780   */\n      swap1\n      pop\n        /* \"#utility.yul\":420:786   */\n      swap2\n      swap1\n      pop\n      jump\t// out\n        /* \"#utility.yul\":792:1211   */\n    tag_46:\n        /* \"#utility.yul\":958:962   */\n      0x00\n        /* \"#utility.yul\":996:998   */\n      0x20\n        /* \"#utility.yul\":985:994   */\n      dup3\n        /* \"#utility.yul\":981:999   */\n      add\n        /* \"#utility.yul\":973:999   */\n      swap1\n      pop\n        /* \"#utility.yul\":1045:1054   */\n      dup2\n        /* \"#utility.yul\":1039:1043   */\n      dup2\n        /* \"#utility.yul\":1035:1055   */\n      sub\n        /* \"#utility.yul\":1031:1032   */\n      0x00\n        /* \"#utility.yul\":1020:1029   */\n      dup4\n        /* \"#utility.yul\":1016:1033   */\n      add\n        /* \"#utility.yul\":1009:1056   */\n      mstore\n        /* \"#utility.yul\":1073:1204   */\n      tag_683\n        /* \"#utility.yul\":1199:1203   */\n      dup2\n        /* \"#utility.yul\":1073:1204   */\n      tag_595\n      jump\t// in\n    tag_683:\n        /* \"#utility.yul\":1065:1204   */\n      swap1\n      pop\n        /* \"#utility.yul\":792:1211   */\n      swap2\n      swap1\n      pop\n      jump\t// out\n        /* \"#utility.yul\":1217:1388   */\n    tag_596:\n        /* \"#utility.yul\":1357:1380   */\n      0x496e76616c69642066756e6374696f6e2063616c6c0000000000000000000000\n        /* \"#utility.yul\":1353:1354   */\n      0x00\n        /* \"#utility.yul\":1345:1351   */\n      dup3\n        /* \"#utility.yul\":1341:1355   */\n      add\n        /* \"#utility.yul\":1334:1381   */\n      mstore\n        /* \"#utility.yul\":1217:1388   */\n      pop\n      jump\t// out\n        /* \"#utility.yul\":1394:1760   */\n    tag_597:\n        /* \"#utility.yul\":1536:1539   */\n      0x00\n        /* \"#utility.yul\":1557:1624   */\n      tag_686\n        /* \"#utility.yul\":1621:1623   */\n      0x15\n        /* \"#utility.yul\":1616:1619   */\n      dup4\n        /* \"#utility.yul\":1557:1624   */\n      tag_593\n      jump\t// in\n    tag_686:\n        /* \"#utility.yul\":1550:1624   */\n      swap2\n      pop\n        /* \"#utility.yul\":1633:1726   */\n      tag_687\n        /* \"#utility.yul\":1722:1725   */\n      dup3\n        /* \"#utility.yul\":1633:1726   */\n      tag_596\n      jump\t// in\n    tag_687:\n        /* \"#utility.yul\":1751:1753   */\n      0x20\n        /* \"#utility.yul\":1746:1749   */\n      dup3\n        /* \"#utility.yul\":1742:1754   */\n      add\n        /* \"#utility.yul\":1735:1754   */\n      swap1\n      pop\n        /* \"#utility.yul\":1394:1760   */\n      swap2\n      swap1\n      pop\n      jump\t// out\n        /* \"#utility.yul\":1766:2185   */\n    tag_50:\n        /* \"#utility.yul\":1932:1936   */\n      0x00\n        /* \"#utility.yul\":1970:1972   */\n      0x20\n        /* \"#utility.yul\":1959:1968   */\n      dup3\n        /* \"#utility.yul\":1955:1973   */\n      add\n        /* \"#utility.yul\":1947:1973   */\n      swap1\n      pop\n        /* \"#utility.yul\":2019:2028   */\n      dup2\n        /* \"#utility.yul\":2013:2017   */\n      dup2\n        /* \"#utility.yul\":2009:2029   */\n      sub\n        /* \"#utility.yul\":2005:2006   */\n      0x00\n        /* \"#utility.yul\":1994:2003   */\n      dup4\n        /* \"#utility.yul\":1990:2007   */\n      add\n        /* \"#utility.yul\":1983:2030   */\n      mstore\n        /* \"#utility.yul\":2047:2178   */\n      tag_689\n        /* \"#utility.yul\":2173:2177   */\n      dup2\n        /* \"#utility.yul\":2047:2178   */\n      tag_597\n      jump\t// in\n    tag_689:\n        /* \"#utility.yul\":2039:2178   */\n      swap1\n      pop\n        /* \"#utility.yul\":1766:2185   */\n      swap2\n      swap1\n      pop\n      jump\t// out\n        /* \"#utility.yul\":2191:2266   */\n    tag_598:\n        /* \"#utility.yul\":2224:2230   */\n      0x00\n        /* \"#utility.yul\":2257:2259   */\n      0x40\n        /* \"#utility.yul\":2251:2260   */\n      mload\n        /* \"#utility.yul\":2241:2260   */\n      swap1\n      pop\n        /* \"#utility.yul\":2191:2266   */\n      swap1\n      jump\t// out\n        /* \"#utility.yul\":2272:2389   */\n    tag_599:\n        /* \"#utility.yul\":2381:2382   */\n      0x00\n        /* \"#utility.yul\":2378:2379   */\n      0x00\n        /* \"#utility.yul\":2371:2383   */\n      revert\n        /* \"#utility.yul\":2395:2512   */\n    tag_600:\n        /* \"#utility.yul\":2504:2505   */\n      0x00\n        /* \"#utility.yul\":2501:2502   */\n      0x00\n        /* \"#utility.yul\":2494:2506   */\n      revert\n        /* \"#utility.yul\":2518:2644   */\n    tag_601:\n        /* \"#utility.yul\":2555:2562   */\n      0x00\n        /* \"#utility.yul\":2595:2637   */\n      0xffffffffffffffffffffffffffffffffffffffff\n        /* \"#utility.yul\":2588:2593   */\n      dup3\n        /* \"#utility.yul\":2584:2638   */\n      and\n        /* \"#utility.yul\":2573:2638   */\n      swap1\n      pop\n        /* \"#utility.yul\":2518:2644   */\n      swap2\n      swap1\n      pop\n      jump\t// out\n        /* \"#utility.yul\":2650:2746   */\n    tag_602:\n        /* \"#utility.yul\":2687:2694   */\n      0x00\n        /* \"#utility.yul\":2716:2740   */\n      tag_695\n        /* \"#utility.yul\":2734:2739   */\n      dup3\n        /* \"#utility.yul\":2716:2740   */\n      tag_601\n      jump\t// in\n    tag_695:\n        /* \"#utility.yul\":2705:2740   */\n      swap1\n      pop\n        /* \"#utility.yul\":2650:2746   */\n      swap2\n      swap1\n      pop\n      jump\t// out\n        /* \"#utility.yul\":2752:2874   */\n    tag_603:\n        /* \"#utility.yul\":2825:2849   */\n      tag_697\n        /* \"#utility.yul\":2843:2848   */\n      dup2\n        /* \"#utility.yul\":2825:2849   */\n      tag_602\n      jump\t// in\n    tag_697:\n        /* \"#utility.yul\":2818:2823   */\n      dup2\n        /* \"#utility.yul\":2815:2850   */\n      eq\n        /* \"#utility.yul\":2805:2868   */\n      tag_698\n      jumpi\n        /* \"#utility.yul\":2864:2865   */\n      0x00\n        /* \"#utility.yul\":2861:2862   */\n      0x00\n        /* \"#utility.yul\":2854:2866   */\n      revert\n        /* \"#utility.yul\":2805:2868   */\n    tag_698:\n        /* \"#utility.yul\":2752:2874   */\n      pop\n      jump\t// out\n        /* \"#utility.yul\":2880:3019   */\n    tag_604:\n        /* \"#utility.yul\":2926:2931   */\n      0x00\n        /* \"#utility.yul\":2964:2970   */\n      dup2\n        /* \"#utility.yul\":2951:2971   */\n      calldataload\n        /* \"#utility.yul\":2942:2971   */\n      swap1\n      pop\n        /* \"#utility.yul\":2980:3013   */\n      tag_700\n        /* \"#utility.yul\":3007:3012   */\n      dup2\n        /* \"#utility.yul\":2980:3013   */\n      tag_603\n      jump\t// in\n    tag_700:\n        /* \"#utility.yul\":2880:3019   */\n      swap3\n      swap2\n      pop\n      pop\n      jump\t// out\n        /* \"#utility.yul\":3025:3354   */\n    tag_54:\n        /* \"#utility.yul\":3084:3090   */\n      0x00\n        /* \"#utility.yul\":3133:3135   */\n      0x20\n        /* \"#utility.yul\":3121:3130   */\n      dup3\n        /* \"#utility.yul\":3112:3119   */\n      dup5\n        /* \"#utility.yul\":3108:3131   */\n      sub\n        /* \"#utility.yul\":3104:3136   */\n      slt\n        /* \"#utility.yul\":3101:3220   */\n      iszero\n      tag_702\n      jumpi\n        /* \"#utility.yul\":3139:3218   */\n      tag_703\n      tag_599\n      jump\t// in\n    tag_703:\n        /* \"#utility.yul\":3101:3220   */\n    tag_702:\n        /* \"#utility.yul\":3259:3260   */\n      0x00\n        /* \"#utility.yul\":3284:3337   */\n      tag_704\n        /* \"#utility.yul\":3329:3336   */\n      dup5\n        /* \"#utility.yul\":3320:3326   */\n      dup3\n        /* \"#utility.yul\":3309:3318   */\n      dup6\n        /* \"#utility.yul\":3305:3327   */\n      add\n        /* \"#utility.yul\":3284:3337   */\n      tag_604\n      jump\t// in\n    tag_704:\n        /* \"#utility.yul\":3274:3337   */\n      swap2\n      pop\n        /* \"#utility.yul\":3230:3347   */\n      pop\n        /* \"#utility.yul\":3025:3354   */\n      swap3\n      swap2\n      pop\n      pop\n      jump\t// out\n        /* \"#utility.yul\":3360:3474   */\n    tag_605:\n        /* \"#utility.yul\":3427:3433   */\n      0x00\n        /* \"#utility.yul\":3461:3466   */\n      dup2\n        /* \"#utility.yul\":3455:3467   */\n      mload\n        /* \"#utility.yul\":3445:3467   */\n      swap1\n      pop\n        /* \"#utility.yul\":3360:3474   */\n      swap2\n      swap1\n      pop\n      jump\t// out\n        /* \"#utility.yul\":3480:3664   */\n    tag_606:\n        /* \"#utility.yul\":3579:3590   */\n      0x00\n        /* \"#utility.yul\":3613:3619   */\n      dup3\n        /* \"#utility.yul\":3608:3611   */\n      dup3\n        /* \"#utility.yul\":3601:3620   */\n      mstore\n        /* \"#utility.yul\":3653:3657   */\n      0x20\n        /* \"#utility.yul\":3648:3651   */\n      dup3\n        /* \"#utility.yul\":3644:3658   */\n      add\n        /* \"#utility.yul\":3629:3658   */\n      swap1\n      pop\n        /* \"#utility.yul\":3480:3664   */\n      swap3\n      swap2\n      pop\n      pop\n      jump\t// out\n        /* \"#utility.yul\":3670:3802   */\n    tag_607:\n        /* \"#utility.yul\":3737:3741   */\n      0x00\n        /* \"#utility.yul\":3760:3763   */\n      dup2\n        /* \"#utility.yul\":3752:3763   */\n      swap1\n      pop\n        /* \"#utility.yul\":3790:3794   */\n      0x20\n        /* \"#utility.yul\":3785:3788   */\n      dup3\n        /* \"#utility.yul\":3781:3795   */\n      add\n        /* \"#utility.yul\":3773:3795   */\n      swap1\n      pop\n        /* \"#utility.yul\":3670:3802   */\n      swap2\n      swap1\n      pop\n      jump\t// out\n        /* \"#utility.yul\":3808:3885   */\n    tag_608:\n        /* \"#utility.yul\":3845:3852   */\n      0x00\n        /* \"#utility.yul\":3874:3879   */\n      dup2\n        /* \"#utility.yul\":3863:3879   */\n      swap1\n      pop\n        /* \"#utility.yul\":3808:3885   */\n      swap2\n      swap1\n      pop\n      jump\t// out\n        /* \"#utility.yul\":3891:3999   */\n    tag_609:\n        /* \"#utility.yul\":3968:3992   */\n      tag_710\n        /* \"#utility.yul\":3986:3991   */\n      dup2\n        /* \"#utility.yul\":3968:3992   */\n      tag_608\n      jump\t// in\n    tag_710:\n        /* \"#utility.yul\":3963:3966   */\n      dup3\n        /* \"#utility.yul\":3956:3993   */\n      mstore\n        /* \"#utility.yul\":3891:3999   */\n      pop\n      pop\n      jump\t// out\n        /* \"#utility.yul\":4005:4184   */\n    tag_610:\n        /* \"#utility.yul\":4074:4084   */\n      0x00\n        /* \"#utility.yul\":4095:4141   */\n      tag_712\n        /* \"#utility.yul\":4137:4140   */\n      dup4\n        /* \"#utility.yul\":4129:4135   */\n      dup4\n        /* \"#utility.yul\":4095:4141   */\n      tag_609\n      jump\t// in\n    tag_712:\n        /* \"#utility.yul\":4173:4177   */\n      0x20\n        /* \"#utility.yul\":4168:4171   */\n      dup4\n        /* \"#utility.yul\":4164:4178   */\n      add\n        /* \"#utility.yul\":4150:4178   */\n      swap1\n      pop\n        /* \"#utility.yul\":4005:4184   */\n      swap3\n      swap2\n      pop\n      pop\n      jump\t// out\n        /* \"#utility.yul\":4190:4303   */\n    tag_611:\n        /* \"#utility.yul\":4260:4264   */\n      0x00\n        /* \"#utility.yul\":4292:4296   */\n      0x20\n        /* \"#utility.yul\":4287:4290   */\n      dup3\n        /* \"#utility.yul\":4283:4297   */\n      add\n        /* \"#utility.yul\":4275:4297   */\n      swap1\n      pop\n        /* \"#utility.yul\":4190:4303   */\n      swap2\n      swap1\n      pop\n      jump\t// out\n        /* \"#utility.yul\":4339:5071   */\n    tag_612:\n        /* \"#utility.yul\":4458:4461   */\n      0x00\n        /* \"#utility.yul\":4487:4541   */\n      tag_715\n        /* \"#utility.yul\":4535:4540   */\n      dup3\n        /* \"#utility.yul\":4487:4541   */\n      tag_605\n      jump\t// in\n    tag_715:\n        /* \"#utility.yul\":4557:4643   */\n      tag_716\n        /* \"#utility.yul\":4636:4642   */\n      dup2\n        /* \"#utility.yul\":4631:4634   */\n      dup6\n        /* \"#utility.yul\":4557:4643   */\n      tag_606\n      jump\t// in\n    tag_716:\n        /* \"#utility.yul\":4550:4643   */\n      swap4\n      pop\n        /* \"#utility.yul\":4667:4723   */\n      tag_717\n        /* \"#utility.yul\":4717:4722   */\n      dup4\n        /* \"#utility.yul\":4667:4723   */\n      tag_607\n      jump\t// in\n    tag_717:\n        /* \"#utility.yul\":4746:4753   */\n      dup1\n        /* \"#utility.yul\":4777:4778   */\n      0x00\n        /* \"#utility.yul\":4762:5046   */\n    tag_718:\n        /* \"#utility.yul\":4787:4793   */\n      dup4\n        /* \"#utility.yul\":4784:4785   */\n      dup2\n        /* \"#utility.yul\":4781:4794   */\n      lt\n        /* \"#utility.yul\":4762:5046   */\n      iszero\n      tag_720\n      jumpi\n        /* \"#utility.yul\":4863:4869   */\n      dup2\n        /* \"#utility.yul\":4857:4870   */\n      mload\n        /* \"#utility.yul\":4890:4953   */\n      tag_721\n        /* \"#utility.yul\":4949:4952   */\n      dup9\n        /* \"#utility.yul\":4934:4947   */\n      dup3\n        /* \"#utility.yul\":4890:4953   */\n      tag_610\n      jump\t// in\n    tag_721:\n        /* \"#utility.yul\":4883:4953   */\n      swap8\n      pop\n        /* \"#utility.yul\":4976:5036   */\n      tag_722\n        /* \"#utility.yul\":5029:5035   */\n      dup4\n        /* \"#utility.yul\":4976:5036   */\n      tag_611\n      jump\t// in\n    tag_722:\n        /* \"#utility.yul\":4966:5036   */\n      swap3\n      pop\n        /* \"#utility.yul\":4822:5046   */\n      pop\n        /* \"#utility.yul\":4809:4810   */\n      0x01\n        /* \"#utility.yul\":4806:4807   */\n      dup2\n        /* \"#utility.yul\":4802:4811   */\n      add\n        /* \"#utility.yul\":4797:4811   */\n      swap1\n      pop\n        /* \"#utility.yul\":4762:5046   */\n      jump(tag_718)\n    tag_720:\n        /* \"#utility.yul\":4766:4780   */\n      pop\n        /* \"#utility.yul\":5062:5065   */\n      dup6\n        /* \"#utility.yul\":5055:5065   */\n      swap4\n      pop\n        /* \"#utility.yul\":4463:5071   */\n      pop\n      pop\n      pop\n        /* \"#utility.yul\":4339:5071   */\n      swap3\n      swap2\n      pop\n      pop\n      jump\t// out\n        /* \"#utility.yul\":5077:5450   */\n    tag_57:\n        /* \"#utility.yul\":5220:5224   */\n      0x00\n        /* \"#utility.yul\":5258:5260   */\n      0x20\n        /* \"#utility.yul\":5247:5256   */\n      dup3\n        /* \"#utility.yul\":5243:5261   */\n      add\n        /* \"#utility.yul\":5235:5261   */\n      swap1\n      pop\n        /* \"#utility.yul\":5307:5316   */\n      dup2\n        /* \"#utility.yul\":5301:5305   */\n      dup2\n        /* \"#utility.yul\":5297:5317   */\n      sub\n        /* \"#utility.yul\":5293:5294   */\n      0x00\n        /* \"#utility.yul\":5282:5291   */\n      dup4\n        /* \"#utility.yul\":5278:5295   */\n      add\n        /* \"#utility.yul\":5271:5318   */\n      mstore\n        /* \"#utility.yul\":5335:5443   */\n      tag_724\n        /* \"#utility.yul\":5438:5442   */\n      dup2\n        /* \"#utility.yul\":5429:5435   */\n      dup5\n        /* \"#utility.yul\":5335:5443   */\n      tag_612\n      jump\t// in\n    tag_724:\n        /* \"#utility.yul\":5327:5443   */\n      swap1\n      pop\n        /* \"#utility.yul\":5077:5450   */\n      swap3\n      swap2\n      pop\n      pop\n      jump\t// out\n        /* \"#utility.yul\":5456:5574   */\n    tag_613:\n        /* \"#utility.yul\":5543:5567   */\n      tag_726\n        /* \"#utility.yul\":5561:5566   */\n      dup2\n        /* \"#utility.yul\":5543:5567   */\n      tag_608\n      jump\t// in\n    tag_726:\n        /* \"#utility.yul\":5538:5541   */\n      dup3\n        /* \"#utility.yul\":5531:5568   */\n      mstore\n        /* \"#utility.yul\":5456:5574   */\n      pop\n      pop\n      jump\t// out\n        /* \"#utility.yul\":5580:6022   */\n    tag_62:\n        /* \"#utility.yul\":5729:5733   */\n      0x00\n        /* \"#utility.yul\":5767:5769   */\n      0x60\n        /* \"#utility.yul\":5756:5765   */\n      dup3\n        /* \"#utility.yul\":5752:5770   */\n      add\n        /* \"#utility.yul\":5744:5770   */\n      swap1\n      pop\n        /* \"#utility.yul\":5780:5851   */\n      tag_728\n        /* \"#utility.yul\":5848:5849   */\n      0x00\n        /* \"#utility.yul\":5837:5846   */\n      dup4\n        /* \"#utility.yul\":5833:5850   */\n      add\n        /* \"#utility.yul\":5824:5830   */\n      dup7\n        /* \"#utility.yul\":5780:5851   */\n      tag_613\n      jump\t// in\n    tag_728:\n        /* \"#utility.yul\":5861:5933   */\n      tag_729\n        /* \"#utility.yul\":5929:5931   */\n      0x20\n        /* \"#utility.yul\":5918:5927   */\n      dup4\n        /* \"#utility.yul\":5914:5932   */\n      add\n        /* \"#utility.yul\":5905:5911   */\n      dup6\n        /* \"#utility.yul\":5861:5933   */\n      tag_613\n      jump\t// in\n    tag_729:\n        /* \"#utility.yul\":5943:6015   */\n      tag_730\n        /* \"#utility.yul\":6011:6013   */\n      0x40\n        /* \"#utility.yul\":6000:6009   */\n      dup4\n        /* \"#utility.yul\":5996:6014   */\n      add\n        /* \"#utility.yul\":5987:5993   */\n      dup5\n        /* \"#utility.yul\":5943:6015   */\n      tag_613\n      jump\t// in\n    tag_730:\n        /* \"#utility.yul\":5580:6022   */\n      swap5\n      swap4\n      pop\n      pop\n      pop\n      pop\n      jump\t// out\n        /* \"#utility.yul\":6028:6150   */\n    tag_614:\n        /* \"#utility.yul\":6101:6125   */\n      tag_732\n        /* \"#utility.yul\":6119:6124   */\n      dup2\n        /* \"#utility.yul\":6101:6125   */\n      tag_608\n      jump\t// in\n    tag_732:\n        /* \"#utility.yul\":6094:6099   */\n      dup2\n        /* \"#utility.yul\":6091:6126   */\n      eq\n        /* \"#utility.yul\":6081:6144   */\n      tag_733\n      jumpi\n        /* \"#utility.yul\":6140:6141   */\n      0x00\n        /* \"#utility.yul\":6137:6138   */\n      0x00\n        /* \"#utility.yul\":6130:6142   */\n      revert\n        /* \"#utility.yul\":6081:6144   */\n    tag_733:\n        /* \"#utility.yul\":6028:6150   */\n      pop\n      jump\t// out\n        /* \"#utility.yul\":6156:6295   */\n    tag_615:\n        /* \"#utility.yul\":6202:6207   */\n      0x00\n        /* \"#utility.yul\":6240:6246   */\n      dup2\n        /* \"#utility.yul\":6227:6247   */\n      calldataload\n        /* \"#utility.yul\":6218:6247   */\n      swap1\n      pop\n        /* \"#utility.yul\":6256:6289   */\n      tag_735\n        /* \"#utility.yul\":6283:6288   */\n      dup2\n        /* \"#utility.yul\":6256:6289   */\n      tag_614\n      jump\t// in\n    tag_735:\n        /* \"#utility.yul\":6156:6295   */\n      swap3\n      swap2\n      pop\n      pop\n      jump\t// out\n        /* \"#utility.yul\":6301:6630   */\n    tag_66:\n        /* \"#utility.yul\":6360:6366   */\n      0x00\n        /* \"#utility.yul\":6409:6411   */\n      0x20\n        /* \"#utility.yul\":6397:6406   */\n      dup3\n        /* \"#utility.yul\":6388:6395   */\n      dup5\n        /* \"#utility.yul\":6384:6407   */\n      sub\n        /* \"#utility.yul\":6380:6412   */\n      slt\n        /* \"#utility.yul\":6377:6496   */\n      iszero\n      tag_737\n      jumpi\n        /* \"#utility.yul\":6415:6494   */\n      tag_738\n      tag_599\n      jump\t// in\n    tag_738:\n        /* \"#utility.yul\":6377:6496   */\n    tag_737:\n        /* \"#utility.yul\":6535:6536   */\n      0x00\n        /* \"#utility.yul\":6560:6613   */\n      tag_739\n        /* \"#utility.yul\":6605:6612   */\n      dup5\n        /* \"#utility.yul\":6596:6602   */\n      dup3\n        /* \"#utility.yul\":6585:6594   */\n      dup6\n        /* \"#utility.yul\":6581:6603   */\n      add\n        /* \"#utility.yul\":6560:6613   */\n      tag_615\n      jump\t// in\n    tag_739:\n        /* \"#utility.yul\":6550:6613   */\n      swap2\n      pop\n        /* \"#utility.yul\":6506:6623   */\n      pop\n        /* \"#utility.yul\":6301:6630   */\n      swap3\n      swap2\n      pop\n      pop\n      jump\t// out\n        /* \"#utility.yul\":6636:7110   */\n    tag_71:\n        /* \"#utility.yul\":6704:6710   */\n      0x00\n        /* \"#utility.yul\":6712:6718   */\n      0x00\n        /* \"#utility.yul\":6761:6763   */\n      0x40\n        /* \"#utility.yul\":6749:6758   */\n      dup4\n        /* \"#utility.yul\":6740:6747   */\n      dup6\n        /* \"#utility.yul\":6736:6759   */\n      sub\n        /* \"#utility.yul\":6732:6764   */\n      slt\n        /* \"#utility.yul\":6729:6848   */\n      iszero\n      tag_741\n      jumpi\n        /* \"#utility.yul\":6767:6846   */\n      tag_742\n      tag_599\n      jump\t// in\n    tag_742:\n        /* \"#utility.yul\":6729:6848   */\n    tag_741:\n        /* \"#utility.yul\":6887:6888   */\n      0x00\n        /* \"#utility.yul\":6912:6965   */\n      tag_743\n        /* \"#utility.yul\":6957:6964   */\n      dup6\n        /* \"#utility.yul\":6948:6954   */\n      dup3\n        /* \"#utility.yul\":6937:6946   */\n      dup7\n        /* \"#utility.yul\":6933:6955   */\n      add\n        /* \"#utility.yul\":6912:6965   */\n      tag_604\n      jump\t// in\n    tag_743:\n        /* \"#utility.yul\":6902:6965   */\n      swap3\n      pop\n        /* \"#utility.yul\":6858:6975   */\n      pop\n        /* \"#utility.yul\":7014:7016   */\n      0x20\n        /* \"#utility.yul\":7040:7093   */\n      tag_744\n        /* \"#utility.yul\":7085:7092   */\n      dup6\n        /* \"#utility.yul\":7076:7082   */\n      dup3\n        /* \"#utility.yul\":7065:7074   */\n      dup7\n        /* \"#utility.yul\":7061:7083   */\n      add\n        /* \"#utility.yul\":7040:7093   */\n      tag_615\n      jump\t// in\n    tag_744:\n        /* \"#utility.yul\":7030:7093   */\n      swap2\n      pop\n        /* \"#utility.yul\":6985:7103   */\n      pop\n        /* \"#utility.yul\":6636:7110   */\n      swap3\n      pop\n      swap3\n      swap1\n      pop\n      jump\t// out\n        /* \"#utility.yul\":7116:7338   */\n    tag_74:\n        /* \"#utility.yul\":7209:7213   */\n      0x00\n        /* \"#utility.yul\":7247:7249   */\n      0x20\n        /* \"#utility.yul\":7236:7245   */\n      dup3\n        /* \"#utility.yul\":7232:7250   */\n      add\n        /* \"#utility.yul\":7224:7250   */\n      swap1\n      pop\n        /* \"#utility.yul\":7260:7331   */\n      tag_746\n        /* \"#utility.yul\":7328:7329   */\n      0x00\n        /* \"#utility.yul\":7317:7326   */\n      dup4\n        /* \"#utility.yul\":7313:7330   */\n      add\n        /* \"#utility.yul\":7304:7310   */\n      dup5\n        /* \"#utility.yul\":7260:7331   */\n      tag_613\n      jump\t// in\n    tag_746:\n        /* \"#utility.yul\":7116:7338   */\n      swap3\n      swap2\n      pop\n      pop\n      jump\t// out\n        /* \"#utility.yul\":7344:7434   */\n    tag_616:\n        /* \"#utility.yul\":7378:7385   */\n      0x00\n        /* \"#utility.yul\":7421:7426   */\n      dup2\n        /* \"#utility.yul\":7414:7427   */\n      iszero\n        /* \"#utility.yul\":7407:7428   */\n      iszero\n        /* \"#utility.yul\":7396:7428   */\n      swap1\n      pop\n        /* \"#utility.yul\":7344:7434   */\n      swap2\n      swap1\n      pop\n      jump\t// out\n        /* \"#utility.yul\":7440:7549   */\n    tag_617:\n        /* \"#utility.yul\":7521:7542   */\n      tag_749\n        /* \"#utility.yul\":7536:7541   */\n      dup2\n        /* \"#utility.yul\":7521:7542   */\n      tag_616\n      jump\t// in\n    tag_749:\n        /* \"#utility.yul\":7516:7519   */\n      dup3\n        /* \"#utility.yul\":7509:7543   */\n      mstore\n        /* \"#utility.yul\":7440:7549   */\n      pop\n      pop\n      jump\t// out\n        /* \"#utility.yul\":7555:7765   */\n    tag_80:\n        /* \"#utility.yul\":7642:7646   */\n      0x00\n        /* \"#utility.yul\":7680:7682   */\n      0x20\n        /* \"#utility.yul\":7669:7678   */\n      dup3\n        /* \"#utility.yul\":7665:7683   */\n      add\n        /* \"#utility.yul\":7657:7683   */\n      swap1\n      pop\n        /* \"#utility.yul\":7693:7758   */\n      tag_751\n        /* \"#utility.yul\":7755:7756   */\n      0x00\n        /* \"#utility.yul\":7744:7753   */\n      dup4\n        /* \"#utility.yul\":7740:7757   */\n      add\n        /* \"#utility.yul\":7731:7737   */\n      dup5\n        /* \"#utility.yul\":7693:7758   */\n      tag_617\n      jump\t// in\n    tag_751:\n        /* \"#utility.yul\":7555:7765   */\n      swap3\n      swap2\n      pop\n      pop\n      jump\t// out\n        /* \"#utility.yul\":7771:8245   */\n    tag_84:\n        /* \"#utility.yul\":7839:7845   */\n      0x00\n        /* \"#utility.yul\":7847:7853   */\n      0x00\n        /* \"#utility.yul\":7896:7898   */\n      0x40\n        /* \"#utility.yul\":7884:7893   */\n      dup4\n        /* \"#utility.yul\":7875:7882   */\n      dup6\n        /* \"#utility.yul\":7871:7894   */\n      sub\n        /* \"#utility.yul\":7867:7899   */\n      slt\n        /* \"#utility.yul\":7864:7983   */\n      iszero\n      tag_753\n      jumpi\n        /* \"#utility.yul\":7902:7981   */\n      tag_754\n      tag_599\n      jump\t// in\n    tag_754:\n        /* \"#utility.yul\":7864:7983   */\n    tag_753:\n        /* \"#utility.yul\":8022:8023   */\n      0x00\n        /* \"#utility.yul\":8047:8100   */\n      tag_755\n        /* \"#utility.yul\":8092:8099   */\n      dup6\n        /* \"#utility.yul\":8083:8089   */\n      dup3\n        /* \"#utility.yul\":8072:8081   */\n      dup7\n        /* \"#utility.yul\":8068:8090   */\n      add\n        /* \"#utility.yul\":8047:8100   */\n      tag_615\n      jump\t// in\n    tag_755:\n        /* \"#utility.yul\":8037:8100   */\n      swap3\n      pop\n        /* \"#utility.yul\":7993:8110   */\n      pop\n        /* \"#utility.yul\":8149:8151   */\n      0x20\n        /* \"#utility.yul\":8175:8228   */\n      tag_756\n        /* \"#utility.yul\":8220:8227   */\n      dup6\n        /* \"#utility.yul\":8211:8217   */\n      dup3\n        /* \"#utility.yul\":8200:8209   */\n      dup7\n        /* \"#utility.yul\":8196:8218   */\n      add\n        /* \"#utility.yul\":8175:8228   */\n      tag_615\n      jump\t// in\n    tag_756:\n        /* \"#utility.yul\":8165:8228   */\n      swap2\n      pop\n        /* \"#utility.yul\":8120:8238   */\n      pop\n        /* \"#utility.yul\":7771:8245   */\n      swap3\n      pop\n      swap3\n      swap1\n      pop\n      jump\t// out\n        /* \"#utility.yul\":8251:8368   */\n    tag_618:\n        /* \"#utility.yul\":8360:8361   */\n      0x00\n        /* \"#utility.yul\":8357:8358   */\n      0x00\n        /* \"#utility.yul\":8350:8362   */\n      revert\n        /* \"#utility.yul\":8374:8491   */\n    tag_619:\n        /* \"#utility.yul\":8483:8484   */\n      0x00\n        /* \"#utility.yul\":8480:8481   */\n      0x00\n        /* \"#utility.yul\":8473:8485   */\n      revert\n        /* \"#utility.yul\":8497:8614   */\n    tag_620:\n        /* \"#utility.yul\":8606:8607   */\n      0x00\n        /* \"#utility.yul\":8603:8604   */\n      0x00\n        /* \"#utility.yul\":8596:8608   */\n      revert\n        /* \"#utility.yul\":8634:9187   */\n    tag_621:\n        /* \"#utility.yul\":8692:8700   */\n      0x00\n        /* \"#utility.yul\":8702:8708   */\n      0x00\n        /* \"#utility.yul\":8752:8755   */\n      dup4\n        /* \"#utility.yul\":8745:8749   */\n      0x1f\n        /* \"#utility.yul\":8737:8743   */\n      dup5\n        /* \"#utility.yul\":8733:8750   */\n      add\n        /* \"#utility.yul\":8729:8756   */\n      slt\n        /* \"#utility.yul\":8719:8841   */\n      tag_761\n      jumpi\n        /* \"#utility.yul\":8760:8839   */\n      tag_762\n      tag_618\n      jump\t// in\n    tag_762:\n        /* \"#utility.yul\":8719:8841   */\n    tag_761:\n        /* \"#utility.yul\":8873:8879   */\n      dup3\n        /* \"#utility.yul\":8860:8880   */\n      calldataload\n        /* \"#utility.yul\":8850:8880   */\n      swap1\n      pop\n        /* \"#utility.yul\":8903:8921   */\n      0xffffffffffffffff\n        /* \"#utility.yul\":8895:8901   */\n      dup2\n        /* \"#utility.yul\":8892:8922   */\n      gt\n        /* \"#utility.yul\":8889:9006   */\n      iszero\n      tag_763\n      jumpi\n        /* \"#utility.yul\":8925:9004   */\n      tag_764\n      tag_619\n      jump\t// in\n    tag_764:\n        /* \"#utility.yul\":8889:9006   */\n    tag_763:\n        /* \"#utility.yul\":9039:9043   */\n      0x20\n        /* \"#utility.yul\":9031:9037   */\n      dup4\n        /* \"#utility.yul\":9027:9044   */\n      add\n        /* \"#utility.yul\":9015:9044   */\n      swap2\n      pop\n        /* \"#utility.yul\":9093:9096   */\n      dup4\n        /* \"#utility.yul\":9085:9089   */\n      0x01\n        /* \"#utility.yul\":9077:9083   */\n      dup3\n        /* \"#utility.yul\":9073:9090   */\n      mul\n        /* \"#utility.yul\":9063:9071   */\n      dup4\n        /* \"#utility.yul\":9059:9091   */\n      add\n        /* \"#utility.yul\":9056:9097   */\n      gt\n        /* \"#utility.yul\":9053:9181   */\n      iszero\n      tag_765\n      jumpi\n        /* \"#utility.yul\":9100:9179   */\n      tag_766\n      tag_620\n      jump\t// in\n    tag_766:\n        /* \"#utility.yul\":9053:9181   */\n    tag_765:\n        /* \"#utility.yul\":8634:9187   */\n      swap3\n      pop\n      swap3\n      swap1\n      pop\n      jump\t// out\n        /* \"#utility.yul\":9193:9867   */\n    tag_102:\n        /* \"#utility.yul\":9273:9279   */\n      0x00\n        /* \"#utility.yul\":9281:9287   */\n      0x00\n        /* \"#utility.yul\":9289:9295   */\n      0x00\n        /* \"#utility.yul\":9338:9340   */\n      0x40\n        /* \"#utility.yul\":9326:9335   */\n      dup5\n        /* \"#utility.yul\":9317:9324   */\n      dup7\n        /* \"#utility.yul\":9313:9336   */\n      sub\n        /* \"#utility.yul\":9309:9341   */\n      slt\n        /* \"#utility.yul\":9306:9425   */\n      iszero\n      tag_768\n      jumpi\n        /* \"#utility.yul\":9344:9423   */\n      tag_769\n      tag_599\n      jump\t// in\n    tag_769:\n        /* \"#utility.yul\":9306:9425   */\n    tag_768:\n        /* \"#utility.yul\":9464:9465   */\n      0x00\n        /* \"#utility.yul\":9489:9542   */\n      tag_770\n        /* \"#utility.yul\":9534:9541   */\n      dup7\n        /* \"#utility.yul\":9525:9531   */\n      dup3\n        /* \"#utility.yul\":9514:9523   */\n      dup8\n        /* \"#utility.yul\":9510:9532   */\n      add\n        /* \"#utility.yul\":9489:9542   */\n      tag_615\n      jump\t// in\n    tag_770:\n        /* \"#utility.yul\":9479:9542   */\n      swap4\n      pop\n        /* \"#utility.yul\":9435:9552   */\n      pop\n        /* \"#utility.yul\":9619:9621   */\n      0x20\n        /* \"#utility.yul\":9608:9617   */\n      dup5\n        /* \"#utility.yul\":9604:9622   */\n      add\n        /* \"#utility.yul\":9591:9623   */\n      calldataload\n        /* \"#utility.yul\":9650:9668   */\n      0xffffffffffffffff\n        /* \"#utility.yul\":9642:9648   */\n      dup2\n        /* \"#utility.yul\":9639:9669   */\n      gt\n        /* \"#utility.yul\":9636:9753   */\n      iszero\n      tag_771\n      jumpi\n        /* \"#utility.yul\":9672:9751   */\n      tag_772\n      tag_600\n      jump\t// in\n    tag_772:\n        /* \"#utility.yul\":9636:9753   */\n    tag_771:\n        /* \"#utility.yul\":9785:9850   */\n      tag_773\n        /* \"#utility.yul\":9842:9849   */\n      dup7\n        /* \"#utility.yul\":9833:9839   */\n      dup3\n        /* \"#utility.yul\":9822:9831   */\n      dup8\n        /* \"#utility.yul\":9818:9840   */\n      add\n        /* \"#utility.yul\":9785:9850   */\n      tag_621\n      jump\t// in\n    tag_773:\n        /* \"#utility.yul\":9767:9850   */\n      swap3\n      pop\n      swap3\n      pop\n        /* \"#utility.yul\":9562:9860   */\n      pop\n        /* \"#utility.yul\":9193:9867   */\n      swap3\n      pop\n      swap3\n      pop\n      swap3\n      jump\t// out\n        /* \"#utility.yul\":9873:10347   */\n    tag_107:\n        /* \"#utility.yul\":9941:9947   */\n      0x00\n        /* \"#utility.yul\":9949:9955   */\n      0x00\n        /* \"#utility.yul\":9998:10000   */\n      0x40\n        /* \"#utility.yul\":9986:9995   */\n      dup4\n        /* \"#utility.yul\":9977:9984   */\n      dup6\n        /* \"#utility.yul\":9973:9996   */\n      sub\n        /* \"#utility.yul\":9969:10001   */\n      slt\n        /* \"#utility.yul\":9966:10085   */\n      iszero\n      tag_775\n      jumpi\n        /* \"#utility.yul\":10004:10083   */\n      tag_776\n      tag_599\n      jump\t// in\n    tag_776:\n        /* \"#utility.yul\":9966:10085   */\n    tag_775:\n        /* \"#utility.yul\":10124:10125   */\n      0x00\n        /* \"#utility.yul\":10149:10202   */\n      tag_777\n        /* \"#utility.yul\":10194:10201   */\n      dup6\n        /* \"#utility.yul\":10185:10191   */\n      dup3\n        /* \"#utility.yul\":10174:10183   */\n      dup7\n        /* \"#utility.yul\":10170:10192   */\n      add\n        /* \"#utility.yul\":10149:10202   */\n      tag_615\n      jump\t// in\n    tag_777:\n        /* \"#utility.yul\":10139:10202   */\n      swap3\n      pop\n        /* \"#utility.yul\":10095:10212   */\n      pop\n        /* \"#utility.yul\":10251:10253   */\n      0x20\n        /* \"#utility.yul\":10277:10330   */\n      tag_778\n        /* \"#utility.yul\":10322:10329   */\n      dup6\n        /* \"#utility.yul\":10313:10319   */\n      dup3\n        /* \"#utility.yul\":10302:10311   */\n      dup7\n        /* \"#utility.yul\":10298:10320   */\n      add\n        /* \"#utility.yul\":10277:10330   */\n      tag_604\n      jump\t// in\n    tag_778:\n        /* \"#utility.yul\":10267:10330   */\n      swap2\n      pop\n        /* \"#utility.yul\":10222:10340   */\n      pop\n        /* \"#utility.yul\":9873:10347   */\n      swap3\n      pop\n      swap3\n      swap1\n      pop\n      jump\t// out\n        /* \"#utility.yul\":10353:10413   */\n    tag_622:\n        /* \"#utility.yul\":10381:10384   */\n      0x00\n        /* \"#utility.yul\":10402:10407   */\n      dup2\n        /* \"#utility.yul\":10395:10407   */\n      swap1\n      pop\n        /* \"#utility.yul\":10353:10413   */\n      swap2\n      swap1\n      pop\n      jump\t// out\n        /* \"#utility.yul\":10419:10561   */\n    tag_623:\n        /* \"#utility.yul\":10469:10478   */\n      0x00\n        /* \"#utility.yul\":10502:10555   */\n      tag_781\n        /* \"#utility.yul\":10520:10554   */\n      tag_782\n        /* \"#utility.yul\":10529:10553   */\n      tag_783\n        /* \"#utility.yul\":10547:10552   */\n      dup5\n        /* \"#utility.yul\":10529:10553   */\n      tag_601\n      jump\t// in\n    tag_783:\n        /* \"#utility.yul\":10520:10554   */\n      tag_622\n      jump\t// in\n    tag_782:\n        /* \"#utility.yul\":10502:10555   */\n      tag_601\n      jump\t// in\n    tag_781:\n        /* \"#utility.yul\":10489:10555   */\n      swap1\n      pop\n        /* \"#utility.yul\":10419:10561   */\n      swap2\n      swap1\n      pop\n      jump\t// out\n        /* \"#utility.yul\":10567:10693   */\n    tag_624:\n        /* \"#utility.yul\":10617:10626   */\n      0x00\n        /* \"#utility.yul\":10650:10687   */\n      tag_785\n        /* \"#utility.yul\":10681:10686   */\n      dup3\n        /* \"#utility.yul\":10650:10687   */\n      tag_623\n      jump\t// in\n    tag_785:\n        /* \"#utility.yul\":10637:10687   */\n      swap1\n      pop\n        /* \"#utility.yul\":10567:10693   */\n      swap2\n      swap1\n      pop\n      jump\t// out\n        /* \"#utility.yul\":10699:10845   */\n    tag_625:\n        /* \"#utility.yul\":10769:10778   */\n      0x00\n        /* \"#utility.yul\":10802:10839   */\n      tag_787\n        /* \"#utility.yul\":10833:10838   */\n      dup3\n        /* \"#utility.yul\":10802:10839   */\n      tag_624\n      jump\t// in\n    tag_787:\n        /* \"#utility.yul\":10789:10839   */\n      swap1\n      pop\n        /* \"#utility.yul\":10699:10845   */\n      swap2\n      swap1\n      pop\n      jump\t// out\n        /* \"#utility.yul\":10851:11022   */\n    tag_626:\n        /* \"#utility.yul\":10958:11015   */\n      tag_789\n        /* \"#utility.yul\":11009:11014   */\n      dup2\n        /* \"#utility.yul\":10958:11015   */\n      tag_625\n      jump\t// in\n    tag_789:\n        /* \"#utility.yul\":10953:10956   */\n      dup3\n        /* \"#utility.yul\":10946:11016   */\n      mstore\n        /* \"#utility.yul\":10851:11022   */\n      pop\n      pop\n      jump\t// out\n        /* \"#utility.yul\":11028:11290   */\n    tag_117:\n        /* \"#utility.yul\":11141:11145   */\n      0x00\n        /* \"#utility.yul\":11179:11181   */\n      0x20\n        /* \"#utility.yul\":11168:11177   */\n      dup3\n        /* \"#utility.yul\":11164:11182   */\n      add\n        /* \"#utility.yul\":11156:11182   */\n      swap1\n      pop\n        /* \"#utility.yul\":11192:11283   */\n      tag_791\n        /* \"#utility.yul\":11280:11281   */\n      0x00\n        /* \"#utility.yul\":11269:11278   */\n      dup4\n        /* \"#utility.yul\":11265:11282   */\n      add\n        /* \"#utility.yul\":11256:11262   */\n      dup5\n        /* \"#utility.yul\":11192:11283   */\n      tag_626\n      jump\t// in\n    tag_791:\n        /* \"#utility.yul\":11028:11290   */\n      swap3\n      swap2\n      pop\n      pop\n      jump\t// out\n        /* \"#utility.yul\":11296:11413   */\n    tag_627:\n        /* \"#utility.yul\":11405:11406   */\n      0x00\n        /* \"#utility.yul\":11402:11403   */\n      0x00\n        /* \"#utility.yul\":11395:11407   */\n      revert\n        /* \"#utility.yul\":11419:11521   */\n    tag_628:\n        /* \"#utility.yul\":11460:11466   */\n      0x00\n        /* \"#utility.yul\":11511:11513   */\n      0x1f\n        /* \"#utility.yul\":11507:11514   */\n      not\n        /* \"#utility.yul\":11502:11504   */\n      0x1f\n        /* \"#utility.yul\":11495:11500   */\n      dup4\n        /* \"#utility.yul\":11491:11505   */\n      add\n        /* \"#utility.yul\":11487:11515   */\n      and\n        /* \"#utility.yul\":11477:11515   */\n      swap1\n      pop\n        /* \"#utility.yul\":11419:11521   */\n      swap2\n      swap1\n      pop\n      jump\t// out\n        /* \"#utility.yul\":11527:11707   */\n    tag_629:\n        /* \"#utility.yul\":11575:11652   */\n      0x4e487b7100000000000000000000000000000000000000000000000000000000\n        /* \"#utility.yul\":11572:11573   */\n      0x00\n        /* \"#utility.yul\":11565:11653   */\n      mstore\n        /* \"#utility.yul\":11672:11676   */\n      0x41\n        /* \"#utility.yul\":11669:11670   */\n      0x04\n        /* \"#utility.yul\":11662:11677   */\n      mstore\n        /* \"#utility.yul\":11696:11700   */\n      0x24\n        /* \"#utility.yul\":11693:11694   */\n      0x00\n        /* \"#utility.yul\":11686:11701   */\n      revert\n        /* \"#utility.yul\":11713:11994   */\n    tag_630:\n        /* \"#utility.yul\":11796:11823   */\n      tag_796\n        /* \"#utility.yul\":11818:11822   */\n      dup3\n        /* \"#utility.yul\":11796:11823   */\n      tag_628\n      jump\t// in\n    tag_796:\n        /* \"#utility.yul\":11788:11794   */\n      dup2\n        /* \"#utility.yul\":11784:11824   */\n      add\n        /* \"#utility.yul\":11926:11932   */\n      dup2\n        /* \"#utility.yul\":11914:11924   */\n      dup2\n        /* \"#utility.yul\":11911:11933   */\n      lt\n        /* \"#utility.yul\":11890:11908   */\n      0xffffffffffffffff\n        /* \"#utility.yul\":11878:11888   */\n      dup3\n        /* \"#utility.yul\":11875:11909   */\n      gt\n        /* \"#utility.yul\":11872:11934   */\n      or\n        /* \"#utility.yul\":11869:11957   */\n      iszero\n      tag_797\n      jumpi\n        /* \"#utility.yul\":11937:11955   */\n      tag_798\n      tag_629\n      jump\t// in\n    tag_798:\n        /* \"#utility.yul\":11869:11957   */\n    tag_797:\n        /* \"#utility.yul\":11977:11987   */\n      dup1\n        /* \"#utility.yul\":11973:11975   */\n      0x40\n        /* \"#utility.yul\":11966:11988   */\n      mstore\n        /* \"#utility.yul\":11756:11994   */\n      pop\n        /* \"#utility.yul\":11713:11994   */\n      pop\n      pop\n      jump\t// out\n        /* \"#utility.yul\":12000:12129   */\n    tag_631:\n        /* \"#utility.yul\":12034:12040   */\n      0x00\n        /* \"#utility.yul\":12061:12081   */\n      tag_800\n      tag_598\n      jump\t// in\n    tag_800:\n        /* \"#utility.yul\":12051:12081   */\n      swap1\n      pop\n        /* \"#utility.yul\":12090:12123   */\n      tag_801\n        /* \"#utility.yul\":12118:12122   */\n      dup3\n        /* \"#utility.yul\":12110:12116   */\n      dup3\n        /* \"#utility.yul\":12090:12123   */\n      tag_630\n      jump\t// in\n    tag_801:\n        /* \"#utility.yul\":12000:12129   */\n      swap2\n      swap1\n      pop\n      jump\t// out\n        /* \"#utility.yul\":12135:12443   */\n    tag_632:\n        /* \"#utility.yul\":12197:12201   */\n      0x00\n        /* \"#utility.yul\":12287:12305   */\n      0xffffffffffffffff\n        /* \"#utility.yul\":12279:12285   */\n      dup3\n        /* \"#utility.yul\":12276:12306   */\n      gt\n        /* \"#utility.yul\":12273:12329   */\n      iszero\n      tag_803\n      jumpi\n        /* \"#utility.yul\":12309:12327   */\n      tag_804\n      tag_629\n      jump\t// in\n    tag_804:\n        /* \"#utility.yul\":12273:12329   */\n    tag_803:\n        /* \"#utility.yul\":12347:12376   */\n      tag_805\n        /* \"#utility.yul\":12369:12375   */\n      dup3\n        /* \"#utility.yul\":12347:12376   */\n      tag_628\n      jump\t// in\n    tag_805:\n        /* \"#utility.yul\":12339:12376   */\n      swap1\n      pop\n        /* \"#utility.yul\":12431:12435   */\n      0x20\n        /* \"#utility.yul\":12425:12429   */\n      dup2\n        /* \"#utility.yul\":12421:12436   */\n      add\n        /* \"#utility.yul\":12413:12436   */\n      swap1\n      pop\n        /* \"#utility.yul\":12135:12443   */\n      swap2\n      swap1\n      pop\n      jump\t// out\n        /* \"#utility.yul\":12449:12597   */\n    tag_633:\n        /* \"#utility.yul\":12547:12553   */\n      dup3\n        /* \"#utility.yul\":12542:12545   */\n      dup2\n        /* \"#utility.yul\":12537:12540   */\n      dup4\n        /* \"#utility.yul\":12524:12554   */\n      calldatacopy\n        /* \"#utility.yul\":12588:12589   */\n      0x00\n        /* \"#utility.yul\":12579:12585   */\n      dup4\n        /* \"#utility.yul\":12574:12577   */\n      dup4\n        /* \"#utility.yul\":12570:12586   */\n      add\n        /* \"#utility.yul\":12563:12590   */\n      mstore\n        /* \"#utility.yul\":12449:12597   */\n      pop\n      pop\n      pop\n      jump\t// out\n        /* \"#utility.yul\":12603:13028   */\n    tag_634:\n        /* \"#utility.yul\":12681:12686   */\n      0x00\n        /* \"#utility.yul\":12706:12772   */\n      tag_808\n        /* \"#utility.yul\":12722:12771   */\n      tag_809\n        /* \"#utility.yul\":12764:12770   */\n      dup5\n        /* \"#utility.yul\":12722:12771   */\n      tag_632\n      jump\t// in\n    tag_809:\n        /* \"#utility.yul\":12706:12772   */\n      tag_631\n      jump\t// in\n    tag_808:\n        /* \"#utility.yul\":12697:12772   */\n      swap1\n      pop\n        /* \"#utility.yul\":12795:12801   */\n      dup3\n        /* \"#utility.yul\":12788:12793   */\n      dup2\n        /* \"#utility.yul\":12781:12802   */\n      mstore\n        /* \"#utility.yul\":12833:12837   */\n      0x20\n        /* \"#utility.yul\":12826:12831   */\n      dup2\n        /* \"#utility.yul\":12822:12838   */\n      add\n        /* \"#utility.yul\":12871:12874   */\n      dup5\n        /* \"#utility.yul\":12862:12868   */\n      dup5\n        /* \"#utility.yul\":12857:12860   */\n      dup5\n        /* \"#utility.yul\":12853:12869   */\n      add\n        /* \"#utility.yul\":12850:12875   */\n      gt\n        /* \"#utility.yul\":12847:12959   */\n      iszero\n      tag_810\n      jumpi\n        /* \"#utility.yul\":12878:12957   */\n      tag_811\n      tag_627\n      jump\t// in\n    tag_811:\n        /* \"#utility.yul\":12847:12959   */\n    tag_810:\n        /* \"#utility.yul\":12968:13022   */\n      tag_812\n        /* \"#utility.yul\":13015:13021   */\n      dup5\n        /* \"#utility.yul\":13010:13013   */\n      dup3\n        /* \"#utility.yul\":13005:13008   */\n      dup6\n        /* \"#utility.yul\":12968:13022   */\n      tag_633\n      jump\t// in\n    tag_812:\n        /* \"#utility.yul\":12687:13028   */\n      pop\n        /* \"#utility.yul\":12603:13028   */\n      swap4\n      swap3\n      pop\n      pop\n      pop\n      jump\t// out\n        /* \"#utility.yul\":13048:13388   */\n    tag_635:\n        /* \"#utility.yul\":13104:13109   */\n      0x00\n        /* \"#utility.yul\":13153:13156   */\n      dup3\n        /* \"#utility.yul\":13146:13150   */\n      0x1f\n        /* \"#utility.yul\":13138:13144   */\n      dup4\n        /* \"#utility.yul\":13134:13151   */\n      add\n        /* \"#utility.yul\":13130:13157   */\n      slt\n        /* \"#utility.yul\":13120:13242   */\n      tag_814\n      jumpi\n        /* \"#utility.yul\":13161:13240   */\n      tag_815\n      tag_618\n      jump\t// in\n    tag_815:\n        /* \"#utility.yul\":13120:13242   */\n    tag_814:\n        /* \"#utility.yul\":13278:13284   */\n      dup2\n        /* \"#utility.yul\":13265:13285   */\n      calldataload\n        /* \"#utility.yul\":13303:13382   */\n      tag_816\n        /* \"#utility.yul\":13378:13381   */\n      dup5\n        /* \"#utility.yul\":13370:13376   */\n      dup3\n        /* \"#utility.yul\":13363:13367   */\n      0x20\n        /* \"#utility.yul\":13355:13361   */\n      dup7\n        /* \"#utility.yul\":13351:13368   */\n      add\n        /* \"#utility.yul\":13303:13382   */\n      tag_634\n      jump\t// in\n    tag_816:\n        /* \"#utility.yul\":13294:13382   */\n      swap2\n      pop\n        /* \"#utility.yul\":13110:13388   */\n      pop\n        /* \"#utility.yul\":13048:13388   */\n      swap3\n      swap2\n      pop\n      pop\n      jump\t// out\n        /* \"#utility.yul\":13394:14339   */\n    tag_121:\n        /* \"#utility.yul\":13490:13496   */\n      0x00\n        /* \"#utility.yul\":13498:13504   */\n      0x00\n        /* \"#utility.yul\":13506:13512   */\n      0x00\n        /* \"#utility.yul\":13514:13520   */\n      0x00\n        /* \"#utility.yul\":13563:13566   */\n      0x80\n        /* \"#utility.yul\":13551:13560   */\n      dup6\n        /* \"#utility.yul\":13542:13549   */\n      dup8\n        /* \"#utility.yul\":13538:13561   */\n      sub\n        /* \"#utility.yul\":13534:13567   */\n      slt\n        /* \"#utility.yul\":13531:13651   */\n      iszero\n      tag_818\n      jumpi\n        /* \"#utility.yul\":13570:13649   */\n      tag_819\n      tag_599\n      jump\t// in\n    tag_819:\n        /* \"#utility.yul\":13531:13651   */\n    tag_818:\n        /* \"#utility.yul\":13690:13691   */\n      0x00\n        /* \"#utility.yul\":13715:13768   */\n      tag_820\n        /* \"#utility.yul\":13760:13767   */\n      dup8\n        /* \"#utility.yul\":13751:13757   */\n      dup3\n        /* \"#utility.yul\":13740:13749   */\n      dup9\n        /* \"#utility.yul\":13736:13758   */\n      add\n        /* \"#utility.yul\":13715:13768   */\n      tag_604\n      jump\t// in\n    tag_820:\n        /* \"#utility.yul\":13705:13768   */\n      swap5\n      pop\n        /* \"#utility.yul\":13661:13778   */\n      pop\n        /* \"#utility.yul\":13817:13819   */\n      0x20\n        /* \"#utility.yul\":13843:13896   */\n      tag_821\n        /* \"#utility.yul\":13888:13895   */\n      dup8\n        /* \"#utility.yul\":13879:13885   */\n      dup3\n        /* \"#utility.yul\":13868:13877   */\n      dup9\n        /* \"#utility.yul\":13864:13886   */\n      add\n        /* \"#utility.yul\":13843:13896   */\n      tag_604\n      jump\t// in\n    tag_821:\n        /* \"#utility.yul\":13833:13896   */\n      swap4\n      pop\n        /* \"#utility.yul\":13788:13906   */\n      pop\n        /* \"#utility.yul\":13973:13975   */\n      0x40\n        /* \"#utility.yul\":13962:13971   */\n      dup6\n        /* \"#utility.yul\":13958:13976   */\n      add\n        /* \"#utility.yul\":13945:13977   */\n      calldataload\n        /* \"#utility.yul\":14004:14022   */\n      0xffffffffffffffff\n        /* \"#utility.yul\":13996:14002   */\n      dup2\n        /* \"#utility.yul\":13993:14023   */\n      gt\n        /* \"#utility.yul\":13990:14107   */\n      iszero\n      tag_822\n      jumpi\n        /* \"#utility.yul\":14026:14105   */\n      tag_823\n      tag_600\n      jump\t// in\n    tag_823:\n        /* \"#utility.yul\":13990:14107   */\n    tag_822:\n        /* \"#utility.yul\":14131:14194   */\n      tag_824\n        /* \"#utility.yul\":14186:14193   */\n      dup8\n        /* \"#utility.yul\":14177:14183   */\n      dup3\n        /* \"#utility.yul\":14166:14175   */\n      dup9\n        /* \"#utility.yul\":14162:14184   */\n      add\n        /* \"#utility.yul\":14131:14194   */\n      tag_635\n      jump\t// in\n    tag_824:\n        /* \"#utility.yul\":14121:14194   */\n      swap3\n      pop\n        /* \"#utility.yul\":13916:14204   */\n      pop\n        /* \"#utility.yul\":14243:14245   */\n      0x60\n        /* \"#utility.yul\":14269:14322   */\n      tag_825\n        /* \"#utility.yul\":14314:14321   */\n      dup8\n        /* \"#utility.yul\":14305:14311   */\n      dup3\n        /* \"#utility.yul\":14294:14303   */\n      dup9\n        /* \"#utility.yul\":14290:14312   */\n      add\n        /* \"#utility.yul\":14269:14322   */\n      tag_615\n      jump\t// in\n    tag_825:\n        /* \"#utility.yul\":14259:14322   */\n      swap2\n      pop\n        /* \"#utility.yul\":14214:14332   */\n      pop\n        /* \"#utility.yul\":13394:14339   */\n      swap3\n      swap6\n      swap2\n      swap5\n      pop\n      swap3\n      pop\n      jump\t// out\n        /* \"#utility.yul\":14345:14463   */\n    tag_636:\n        /* \"#utility.yul\":14432:14456   */\n      tag_827\n        /* \"#utility.yul\":14450:14455   */\n      dup2\n        /* \"#utility.yul\":14432:14456   */\n      tag_602\n      jump\t// in\n    tag_827:\n        /* \"#utility.yul\":14427:14430   */\n      dup3\n        /* \"#utility.yul\":14420:14457   */\n      mstore\n        /* \"#utility.yul\":14345:14463   */\n      pop\n      pop\n      jump\t// out\n        /* \"#utility.yul\":14469:14691   */\n    tag_132:\n        /* \"#utility.yul\":14562:14566   */\n      0x00\n        /* \"#utility.yul\":14600:14602   */\n      0x20\n        /* \"#utility.yul\":14589:14598   */\n      dup3\n        /* \"#utility.yul\":14585:14603   */\n      add\n        /* \"#utility.yul\":14577:14603   */\n      swap1\n      pop\n        /* \"#utility.yul\":14613:14684   */\n      tag_829\n        /* \"#utility.yul\":14681:14682   */\n      0x00\n        /* \"#utility.yul\":14670:14679   */\n      dup4\n        /* \"#utility.yul\":14666:14683   */\n      add\n        /* \"#utility.yul\":14657:14663   */\n      dup5\n        /* \"#utility.yul\":14613:14684   */\n      tag_636\n      jump\t// in\n    tag_829:\n        /* \"#utility.yul\":14469:14691   */\n      swap3\n      swap2\n      pop\n      pop\n      jump\t// out\n        /* \"#utility.yul\":14697:14877   */\n    tag_227:\n        /* \"#utility.yul\":14745:14822   */\n      0x4e487b7100000000000000000000000000000000000000000000000000000000\n        /* \"#utility.yul\":14742:14743   */\n      0x00\n        /* \"#utility.yul\":14735:14823   */\n      mstore\n        /* \"#utility.yul\":14842:14846   */\n      0x21\n        /* \"#utility.yul\":14839:14840   */\n      0x04\n        /* \"#utility.yul\":14832:14847   */\n      mstore\n        /* \"#utility.yul\":14866:14870   */\n      0x24\n        /* \"#utility.yul\":14863:14864   */\n      0x00\n        /* \"#utility.yul\":14856:14871   */\n      revert\n        /* \"#utility.yul\":14883:15005   */\n    tag_637:\n        /* \"#utility.yul\":14973:14974   */\n      0x06\n        /* \"#utility.yul\":14966:14971   */\n      dup2\n        /* \"#utility.yul\":14963:14975   */\n      lt\n        /* \"#utility.yul\":14953:14999   */\n      tag_832\n      jumpi\n        /* \"#utility.yul\":14979:14997   */\n      tag_833\n      tag_227\n      jump\t// in\n    tag_833:\n        /* \"#utility.yul\":14953:14999   */\n    tag_832:\n        /* \"#utility.yul\":14883:15005   */\n      pop\n      jump\t// out\n        /* \"#utility.yul\":15011:15156   */\n    tag_638:\n        /* \"#utility.yul\":15065:15072   */\n      0x00\n        /* \"#utility.yul\":15094:15099   */\n      dup2\n        /* \"#utility.yul\":15083:15099   */\n      swap1\n      pop\n        /* \"#utility.yul\":15100:15150   */\n      tag_835\n        /* \"#utility.yul\":15144:15149   */\n      dup3\n        /* \"#utility.yul\":15100:15150   */\n      tag_637\n      jump\t// in\n    tag_835:\n        /* \"#utility.yul\":15011:15156   */\n      swap2\n      swap1\n      pop\n      jump\t// out\n        /* \"#utility.yul\":15162:15307   */\n    tag_639:\n        /* \"#utility.yul\":15227:15236   */\n      0x00\n        /* \"#utility.yul\":15260:15301   */\n      tag_837\n        /* \"#utility.yul\":15295:15300   */\n      dup3\n        /* \"#utility.yul\":15260:15301   */\n      tag_638\n      jump\t// in\n    tag_837:\n        /* \"#utility.yul\":15247:15301   */\n      swap1\n      pop\n        /* \"#utility.yul\":15162:15307   */\n      swap2\n      swap1\n      pop\n      jump\t// out\n        /* \"#utility.yul\":15313:15474   */\n    tag_640:\n        /* \"#utility.yul\":15415:15467   */\n      tag_839\n        /* \"#utility.yul\":15461:15466   */\n      dup2\n        /* \"#utility.yul\":15415:15467   */\n      tag_639\n      jump\t// in\n    tag_839:\n        /* \"#utility.yul\":15410:15413   */\n      dup3\n        /* \"#utility.yul\":15403:15468   */\n      mstore\n        /* \"#utility.yul\":15313:15474   */\n      pop\n      pop\n      jump\t// out\n        /* \"#utility.yul\":15480:15579   */\n    tag_641:\n        /* \"#utility.yul\":15532:15538   */\n      0x00\n        /* \"#utility.yul\":15566:15571   */\n      dup2\n        /* \"#utility.yul\":15560:15572   */\n      mload\n        /* \"#utility.yul\":15550:15572   */\n      swap1\n      pop\n        /* \"#utility.yul\":15480:15579   */\n      swap2\n      swap1\n      pop\n      jump\t// out\n        /* \"#utility.yul\":15585:15724   */\n    tag_642:\n        /* \"#utility.yul\":15674:15680   */\n      dup3\n        /* \"#utility.yul\":15669:15672   */\n      dup2\n        /* \"#utility.yul\":15664:15667   */\n      dup4\n        /* \"#utility.yul\":15658:15681   */\n      mcopy\n        /* \"#utility.yul\":15715:15716   */\n      0x00\n        /* \"#utility.yul\":15706:15712   */\n      dup4\n        /* \"#utility.yul\":15701:15704   */\n      dup4\n        /* \"#utility.yul\":15697:15713   */\n      add\n        /* \"#utility.yul\":15690:15717   */\n      mstore\n        /* \"#utility.yul\":15585:15724   */\n      pop\n      pop\n      pop\n      jump\t// out\n        /* \"#utility.yul\":15730:16107   */\n    tag_643:\n        /* \"#utility.yul\":15818:15821   */\n      0x00\n        /* \"#utility.yul\":15846:15885   */\n      tag_843\n        /* \"#utility.yul\":15879:15884   */\n      dup3\n        /* \"#utility.yul\":15846:15885   */\n      tag_641\n      jump\t// in\n    tag_843:\n        /* \"#utility.yul\":15901:15972   */\n      tag_844\n        /* \"#utility.yul\":15965:15971   */\n      dup2\n        /* \"#utility.yul\":15960:15963   */\n      dup6\n        /* \"#utility.yul\":15901:15972   */\n      tag_593\n      jump\t// in\n    tag_844:\n        /* \"#utility.yul\":15894:15972   */\n      swap4\n      pop\n        /* \"#utility.yul\":15981:16046   */\n      tag_845\n        /* \"#utility.yul\":16039:16045   */\n      dup2\n        /* \"#utility.yul\":16034:16037   */\n      dup6\n        /* \"#utility.yul\":16027:16031   */\n      0x20\n        /* \"#utility.yul\":16020:16025   */\n      dup7\n        /* \"#utility.yul\":16016:16032   */\n      add\n        /* \"#utility.yul\":15981:16046   */\n      tag_642\n      jump\t// in\n    tag_845:\n        /* \"#utility.yul\":16071:16100   */\n      tag_846\n        /* \"#utility.yul\":16093:16099   */\n      dup2\n        /* \"#utility.yul\":16071:16100   */\n      tag_628\n      jump\t// in\n    tag_846:\n        /* \"#utility.yul\":16066:16069   */\n      dup5\n        /* \"#utility.yul\":16062:16101   */\n      add\n        /* \"#utility.yul\":16055:16101   */\n      swap2\n      pop\n        /* \"#utility.yul\":15822:16107   */\n      pop\n        /* \"#utility.yul\":15730:16107   */\n      swap3\n      swap2\n      pop\n      pop\n      jump\t// out\n        /* \"#utility.yul\":16113:17758   */\n    tag_142:\n        /* \"#utility.yul\":16565:16569   */\n      0x00\n        /* \"#utility.yul\":16603:16606   */\n      0x0180\n        /* \"#utility.yul\":16592:16601   */\n      dup3\n        /* \"#utility.yul\":16588:16607   */\n      add\n        /* \"#utility.yul\":16580:16607   */\n      swap1\n      pop\n        /* \"#utility.yul\":16617:16688   */\n      tag_848\n        /* \"#utility.yul\":16685:16686   */\n      0x00\n        /* \"#utility.yul\":16674:16683   */\n      dup4\n        /* \"#utility.yul\":16670:16687   */\n      add\n        /* \"#utility.yul\":16661:16667   */\n      dup16\n        /* \"#utility.yul\":16617:16688   */\n      tag_613\n      jump\t// in\n    tag_848:\n        /* \"#utility.yul\":16698:16770   */\n      tag_849\n        /* \"#utility.yul\":16766:16768   */\n      0x20\n        /* \"#utility.yul\":16755:16764   */\n      dup4\n        /* \"#utility.yul\":16751:16769   */\n      add\n        /* \"#utility.yul\":16742:16748   */\n      dup15\n        /* \"#utility.yul\":16698:16770   */\n      tag_636\n      jump\t// in\n    tag_849:\n        /* \"#utility.yul\":16780:16852   */\n      tag_850\n        /* \"#utility.yul\":16848:16850   */\n      0x40\n        /* \"#utility.yul\":16837:16846   */\n      dup4\n        /* \"#utility.yul\":16833:16851   */\n      add\n        /* \"#utility.yul\":16824:16830   */\n      dup14\n        /* \"#utility.yul\":16780:16852   */\n      tag_636\n      jump\t// in\n    tag_850:\n        /* \"#utility.yul\":16862:16934   */\n      tag_851\n        /* \"#utility.yul\":16930:16932   */\n      0x60\n        /* \"#utility.yul\":16919:16928   */\n      dup4\n        /* \"#utility.yul\":16915:16933   */\n      add\n        /* \"#utility.yul\":16906:16912   */\n      dup13\n        /* \"#utility.yul\":16862:16934   */\n      tag_636\n      jump\t// in\n    tag_851:\n        /* \"#utility.yul\":16944:17017   */\n      tag_852\n        /* \"#utility.yul\":17012:17015   */\n      0x80\n        /* \"#utility.yul\":17001:17010   */\n      dup4\n        /* \"#utility.yul\":16997:17016   */\n      add\n        /* \"#utility.yul\":16988:16994   */\n      dup12\n        /* \"#utility.yul\":16944:17017   */\n      tag_613\n      jump\t// in\n    tag_852:\n        /* \"#utility.yul\":17027:17100   */\n      tag_853\n        /* \"#utility.yul\":17095:17098   */\n      0xa0\n        /* \"#utility.yul\":17084:17093   */\n      dup4\n        /* \"#utility.yul\":17080:17099   */\n      add\n        /* \"#utility.yul\":17071:17077   */\n      dup11\n        /* \"#utility.yul\":17027:17100   */\n      tag_613\n      jump\t// in\n    tag_853:\n        /* \"#utility.yul\":17110:17198   */\n      tag_854\n        /* \"#utility.yul\":17193:17196   */\n      0xc0\n        /* \"#utility.yul\":17182:17191   */\n      dup4\n        /* \"#utility.yul\":17178:17197   */\n      add\n        /* \"#utility.yul\":17169:17175   */\n      dup10\n        /* \"#utility.yul\":17110:17198   */\n      tag_640\n      jump\t// in\n    tag_854:\n        /* \"#utility.yul\":17246:17255   */\n      dup2\n        /* \"#utility.yul\":17240:17244   */\n      dup2\n        /* \"#utility.yul\":17236:17256   */\n      sub\n        /* \"#utility.yul\":17230:17233   */\n      0xe0\n        /* \"#utility.yul\":17219:17228   */\n      dup4\n        /* \"#utility.yul\":17215:17234   */\n      add\n        /* \"#utility.yul\":17208:17257   */\n      mstore\n        /* \"#utility.yul\":17274:17352   */\n      tag_855\n        /* \"#utility.yul\":17347:17351   */\n      dup2\n        /* \"#utility.yul\":17338:17344   */\n      dup9\n        /* \"#utility.yul\":17274:17352   */\n      tag_643\n      jump\t// in\n    tag_855:\n        /* \"#utility.yul\":17266:17352   */\n      swap1\n      pop\n        /* \"#utility.yul\":17400:17409   */\n      dup2\n        /* \"#utility.yul\":17394:17398   */\n      dup2\n        /* \"#utility.yul\":17390:17410   */\n      sub\n        /* \"#utility.yul\":17384:17387   */\n      0x0100\n        /* \"#utility.yul\":17373:17382   */\n      dup4\n        /* \"#utility.yul\":17369:17388   */\n      add\n        /* \"#utility.yul\":17362:17411   */\n      mstore\n        /* \"#utility.yul\":17428:17506   */\n      tag_856\n        /* \"#utility.yul\":17501:17505   */\n      dup2\n        /* \"#utility.yul\":17492:17498   */\n      dup8\n        /* \"#utility.yul\":17428:17506   */\n      tag_643\n      jump\t// in\n    tag_856:\n        /* \"#utility.yul\":17420:17506   */\n      swap1\n      pop\n        /* \"#utility.yul\":17516:17589   */\n      tag_857\n        /* \"#utility.yul\":17584:17587   */\n      0x0120\n        /* \"#utility.yul\":17573:17582   */\n      dup4\n        /* \"#utility.yul\":17569:17588   */\n      add\n        /* \"#utility.yul\":17560:17566   */\n      dup7\n        /* \"#utility.yul\":17516:17589   */\n      tag_613\n      jump\t// in\n    tag_857:\n        /* \"#utility.yul\":17599:17673   */\n      tag_858\n        /* \"#utility.yul\":17668:17671   */\n      0x0140\n        /* \"#utility.yul\":17657:17666   */\n      dup4\n        /* \"#utility.yul\":17653:17672   */\n      add\n        /* \"#utility.yul\":17643:17650   */\n      dup6\n        /* \"#utility.yul\":17599:17673   */\n      tag_613\n      jump\t// in\n    tag_858:\n        /* \"#utility.yul\":17683:17751   */\n      tag_859\n        /* \"#utility.yul\":17746:17749   */\n      0x0160\n        /* \"#utility.yul\":17735:17744   */\n      dup4\n        /* \"#utility.yul\":17731:17750   */\n      add\n        /* \"#utility.yul\":17721:17728   */\n      dup5\n        /* \"#utility.yul\":17683:17751   */\n      tag_617\n      jump\t// in\n    tag_859:\n        /* \"#utility.yul\":16113:17758   */\n      swap14\n      swap13\n      pop\n      pop\n      pop\n      pop\n      pop\n      pop\n      pop\n      pop\n      pop\n      pop\n      pop\n      pop\n      pop\n      jump\t// out\n        /* \"#utility.yul\":17764:18620   */\n    tag_180:\n        /* \"#utility.yul\":18010:18014   */\n      0x00\n        /* \"#utility.yul\":18048:18051   */\n      0xe0\n        /* \"#utility.yul\":18037:18046   */\n      dup3\n        /* \"#utility.yul\":18033:18052   */\n      add\n        /* \"#utility.yul\":18025:18052   */\n      swap1\n      pop\n        /* \"#utility.yul\":18062:18148   */\n      tag_861\n        /* \"#utility.yul\":18145:18146   */\n      0x00\n        /* \"#utility.yul\":18134:18143   */\n      dup4\n        /* \"#utility.yul\":18130:18147   */\n      add\n        /* \"#utility.yul\":18121:18127   */\n      dup11\n        /* \"#utility.yul\":18062:18148   */\n      tag_640\n      jump\t// in\n    tag_861:\n        /* \"#utility.yul\":18158:18224   */\n      tag_862\n        /* \"#utility.yul\":18220:18222   */\n      0x20\n        /* \"#utility.yul\":18209:18218   */\n      dup4\n        /* \"#utility.yul\":18205:18223   */\n      add\n        /* \"#utility.yul\":18196:18202   */\n      dup10\n        /* \"#utility.yul\":18158:18224   */\n      tag_617\n      jump\t// in\n    tag_862:\n        /* \"#utility.yul\":18234:18300   */\n      tag_863\n        /* \"#utility.yul\":18296:18298   */\n      0x40\n        /* \"#utility.yul\":18285:18294   */\n      dup4\n        /* \"#utility.yul\":18281:18299   */\n      add\n        /* \"#utility.yul\":18272:18278   */\n      dup9\n        /* \"#utility.yul\":18234:18300   */\n      tag_617\n      jump\t// in\n    tag_863:\n        /* \"#utility.yul\":18310:18376   */\n      tag_864\n        /* \"#utility.yul\":18372:18374   */\n      0x60\n        /* \"#utility.yul\":18361:18370   */\n      dup4\n        /* \"#utility.yul\":18357:18375   */\n      add\n        /* \"#utility.yul\":18348:18354   */\n      dup8\n        /* \"#utility.yul\":18310:18376   */\n      tag_617\n      jump\t// in\n    tag_864:\n        /* \"#utility.yul\":18386:18453   */\n      tag_865\n        /* \"#utility.yul\":18448:18451   */\n      0x80\n        /* \"#utility.yul\":18437:18446   */\n      dup4\n        /* \"#utility.yul\":18433:18452   */\n      add\n        /* \"#utility.yul\":18424:18430   */\n      dup7\n        /* \"#utility.yul\":18386:18453   */\n      tag_617\n      jump\t// in\n    tag_865:\n        /* \"#utility.yul\":18463:18530   */\n      tag_866\n        /* \"#utility.yul\":18525:18528   */\n      0xa0\n        /* \"#utility.yul\":18514:18523   */\n      dup4\n        /* \"#utility.yul\":18510:18529   */\n      add\n        /* \"#utility.yul\":18501:18507   */\n      dup6\n        /* \"#utility.yul\":18463:18530   */\n      tag_617\n      jump\t// in\n    tag_866:\n        /* \"#utility.yul\":18540:18613   */\n      tag_867\n        /* \"#utility.yul\":18608:18611   */\n      0xc0\n        /* \"#utility.yul\":18597:18606   */\n      dup4\n        /* \"#utility.yul\":18593:18612   */\n      add\n        /* \"#utility.yul\":18584:18590   */\n      dup5\n        /* \"#utility.yul\":18540:18613   */\n      tag_613\n      jump\t// in\n    tag_867:\n        /* \"#utility.yul\":17764:18620   */\n      swap9\n      swap8\n      pop\n      pop\n      pop\n      pop\n      pop\n      pop\n      pop\n      pop\n      jump\t// out\n        /* \"#utility.yul\":18626:20158   */\n    tag_186:\n        /* \"#utility.yul\":19049:19053   */\n      0x00\n        /* \"#utility.yul\":19087:19090   */\n      0x0160\n        /* \"#utility.yul\":19076:19085   */\n      dup3\n        /* \"#utility.yul\":19072:19091   */\n      add\n        /* \"#utility.yul\":19064:19091   */\n      swap1\n      pop\n        /* \"#utility.yul\":19101:19172   */\n      tag_869\n        /* \"#utility.yul\":19169:19170   */\n      0x00\n        /* \"#utility.yul\":19158:19167   */\n      dup4\n        /* \"#utility.yul\":19154:19171   */\n      add\n        /* \"#utility.yul\":19145:19151   */\n      dup15\n        /* \"#utility.yul\":19101:19172   */\n      tag_636\n      jump\t// in\n    tag_869:\n        /* \"#utility.yul\":19182:19254   */\n      tag_870\n        /* \"#utility.yul\":19250:19252   */\n      0x20\n        /* \"#utility.yul\":19239:19248   */\n      dup4\n        /* \"#utility.yul\":19235:19253   */\n      add\n        /* \"#utility.yul\":19226:19232   */\n      dup14\n        /* \"#utility.yul\":19182:19254   */\n      tag_636\n      jump\t// in\n    tag_870:\n        /* \"#utility.yul\":19264:19336   */\n      tag_871\n        /* \"#utility.yul\":19332:19334   */\n      0x40\n        /* \"#utility.yul\":19321:19330   */\n      dup4\n        /* \"#utility.yul\":19317:19335   */\n      add\n        /* \"#utility.yul\":19308:19314   */\n      dup13\n        /* \"#utility.yul\":19264:19336   */\n      tag_636\n      jump\t// in\n    tag_871:\n        /* \"#utility.yul\":19346:19418   */\n      tag_872\n        /* \"#utility.yul\":19414:19416   */\n      0x60\n        /* \"#utility.yul\":19403:19412   */\n      dup4\n        /* \"#utility.yul\":19399:19417   */\n      add\n        /* \"#utility.yul\":19390:19396   */\n      dup12\n        /* \"#utility.yul\":19346:19418   */\n      tag_613\n      jump\t// in\n    tag_872:\n        /* \"#utility.yul\":19428:19501   */\n      tag_873\n        /* \"#utility.yul\":19496:19499   */\n      0x80\n        /* \"#utility.yul\":19485:19494   */\n      dup4\n        /* \"#utility.yul\":19481:19500   */\n      add\n        /* \"#utility.yul\":19472:19478   */\n      dup11\n        /* \"#utility.yul\":19428:19501   */\n      tag_613\n      jump\t// in\n    tag_873:\n        /* \"#utility.yul\":19511:19599   */\n      tag_874\n        /* \"#utility.yul\":19594:19597   */\n      0xa0\n        /* \"#utility.yul\":19583:19592   */\n      dup4\n        /* \"#utility.yul\":19579:19598   */\n      add\n        /* \"#utility.yul\":19570:19576   */\n      dup10\n        /* \"#utility.yul\":19511:19599   */\n      tag_640\n      jump\t// in\n    tag_874:\n        /* \"#utility.yul\":19647:19656   */\n      dup2\n        /* \"#utility.yul\":19641:19645   */\n      dup2\n        /* \"#utility.yul\":19637:19657   */\n      sub\n        /* \"#utility.yul\":19631:19634   */\n      0xc0\n        /* \"#utility.yul\":19620:19629   */\n      dup4\n        /* \"#utility.yul\":19616:19635   */\n      add\n        /* \"#utility.yul\":19609:19658   */\n      mstore\n        /* \"#utility.yul\":19675:19753   */\n      tag_875\n        /* \"#utility.yul\":19748:19752   */\n      dup2\n        /* \"#utility.yul\":19739:19745   */\n      dup9\n        /* \"#utility.yul\":19675:19753   */\n      tag_643\n      jump\t// in\n    tag_875:\n        /* \"#utility.yul\":19667:19753   */\n      swap1\n      pop\n        /* \"#utility.yul\":19801:19810   */\n      dup2\n        /* \"#utility.yul\":19795:19799   */\n      dup2\n        /* \"#utility.yul\":19791:19811   */\n      sub\n        /* \"#utility.yul\":19785:19788   */\n      0xe0\n        /* \"#utility.yul\":19774:19783   */\n      dup4\n        /* \"#utility.yul\":19770:19789   */\n      add\n        /* \"#utility.yul\":19763:19812   */\n      mstore\n        /* \"#utility.yul\":19829:19907   */\n      tag_876\n        /* \"#utility.yul\":19902:19906   */\n      dup2\n        /* \"#utility.yul\":19893:19899   */\n      dup8\n        /* \"#utility.yul\":19829:19907   */\n      tag_643\n      jump\t// in\n    tag_876:\n        /* \"#utility.yul\":19821:19907   */\n      swap1\n      pop\n        /* \"#utility.yul\":19917:19990   */\n      tag_877\n        /* \"#utility.yul\":19985:19988   */\n      0x0100\n        /* \"#utility.yul\":19974:19983   */\n      dup4\n        /* \"#utility.yul\":19970:19989   */\n      add\n        /* \"#utility.yul\":19961:19967   */\n      dup7\n        /* \"#utility.yul\":19917:19990   */\n      tag_613\n      jump\t// in\n    tag_877:\n        /* \"#utility.yul\":20000:20073   */\n      tag_878\n        /* \"#utility.yul\":20068:20071   */\n      0x0120\n        /* \"#utility.yul\":20057:20066   */\n      dup4\n        /* \"#utility.yul\":20053:20072   */\n      add\n        /* \"#utility.yul\":20044:20050   */\n      dup6\n        /* \"#utility.yul\":20000:20073   */\n      tag_613\n      jump\t// in\n    tag_878:\n        /* \"#utility.yul\":20083:20151   */\n      tag_879\n        /* \"#utility.yul\":20146:20149   */\n      0x0140\n        /* \"#utility.yul\":20135:20144   */\n      dup4\n        /* \"#utility.yul\":20131:20150   */\n      add\n        /* \"#utility.yul\":20121:20128   */\n      dup5\n        /* \"#utility.yul\":20083:20151   */\n      tag_617\n      jump\t// in\n    tag_879:\n        /* \"#utility.yul\":18626:20158   */\n      swap13\n      swap12\n      pop\n      pop\n      pop\n      pop\n      pop\n      pop\n      pop\n      pop\n      pop\n      pop\n      pop\n      pop\n      jump\t// out\n        /* \"#utility.yul\":20164:20250   */\n    tag_644:\n        /* \"#utility.yul\":20199:20206   */\n      0x00\n        /* \"#utility.yul\":20239:20243   */\n      0xff\n        /* \"#utility.yul\":20232:20237   */\n      dup3\n        /* \"#utility.yul\":20228:20244   */\n      and\n        /* \"#utility.yul\":20217:20244   */\n      swap1\n      pop\n        /* \"#utility.yul\":20164:20250   */\n      swap2\n      swap1\n      pop\n      jump\t// out\n        /* \"#utility.yul\":20256:20374   */\n    tag_645:\n        /* \"#utility.yul\":20327:20349   */\n      tag_882\n        /* \"#utility.yul\":20343:20348   */\n      dup2\n        /* \"#utility.yul\":20327:20349   */\n      tag_644\n      jump\t// in\n    tag_882:\n        /* \"#utility.yul\":20320:20325   */\n      dup2\n        /* \"#utility.yul\":20317:20350   */\n      eq\n        /* \"#utility.yul\":20307:20368   */\n      tag_883\n      jumpi\n        /* \"#utility.yul\":20364:20365   */\n      0x00\n        /* \"#utility.yul\":20361:20362   */\n      0x00\n        /* \"#utility.yul\":20354:20366   */\n      revert\n        /* \"#utility.yul\":20307:20368   */\n    tag_883:\n        /* \"#utility.yul\":20256:20374   */\n      pop\n      jump\t// out\n        /* \"#utility.yul\":20380:20515   */\n    tag_646:\n        /* \"#utility.yul\":20424:20429   */\n      0x00\n        /* \"#utility.yul\":20462:20468   */\n      dup2\n        /* \"#utility.yul\":20449:20469   */\n      calldataload\n        /* \"#utility.yul\":20440:20469   */\n      swap1\n      pop\n        /* \"#utility.yul\":20478:20509   */\n      tag_885\n        /* \"#utility.yul\":20503:20508   */\n      dup2\n        /* \"#utility.yul\":20478:20509   */\n      tag_645\n      jump\t// in\n    tag_885:\n        /* \"#utility.yul\":20380:20515   */\n      swap3\n      swap2\n      pop\n      pop\n      jump\t// out\n        /* \"#utility.yul\":20521:20991   */\n    tag_194:\n        /* \"#utility.yul\":20587:20593   */\n      0x00\n        /* \"#utility.yul\":20595:20601   */\n      0x00\n        /* \"#utility.yul\":20644:20646   */\n      0x40\n        /* \"#utility.yul\":20632:20641   */\n      dup4\n        /* \"#utility.yul\":20623:20630   */\n      dup6\n        /* \"#utility.yul\":20619:20642   */\n      sub\n        /* \"#utility.yul\":20615:20647   */\n      slt\n        /* \"#utility.yul\":20612:20731   */\n      iszero\n      tag_887\n      jumpi\n        /* \"#utility.yul\":20650:20729   */\n      tag_888\n      tag_599\n      jump\t// in\n    tag_888:\n        /* \"#utility.yul\":20612:20731   */\n    tag_887:\n        /* \"#utility.yul\":20770:20771   */\n      0x00\n        /* \"#utility.yul\":20795:20848   */\n      tag_889\n        /* \"#utility.yul\":20840:20847   */\n      dup6\n        /* \"#utility.yul\":20831:20837   */\n      dup3\n        /* \"#utility.yul\":20820:20829   */\n      dup7\n        /* \"#utility.yul\":20816:20838   */\n      add\n        /* \"#utility.yul\":20795:20848   */\n      tag_615\n      jump\t// in\n    tag_889:\n        /* \"#utility.yul\":20785:20848   */\n      swap3\n      pop\n        /* \"#utility.yul\":20741:20858   */\n      pop\n        /* \"#utility.yul\":20897:20899   */\n      0x20\n        /* \"#utility.yul\":20923:20974   */\n      tag_890\n        /* \"#utility.yul\":20966:20973   */\n      dup6\n        /* \"#utility.yul\":20957:20963   */\n      dup3\n        /* \"#utility.yul\":20946:20955   */\n      dup7\n        /* \"#utility.yul\":20942:20964   */\n      add\n        /* \"#utility.yul\":20923:20974   */\n      tag_646\n      jump\t// in\n    tag_890:\n        /* \"#utility.yul\":20913:20974   */\n      swap2\n      pop\n        /* \"#utility.yul\":20868:20984   */\n      pop\n        /* \"#utility.yul\":20521:20991   */\n      swap3\n      pop\n      swap3\n      swap1\n      pop\n      jump\t// out\n        /* \"#utility.yul\":20997:21148   */\n    tag_647:\n        /* \"#utility.yul\":21072:21081   */\n      0x00\n        /* \"#utility.yul\":21105:21142   */\n      tag_892\n        /* \"#utility.yul\":21136:21141   */\n      dup3\n        /* \"#utility.yul\":21105:21142   */\n      tag_624\n      jump\t// in\n    tag_892:\n        /* \"#utility.yul\":21092:21142   */\n      swap1\n      pop\n        /* \"#utility.yul\":20997:21148   */\n      swap2\n      swap1\n      pop\n      jump\t// out\n        /* \"#utility.yul\":21154:21335   */\n    tag_648:\n        /* \"#utility.yul\":21266:21328   */\n      tag_894\n        /* \"#utility.yul\":21322:21327   */\n      dup2\n        /* \"#utility.yul\":21266:21328   */\n      tag_647\n      jump\t// in\n    tag_894:\n        /* \"#utility.yul\":21261:21264   */\n      dup3\n        /* \"#utility.yul\":21254:21329   */\n      mstore\n        /* \"#utility.yul\":21154:21335   */\n      pop\n      pop\n      jump\t// out\n        /* \"#utility.yul\":21341:21613   */\n    tag_207:\n        /* \"#utility.yul\":21459:21463   */\n      0x00\n        /* \"#utility.yul\":21497:21499   */\n      0x20\n        /* \"#utility.yul\":21486:21495   */\n      dup3\n        /* \"#utility.yul\":21482:21500   */\n      add\n        /* \"#utility.yul\":21474:21500   */\n      swap1\n      pop\n        /* \"#utility.yul\":21510:21606   */\n      tag_896\n        /* \"#utility.yul\":21603:21604   */\n      0x00\n        /* \"#utility.yul\":21592:21601   */\n      dup4\n        /* \"#utility.yul\":21588:21605   */\n      add\n        /* \"#utility.yul\":21579:21585   */\n      dup5\n        /* \"#utility.yul\":21510:21606   */\n      tag_648\n      jump\t// in\n    tag_896:\n        /* \"#utility.yul\":21341:21613   */\n      swap3\n      swap2\n      pop\n      pop\n      jump\t// out\n        /* \"#utility.yul\":21619:22011   */\n    tag_232:\n        /* \"#utility.yul\":21770:21774   */\n      0x00\n        /* \"#utility.yul\":21808:21810   */\n      0x40\n        /* \"#utility.yul\":21797:21806   */\n      dup3\n        /* \"#utility.yul\":21793:21811   */\n      add\n        /* \"#utility.yul\":21785:21811   */\n      swap1\n      pop\n        /* \"#utility.yul\":21821:21907   */\n      tag_898\n        /* \"#utility.yul\":21904:21905   */\n      0x00\n        /* \"#utility.yul\":21893:21902   */\n      dup4\n        /* \"#utility.yul\":21889:21906   */\n      add\n        /* \"#utility.yul\":21880:21886   */\n      dup6\n        /* \"#utility.yul\":21821:21907   */\n      tag_640\n      jump\t// in\n    tag_898:\n        /* \"#utility.yul\":21917:22004   */\n      tag_899\n        /* \"#utility.yul\":22000:22002   */\n      0x20\n        /* \"#utility.yul\":21989:21998   */\n      dup4\n        /* \"#utility.yul\":21985:22003   */\n      add\n        /* \"#utility.yul\":21976:21982   */\n      dup5\n        /* \"#utility.yul\":21917:22004   */\n      tag_640\n      jump\t// in\n    tag_899:\n        /* \"#utility.yul\":21619:22011   */\n      swap4\n      swap3\n      pop\n      pop\n      pop\n      jump\t// out\n        /* \"#utility.yul\":22017:22197   */\n    tag_649:\n        /* \"#utility.yul\":22065:22142   */\n      0x4e487b7100000000000000000000000000000000000000000000000000000000\n        /* \"#utility.yul\":22062:22063   */\n      0x00\n        /* \"#utility.yul\":22055:22143   */\n      mstore\n        /* \"#utility.yul\":22162:22166   */\n      0x11\n        /* \"#utility.yul\":22159:22160   */\n      0x04\n        /* \"#utility.yul\":22152:22167   */\n      mstore\n        /* \"#utility.yul\":22186:22190   */\n      0x24\n        /* \"#utility.yul\":22183:22184   */\n      0x00\n        /* \"#utility.yul\":22176:22191   */\n      revert\n        /* \"#utility.yul\":22203:22613   */\n    tag_235:\n        /* \"#utility.yul\":22243:22250   */\n      0x00\n        /* \"#utility.yul\":22266:22286   */\n      tag_902\n        /* \"#utility.yul\":22284:22285   */\n      dup3\n        /* \"#utility.yul\":22266:22286   */\n      tag_608\n      jump\t// in\n    tag_902:\n        /* \"#utility.yul\":22261:22286   */\n      swap2\n      pop\n        /* \"#utility.yul\":22300:22320   */\n      tag_903\n        /* \"#utility.yul\":22318:22319   */\n      dup4\n        /* \"#utility.yul\":22300:22320   */\n      tag_608\n      jump\t// in\n    tag_903:\n        /* \"#utility.yul\":22295:22320   */\n      swap3\n      pop\n        /* \"#utility.yul\":22355:22356   */\n      dup3\n        /* \"#utility.yul\":22352:22353   */\n      dup3\n        /* \"#utility.yul\":22348:22357   */\n      mul\n        /* \"#utility.yul\":22377:22407   */\n      tag_904\n        /* \"#utility.yul\":22395:22406   */\n      dup2\n        /* \"#utility.yul\":22377:22407   */\n      tag_608\n      jump\t// in\n    tag_904:\n        /* \"#utility.yul\":22366:22407   */\n      swap2\n      pop\n        /* \"#utility.yul\":22556:22557   */\n      dup3\n        /* \"#utility.yul\":22547:22554   */\n      dup3\n        /* \"#utility.yul\":22543:22558   */\n      div\n        /* \"#utility.yul\":22540:22541   */\n      dup5\n        /* \"#utility.yul\":22537:22559   */\n      eq\n        /* \"#utility.yul\":22517:22518   */\n      dup4\n        /* \"#utility.yul\":22510:22519   */\n      iszero\n        /* \"#utility.yul\":22490:22573   */\n      or\n        /* \"#utility.yul\":22467:22606   */\n      tag_905\n      jumpi\n        /* \"#utility.yul\":22586:22604   */\n      tag_906\n      tag_649\n      jump\t// in\n    tag_906:\n        /* \"#utility.yul\":22467:22606   */\n    tag_905:\n        /* \"#utility.yul\":22251:22613   */\n      pop\n        /* \"#utility.yul\":22203:22613   */\n      swap3\n      swap2\n      pop\n      pop\n      jump\t// out\n        /* \"#utility.yul\":22619:22799   */\n    tag_650:\n        /* \"#utility.yul\":22667:22744   */\n      0x4e487b7100000000000000000000000000000000000000000000000000000000\n        /* \"#utility.yul\":22664:22665   */\n      0x00\n        /* \"#utility.yul\":22657:22745   */\n      mstore\n        /* \"#utility.yul\":22764:22768   */\n      0x12\n        /* \"#utility.yul\":22761:22762   */\n      0x04\n        /* \"#utility.yul\":22754:22769   */\n      mstore\n        /* \"#utility.yul\":22788:22792   */\n      0x24\n        /* \"#utility.yul\":22785:22786   */\n      0x00\n        /* \"#utility.yul\":22778:22793   */\n      revert\n        /* \"#utility.yul\":22805:22990   */\n    tag_237:\n        /* \"#utility.yul\":22845:22846   */\n      0x00\n        /* \"#utility.yul\":22862:22882   */\n      tag_909\n        /* \"#utility.yul\":22880:22881   */\n      dup3\n        /* \"#utility.yul\":22862:22882   */\n      tag_608\n      jump\t// in\n    tag_909:\n        /* \"#utility.yul\":22857:22882   */\n      swap2\n      pop\n        /* \"#utility.yul\":22896:22916   */\n      tag_910\n        /* \"#utility.yul\":22914:22915   */\n      dup4\n        /* \"#utility.yul\":22896:22916   */\n      tag_608\n      jump\t// in\n    tag_910:\n        /* \"#utility.yul\":22891:22916   */\n      swap3\n      pop\n        /* \"#utility.yul\":22935:22936   */\n      dup3\n        /* \"#utility.yul\":22925:22960   */\n      tag_911\n      jumpi\n        /* \"#utility.yul\":22940:22958   */\n      tag_912\n      tag_650\n      jump\t// in\n    tag_912:\n        /* \"#utility.yul\":22925:22960   */\n    tag_911:\n        /* \"#utility.yul\":22982:22983   */\n      dup3\n        /* \"#utility.yul\":22979:22980   */\n      dup3\n        /* \"#utility.yul\":22975:22984   */\n      div\n        /* \"#utility.yul\":22970:22984   */\n      swap1\n      pop\n        /* \"#utility.yul\":22805:22990   */\n      swap3\n      swap2\n      pop\n      pop\n      jump\t// out\n        /* \"#utility.yul\":22996:23190   */\n    tag_239:\n        /* \"#utility.yul\":23036:23040   */\n      0x00\n        /* \"#utility.yul\":23056:23076   */\n      tag_914\n        /* \"#utility.yul\":23074:23075   */\n      dup3\n        /* \"#utility.yul\":23056:23076   */\n      tag_608\n      jump\t// in\n    tag_914:\n        /* \"#utility.yul\":23051:23076   */\n      swap2\n      pop\n        /* \"#utility.yul\":23090:23110   */\n      tag_915\n        /* \"#utility.yul\":23108:23109   */\n      dup4\n        /* \"#utility.yul\":23090:23110   */\n      tag_608\n      jump\t// in\n    tag_915:\n        /* \"#utility.yul\":23085:23110   */\n      swap3\n      pop\n        /* \"#utility.yul\":23134:23135   */\n      dup3\n        /* \"#utility.yul\":23131:23132   */\n      dup3\n        /* \"#utility.yul\":23127:23136   */\n      sub\n        /* \"#utility.yul\":23119:23136   */\n      swap1\n      pop\n        /* \"#utility.yul\":23158:23159   */\n      dup2\n        /* \"#utility.yul\":23152:23156   */\n      dup2\n        /* \"#utility.yul\":23149:23160   */\n      gt\n        /* \"#utility.yul\":23146:23183   */\n      iszero\n      tag_916\n      jumpi\n        /* \"#utility.yul\":23163:23181   */\n      tag_917\n      tag_649\n      jump\t// in\n    tag_917:\n        /* \"#utility.yul\":23146:23183   */\n    tag_916:\n        /* \"#utility.yul\":22996:23190   */\n      swap3\n      swap2\n      pop\n      pop\n      jump\t// out\n        /* \"#utility.yul\":23196:23343   */\n    tag_651:\n        /* \"#utility.yul\":23297:23308   */\n      0x00\n        /* \"#utility.yul\":23334:23337   */\n      dup2\n        /* \"#utility.yul\":23319:23337   */\n      swap1\n      pop\n        /* \"#utility.yul\":23196:23343   */\n      swap3\n      swap2\n      pop\n      pop\n      jump\t// out\n        /* \"#utility.yul\":23349:23463   */\n    tag_652:\n      pop\n      jump\t// out\n        /* \"#utility.yul\":23469:23867   */\n    tag_653:\n        /* \"#utility.yul\":23628:23631   */\n      0x00\n        /* \"#utility.yul\":23649:23732   */\n      tag_921\n        /* \"#utility.yul\":23730:23731   */\n      0x00\n        /* \"#utility.yul\":23725:23728   */\n      dup4\n        /* \"#utility.yul\":23649:23732   */\n      tag_651\n      jump\t// in\n    tag_921:\n        /* \"#utility.yul\":23642:23732   */\n      swap2\n      pop\n        /* \"#utility.yul\":23741:23834   */\n      tag_922\n        /* \"#utility.yul\":23830:23833   */\n      dup3\n        /* \"#utility.yul\":23741:23834   */\n      tag_652\n      jump\t// in\n    tag_922:\n        /* \"#utility.yul\":23859:23860   */\n      0x00\n        /* \"#utility.yul\":23854:23857   */\n      dup3\n        /* \"#utility.yul\":23850:23861   */\n      add\n        /* \"#utility.yul\":23843:23861   */\n      swap1\n      pop\n        /* \"#utility.yul\":23469:23867   */\n      swap2\n      swap1\n      pop\n      jump\t// out\n        /* \"#utility.yul\":23873:24252   */\n    tag_247:\n        /* \"#utility.yul\":24057:24060   */\n      0x00\n        /* \"#utility.yul\":24079:24226   */\n      tag_924\n        /* \"#utility.yul\":24222:24225   */\n      dup3\n        /* \"#utility.yul\":24079:24226   */\n      tag_653\n      jump\t// in\n    tag_924:\n        /* \"#utility.yul\":24072:24226   */\n      swap2\n      pop\n        /* \"#utility.yul\":24243:24246   */\n      dup2\n        /* \"#utility.yul\":24236:24246   */\n      swap1\n      pop\n        /* \"#utility.yul\":23873:24252   */\n      swap2\n      swap1\n      pop\n      jump\t// out\n        /* \"#utility.yul\":24258:24590   */\n    tag_253:\n        /* \"#utility.yul\":24379:24383   */\n      0x00\n        /* \"#utility.yul\":24417:24419   */\n      0x40\n        /* \"#utility.yul\":24406:24415   */\n      dup3\n        /* \"#utility.yul\":24402:24420   */\n      add\n        /* \"#utility.yul\":24394:24420   */\n      swap1\n      pop\n        /* \"#utility.yul\":24430:24501   */\n      tag_926\n        /* \"#utility.yul\":24498:24499   */\n      0x00\n        /* \"#utility.yul\":24487:24496   */\n      dup4\n        /* \"#utility.yul\":24483:24500   */\n      add\n        /* \"#utility.yul\":24474:24480   */\n      dup6\n        /* \"#utility.yul\":24430:24501   */\n      tag_613\n      jump\t// in\n    tag_926:\n        /* \"#utility.yul\":24511:24583   */\n      tag_927\n        /* \"#utility.yul\":24579:24581   */\n      0x20\n        /* \"#utility.yul\":24568:24577   */\n      dup4\n        /* \"#utility.yul\":24564:24582   */\n      add\n        /* \"#utility.yul\":24555:24561   */\n      dup5\n        /* \"#utility.yul\":24511:24583   */\n      tag_613\n      jump\t// in\n    tag_927:\n        /* \"#utility.yul\":24258:24590   */\n      swap4\n      swap3\n      pop\n      pop\n      pop\n      jump\t// out\n        /* \"#utility.yul\":24596:24712   */\n    tag_654:\n        /* \"#utility.yul\":24666:24687   */\n      tag_929\n        /* \"#utility.yul\":24681:24686   */\n      dup2\n        /* \"#utility.yul\":24666:24687   */\n      tag_616\n      jump\t// in\n    tag_929:\n        /* \"#utility.yul\":24659:24664   */\n      dup2\n        /* \"#utility.yul\":24656:24688   */\n      eq\n        /* \"#utility.yul\":24646:24706   */\n      tag_930\n      jumpi\n        /* \"#utility.yul\":24702:24703   */\n      0x00\n        /* \"#utility.yul\":24699:24700   */\n      0x00\n        /* \"#utility.yul\":24692:24704   */\n      revert\n        /* \"#utility.yul\":24646:24706   */\n    tag_930:\n        /* \"#utility.yul\":24596:24712   */\n      pop\n      jump\t// out\n        /* \"#utility.yul\":24718:24855   */\n    tag_655:\n        /* \"#utility.yul\":24772:24777   */\n      0x00\n        /* \"#utility.yul\":24803:24809   */\n      dup2\n        /* \"#utility.yul\":24797:24810   */\n      mload\n        /* \"#utility.yul\":24788:24810   */\n      swap1\n      pop\n        /* \"#utility.yul\":24819:24849   */\n      tag_932\n        /* \"#utility.yul\":24843:24848   */\n      dup2\n        /* \"#utility.yul\":24819:24849   */\n      tag_654\n      jump\t// in\n    tag_932:\n        /* \"#utility.yul\":24718:24855   */\n      swap3\n      swap2\n      pop\n      pop\n      jump\t// out\n        /* \"#utility.yul\":24861:25206   */\n    tag_262:\n        /* \"#utility.yul\":24928:24934   */\n      0x00\n        /* \"#utility.yul\":24977:24979   */\n      0x20\n        /* \"#utility.yul\":24965:24974   */\n      dup3\n        /* \"#utility.yul\":24956:24963   */\n      dup5\n        /* \"#utility.yul\":24952:24975   */\n      sub\n        /* \"#utility.yul\":24948:24980   */\n      slt\n        /* \"#utility.yul\":24945:25064   */\n      iszero\n      tag_934\n      jumpi\n        /* \"#utility.yul\":24983:25062   */\n      tag_935\n      tag_599\n      jump\t// in\n    tag_935:\n        /* \"#utility.yul\":24945:25064   */\n    tag_934:\n        /* \"#utility.yul\":25103:25104   */\n      0x00\n        /* \"#utility.yul\":25128:25189   */\n      tag_936\n        /* \"#utility.yul\":25181:25188   */\n      dup5\n        /* \"#utility.yul\":25172:25178   */\n      dup3\n        /* \"#utility.yul\":25161:25170   */\n      dup6\n        /* \"#utility.yul\":25157:25179   */\n      add\n        /* \"#utility.yul\":25128:25189   */\n      tag_655\n      jump\t// in\n    tag_936:\n        /* \"#utility.yul\":25118:25189   */\n      swap2\n      pop\n        /* \"#utility.yul\":25074:25199   */\n      pop\n        /* \"#utility.yul\":24861:25206   */\n      swap3\n      swap2\n      pop\n      pop\n      jump\t// out\n        /* \"#utility.yul\":25212:25403   */\n    tag_278:\n        /* \"#utility.yul\":25252:25255   */\n      0x00\n        /* \"#utility.yul\":25271:25291   */\n      tag_938\n        /* \"#utility.yul\":25289:25290   */\n      dup3\n        /* \"#utility.yul\":25271:25291   */\n      tag_608\n      jump\t// in\n    tag_938:\n        /* \"#utility.yul\":25266:25291   */\n      swap2\n      pop\n        /* \"#utility.yul\":25305:25325   */\n      tag_939\n        /* \"#utility.yul\":25323:25324   */\n      dup4\n        /* \"#utility.yul\":25305:25325   */\n      tag_608\n      jump\t// in\n    tag_939:\n        /* \"#utility.yul\":25300:25325   */\n      swap3\n      pop\n        /* \"#utility.yul\":25348:25349   */\n      dup3\n        /* \"#utility.yul\":25345:25346   */\n      dup3\n        /* \"#utility.yul\":25341:25350   */\n      add\n        /* \"#utility.yul\":25334:25350   */\n      swap1\n      pop\n        /* \"#utility.yul\":25369:25372   */\n      dup1\n        /* \"#utility.yul\":25366:25367   */\n      dup3\n        /* \"#utility.yul\":25363:25373   */\n      gt\n        /* \"#utility.yul\":25360:25396   */\n      iszero\n      tag_940\n      jumpi\n        /* \"#utility.yul\":25376:25394   */\n      tag_941\n      tag_649\n      jump\t// in\n    tag_941:\n        /* \"#utility.yul\":25360:25396   */\n    tag_940:\n        /* \"#utility.yul\":25212:25403   */\n      swap3\n      swap2\n      pop\n      pop\n      jump\t// out\n        /* \"#utility.yul\":25409:25506   */\n    tag_656:\n        /* \"#utility.yul\":25468:25474   */\n      0x00\n        /* \"#utility.yul\":25496:25499   */\n      dup3\n        /* \"#utility.yul\":25486:25499   */\n      swap1\n      pop\n        /* \"#utility.yul\":25409:25506   */\n      swap3\n      swap2\n      pop\n      pop\n      jump\t// out\n        /* \"#utility.yul\":25512:25692   */\n    tag_657:\n        /* \"#utility.yul\":25560:25637   */\n      0x4e487b7100000000000000000000000000000000000000000000000000000000\n        /* \"#utility.yul\":25557:25558   */\n      0x00\n        /* \"#utility.yul\":25550:25638   */\n      mstore\n        /* \"#utility.yul\":25657:25661   */\n      0x22\n        /* \"#utility.yul\":25654:25655   */\n      0x04\n        /* \"#utility.yul\":25647:25662   */\n      mstore\n        /* \"#utility.yul\":25681:25685   */\n      0x24\n        /* \"#utility.yul\":25678:25679   */\n      0x00\n        /* \"#utility.yul\":25671:25686   */\n      revert\n        /* \"#utility.yul\":25698:26018   */\n    tag_384:\n        /* \"#utility.yul\":25742:25748   */\n      0x00\n        /* \"#utility.yul\":25779:25780   */\n      0x02\n        /* \"#utility.yul\":25773:25777   */\n      dup3\n        /* \"#utility.yul\":25769:25781   */\n      div\n        /* \"#utility.yul\":25759:25781   */\n      swap1\n      pop\n        /* \"#utility.yul\":25826:25827   */\n      0x01\n        /* \"#utility.yul\":25820:25824   */\n      dup3\n        /* \"#utility.yul\":25816:25828   */\n      and\n        /* \"#utility.yul\":25847:25865   */\n      dup1\n        /* \"#utility.yul\":25837:25918   */\n      tag_945\n      jumpi\n        /* \"#utility.yul\":25903:25907   */\n      0x7f\n        /* \"#utility.yul\":25895:25901   */\n      dup3\n        /* \"#utility.yul\":25891:25908   */\n      and\n        /* \"#utility.yul\":25881:25908   */\n      swap2\n      pop\n        /* \"#utility.yul\":25837:25918   */\n    tag_945:\n        /* \"#utility.yul\":25965:25967   */\n      0x20\n        /* \"#utility.yul\":25957:25963   */\n      dup3\n        /* \"#utility.yul\":25954:25968   */\n      lt\n        /* \"#utility.yul\":25934:25952   */\n      dup2\n        /* \"#utility.yul\":25931:25969   */\n      sub\n        /* \"#utility.yul\":25928:26012   */\n      tag_946\n      jumpi\n        /* \"#utility.yul\":25984:26002   */\n      tag_947\n      tag_657\n      jump\t// in\n    tag_947:\n        /* \"#utility.yul\":25928:26012   */\n    tag_946:\n        /* \"#utility.yul\":25749:26018   */\n      pop\n        /* \"#utility.yul\":25698:26018   */\n      swap2\n      swap1\n      pop\n      jump\t// out\n        /* \"#utility.yul\":26024:26165   */\n    tag_658:\n        /* \"#utility.yul\":26073:26077   */\n      0x00\n        /* \"#utility.yul\":26096:26099   */\n      dup2\n        /* \"#utility.yul\":26088:26099   */\n      swap1\n      pop\n        /* \"#utility.yul\":26119:26122   */\n      dup2\n        /* \"#utility.yul\":26116:26117   */\n      0x00\n        /* \"#utility.yul\":26109:26123   */\n      mstore\n        /* \"#utility.yul\":26153:26157   */\n      0x20\n        /* \"#utility.yul\":26150:26151   */\n      0x00\n        /* \"#utility.yul\":26140:26158   */\n      keccak256\n        /* \"#utility.yul\":26132:26158   */\n      swap1\n      pop\n        /* \"#utility.yul\":26024:26165   */\n      swap2\n      swap1\n      pop\n      jump\t// out\n        /* \"#utility.yul\":26171:26264   */\n    tag_659:\n        /* \"#utility.yul\":26208:26214   */\n      0x00\n        /* \"#utility.yul\":26255:26257   */\n      0x20\n        /* \"#utility.yul\":26250:26252   */\n      0x1f\n        /* \"#utility.yul\":26243:26248   */\n      dup4\n        /* \"#utility.yul\":26239:26253   */\n      add\n        /* \"#utility.yul\":26235:26258   */\n      div\n        /* \"#utility.yul\":26225:26258   */\n      swap1\n      pop\n        /* \"#utility.yul\":26171:26264   */\n      swap2\n      swap1\n      pop\n      jump\t// out\n        /* \"#utility.yul\":26270:26377   */\n    tag_660:\n        /* \"#utility.yul\":26314:26322   */\n      0x00\n        /* \"#utility.yul\":26364:26369   */\n      dup3\n        /* \"#utility.yul\":26358:26362   */\n      dup3\n        /* \"#utility.yul\":26354:26370   */\n      shl\n        /* \"#utility.yul\":26333:26370   */\n      swap1\n      pop\n        /* \"#utility.yul\":26270:26377   */\n      swap3\n      swap2\n      pop\n      pop\n      jump\t// out\n        /* \"#utility.yul\":26383:26776   */\n    tag_661:\n        /* \"#utility.yul\":26452:26458   */\n      0x00\n        /* \"#utility.yul\":26502:26503   */\n      0x08\n        /* \"#utility.yul\":26490:26500   */\n      dup4\n        /* \"#utility.yul\":26486:26504   */\n      mul\n        /* \"#utility.yul\":26525:26622   */\n      tag_952\n        /* \"#utility.yul\":26555:26621   */\n      0xffffffffffffffffffffffffffffffffffffffffffffffffffffffffffffffff\n        /* \"#utility.yul\":26544:26553   */\n      dup3\n        /* \"#utility.yul\":26525:26622   */\n      tag_660\n      jump\t// in\n    tag_952:\n        /* \"#utility.yul\":26643:26682   */\n      tag_953\n        /* \"#utility.yul\":26673:26681   */\n      dup7\n        /* \"#utility.yul\":26662:26671   */\n      dup4\n        /* \"#utility.yul\":26643:26682   */\n      tag_660\n      jump\t// in\n    tag_953:\n        /* \"#utility.yul\":26631:26682   */\n      swap6\n      pop\n        /* \"#utility.yul\":26715:26719   */\n      dup1\n        /* \"#utility.yul\":26711:26720   */\n      not\n        /* \"#utility.yul\":26704:26709   */\n      dup5\n        /* \"#utility.yul\":26700:26721   */\n      and\n        /* \"#utility.yul\":26691:26721   */\n      swap4\n      pop\n        /* \"#utility.yul\":26764:26768   */\n      dup1\n        /* \"#utility.yul\":26754:26762   */\n      dup7\n        /* \"#utility.yul\":26750:26769   */\n      and\n        /* \"#utility.yul\":26743:26748   */\n      dup5\n        /* \"#utility.yul\":26740:26770   */\n      or\n        /* \"#utility.yul\":26730:26770   */\n      swap3\n      pop\n        /* \"#utility.yul\":26459:26776   */\n      pop\n      pop\n        /* \"#utility.yul\":26383:26776   */\n      swap4\n      swap3\n      pop\n      pop\n      pop\n      jump\t// out\n        /* \"#utility.yul\":26782:26924   */\n    tag_662:\n        /* \"#utility.yul\":26832:26841   */\n      0x00\n        /* \"#utility.yul\":26865:26918   */\n      tag_955\n        /* \"#utility.yul\":26883:26917   */\n      tag_956\n        /* \"#utility.yul\":26892:26916   */\n      tag_957\n        /* \"#utility.yul\":26910:26915   */\n      dup5\n        /* \"#utility.yul\":26892:26916   */\n      tag_608\n      jump\t// in\n    tag_957:\n        /* \"#utility.yul\":26883:26917   */\n      tag_622\n      jump\t// in\n    tag_956:\n        /* \"#utility.yul\":26865:26918   */\n      tag_608\n      jump\t// in\n    tag_955:\n        /* \"#utility.yul\":26852:26918   */\n      swap1\n      pop\n        /* \"#utility.yul\":26782:26924   */\n      swap2\n      swap1\n      pop\n      jump\t// out\n        /* \"#utility.yul\":26930:27005   */\n    tag_663:\n        /* \"#utility.yul\":26973:26976   */\n      0x00\n        /* \"#utility.yul\":26994:26999   */\n      dup2\n        /* \"#utility.yul\":26987:26999   */\n      swap1\n      pop\n        /* \"#utility.yul\":26930:27005   */\n      swap2\n      swap1\n      pop\n      jump\t// out\n        /* \"#utility.yul\":27011:27280   */\n    tag_664:\n        /* \"#utility.yul\":27121:27160   */\n      tag_960\n        /* \"#utility.yul\":27152:27159   */\n      dup4\n        /* \"#utility.yul\":27121:27160   */\n      tag_662\n      jump\t// in\n    tag_960:\n        /* \"#utility.yul\":27182:27273   */\n      tag_961\n        /* \"#utility.yul\":27231:27272   */\n      tag_962\n        /* \"#utility.yul\":27255:27271   */\n      dup3\n        /* \"#utility.yul\":27231:27272   */\n      tag_663\n      jump\t// in\n    tag_962:\n        /* \"#utility.yul\":27223:27229   */\n      dup5\n        /* \"#utility.yul\":27216:27220   */\n      dup5\n        /* \"#utility.yul\":27210:27221   */\n      sload\n        /* \"#utility.yul\":27182:27273   */\n      tag_661\n      jump\t// in\n    tag_961:\n        /* \"#utility.yul\":27176:27180   */\n      dup3\n        /* \"#utility.yul\":27169:27274   */\n      sstore\n        /* \"#utility.yul\":27087:27280   */\n      pop\n        /* \"#utility.yul\":27011:27280   */\n      pop\n      pop\n      pop\n      jump\t// out\n        /* \"#utility.yul\":27286:27359   */\n    tag_665:\n        /* \"#utility.yul\":27331:27334   */\n      0x00\n        /* \"#utility.yul\":27352:27353   */\n      0x00\n        /* \"#utility.yul\":27345:27353   */\n      swap1\n      pop\n        /* \"#utility.yul\":27286:27359   */\n      swap1\n      jump\t// out\n        /* \"#utility.yul\":27365:27554   */\n    tag_666:\n        /* \"#utility.yul\":27442:27474   */\n      tag_965\n      tag_665\n      jump\t// in\n    tag_965:\n        /* \"#utility.yul\":27483:27548   */\n      tag_966\n        /* \"#utility.yul\":27541:27547   */\n      dup2\n        /* \"#utility.yul\":27533:27539   */\n      dup5\n        /* \"#utility.yul\":27527:27531   */\n      dup5\n        /* \"#utility.yul\":27483:27548   */\n      tag_664\n      jump\t// in\n    tag_966:\n        /* \"#utility.yul\":27418:27554   */\n      pop\n        /* \"#utility.yul\":27365:27554   */\n      pop\n      pop\n      jump\t// out\n        /* \"#utility.yul\":27560:27746   */\n    tag_667:\n        /* \"#utility.yul\":27620:27740   */\n    tag_968:\n        /* \"#utility.yul\":27637:27640   */\n      dup2\n        /* \"#utility.yul\":27630:27635   */\n      dup2\n        /* \"#utility.yul\":27627:27641   */\n      lt\n        /* \"#utility.yul\":27620:27740   */\n      iszero\n      tag_970\n      jumpi\n        /* \"#utility.yul\":27691:27730   */\n      tag_971\n        /* \"#utility.yul\":27728:27729   */\n      0x00\n        /* \"#utility.yul\":27721:27726   */\n      dup3\n        /* \"#utility.yul\":27691:27730   */\n      tag_666\n      jump\t// in\n    tag_971:\n        /* \"#utility.yul\":27664:27665   */\n      0x01\n        /* \"#utility.yul\":27657:27662   */\n      dup2\n        /* \"#utility.yul\":27653:27666   */\n      add\n        /* \"#utility.yul\":27644:27666   */\n      swap1\n      pop\n        /* \"#utility.yul\":27620:27740   */\n      jump(tag_968)\n    tag_970:\n        /* \"#utility.yul\":27560:27746   */\n      pop\n      pop\n      jump\t// out\n        /* \"#utility.yul\":27752:28295   */\n    tag_668:\n        /* \"#utility.yul\":27853:27855   */\n      0x1f\n        /* \"#utility.yul\":27848:27851   */\n      dup3\n        /* \"#utility.yul\":27845:27856   */\n      gt\n        /* \"#utility.yul\":27842:28288   */\n      iszero\n      tag_973\n      jumpi\n        /* \"#utility.yul\":27887:27925   */\n      tag_974\n        /* \"#utility.yul\":27919:27924   */\n      dup2\n        /* \"#utility.yul\":27887:27925   */\n      tag_658\n      jump\t// in\n    tag_974:\n        /* \"#utility.yul\":27971:28000   */\n      tag_975\n        /* \"#utility.yul\":27989:27999   */\n      dup5\n        /* \"#utility.yul\":27971:28000   */\n      tag_659\n      jump\t// in\n    tag_975:\n        /* \"#utility.yul\":27961:27969   */\n      dup2\n        /* \"#utility.yul\":27957:28001   */\n      add\n        /* \"#utility.yul\":28154:28156   */\n      0x20\n        /* \"#utility.yul\":28142:28152   */\n      dup6\n        /* \"#utility.yul\":28139:28157   */\n      lt\n        /* \"#utility.yul\":28136:28185   */\n      iszero\n      tag_976\n      jumpi\n        /* \"#utility.yul\":28175:28183   */\n      dup2\n        /* \"#utility.yul\":28160:28183   */\n      swap1\n      pop\n        /* \"#utility.yul\":28136:28185   */\n    tag_976:\n        /* \"#utility.yul\":28198:28278   */\n      tag_977\n        /* \"#utility.yul\":28254:28276   */\n      tag_978\n        /* \"#utility.yul\":28272:28275   */\n      dup6\n        /* \"#utility.yul\":28254:28276   */\n      tag_659\n      jump\t// in\n    tag_978:\n        /* \"#utility.yul\":28244:28252   */\n      dup4\n        /* \"#utility.yul\":28240:28277   */\n      add\n        /* \"#utility.yul\":28227:28238   */\n      dup3\n        /* \"#utility.yul\":28198:28278   */\n      tag_667\n      jump\t// in\n    tag_977:\n        /* \"#utility.yul\":27857:28288   */\n      pop\n      pop\n        /* \"#utility.yul\":27842:28288   */\n    tag_973:\n        /* \"#utility.yul\":27752:28295   */\n      pop\n      pop\n      pop\n      jump\t// out\n        /* \"#utility.yul\":28301:28418   */\n    tag_669:\n        /* \"#utility.yul\":28355:28363   */\n      0x00\n        /* \"#utility.yul\":28405:28410   */\n      dup3\n        /* \"#utility.yul\":28399:28403   */\n      dup3\n        /* \"#utility.yul\":28395:28411   */\n      shr\n        /* \"#utility.yul\":28374:28411   */\n      swap1\n      pop\n        /* \"#utility.yul\":28301:28418   */\n      swap3\n      swap2\n      pop\n      pop\n      jump\t// out\n        /* \"#utility.yul\":28424:28593   */\n    tag_670:\n        /* \"#utility.yul\":28468:28474   */\n      0x00\n        /* \"#utility.yul\":28501:28552   */\n      tag_981\n        /* \"#utility.yul\":28549:28550   */\n      0x00\n        /* \"#utility.yul\":28545:28551   */\n      not\n        /* \"#utility.yul\":28537:28542   */\n      dup5\n        /* \"#utility.yul\":28534:28535   */\n      0x08\n        /* \"#utility.yul\":28530:28543   */\n      mul\n        /* \"#utility.yul\":28501:28552   */\n      tag_669\n      jump\t// in\n    tag_981:\n        /* \"#utility.yul\":28497:28553   */\n      not\n        /* \"#utility.yul\":28582:28586   */\n      dup1\n        /* \"#utility.yul\":28576:28580   */\n      dup4\n        /* \"#utility.yul\":28572:28587   */\n      and\n        /* \"#utility.yul\":28562:28587   */\n      swap2\n      pop\n        /* \"#utility.yul\":28475:28593   */\n      pop\n        /* \"#utility.yul\":28424:28593   */\n      swap3\n      swap2\n      pop\n      pop\n      jump\t// out\n        /* \"#utility.yul\":28598:28893   */\n    tag_671:\n        /* \"#utility.yul\":28674:28678   */\n      0x00\n        /* \"#utility.yul\":28820:28849   */\n      tag_983\n        /* \"#utility.yul\":28845:28848   */\n      dup4\n        /* \"#utility.yul\":28839:28843   */\n      dup4\n        /* \"#utility.yul\":28820:28849   */\n      tag_670\n      jump\t// in\n    tag_983:\n        /* \"#utility.yul\":28812:28849   */\n      swap2\n      pop\n        /* \"#utility.yul\":28882:28885   */\n      dup3\n        /* \"#utility.yul\":28879:28880   */\n      0x02\n        /* \"#utility.yul\":28875:28886   */\n      mul\n        /* \"#utility.yul\":28869:28873   */\n      dup3\n        /* \"#utility.yul\":28866:28887   */\n      or\n        /* \"#utility.yul\":28858:28887   */\n      swap1\n      pop\n        /* \"#utility.yul\":28598:28893   */\n      swap3\n      swap2\n      pop\n      pop\n      jump\t// out\n        /* \"#utility.yul\":28898:30301   */\n    tag_304:\n        /* \"#utility.yul\":29022:29066   */\n      tag_985\n        /* \"#utility.yul\":29062:29065   */\n      dup4\n        /* \"#utility.yul\":29057:29060   */\n      dup4\n        /* \"#utility.yul\":29022:29066   */\n      tag_656\n      jump\t// in\n    tag_985:\n        /* \"#utility.yul\":29131:29149   */\n      0xffffffffffffffff\n        /* \"#utility.yul\":29123:29129   */\n      dup2\n        /* \"#utility.yul\":29120:29150   */\n      gt\n        /* \"#utility.yul\":29117:29173   */\n      iszero\n      tag_986\n      jumpi\n        /* \"#utility.yul\":29153:29171   */\n      tag_987\n      tag_629\n      jump\t// in\n    tag_987:\n        /* \"#utility.yul\":29117:29173   */\n    tag_986:\n        /* \"#utility.yul\":29197:29235   */\n      tag_988\n        /* \"#utility.yul\":29229:29233   */\n      dup3\n        /* \"#utility.yul\":29223:29234   */\n      sload\n        /* \"#utility.yul\":29197:29235   */\n      tag_384\n      jump\t// in\n    tag_988:\n        /* \"#utility.yul\":29282:29349   */\n      tag_989\n        /* \"#utility.yul\":29342:29348   */\n      dup3\n        /* \"#utility.yul\":29334:29340   */\n      dup3\n        /* \"#utility.yul\":29328:29332   */\n      dup6\n        /* \"#utility.yul\":29282:29349   */\n      tag_668\n      jump\t// in\n    tag_989:\n        /* \"#utility.yul\":29376:29377   */\n      0x00\n        /* \"#utility.yul\":29405:29407   */\n      0x1f\n        /* \"#utility.yul\":29397:29403   */\n      dup4\n        /* \"#utility.yul\":29394:29408   */\n      gt\n        /* \"#utility.yul\":29422:29423   */\n      0x01\n        /* \"#utility.yul\":29417:30049   */\n      dup2\n      eq\n      tag_991\n      jumpi\n        /* \"#utility.yul\":30093:30094   */\n      0x00\n        /* \"#utility.yul\":30110:30116   */\n      dup5\n        /* \"#utility.yul\":30107:30191   */\n      iszero\n      tag_992\n      jumpi\n        /* \"#utility.yul\":30166:30175   */\n      dup3\n        /* \"#utility.yul\":30161:30164   */\n      dup8\n        /* \"#utility.yul\":30157:30176   */\n      add\n        /* \"#utility.yul\":30144:30177   */\n      calldataload\n        /* \"#utility.yul\":30135:30177   */\n      swap1\n      pop\n        /* \"#utility.yul\":30107:30191   */\n    tag_992:\n        /* \"#utility.yul\":30217:30284   */\n      tag_993\n        /* \"#utility.yul\":30277:30283   */\n      dup6\n        /* \"#utility.yul\":30270:30275   */\n      dup3\n        /* \"#utility.yul\":30217:30284   */\n      tag_671\n      jump\t// in\n    tag_993:\n        /* \"#utility.yul\":30211:30215   */\n      dup7\n        /* \"#utility.yul\":30204:30285   */\n      sstore\n        /* \"#utility.yul\":30066:30295   */\n      pop\n        /* \"#utility.yul\":29387:30295   */\n      jump(tag_990)\n        /* \"#utility.yul\":29417:30049   */\n    tag_991:\n        /* \"#utility.yul\":29469:29473   */\n      0x1f\n        /* \"#utility.yul\":29465:29474   */\n      not\n        /* \"#utility.yul\":29457:29463   */\n      dup5\n        /* \"#utility.yul\":29453:29475   */\n      and\n        /* \"#utility.yul\":29503:29540   */\n      tag_994\n        /* \"#utility.yul\":29535:29539   */\n      dup7\n        /* \"#utility.yul\":29503:29540   */\n      tag_658\n      jump\t// in\n    tag_994:\n        /* \"#utility.yul\":29562:29563   */\n      0x00\n        /* \"#utility.yul\":29576:29791   */\n    tag_995:\n        /* \"#utility.yul\":29590:29597   */\n      dup3\n        /* \"#utility.yul\":29587:29588   */\n      dup2\n        /* \"#utility.yul\":29584:29598   */\n      lt\n        /* \"#utility.yul\":29576:29791   */\n      iszero\n      tag_997\n      jumpi\n        /* \"#utility.yul\":29676:29685   */\n      dup5\n        /* \"#utility.yul\":29671:29674   */\n      dup10\n        /* \"#utility.yul\":29667:29686   */\n      add\n        /* \"#utility.yul\":29654:29687   */\n      calldataload\n        /* \"#utility.yul\":29646:29652   */\n      dup3\n        /* \"#utility.yul\":29639:29688   */\n      sstore\n        /* \"#utility.yul\":29727:29728   */\n      0x01\n        /* \"#utility.yul\":29719:29725   */\n      dup3\n        /* \"#utility.yul\":29715:29729   */\n      add\n        /* \"#utility.yul\":29705:29729   */\n      swap2\n      pop\n        /* \"#utility.yul\":29774:29776   */\n      0x20\n        /* \"#utility.yul\":29763:29772   */\n      dup6\n        /* \"#utility.yul\":29759:29777   */\n      add\n        /* \"#utility.yul\":29746:29777   */\n      swap5\n      pop\n        /* \"#utility.yul\":29613:29617   */\n      0x20\n        /* \"#utility.yul\":29610:29611   */\n      dup2\n        /* \"#utility.yul\":29606:29618   */\n      add\n        /* \"#utility.yul\":29601:29618   */\n      swap1\n      pop\n        /* \"#utility.yul\":29576:29791   */\n      jump(tag_995)\n    tag_997:\n        /* \"#utility.yul\":29819:29825   */\n      dup7\n        /* \"#utility.yul\":29810:29817   */\n      dup4\n        /* \"#utility.yul\":29807:29826   */\n      lt\n        /* \"#utility.yul\":29804:29990   */\n      iszero\n      tag_998\n      jumpi\n        /* \"#utility.yul\":29884:29893   */\n      dup5\n        /* \"#utility.yul\":29879:29882   */\n      dup10\n        /* \"#utility.yul\":29875:29894   */\n      add\n        /* \"#utility.yul\":29862:29895   */\n      calldataload\n        /* \"#utility.yul\":29927:29975   */\n      tag_999\n        /* \"#utility.yul\":29969:29973   */\n      0x1f\n        /* \"#utility.yul\":29961:29967   */\n      dup10\n        /* \"#utility.yul\":29957:29974   */\n      and\n        /* \"#utility.yul\":29946:29955   */\n      dup3\n        /* \"#utility.yul\":29927:29975   */\n      tag_670\n      jump\t// in\n    tag_999:\n        /* \"#utility.yul\":29919:29925   */\n      dup4\n        /* \"#utility.yul\":29912:29976   */\n      sstore\n        /* \"#utility.yul\":29827:29990   */\n      pop\n        /* \"#utility.yul\":29804:29990   */\n    tag_998:\n        /* \"#utility.yul\":30036:30037   */\n      0x01\n        /* \"#utility.yul\":30032:30033   */\n      0x02\n        /* \"#utility.yul\":30024:30030   */\n      dup9\n        /* \"#utility.yul\":30020:30034   */\n      mul\n        /* \"#utility.yul\":30016:30038   */\n      add\n        /* \"#utility.yul\":30010:30014   */\n      dup9\n        /* \"#utility.yul\":30003:30039   */\n      sstore\n        /* \"#utility.yul\":29424:30049   */\n      pop\n      pop\n      pop\n        /* \"#utility.yul\":29387:30295   */\n    tag_990:\n      pop\n        /* \"#utility.yul\":28997:30301   */\n      pop\n      pop\n      pop\n        /* \"#utility.yul\":28898:30301   */\n      pop\n      pop\n      pop\n      jump\t// out\n        /* \"#utility.yul\":30307:30627   */\n    tag_307:\n        /* \"#utility.yul\":30422:30426   */\n      0x00\n        /* \"#utility.yul\":30460:30462   */\n      0x40\n        /* \"#utility.yul\":30449:30458   */\n      dup3\n        /* \"#utility.yul\":30445:30463   */\n      add\n        /* \"#utility.yul\":30437:30463   */\n      swap1\n      pop\n        /* \"#utility.yul\":30473:30544   */\n      tag_1001\n        /* \"#utility.yul\":30541:30542   */\n      0x00\n        /* \"#utility.yul\":30530:30539   */\n      dup4\n        /* \"#utility.yul\":30526:30543   */\n      add\n        /* \"#utility.yul\":30517:30523   */\n      dup6\n        /* \"#utility.yul\":30473:30544   */\n      tag_636\n      jump\t// in\n    tag_1001:\n        /* \"#utility.yul\":30554:30620   */\n      tag_1002\n        /* \"#utility.yul\":30616:30618   */\n      0x20\n        /* \"#utility.yul\":30605:30614   */\n      dup4\n        /* \"#utility.yul\":30601:30619   */\n      add\n        /* \"#utility.yul\":30592:30598   */\n      dup5\n        /* \"#utility.yul\":30554:30620   */\n      tag_617\n      jump\t// in\n    tag_1002:\n        /* \"#utility.yul\":30307:30627   */\n      swap4\n      swap3\n      pop\n      pop\n      pop\n      jump\t// out\n        /* \"#utility.yul\":30657:30974   */\n    tag_672:\n        /* \"#utility.yul\":30755:30758   */\n      0x00\n        /* \"#utility.yul\":30776:30847   */\n      tag_1004\n        /* \"#utility.yul\":30840:30846   */\n      dup4\n        /* \"#utility.yul\":30835:30838   */\n      dup6\n        /* \"#utility.yul\":30776:30847   */\n      tag_593\n      jump\t// in\n    tag_1004:\n        /* \"#utility.yul\":30769:30847   */\n      swap4\n      pop\n        /* \"#utility.yul\":30857:30913   */\n      tag_1005\n        /* \"#utility.yul\":30906:30912   */\n      dup4\n        /* \"#utility.yul\":30901:30904   */\n      dup6\n        /* \"#utility.yul\":30894:30899   */\n      dup5\n        /* \"#utility.yul\":30857:30913   */\n      tag_633\n      jump\t// in\n    tag_1005:\n        /* \"#utility.yul\":30938:30967   */\n      tag_1006\n        /* \"#utility.yul\":30960:30966   */\n      dup4\n        /* \"#utility.yul\":30938:30967   */\n      tag_628\n      jump\t// in\n    tag_1006:\n        /* \"#utility.yul\":30933:30936   */\n      dup5\n        /* \"#utility.yul\":30929:30968   */\n      add\n        /* \"#utility.yul\":30922:30968   */\n      swap1\n      pop\n        /* \"#utility.yul\":30657:30974   */\n      swap4\n      swap3\n      pop\n      pop\n      pop\n      jump\t// out\n        /* \"#utility.yul\":30980:31313   */\n    tag_312:\n        /* \"#utility.yul\":31103:31107   */\n      0x00\n        /* \"#utility.yul\":31141:31143   */\n      0x20\n        /* \"#utility.yul\":31130:31139   */\n      dup3\n        /* \"#utility.yul\":31126:31144   */\n      add\n        /* \"#utility.yul\":31118:31144   */\n      swap1\n      pop\n        /* \"#utility.yul\":31190:31199   */\n      dup2\n        /* \"#utility.yul\":31184:31188   */\n      dup2\n        /* \"#utility.yul\":31180:31200   */\n      sub\n        /* \"#utility.yul\":31176:31177   */\n      0x00\n        /* \"#utility.yul\":31165:31174   */\n      dup4\n        /* \"#utility.yul\":31161:31178   */\n      add\n        /* \"#utility.yul\":31154:31201   */\n      mstore\n        /* \"#utility.yul\":31218:31306   */\n      tag_1008\n        /* \"#utility.yul\":31301:31305   */\n      dup2\n        /* \"#utility.yul\":31292:31298   */\n      dup5\n        /* \"#utility.yul\":31284:31290   */\n      dup7\n        /* \"#utility.yul\":31218:31306   */\n      tag_672\n      jump\t// in\n    tag_1008:\n        /* \"#utility.yul\":31210:31306   */\n      swap1\n      pop\n        /* \"#utility.yul\":30980:31313   */\n      swap4\n      swap3\n      pop\n      pop\n      pop\n      jump\t// out\n        /* \"#utility.yul\":31319:31651   */\n    tag_333:\n        /* \"#utility.yul\":31440:31444   */\n      0x00\n        /* \"#utility.yul\":31478:31480   */\n      0x40\n        /* \"#utility.yul\":31467:31476   */\n      dup3\n        /* \"#utility.yul\":31463:31481   */\n      add\n        /* \"#utility.yul\":31455:31481   */\n      swap1\n      pop\n        /* \"#utility.yul\":31491:31562   */\n      tag_1010\n        /* \"#utility.yul\":31559:31560   */\n      0x00\n        /* \"#utility.yul\":31548:31557   */\n      dup4\n        /* \"#utility.yul\":31544:31561   */\n      add\n        /* \"#utility.yul\":31535:31541   */\n      dup6\n        /* \"#utility.yul\":31491:31562   */\n      tag_636\n      jump\t// in\n    tag_1010:\n        /* \"#utility.yul\":31572:31644   */\n      tag_1011\n        /* \"#utility.yul\":31640:31642   */\n      0x20\n        /* \"#utility.yul\":31629:31638   */\n      dup4\n        /* \"#utility.yul\":31625:31643   */\n      add\n        /* \"#utility.yul\":31616:31622   */\n      dup5\n        /* \"#utility.yul\":31572:31644   */\n      tag_636\n      jump\t// in\n    tag_1011:\n        /* \"#utility.yul\":31319:31651   */\n      swap4\n      swap3\n      pop\n      pop\n      pop\n      jump\t// out\n        /* \"#utility.yul\":31657:33052   */\n    tag_366:\n        /* \"#utility.yul\":31774:31811   */\n      tag_1013\n        /* \"#utility.yul\":31807:31810   */\n      dup3\n        /* \"#utility.yul\":31774:31811   */\n      tag_641\n      jump\t// in\n    tag_1013:\n        /* \"#utility.yul\":31876:31894   */\n      0xffffffffffffffff\n        /* \"#utility.yul\":31868:31874   */\n      dup2\n        /* \"#utility.yul\":31865:31895   */\n      gt\n        /* \"#utility.yul\":31862:31918   */\n      iszero\n      tag_1014\n      jumpi\n        /* \"#utility.yul\":31898:31916   */\n      tag_1015\n      tag_629\n      jump\t// in\n    tag_1015:\n        /* \"#utility.yul\":31862:31918   */\n    tag_1014:\n        /* \"#utility.yul\":31942:31980   */\n      tag_1016\n        /* \"#utility.yul\":31974:31978   */\n      dup3\n        /* \"#utility.yul\":31968:31979   */\n      sload\n        /* \"#utility.yul\":31942:31980   */\n      tag_384\n      jump\t// in\n    tag_1016:\n        /* \"#utility.yul\":32027:32094   */\n      tag_1017\n        /* \"#utility.yul\":32087:32093   */\n      dup3\n        /* \"#utility.yul\":32079:32085   */\n      dup3\n        /* \"#utility.yul\":32073:32077   */\n      dup6\n        /* \"#utility.yul\":32027:32094   */\n      tag_668\n      jump\t// in\n    tag_1017:\n        /* \"#utility.yul\":32121:32122   */\n      0x00\n        /* \"#utility.yul\":32145:32149   */\n      0x20\n        /* \"#utility.yul\":32132:32149   */\n      swap1\n      pop\n        /* \"#utility.yul\":32177:32179   */\n      0x1f\n        /* \"#utility.yul\":32169:32175   */\n      dup4\n        /* \"#utility.yul\":32166:32180   */\n      gt\n        /* \"#utility.yul\":32194:32195   */\n      0x01\n        /* \"#utility.yul\":32189:32807   */\n      dup2\n      eq\n      tag_1019\n      jumpi\n        /* \"#utility.yul\":32851:32852   */\n      0x00\n        /* \"#utility.yul\":32868:32874   */\n      dup5\n        /* \"#utility.yul\":32865:32942   */\n      iszero\n      tag_1020\n      jumpi\n        /* \"#utility.yul\":32917:32926   */\n      dup3\n        /* \"#utility.yul\":32912:32915   */\n      dup8\n        /* \"#utility.yul\":32908:32927   */\n      add\n        /* \"#utility.yul\":32902:32928   */\n      mload\n        /* \"#utility.yul\":32893:32928   */\n      swap1\n      pop\n        /* \"#utility.yul\":32865:32942   */\n    tag_1020:\n        /* \"#utility.yul\":32968:33035   */\n      tag_1021\n        /* \"#utility.yul\":33028:33034   */\n      dup6\n        /* \"#utility.yul\":33021:33026   */\n      dup3\n        /* \"#utility.yul\":32968:33035   */\n      tag_671\n      jump\t// in\n    tag_1021:\n        /* \"#utility.yul\":32962:32966   */\n      dup7\n        /* \"#utility.yul\":32955:33036   */\n      sstore\n        /* \"#utility.yul\":32824:33046   */\n      pop\n        /* \"#utility.yul\":32159:33046   */\n      jump(tag_1018)\n        /* \"#utility.yul\":32189:32807   */\n    tag_1019:\n        /* \"#utility.yul\":32241:32245   */\n      0x1f\n        /* \"#utility.yul\":32237:32246   */\n      not\n        /* \"#utility.yul\":32229:32235   */\n      dup5\n        /* \"#utility.yul\":32225:32247   */\n      and\n        /* \"#utility.yul\":32275:32312   */\n      tag_1022\n        /* \"#utility.yul\":32307:32311   */\n      dup7\n        /* \"#utility.yul\":32275:32312   */\n      tag_658\n      jump\t// in\n    tag_1022:\n        /* \"#utility.yul\":32334:32335   */\n      0x00\n        /* \"#utility.yul\":32348:32556   */\n    tag_1023:\n        /* \"#utility.yul\":32362:32369   */\n      dup3\n        /* \"#utility.yul\":32359:32360   */\n      dup2\n        /* \"#utility.yul\":32356:32370   */\n      lt\n        /* \"#utility.yul\":32348:32556   */\n      iszero\n      tag_1025\n      jumpi\n        /* \"#utility.yul\":32441:32450   */\n      dup5\n        /* \"#utility.yul\":32436:32439   */\n      dup10\n        /* \"#utility.yul\":32432:32451   */\n      add\n        /* \"#utility.yul\":32426:32452   */\n      mload\n        /* \"#utility.yul\":32418:32424   */\n      dup3\n        /* \"#utility.yul\":32411:32453   */\n      sstore\n        /* \"#utility.yul\":32492:32493   */\n      0x01\n        /* \"#utility.yul\":32484:32490   */\n      dup3\n        /* \"#utility.yul\":32480:32494   */\n      add\n        /* \"#utility.yul\":32470:32494   */\n      swap2\n      pop\n        /* \"#utility.yul\":32539:32541   */\n      0x20\n        /* \"#utility.yul\":32528:32537   */\n      dup6\n        /* \"#utility.yul\":32524:32542   */\n      add\n        /* \"#utility.yul\":32511:32542   */\n      swap5\n      pop\n        /* \"#utility.yul\":32385:32389   */\n      0x20\n        /* \"#utility.yul\":32382:32383   */\n      dup2\n        /* \"#utility.yul\":32378:32390   */\n      add\n        /* \"#utility.yul\":32373:32390   */\n      swap1\n      pop\n        /* \"#utility.yul\":32348:32556   */\n      jump(tag_1023)\n    tag_1025:\n        /* \"#utility.yul\":32584:32590   */\n      dup7\n        /* \"#utility.yul\":32575:32582   */\n      dup4\n        /* \"#utility.yul\":32572:32591   */\n      lt\n        /* \"#utility.yul\":32569:32748   */\n      iszero\n      tag_1026\n      jumpi\n        /* \"#utility.yul\":32642:32651   */\n      dup5\n        /* \"#utility.yul\":32637:32640   */\n      dup10\n        /* \"#utility.yul\":32633:32652   */\n      add\n        /* \"#utility.yul\":32627:32653   */\n      mload\n        /* \"#utility.yul\":32685:32733   */\n      tag_1027\n        /* \"#utility.yul\":32727:32731   */\n      0x1f\n        /* \"#utility.yul\":32719:32725   */\n      dup10\n        /* \"#utility.yul\":32715:32732   */\n      and\n        /* \"#utility.yul\":32704:32713   */\n      dup3\n        /* \"#utility.yul\":32685:32733   */\n      tag_670\n      jump\t// in\n    tag_1027:\n        /* \"#utility.yul\":32677:32683   */\n      dup4\n        /* \"#utility.yul\":32670:32734   */\n      sstore\n        /* \"#utility.yul\":32592:32748   */\n      pop\n        /* \"#utility.yul\":32569:32748   */\n    tag_1026:\n        /* \"#utility.yul\":32794:32795   */\n      0x01\n        /* \"#utility.yul\":32790:32791   */\n      0x02\n        /* \"#utility.yul\":32782:32788   */\n      dup9\n        /* \"#utility.yul\":32778:32792   */\n      mul\n        /* \"#utility.yul\":32774:32796   */\n      add\n        /* \"#utility.yul\":32768:32772   */\n      dup9\n        /* \"#utility.yul\":32761:32797   */\n      sstore\n        /* \"#utility.yul\":32196:32807   */\n      pop\n      pop\n      pop\n        /* \"#utility.yul\":32159:33046   */\n    tag_1018:\n      pop\n        /* \"#utility.yul\":31749:33052   */\n      pop\n      pop\n      pop\n        /* \"#utility.yul\":31657:33052   */\n      pop\n      pop\n      jump\t// out\n        /* \"#utility.yul\":33058:33291   */\n    tag_372:\n        /* \"#utility.yul\":33097:33100   */\n      0x00\n        /* \"#utility.yul\":33120:33144   */\n      tag_1029\n        /* \"#utility.yul\":33138:33143   */\n      dup3\n        /* \"#utility.yul\":33120:33144   */\n      tag_608\n      jump\t// in\n    tag_1029:\n        /* \"#utility.yul\":33111:33144   */\n      swap2\n      pop\n        /* \"#utility.yul\":33166:33232   */\n      0xffffffffffffffffffffffffffffffffffffffffffffffffffffffffffffffff\n        /* \"#utility.yul\":33159:33164   */\n      dup3\n        /* \"#utility.yul\":33156:33233   */\n      sub\n        /* \"#utility.yul\":33153:33256   */\n      tag_1030\n      jumpi\n        /* \"#utility.yul\":33236:33254   */\n      tag_1031\n      tag_649\n      jump\t// in\n    tag_1031:\n        /* \"#utility.yul\":33153:33256   */\n    tag_1030:\n        /* \"#utility.yul\":33283:33284   */\n      0x01\n        /* \"#utility.yul\":33276:33281   */\n      dup3\n        /* \"#utility.yul\":33272:33285   */\n      add\n        /* \"#utility.yul\":33265:33285   */\n      swap1\n      pop\n        /* \"#utility.yul\":33058:33291   */\n      swap2\n      swap1\n      pop\n      jump\t// out\n        /* \"#utility.yul\":33297:33382   */\n    tag_673:\n        /* \"#utility.yul\":33342:33349   */\n      0x00\n        /* \"#utility.yul\":33371:33376   */\n      dup2\n        /* \"#utility.yul\":33360:33376   */\n      swap1\n      pop\n        /* \"#utility.yul\":33297:33382   */\n      swap2\n      swap1\n      pop\n      jump\t// out\n        /* \"#utility.yul\":33388:33546   */\n    tag_674:\n        /* \"#utility.yul\":33446:33455   */\n      0x00\n        /* \"#utility.yul\":33479:33540   */\n      tag_1034\n        /* \"#utility.yul\":33497:33539   */\n      tag_1035\n        /* \"#utility.yul\":33506:33538   */\n      tag_1036\n        /* \"#utility.yul\":33532:33537   */\n      dup5\n        /* \"#utility.yul\":33506:33538   */\n      tag_673\n      jump\t// in\n    tag_1036:\n        /* \"#utility.yul\":33497:33539   */\n      tag_622\n      jump\t// in\n    tag_1035:\n        /* \"#utility.yul\":33479:33540   */\n      tag_608\n      jump\t// in\n    tag_1034:\n        /* \"#utility.yul\":33466:33540   */\n      swap1\n      pop\n        /* \"#utility.yul\":33388:33546   */\n      swap2\n      swap1\n      pop\n      jump\t// out\n        /* \"#utility.yul\":33552:33699   */\n    tag_675:\n        /* \"#utility.yul\":33647:33692   */\n      tag_1038\n        /* \"#utility.yul\":33686:33691   */\n      dup2\n        /* \"#utility.yul\":33647:33692   */\n      tag_674\n      jump\t// in\n    tag_1038:\n        /* \"#utility.yul\":33642:33645   */\n      dup3\n        /* \"#utility.yul\":33635:33693   */\n      mstore\n        /* \"#utility.yul\":33552:33699   */\n      pop\n      pop\n      jump\t// out\n        /* \"#utility.yul\":33705:34254   */\n    tag_374:\n        /* \"#utility.yul\":33882:33886   */\n      0x00\n        /* \"#utility.yul\":33920:33922   */\n      0x60\n        /* \"#utility.yul\":33909:33918   */\n      dup3\n        /* \"#utility.yul\":33905:33923   */\n      add\n        /* \"#utility.yul\":33897:33923   */\n      swap1\n      pop\n        /* \"#utility.yul\":33933:34004   */\n      tag_1040\n        /* \"#utility.yul\":34001:34002   */\n      0x00\n        /* \"#utility.yul\":33990:33999   */\n      dup4\n        /* \"#utility.yul\":33986:34003   */\n      add\n        /* \"#utility.yul\":33977:33983   */\n      dup7\n        /* \"#utility.yul\":33933:34004   */\n      tag_636\n      jump\t// in\n    tag_1040:\n        /* \"#utility.yul\":34014:34094   */\n      tag_1041\n        /* \"#utility.yul\":34090:34092   */\n      0x20\n        /* \"#utility.yul\":34079:34088   */\n      dup4\n        /* \"#utility.yul\":34075:34093   */\n      add\n        /* \"#utility.yul\":34066:34072   */\n      dup6\n        /* \"#utility.yul\":34014:34094   */\n      tag_675\n      jump\t// in\n    tag_1041:\n        /* \"#utility.yul\":34141:34150   */\n      dup2\n        /* \"#utility.yul\":34135:34139   */\n      dup2\n        /* \"#utility.yul\":34131:34151   */\n      sub\n        /* \"#utility.yul\":34126:34128   */\n      0x40\n        /* \"#utility.yul\":34115:34124   */\n      dup4\n        /* \"#utility.yul\":34111:34129   */\n      add\n        /* \"#utility.yul\":34104:34152   */\n      mstore\n        /* \"#utility.yul\":34169:34247   */\n      tag_1042\n        /* \"#utility.yul\":34242:34246   */\n      dup2\n        /* \"#utility.yul\":34233:34239   */\n      dup5\n        /* \"#utility.yul\":34169:34247   */\n      tag_643\n      jump\t// in\n    tag_1042:\n        /* \"#utility.yul\":34161:34247   */\n      swap1\n      pop\n        /* \"#utility.yul\":33705:34254   */\n      swap5\n      swap4\n      pop\n      pop\n      pop\n      pop\n      jump\t// out\n        /* \"#utility.yul\":34260:34801   */\n    tag_523:\n        /* \"#utility.yul\":34431:34435   */\n      0x00\n        /* \"#utility.yul\":34469:34472   */\n      0x80\n        /* \"#utility.yul\":34458:34467   */\n      dup3\n        /* \"#utility.yul\":34454:34473   */\n      add\n        /* \"#utility.yul\":34446:34473   */\n      swap1\n      pop\n        /* \"#utility.yul\":34483:34554   */\n      tag_1044\n        /* \"#utility.yul\":34551:34552   */\n      0x00\n        /* \"#utility.yul\":34540:34549   */\n      dup4\n        /* \"#utility.yul\":34536:34553   */\n      add\n        /* \"#utility.yul\":34527:34533   */\n      dup8\n        /* \"#utility.yul\":34483:34554   */\n      tag_636\n      jump\t// in\n    tag_1044:\n        /* \"#utility.yul\":34564:34630   */\n      tag_1045\n        /* \"#utility.yul\":34626:34628   */\n      0x20\n        /* \"#utility.yul\":34615:34624   */\n      dup4\n        /* \"#utility.yul\":34611:34629   */\n      add\n        /* \"#utility.yul\":34602:34608   */\n      dup7\n        /* \"#utility.yul\":34564:34630   */\n      tag_617\n      jump\t// in\n    tag_1045:\n        /* \"#utility.yul\":34640:34712   */\n      tag_1046\n        /* \"#utility.yul\":34708:34710   */\n      0x40\n        /* \"#utility.yul\":34697:34706   */\n      dup4\n        /* \"#utility.yul\":34693:34711   */\n      add\n        /* \"#utility.yul\":34684:34690   */\n      dup6\n        /* \"#utility.yul\":34640:34712   */\n      tag_613\n      jump\t// in\n    tag_1046:\n        /* \"#utility.yul\":34722:34794   */\n      tag_1047\n        /* \"#utility.yul\":34790:34792   */\n      0x60\n        /* \"#utility.yul\":34779:34788   */\n      dup4\n        /* \"#utility.yul\":34775:34793   */\n      add\n        /* \"#utility.yul\":34766:34772   */\n      dup5\n        /* \"#utility.yul\":34722:34794   */\n      tag_613\n      jump\t// in\n    tag_1047:\n        /* \"#utility.yul\":34260:34801   */\n      swap6\n      swap5\n      pop\n      pop\n      pop\n      pop\n      pop\n      jump\t// out\n        /* \"#utility.yul\":34807:34987   */\n    tag_581:\n        /* \"#utility.yul\":34855:34932   */\n      0x4e487b7100000000000000000000000000000000000000000000000000000000\n        /* \"#utility.yul\":34852:34853   */\n      0x00\n        /* \"#utility.yul\":34845:34933   */\n      mstore\n        /* \"#utility.yul\":34952:34956   */\n      0x32\n        /* \"#utility.yul\":34949:34950   */\n      0x04\n        /* \"#utility.yul\":34942:34957   */\n      mstore\n        /* \"#utility.yul\":34976:34980   */\n      0x24\n        /* \"#utility.yul\":34973:34974   */\n      0x00\n        /* \"#utility.yul\":34966:34981   */\n      revert\n        /* \"#utility.yul\":34993:35325   */\n    tag_589:\n        /* \"#utility.yul\":35114:35118   */\n      0x00\n        /* \"#utility.yul\":35152:35154   */\n      0x40\n        /* \"#utility.yul\":35141:35150   */\n      dup3\n        /* \"#utility.yul\":35137:35155   */\n      add\n        /* \"#utility.yul\":35129:35155   */\n      swap1\n      pop\n        /* \"#utility.yul\":35165:35236   */\n      tag_1050\n        /* \"#utility.yul\":35233:35234   */\n      0x00\n        /* \"#utility.yul\":35222:35231   */\n      dup4\n        /* \"#utility.yul\":35218:35235   */\n      add\n        /* \"#utility.yul\":35209:35215   */\n      dup6\n        /* \"#utility.yul\":35165:35236   */\n      tag_636\n      jump\t// in\n    tag_1050:\n        /* \"#utility.yul\":35246:35318   */\n      tag_1051\n        /* \"#utility.yul\":35314:35316   */\n      0x20\n        /* \"#utility.yul\":35303:35312   */\n      dup4\n        /* \"#utility.yul\":35299:35317   */\n      add\n        /* \"#utility.yul\":35290:35296   */\n      dup5\n        /* \"#utility.yul\":35246:35318   */\n      tag_613\n      jump\t// in\n    tag_1051:\n        /* \"#utility.yul\":34993:35325   */\n      swap4\n      swap3\n      pop\n      pop\n      pop\n      jump\t// out\n\n    auxdata: 0xa2646970667358221220e7a64de427eff3c401c121de81961b9e9785c64d6a1c4af4ff6c6c750b3a3f7864736f6c634300081e0033\n}\n",
				"bytecode": {
					"linkReferences": {},
					"object": "60806040526001805560016008553480156017575f5ffd5b50335f5f6101000a81548173ffffffffffffffffffffffffffffffffffffffff021916908373ffffffffffffffffffffffffffffffffffffffff160217905550615059806100645f395ff3fe6080604052600436106101f1575f3560e01c80639259061e1161010c578063b3d50e371161009f578063e55e42111161006e578063e55e4211146107ed578063eaf8294b14610815578063ec18154e14610831578063f376ebbb1461085b578063f3fee05d1461088557610231565b8063b3d50e3714610713578063b93c37701461073b578063c16fe9071461077d578063cdd78cfc146107c357610231565b80639cb80f00116100db5780639cb80f001461064b578063aa0b598814610687578063ace417e0146106af578063b0d5451b146106eb57610231565b80639259061e1461055c5780639377d7111461058c5780639bfd3f9d146105d35780639c51d4a11461060f57610231565b806349773050116101845780635c7460d6116101535780635c7460d6146104a25780636353f887146104cc5780636f9fb98a146105085780638da5cb5b1461053257610231565b806349773050146104025780634b920afe1461042a5780635a27cbcb146104525780635aef573c1461047a57610231565b80632beca249116101c05780632beca249146103385780632d1fdef6146103745780633bf477201461039c57806342b0a8ce146103c657610231565b8063042334561461026c578063136d8883146102a8578063155dd5ee146102d45780632bbdcb4e146102fc57610231565b36610231576040517f08c379a000000000000000000000000000000000000000000000000000000000815260040161022890613e7e565b60405180910390fd5b6040517f08c379a000000000000000000000000000000000000000000000000000000000815260040161026390613ee6565b60405180910390fd5b348015610277575f5ffd5b50610292600480360381019061028d9190613f6f565b6108ad565b60405161029f919061405a565b60405180910390f35b3480156102b3575f5ffd5b506102bc610940565b6040516102cb93929190614089565b60405180910390f35b3480156102df575f5ffd5b506102fa60048036038101906102f591906140e8565b610957565b005b348015610307575f5ffd5b50610322600480360381019061031d9190614113565b610dad565b60405161032f9190614151565b60405180910390f35b348015610343575f5ffd5b5061035e60048036038101906103599190613f6f565b610dd8565b60405161036b9190614184565b60405180910390f35b34801561037f575f5ffd5b5061039a6004803603810190610395919061419d565b610ed6565b005b3480156103a7575f5ffd5b506103b0611107565b6040516103bd9190614151565b60405180910390f35b3480156103d1575f5ffd5b506103ec60048036038101906103e79190613f6f565b61110d565b6040516103f9919061405a565b60405180910390f35b34801561040d575f5ffd5b5061042860048036038101906104239190613f6f565b6111a0565b005b348015610435575f5ffd5b50610450600480360381019061044b919061423c565b611273565b005b34801561045d575f5ffd5b5061047860048036038101906104739190614299565b6115b4565b005b348015610485575f5ffd5b506104a0600480360381019061049b919061423c565b611890565b005b3480156104ad575f5ffd5b506104b6611b2e565b6040516104c39190614332565b60405180910390f35b3480156104d7575f5ffd5b506104f260048036038101906104ed9190614483565b611b53565b6040516104ff9190614151565b60405180910390f35b348015610513575f5ffd5b5061051c612072565b6040516105299190614151565b60405180910390f35b34801561053d575f5ffd5b50610546612079565b6040516105539190614512565b60405180910390f35b61057660048036038101906105719190614483565b61209d565b6040516105839190614151565b60405180910390f35b348015610597575f5ffd5b506105b260048036038101906105ad91906140e8565b612192565b6040516105ca9c9b9a999897969594939291906145ee565b60405180910390f35b3480156105de575f5ffd5b506105f960048036038101906105f49190614113565b61236f565b6040516106069190614151565b60405180910390f35b34801561061a575f5ffd5b5061063560048036038101906106309190613f6f565b61239a565b604051610642919061405a565b60405180910390f35b348015610656575f5ffd5b50610671600480360381019061066c9190614113565b61242d565b60405161067e9190614151565b60405180910390f35b348015610692575f5ffd5b506106ad60048036038101906106a891906140e8565b612458565b005b3480156106ba575f5ffd5b506106d560048036038101906106d09190613f6f565b61252d565b6040516106e29190614184565b60405180910390f35b3480156106f6575f5ffd5b50610711600480360381019061070c9190613f6f565b61262b565b005b34801561071e575f5ffd5b5061073960048036038101906107349190614299565b6126fe565b005b348015610746575f5ffd5b50610761600480360381019061075c91906140e8565b612997565b60405161077497969594939291906146b4565b60405180910390f35b348015610788575f5ffd5b506107a3600480360381019061079e91906140e8565b612dc9565b6040516107ba9b9a99989796959493929190614721565b60405180910390f35b3480156107ce575f5ffd5b506107d7613142565b6040516107e49190614151565b60405180910390f35b3480156107f8575f5ffd5b50610813600480360381019061080e919061480e565b613148565b005b61082f600480360381019061082a91906140e8565b6135af565b005b34801561083c575f5ffd5b5061084561388c565b6040516108529190614151565b60405180910390f35b348015610866575f5ffd5b5061086f613892565b60405161087c919061486c565b60405180910390f35b348015610890575f5ffd5b506108ab60048036038101906108a691906140e8565b6138b7565b005b606060065f8373ffffffffffffffffffffffffffffffffffffffff1673ffffffffffffffffffffffffffffffffffffffff1681526020019081526020015f2080548060200260200160405190810160405280929190818152602001828054801561093457602002820191905f5260205f20905b815481526020019060010190808311610920575b50505050509050919050565b5f5f5f600254600354600154925092509250909192565b80600254811061099e57806040517fee9ffcb70000000000000000000000000000000000000000000000000000000081526004016109959190614151565b60405180910390fd5b813373ffffffffffffffffffffffffffffffffffffffff1660045f8381526020019081526020015f206002015f9054906101000a900473ffffffffffffffffffffffffffffffffffffffff1673ffffffffffffffffffffffffffffffffffffffff1614610a4257336040517f8e4a23d6000000000000000000000000000000000000000000000000000000008152600401610a399190614512565b60405180910390fd5b600160085414610a7e576040517fc5f2be5100000000000000000000000000000000000000000000000000000000815260040160405180910390fd5b60026008819055505f60045f8581526020019081526020015f20905060026005811115610aae57610aad61452b565b5b816006015f9054906101000a900460ff166005811115610ad157610ad061452b565b5b14610b2657806006015f9054906101000a900460ff1660026040517ff924664d000000000000000000000000000000000000000000000000000000008152600401610b1d929190614885565b60405180910390fd5b5f816004015403610b63576040517fd5ef09ba00000000000000000000000000000000000000000000000000000000815260040160405180910390fd5b5f816004015490505f606460015483610b7c91906148d9565b610b869190614947565b90505f8183610b959190614977565b90506003846006015f6101000a81548160ff02191690836005811115610bbe57610bbd61452b565b5b02179055504284600a01819055508260035f828254610bdd9190614977565b925050819055505f73ffffffffffffffffffffffffffffffffffffffff1660095f9054906101000a900473ffffffffffffffffffffffffffffffffffffffff1673ffffffffffffffffffffffffffffffffffffffff1614610c6557610c64846001015f9054906101000a900473ffffffffffffffffffffffffffffffffffffffff16613c12565b5b5f846002015f9054906101000a900473ffffffffffffffffffffffffffffffffffffffff1673ffffffffffffffffffffffffffffffffffffffff1682604051610cad906149d7565b5f6040518083038185875af1925050503d805f8114610ce7576040519150601f19603f3d011682016040523d82523d5f602084013e610cec565b606091505b5050905080610d27576040517f90b8ec1800000000000000000000000000000000000000000000000000000000815260040160405180910390fd5b846002015f9054906101000a900473ffffffffffffffffffffffffffffffffffffffff1673ffffffffffffffffffffffffffffffffffffffff16887f8f034c05208e51e526ae64863f6f62ce04aa7d67d7568c54c28bcda6f1ced6a98486604051610d939291906149eb565b60405180910390a350505050506001600881905550505050565b6005602052815f5260405f208181548110610dc6575f80fd5b905f5260205f20015f91509150505481565b5f5f73ffffffffffffffffffffffffffffffffffffffff16600a5f9054906101000a900473ffffffffffffffffffffffffffffffffffffffff1673ffffffffffffffffffffffffffffffffffffffff1603610e35575f9050610ed1565b600a5f9054906101000a900473ffffffffffffffffffffffffffffffffffffffff1673ffffffffffffffffffffffffffffffffffffffff1663305ea318836040518263ffffffff1660e01b8152600401610e8f9190614512565b602060405180830381865afa158015610eaa573d5f5f3e3d5ffd5b505050506040513d601f19601f82011682018060405250810190610ece9190614a3c565b90505b919050565b816002548110610f1d57806040517fee9ffcb7000000000000000000000000000000000000000000000000000000008152600401610f149190614151565b60405180910390fd5b823373ffffffffffffffffffffffffffffffffffffffff1660045f8381526020019081526020015f206001015f9054906101000a900473ffffffffffffffffffffffffffffffffffffffff1673ffffffffffffffffffffffffffffffffffffffff1614610fc157336040517f8e4a23d6000000000000000000000000000000000000000000000000000000008152600401610fb89190614512565b60405180910390fd5b5f60045f8681526020019081526020015f20905060016005811115610fe957610fe861452b565b5b816006015f9054906101000a900460ff16600581111561100c5761100b61452b565b5b1461106157806006015f9054906101000a900460ff1660016040517ff924664d000000000000000000000000000000000000000000000000000000008152600401611058929190614885565b60405180910390fd5b806005015442111561109f576040517f70f65caa00000000000000000000000000000000000000000000000000000000815260040160405180910390fd5b5f8160050154905084826005015f8282546110ba9190614a67565b92505081905550857f514af8ba7abbcaa858d00568e0788cd39416a39195eac9780f8730cd4fcfb1038284600501546040516110f79291906149eb565b60405180910390a2505050505050565b60025481565b606060075f8373ffffffffffffffffffffffffffffffffffffffff1673ffffffffffffffffffffffffffffffffffffffff1681526020019081526020015f2080548060200260200160405190810160405280929190818152602001828054801561119457602002820191905f5260205f20905b815481526020019060010190808311611180575b50505050509050919050565b5f5f9054906101000a900473ffffffffffffffffffffffffffffffffffffffff1673ffffffffffffffffffffffffffffffffffffffff163373ffffffffffffffffffffffffffffffffffffffff161461123057336040517f8e4a23d60000000000000000000000000000000000000000000000000000000081526004016112279190614512565b60405180910390fd5b80600a5f6101000a81548173ffffffffffffffffffffffffffffffffffffffff021916908373ffffffffffffffffffffffffffffffffffffffff16021790555050565b8260025481106112ba57806040517fee9ffcb70000000000000000000000000000000000000000000000000000000081526004016112b19190614151565b60405180910390fd5b833373ffffffffffffffffffffffffffffffffffffffff1660045f8381526020019081526020015f206003015f9054906101000a900473ffffffffffffffffffffffffffffffffffffffff1673ffffffffffffffffffffffffffffffffffffffff161461135e57336040517f8e4a23d60000000000000000000000000000000000000000000000000000000081526004016113559190614512565b60405180910390fd5b5f60045f8781526020019081526020015f209050600160058111156113865761138561452b565b5b816006015f9054906101000a900460ff1660058111156113a9576113a861452b565b5b146113fe57806006015f9054906101000a900460ff1660016040517ff924664d0000000000000000000000000000000000000000000000000000000081526004016113f5929190614885565b60405180910390fd5b806005015442111561143c576040517f70f65caa00000000000000000000000000000000000000000000000000000000815260040160405180910390fd5b6002816006015f6101000a81548160ff021916908360058111156114635761146261452b565b5b0217905550848482600801918261147b929190614c98565b505f73ffffffffffffffffffffffffffffffffffffffff16600a5f9054906101000a900473ffffffffffffffffffffffffffffffffffffffff1673ffffffffffffffffffffffffffffffffffffffff161461155b57600a5f9054906101000a900473ffffffffffffffffffffffffffffffffffffffff1673ffffffffffffffffffffffffffffffffffffffff16631d11308e3360016040518363ffffffff1660e01b815260040161152d929190614d65565b5f604051808303815f87803b158015611544575f5ffd5b505af1158015611556573d5f5f3e3d5ffd5b505050505b3373ffffffffffffffffffffffffffffffffffffffff16867f800ef3e3b110573f2f50295ca58cb134587dec0061753c905e35e84f2efb8c5287876040516115a4929190614db8565b60405180910390a3505050505050565b8160025481106115fb57806040517fee9ffcb70000000000000000000000000000000000000000000000000000000081526004016115f29190614151565b60405180910390fd5b823373ffffffffffffffffffffffffffffffffffffffff1660045f8381526020019081526020015f206001015f9054906101000a900473ffffffffffffffffffffffffffffffffffffffff1673ffffffffffffffffffffffffffffffffffffffff161461169f57336040517f8e4a23d60000000000000000000000000000000000000000000000000000000081526004016116969190614512565b60405180910390fd5b5f73ffffffffffffffffffffffffffffffffffffffff168373ffffffffffffffffffffffffffffffffffffffff1603611704576040517fe6c4247b00000000000000000000000000000000000000000000000000000000815260040160405180910390fd5b5f60045f8681526020019081526020015f2090505f600581111561172b5761172a61452b565b5b816006015f9054906101000a900460ff16600581111561174e5761174d61452b565b5b1415801561179157506001600581111561176b5761176a61452b565b5b816006015f9054906101000a900460ff16600581111561178e5761178d61452b565b5b14155b156117e557806006015f9054906101000a900460ff165f6040517ff924664d0000000000000000000000000000000000000000000000000000000081526004016117dc929190614885565b60405180910390fd5b5f816003015f9054906101000a900473ffffffffffffffffffffffffffffffffffffffff16905084826003015f6101000a81548173ffffffffffffffffffffffffffffffffffffffff021916908373ffffffffffffffffffffffffffffffffffffffff160217905550857f2acb199b487dd9d4949bf0ce3a2b36baa7e688eb88197841015161a98b3d87478287604051611880929190614dda565b60405180910390a2505050505050565b8260025481106118d757806040517fee9ffcb70000000000000000000000000000000000000000000000000000000081526004016118ce9190614151565b60405180910390fd5b5f60045f8681526020019081526020015f209050806001015f9054906101000a900473ffffffffffffffffffffffffffffffffffffffff1673ffffffffffffffffffffffffffffffffffffffff163373ffffffffffffffffffffffffffffffffffffffff16141580156119995750806002015f9054906101000a900473ffffffffffffffffffffffffffffffffffffffff1673ffffffffffffffffffffffffffffffffffffffff163373ffffffffffffffffffffffffffffffffffffffff1614155b156119db57336040517f8e4a23d60000000000000000000000000000000000000000000000000000000081526004016119d29190614512565b60405180910390fd5b600260058111156119ef576119ee61452b565b5b816006015f9054906101000a900460ff166005811115611a1257611a1161452b565b5b14158015611a55575060016005811115611a2f57611a2e61452b565b5b816006015f9054906101000a900460ff166005811115611a5257611a5161452b565b5b14155b15611aaa57806006015f9054906101000a900460ff1660026040517ff924664d000000000000000000000000000000000000000000000000000000008152600401611aa1929190614885565b60405180910390fd5b6005816006015f6101000a81548160ff02191690836005811115611ad157611ad061452b565b5b02179055503373ffffffffffffffffffffffffffffffffffffffff16857f556a5bf38cb59a9278ed161f499d231bbbed1025f2765aa08fb5688767a65e508686604051611b1f929190614db8565b60405180910390a35050505050565b60095f9054906101000a900473ffffffffffffffffffffffffffffffffffffffff1681565b5f5f73ffffffffffffffffffffffffffffffffffffffff168573ffffffffffffffffffffffffffffffffffffffff161480611bb957505f73ffffffffffffffffffffffffffffffffffffffff168473ffffffffffffffffffffffffffffffffffffffff16145b15611bf0576040517fe6c4247b00000000000000000000000000000000000000000000000000000000815260040160405180910390fd5b5f835103611c2a576040517fdfa03e5000000000000000000000000000000000000000000000000000000000815260040160405180910390fd5b62015180821015611c67576040517f2c5211c600000000000000000000000000000000000000000000000000000000815260040160405180910390fd5b5f60025490506040518061018001604052808281526020013373ffffffffffffffffffffffffffffffffffffffff1681526020018773ffffffffffffffffffffffffffffffffffffffff1681526020018673ffffffffffffffffffffffffffffffffffffffff1681526020015f81526020018442611ce59190614a67565b81526020015f6005811115611cfd57611cfc61452b565b5b815260200185815260200160405180602001604052805f81525081526020014281526020015f81526020015f151581525060045f8381526020019081526020015f205f820151815f01556020820151816001015f6101000a81548173ffffffffffffffffffffffffffffffffffffffff021916908373ffffffffffffffffffffffffffffffffffffffff1602179055506040820151816002015f6101000a81548173ffffffffffffffffffffffffffffffffffffffff021916908373ffffffffffffffffffffffffffffffffffffffff1602179055506060820151816003015f6101000a81548173ffffffffffffffffffffffffffffffffffffffff021916908373ffffffffffffffffffffffffffffffffffffffff1602179055506080820151816004015560a0820151816005015560c0820151816006015f6101000a81548160ff02191690836005811115611e5757611e5661452b565b5b021790555060e0820151816007019081611e719190614e01565b50610100820151816008019081611e889190614e01565b50610120820151816009015561014082015181600a015561016082015181600b015f6101000a81548160ff02191690831515021790555090505060055f3373ffffffffffffffffffffffffffffffffffffffff1673ffffffffffffffffffffffffffffffffffffffff1681526020019081526020015f2081908060018154018082558091505060019003905f5260205f20015f909190919091505560065f8773ffffffffffffffffffffffffffffffffffffffff1673ffffffffffffffffffffffffffffffffffffffff1681526020019081526020015f2081908060018154018082558091505060019003905f5260205f20015f909190919091505560075f8673ffffffffffffffffffffffffffffffffffffffff1673ffffffffffffffffffffffffffffffffffffffff1681526020019081526020015f2081908060018154018082558091505060019003905f5260205f20015f909190919091505560025f815480929190611ff790614ed0565b91905055508573ffffffffffffffffffffffffffffffffffffffff163373ffffffffffffffffffffffffffffffffffffffff16827ffec2e0001f23ac3e685805535a487f140c608e19fa1f37407b0ff7d71ede5bc7885f8960405161205e93929190614f50565b60405180910390a480915050949350505050565b5f47905090565b5f5f9054906101000a900473ffffffffffffffffffffffffffffffffffffffff1681565b5f5f34036120d7576040517f2c5211c600000000000000000000000000000000000000000000000000000000815260040160405180910390fd5b5f6120e486868686611b53565b90505f60045f8381526020019081526020015f2090503481600401819055506001816006015f6101000a81548160ff0219169083600581111561212a5761212961452b565b5b02179055503460035f8282546121409190614a67565b92505081905550817ff984c0f6b056fe16b28046e36fcafa84a00d503f88f1d0afa768e4c206192b8034836005015460405161217d9291906149eb565b60405180910390a28192505050949350505050565b6004602052805f5260405f205f91509050805f015490806001015f9054906101000a900473ffffffffffffffffffffffffffffffffffffffff1690806002015f9054906101000a900473ffffffffffffffffffffffffffffffffffffffff1690806003015f9054906101000a900473ffffffffffffffffffffffffffffffffffffffff1690806004015490806005015490806006015f9054906101000a900460ff169080600701805461224490614ad1565b80601f016020809104026020016040519081016040528092919081815260200182805461227090614ad1565b80156122bb5780601f10612292576101008083540402835291602001916122bb565b820191905f5260205f20905b81548152906001019060200180831161229e57829003601f168201915b5050505050908060080180546122d090614ad1565b80601f01602080910402602001604051908101604052809291908181526020018280546122fc90614ad1565b80156123475780601f1061231e57610100808354040283529160200191612347565b820191905f5260205f20905b81548152906001019060200180831161232a57829003601f168201915b50505050509080600901549080600a01549080600b015f9054906101000a900460ff1690508c565b6007602052815f5260405f208181548110612388575f80fd5b905f5260205f20015f91509150505481565b606060055f8373ffffffffffffffffffffffffffffffffffffffff1673ffffffffffffffffffffffffffffffffffffffff1681526020019081526020015f2080548060200260200160405190810160405280929190818152602001828054801561242157602002820191905f5260205f20905b81548152602001906001019080831161240d575b50505050509050919050565b6006602052815f5260405f208181548110612446575f80fd5b905f5260205f20015f91509150505481565b5f5f9054906101000a900473ffffffffffffffffffffffffffffffffffffffff1673ffffffffffffffffffffffffffffffffffffffff163373ffffffffffffffffffffffffffffffffffffffff16146124e857336040517f8e4a23d60000000000000000000000000000000000000000000000000000000081526004016124df9190614512565b60405180910390fd5b600a811115612523576040517f1f3b85d300000000000000000000000000000000000000000000000000000000815260040160405180910390fd5b8060018190555050565b5f5f73ffffffffffffffffffffffffffffffffffffffff1660095f9054906101000a900473ffffffffffffffffffffffffffffffffffffffff1673ffffffffffffffffffffffffffffffffffffffff160361258a575f9050612626565b60095f9054906101000a900473ffffffffffffffffffffffffffffffffffffffff1673ffffffffffffffffffffffffffffffffffffffff1663ace417e0836040518263ffffffff1660e01b81526004016125e49190614512565b602060405180830381865afa1580156125ff573d5f5f3e3d5ffd5b505050506040513d601f19601f820116820180604052508101906126239190614a3c565b90505b919050565b5f5f9054906101000a900473ffffffffffffffffffffffffffffffffffffffff1673ffffffffffffffffffffffffffffffffffffffff163373ffffffffffffffffffffffffffffffffffffffff16146126bb57336040517f8e4a23d60000000000000000000000000000000000000000000000000000000081526004016126b29190614512565b60405180910390fd5b8060095f6101000a81548173ffffffffffffffffffffffffffffffffffffffff021916908373ffffffffffffffffffffffffffffffffffffffff16021790555050565b81600254811061274557806040517fee9ffcb700000000000000000000000000000000000000000000000000000000815260040161273c9190614151565b60405180910390fd5b823373ffffffffffffffffffffffffffffffffffffffff1660045f8381526020019081526020015f206001015f9054906101000a900473ffffffffffffffffffffffffffffffffffffffff1673ffffffffffffffffffffffffffffffffffffffff16146127e957336040517f8e4a23d60000000000000000000000000000000000000000000000000000000081526004016127e09190614512565b60405180910390fd5b5f73ffffffffffffffffffffffffffffffffffffffff168373ffffffffffffffffffffffffffffffffffffffff160361284e576040517fe6c4247b00000000000000000000000000000000000000000000000000000000815260040160405180910390fd5b5f60045f8681526020019081526020015f2090505f60058111156128755761287461452b565b5b816006015f9054906101000a900460ff1660058111156128985761289761452b565b5b146128ec57806006015f9054906101000a900460ff165f6040517ff924664d0000000000000000000000000000000000000000000000000000000081526004016128e3929190614885565b60405180910390fd5b5f816002015f9054906101000a900473ffffffffffffffffffffffffffffffffffffffff16905084826002015f6101000a81548173ffffffffffffffffffffffffffffffffffffffff021916908373ffffffffffffffffffffffffffffffffffffffff160217905550857feb42f80d8691a4932e59d407b00ed90f3816304690706e7af5182e0cb3dcbd178287604051612987929190614dda565b60405180910390a2505050505050565b5f5f5f5f5f5f5f8760025481106129e557806040517fee9ffcb70000000000000000000000000000000000000000000000000000000081526004016129dc9190614151565b60405180910390fd5b5f60045f8b81526020019081526020015f20604051806101800160405290815f8201548152602001600182015f9054906101000a900473ffffffffffffffffffffffffffffffffffffffff1673ffffffffffffffffffffffffffffffffffffffff1673ffffffffffffffffffffffffffffffffffffffff168152602001600282015f9054906101000a900473ffffffffffffffffffffffffffffffffffffffff1673ffffffffffffffffffffffffffffffffffffffff1673ffffffffffffffffffffffffffffffffffffffff168152602001600382015f9054906101000a900473ffffffffffffffffffffffffffffffffffffffff1673ffffffffffffffffffffffffffffffffffffffff1673ffffffffffffffffffffffffffffffffffffffff1681526020016004820154815260200160058201548152602001600682015f9054906101000a900460ff166005811115612b4357612b4261452b565b5b6005811115612b5557612b5461452b565b5b8152602001600782018054612b6990614ad1565b80601f0160208091040260200160405190810160405280929190818152602001828054612b9590614ad1565b8015612be05780601f10612bb757610100808354040283529160200191612be0565b820191905f5260205f20905b815481529060010190602001808311612bc357829003601f168201915b50505050508152602001600882018054612bf990614ad1565b80601f0160208091040260200160405190810160405280929190818152602001828054612c2590614ad1565b8015612c705780601f10612c4757610100808354040283529160200191612c70565b820191905f5260205f20905b815481529060010190602001808311612c5357829003601f168201915b5050505050815260200160098201548152602001600a8201548152602001600b82015f9054906101000a900460ff16151515158152505090505f60016005811115612cbe57612cbd61452b565b5b8260c001516005811115612cd557612cd461452b565b5b148015612ce657508160a001514210155b90505f428360a0015111612cfa575f612d0b565b428360a00151612d0a9190614977565b5b90508260c001515f84608001511160026005811115612d2d57612d2c61452b565b5b8560c001516005811115612d4457612d4361452b565b5b1480612d78575060036005811115612d5f57612d5e61452b565b5b8560c001516005811115612d7657612d7561452b565b5b145b60036005811115612d8c57612d8b61452b565b5b8660c001516005811115612da357612da261452b565b5b1486610160015186869a509a509a509a509a509a509a5050505050919395979092949650565b5f5f5f5f5f5f6060805f5f5f8b6002548110612e1c57806040517fee9ffcb7000000000000000000000000000000000000000000000000000000008152600401612e139190614151565b60405180910390fd5b5f60045f8f81526020019081526020015f20604051806101800160405290815f8201548152602001600182015f9054906101000a900473ffffffffffffffffffffffffffffffffffffffff1673ffffffffffffffffffffffffffffffffffffffff1673ffffffffffffffffffffffffffffffffffffffff168152602001600282015f9054906101000a900473ffffffffffffffffffffffffffffffffffffffff1673ffffffffffffffffffffffffffffffffffffffff1673ffffffffffffffffffffffffffffffffffffffff168152602001600382015f9054906101000a900473ffffffffffffffffffffffffffffffffffffffff1673ffffffffffffffffffffffffffffffffffffffff1673ffffffffffffffffffffffffffffffffffffffff1681526020016004820154815260200160058201548152602001600682015f9054906101000a900460ff166005811115612f7a57612f7961452b565b5b6005811115612f8c57612f8b61452b565b5b8152602001600782018054612fa090614ad1565b80601f0160208091040260200160405190810160405280929190818152602001828054612fcc90614ad1565b80156130175780601f10612fee57610100808354040283529160200191613017565b820191905f5260205f20905b815481529060010190602001808311612ffa57829003601f168201915b5050505050815260200160088201805461303090614ad1565b80601f016020809104026020016040519081016040528092919081815260200182805461305c90614ad1565b80156130a75780601f1061307e576101008083540402835291602001916130a7565b820191905f5260205f20905b81548152906001019060200180831161308a57829003601f168201915b5050505050815260200160098201548152602001600a8201548152602001600b82015f9054906101000a900460ff161515151581525050905080602001518160400151826060015183608001518460a001518560c001518660e001518761010001518861012001518961014001518a61016001519c509c509c509c509c509c509c509c509c509c509c50505091939597999b90929496989a50565b60015481565b5f5f9054906101000a900473ffffffffffffffffffffffffffffffffffffffff1673ffffffffffffffffffffffffffffffffffffffff163373ffffffffffffffffffffffffffffffffffffffff16146131d857336040517f8e4a23d60000000000000000000000000000000000000000000000000000000081526004016131cf9190614512565b60405180910390fd5b81600254811061321f57806040517fee9ffcb70000000000000000000000000000000000000000000000000000000081526004016132169190614151565b60405180910390fd5b60016008541461325b576040517fc5f2be5100000000000000000000000000000000000000000000000000000000815260040160405180910390fd5b60026008819055505f60045f8581526020019081526020015f20905060058081111561328a5761328961452b565b5b816006015f9054906101000a900460ff1660058111156132ad576132ac61452b565b5b1461330257806006015f9054906101000a900460ff1660056040517ff924664d0000000000000000000000000000000000000000000000000000000081526004016132f9929190614885565b60405180910390fd5b60648360ff161115613340576040517f1f3b85d300000000000000000000000000000000000000000000000000000000815260040160405180910390fd5b5f816004015490505f60648560ff168361335a91906148d9565b6133649190614947565b90505f81836133739190614977565b90506003846006015f6101000a81548160ff0219169083600581111561339c5761339b61452b565b5b02179055504284600a01819055508260035f8282546133bb9190614977565b925050819055505f82111561348e575f846002015f9054906101000a900473ffffffffffffffffffffffffffffffffffffffff1673ffffffffffffffffffffffffffffffffffffffff1683604051613412906149d7565b5f6040518083038185875af1925050503d805f811461344c576040519150601f19603f3d011682016040523d82523d5f602084013e613451565b606091505b505090508061348c576040517f90b8ec1800000000000000000000000000000000000000000000000000000000815260040160405180910390fd5b505b5f81111561355a575f846001015f9054906101000a900473ffffffffffffffffffffffffffffffffffffffff1673ffffffffffffffffffffffffffffffffffffffff16826040516134de906149d7565b5f6040518083038185875af1925050503d805f8114613518576040519150601f19603f3d011682016040523d82523d5f602084013e61351d565b606091505b5050905080613558576040517f90b8ec1800000000000000000000000000000000000000000000000000000000815260040160405180910390fd5b505b867f3accdf79205b59d18e690f066707caf6d0ee4d4f59ded4fa88fdec5dde4accd93360328960ff161185856040516135969493929190614f8c565b60405180910390a2505050506001600881905550505050565b8060025481106135f657806040517fee9ffcb70000000000000000000000000000000000000000000000000000000081526004016135ed9190614151565b60405180910390fd5b813373ffffffffffffffffffffffffffffffffffffffff1660045f8381526020019081526020015f206001015f9054906101000a900473ffffffffffffffffffffffffffffffffffffffff1673ffffffffffffffffffffffffffffffffffffffff161461369a57336040517f8e4a23d60000000000000000000000000000000000000000000000000000000081526004016136919190614512565b60405180910390fd5b6001600854146136d6576040517fc5f2be5100000000000000000000000000000000000000000000000000000000815260040160405180910390fd5b60026008819055505f60045f8581526020019081526020015f2090505f60058111156137055761370461452b565b5b816006015f9054906101000a900460ff1660058111156137285761372761452b565b5b1461377c57806006015f9054906101000a900460ff165f6040517ff924664d000000000000000000000000000000000000000000000000000000008152600401613773929190614885565b60405180910390fd5b5f34036137b5576040517f2c5211c600000000000000000000000000000000000000000000000000000000815260040160405180910390fd5b5f816004015411156137f3576040517f5adf638700000000000000000000000000000000000000000000000000000000815260040160405180910390fd5b3481600401819055506001816006015f6101000a81548160ff021916908360058111156138235761382261452b565b5b02179055503460035f8282546138399190614a67565b92505081905550837ff984c0f6b056fe16b28046e36fcafa84a00d503f88f1d0afa768e4c206192b803483600501546040516138769291906149eb565b60405180910390a2506001600881905550505050565b60035481565b600a5f9054906101000a900473ffffffffffffffffffffffffffffffffffffffff1681565b8060025481106138fe57806040517fee9ffcb70000000000000000000000000000000000000000000000000000000081526004016138f59190614151565b60405180910390fd5b60016008541461393a576040517fc5f2be5100000000000000000000000000000000000000000000000000000000815260040160405180910390fd5b60026008819055505f60045f8481526020019081526020015f2090506001600581111561396a5761396961452b565b5b816006015f9054906101000a900460ff16600581111561398d5761398c61452b565b5b146139e257806006015f9054906101000a900460ff1660016040517ff924664d0000000000000000000000000000000000000000000000000000000081526004016139d9929190614885565b60405180910390fd5b80600501544211613a1f576040517f2eb3543000000000000000000000000000000000000000000000000000000000815260040160405180910390fd5b80600b015f9054906101000a900460ff1615613a67576040517fa85e6f1a00000000000000000000000000000000000000000000000000000000815260040160405180910390fd5b5f816004015490506004826006015f6101000a81548160ff02191690836005811115613a9657613a9561452b565b5b0217905550600182600b015f6101000a81548160ff0219169083151502179055508060035f828254613ac89190614977565b925050819055505f826001015f9054906101000a900473ffffffffffffffffffffffffffffffffffffffff1673ffffffffffffffffffffffffffffffffffffffff1682604051613b17906149d7565b5f6040518083038185875af1925050503d805f8114613b51576040519150601f19603f3d011682016040523d82523d5f602084013e613b56565b606091505b5050905080613b91576040517f90b8ec1800000000000000000000000000000000000000000000000000000000815260040160405180910390fd5b826001015f9054906101000a900473ffffffffffffffffffffffffffffffffffffffff1673ffffffffffffffffffffffffffffffffffffffff16857f1866a9bdac25bb7cbf867a60c0e9008732ac88da2ec6bf1d87641a09d38128b684604051613bfb9190614151565b60405180910390a350505060016008819055505050565b5f60055f8373ffffffffffffffffffffffffffffffffffffffff1673ffffffffffffffffffffffffffffffffffffffff1681526020019081526020015f20805480602002602001604051908101604052809291908181526020018280548015613c9857602002820191905f5260205f20905b815481526020019060010190808311613c84575b505050505090505f81511115613dfa575f5f90505f6064835111613cbd578251613cc0565b60645b90505f5f90505b81811015613d515760036005811115613ce357613ce261452b565b5b60045f868481518110613cf957613cf8614fcf565b5b602002602001015181526020019081526020015f206006015f9054906101000a900460ff166005811115613d3057613d2f61452b565b5b03613d44578280613d4090614ed0565b9350505b8080600101915050613cc7565b505f81606484613d6191906148d9565b613d6b9190614947565b905060095f9054906101000a900473ffffffffffffffffffffffffffffffffffffffff1673ffffffffffffffffffffffffffffffffffffffff1663f5c91a0886836040518363ffffffff1660e01b8152600401613dc9929190614ffc565b5f604051808303815f87803b158015613de0575f5ffd5b505af1158015613df2573d5f5f3e3d5ffd5b505050505050505b5050565b5f82825260208201905092915050565b7f55736520637265617465416e6446756e645472616e736665722829206f7220665f8201527f756e645472616e73666572282900000000000000000000000000000000000000602082015250565b5f613e68602d83613dfe565b9150613e7382613e0e565b604082019050919050565b5f6020820190508181035f830152613e9581613e5c565b9050919050565b7f496e76616c69642066756e6374696f6e2063616c6c00000000000000000000005f82015250565b5f613ed0601583613dfe565b9150613edb82613e9c565b602082019050919050565b5f6020820190508181035f830152613efd81613ec4565b9050919050565b5f604051905090565b5f5ffd5b5f5ffd5b5f73ffffffffffffffffffffffffffffffffffffffff82169050919050565b5f613f3e82613f15565b9050919050565b613f4e81613f34565b8114613f58575f5ffd5b50565b5f81359050613f6981613f45565b92915050565b5f60208284031215613f8457613f83613f0d565b5b5f613f9184828501613f5b565b91505092915050565b5f81519050919050565b5f82825260208201905092915050565b5f819050602082019050919050565b5f819050919050565b613fd581613fc3565b82525050565b5f613fe68383613fcc565b60208301905092915050565b5f602082019050919050565b5f61400882613f9a565b6140128185613fa4565b935061401d83613fb4565b805f5b8381101561404d5781516140348882613fdb565b975061403f83613ff2565b925050600181019050614020565b5085935050505092915050565b5f6020820190508181035f8301526140728184613ffe565b905092915050565b61408381613fc3565b82525050565b5f60608201905061409c5f83018661407a565b6140a9602083018561407a565b6140b6604083018461407a565b949350505050565b6140c781613fc3565b81146140d1575f5ffd5b50565b5f813590506140e2816140be565b92915050565b5f602082840312156140fd576140fc613f0d565b5b5f61410a848285016140d4565b91505092915050565b5f5f6040838503121561412957614128613f0d565b5b5f61413685828601613f5b565b9250506020614147858286016140d4565b9150509250929050565b5f6020820190506141645f83018461407a565b92915050565b5f8115159050919050565b61417e8161416a565b82525050565b5f6020820190506141975f830184614175565b92915050565b5f5f604083850312156141b3576141b2613f0d565b5b5f6141c0858286016140d4565b92505060206141d1858286016140d4565b9150509250929050565b5f5ffd5b5f5ffd5b5f5ffd5b5f5f83601f8401126141fc576141fb6141db565b5b8235905067ffffffffffffffff811115614219576142186141df565b5b602083019150836001820283011115614235576142346141e3565b5b9250929050565b5f5f5f6040848603121561425357614252613f0d565b5b5f614260868287016140d4565b935050602084013567ffffffffffffffff81111561428157614280613f11565b5b61428d868287016141e7565b92509250509250925092565b5f5f604083850312156142af576142ae613f0d565b5b5f6142bc858286016140d4565b92505060206142cd85828601613f5b565b9150509250929050565b5f819050919050565b5f6142fa6142f56142f084613f15565b6142d7565b613f15565b9050919050565b5f61430b826142e0565b9050919050565b5f61431c82614301565b9050919050565b61432c81614312565b82525050565b5f6020820190506143455f830184614323565b92915050565b5f5ffd5b5f601f19601f8301169050919050565b7f4e487b71000000000000000000000000000000000000000000000000000000005f52604160045260245ffd5b6143958261434f565b810181811067ffffffffffffffff821117156143b4576143b361435f565b5b80604052505050565b5f6143c6613f04565b90506143d2828261438c565b919050565b5f67ffffffffffffffff8211156143f1576143f061435f565b5b6143fa8261434f565b9050602081019050919050565b828183375f83830152505050565b5f614427614422846143d7565b6143bd565b9050828152602081018484840111156144435761444261434b565b5b61444e848285614407565b509392505050565b5f82601f83011261446a576144696141db565b5b813561447a848260208601614415565b91505092915050565b5f5f5f5f6080858703121561449b5761449a613f0d565b5b5f6144a887828801613f5b565b94505060206144b987828801613f5b565b935050604085013567ffffffffffffffff8111156144da576144d9613f11565b5b6144e687828801614456565b92505060606144f7878288016140d4565b91505092959194509250565b61450c81613f34565b82525050565b5f6020820190506145255f830184614503565b92915050565b7f4e487b71000000000000000000000000000000000000000000000000000000005f52602160045260245ffd5b600681106145695761456861452b565b5b50565b5f81905061457982614558565b919050565b5f6145888261456c565b9050919050565b6145988161457e565b82525050565b5f81519050919050565b8281835e5f83830152505050565b5f6145c08261459e565b6145ca8185613dfe565b93506145da8185602086016145a8565b6145e38161434f565b840191505092915050565b5f610180820190506146025f83018f61407a565b61460f602083018e614503565b61461c604083018d614503565b614629606083018c614503565b614636608083018b61407a565b61464360a083018a61407a565b61465060c083018961458f565b81810360e083015261466281886145b6565b905081810361010083015261467781876145b6565b905061468761012083018661407a565b61469561014083018561407a565b6146a3610160830184614175565b9d9c50505050505050505050505050565b5f60e0820190506146c75f83018a61458f565b6146d46020830189614175565b6146e16040830188614175565b6146ee6060830187614175565b6146fb6080830186614175565b61470860a0830185614175565b61471560c083018461407a565b98975050505050505050565b5f610160820190506147355f83018e614503565b614742602083018d614503565b61474f604083018c614503565b61475c606083018b61407a565b614769608083018a61407a565b61477660a083018961458f565b81810360c083015261478881886145b6565b905081810360e083015261479c81876145b6565b90506147ac61010083018661407a565b6147ba61012083018561407a565b6147c8610140830184614175565b9c9b505050505050505050505050565b5f60ff82169050919050565b6147ed816147d8565b81146147f7575f5ffd5b50565b5f81359050614808816147e4565b92915050565b5f5f6040838503121561482457614823613f0d565b5b5f614831858286016140d4565b9250506020614842858286016147fa565b9150509250929050565b5f61485682614301565b9050919050565b6148668161484c565b82525050565b5f60208201905061487f5f83018461485d565b92915050565b5f6040820190506148985f83018561458f565b6148a5602083018461458f565b9392505050565b7f4e487b71000000000000000000000000000000000000000000000000000000005f52601160045260245ffd5b5f6148e382613fc3565b91506148ee83613fc3565b92508282026148fc81613fc3565b91508282048414831517614913576149126148ac565b5b5092915050565b7f4e487b71000000000000000000000000000000000000000000000000000000005f52601260045260245ffd5b5f61495182613fc3565b915061495c83613fc3565b92508261496c5761496b61491a565b5b828204905092915050565b5f61498182613fc3565b915061498c83613fc3565b92508282039050818111156149a4576149a36148ac565b5b92915050565b5f81905092915050565b50565b5f6149c25f836149aa565b91506149cd826149b4565b5f82019050919050565b5f6149e1826149b7565b9150819050919050565b5f6040820190506149fe5f83018561407a565b614a0b602083018461407a565b9392505050565b614a1b8161416a565b8114614a25575f5ffd5b50565b5f81519050614a3681614a12565b92915050565b5f60208284031215614a5157614a50613f0d565b5b5f614a5e84828501614a28565b91505092915050565b5f614a7182613fc3565b9150614a7c83613fc3565b9250828201905080821115614a9457614a936148ac565b5b92915050565b5f82905092915050565b7f4e487b71000000000000000000000000000000000000000000000000000000005f52602260045260245ffd5b5f6002820490506001821680614ae857607f821691505b602082108103614afb57614afa614aa4565b5b50919050565b5f819050815f5260205f209050919050565b5f6020601f8301049050919050565b5f82821b905092915050565b5f60088302614b5d7fffffffffffffffffffffffffffffffffffffffffffffffffffffffffffffffff82614b22565b614b678683614b22565b95508019841693508086168417925050509392505050565b5f614b99614b94614b8f84613fc3565b6142d7565b613fc3565b9050919050565b5f819050919050565b614bb283614b7f565b614bc6614bbe82614ba0565b848454614b2e565b825550505050565b5f5f905090565b614bdd614bce565b614be8818484614ba9565b505050565b5b81811015614c0b57614c005f82614bd5565b600181019050614bee565b5050565b601f821115614c5057614c2181614b01565b614c2a84614b13565b81016020851015614c39578190505b614c4d614c4585614b13565b830182614bed565b50505b505050565b5f82821c905092915050565b5f614c705f1984600802614c55565b1980831691505092915050565b5f614c888383614c61565b9150826002028217905092915050565b614ca28383614a9a565b67ffffffffffffffff811115614cbb57614cba61435f565b5b614cc58254614ad1565b614cd0828285614c0f565b5f601f831160018114614cfd575f8415614ceb578287013590505b614cf58582614c7d565b865550614d5c565b601f198416614d0b86614b01565b5f5b82811015614d3257848901358255600182019150602085019450602081019050614d0d565b86831015614d4f5784890135614d4b601f891682614c61565b8355505b6001600288020188555050505b50505050505050565b5f604082019050614d785f830185614503565b614d856020830184614175565b9392505050565b5f614d978385613dfe565b9350614da4838584614407565b614dad8361434f565b840190509392505050565b5f6020820190508181035f830152614dd1818486614d8c565b90509392505050565b5f604082019050614ded5f830185614503565b614dfa6020830184614503565b9392505050565b614e0a8261459e565b67ffffffffffffffff811115614e2357614e2261435f565b5b614e2d8254614ad1565b614e38828285614c0f565b5f60209050601f831160018114614e69575f8415614e57578287015190505b614e618582614c7d565b865550614ec8565b601f198416614e7786614b01565b5f5b82811015614e9e57848901518255600182019150602085019450602081019050614e79565b86831015614ebb5784890151614eb7601f891682614c61565b8355505b6001600288020188555050505b505050505050565b5f614eda82613fc3565b91507fffffffffffffffffffffffffffffffffffffffffffffffffffffffffffffffff8203614f0c57614f0b6148ac565b5b600182019050919050565b5f819050919050565b5f614f3a614f35614f3084614f17565b6142d7565b613fc3565b9050919050565b614f4a81614f20565b82525050565b5f606082019050614f635f830186614503565b614f706020830185614f41565b8181036040830152614f8281846145b6565b9050949350505050565b5f608082019050614f9f5f830187614503565b614fac6020830186614175565b614fb9604083018561407a565b614fc6606083018461407a565b95945050505050565b7f4e487b71000000000000000000000000000000000000000000000000000000005f52603260045260245ffd5b5f60408201905061500f5f830185614503565b61501c602083018461407a565b939250505056fea2646970667358221220e7a64de427eff3c401c121de81961b9e9785c64d6a1c4af4ff6c6c750b3a3f7864736f6c634300081e0033",
					"opcodes": "PUSH1 0x80 PUSH1 0x40 MSTORE PUSH1 0x1 DUP1 SSTORE PUSH1 0x1 PUSH1 0x8 SSTORE CALLVALUE DUP1 ISZERO PUSH1 0x17 JUMPI PUSH0 PUSH0 REVERT JUMPDEST POP CALLER PUSH0 PUSH0 PUSH2 0x100 EXP DUP2 SLOAD DUP2 PUSH20 0xFFFFFFFFFFFFFFFFFFFFFFFFFFFFFFFFFFFFFFFF MUL NOT AND SWAP1 DUP4 PUSH20 0xFFFFFFFFFFFFFFFFFFFFFFFFFFFFFFFFFFFFFFFF AND MUL OR SWAP1 SSTORE POP PUSH2 0x5059 DUP1 PUSH2 0x64 PUSH0 CODECOPY PUSH0 RETURN INVALID PUSH1 0x80 PUSH1 0x40 MSTORE PUSH1 0x4 CALLDATASIZE LT PUSH2 0x1F1 JUMPI PUSH0 CALLDATALOAD PUSH1 0xE0 SHR DUP1 PUSH4 0x9259061E GT PUSH2 0x10C JUMPI DUP1 PUSH4 0xB3D50E37 GT PUSH2 0x9F JUMPI DUP1 PUSH4 0xE55E4211 GT PUSH2 0x6E JUMPI DUP1 PUSH4 0xE55E4211 EQ PUSH2 0x7ED JUMPI DUP1 PUSH4 0xEAF8294B EQ PUSH2 0x815 JUMPI DUP1 PUSH4 0xEC18154E EQ PUSH2 0x831 JUMPI DUP1 PUSH4 0xF376EBBB EQ PUSH2 0x85B JUMPI DUP1 PUSH4 0xF3FEE05D EQ PUSH2 0x885 JUMPI PUSH2 0x231 JUMP JUMPDEST DUP1 PUSH4 0xB3D50E37 EQ PUSH2 0x713 JUMPI DUP1 PUSH4 0xB93C3770 EQ PUSH2 0x73B JUMPI DUP1 PUSH4 0xC16FE907 EQ PUSH2 0x77D JUMPI DUP1 PUSH4 0xCDD78CFC EQ PUSH2 0x7C3 JUMPI PUSH2 0x231 JUMP JUMPDEST DUP1 PUSH4 0x9CB80F00 GT PUSH2 0xDB JUMPI DUP1 PUSH4 0x9CB80F00 EQ PUSH2 0x64B JUMPI DUP1 PUSH4 0xAA0B5988 EQ PUSH2 0x687 JUMPI DUP1 PUSH4 0xACE417E0 EQ PUSH2 0x6AF JUMPI DUP1 PUSH4 0xB0D5451B EQ PUSH2 0x6EB JUMPI PUSH2 0x231 JUMP JUMPDEST DUP1 PUSH4 0x9259061E EQ PUSH2 0x55C JUMPI DUP1 PUSH4 0x9377D711 EQ PUSH2 0x58C JUMPI DUP1 PUSH4 0x9BFD3F9D EQ PUSH2 0x5D3 JUMPI DUP1 PUSH4 0x9C51D4A1 EQ PUSH2 0x60F JUMPI PUSH2 0x231 JUMP JUMPDEST DUP1 PUSH4 0x49773050 GT PUSH2 0x184 JUMPI DUP1 PUSH4 0x5C7460D6 GT PUSH2 0x153 JUMPI DUP1 PUSH4 0x5C7460D6 EQ PUSH2 0x4A2 JUMPI DUP1 PUSH4 0x6353F887 EQ PUSH2 0x4CC JUMPI DUP1 PUSH4 0x6F9FB98A EQ PUSH2 0x508 JUMPI DUP1 PUSH4 0x8DA5CB5B EQ PUSH2 0x532 JUMPI PUSH2 0x231 JUMP JUMPDEST DUP1 PUSH4 0x49773050 EQ PUSH2 0x402 JUMPI DUP1 PUSH4 0x4B920AFE EQ PUSH2 0x42A JUMPI DUP1 PUSH4 0x5A27CBCB EQ PUSH2 0x452 JUMPI DUP1 PUSH4 0x5AEF573C EQ PUSH2 0x47A JUMPI PUSH2 0x231 JUMP JUMPDEST DUP1 PUSH4 0x2BECA249 GT PUSH2 0x1C0 JUMPI DUP1 PUSH4 0x2BECA249 EQ PUSH2 0x338 JUMPI DUP1 PUSH4 0x2D1FDEF6 EQ PUSH2 0x374 JUMPI DUP1 PUSH4 0x3BF47720 EQ PUSH2 0x39C JUMPI DUP1 PUSH4 0x42B0A8CE EQ PUSH2 0x3C6 JUMPI PUSH2 0x231 JUMP JUMPDEST DUP1 PUSH4 0x4233456 EQ PUSH2 0x26C JUMPI DUP1 PUSH4 0x136D8883 EQ PUSH2 0x2A8 JUMPI DUP1 PUSH4 0x155DD5EE EQ PUSH2 0x2D4 JUMPI DUP1 PUSH4 0x2BBDCB4E EQ PUSH2 0x2FC JUMPI PUSH2 0x231 JUMP JUMPDEST CALLDATASIZE PUSH2 0x231 JUMPI PUSH1 0x40 MLOAD PUSH32 0x8C379A000000000000000000000000000000000000000000000000000000000 DUP2 MSTORE PUSH1 0x4 ADD PUSH2 0x228 SWAP1 PUSH2 0x3E7E JUMP JUMPDEST PUSH1 0x40 MLOAD DUP1 SWAP2 SUB SWAP1 REVERT JUMPDEST PUSH1 0x40 MLOAD PUSH32 0x8C379A000000000000000000000000000000000000000000000000000000000 DUP2 MSTORE PUSH1 0x4 ADD PUSH2 0x263 SWAP1 PUSH2 0x3EE6 JUMP JUMPDEST PUSH1 0x40 MLOAD DUP1 SWAP2 SUB SWAP1 REVERT JUMPDEST CALLVALUE DUP1 ISZERO PUSH2 0x277 JUMPI PUSH0 PUSH0 REVERT JUMPDEST POP PUSH2 0x292 PUSH1 0x4 DUP1 CALLDATASIZE SUB DUP2 ADD SWAP1 PUSH2 0x28D SWAP2 SWAP1 PUSH2 0x3F6F JUMP JUMPDEST PUSH2 0x8AD JUMP JUMPDEST PUSH1 0x40 MLOAD PUSH2 0x29F SWAP2 SWAP1 PUSH2 0x405A JUMP JUMPDEST PUSH1 0x40 MLOAD DUP1 SWAP2 SUB SWAP1 RETURN JUMPDEST CALLVALUE DUP1 ISZERO PUSH2 0x2B3 JUMPI PUSH0 PUSH0 REVERT JUMPDEST POP PUSH2 0x2BC PUSH2 0x940 JUMP JUMPDEST PUSH1 0x40 MLOAD PUSH2 0x2CB SWAP4 SWAP3 SWAP2 SWAP1 PUSH2 0x4089 JUMP JUMPDEST PUSH1 0x40 MLOAD DUP1 SWAP2 SUB SWAP1 RETURN JUMPDEST CALLVALUE DUP1 ISZERO PUSH2 0x2DF JUMPI PUSH0 PUSH0 REVERT JUMPDEST POP PUSH2 0x2FA PUSH1 0x4 DUP1 CALLDATASIZE SUB DUP2 ADD SWAP1 PUSH2 0x2F5 SWAP2 SWAP1 PUSH2 0x40E8 JUMP JUMPDEST PUSH2 0x957 JUMP JUMPDEST STOP JUMPDEST CALLVALUE DUP1 ISZERO PUSH2 0x307 JUMPI PUSH0 PUSH0 REVERT JUMPDEST POP PUSH2 0x322 PUSH1 0x4 DUP1 CALLDATASIZE SUB DUP2 ADD SWAP1 PUSH2 0x31D SWAP2 SWAP1 PUSH2 0x4113 JUMP JUMPDEST PUSH2 0xDAD JUMP JUMPDEST PUSH1 0x40 MLOAD PUSH2 0x32F SWAP2 SWAP1 PUSH2 0x4151 JUMP JUMPDEST PUSH1 0x40 MLOAD DUP1 SWAP2 SUB SWAP1 RETURN JUMPDEST CALLVALUE DUP1 ISZERO PUSH2 0x343 JUMPI PUSH0 PUSH0 REVERT JUMPDEST POP PUSH2 0x35E PUSH1 0x4 DUP1 CALLDATASIZE SUB DUP2 ADD SWAP1 PUSH2 0x359 SWAP2 SWAP1 PUSH2 0x3F6F JUMP JUMPDEST PUSH2 0xDD8 JUMP JUMPDEST PUSH1 0x40 MLOAD PUSH2 0x36B SWAP2 SWAP1 PUSH2 0x4184 JUMP JUMPDEST PUSH1 0x40 MLOAD DUP1 SWAP2 SUB SWAP1 RETURN JUMPDEST CALLVALUE DUP1 ISZERO PUSH2 0x37F JUMPI PUSH0 PUSH0 REVERT JUMPDEST POP PUSH2 0x39A PUSH1 0x4 DUP1 CALLDATASIZE SUB DUP2 ADD SWAP1 PUSH2 0x395 SWAP2 SWAP1 PUSH2 0x419D JUMP JUMPDEST PUSH2 0xED6 JUMP JUMPDEST STOP JUMPDEST CALLVALUE DUP1 ISZERO PUSH2 0x3A7 JUMPI PUSH0 PUSH0 REVERT JUMPDEST POP PUSH2 0x3B0 PUSH2 0x1107 JUMP JUMPDEST PUSH1 0x40 MLOAD PUSH2 0x3BD SWAP2 SWAP1 PUSH2 0x4151 JUMP JUMPDEST PUSH1 0x40 MLOAD DUP1 SWAP2 SUB SWAP1 RETURN JUMPDEST CALLVALUE DUP1 ISZERO PUSH2 0x3D1 JUMPI PUSH0 PUSH0 REVERT JUMPDEST POP PUSH2 0x3EC PUSH1 0x4 DUP1 CALLDATASIZE SUB DUP2 ADD SWAP1 PUSH2 0x3E7 SWAP2 SWAP1 PUSH2 0x3F6F JUMP JUMPDEST PUSH2 0x110D JUMP JUMPDEST PUSH1 0x40 MLOAD PUSH2 0x3F9 SWAP2 SWAP1 PUSH2 0x405A JUMP JUMPDEST PUSH1 0x40 MLOAD DUP1 SWAP2 SUB SWAP1 RETURN JUMPDEST CALLVALUE DUP1 ISZERO PUSH2 0x40D JUMPI PUSH0 PUSH0 REVERT JUMPDEST POP PUSH2 0x428 PUSH1 0x4 DUP1 CALLDATASIZE SUB DUP2 ADD SWAP1 PUSH2 0x423 SWAP2 SWAP1 PUSH2 0x3F6F JUMP JUMPDEST PUSH2 0x11A0 JUMP JUMPDEST STOP JUMPDEST CALLVALUE DUP1 ISZERO PUSH2 0x435 JUMPI PUSH0 PUSH0 REVERT JUMPDEST POP PUSH2 0x450 PUSH1 0x4 DUP1 CALLDATASIZE SUB DUP2 ADD SWAP1 PUSH2 0x44B SWAP2 SWAP1 PUSH2 0x423C JUMP JUMPDEST PUSH2 0x1273 JUMP JUMPDEST STOP JUMPDEST CALLVALUE DUP1 ISZERO PUSH2 0x45D JUMPI PUSH0 PUSH0 REVERT JUMPDEST POP PUSH2 0x478 PUSH1 0x4 DUP1 CALLDATASIZE SUB DUP2 ADD SWAP1 PUSH2 0x473 SWAP2 SWAP1 PUSH2 0x4299 JUMP JUMPDEST PUSH2 0x15B4 JUMP JUMPDEST STOP JUMPDEST CALLVALUE DUP1 ISZERO PUSH2 0x485 JUMPI PUSH0 PUSH0 REVERT JUMPDEST POP PUSH2 0x4A0 PUSH1 0x4 DUP1 CALLDATASIZE SUB DUP2 ADD SWAP1 PUSH2 0x49B SWAP2 SWAP1 PUSH2 0x423C JUMP JUMPDEST PUSH2 0x1890 JUMP JUMPDEST STOP JUMPDEST CALLVALUE DUP1 ISZERO PUSH2 0x4AD JUMPI PUSH0 PUSH0 REVERT JUMPDEST POP PUSH2 0x4B6 PUSH2 0x1B2E JUMP JUMPDEST PUSH1 0x40 MLOAD PUSH2 0x4C3 SWAP2 SWAP1 PUSH2 0x4332 JUMP JUMPDEST PUSH1 0x40 MLOAD DUP1 SWAP2 SUB SWAP1 RETURN JUMPDEST CALLVALUE DUP1 ISZERO PUSH2 0x4D7 JUMPI PUSH0 PUSH0 REVERT JUMPDEST POP PUSH2 0x4F2 PUSH1 0x4 DUP1 CALLDATASIZE SUB DUP2 ADD SWAP1 PUSH2 0x4ED SWAP2 SWAP1 PUSH2 0x4483 JUMP JUMPDEST PUSH2 0x1B53 JUMP JUMPDEST PUSH1 0x40 MLOAD PUSH2 0x4FF SWAP2 SWAP1 PUSH2 0x4151 JUMP JUMPDEST PUSH1 0x40 MLOAD DUP1 SWAP2 SUB SWAP1 RETURN JUMPDEST CALLVALUE DUP1 ISZERO PUSH2 0x513 JUMPI PUSH0 PUSH0 REVERT JUMPDEST POP PUSH2 0x51C PUSH2 0x2072 JUMP JUMPDEST PUSH1 0x40 MLOAD PUSH2 0x529 SWAP2 SWAP1 PUSH2 0x4151 JUMP JUMPDEST PUSH1 0x40 MLOAD DUP1 SWAP2 SUB SWAP1 RETURN JUMPDEST CALLVALUE DUP1 ISZERO PUSH2 0x53D JUMPI PUSH0 PUSH0 REVERT JUMPDEST POP PUSH2 0x546 PUSH2 0x2079 JUMP JUMPDEST PUSH1 0x40 MLOAD PUSH2 0x553 SWAP2 SWAP1 PUSH2 0x4512 JUMP JUMPDEST PUSH1 0x40 MLOAD DUP1 SWAP2 SUB SWAP1 RETURN JUMPDEST PUSH2 0x576 PUSH1 0x4 DUP1 CALLDATASIZE SUB DUP2 ADD SWAP1 PUSH2 0x571 SWAP2 SWAP1 PUSH2 0x4483 JUMP JUMPDEST PUSH2 0x209D JUMP JUMPDEST PUSH1 0x40 MLOAD PUSH2 0x583 SWAP2 SWAP1 PUSH2 0x4151 JUMP JUMPDEST PUSH1 0x40 MLOAD DUP1 SWAP2 SUB SWAP1 RETURN JUMPDEST CALLVALUE DUP1 ISZERO PUSH2 0x597 JUMPI PUSH0 PUSH0 REVERT JUMPDEST POP PUSH2 0x5B2 PUSH1 0x4 DUP1 CALLDATASIZE SUB DUP2 ADD SWAP1 PUSH2 0x5AD SWAP2 SWAP1 PUSH2 0x40E8 JUMP JUMPDEST PUSH2 0x2192 JUMP JUMPDEST PUSH1 0x40 MLOAD PUSH2 0x5CA SWAP13 SWAP12 SWAP11 SWAP10 SWAP9 SWAP8 SWAP7 SWAP6 SWAP5 SWAP4 SWAP3 SWAP2 SWAP1 PUSH2 0x45EE JUMP JUMPDEST PUSH1 0x40 MLOAD DUP1 SWAP2 SUB SWAP1 RETURN JUMPDEST CALLVALUE DUP1 ISZERO PUSH2 0x5DE JUMPI PUSH0 PUSH0 REVERT JUMPDEST POP PUSH2 0x5F9 PUSH1 0x4 DUP1 CALLDATASIZE SUB DUP2 ADD SWAP1 PUSH2 0x5F4 SWAP2 SWAP1 PUSH2 0x4113 JUMP JUMPDEST PUSH2 0x236F JUMP JUMPDEST PUSH1 0x40 MLOAD PUSH2 0x606 SWAP2 SWAP1 PUSH2 0x4151 JUMP JUMPDEST PUSH1 0x40 MLOAD DUP1 SWAP2 SUB SWAP1 RETURN JUMPDEST CALLVALUE DUP1 ISZERO PUSH2 0x61A JUMPI PUSH0 PUSH0 REVERT JUMPDEST POP PUSH2 0x635 PUSH1 0x4 DUP1 CALLDATASIZE SUB DUP2 ADD SWAP1 PUSH2 0x630 SWAP2 SWAP1 PUSH2 0x3F6F JUMP JUMPDEST PUSH2 0x239A JUMP JUMPDEST PUSH1 0x40 MLOAD PUSH2 0x642 SWAP2 SWAP1 PUSH2 0x405A JUMP JUMPDEST PUSH1 0x40 MLOAD DUP1 SWAP2 SUB SWAP1 RETURN JUMPDEST CALLVALUE DUP1 ISZERO PUSH2 0x656 JUMPI PUSH0 PUSH0 REVERT JUMPDEST POP PUSH2 0x671 PUSH1 0x4 DUP1 CALLDATASIZE SUB DUP2 ADD SWAP1 PUSH2 0x66C SWAP2 SWAP1 PUSH2 0x4113 JUMP JUMPDEST PUSH2 0x242D JUMP JUMPDEST PUSH1 0x40 MLOAD PUSH2 0x67E SWAP2 SWAP1 PUSH2 0x4151 JUMP JUMPDEST PUSH1 0x40 MLOAD DUP1 SWAP2 SUB SWAP1 RETURN JUMPDEST CALLVALUE DUP1 ISZERO PUSH2 0x692 JUMPI PUSH0 PUSH0 REVERT JUMPDEST POP PUSH2 0x6AD PUSH1 0x4 DUP1 CALLDATASIZE SUB DUP2 ADD SWAP1 PUSH2 0x6A8 SWAP2 SWAP1 PUSH2 0x40E8 JUMP JUMPDEST PUSH2 0x2458 JUMP JUMPDEST STOP JUMPDEST CALLVALUE DUP1 ISZERO PUSH2 0x6BA JUMPI PUSH0 PUSH0 REVERT JUMPDEST POP PUSH2 0x6D5 PUSH1 0x4 DUP1 CALLDATASIZE SUB DUP2 ADD SWAP1 PUSH2 0x6D0 SWAP2 SWAP1 PUSH2 0x3F6F JUMP JUMPDEST PUSH2 0x252D JUMP JUMPDEST PUSH1 0x40 MLOAD PUSH2 0x6E2 SWAP2 SWAP1 PUSH2 0x4184 JUMP JUMPDEST PUSH1 0x40 MLOAD DUP1 SWAP2 SUB SWAP1 RETURN JUMPDEST CALLVALUE DUP1 ISZERO PUSH2 0x6F6 JUMPI PUSH0 PUSH0 REVERT JUMPDEST POP PUSH2 0x711 PUSH1 0x4 DUP1 CALLDATASIZE SUB DUP2 ADD SWAP1 PUSH2 0x70C SWAP2 SWAP1 PUSH2 0x3F6F JUMP JUMPDEST PUSH2 0x262B JUMP JUMPDEST STOP JUMPDEST CALLVALUE DUP1 ISZERO PUSH2 0x71E JUMPI PUSH0 PUSH0 REVERT JUMPDEST POP PUSH2 0x739 PUSH1 0x4 DUP1 CALLDATASIZE SUB DUP2 ADD SWAP1 PUSH2 0x734 SWAP2 SWAP1 PUSH2 0x4299 JUMP JUMPDEST PUSH2 0x26FE JUMP JUMPDEST STOP JUMPDEST CALLVALUE DUP1 ISZERO PUSH2 0x746 JUMPI PUSH0 PUSH0 REVERT JUMPDEST POP PUSH2 0x761 PUSH1 0x4 DUP1 CALLDATASIZE SUB DUP2 ADD SWAP1 PUSH2 0x75C SWAP2 SWAP1 PUSH2 0x40E8 JUMP JUMPDEST PUSH2 0x2997 JUMP JUMPDEST PUSH1 0x40 MLOAD PUSH2 0x774 SWAP8 SWAP7 SWAP6 SWAP5 SWAP4 SWAP3 SWAP2 SWAP1 PUSH2 0x46B4 JUMP JUMPDEST PUSH1 0x40 MLOAD DUP1 SWAP2 SUB SWAP1 RETURN JUMPDEST CALLVALUE DUP1 ISZERO PUSH2 0x788 JUMPI PUSH0 PUSH0 REVERT JUMPDEST POP PUSH2 0x7A3 PUSH1 0x4 DUP1 CALLDATASIZE SUB DUP2 ADD SWAP1 PUSH2 0x79E SWAP2 SWAP1 PUSH2 0x40E8 JUMP JUMPDEST PUSH2 0x2DC9 JUMP JUMPDEST PUSH1 0x40 MLOAD PUSH2 0x7BA SWAP12 SWAP11 SWAP10 SWAP9 SWAP8 SWAP7 SWAP6 SWAP5 SWAP4 SWAP3 SWAP2 SWAP1 PUSH2 0x4721 JUMP JUMPDEST PUSH1 0x40 MLOAD DUP1 SWAP2 SUB SWAP1 RETURN JUMPDEST CALLVALUE DUP1 ISZERO PUSH2 0x7CE JUMPI PUSH0 PUSH0 REVERT JUMPDEST POP PUSH2 0x7D7 PUSH2 0x3142 JUMP JUMPDEST PUSH1 0x40 MLOAD PUSH2 0x7E4 SWAP2 SWAP1 PUSH2 0x4151 JUMP JUMPDEST PUSH1 0x40 MLOAD DUP1 SWAP2 SUB SWAP1 RETURN JUMPDEST CALLVALUE DUP1 ISZERO PUSH2 0x7F8 JUMPI PUSH0 PUSH0 REVERT JUMPDEST POP PUSH2 0x813 PUSH1 0x4 DUP1 CALLDATASIZE SUB DUP2 ADD SWAP1 PUSH2 0x80E SWAP2 SWAP1 PUSH2 0x480E JUMP JUMPDEST PUSH2 0x3148 JUMP JUMPDEST STOP JUMPDEST PUSH2 0x82F PUSH1 0x4 DUP1 CALLDATASIZE SUB DUP2 ADD SWAP1 PUSH2 0x82A SWAP2 SWAP1 PUSH2 0x40E8 JUMP JUMPDEST PUSH2 0x35AF JUMP JUMPDEST STOP JUMPDEST CALLVALUE DUP1 ISZERO PUSH2 0x83C JUMPI PUSH0 PUSH0 REVERT JUMPDEST POP PUSH2 0x845 PUSH2 0x388C JUMP JUMPDEST PUSH1 0x40 MLOAD PUSH2 0x852 SWAP2 SWAP1 PUSH2 0x4151 JUMP JUMPDEST PUSH1 0x40 MLOAD DUP1 SWAP2 SUB SWAP1 RETURN JUMPDEST CALLVALUE DUP1 ISZERO PUSH2 0x866 JUMPI PUSH0 PUSH0 REVERT JUMPDEST POP PUSH2 0x86F PUSH2 0x3892 JUMP JUMPDEST PUSH1 0x40 MLOAD PUSH2 0x87C SWAP2 SWAP1 PUSH2 0x486C JUMP JUMPDEST PUSH1 0x40 MLOAD DUP1 SWAP2 SUB SWAP1 RETURN JUMPDEST CALLVALUE DUP1 ISZERO PUSH2 0x890 JUMPI PUSH0 PUSH0 REVERT JUMPDEST POP PUSH2 0x8AB PUSH1 0x4 DUP1 CALLDATASIZE SUB DUP2 ADD SWAP1 PUSH2 0x8A6 SWAP2 SWAP1 PUSH2 0x40E8 JUMP JUMPDEST PUSH2 0x38B7 JUMP JUMPDEST STOP JUMPDEST PUSH1 0x60 PUSH1 0x6 PUSH0 DUP4 PUSH20 0xFFFFFFFFFFFFFFFFFFFFFFFFFFFFFFFFFFFFFFFF AND PUSH20 0xFFFFFFFFFFFFFFFFFFFFFFFFFFFFFFFFFFFFFFFF AND DUP2 MSTORE PUSH1 0x20 ADD SWAP1 DUP2 MSTORE PUSH1 0x20 ADD PUSH0 KECCAK256 DUP1 SLOAD DUP1 PUSH1 0x20 MUL PUSH1 0x20 ADD PUSH1 0x40 MLOAD SWAP1 DUP2 ADD PUSH1 0x40 MSTORE DUP1 SWAP3 SWAP2 SWAP1 DUP2 DUP2 MSTORE PUSH1 0x20 ADD DUP3 DUP1 SLOAD DUP1 ISZERO PUSH2 0x934 JUMPI PUSH1 0x20 MUL DUP3 ADD SWAP2 SWAP1 PUSH0 MSTORE PUSH1 0x20 PUSH0 KECCAK256 SWAP1 JUMPDEST DUP2 SLOAD DUP2 MSTORE PUSH1 0x20 ADD SWAP1 PUSH1 0x1 ADD SWAP1 DUP1 DUP4 GT PUSH2 0x920 JUMPI JUMPDEST POP POP POP POP POP SWAP1 POP SWAP2 SWAP1 POP JUMP JUMPDEST PUSH0 PUSH0 PUSH0 PUSH1 0x2 SLOAD PUSH1 0x3 SLOAD PUSH1 0x1 SLOAD SWAP3 POP SWAP3 POP SWAP3 POP SWAP1 SWAP2 SWAP3 JUMP JUMPDEST DUP1 PUSH1 0x2 SLOAD DUP2 LT PUSH2 0x99E JUMPI DUP1 PUSH1 0x40 MLOAD PUSH32 0xEE9FFCB700000000000000000000000000000000000000000000000000000000 DUP2 MSTORE PUSH1 0x4 ADD PUSH2 0x995 SWAP2 SWAP1 PUSH2 0x4151 JUMP JUMPDEST PUSH1 0x40 MLOAD DUP1 SWAP2 SUB SWAP1 REVERT JUMPDEST DUP2 CALLER PUSH20 0xFFFFFFFFFFFFFFFFFFFFFFFFFFFFFFFFFFFFFFFF AND PUSH1 0x4 PUSH0 DUP4 DUP2 MSTORE PUSH1 0x20 ADD SWAP1 DUP2 MSTORE PUSH1 0x20 ADD PUSH0 KECCAK256 PUSH1 0x2 ADD PUSH0 SWAP1 SLOAD SWAP1 PUSH2 0x100 EXP SWAP1 DIV PUSH20 0xFFFFFFFFFFFFFFFFFFFFFFFFFFFFFFFFFFFFFFFF AND PUSH20 0xFFFFFFFFFFFFFFFFFFFFFFFFFFFFFFFFFFFFFFFF AND EQ PUSH2 0xA42 JUMPI CALLER PUSH1 0x40 MLOAD PUSH32 0x8E4A23D600000000000000000000000000000000000000000000000000000000 DUP2 MSTORE PUSH1 0x4 ADD PUSH2 0xA39 SWAP2 SWAP1 PUSH2 0x4512 JUMP JUMPDEST PUSH1 0x40 MLOAD DUP1 SWAP2 SUB SWAP1 REVERT JUMPDEST PUSH1 0x1 PUSH1 0x8 SLOAD EQ PUSH2 0xA7E JUMPI PUSH1 0x40 MLOAD PUSH32 0xC5F2BE5100000000000000000000000000000000000000000000000000000000 DUP2 MSTORE PUSH1 0x4 ADD PUSH1 0x40 MLOAD DUP1 SWAP2 SUB SWAP1 REVERT JUMPDEST PUSH1 0x2 PUSH1 0x8 DUP2 SWAP1 SSTORE POP PUSH0 PUSH1 0x4 PUSH0 DUP6 DUP2 MSTORE PUSH1 0x20 ADD SWAP1 DUP2 MSTORE PUSH1 0x20 ADD PUSH0 KECCAK256 SWAP1 POP PUSH1 0x2 PUSH1 0x5 DUP2 GT ISZERO PUSH2 0xAAE JUMPI PUSH2 0xAAD PUSH2 0x452B JUMP JUMPDEST JUMPDEST DUP2 PUSH1 0x6 ADD PUSH0 SWAP1 SLOAD SWAP1 PUSH2 0x100 EXP SWAP1 DIV PUSH1 0xFF AND PUSH1 0x5 DUP2 GT ISZERO PUSH2 0xAD1 JUMPI PUSH2 0xAD0 PUSH2 0x452B JUMP JUMPDEST JUMPDEST EQ PUSH2 0xB26 JUMPI DUP1 PUSH1 0x6 ADD PUSH0 SWAP1 SLOAD SWAP1 PUSH2 0x100 EXP SWAP1 DIV PUSH1 0xFF AND PUSH1 0x2 PUSH1 0x40 MLOAD PUSH32 0xF924664D00000000000000000000000000000000000000000000000000000000 DUP2 MSTORE PUSH1 0x4 ADD PUSH2 0xB1D SWAP3 SWAP2 SWAP1 PUSH2 0x4885 JUMP JUMPDEST PUSH1 0x40 MLOAD DUP1 SWAP2 SUB SWAP1 REVERT JUMPDEST PUSH0 DUP2 PUSH1 0x4 ADD SLOAD SUB PUSH2 0xB63 JUMPI PUSH1 0x40 MLOAD PUSH32 0xD5EF09BA00000000000000000000000000000000000000000000000000000000 DUP2 MSTORE PUSH1 0x4 ADD PUSH1 0x40 MLOAD DUP1 SWAP2 SUB SWAP1 REVERT JUMPDEST PUSH0 DUP2 PUSH1 0x4 ADD SLOAD SWAP1 POP PUSH0 PUSH1 0x64 PUSH1 0x1 SLOAD DUP4 PUSH2 0xB7C SWAP2 SWAP1 PUSH2 0x48D9 JUMP JUMPDEST PUSH2 0xB86 SWAP2 SWAP1 PUSH2 0x4947 JUMP JUMPDEST SWAP1 POP PUSH0 DUP2 DUP4 PUSH2 0xB95 SWAP2 SWAP1 PUSH2 0x4977 JUMP JUMPDEST SWAP1 POP PUSH1 0x3 DUP5 PUSH1 0x6 ADD PUSH0 PUSH2 0x100 EXP DUP2 SLOAD DUP2 PUSH1 0xFF MUL NOT AND SWAP1 DUP4 PUSH1 0x5 DUP2 GT ISZERO PUSH2 0xBBE JUMPI PUSH2 0xBBD PUSH2 0x452B JUMP JUMPDEST JUMPDEST MUL OR SWAP1 SSTORE POP TIMESTAMP DUP5 PUSH1 0xA ADD DUP2 SWAP1 SSTORE POP DUP3 PUSH1 0x3 PUSH0 DUP3 DUP3 SLOAD PUSH2 0xBDD SWAP2 SWAP1 PUSH2 0x4977 JUMP JUMPDEST SWAP3 POP POP DUP2 SWAP1 SSTORE POP PUSH0 PUSH20 0xFFFFFFFFFFFFFFFFFFFFFFFFFFFFFFFFFFFFFFFF AND PUSH1 0x9 PUSH0 SWAP1 SLOAD SWAP1 PUSH2 0x100 EXP SWAP1 DIV PUSH20 0xFFFFFFFFFFFFFFFFFFFFFFFFFFFFFFFFFFFFFFFF AND PUSH20 0xFFFFFFFFFFFFFFFFFFFFFFFFFFFFFFFFFFFFFFFF AND EQ PUSH2 0xC65 JUMPI PUSH2 0xC64 DUP5 PUSH1 0x1 ADD PUSH0 SWAP1 SLOAD SWAP1 PUSH2 0x100 EXP SWAP1 DIV PUSH20 0xFFFFFFFFFFFFFFFFFFFFFFFFFFFFFFFFFFFFFFFF AND PUSH2 0x3C12 JUMP JUMPDEST JUMPDEST PUSH0 DUP5 PUSH1 0x2 ADD PUSH0 SWAP1 SLOAD SWAP1 PUSH2 0x100 EXP SWAP1 DIV PUSH20 0xFFFFFFFFFFFFFFFFFFFFFFFFFFFFFFFFFFFFFFFF AND PUSH20 0xFFFFFFFFFFFFFFFFFFFFFFFFFFFFFFFFFFFFFFFF AND DUP3 PUSH1 0x40 MLOAD PUSH2 0xCAD SWAP1 PUSH2 0x49D7 JUMP JUMPDEST PUSH0 PUSH1 0x40 MLOAD DUP1 DUP4 SUB DUP2 DUP6 DUP8 GAS CALL SWAP3 POP POP POP RETURNDATASIZE DUP1 PUSH0 DUP2 EQ PUSH2 0xCE7 JUMPI PUSH1 0x40 MLOAD SWAP2 POP PUSH1 0x1F NOT PUSH1 0x3F RETURNDATASIZE ADD AND DUP3 ADD PUSH1 0x40 MSTORE RETURNDATASIZE DUP3 MSTORE RETURNDATASIZE PUSH0 PUSH1 0x20 DUP5 ADD RETURNDATACOPY PUSH2 0xCEC JUMP JUMPDEST PUSH1 0x60 SWAP2 POP JUMPDEST POP POP SWAP1 POP DUP1 PUSH2 0xD27 JUMPI PUSH1 0x40 MLOAD PUSH32 0x90B8EC1800000000000000000000000000000000000000000000000000000000 DUP2 MSTORE PUSH1 0x4 ADD PUSH1 0x40 MLOAD DUP1 SWAP2 SUB SWAP1 REVERT JUMPDEST DUP5 PUSH1 0x2 ADD PUSH0 SWAP1 SLOAD SWAP1 PUSH2 0x100 EXP SWAP1 DIV PUSH20 0xFFFFFFFFFFFFFFFFFFFFFFFFFFFFFFFFFFFFFFFF AND PUSH20 0xFFFFFFFFFFFFFFFFFFFFFFFFFFFFFFFFFFFFFFFF AND DUP9 PUSH32 0x8F034C05208E51E526AE64863F6F62CE04AA7D67D7568C54C28BCDA6F1CED6A9 DUP5 DUP7 PUSH1 0x40 MLOAD PUSH2 0xD93 SWAP3 SWAP2 SWAP1 PUSH2 0x49EB JUMP JUMPDEST PUSH1 0x40 MLOAD DUP1 SWAP2 SUB SWAP1 LOG3 POP POP POP POP POP PUSH1 0x1 PUSH1 0x8 DUP2 SWAP1 SSTORE POP POP POP POP JUMP JUMPDEST PUSH1 0x5 PUSH1 0x20 MSTORE DUP2 PUSH0 MSTORE PUSH1 0x40 PUSH0 KECCAK256 DUP2 DUP2 SLOAD DUP2 LT PUSH2 0xDC6 JUMPI PUSH0 DUP1 REVERT JUMPDEST SWAP1 PUSH0 MSTORE PUSH1 0x20 PUSH0 KECCAK256 ADD PUSH0 SWAP2 POP SWAP2 POP POP SLOAD DUP2 JUMP JUMPDEST PUSH0 PUSH0 PUSH20 0xFFFFFFFFFFFFFFFFFFFFFFFFFFFFFFFFFFFFFFFF AND PUSH1 0xA PUSH0 SWAP1 SLOAD SWAP1 PUSH2 0x100 EXP SWAP1 DIV PUSH20 0xFFFFFFFFFFFFFFFFFFFFFFFFFFFFFFFFFFFFFFFF AND PUSH20 0xFFFFFFFFFFFFFFFFFFFFFFFFFFFFFFFFFFFFFFFF AND SUB PUSH2 0xE35 JUMPI PUSH0 SWAP1 POP PUSH2 0xED1 JUMP JUMPDEST PUSH1 0xA PUSH0 SWAP1 SLOAD SWAP1 PUSH2 0x100 EXP SWAP1 DIV PUSH20 0xFFFFFFFFFFFFFFFFFFFFFFFFFFFFFFFFFFFFFFFF AND PUSH20 0xFFFFFFFFFFFFFFFFFFFFFFFFFFFFFFFFFFFFFFFF AND PUSH4 0x305EA318 DUP4 PUSH1 0x40 MLOAD DUP3 PUSH4 0xFFFFFFFF AND PUSH1 0xE0 SHL DUP2 MSTORE PUSH1 0x4 ADD PUSH2 0xE8F SWAP2 SWAP1 PUSH2 0x4512 JUMP JUMPDEST PUSH1 0x20 PUSH1 0x40 MLOAD DUP1 DUP4 SUB DUP2 DUP7 GAS STATICCALL ISZERO DUP1 ISZERO PUSH2 0xEAA JUMPI RETURNDATASIZE PUSH0 PUSH0 RETURNDATACOPY RETURNDATASIZE PUSH0 REVERT JUMPDEST POP POP POP POP PUSH1 0x40 MLOAD RETURNDATASIZE PUSH1 0x1F NOT PUSH1 0x1F DUP3 ADD AND DUP3 ADD DUP1 PUSH1 0x40 MSTORE POP DUP2 ADD SWAP1 PUSH2 0xECE SWAP2 SWAP1 PUSH2 0x4A3C JUMP JUMPDEST SWAP1 POP JUMPDEST SWAP2 SWAP1 POP JUMP JUMPDEST DUP2 PUSH1 0x2 SLOAD DUP2 LT PUSH2 0xF1D JUMPI DUP1 PUSH1 0x40 MLOAD PUSH32 0xEE9FFCB700000000000000000000000000000000000000000000000000000000 DUP2 MSTORE PUSH1 0x4 ADD PUSH2 0xF14 SWAP2 SWAP1 PUSH2 0x4151 JUMP JUMPDEST PUSH1 0x40 MLOAD DUP1 SWAP2 SUB SWAP1 REVERT JUMPDEST DUP3 CALLER PUSH20 0xFFFFFFFFFFFFFFFFFFFFFFFFFFFFFFFFFFFFFFFF AND PUSH1 0x4 PUSH0 DUP4 DUP2 MSTORE PUSH1 0x20 ADD SWAP1 DUP2 MSTORE PUSH1 0x20 ADD PUSH0 KECCAK256 PUSH1 0x1 ADD PUSH0 SWAP1 SLOAD SWAP1 PUSH2 0x100 EXP SWAP1 DIV PUSH20 0xFFFFFFFFFFFFFFFFFFFFFFFFFFFFFFFFFFFFFFFF AND PUSH20 0xFFFFFFFFFFFFFFFFFFFFFFFFFFFFFFFFFFFFFFFF AND EQ PUSH2 0xFC1 JUMPI CALLER PUSH1 0x40 MLOAD PUSH32 0x8E4A23D600000000000000000000000000000000000000000000000000000000 DUP2 MSTORE PUSH1 0x4 ADD PUSH2 0xFB8 SWAP2 SWAP1 PUSH2 0x4512 JUMP JUMPDEST PUSH1 0x40 MLOAD DUP1 SWAP2 SUB SWAP1 REVERT JUMPDEST PUSH0 PUSH1 0x4 PUSH0 DUP7 DUP2 MSTORE PUSH1 0x20 ADD SWAP1 DUP2 MSTORE PUSH1 0x20 ADD PUSH0 KECCAK256 SWAP1 POP PUSH1 0x1 PUSH1 0x5 DUP2 GT ISZERO PUSH2 0xFE9 JUMPI PUSH2 0xFE8 PUSH2 0x452B JUMP JUMPDEST JUMPDEST DUP2 PUSH1 0x6 ADD PUSH0 SWAP1 SLOAD SWAP1 PUSH2 0x100 EXP SWAP1 DIV PUSH1 0xFF AND PUSH1 0x5 DUP2 GT ISZERO PUSH2 0x100C JUMPI PUSH2 0x100B PUSH2 0x452B JUMP JUMPDEST JUMPDEST EQ PUSH2 0x1061 JUMPI DUP1 PUSH1 0x6 ADD PUSH0 SWAP1 SLOAD SWAP1 PUSH2 0x100 EXP SWAP1 DIV PUSH1 0xFF AND PUSH1 0x1 PUSH1 0x40 MLOAD PUSH32 0xF924664D00000000000000000000000000000000000000000000000000000000 DUP2 MSTORE PUSH1 0x4 ADD PUSH2 0x1058 SWAP3 SWAP2 SWAP1 PUSH2 0x4885 JUMP JUMPDEST PUSH1 0x40 MLOAD DUP1 SWAP2 SUB SWAP1 REVERT JUMPDEST DUP1 PUSH1 0x5 ADD SLOAD TIMESTAMP GT ISZERO PUSH2 0x109F JUMPI PUSH1 0x40 MLOAD PUSH32 0x70F65CAA00000000000000000000000000000000000000000000000000000000 DUP2 MSTORE PUSH1 0x4 ADD PUSH1 0x40 MLOAD DUP1 SWAP2 SUB SWAP1 REVERT JUMPDEST PUSH0 DUP2 PUSH1 0x5 ADD SLOAD SWAP1 POP DUP5 DUP3 PUSH1 0x5 ADD PUSH0 DUP3 DUP3 SLOAD PUSH2 0x10BA SWAP2 SWAP1 PUSH2 0x4A67 JUMP JUMPDEST SWAP3 POP POP DUP2 SWAP1 SSTORE POP DUP6 PUSH32 0x514AF8BA7ABBCAA858D00568E0788CD39416A39195EAC9780F8730CD4FCFB103 DUP3 DUP5 PUSH1 0x5 ADD SLOAD PUSH1 0x40 MLOAD PUSH2 0x10F7 SWAP3 SWAP2 SWAP1 PUSH2 0x49EB JUMP JUMPDEST PUSH1 0x40 MLOAD DUP1 SWAP2 SUB SWAP1 LOG2 POP POP POP POP POP POP JUMP JUMPDEST PUSH1 0x2 SLOAD DUP2 JUMP JUMPDEST PUSH1 0x60 PUSH1 0x7 PUSH0 DUP4 PUSH20 0xFFFFFFFFFFFFFFFFFFFFFFFFFFFFFFFFFFFFFFFF AND PUSH20 0xFFFFFFFFFFFFFFFFFFFFFFFFFFFFFFFFFFFFFFFF AND DUP2 MSTORE PUSH1 0x20 ADD SWAP1 DUP2 MSTORE PUSH1 0x20 ADD PUSH0 KECCAK256 DUP1 SLOAD DUP1 PUSH1 0x20 MUL PUSH1 0x20 ADD PUSH1 0x40 MLOAD SWAP1 DUP2 ADD PUSH1 0x40 MSTORE DUP1 SWAP3 SWAP2 SWAP1 DUP2 DUP2 MSTORE PUSH1 0x20 ADD DUP3 DUP1 SLOAD DUP1 ISZERO PUSH2 0x1194 JUMPI PUSH1 0x20 MUL DUP3 ADD SWAP2 SWAP1 PUSH0 MSTORE PUSH1 0x20 PUSH0 KECCAK256 SWAP1 JUMPDEST DUP2 SLOAD DUP2 MSTORE PUSH1 0x20 ADD SWAP1 PUSH1 0x1 ADD SWAP1 DUP1 DUP4 GT PUSH2 0x1180 JUMPI JUMPDEST POP POP POP POP POP SWAP1 POP SWAP2 SWAP1 POP JUMP JUMPDEST PUSH0 PUSH0 SWAP1 SLOAD SWAP1 PUSH2 0x100 EXP SWAP1 DIV PUSH20 0xFFFFFFFFFFFFFFFFFFFFFFFFFFFFFFFFFFFFFFFF AND PUSH20 0xFFFFFFFFFFFFFFFFFFFFFFFFFFFFFFFFFFFFFFFF AND CALLER PUSH20 0xFFFFFFFFFFFFFFFFFFFFFFFFFFFFFFFFFFFFFFFF AND EQ PUSH2 0x1230 JUMPI CALLER PUSH1 0x40 MLOAD PUSH32 0x8E4A23D600000000000000000000000000000000000000000000000000000000 DUP2 MSTORE PUSH1 0x4 ADD PUSH2 0x1227 SWAP2 SWAP1 PUSH2 0x4512 JUMP JUMPDEST PUSH1 0x40 MLOAD DUP1 SWAP2 SUB SWAP1 REVERT JUMPDEST DUP1 PUSH1 0xA PUSH0 PUSH2 0x100 EXP DUP2 SLOAD DUP2 PUSH20 0xFFFFFFFFFFFFFFFFFFFFFFFFFFFFFFFFFFFFFFFF MUL NOT AND SWAP1 DUP4 PUSH20 0xFFFFFFFFFFFFFFFFFFFFFFFFFFFFFFFFFFFFFFFF AND MUL OR SWAP1 SSTORE POP POP JUMP JUMPDEST DUP3 PUSH1 0x2 SLOAD DUP2 LT PUSH2 0x12BA JUMPI DUP1 PUSH1 0x40 MLOAD PUSH32 0xEE9FFCB700000000000000000000000000000000000000000000000000000000 DUP2 MSTORE PUSH1 0x4 ADD PUSH2 0x12B1 SWAP2 SWAP1 PUSH2 0x4151 JUMP JUMPDEST PUSH1 0x40 MLOAD DUP1 SWAP2 SUB SWAP1 REVERT JUMPDEST DUP4 CALLER PUSH20 0xFFFFFFFFFFFFFFFFFFFFFFFFFFFFFFFFFFFFFFFF AND PUSH1 0x4 PUSH0 DUP4 DUP2 MSTORE PUSH1 0x20 ADD SWAP1 DUP2 MSTORE PUSH1 0x20 ADD PUSH0 KECCAK256 PUSH1 0x3 ADD PUSH0 SWAP1 SLOAD SWAP1 PUSH2 0x100 EXP SWAP1 DIV PUSH20 0xFFFFFFFFFFFFFFFFFFFFFFFFFFFFFFFFFFFFFFFF AND PUSH20 0xFFFFFFFFFFFFFFFFFFFFFFFFFFFFFFFFFFFFFFFF AND EQ PUSH2 0x135E JUMPI CALLER PUSH1 0x40 MLOAD PUSH32 0x8E4A23D600000000000000000000000000000000000000000000000000000000 DUP2 MSTORE PUSH1 0x4 ADD PUSH2 0x1355 SWAP2 SWAP1 PUSH2 0x4512 JUMP JUMPDEST PUSH1 0x40 MLOAD DUP1 SWAP2 SUB SWAP1 REVERT JUMPDEST PUSH0 PUSH1 0x4 PUSH0 DUP8 DUP2 MSTORE PUSH1 0x20 ADD SWAP1 DUP2 MSTORE PUSH1 0x20 ADD PUSH0 KECCAK256 SWAP1 POP PUSH1 0x1 PUSH1 0x5 DUP2 GT ISZERO PUSH2 0x1386 JUMPI PUSH2 0x1385 PUSH2 0x452B JUMP JUMPDEST JUMPDEST DUP2 PUSH1 0x6 ADD PUSH0 SWAP1 SLOAD SWAP1 PUSH2 0x100 EXP SWAP1 DIV PUSH1 0xFF AND PUSH1 0x5 DUP2 GT ISZERO PUSH2 0x13A9 JUMPI PUSH2 0x13A8 PUSH2 0x452B JUMP JUMPDEST JUMPDEST EQ PUSH2 0x13FE JUMPI DUP1 PUSH1 0x6 ADD PUSH0 SWAP1 SLOAD SWAP1 PUSH2 0x100 EXP SWAP1 DIV PUSH1 0xFF AND PUSH1 0x1 PUSH1 0x40 MLOAD PUSH32 0xF924664D00000000000000000000000000000000000000000000000000000000 DUP2 MSTORE PUSH1 0x4 ADD PUSH2 0x13F5 SWAP3 SWAP2 SWAP1 PUSH2 0x4885 JUMP JUMPDEST PUSH1 0x40 MLOAD DUP1 SWAP2 SUB SWAP1 REVERT JUMPDEST DUP1 PUSH1 0x5 ADD SLOAD TIMESTAMP GT ISZERO PUSH2 0x143C JUMPI PUSH1 0x40 MLOAD PUSH32 0x70F65CAA00000000000000000000000000000000000000000000000000000000 DUP2 MSTORE PUSH1 0x4 ADD PUSH1 0x40 MLOAD DUP1 SWAP2 SUB SWAP1 REVERT JUMPDEST PUSH1 0x2 DUP2 PUSH1 0x6 ADD PUSH0 PUSH2 0x100 EXP DUP2 SLOAD DUP2 PUSH1 0xFF MUL NOT AND SWAP1 DUP4 PUSH1 0x5 DUP2 GT ISZERO PUSH2 0x1463 JUMPI PUSH2 0x1462 PUSH2 0x452B JUMP JUMPDEST JUMPDEST MUL OR SWAP1 SSTORE POP DUP5 DUP5 DUP3 PUSH1 0x8 ADD SWAP2 DUP3 PUSH2 0x147B SWAP3 SWAP2 SWAP1 PUSH2 0x4C98 JUMP JUMPDEST POP PUSH0 PUSH20 0xFFFFFFFFFFFFFFFFFFFFFFFFFFFFFFFFFFFFFFFF AND PUSH1 0xA PUSH0 SWAP1 SLOAD SWAP1 PUSH2 0x100 EXP SWAP1 DIV PUSH20 0xFFFFFFFFFFFFFFFFFFFFFFFFFFFFFFFFFFFFFFFF AND PUSH20 0xFFFFFFFFFFFFFFFFFFFFFFFFFFFFFFFFFFFFFFFF AND EQ PUSH2 0x155B JUMPI PUSH1 0xA PUSH0 SWAP1 SLOAD SWAP1 PUSH2 0x100 EXP SWAP1 DIV PUSH20 0xFFFFFFFFFFFFFFFFFFFFFFFFFFFFFFFFFFFFFFFF AND PUSH20 0xFFFFFFFFFFFFFFFFFFFFFFFFFFFFFFFFFFFFFFFF AND PUSH4 0x1D11308E CALLER PUSH1 0x1 PUSH1 0x40 MLOAD DUP4 PUSH4 0xFFFFFFFF AND PUSH1 0xE0 SHL DUP2 MSTORE PUSH1 0x4 ADD PUSH2 0x152D SWAP3 SWAP2 SWAP1 PUSH2 0x4D65 JUMP JUMPDEST PUSH0 PUSH1 0x40 MLOAD DUP1 DUP4 SUB DUP2 PUSH0 DUP8 DUP1 EXTCODESIZE ISZERO DUP1 ISZERO PUSH2 0x1544 JUMPI PUSH0 PUSH0 REVERT JUMPDEST POP GAS CALL ISZERO DUP1 ISZERO PUSH2 0x1556 JUMPI RETURNDATASIZE PUSH0 PUSH0 RETURNDATACOPY RETURNDATASIZE PUSH0 REVERT JUMPDEST POP POP POP POP JUMPDEST CALLER PUSH20 0xFFFFFFFFFFFFFFFFFFFFFFFFFFFFFFFFFFFFFFFF AND DUP7 PUSH32 0x800EF3E3B110573F2F50295CA58CB134587DEC0061753C905E35E84F2EFB8C52 DUP8 DUP8 PUSH1 0x40 MLOAD PUSH2 0x15A4 SWAP3 SWAP2 SWAP1 PUSH2 0x4DB8 JUMP JUMPDEST PUSH1 0x40 MLOAD DUP1 SWAP2 SUB SWAP1 LOG3 POP POP POP POP POP POP JUMP JUMPDEST DUP2 PUSH1 0x2 SLOAD DUP2 LT PUSH2 0x15FB JUMPI DUP1 PUSH1 0x40 MLOAD PUSH32 0xEE9FFCB700000000000000000000000000000000000000000000000000000000 DUP2 MSTORE PUSH1 0x4 ADD PUSH2 0x15F2 SWAP2 SWAP1 PUSH2 0x4151 JUMP JUMPDEST PUSH1 0x40 MLOAD DUP1 SWAP2 SUB SWAP1 REVERT JUMPDEST DUP3 CALLER PUSH20 0xFFFFFFFFFFFFFFFFFFFFFFFFFFFFFFFFFFFFFFFF AND PUSH1 0x4 PUSH0 DUP4 DUP2 MSTORE PUSH1 0x20 ADD SWAP1 DUP2 MSTORE PUSH1 0x20 ADD PUSH0 KECCAK256 PUSH1 0x1 ADD PUSH0 SWAP1 SLOAD SWAP1 PUSH2 0x100 EXP SWAP1 DIV PUSH20 0xFFFFFFFFFFFFFFFFFFFFFFFFFFFFFFFFFFFFFFFF AND PUSH20 0xFFFFFFFFFFFFFFFFFFFFFFFFFFFFFFFFFFFFFFFF AND EQ PUSH2 0x169F JUMPI CALLER PUSH1 0x40 MLOAD PUSH32 0x8E4A23D600000000000000000000000000000000000000000000000000000000 DUP2 MSTORE PUSH1 0x4 ADD PUSH2 0x1696 SWAP2 SWAP1 PUSH2 0x4512 JUMP JUMPDEST PUSH1 0x40 MLOAD DUP1 SWAP2 SUB SWAP1 REVERT JUMPDEST PUSH0 PUSH20 0xFFFFFFFFFFFFFFFFFFFFFFFFFFFFFFFFFFFFFFFF AND DUP4 PUSH20 0xFFFFFFFFFFFFFFFFFFFFFFFFFFFFFFFFFFFFFFFF AND SUB PUSH2 0x1704 JUMPI PUSH1 0x40 MLOAD PUSH32 0xE6C4247B00000000000000000000000000000000000000000000000000000000 DUP2 MSTORE PUSH1 0x4 ADD PUSH1 0x40 MLOAD DUP1 SWAP2 SUB SWAP1 REVERT JUMPDEST PUSH0 PUSH1 0x4 PUSH0 DUP7 DUP2 MSTORE PUSH1 0x20 ADD SWAP1 DUP2 MSTORE PUSH1 0x20 ADD PUSH0 KECCAK256 SWAP1 POP PUSH0 PUSH1 0x5 DUP2 GT ISZERO PUSH2 0x172B JUMPI PUSH2 0x172A PUSH2 0x452B JUMP JUMPDEST JUMPDEST DUP2 PUSH1 0x6 ADD PUSH0 SWAP1 SLOAD SWAP1 PUSH2 0x100 EXP SWAP1 DIV PUSH1 0xFF AND PUSH1 0x5 DUP2 GT ISZERO PUSH2 0x174E JUMPI PUSH2 0x174D PUSH2 0x452B JUMP JUMPDEST JUMPDEST EQ ISZERO DUP1 ISZERO PUSH2 0x1791 JUMPI POP PUSH1 0x1 PUSH1 0x5 DUP2 GT ISZERO PUSH2 0x176B JUMPI PUSH2 0x176A PUSH2 0x452B JUMP JUMPDEST JUMPDEST DUP2 PUSH1 0x6 ADD PUSH0 SWAP1 SLOAD SWAP1 PUSH2 0x100 EXP SWAP1 DIV PUSH1 0xFF AND PUSH1 0x5 DUP2 GT ISZERO PUSH2 0x178E JUMPI PUSH2 0x178D PUSH2 0x452B JUMP JUMPDEST JUMPDEST EQ ISZERO JUMPDEST ISZERO PUSH2 0x17E5 JUMPI DUP1 PUSH1 0x6 ADD PUSH0 SWAP1 SLOAD SWAP1 PUSH2 0x100 EXP SWAP1 DIV PUSH1 0xFF AND PUSH0 PUSH1 0x40 MLOAD PUSH32 0xF924664D00000000000000000000000000000000000000000000000000000000 DUP2 MSTORE PUSH1 0x4 ADD PUSH2 0x17DC SWAP3 SWAP2 SWAP1 PUSH2 0x4885 JUMP JUMPDEST PUSH1 0x40 MLOAD DUP1 SWAP2 SUB SWAP1 REVERT JUMPDEST PUSH0 DUP2 PUSH1 0x3 ADD PUSH0 SWAP1 SLOAD SWAP1 PUSH2 0x100 EXP SWAP1 DIV PUSH20 0xFFFFFFFFFFFFFFFFFFFFFFFFFFFFFFFFFFFFFFFF AND SWAP1 POP DUP5 DUP3 PUSH1 0x3 ADD PUSH0 PUSH2 0x100 EXP DUP2 SLOAD DUP2 PUSH20 0xFFFFFFFFFFFFFFFFFFFFFFFFFFFFFFFFFFFFFFFF MUL NOT AND SWAP1 DUP4 PUSH20 0xFFFFFFFFFFFFFFFFFFFFFFFFFFFFFFFFFFFFFFFF AND MUL OR SWAP1 SSTORE POP DUP6 PUSH32 0x2ACB199B487DD9D4949BF0CE3A2B36BAA7E688EB88197841015161A98B3D8747 DUP3 DUP8 PUSH1 0x40 MLOAD PUSH2 0x1880 SWAP3 SWAP2 SWAP1 PUSH2 0x4DDA JUMP JUMPDEST PUSH1 0x40 MLOAD DUP1 SWAP2 SUB SWAP1 LOG2 POP POP POP POP POP POP JUMP JUMPDEST DUP3 PUSH1 0x2 SLOAD DUP2 LT PUSH2 0x18D7 JUMPI DUP1 PUSH1 0x40 MLOAD PUSH32 0xEE9FFCB700000000000000000000000000000000000000000000000000000000 DUP2 MSTORE PUSH1 0x4 ADD PUSH2 0x18CE SWAP2 SWAP1 PUSH2 0x4151 JUMP JUMPDEST PUSH1 0x40 MLOAD DUP1 SWAP2 SUB SWAP1 REVERT JUMPDEST PUSH0 PUSH1 0x4 PUSH0 DUP7 DUP2 MSTORE PUSH1 0x20 ADD SWAP1 DUP2 MSTORE PUSH1 0x20 ADD PUSH0 KECCAK256 SWAP1 POP DUP1 PUSH1 0x1 ADD PUSH0 SWAP1 SLOAD SWAP1 PUSH2 0x100 EXP SWAP1 DIV PUSH20 0xFFFFFFFFFFFFFFFFFFFFFFFFFFFFFFFFFFFFFFFF AND PUSH20 0xFFFFFFFFFFFFFFFFFFFFFFFFFFFFFFFFFFFFFFFF AND CALLER PUSH20 0xFFFFFFFFFFFFFFFFFFFFFFFFFFFFFFFFFFFFFFFF AND EQ ISZERO DUP1 ISZERO PUSH2 0x1999 JUMPI POP DUP1 PUSH1 0x2 ADD PUSH0 SWAP1 SLOAD SWAP1 PUSH2 0x100 EXP SWAP1 DIV PUSH20 0xFFFFFFFFFFFFFFFFFFFFFFFFFFFFFFFFFFFFFFFF AND PUSH20 0xFFFFFFFFFFFFFFFFFFFFFFFFFFFFFFFFFFFFFFFF AND CALLER PUSH20 0xFFFFFFFFFFFFFFFFFFFFFFFFFFFFFFFFFFFFFFFF AND EQ ISZERO JUMPDEST ISZERO PUSH2 0x19DB JUMPI CALLER PUSH1 0x40 MLOAD PUSH32 0x8E4A23D600000000000000000000000000000000000000000000000000000000 DUP2 MSTORE PUSH1 0x4 ADD PUSH2 0x19D2 SWAP2 SWAP1 PUSH2 0x4512 JUMP JUMPDEST PUSH1 0x40 MLOAD DUP1 SWAP2 SUB SWAP1 REVERT JUMPDEST PUSH1 0x2 PUSH1 0x5 DUP2 GT ISZERO PUSH2 0x19EF JUMPI PUSH2 0x19EE PUSH2 0x452B JUMP JUMPDEST JUMPDEST DUP2 PUSH1 0x6 ADD PUSH0 SWAP1 SLOAD SWAP1 PUSH2 0x100 EXP SWAP1 DIV PUSH1 0xFF AND PUSH1 0x5 DUP2 GT ISZERO PUSH2 0x1A12 JUMPI PUSH2 0x1A11 PUSH2 0x452B JUMP JUMPDEST JUMPDEST EQ ISZERO DUP1 ISZERO PUSH2 0x1A55 JUMPI POP PUSH1 0x1 PUSH1 0x5 DUP2 GT ISZERO PUSH2 0x1A2F JUMPI PUSH2 0x1A2E PUSH2 0x452B JUMP JUMPDEST JUMPDEST DUP2 PUSH1 0x6 ADD PUSH0 SWAP1 SLOAD SWAP1 PUSH2 0x100 EXP SWAP1 DIV PUSH1 0xFF AND PUSH1 0x5 DUP2 GT ISZERO PUSH2 0x1A52 JUMPI PUSH2 0x1A51 PUSH2 0x452B JUMP JUMPDEST JUMPDEST EQ ISZERO JUMPDEST ISZERO PUSH2 0x1AAA JUMPI DUP1 PUSH1 0x6 ADD PUSH0 SWAP1 SLOAD SWAP1 PUSH2 0x100 EXP SWAP1 DIV PUSH1 0xFF AND PUSH1 0x2 PUSH1 0x40 MLOAD PUSH32 0xF924664D00000000000000000000000000000000000000000000000000000000 DUP2 MSTORE PUSH1 0x4 ADD PUSH2 0x1AA1 SWAP3 SWAP2 SWAP1 PUSH2 0x4885 JUMP JUMPDEST PUSH1 0x40 MLOAD DUP1 SWAP2 SUB SWAP1 REVERT JUMPDEST PUSH1 0x5 DUP2 PUSH1 0x6 ADD PUSH0 PUSH2 0x100 EXP DUP2 SLOAD DUP2 PUSH1 0xFF MUL NOT AND SWAP1 DUP4 PUSH1 0x5 DUP2 GT ISZERO PUSH2 0x1AD1 JUMPI PUSH2 0x1AD0 PUSH2 0x452B JUMP JUMPDEST JUMPDEST MUL OR SWAP1 SSTORE POP CALLER PUSH20 0xFFFFFFFFFFFFFFFFFFFFFFFFFFFFFFFFFFFFFFFF AND DUP6 PUSH32 0x556A5BF38CB59A9278ED161F499D231BBBED1025F2765AA08FB5688767A65E50 DUP7 DUP7 PUSH1 0x40 MLOAD PUSH2 0x1B1F SWAP3 SWAP2 SWAP1 PUSH2 0x4DB8 JUMP JUMPDEST PUSH1 0x40 MLOAD DUP1 SWAP2 SUB SWAP1 LOG3 POP POP POP POP POP JUMP JUMPDEST PUSH1 0x9 PUSH0 SWAP1 SLOAD SWAP1 PUSH2 0x100 EXP SWAP1 DIV PUSH20 0xFFFFFFFFFFFFFFFFFFFFFFFFFFFFFFFFFFFFFFFF AND DUP2 JUMP JUMPDEST PUSH0 PUSH0 PUSH20 0xFFFFFFFFFFFFFFFFFFFFFFFFFFFFFFFFFFFFFFFF AND DUP6 PUSH20 0xFFFFFFFFFFFFFFFFFFFFFFFFFFFFFFFFFFFFFFFF AND EQ DUP1 PUSH2 0x1BB9 JUMPI POP PUSH0 PUSH20 0xFFFFFFFFFFFFFFFFFFFFFFFFFFFFFFFFFFFFFFFF AND DUP5 PUSH20 0xFFFFFFFFFFFFFFFFFFFFFFFFFFFFFFFFFFFFFFFF AND EQ JUMPDEST ISZERO PUSH2 0x1BF0 JUMPI PUSH1 0x40 MLOAD PUSH32 0xE6C4247B00000000000000000000000000000000000000000000000000000000 DUP2 MSTORE PUSH1 0x4 ADD PUSH1 0x40 MLOAD DUP1 SWAP2 SUB SWAP1 REVERT JUMPDEST PUSH0 DUP4 MLOAD SUB PUSH2 0x1C2A JUMPI PUSH1 0x40 MLOAD PUSH32 0xDFA03E5000000000000000000000000000000000000000000000000000000000 DUP2 MSTORE PUSH1 0x4 ADD PUSH1 0x40 MLOAD DUP1 SWAP2 SUB SWAP1 REVERT JUMPDEST PUSH3 0x15180 DUP3 LT ISZERO PUSH2 0x1C67 JUMPI PUSH1 0x40 MLOAD PUSH32 0x2C5211C600000000000000000000000000000000000000000000000000000000 DUP2 MSTORE PUSH1 0x4 ADD PUSH1 0x40 MLOAD DUP1 SWAP2 SUB SWAP1 REVERT JUMPDEST PUSH0 PUSH1 0x2 SLOAD SWAP1 POP PUSH1 0x40 MLOAD DUP1 PUSH2 0x180 ADD PUSH1 0x40 MSTORE DUP1 DUP3 DUP2 MSTORE PUSH1 0x20 ADD CALLER PUSH20 0xFFFFFFFFFFFFFFFFFFFFFFFFFFFFFFFFFFFFFFFF AND DUP2 MSTORE PUSH1 0x20 ADD DUP8 PUSH20 0xFFFFFFFFFFFFFFFFFFFFFFFFFFFFFFFFFFFFFFFF AND DUP2 MSTORE PUSH1 0x20 ADD DUP7 PUSH20 0xFFFFFFFFFFFFFFFFFFFFFFFFFFFFFFFFFFFFFFFF AND DUP2 MSTORE PUSH1 0x20 ADD PUSH0 DUP2 MSTORE PUSH1 0x20 ADD DUP5 TIMESTAMP PUSH2 0x1CE5 SWAP2 SWAP1 PUSH2 0x4A67 JUMP JUMPDEST DUP2 MSTORE PUSH1 0x20 ADD PUSH0 PUSH1 0x5 DUP2 GT ISZERO PUSH2 0x1CFD JUMPI PUSH2 0x1CFC PUSH2 0x452B JUMP JUMPDEST JUMPDEST DUP2 MSTORE PUSH1 0x20 ADD DUP6 DUP2 MSTORE PUSH1 0x20 ADD PUSH1 0x40 MLOAD DUP1 PUSH1 0x20 ADD PUSH1 0x40 MSTORE DUP1 PUSH0 DUP2 MSTORE POP DUP2 MSTORE PUSH1 0x20 ADD TIMESTAMP DUP2 MSTORE PUSH1 0x20 ADD PUSH0 DUP2 MSTORE PUSH1 0x20 ADD PUSH0 ISZERO ISZERO DUP2 MSTORE POP PUSH1 0x4 PUSH0 DUP4 DUP2 MSTORE PUSH1 0x20 ADD SWAP1 DUP2 MSTORE PUSH1 0x20 ADD PUSH0 KECCAK256 PUSH0 DUP3 ADD MLOAD DUP2 PUSH0 ADD SSTORE PUSH1 0x20 DUP3 ADD MLOAD DUP2 PUSH1 0x1 ADD PUSH0 PUSH2 0x100 EXP DUP2 SLOAD DUP2 PUSH20 0xFFFFFFFFFFFFFFFFFFFFFFFFFFFFFFFFFFFFFFFF MUL NOT AND SWAP1 DUP4 PUSH20 0xFFFFFFFFFFFFFFFFFFFFFFFFFFFFFFFFFFFFFFFF AND MUL OR SWAP1 SSTORE POP PUSH1 0x40 DUP3 ADD MLOAD DUP2 PUSH1 0x2 ADD PUSH0 PUSH2 0x100 EXP DUP2 SLOAD DUP2 PUSH20 0xFFFFFFFFFFFFFFFFFFFFFFFFFFFFFFFFFFFFFFFF MUL NOT AND SWAP1 DUP4 PUSH20 0xFFFFFFFFFFFFFFFFFFFFFFFFFFFFFFFFFFFFFFFF AND MUL OR SWAP1 SSTORE POP PUSH1 0x60 DUP3 ADD MLOAD DUP2 PUSH1 0x3 ADD PUSH0 PUSH2 0x100 EXP DUP2 SLOAD DUP2 PUSH20 0xFFFFFFFFFFFFFFFFFFFFFFFFFFFFFFFFFFFFFFFF MUL NOT AND SWAP1 DUP4 PUSH20 0xFFFFFFFFFFFFFFFFFFFFFFFFFFFFFFFFFFFFFFFF AND MUL OR SWAP1 SSTORE POP PUSH1 0x80 DUP3 ADD MLOAD DUP2 PUSH1 0x4 ADD SSTORE PUSH1 0xA0 DUP3 ADD MLOAD DUP2 PUSH1 0x5 ADD SSTORE PUSH1 0xC0 DUP3 ADD MLOAD DUP2 PUSH1 0x6 ADD PUSH0 PUSH2 0x100 EXP DUP2 SLOAD DUP2 PUSH1 0xFF MUL NOT AND SWAP1 DUP4 PUSH1 0x5 DUP2 GT ISZERO PUSH2 0x1E57 JUMPI PUSH2 0x1E56 PUSH2 0x452B JUMP JUMPDEST JUMPDEST MUL OR SWAP1 SSTORE POP PUSH1 0xE0 DUP3 ADD MLOAD DUP2 PUSH1 0x7 ADD SWAP1 DUP2 PUSH2 0x1E71 SWAP2 SWAP1 PUSH2 0x4E01 JUMP JUMPDEST POP PUSH2 0x100 DUP3 ADD MLOAD DUP2 PUSH1 0x8 ADD SWAP1 DUP2 PUSH2 0x1E88 SWAP2 SWAP1 PUSH2 0x4E01 JUMP JUMPDEST POP PUSH2 0x120 DUP3 ADD MLOAD DUP2 PUSH1 0x9 ADD SSTORE PUSH2 0x140 DUP3 ADD MLOAD DUP2 PUSH1 0xA ADD SSTORE PUSH2 0x160 DUP3 ADD MLOAD DUP2 PUSH1 0xB ADD PUSH0 PUSH2 0x100 EXP DUP2 SLOAD DUP2 PUSH1 0xFF MUL NOT AND SWAP1 DUP4 ISZERO ISZERO MUL OR SWAP1 SSTORE POP SWAP1 POP POP PUSH1 0x5 PUSH0 CALLER PUSH20 0xFFFFFFFFFFFFFFFFFFFFFFFFFFFFFFFFFFFFFFFF AND PUSH20 0xFFFFFFFFFFFFFFFFFFFFFFFFFFFFFFFFFFFFFFFF AND DUP2 MSTORE PUSH1 0x20 ADD SWAP1 DUP2 MSTORE PUSH1 0x20 ADD PUSH0 KECCAK256 DUP2 SWAP1 DUP1 PUSH1 0x1 DUP2 SLOAD ADD DUP1 DUP3 SSTORE DUP1 SWAP2 POP POP PUSH1 0x1 SWAP1 SUB SWAP1 PUSH0 MSTORE PUSH1 0x20 PUSH0 KECCAK256 ADD PUSH0 SWAP1 SWAP2 SWAP1 SWAP2 SWAP1 SWAP2 POP SSTORE PUSH1 0x6 PUSH0 DUP8 PUSH20 0xFFFFFFFFFFFFFFFFFFFFFFFFFFFFFFFFFFFFFFFF AND PUSH20 0xFFFFFFFFFFFFFFFFFFFFFFFFFFFFFFFFFFFFFFFF AND DUP2 MSTORE PUSH1 0x20 ADD SWAP1 DUP2 MSTORE PUSH1 0x20 ADD PUSH0 KECCAK256 DUP2 SWAP1 DUP1 PUSH1 0x1 DUP2 SLOAD ADD DUP1 DUP3 SSTORE DUP1 SWAP2 POP POP PUSH1 0x1 SWAP1 SUB SWAP1 PUSH0 MSTORE PUSH1 0x20 PUSH0 KECCAK256 ADD PUSH0 SWAP1 SWAP2 SWAP1 SWAP2 SWAP1 SWAP2 POP SSTORE PUSH1 0x7 PUSH0 DUP7 PUSH20 0xFFFFFFFFFFFFFFFFFFFFFFFFFFFFFFFFFFFFFFFF AND PUSH20 0xFFFFFFFFFFFFFFFFFFFFFFFFFFFFFFFFFFFFFFFF AND DUP2 MSTORE PUSH1 0x20 ADD SWAP1 DUP2 MSTORE PUSH1 0x20 ADD PUSH0 KECCAK256 DUP2 SWAP1 DUP1 PUSH1 0x1 DUP2 SLOAD ADD DUP1 DUP3 SSTORE DUP1 SWAP2 POP POP PUSH1 0x1 SWAP1 SUB SWAP1 PUSH0 MSTORE PUSH1 0x20 PUSH0 KECCAK256 ADD PUSH0 SWAP1 SWAP2 SWAP1 SWAP2 SWAP1 SWAP2 POP SSTORE PUSH1 0x2 PUSH0 DUP2 SLOAD DUP1 SWAP3 SWAP2 SWAP1 PUSH2 0x1FF7 SWAP1 PUSH2 0x4ED0 JUMP JUMPDEST SWAP2 SWAP1 POP SSTORE POP DUP6 PUSH20 0xFFFFFFFFFFFFFFFFFFFFFFFFFFFFFFFFFFFFFFFF AND CALLER PUSH20 0xFFFFFFFFFFFFFFFFFFFFFFFFFFFFFFFFFFFFFFFF AND DUP3 PUSH32 0xFEC2E0001F23AC3E685805535A487F140C608E19FA1F37407B0FF7D71EDE5BC7 DUP9 PUSH0 DUP10 PUSH1 0x40 MLOAD PUSH2 0x205E SWAP4 SWAP3 SWAP2 SWAP1 PUSH2 0x4F50 JUMP JUMPDEST PUSH1 0x40 MLOAD DUP1 SWAP2 SUB SWAP1 LOG4 DUP1 SWAP2 POP POP SWAP5 SWAP4 POP POP POP POP JUMP JUMPDEST PUSH0 SELFBALANCE SWAP1 POP SWAP1 JUMP JUMPDEST PUSH0 PUSH0 SWAP1 SLOAD SWAP1 PUSH2 0x100 EXP SWAP1 DIV PUSH20 0xFFFFFFFFFFFFFFFFFFFFFFFFFFFFFFFFFFFFFFFF AND DUP2 JUMP JUMPDEST PUSH0 PUSH0 CALLVALUE SUB PUSH2 0x20D7 JUMPI PUSH1 0x40 MLOAD PUSH32 0x2C5211C600000000000000000000000000000000000000000000000000000000 DUP2 MSTORE PUSH1 0x4 ADD PUSH1 0x40 MLOAD DUP1 SWAP2 SUB SWAP1 REVERT JUMPDEST PUSH0 PUSH2 0x20E4 DUP7 DUP7 DUP7 DUP7 PUSH2 0x1B53 JUMP JUMPDEST SWAP1 POP PUSH0 PUSH1 0x4 PUSH0 DUP4 DUP2 MSTORE PUSH1 0x20 ADD SWAP1 DUP2 MSTORE PUSH1 0x20 ADD PUSH0 KECCAK256 SWAP1 POP CALLVALUE DUP2 PUSH1 0x4 ADD DUP2 SWAP1 SSTORE POP PUSH1 0x1 DUP2 PUSH1 0x6 ADD PUSH0 PUSH2 0x100 EXP DUP2 SLOAD DUP2 PUSH1 0xFF MUL NOT AND SWAP1 DUP4 PUSH1 0x5 DUP2 GT ISZERO PUSH2 0x212A JUMPI PUSH2 0x2129 PUSH2 0x452B JUMP JUMPDEST JUMPDEST MUL OR SWAP1 SSTORE POP CALLVALUE PUSH1 0x3 PUSH0 DUP3 DUP3 SLOAD PUSH2 0x2140 SWAP2 SWAP1 PUSH2 0x4A67 JUMP JUMPDEST SWAP3 POP POP DUP2 SWAP1 SSTORE POP DUP2 PUSH32 0xF984C0F6B056FE16B28046E36FCAFA84A00D503F88F1D0AFA768E4C206192B80 CALLVALUE DUP4 PUSH1 0x5 ADD SLOAD PUSH1 0x40 MLOAD PUSH2 0x217D SWAP3 SWAP2 SWAP1 PUSH2 0x49EB JUMP JUMPDEST PUSH1 0x40 MLOAD DUP1 SWAP2 SUB SWAP1 LOG2 DUP2 SWAP3 POP POP POP SWAP5 SWAP4 POP POP POP POP JUMP JUMPDEST PUSH1 0x4 PUSH1 0x20 MSTORE DUP1 PUSH0 MSTORE PUSH1 0x40 PUSH0 KECCAK256 PUSH0 SWAP2 POP SWAP1 POP DUP1 PUSH0 ADD SLOAD SWAP1 DUP1 PUSH1 0x1 ADD PUSH0 SWAP1 SLOAD SWAP1 PUSH2 0x100 EXP SWAP1 DIV PUSH20 0xFFFFFFFFFFFFFFFFFFFFFFFFFFFFFFFFFFFFFFFF AND SWAP1 DUP1 PUSH1 0x2 ADD PUSH0 SWAP1 SLOAD SWAP1 PUSH2 0x100 EXP SWAP1 DIV PUSH20 0xFFFFFFFFFFFFFFFFFFFFFFFFFFFFFFFFFFFFFFFF AND SWAP1 DUP1 PUSH1 0x3 ADD PUSH0 SWAP1 SLOAD SWAP1 PUSH2 0x100 EXP SWAP1 DIV PUSH20 0xFFFFFFFFFFFFFFFFFFFFFFFFFFFFFFFFFFFFFFFF AND SWAP1 DUP1 PUSH1 0x4 ADD SLOAD SWAP1 DUP1 PUSH1 0x5 ADD SLOAD SWAP1 DUP1 PUSH1 0x6 ADD PUSH0 SWAP1 SLOAD SWAP1 PUSH2 0x100 EXP SWAP1 DIV PUSH1 0xFF AND SWAP1 DUP1 PUSH1 0x7 ADD DUP1 SLOAD PUSH2 0x2244 SWAP1 PUSH2 0x4AD1 JUMP JUMPDEST DUP1 PUSH1 0x1F ADD PUSH1 0x20 DUP1 SWAP2 DIV MUL PUSH1 0x20 ADD PUSH1 0x40 MLOAD SWAP1 DUP2 ADD PUSH1 0x40 MSTORE DUP1 SWAP3 SWAP2 SWAP1 DUP2 DUP2 MSTORE PUSH1 0x20 ADD DUP3 DUP1 SLOAD PUSH2 0x2270 SWAP1 PUSH2 0x4AD1 JUMP JUMPDEST DUP1 ISZERO PUSH2 0x22BB JUMPI DUP1 PUSH1 0x1F LT PUSH2 0x2292 JUMPI PUSH2 0x100 DUP1 DUP4 SLOAD DIV MUL DUP4 MSTORE SWAP2 PUSH1 0x20 ADD SWAP2 PUSH2 0x22BB JUMP JUMPDEST DUP3 ADD SWAP2 SWAP1 PUSH0 MSTORE PUSH1 0x20 PUSH0 KECCAK256 SWAP1 JUMPDEST DUP2 SLOAD DUP2 MSTORE SWAP1 PUSH1 0x1 ADD SWAP1 PUSH1 0x20 ADD DUP1 DUP4 GT PUSH2 0x229E JUMPI DUP3 SWAP1 SUB PUSH1 0x1F AND DUP3 ADD SWAP2 JUMPDEST POP POP POP POP POP SWAP1 DUP1 PUSH1 0x8 ADD DUP1 SLOAD PUSH2 0x22D0 SWAP1 PUSH2 0x4AD1 JUMP JUMPDEST DUP1 PUSH1 0x1F ADD PUSH1 0x20 DUP1 SWAP2 DIV MUL PUSH1 0x20 ADD PUSH1 0x40 MLOAD SWAP1 DUP2 ADD PUSH1 0x40 MSTORE DUP1 SWAP3 SWAP2 SWAP1 DUP2 DUP2 MSTORE PUSH1 0x20 ADD DUP3 DUP1 SLOAD PUSH2 0x22FC SWAP1 PUSH2 0x4AD1 JUMP JUMPDEST DUP1 ISZERO PUSH2 0x2347 JUMPI DUP1 PUSH1 0x1F LT PUSH2 0x231E JUMPI PUSH2 0x100 DUP1 DUP4 SLOAD DIV MUL DUP4 MSTORE SWAP2 PUSH1 0x20 ADD SWAP2 PUSH2 0x2347 JUMP JUMPDEST DUP3 ADD SWAP2 SWAP1 PUSH0 MSTORE PUSH1 0x20 PUSH0 KECCAK256 SWAP1 JUMPDEST DUP2 SLOAD DUP2 MSTORE SWAP1 PUSH1 0x1 ADD SWAP1 PUSH1 0x20 ADD DUP1 DUP4 GT PUSH2 0x232A JUMPI DUP3 SWAP1 SUB PUSH1 0x1F AND DUP3 ADD SWAP2 JUMPDEST POP POP POP POP POP SWAP1 DUP1 PUSH1 0x9 ADD SLOAD SWAP1 DUP1 PUSH1 0xA ADD SLOAD SWAP1 DUP1 PUSH1 0xB ADD PUSH0 SWAP1 SLOAD SWAP1 PUSH2 0x100 EXP SWAP1 DIV PUSH1 0xFF AND SWAP1 POP DUP13 JUMP JUMPDEST PUSH1 0x7 PUSH1 0x20 MSTORE DUP2 PUSH0 MSTORE PUSH1 0x40 PUSH0 KECCAK256 DUP2 DUP2 SLOAD DUP2 LT PUSH2 0x2388 JUMPI PUSH0 DUP1 REVERT JUMPDEST SWAP1 PUSH0 MSTORE PUSH1 0x20 PUSH0 KECCAK256 ADD PUSH0 SWAP2 POP SWAP2 POP POP SLOAD DUP2 JUMP JUMPDEST PUSH1 0x60 PUSH1 0x5 PUSH0 DUP4 PUSH20 0xFFFFFFFFFFFFFFFFFFFFFFFFFFFFFFFFFFFFFFFF AND PUSH20 0xFFFFFFFFFFFFFFFFFFFFFFFFFFFFFFFFFFFFFFFF AND DUP2 MSTORE PUSH1 0x20 ADD SWAP1 DUP2 MSTORE PUSH1 0x20 ADD PUSH0 KECCAK256 DUP1 SLOAD DUP1 PUSH1 0x20 MUL PUSH1 0x20 ADD PUSH1 0x40 MLOAD SWAP1 DUP2 ADD PUSH1 0x40 MSTORE DUP1 SWAP3 SWAP2 SWAP1 DUP2 DUP2 MSTORE PUSH1 0x20 ADD DUP3 DUP1 SLOAD DUP1 ISZERO PUSH2 0x2421 JUMPI PUSH1 0x20 MUL DUP3 ADD SWAP2 SWAP1 PUSH0 MSTORE PUSH1 0x20 PUSH0 KECCAK256 SWAP1 JUMPDEST DUP2 SLOAD DUP2 MSTORE PUSH1 0x20 ADD SWAP1 PUSH1 0x1 ADD SWAP1 DUP1 DUP4 GT PUSH2 0x240D JUMPI JUMPDEST POP POP POP POP POP SWAP1 POP SWAP2 SWAP1 POP JUMP JUMPDEST PUSH1 0x6 PUSH1 0x20 MSTORE DUP2 PUSH0 MSTORE PUSH1 0x40 PUSH0 KECCAK256 DUP2 DUP2 SLOAD DUP2 LT PUSH2 0x2446 JUMPI PUSH0 DUP1 REVERT JUMPDEST SWAP1 PUSH0 MSTORE PUSH1 0x20 PUSH0 KECCAK256 ADD PUSH0 SWAP2 POP SWAP2 POP POP SLOAD DUP2 JUMP JUMPDEST PUSH0 PUSH0 SWAP1 SLOAD SWAP1 PUSH2 0x100 EXP SWAP1 DIV PUSH20 0xFFFFFFFFFFFFFFFFFFFFFFFFFFFFFFFFFFFFFFFF AND PUSH20 0xFFFFFFFFFFFFFFFFFFFFFFFFFFFFFFFFFFFFFFFF AND CALLER PUSH20 0xFFFFFFFFFFFFFFFFFFFFFFFFFFFFFFFFFFFFFFFF AND EQ PUSH2 0x24E8 JUMPI CALLER PUSH1 0x40 MLOAD PUSH32 0x8E4A23D600000000000000000000000000000000000000000000000000000000 DUP2 MSTORE PUSH1 0x4 ADD PUSH2 0x24DF SWAP2 SWAP1 PUSH2 0x4512 JUMP JUMPDEST PUSH1 0x40 MLOAD DUP1 SWAP2 SUB SWAP1 REVERT JUMPDEST PUSH1 0xA DUP2 GT ISZERO PUSH2 0x2523 JUMPI PUSH1 0x40 MLOAD PUSH32 0x1F3B85D300000000000000000000000000000000000000000000000000000000 DUP2 MSTORE PUSH1 0x4 ADD PUSH1 0x40 MLOAD DUP1 SWAP2 SUB SWAP1 REVERT JUMPDEST DUP1 PUSH1 0x1 DUP2 SWAP1 SSTORE POP POP JUMP JUMPDEST PUSH0 PUSH0 PUSH20 0xFFFFFFFFFFFFFFFFFFFFFFFFFFFFFFFFFFFFFFFF AND PUSH1 0x9 PUSH0 SWAP1 SLOAD SWAP1 PUSH2 0x100 EXP SWAP1 DIV PUSH20 0xFFFFFFFFFFFFFFFFFFFFFFFFFFFFFFFFFFFFFFFF AND PUSH20 0xFFFFFFFFFFFFFFFFFFFFFFFFFFFFFFFFFFFFFFFF AND SUB PUSH2 0x258A JUMPI PUSH0 SWAP1 POP PUSH2 0x2626 JUMP JUMPDEST PUSH1 0x9 PUSH0 SWAP1 SLOAD SWAP1 PUSH2 0x100 EXP SWAP1 DIV PUSH20 0xFFFFFFFFFFFFFFFFFFFFFFFFFFFFFFFFFFFFFFFF AND PUSH20 0xFFFFFFFFFFFFFFFFFFFFFFFFFFFFFFFFFFFFFFFF AND PUSH4 0xACE417E0 DUP4 PUSH1 0x40 MLOAD DUP3 PUSH4 0xFFFFFFFF AND PUSH1 0xE0 SHL DUP2 MSTORE PUSH1 0x4 ADD PUSH2 0x25E4 SWAP2 SWAP1 PUSH2 0x4512 JUMP JUMPDEST PUSH1 0x20 PUSH1 0x40 MLOAD DUP1 DUP4 SUB DUP2 DUP7 GAS STATICCALL ISZERO DUP1 ISZERO PUSH2 0x25FF JUMPI RETURNDATASIZE PUSH0 PUSH0 RETURNDATACOPY RETURNDATASIZE PUSH0 REVERT JUMPDEST POP POP POP POP PUSH1 0x40 MLOAD RETURNDATASIZE PUSH1 0x1F NOT PUSH1 0x1F DUP3 ADD AND DUP3 ADD DUP1 PUSH1 0x40 MSTORE POP DUP2 ADD SWAP1 PUSH2 0x2623 SWAP2 SWAP1 PUSH2 0x4A3C JUMP JUMPDEST SWAP1 POP JUMPDEST SWAP2 SWAP1 POP JUMP JUMPDEST PUSH0 PUSH0 SWAP1 SLOAD SWAP1 PUSH2 0x100 EXP SWAP1 DIV PUSH20 0xFFFFFFFFFFFFFFFFFFFFFFFFFFFFFFFFFFFFFFFF AND PUSH20 0xFFFFFFFFFFFFFFFFFFFFFFFFFFFFFFFFFFFFFFFF AND CALLER PUSH20 0xFFFFFFFFFFFFFFFFFFFFFFFFFFFFFFFFFFFFFFFF AND EQ PUSH2 0x26BB JUMPI CALLER PUSH1 0x40 MLOAD PUSH32 0x8E4A23D600000000000000000000000000000000000000000000000000000000 DUP2 MSTORE PUSH1 0x4 ADD PUSH2 0x26B2 SWAP2 SWAP1 PUSH2 0x4512 JUMP JUMPDEST PUSH1 0x40 MLOAD DUP1 SWAP2 SUB SWAP1 REVERT JUMPDEST DUP1 PUSH1 0x9 PUSH0 PUSH2 0x100 EXP DUP2 SLOAD DUP2 PUSH20 0xFFFFFFFFFFFFFFFFFFFFFFFFFFFFFFFFFFFFFFFF MUL NOT AND SWAP1 DUP4 PUSH20 0xFFFFFFFFFFFFFFFFFFFFFFFFFFFFFFFFFFFFFFFF AND MUL OR SWAP1 SSTORE POP POP JUMP JUMPDEST DUP2 PUSH1 0x2 SLOAD DUP2 LT PUSH2 0x2745 JUMPI DUP1 PUSH1 0x40 MLOAD PUSH32 0xEE9FFCB700000000000000000000000000000000000000000000000000000000 DUP2 MSTORE PUSH1 0x4 ADD PUSH2 0x273C SWAP2 SWAP1 PUSH2 0x4151 JUMP JUMPDEST PUSH1 0x40 MLOAD DUP1 SWAP2 SUB SWAP1 REVERT JUMPDEST DUP3 CALLER PUSH20 0xFFFFFFFFFFFFFFFFFFFFFFFFFFFFFFFFFFFFFFFF AND PUSH1 0x4 PUSH0 DUP4 DUP2 MSTORE PUSH1 0x20 ADD SWAP1 DUP2 MSTORE PUSH1 0x20 ADD PUSH0 KECCAK256 PUSH1 0x1 ADD PUSH0 SWAP1 SLOAD SWAP1 PUSH2 0x100 EXP SWAP1 DIV PUSH20 0xFFFFFFFFFFFFFFFFFFFFFFFFFFFFFFFFFFFFFFFF AND PUSH20 0xFFFFFFFFFFFFFFFFFFFFFFFFFFFFFFFFFFFFFFFF AND EQ PUSH2 0x27E9 JUMPI CALLER PUSH1 0x40 MLOAD PUSH32 0x8E4A23D600000000000000000000000000000000000000000000000000000000 DUP2 MSTORE PUSH1 0x4 ADD PUSH2 0x27E0 SWAP2 SWAP1 PUSH2 0x4512 JUMP JUMPDEST PUSH1 0x40 MLOAD DUP1 SWAP2 SUB SWAP1 REVERT JUMPDEST PUSH0 PUSH20 0xFFFFFFFFFFFFFFFFFFFFFFFFFFFFFFFFFFFFFFFF AND DUP4 PUSH20 0xFFFFFFFFFFFFFFFFFFFFFFFFFFFFFFFFFFFFFFFF AND SUB PUSH2 0x284E JUMPI PUSH1 0x40 MLOAD PUSH32 0xE6C4247B00000000000000000000000000000000000000000000000000000000 DUP2 MSTORE PUSH1 0x4 ADD PUSH1 0x40 MLOAD DUP1 SWAP2 SUB SWAP1 REVERT JUMPDEST PUSH0 PUSH1 0x4 PUSH0 DUP7 DUP2 MSTORE PUSH1 0x20 ADD SWAP1 DUP2 MSTORE PUSH1 0x20 ADD PUSH0 KECCAK256 SWAP1 POP PUSH0 PUSH1 0x5 DUP2 GT ISZERO PUSH2 0x2875 JUMPI PUSH2 0x2874 PUSH2 0x452B JUMP JUMPDEST JUMPDEST DUP2 PUSH1 0x6 ADD PUSH0 SWAP1 SLOAD SWAP1 PUSH2 0x100 EXP SWAP1 DIV PUSH1 0xFF AND PUSH1 0x5 DUP2 GT ISZERO PUSH2 0x2898 JUMPI PUSH2 0x2897 PUSH2 0x452B JUMP JUMPDEST JUMPDEST EQ PUSH2 0x28EC JUMPI DUP1 PUSH1 0x6 ADD PUSH0 SWAP1 SLOAD SWAP1 PUSH2 0x100 EXP SWAP1 DIV PUSH1 0xFF AND PUSH0 PUSH1 0x40 MLOAD PUSH32 0xF924664D00000000000000000000000000000000000000000000000000000000 DUP2 MSTORE PUSH1 0x4 ADD PUSH2 0x28E3 SWAP3 SWAP2 SWAP1 PUSH2 0x4885 JUMP JUMPDEST PUSH1 0x40 MLOAD DUP1 SWAP2 SUB SWAP1 REVERT JUMPDEST PUSH0 DUP2 PUSH1 0x2 ADD PUSH0 SWAP1 SLOAD SWAP1 PUSH2 0x100 EXP SWAP1 DIV PUSH20 0xFFFFFFFFFFFFFFFFFFFFFFFFFFFFFFFFFFFFFFFF AND SWAP1 POP DUP5 DUP3 PUSH1 0x2 ADD PUSH0 PUSH2 0x100 EXP DUP2 SLOAD DUP2 PUSH20 0xFFFFFFFFFFFFFFFFFFFFFFFFFFFFFFFFFFFFFFFF MUL NOT AND SWAP1 DUP4 PUSH20 0xFFFFFFFFFFFFFFFFFFFFFFFFFFFFFFFFFFFFFFFF AND MUL OR SWAP1 SSTORE POP DUP6 PUSH32 0xEB42F80D8691A4932E59D407B00ED90F3816304690706E7AF5182E0CB3DCBD17 DUP3 DUP8 PUSH1 0x40 MLOAD PUSH2 0x2987 SWAP3 SWAP2 SWAP1 PUSH2 0x4DDA JUMP JUMPDEST PUSH1 0x40 MLOAD DUP1 SWAP2 SUB SWAP1 LOG2 POP POP POP POP POP POP JUMP JUMPDEST PUSH0 PUSH0 PUSH0 PUSH0 PUSH0 PUSH0 PUSH0 DUP8 PUSH1 0x2 SLOAD DUP2 LT PUSH2 0x29E5 JUMPI DUP1 PUSH1 0x40 MLOAD PUSH32 0xEE9FFCB700000000000000000000000000000000000000000000000000000000 DUP2 MSTORE PUSH1 0x4 ADD PUSH2 0x29DC SWAP2 SWAP1 PUSH2 0x4151 JUMP JUMPDEST PUSH1 0x40 MLOAD DUP1 SWAP2 SUB SWAP1 REVERT JUMPDEST PUSH0 PUSH1 0x4 PUSH0 DUP12 DUP2 MSTORE PUSH1 0x20 ADD SWAP1 DUP2 MSTORE PUSH1 0x20 ADD PUSH0 KECCAK256 PUSH1 0x40 MLOAD DUP1 PUSH2 0x180 ADD PUSH1 0x40 MSTORE SWAP1 DUP2 PUSH0 DUP3 ADD SLOAD DUP2 MSTORE PUSH1 0x20 ADD PUSH1 0x1 DUP3 ADD PUSH0 SWAP1 SLOAD SWAP1 PUSH2 0x100 EXP SWAP1 DIV PUSH20 0xFFFFFFFFFFFFFFFFFFFFFFFFFFFFFFFFFFFFFFFF AND PUSH20 0xFFFFFFFFFFFFFFFFFFFFFFFFFFFFFFFFFFFFFFFF AND PUSH20 0xFFFFFFFFFFFFFFFFFFFFFFFFFFFFFFFFFFFFFFFF AND DUP2 MSTORE PUSH1 0x20 ADD PUSH1 0x2 DUP3 ADD PUSH0 SWAP1 SLOAD SWAP1 PUSH2 0x100 EXP SWAP1 DIV PUSH20 0xFFFFFFFFFFFFFFFFFFFFFFFFFFFFFFFFFFFFFFFF AND PUSH20 0xFFFFFFFFFFFFFFFFFFFFFFFFFFFFFFFFFFFFFFFF AND PUSH20 0xFFFFFFFFFFFFFFFFFFFFFFFFFFFFFFFFFFFFFFFF AND DUP2 MSTORE PUSH1 0x20 ADD PUSH1 0x3 DUP3 ADD PUSH0 SWAP1 SLOAD SWAP1 PUSH2 0x100 EXP SWAP1 DIV PUSH20 0xFFFFFFFFFFFFFFFFFFFFFFFFFFFFFFFFFFFFFFFF AND PUSH20 0xFFFFFFFFFFFFFFFFFFFFFFFFFFFFFFFFFFFFFFFF AND PUSH20 0xFFFFFFFFFFFFFFFFFFFFFFFFFFFFFFFFFFFFFFFF AND DUP2 MSTORE PUSH1 0x20 ADD PUSH1 0x4 DUP3 ADD SLOAD DUP2 MSTORE PUSH1 0x20 ADD PUSH1 0x5 DUP3 ADD SLOAD DUP2 MSTORE PUSH1 0x20 ADD PUSH1 0x6 DUP3 ADD PUSH0 SWAP1 SLOAD SWAP1 PUSH2 0x100 EXP SWAP1 DIV PUSH1 0xFF AND PUSH1 0x5 DUP2 GT ISZERO PUSH2 0x2B43 JUMPI PUSH2 0x2B42 PUSH2 0x452B JUMP JUMPDEST JUMPDEST PUSH1 0x5 DUP2 GT ISZERO PUSH2 0x2B55 JUMPI PUSH2 0x2B54 PUSH2 0x452B JUMP JUMPDEST JUMPDEST DUP2 MSTORE PUSH1 0x20 ADD PUSH1 0x7 DUP3 ADD DUP1 SLOAD PUSH2 0x2B69 SWAP1 PUSH2 0x4AD1 JUMP JUMPDEST DUP1 PUSH1 0x1F ADD PUSH1 0x20 DUP1 SWAP2 DIV MUL PUSH1 0x20 ADD PUSH1 0x40 MLOAD SWAP1 DUP2 ADD PUSH1 0x40 MSTORE DUP1 SWAP3 SWAP2 SWAP1 DUP2 DUP2 MSTORE PUSH1 0x20 ADD DUP3 DUP1 SLOAD PUSH2 0x2B95 SWAP1 PUSH2 0x4AD1 JUMP JUMPDEST DUP1 ISZERO PUSH2 0x2BE0 JUMPI DUP1 PUSH1 0x1F LT PUSH2 0x2BB7 JUMPI PUSH2 0x100 DUP1 DUP4 SLOAD DIV MUL DUP4 MSTORE SWAP2 PUSH1 0x20 ADD SWAP2 PUSH2 0x2BE0 JUMP JUMPDEST DUP3 ADD SWAP2 SWAP1 PUSH0 MSTORE PUSH1 0x20 PUSH0 KECCAK256 SWAP1 JUMPDEST DUP2 SLOAD DUP2 MSTORE SWAP1 PUSH1 0x1 ADD SWAP1 PUSH1 0x20 ADD DUP1 DUP4 GT PUSH2 0x2BC3 JUMPI DUP3 SWAP1 SUB PUSH1 0x1F AND DUP3 ADD SWAP2 JUMPDEST POP POP POP POP POP DUP2 MSTORE PUSH1 0x20 ADD PUSH1 0x8 DUP3 ADD DUP1 SLOAD PUSH2 0x2BF9 SWAP1 PUSH2 0x4AD1 JUMP JUMPDEST DUP1 PUSH1 0x1F ADD PUSH1 0x20 DUP1 SWAP2 DIV MUL PUSH1 0x20 ADD PUSH1 0x40 MLOAD SWAP1 DUP2 ADD PUSH1 0x40 MSTORE DUP1 SWAP3 SWAP2 SWAP1 DUP2 DUP2 MSTORE PUSH1 0x20 ADD DUP3 DUP1 SLOAD PUSH2 0x2C25 SWAP1 PUSH2 0x4AD1 JUMP JUMPDEST DUP1 ISZERO PUSH2 0x2C70 JUMPI DUP1 PUSH1 0x1F LT PUSH2 0x2C47 JUMPI PUSH2 0x100 DUP1 DUP4 SLOAD DIV MUL DUP4 MSTORE SWAP2 PUSH1 0x20 ADD SWAP2 PUSH2 0x2C70 JUMP JUMPDEST DUP3 ADD SWAP2 SWAP1 PUSH0 MSTORE PUSH1 0x20 PUSH0 KECCAK256 SWAP1 JUMPDEST DUP2 SLOAD DUP2 MSTORE SWAP1 PUSH1 0x1 ADD SWAP1 PUSH1 0x20 ADD DUP1 DUP4 GT PUSH2 0x2C53 JUMPI DUP3 SWAP1 SUB PUSH1 0x1F AND DUP3 ADD SWAP2 JUMPDEST POP POP POP POP POP DUP2 MSTORE PUSH1 0x20 ADD PUSH1 0x9 DUP3 ADD SLOAD DUP2 MSTORE PUSH1 0x20 ADD PUSH1 0xA DUP3 ADD SLOAD DUP2 MSTORE PUSH1 0x20 ADD PUSH1 0xB DUP3 ADD PUSH0 SWAP1 SLOAD SWAP1 PUSH2 0x100 EXP SWAP1 DIV PUSH1 0xFF AND ISZERO ISZERO ISZERO ISZERO DUP2 MSTORE POP POP SWAP1 POP PUSH0 PUSH1 0x1 PUSH1 0x5 DUP2 GT ISZERO PUSH2 0x2CBE JUMPI PUSH2 0x2CBD PUSH2 0x452B JUMP JUMPDEST JUMPDEST DUP3 PUSH1 0xC0 ADD MLOAD PUSH1 0x5 DUP2 GT ISZERO PUSH2 0x2CD5 JUMPI PUSH2 0x2CD4 PUSH2 0x452B JUMP JUMPDEST JUMPDEST EQ DUP1 ISZERO PUSH2 0x2CE6 JUMPI POP DUP2 PUSH1 0xA0 ADD MLOAD TIMESTAMP LT ISZERO JUMPDEST SWAP1 POP PUSH0 TIMESTAMP DUP4 PUSH1 0xA0 ADD MLOAD GT PUSH2 0x2CFA JUMPI PUSH0 PUSH2 0x2D0B JUMP JUMPDEST TIMESTAMP DUP4 PUSH1 0xA0 ADD MLOAD PUSH2 0x2D0A SWAP2 SWAP1 PUSH2 0x4977 JUMP JUMPDEST JUMPDEST SWAP1 POP DUP3 PUSH1 0xC0 ADD MLOAD PUSH0 DUP5 PUSH1 0x80 ADD MLOAD GT PUSH1 0x2 PUSH1 0x5 DUP2 GT ISZERO PUSH2 0x2D2D JUMPI PUSH2 0x2D2C PUSH2 0x452B JUMP JUMPDEST JUMPDEST DUP6 PUSH1 0xC0 ADD MLOAD PUSH1 0x5 DUP2 GT ISZERO PUSH2 0x2D44 JUMPI PUSH2 0x2D43 PUSH2 0x452B JUMP JUMPDEST JUMPDEST EQ DUP1 PUSH2 0x2D78 JUMPI POP PUSH1 0x3 PUSH1 0x5 DUP2 GT ISZERO PUSH2 0x2D5F JUMPI PUSH2 0x2D5E PUSH2 0x452B JUMP JUMPDEST JUMPDEST DUP6 PUSH1 0xC0 ADD MLOAD PUSH1 0x5 DUP2 GT ISZERO PUSH2 0x2D76 JUMPI PUSH2 0x2D75 PUSH2 0x452B JUMP JUMPDEST JUMPDEST EQ JUMPDEST PUSH1 0x3 PUSH1 0x5 DUP2 GT ISZERO PUSH2 0x2D8C JUMPI PUSH2 0x2D8B PUSH2 0x452B JUMP JUMPDEST JUMPDEST DUP7 PUSH1 0xC0 ADD MLOAD PUSH1 0x5 DUP2 GT ISZERO PUSH2 0x2DA3 JUMPI PUSH2 0x2DA2 PUSH2 0x452B JUMP JUMPDEST JUMPDEST EQ DUP7 PUSH2 0x160 ADD MLOAD DUP7 DUP7 SWAP11 POP SWAP11 POP SWAP11 POP SWAP11 POP SWAP11 POP SWAP11 POP SWAP11 POP POP POP POP POP SWAP2 SWAP4 SWAP6 SWAP8 SWAP1 SWAP3 SWAP5 SWAP7 POP JUMP JUMPDEST PUSH0 PUSH0 PUSH0 PUSH0 PUSH0 PUSH0 PUSH1 0x60 DUP1 PUSH0 PUSH0 PUSH0 DUP12 PUSH1 0x2 SLOAD DUP2 LT PUSH2 0x2E1C JUMPI DUP1 PUSH1 0x40 MLOAD PUSH32 0xEE9FFCB700000000000000000000000000000000000000000000000000000000 DUP2 MSTORE PUSH1 0x4 ADD PUSH2 0x2E13 SWAP2 SWAP1 PUSH2 0x4151 JUMP JUMPDEST PUSH1 0x40 MLOAD DUP1 SWAP2 SUB SWAP1 REVERT JUMPDEST PUSH0 PUSH1 0x4 PUSH0 DUP16 DUP2 MSTORE PUSH1 0x20 ADD SWAP1 DUP2 MSTORE PUSH1 0x20 ADD PUSH0 KECCAK256 PUSH1 0x40 MLOAD DUP1 PUSH2 0x180 ADD PUSH1 0x40 MSTORE SWAP1 DUP2 PUSH0 DUP3 ADD SLOAD DUP2 MSTORE PUSH1 0x20 ADD PUSH1 0x1 DUP3 ADD PUSH0 SWAP1 SLOAD SWAP1 PUSH2 0x100 EXP SWAP1 DIV PUSH20 0xFFFFFFFFFFFFFFFFFFFFFFFFFFFFFFFFFFFFFFFF AND PUSH20 0xFFFFFFFFFFFFFFFFFFFFFFFFFFFFFFFFFFFFFFFF AND PUSH20 0xFFFFFFFFFFFFFFFFFFFFFFFFFFFFFFFFFFFFFFFF AND DUP2 MSTORE PUSH1 0x20 ADD PUSH1 0x2 DUP3 ADD PUSH0 SWAP1 SLOAD SWAP1 PUSH2 0x100 EXP SWAP1 DIV PUSH20 0xFFFFFFFFFFFFFFFFFFFFFFFFFFFFFFFFFFFFFFFF AND PUSH20 0xFFFFFFFFFFFFFFFFFFFFFFFFFFFFFFFFFFFFFFFF AND PUSH20 0xFFFFFFFFFFFFFFFFFFFFFFFFFFFFFFFFFFFFFFFF AND DUP2 MSTORE PUSH1 0x20 ADD PUSH1 0x3 DUP3 ADD PUSH0 SWAP1 SLOAD SWAP1 PUSH2 0x100 EXP SWAP1 DIV PUSH20 0xFFFFFFFFFFFFFFFFFFFFFFFFFFFFFFFFFFFFFFFF AND PUSH20 0xFFFFFFFFFFFFFFFFFFFFFFFFFFFFFFFFFFFFFFFF AND PUSH20 0xFFFFFFFFFFFFFFFFFFFFFFFFFFFFFFFFFFFFFFFF AND DUP2 MSTORE PUSH1 0x20 ADD PUSH1 0x4 DUP3 ADD SLOAD DUP2 MSTORE PUSH1 0x20 ADD PUSH1 0x5 DUP3 ADD SLOAD DUP2 MSTORE PUSH1 0x20 ADD PUSH1 0x6 DUP3 ADD PUSH0 SWAP1 SLOAD SWAP1 PUSH2 0x100 EXP SWAP1 DIV PUSH1 0xFF AND PUSH1 0x5 DUP2 GT ISZERO PUSH2 0x2F7A JUMPI PUSH2 0x2F79 PUSH2 0x452B JUMP JUMPDEST JUMPDEST PUSH1 0x5 DUP2 GT ISZERO PUSH2 0x2F8C JUMPI PUSH2 0x2F8B PUSH2 0x452B JUMP JUMPDEST JUMPDEST DUP2 MSTORE PUSH1 0x20 ADD PUSH1 0x7 DUP3 ADD DUP1 SLOAD PUSH2 0x2FA0 SWAP1 PUSH2 0x4AD1 JUMP JUMPDEST DUP1 PUSH1 0x1F ADD PUSH1 0x20 DUP1 SWAP2 DIV MUL PUSH1 0x20 ADD PUSH1 0x40 MLOAD SWAP1 DUP2 ADD PUSH1 0x40 MSTORE DUP1 SWAP3 SWAP2 SWAP1 DUP2 DUP2 MSTORE PUSH1 0x20 ADD DUP3 DUP1 SLOAD PUSH2 0x2FCC SWAP1 PUSH2 0x4AD1 JUMP JUMPDEST DUP1 ISZERO PUSH2 0x3017 JUMPI DUP1 PUSH1 0x1F LT PUSH2 0x2FEE JUMPI PUSH2 0x100 DUP1 DUP4 SLOAD DIV MUL DUP4 MSTORE SWAP2 PUSH1 0x20 ADD SWAP2 PUSH2 0x3017 JUMP JUMPDEST DUP3 ADD SWAP2 SWAP1 PUSH0 MSTORE PUSH1 0x20 PUSH0 KECCAK256 SWAP1 JUMPDEST DUP2 SLOAD DUP2 MSTORE SWAP1 PUSH1 0x1 ADD SWAP1 PUSH1 0x20 ADD DUP1 DUP4 GT PUSH2 0x2FFA JUMPI DUP3 SWAP1 SUB PUSH1 0x1F AND DUP3 ADD SWAP2 JUMPDEST POP POP POP POP POP DUP2 MSTORE PUSH1 0x20 ADD PUSH1 0x8 DUP3 ADD DUP1 SLOAD PUSH2 0x3030 SWAP1 PUSH2 0x4AD1 JUMP JUMPDEST DUP1 PUSH1 0x1F ADD PUSH1 0x20 DUP1 SWAP2 DIV MUL PUSH1 0x20 ADD PUSH1 0x40 MLOAD SWAP1 DUP2 ADD PUSH1 0x40 MSTORE DUP1 SWAP3 SWAP2 SWAP1 DUP2 DUP2 MSTORE PUSH1 0x20 ADD DUP3 DUP1 SLOAD PUSH2 0x305C SWAP1 PUSH2 0x4AD1 JUMP JUMPDEST DUP1 ISZERO PUSH2 0x30A7 JUMPI DUP1 PUSH1 0x1F LT PUSH2 0x307E JUMPI PUSH2 0x100 DUP1 DUP4 SLOAD DIV MUL DUP4 MSTORE SWAP2 PUSH1 0x20 ADD SWAP2 PUSH2 0x30A7 JUMP JUMPDEST DUP3 ADD SWAP2 SWAP1 PUSH0 MSTORE PUSH1 0x20 PUSH0 KECCAK256 SWAP1 JUMPDEST DUP2 SLOAD DUP2 MSTORE SWAP1 PUSH1 0x1 ADD SWAP1 PUSH1 0x20 ADD DUP1 DUP4 GT PUSH2 0x308A JUMPI DUP3 SWAP1 SUB PUSH1 0x1F AND DUP3 ADD SWAP2 JUMPDEST POP POP POP POP POP DUP2 MSTORE PUSH1 0x20 ADD PUSH1 0x9 DUP3 ADD SLOAD DUP2 MSTORE PUSH1 0x20 ADD PUSH1 0xA DUP3 ADD SLOAD DUP2 MSTORE PUSH1 0x20 ADD PUSH1 0xB DUP3 ADD PUSH0 SWAP1 SLOAD SWAP1 PUSH2 0x100 EXP SWAP1 DIV PUSH1 0xFF AND ISZERO ISZERO ISZERO ISZERO DUP2 MSTORE POP POP SWAP1 POP DUP1 PUSH1 0x20 ADD MLOAD DUP2 PUSH1 0x40 ADD MLOAD DUP3 PUSH1 0x60 ADD MLOAD DUP4 PUSH1 0x80 ADD MLOAD DUP5 PUSH1 0xA0 ADD MLOAD DUP6 PUSH1 0xC0 ADD MLOAD DUP7 PUSH1 0xE0 ADD MLOAD DUP8 PUSH2 0x100 ADD MLOAD DUP9 PUSH2 0x120 ADD MLOAD DUP10 PUSH2 0x140 ADD MLOAD DUP11 PUSH2 0x160 ADD MLOAD SWAP13 POP SWAP13 POP SWAP13 POP SWAP13 POP SWAP13 POP SWAP13 POP SWAP13 POP SWAP13 POP SWAP13 POP SWAP13 POP SWAP13 POP POP POP SWAP2 SWAP4 SWAP6 SWAP8 SWAP10 SWAP12 SWAP1 SWAP3 SWAP5 SWAP7 SWAP9 SWAP11 POP JUMP JUMPDEST PUSH1 0x1 SLOAD DUP2 JUMP JUMPDEST PUSH0 PUSH0 SWAP1 SLOAD SWAP1 PUSH2 0x100 EXP SWAP1 DIV PUSH20 0xFFFFFFFFFFFFFFFFFFFFFFFFFFFFFFFFFFFFFFFF AND PUSH20 0xFFFFFFFFFFFFFFFFFFFFFFFFFFFFFFFFFFFFFFFF AND CALLER PUSH20 0xFFFFFFFFFFFFFFFFFFFFFFFFFFFFFFFFFFFFFFFF AND EQ PUSH2 0x31D8 JUMPI CALLER PUSH1 0x40 MLOAD PUSH32 0x8E4A23D600000000000000000000000000000000000000000000000000000000 DUP2 MSTORE PUSH1 0x4 ADD PUSH2 0x31CF SWAP2 SWAP1 PUSH2 0x4512 JUMP JUMPDEST PUSH1 0x40 MLOAD DUP1 SWAP2 SUB SWAP1 REVERT JUMPDEST DUP2 PUSH1 0x2 SLOAD DUP2 LT PUSH2 0x321F JUMPI DUP1 PUSH1 0x40 MLOAD PUSH32 0xEE9FFCB700000000000000000000000000000000000000000000000000000000 DUP2 MSTORE PUSH1 0x4 ADD PUSH2 0x3216 SWAP2 SWAP1 PUSH2 0x4151 JUMP JUMPDEST PUSH1 0x40 MLOAD DUP1 SWAP2 SUB SWAP1 REVERT JUMPDEST PUSH1 0x1 PUSH1 0x8 SLOAD EQ PUSH2 0x325B JUMPI PUSH1 0x40 MLOAD PUSH32 0xC5F2BE5100000000000000000000000000000000000000000000000000000000 DUP2 MSTORE PUSH1 0x4 ADD PUSH1 0x40 MLOAD DUP1 SWAP2 SUB SWAP1 REVERT JUMPDEST PUSH1 0x2 PUSH1 0x8 DUP2 SWAP1 SSTORE POP PUSH0 PUSH1 0x4 PUSH0 DUP6 DUP2 MSTORE PUSH1 0x20 ADD SWAP1 DUP2 MSTORE PUSH1 0x20 ADD PUSH0 KECCAK256 SWAP1 POP PUSH1 0x5 DUP1 DUP2 GT ISZERO PUSH2 0x328A JUMPI PUSH2 0x3289 PUSH2 0x452B JUMP JUMPDEST JUMPDEST DUP2 PUSH1 0x6 ADD PUSH0 SWAP1 SLOAD SWAP1 PUSH2 0x100 EXP SWAP1 DIV PUSH1 0xFF AND PUSH1 0x5 DUP2 GT ISZERO PUSH2 0x32AD JUMPI PUSH2 0x32AC PUSH2 0x452B JUMP JUMPDEST JUMPDEST EQ PUSH2 0x3302 JUMPI DUP1 PUSH1 0x6 ADD PUSH0 SWAP1 SLOAD SWAP1 PUSH2 0x100 EXP SWAP1 DIV PUSH1 0xFF AND PUSH1 0x5 PUSH1 0x40 MLOAD PUSH32 0xF924664D00000000000000000000000000000000000000000000000000000000 DUP2 MSTORE PUSH1 0x4 ADD PUSH2 0x32F9 SWAP3 SWAP2 SWAP1 PUSH2 0x4885 JUMP JUMPDEST PUSH1 0x40 MLOAD DUP1 SWAP2 SUB SWAP1 REVERT JUMPDEST PUSH1 0x64 DUP4 PUSH1 0xFF AND GT ISZERO PUSH2 0x3340 JUMPI PUSH1 0x40 MLOAD PUSH32 0x1F3B85D300000000000000000000000000000000000000000000000000000000 DUP2 MSTORE PUSH1 0x4 ADD PUSH1 0x40 MLOAD DUP1 SWAP2 SUB SWAP1 REVERT JUMPDEST PUSH0 DUP2 PUSH1 0x4 ADD SLOAD SWAP1 POP PUSH0 PUSH1 0x64 DUP6 PUSH1 0xFF AND DUP4 PUSH2 0x335A SWAP2 SWAP1 PUSH2 0x48D9 JUMP JUMPDEST PUSH2 0x3364 SWAP2 SWAP1 PUSH2 0x4947 JUMP JUMPDEST SWAP1 POP PUSH0 DUP2 DUP4 PUSH2 0x3373 SWAP2 SWAP1 PUSH2 0x4977 JUMP JUMPDEST SWAP1 POP PUSH1 0x3 DUP5 PUSH1 0x6 ADD PUSH0 PUSH2 0x100 EXP DUP2 SLOAD DUP2 PUSH1 0xFF MUL NOT AND SWAP1 DUP4 PUSH1 0x5 DUP2 GT ISZERO PUSH2 0x339C JUMPI PUSH2 0x339B PUSH2 0x452B JUMP JUMPDEST JUMPDEST MUL OR SWAP1 SSTORE POP TIMESTAMP DUP5 PUSH1 0xA ADD DUP2 SWAP1 SSTORE POP DUP3 PUSH1 0x3 PUSH0 DUP3 DUP3 SLOAD PUSH2 0x33BB SWAP2 SWAP1 PUSH2 0x4977 JUMP JUMPDEST SWAP3 POP POP DUP2 SWAP1 SSTORE POP PUSH0 DUP3 GT ISZERO PUSH2 0x348E JUMPI PUSH0 DUP5 PUSH1 0x2 ADD PUSH0 SWAP1 SLOAD SWAP1 PUSH2 0x100 EXP SWAP1 DIV PUSH20 0xFFFFFFFFFFFFFFFFFFFFFFFFFFFFFFFFFFFFFFFF AND PUSH20 0xFFFFFFFFFFFFFFFFFFFFFFFFFFFFFFFFFFFFFFFF AND DUP4 PUSH1 0x40 MLOAD PUSH2 0x3412 SWAP1 PUSH2 0x49D7 JUMP JUMPDEST PUSH0 PUSH1 0x40 MLOAD DUP1 DUP4 SUB DUP2 DUP6 DUP8 GAS CALL SWAP3 POP POP POP RETURNDATASIZE DUP1 PUSH0 DUP2 EQ PUSH2 0x344C JUMPI PUSH1 0x40 MLOAD SWAP2 POP PUSH1 0x1F NOT PUSH1 0x3F RETURNDATASIZE ADD AND DUP3 ADD PUSH1 0x40 MSTORE RETURNDATASIZE DUP3 MSTORE RETURNDATASIZE PUSH0 PUSH1 0x20 DUP5 ADD RETURNDATACOPY PUSH2 0x3451 JUMP JUMPDEST PUSH1 0x60 SWAP2 POP JUMPDEST POP POP SWAP1 POP DUP1 PUSH2 0x348C JUMPI PUSH1 0x40 MLOAD PUSH32 0x90B8EC1800000000000000000000000000000000000000000000000000000000 DUP2 MSTORE PUSH1 0x4 ADD PUSH1 0x40 MLOAD DUP1 SWAP2 SUB SWAP1 REVERT JUMPDEST POP JUMPDEST PUSH0 DUP2 GT ISZERO PUSH2 0x355A JUMPI PUSH0 DUP5 PUSH1 0x1 ADD PUSH0 SWAP1 SLOAD SWAP1 PUSH2 0x100 EXP SWAP1 DIV PUSH20 0xFFFFFFFFFFFFFFFFFFFFFFFFFFFFFFFFFFFFFFFF AND PUSH20 0xFFFFFFFFFFFFFFFFFFFFFFFFFFFFFFFFFFFFFFFF AND DUP3 PUSH1 0x40 MLOAD PUSH2 0x34DE SWAP1 PUSH2 0x49D7 JUMP JUMPDEST PUSH0 PUSH1 0x40 MLOAD DUP1 DUP4 SUB DUP2 DUP6 DUP8 GAS CALL SWAP3 POP POP POP RETURNDATASIZE DUP1 PUSH0 DUP2 EQ PUSH2 0x3518 JUMPI PUSH1 0x40 MLOAD SWAP2 POP PUSH1 0x1F NOT PUSH1 0x3F RETURNDATASIZE ADD AND DUP3 ADD PUSH1 0x40 MSTORE RETURNDATASIZE DUP3 MSTORE RETURNDATASIZE PUSH0 PUSH1 0x20 DUP5 ADD RETURNDATACOPY PUSH2 0x351D JUMP JUMPDEST PUSH1 0x60 SWAP2 POP JUMPDEST POP POP SWAP1 POP DUP1 PUSH2 0x3558 JUMPI PUSH1 0x40 MLOAD PUSH32 0x90B8EC1800000000000000000000000000000000000000000000000000000000 DUP2 MSTORE PUSH1 0x4 ADD PUSH1 0x40 MLOAD DUP1 SWAP2 SUB SWAP1 REVERT JUMPDEST POP JUMPDEST DUP7 PUSH32 0x3ACCDF79205B59D18E690F066707CAF6D0EE4D4F59DED4FA88FDEC5DDE4ACCD9 CALLER PUSH1 0x32 DUP10 PUSH1 0xFF AND GT DUP6 DUP6 PUSH1 0x40 MLOAD PUSH2 0x3596 SWAP5 SWAP4 SWAP3 SWAP2 SWAP1 PUSH2 0x4F8C JUMP JUMPDEST PUSH1 0x40 MLOAD DUP1 SWAP2 SUB SWAP1 LOG2 POP POP POP POP PUSH1 0x1 PUSH1 0x8 DUP2 SWAP1 SSTORE POP POP POP POP JUMP JUMPDEST DUP1 PUSH1 0x2 SLOAD DUP2 LT PUSH2 0x35F6 JUMPI DUP1 PUSH1 0x40 MLOAD PUSH32 0xEE9FFCB700000000000000000000000000000000000000000000000000000000 DUP2 MSTORE PUSH1 0x4 ADD PUSH2 0x35ED SWAP2 SWAP1 PUSH2 0x4151 JUMP JUMPDEST PUSH1 0x40 MLOAD DUP1 SWAP2 SUB SWAP1 REVERT JUMPDEST DUP2 CALLER PUSH20 0xFFFFFFFFFFFFFFFFFFFFFFFFFFFFFFFFFFFFFFFF AND PUSH1 0x4 PUSH0 DUP4 DUP2 MSTORE PUSH1 0x20 ADD SWAP1 DUP2 MSTORE PUSH1 0x20 ADD PUSH0 KECCAK256 PUSH1 0x1 ADD PUSH0 SWAP1 SLOAD SWAP1 PUSH2 0x100 EXP SWAP1 DIV PUSH20 0xFFFFFFFFFFFFFFFFFFFFFFFFFFFFFFFFFFFFFFFF AND PUSH20 0xFFFFFFFFFFFFFFFFFFFFFFFFFFFFFFFFFFFFFFFF AND EQ PUSH2 0x369A JUMPI CALLER PUSH1 0x40 MLOAD PUSH32 0x8E4A23D600000000000000000000000000000000000000000000000000000000 DUP2 MSTORE PUSH1 0x4 ADD PUSH2 0x3691 SWAP2 SWAP1 PUSH2 0x4512 JUMP JUMPDEST PUSH1 0x40 MLOAD DUP1 SWAP2 SUB SWAP1 REVERT JUMPDEST PUSH1 0x1 PUSH1 0x8 SLOAD EQ PUSH2 0x36D6 JUMPI PUSH1 0x40 MLOAD PUSH32 0xC5F2BE5100000000000000000000000000000000000000000000000000000000 DUP2 MSTORE PUSH1 0x4 ADD PUSH1 0x40 MLOAD DUP1 SWAP2 SUB SWAP1 REVERT JUMPDEST PUSH1 0x2 PUSH1 0x8 DUP2 SWAP1 SSTORE POP PUSH0 PUSH1 0x4 PUSH0 DUP6 DUP2 MSTORE PUSH1 0x20 ADD SWAP1 DUP2 MSTORE PUSH1 0x20 ADD PUSH0 KECCAK256 SWAP1 POP PUSH0 PUSH1 0x5 DUP2 GT ISZERO PUSH2 0x3705 JUMPI PUSH2 0x3704 PUSH2 0x452B JUMP JUMPDEST JUMPDEST DUP2 PUSH1 0x6 ADD PUSH0 SWAP1 SLOAD SWAP1 PUSH2 0x100 EXP SWAP1 DIV PUSH1 0xFF AND PUSH1 0x5 DUP2 GT ISZERO PUSH2 0x3728 JUMPI PUSH2 0x3727 PUSH2 0x452B JUMP JUMPDEST JUMPDEST EQ PUSH2 0x377C JUMPI DUP1 PUSH1 0x6 ADD PUSH0 SWAP1 SLOAD SWAP1 PUSH2 0x100 EXP SWAP1 DIV PUSH1 0xFF AND PUSH0 PUSH1 0x40 MLOAD PUSH32 0xF924664D00000000000000000000000000000000000000000000000000000000 DUP2 MSTORE PUSH1 0x4 ADD PUSH2 0x3773 SWAP3 SWAP2 SWAP1 PUSH2 0x4885 JUMP JUMPDEST PUSH1 0x40 MLOAD DUP1 SWAP2 SUB SWAP1 REVERT JUMPDEST PUSH0 CALLVALUE SUB PUSH2 0x37B5 JUMPI PUSH1 0x40 MLOAD PUSH32 0x2C5211C600000000000000000000000000000000000000000000000000000000 DUP2 MSTORE PUSH1 0x4 ADD PUSH1 0x40 MLOAD DUP1 SWAP2 SUB SWAP1 REVERT JUMPDEST PUSH0 DUP2 PUSH1 0x4 ADD SLOAD GT ISZERO PUSH2 0x37F3 JUMPI PUSH1 0x40 MLOAD PUSH32 0x5ADF638700000000000000000000000000000000000000000000000000000000 DUP2 MSTORE PUSH1 0x4 ADD PUSH1 0x40 MLOAD DUP1 SWAP2 SUB SWAP1 REVERT JUMPDEST CALLVALUE DUP2 PUSH1 0x4 ADD DUP2 SWAP1 SSTORE POP PUSH1 0x1 DUP2 PUSH1 0x6 ADD PUSH0 PUSH2 0x100 EXP DUP2 SLOAD DUP2 PUSH1 0xFF MUL NOT AND SWAP1 DUP4 PUSH1 0x5 DUP2 GT ISZERO PUSH2 0x3823 JUMPI PUSH2 0x3822 PUSH2 0x452B JUMP JUMPDEST JUMPDEST MUL OR SWAP1 SSTORE POP CALLVALUE PUSH1 0x3 PUSH0 DUP3 DUP3 SLOAD PUSH2 0x3839 SWAP2 SWAP1 PUSH2 0x4A67 JUMP JUMPDEST SWAP3 POP POP DUP2 SWAP1 SSTORE POP DUP4 PUSH32 0xF984C0F6B056FE16B28046E36FCAFA84A00D503F88F1D0AFA768E4C206192B80 CALLVALUE DUP4 PUSH1 0x5 ADD SLOAD PUSH1 0x40 MLOAD PUSH2 0x3876 SWAP3 SWAP2 SWAP1 PUSH2 0x49EB JUMP JUMPDEST PUSH1 0x40 MLOAD DUP1 SWAP2 SUB SWAP1 LOG2 POP PUSH1 0x1 PUSH1 0x8 DUP2 SWAP1 SSTORE POP POP POP POP JUMP JUMPDEST PUSH1 0x3 SLOAD DUP2 JUMP JUMPDEST PUSH1 0xA PUSH0 SWAP1 SLOAD SWAP1 PUSH2 0x100 EXP SWAP1 DIV PUSH20 0xFFFFFFFFFFFFFFFFFFFFFFFFFFFFFFFFFFFFFFFF AND DUP2 JUMP JUMPDEST DUP1 PUSH1 0x2 SLOAD DUP2 LT PUSH2 0x38FE JUMPI DUP1 PUSH1 0x40 MLOAD PUSH32 0xEE9FFCB700000000000000000000000000000000000000000000000000000000 DUP2 MSTORE PUSH1 0x4 ADD PUSH2 0x38F5 SWAP2 SWAP1 PUSH2 0x4151 JUMP JUMPDEST PUSH1 0x40 MLOAD DUP1 SWAP2 SUB SWAP1 REVERT JUMPDEST PUSH1 0x1 PUSH1 0x8 SLOAD EQ PUSH2 0x393A JUMPI PUSH1 0x40 MLOAD PUSH32 0xC5F2BE5100000000000000000000000000000000000000000000000000000000 DUP2 MSTORE PUSH1 0x4 ADD PUSH1 0x40 MLOAD DUP1 SWAP2 SUB SWAP1 REVERT JUMPDEST PUSH1 0x2 PUSH1 0x8 DUP2 SWAP1 SSTORE POP PUSH0 PUSH1 0x4 PUSH0 DUP5 DUP2 MSTORE PUSH1 0x20 ADD SWAP1 DUP2 MSTORE PUSH1 0x20 ADD PUSH0 KECCAK256 SWAP1 POP PUSH1 0x1 PUSH1 0x5 DUP2 GT ISZERO PUSH2 0x396A JUMPI PUSH2 0x3969 PUSH2 0x452B JUMP JUMPDEST JUMPDEST DUP2 PUSH1 0x6 ADD PUSH0 SWAP1 SLOAD SWAP1 PUSH2 0x100 EXP SWAP1 DIV PUSH1 0xFF AND PUSH1 0x5 DUP2 GT ISZERO PUSH2 0x398D JUMPI PUSH2 0x398C PUSH2 0x452B JUMP JUMPDEST JUMPDEST EQ PUSH2 0x39E2 JUMPI DUP1 PUSH1 0x6 ADD PUSH0 SWAP1 SLOAD SWAP1 PUSH2 0x100 EXP SWAP1 DIV PUSH1 0xFF AND PUSH1 0x1 PUSH1 0x40 MLOAD PUSH32 0xF924664D00000000000000000000000000000000000000000000000000000000 DUP2 MSTORE PUSH1 0x4 ADD PUSH2 0x39D9 SWAP3 SWAP2 SWAP1 PUSH2 0x4885 JUMP JUMPDEST PUSH1 0x40 MLOAD DUP1 SWAP2 SUB SWAP1 REVERT JUMPDEST DUP1 PUSH1 0x5 ADD SLOAD TIMESTAMP GT PUSH2 0x3A1F JUMPI PUSH1 0x40 MLOAD PUSH32 0x2EB3543000000000000000000000000000000000000000000000000000000000 DUP2 MSTORE PUSH1 0x4 ADD PUSH1 0x40 MLOAD DUP1 SWAP2 SUB SWAP1 REVERT JUMPDEST DUP1 PUSH1 0xB ADD PUSH0 SWAP1 SLOAD SWAP1 PUSH2 0x100 EXP SWAP1 DIV PUSH1 0xFF AND ISZERO PUSH2 0x3A67 JUMPI PUSH1 0x40 MLOAD PUSH32 0xA85E6F1A00000000000000000000000000000000000000000000000000000000 DUP2 MSTORE PUSH1 0x4 ADD PUSH1 0x40 MLOAD DUP1 SWAP2 SUB SWAP1 REVERT JUMPDEST PUSH0 DUP2 PUSH1 0x4 ADD SLOAD SWAP1 POP PUSH1 0x4 DUP3 PUSH1 0x6 ADD PUSH0 PUSH2 0x100 EXP DUP2 SLOAD DUP2 PUSH1 0xFF MUL NOT AND SWAP1 DUP4 PUSH1 0x5 DUP2 GT ISZERO PUSH2 0x3A96 JUMPI PUSH2 0x3A95 PUSH2 0x452B JUMP JUMPDEST JUMPDEST MUL OR SWAP1 SSTORE POP PUSH1 0x1 DUP3 PUSH1 0xB ADD PUSH0 PUSH2 0x100 EXP DUP2 SLOAD DUP2 PUSH1 0xFF MUL NOT AND SWAP1 DUP4 ISZERO ISZERO MUL OR SWAP1 SSTORE POP DUP1 PUSH1 0x3 PUSH0 DUP3 DUP3 SLOAD PUSH2 0x3AC8 SWAP2 SWAP1 PUSH2 0x4977 JUMP JUMPDEST SWAP3 POP POP DUP2 SWAP1 SSTORE POP PUSH0 DUP3 PUSH1 0x1 ADD PUSH0 SWAP1 SLOAD SWAP1 PUSH2 0x100 EXP SWAP1 DIV PUSH20 0xFFFFFFFFFFFFFFFFFFFFFFFFFFFFFFFFFFFFFFFF AND PUSH20 0xFFFFFFFFFFFFFFFFFFFFFFFFFFFFFFFFFFFFFFFF AND DUP3 PUSH1 0x40 MLOAD PUSH2 0x3B17 SWAP1 PUSH2 0x49D7 JUMP JUMPDEST PUSH0 PUSH1 0x40 MLOAD DUP1 DUP4 SUB DUP2 DUP6 DUP8 GAS CALL SWAP3 POP POP POP RETURNDATASIZE DUP1 PUSH0 DUP2 EQ PUSH2 0x3B51 JUMPI PUSH1 0x40 MLOAD SWAP2 POP PUSH1 0x1F NOT PUSH1 0x3F RETURNDATASIZE ADD AND DUP3 ADD PUSH1 0x40 MSTORE RETURNDATASIZE DUP3 MSTORE RETURNDATASIZE PUSH0 PUSH1 0x20 DUP5 ADD RETURNDATACOPY PUSH2 0x3B56 JUMP JUMPDEST PUSH1 0x60 SWAP2 POP JUMPDEST POP POP SWAP1 POP DUP1 PUSH2 0x3B91 JUMPI PUSH1 0x40 MLOAD PUSH32 0x90B8EC1800000000000000000000000000000000000000000000000000000000 DUP2 MSTORE PUSH1 0x4 ADD PUSH1 0x40 MLOAD DUP1 SWAP2 SUB SWAP1 REVERT JUMPDEST DUP3 PUSH1 0x1 ADD PUSH0 SWAP1 SLOAD SWAP1 PUSH2 0x100 EXP SWAP1 DIV PUSH20 0xFFFFFFFFFFFFFFFFFFFFFFFFFFFFFFFFFFFFFFFF AND PUSH20 0xFFFFFFFFFFFFFFFFFFFFFFFFFFFFFFFFFFFFFFFF AND DUP6 PUSH32 0x1866A9BDAC25BB7CBF867A60C0E9008732AC88DA2EC6BF1D87641A09D38128B6 DUP5 PUSH1 0x40 MLOAD PUSH2 0x3BFB SWAP2 SWAP1 PUSH2 0x4151 JUMP JUMPDEST PUSH1 0x40 MLOAD DUP1 SWAP2 SUB SWAP1 LOG3 POP POP POP PUSH1 0x1 PUSH1 0x8 DUP2 SWAP1 SSTORE POP POP POP JUMP JUMPDEST PUSH0 PUSH1 0x5 PUSH0 DUP4 PUSH20 0xFFFFFFFFFFFFFFFFFFFFFFFFFFFFFFFFFFFFFFFF AND PUSH20 0xFFFFFFFFFFFFFFFFFFFFFFFFFFFFFFFFFFFFFFFF AND DUP2 MSTORE PUSH1 0x20 ADD SWAP1 DUP2 MSTORE PUSH1 0x20 ADD PUSH0 KECCAK256 DUP1 SLOAD DUP1 PUSH1 0x20 MUL PUSH1 0x20 ADD PUSH1 0x40 MLOAD SWAP1 DUP2 ADD PUSH1 0x40 MSTORE DUP1 SWAP3 SWAP2 SWAP1 DUP2 DUP2 MSTORE PUSH1 0x20 ADD DUP3 DUP1 SLOAD DUP1 ISZERO PUSH2 0x3C98 JUMPI PUSH1 0x20 MUL DUP3 ADD SWAP2 SWAP1 PUSH0 MSTORE PUSH1 0x20 PUSH0 KECCAK256 SWAP1 JUMPDEST DUP2 SLOAD DUP2 MSTORE PUSH1 0x20 ADD SWAP1 PUSH1 0x1 ADD SWAP1 DUP1 DUP4 GT PUSH2 0x3C84 JUMPI JUMPDEST POP POP POP POP POP SWAP1 POP PUSH0 DUP2 MLOAD GT ISZERO PUSH2 0x3DFA JUMPI PUSH0 PUSH0 SWAP1 POP PUSH0 PUSH1 0x64 DUP4 MLOAD GT PUSH2 0x3CBD JUMPI DUP3 MLOAD PUSH2 0x3CC0 JUMP JUMPDEST PUSH1 0x64 JUMPDEST SWAP1 POP PUSH0 PUSH0 SWAP1 POP JUMPDEST DUP2 DUP2 LT ISZERO PUSH2 0x3D51 JUMPI PUSH1 0x3 PUSH1 0x5 DUP2 GT ISZERO PUSH2 0x3CE3 JUMPI PUSH2 0x3CE2 PUSH2 0x452B JUMP JUMPDEST JUMPDEST PUSH1 0x4 PUSH0 DUP7 DUP5 DUP2 MLOAD DUP2 LT PUSH2 0x3CF9 JUMPI PUSH2 0x3CF8 PUSH2 0x4FCF JUMP JUMPDEST JUMPDEST PUSH1 0x20 MUL PUSH1 0x20 ADD ADD MLOAD DUP2 MSTORE PUSH1 0x20 ADD SWAP1 DUP2 MSTORE PUSH1 0x20 ADD PUSH0 KECCAK256 PUSH1 0x6 ADD PUSH0 SWAP1 SLOAD SWAP1 PUSH2 0x100 EXP SWAP1 DIV PUSH1 0xFF AND PUSH1 0x5 DUP2 GT ISZERO PUSH2 0x3D30 JUMPI PUSH2 0x3D2F PUSH2 0x452B JUMP JUMPDEST JUMPDEST SUB PUSH2 0x3D44 JUMPI DUP3 DUP1 PUSH2 0x3D40 SWAP1 PUSH2 0x4ED0 JUMP JUMPDEST SWAP4 POP POP JUMPDEST DUP1 DUP1 PUSH1 0x1 ADD SWAP2 POP POP PUSH2 0x3CC7 JUMP JUMPDEST POP PUSH0 DUP2 PUSH1 0x64 DUP5 PUSH2 0x3D61 SWAP2 SWAP1 PUSH2 0x48D9 JUMP JUMPDEST PUSH2 0x3D6B SWAP2 SWAP1 PUSH2 0x4947 JUMP JUMPDEST SWAP1 POP PUSH1 0x9 PUSH0 SWAP1 SLOAD SWAP1 PUSH2 0x100 EXP SWAP1 DIV PUSH20 0xFFFFFFFFFFFFFFFFFFFFFFFFFFFFFFFFFFFFFFFF AND PUSH20 0xFFFFFFFFFFFFFFFFFFFFFFFFFFFFFFFFFFFFFFFF AND PUSH4 0xF5C91A08 DUP7 DUP4 PUSH1 0x40 MLOAD DUP4 PUSH4 0xFFFFFFFF AND PUSH1 0xE0 SHL DUP2 MSTORE PUSH1 0x4 ADD PUSH2 0x3DC9 SWAP3 SWAP2 SWAP1 PUSH2 0x4FFC JUMP JUMPDEST PUSH0 PUSH1 0x40 MLOAD DUP1 DUP4 SUB DUP2 PUSH0 DUP8 DUP1 EXTCODESIZE ISZERO DUP1 ISZERO PUSH2 0x3DE0 JUMPI PUSH0 PUSH0 REVERT JUMPDEST POP GAS CALL ISZERO DUP1 ISZERO PUSH2 0x3DF2 JUMPI RETURNDATASIZE PUSH0 PUSH0 RETURNDATACOPY RETURNDATASIZE PUSH0 REVERT JUMPDEST POP POP POP POP POP POP POP JUMPDEST POP POP JUMP JUMPDEST PUSH0 DUP3 DUP3 MSTORE PUSH1 0x20 DUP3 ADD SWAP1 POP SWAP3 SWAP2 POP POP JUMP JUMPDEST PUSH32 0x55736520637265617465416E6446756E645472616E736665722829206F722066 PUSH0 DUP3 ADD MSTORE PUSH32 0x756E645472616E73666572282900000000000000000000000000000000000000 PUSH1 0x20 DUP3 ADD MSTORE POP JUMP JUMPDEST PUSH0 PUSH2 0x3E68 PUSH1 0x2D DUP4 PUSH2 0x3DFE JUMP JUMPDEST SWAP2 POP PUSH2 0x3E73 DUP3 PUSH2 0x3E0E JUMP JUMPDEST PUSH1 0x40 DUP3 ADD SWAP1 POP SWAP2 SWAP1 POP JUMP JUMPDEST PUSH0 PUSH1 0x20 DUP3 ADD SWAP1 POP DUP2 DUP2 SUB PUSH0 DUP4 ADD MSTORE PUSH2 0x3E95 DUP2 PUSH2 0x3E5C JUMP JUMPDEST SWAP1 POP SWAP2 SWAP1 POP JUMP JUMPDEST PUSH32 0x496E76616C69642066756E6374696F6E2063616C6C0000000000000000000000 PUSH0 DUP3 ADD MSTORE POP JUMP JUMPDEST PUSH0 PUSH2 0x3ED0 PUSH1 0x15 DUP4 PUSH2 0x3DFE JUMP JUMPDEST SWAP2 POP PUSH2 0x3EDB DUP3 PUSH2 0x3E9C JUMP JUMPDEST PUSH1 0x20 DUP3 ADD SWAP1 POP SWAP2 SWAP1 POP JUMP JUMPDEST PUSH0 PUSH1 0x20 DUP3 ADD SWAP1 POP DUP2 DUP2 SUB PUSH0 DUP4 ADD MSTORE PUSH2 0x3EFD DUP2 PUSH2 0x3EC4 JUMP JUMPDEST SWAP1 POP SWAP2 SWAP1 POP JUMP JUMPDEST PUSH0 PUSH1 0x40 MLOAD SWAP1 POP SWAP1 JUMP JUMPDEST PUSH0 PUSH0 REVERT JUMPDEST PUSH0 PUSH0 REVERT JUMPDEST PUSH0 PUSH20 0xFFFFFFFFFFFFFFFFFFFFFFFFFFFFFFFFFFFFFFFF DUP3 AND SWAP1 POP SWAP2 SWAP1 POP JUMP JUMPDEST PUSH0 PUSH2 0x3F3E DUP3 PUSH2 0x3F15 JUMP JUMPDEST SWAP1 POP SWAP2 SWAP1 POP JUMP JUMPDEST PUSH2 0x3F4E DUP2 PUSH2 0x3F34 JUMP JUMPDEST DUP2 EQ PUSH2 0x3F58 JUMPI PUSH0 PUSH0 REVERT JUMPDEST POP JUMP JUMPDEST PUSH0 DUP2 CALLDATALOAD SWAP1 POP PUSH2 0x3F69 DUP2 PUSH2 0x3F45 JUMP JUMPDEST SWAP3 SWAP2 POP POP JUMP JUMPDEST PUSH0 PUSH1 0x20 DUP3 DUP5 SUB SLT ISZERO PUSH2 0x3F84 JUMPI PUSH2 0x3F83 PUSH2 0x3F0D JUMP JUMPDEST JUMPDEST PUSH0 PUSH2 0x3F91 DUP5 DUP3 DUP6 ADD PUSH2 0x3F5B JUMP JUMPDEST SWAP2 POP POP SWAP3 SWAP2 POP POP JUMP JUMPDEST PUSH0 DUP2 MLOAD SWAP1 POP SWAP2 SWAP1 POP JUMP JUMPDEST PUSH0 DUP3 DUP3 MSTORE PUSH1 0x20 DUP3 ADD SWAP1 POP SWAP3 SWAP2 POP POP JUMP JUMPDEST PUSH0 DUP2 SWAP1 POP PUSH1 0x20 DUP3 ADD SWAP1 POP SWAP2 SWAP1 POP JUMP JUMPDEST PUSH0 DUP2 SWAP1 POP SWAP2 SWAP1 POP JUMP JUMPDEST PUSH2 0x3FD5 DUP2 PUSH2 0x3FC3 JUMP JUMPDEST DUP3 MSTORE POP POP JUMP JUMPDEST PUSH0 PUSH2 0x3FE6 DUP4 DUP4 PUSH2 0x3FCC JUMP JUMPDEST PUSH1 0x20 DUP4 ADD SWAP1 POP SWAP3 SWAP2 POP POP JUMP JUMPDEST PUSH0 PUSH1 0x20 DUP3 ADD SWAP1 POP SWAP2 SWAP1 POP JUMP JUMPDEST PUSH0 PUSH2 0x4008 DUP3 PUSH2 0x3F9A JUMP JUMPDEST PUSH2 0x4012 DUP2 DUP6 PUSH2 0x3FA4 JUMP JUMPDEST SWAP4 POP PUSH2 0x401D DUP4 PUSH2 0x3FB4 JUMP JUMPDEST DUP1 PUSH0 JUMPDEST DUP4 DUP2 LT ISZERO PUSH2 0x404D JUMPI DUP2 MLOAD PUSH2 0x4034 DUP9 DUP3 PUSH2 0x3FDB JUMP JUMPDEST SWAP8 POP PUSH2 0x403F DUP4 PUSH2 0x3FF2 JUMP JUMPDEST SWAP3 POP POP PUSH1 0x1 DUP2 ADD SWAP1 POP PUSH2 0x4020 JUMP JUMPDEST POP DUP6 SWAP4 POP POP POP POP SWAP3 SWAP2 POP POP JUMP JUMPDEST PUSH0 PUSH1 0x20 DUP3 ADD SWAP1 POP DUP2 DUP2 SUB PUSH0 DUP4 ADD MSTORE PUSH2 0x4072 DUP2 DUP5 PUSH2 0x3FFE JUMP JUMPDEST SWAP1 POP SWAP3 SWAP2 POP POP JUMP JUMPDEST PUSH2 0x4083 DUP2 PUSH2 0x3FC3 JUMP JUMPDEST DUP3 MSTORE POP POP JUMP JUMPDEST PUSH0 PUSH1 0x60 DUP3 ADD SWAP1 POP PUSH2 0x409C PUSH0 DUP4 ADD DUP7 PUSH2 0x407A JUMP JUMPDEST PUSH2 0x40A9 PUSH1 0x20 DUP4 ADD DUP6 PUSH2 0x407A JUMP JUMPDEST PUSH2 0x40B6 PUSH1 0x40 DUP4 ADD DUP5 PUSH2 0x407A JUMP JUMPDEST SWAP5 SWAP4 POP POP POP POP JUMP JUMPDEST PUSH2 0x40C7 DUP2 PUSH2 0x3FC3 JUMP JUMPDEST DUP2 EQ PUSH2 0x40D1 JUMPI PUSH0 PUSH0 REVERT JUMPDEST POP JUMP JUMPDEST PUSH0 DUP2 CALLDATALOAD SWAP1 POP PUSH2 0x40E2 DUP2 PUSH2 0x40BE JUMP JUMPDEST SWAP3 SWAP2 POP POP JUMP JUMPDEST PUSH0 PUSH1 0x20 DUP3 DUP5 SUB SLT ISZERO PUSH2 0x40FD JUMPI PUSH2 0x40FC PUSH2 0x3F0D JUMP JUMPDEST JUMPDEST PUSH0 PUSH2 0x410A DUP5 DUP3 DUP6 ADD PUSH2 0x40D4 JUMP JUMPDEST SWAP2 POP POP SWAP3 SWAP2 POP POP JUMP JUMPDEST PUSH0 PUSH0 PUSH1 0x40 DUP4 DUP6 SUB SLT ISZERO PUSH2 0x4129 JUMPI PUSH2 0x4128 PUSH2 0x3F0D JUMP JUMPDEST JUMPDEST PUSH0 PUSH2 0x4136 DUP6 DUP3 DUP7 ADD PUSH2 0x3F5B JUMP JUMPDEST SWAP3 POP POP PUSH1 0x20 PUSH2 0x4147 DUP6 DUP3 DUP7 ADD PUSH2 0x40D4 JUMP JUMPDEST SWAP2 POP POP SWAP3 POP SWAP3 SWAP1 POP JUMP JUMPDEST PUSH0 PUSH1 0x20 DUP3 ADD SWAP1 POP PUSH2 0x4164 PUSH0 DUP4 ADD DUP5 PUSH2 0x407A JUMP JUMPDEST SWAP3 SWAP2 POP POP JUMP JUMPDEST PUSH0 DUP2 ISZERO ISZERO SWAP1 POP SWAP2 SWAP1 POP JUMP JUMPDEST PUSH2 0x417E DUP2 PUSH2 0x416A JUMP JUMPDEST DUP3 MSTORE POP POP JUMP JUMPDEST PUSH0 PUSH1 0x20 DUP3 ADD SWAP1 POP PUSH2 0x4197 PUSH0 DUP4 ADD DUP5 PUSH2 0x4175 JUMP JUMPDEST SWAP3 SWAP2 POP POP JUMP JUMPDEST PUSH0 PUSH0 PUSH1 0x40 DUP4 DUP6 SUB SLT ISZERO PUSH2 0x41B3 JUMPI PUSH2 0x41B2 PUSH2 0x3F0D JUMP JUMPDEST JUMPDEST PUSH0 PUSH2 0x41C0 DUP6 DUP3 DUP7 ADD PUSH2 0x40D4 JUMP JUMPDEST SWAP3 POP POP PUSH1 0x20 PUSH2 0x41D1 DUP6 DUP3 DUP7 ADD PUSH2 0x40D4 JUMP JUMPDEST SWAP2 POP POP SWAP3 POP SWAP3 SWAP1 POP JUMP JUMPDEST PUSH0 PUSH0 REVERT JUMPDEST PUSH0 PUSH0 REVERT JUMPDEST PUSH0 PUSH0 REVERT JUMPDEST PUSH0 PUSH0 DUP4 PUSH1 0x1F DUP5 ADD SLT PUSH2 0x41FC JUMPI PUSH2 0x41FB PUSH2 0x41DB JUMP JUMPDEST JUMPDEST DUP3 CALLDATALOAD SWAP1 POP PUSH8 0xFFFFFFFFFFFFFFFF DUP2 GT ISZERO PUSH2 0x4219 JUMPI PUSH2 0x4218 PUSH2 0x41DF JUMP JUMPDEST JUMPDEST PUSH1 0x20 DUP4 ADD SWAP2 POP DUP4 PUSH1 0x1 DUP3 MUL DUP4 ADD GT ISZERO PUSH2 0x4235 JUMPI PUSH2 0x4234 PUSH2 0x41E3 JUMP JUMPDEST JUMPDEST SWAP3 POP SWAP3 SWAP1 POP JUMP JUMPDEST PUSH0 PUSH0 PUSH0 PUSH1 0x40 DUP5 DUP7 SUB SLT ISZERO PUSH2 0x4253 JUMPI PUSH2 0x4252 PUSH2 0x3F0D JUMP JUMPDEST JUMPDEST PUSH0 PUSH2 0x4260 DUP7 DUP3 DUP8 ADD PUSH2 0x40D4 JUMP JUMPDEST SWAP4 POP POP PUSH1 0x20 DUP5 ADD CALLDATALOAD PUSH8 0xFFFFFFFFFFFFFFFF DUP2 GT ISZERO PUSH2 0x4281 JUMPI PUSH2 0x4280 PUSH2 0x3F11 JUMP JUMPDEST JUMPDEST PUSH2 0x428D DUP7 DUP3 DUP8 ADD PUSH2 0x41E7 JUMP JUMPDEST SWAP3 POP SWAP3 POP POP SWAP3 POP SWAP3 POP SWAP3 JUMP JUMPDEST PUSH0 PUSH0 PUSH1 0x40 DUP4 DUP6 SUB SLT ISZERO PUSH2 0x42AF JUMPI PUSH2 0x42AE PUSH2 0x3F0D JUMP JUMPDEST JUMPDEST PUSH0 PUSH2 0x42BC DUP6 DUP3 DUP7 ADD PUSH2 0x40D4 JUMP JUMPDEST SWAP3 POP POP PUSH1 0x20 PUSH2 0x42CD DUP6 DUP3 DUP7 ADD PUSH2 0x3F5B JUMP JUMPDEST SWAP2 POP POP SWAP3 POP SWAP3 SWAP1 POP JUMP JUMPDEST PUSH0 DUP2 SWAP1 POP SWAP2 SWAP1 POP JUMP JUMPDEST PUSH0 PUSH2 0x42FA PUSH2 0x42F5 PUSH2 0x42F0 DUP5 PUSH2 0x3F15 JUMP JUMPDEST PUSH2 0x42D7 JUMP JUMPDEST PUSH2 0x3F15 JUMP JUMPDEST SWAP1 POP SWAP2 SWAP1 POP JUMP JUMPDEST PUSH0 PUSH2 0x430B DUP3 PUSH2 0x42E0 JUMP JUMPDEST SWAP1 POP SWAP2 SWAP1 POP JUMP JUMPDEST PUSH0 PUSH2 0x431C DUP3 PUSH2 0x4301 JUMP JUMPDEST SWAP1 POP SWAP2 SWAP1 POP JUMP JUMPDEST PUSH2 0x432C DUP2 PUSH2 0x4312 JUMP JUMPDEST DUP3 MSTORE POP POP JUMP JUMPDEST PUSH0 PUSH1 0x20 DUP3 ADD SWAP1 POP PUSH2 0x4345 PUSH0 DUP4 ADD DUP5 PUSH2 0x4323 JUMP JUMPDEST SWAP3 SWAP2 POP POP JUMP JUMPDEST PUSH0 PUSH0 REVERT JUMPDEST PUSH0 PUSH1 0x1F NOT PUSH1 0x1F DUP4 ADD AND SWAP1 POP SWAP2 SWAP1 POP JUMP JUMPDEST PUSH32 0x4E487B7100000000000000000000000000000000000000000000000000000000 PUSH0 MSTORE PUSH1 0x41 PUSH1 0x4 MSTORE PUSH1 0x24 PUSH0 REVERT JUMPDEST PUSH2 0x4395 DUP3 PUSH2 0x434F JUMP JUMPDEST DUP2 ADD DUP2 DUP2 LT PUSH8 0xFFFFFFFFFFFFFFFF DUP3 GT OR ISZERO PUSH2 0x43B4 JUMPI PUSH2 0x43B3 PUSH2 0x435F JUMP JUMPDEST JUMPDEST DUP1 PUSH1 0x40 MSTORE POP POP POP JUMP JUMPDEST PUSH0 PUSH2 0x43C6 PUSH2 0x3F04 JUMP JUMPDEST SWAP1 POP PUSH2 0x43D2 DUP3 DUP3 PUSH2 0x438C JUMP JUMPDEST SWAP2 SWAP1 POP JUMP JUMPDEST PUSH0 PUSH8 0xFFFFFFFFFFFFFFFF DUP3 GT ISZERO PUSH2 0x43F1 JUMPI PUSH2 0x43F0 PUSH2 0x435F JUMP JUMPDEST JUMPDEST PUSH2 0x43FA DUP3 PUSH2 0x434F JUMP JUMPDEST SWAP1 POP PUSH1 0x20 DUP2 ADD SWAP1 POP SWAP2 SWAP1 POP JUMP JUMPDEST DUP3 DUP2 DUP4 CALLDATACOPY PUSH0 DUP4 DUP4 ADD MSTORE POP POP POP JUMP JUMPDEST PUSH0 PUSH2 0x4427 PUSH2 0x4422 DUP5 PUSH2 0x43D7 JUMP JUMPDEST PUSH2 0x43BD JUMP JUMPDEST SWAP1 POP DUP3 DUP2 MSTORE PUSH1 0x20 DUP2 ADD DUP5 DUP5 DUP5 ADD GT ISZERO PUSH2 0x4443 JUMPI PUSH2 0x4442 PUSH2 0x434B JUMP JUMPDEST JUMPDEST PUSH2 0x444E DUP5 DUP3 DUP6 PUSH2 0x4407 JUMP JUMPDEST POP SWAP4 SWAP3 POP POP POP JUMP JUMPDEST PUSH0 DUP3 PUSH1 0x1F DUP4 ADD SLT PUSH2 0x446A JUMPI PUSH2 0x4469 PUSH2 0x41DB JUMP JUMPDEST JUMPDEST DUP2 CALLDATALOAD PUSH2 0x447A DUP5 DUP3 PUSH1 0x20 DUP7 ADD PUSH2 0x4415 JUMP JUMPDEST SWAP2 POP POP SWAP3 SWAP2 POP POP JUMP JUMPDEST PUSH0 PUSH0 PUSH0 PUSH0 PUSH1 0x80 DUP6 DUP8 SUB SLT ISZERO PUSH2 0x449B JUMPI PUSH2 0x449A PUSH2 0x3F0D JUMP JUMPDEST JUMPDEST PUSH0 PUSH2 0x44A8 DUP8 DUP3 DUP9 ADD PUSH2 0x3F5B JUMP JUMPDEST SWAP5 POP POP PUSH1 0x20 PUSH2 0x44B9 DUP8 DUP3 DUP9 ADD PUSH2 0x3F5B JUMP JUMPDEST SWAP4 POP POP PUSH1 0x40 DUP6 ADD CALLDATALOAD PUSH8 0xFFFFFFFFFFFFFFFF DUP2 GT ISZERO PUSH2 0x44DA JUMPI PUSH2 0x44D9 PUSH2 0x3F11 JUMP JUMPDEST JUMPDEST PUSH2 0x44E6 DUP8 DUP3 DUP9 ADD PUSH2 0x4456 JUMP JUMPDEST SWAP3 POP POP PUSH1 0x60 PUSH2 0x44F7 DUP8 DUP3 DUP9 ADD PUSH2 0x40D4 JUMP JUMPDEST SWAP2 POP POP SWAP3 SWAP6 SWAP2 SWAP5 POP SWAP3 POP JUMP JUMPDEST PUSH2 0x450C DUP2 PUSH2 0x3F34 JUMP JUMPDEST DUP3 MSTORE POP POP JUMP JUMPDEST PUSH0 PUSH1 0x20 DUP3 ADD SWAP1 POP PUSH2 0x4525 PUSH0 DUP4 ADD DUP5 PUSH2 0x4503 JUMP JUMPDEST SWAP3 SWAP2 POP POP JUMP JUMPDEST PUSH32 0x4E487B7100000000000000000000000000000000000000000000000000000000 PUSH0 MSTORE PUSH1 0x21 PUSH1 0x4 MSTORE PUSH1 0x24 PUSH0 REVERT JUMPDEST PUSH1 0x6 DUP2 LT PUSH2 0x4569 JUMPI PUSH2 0x4568 PUSH2 0x452B JUMP JUMPDEST JUMPDEST POP JUMP JUMPDEST PUSH0 DUP2 SWAP1 POP PUSH2 0x4579 DUP3 PUSH2 0x4558 JUMP JUMPDEST SWAP2 SWAP1 POP JUMP JUMPDEST PUSH0 PUSH2 0x4588 DUP3 PUSH2 0x456C JUMP JUMPDEST SWAP1 POP SWAP2 SWAP1 POP JUMP JUMPDEST PUSH2 0x4598 DUP2 PUSH2 0x457E JUMP JUMPDEST DUP3 MSTORE POP POP JUMP JUMPDEST PUSH0 DUP2 MLOAD SWAP1 POP SWAP2 SWAP1 POP JUMP JUMPDEST DUP3 DUP2 DUP4 MCOPY PUSH0 DUP4 DUP4 ADD MSTORE POP POP POP JUMP JUMPDEST PUSH0 PUSH2 0x45C0 DUP3 PUSH2 0x459E JUMP JUMPDEST PUSH2 0x45CA DUP2 DUP6 PUSH2 0x3DFE JUMP JUMPDEST SWAP4 POP PUSH2 0x45DA DUP2 DUP6 PUSH1 0x20 DUP7 ADD PUSH2 0x45A8 JUMP JUMPDEST PUSH2 0x45E3 DUP2 PUSH2 0x434F JUMP JUMPDEST DUP5 ADD SWAP2 POP POP SWAP3 SWAP2 POP POP JUMP JUMPDEST PUSH0 PUSH2 0x180 DUP3 ADD SWAP1 POP PUSH2 0x4602 PUSH0 DUP4 ADD DUP16 PUSH2 0x407A JUMP JUMPDEST PUSH2 0x460F PUSH1 0x20 DUP4 ADD DUP15 PUSH2 0x4503 JUMP JUMPDEST PUSH2 0x461C PUSH1 0x40 DUP4 ADD DUP14 PUSH2 0x4503 JUMP JUMPDEST PUSH2 0x4629 PUSH1 0x60 DUP4 ADD DUP13 PUSH2 0x4503 JUMP JUMPDEST PUSH2 0x4636 PUSH1 0x80 DUP4 ADD DUP12 PUSH2 0x407A JUMP JUMPDEST PUSH2 0x4643 PUSH1 0xA0 DUP4 ADD DUP11 PUSH2 0x407A JUMP JUMPDEST PUSH2 0x4650 PUSH1 0xC0 DUP4 ADD DUP10 PUSH2 0x458F JUMP JUMPDEST DUP2 DUP2 SUB PUSH1 0xE0 DUP4 ADD MSTORE PUSH2 0x4662 DUP2 DUP9 PUSH2 0x45B6 JUMP JUMPDEST SWAP1 POP DUP2 DUP2 SUB PUSH2 0x100 DUP4 ADD MSTORE PUSH2 0x4677 DUP2 DUP8 PUSH2 0x45B6 JUMP JUMPDEST SWAP1 POP PUSH2 0x4687 PUSH2 0x120 DUP4 ADD DUP7 PUSH2 0x407A JUMP JUMPDEST PUSH2 0x4695 PUSH2 0x140 DUP4 ADD DUP6 PUSH2 0x407A JUMP JUMPDEST PUSH2 0x46A3 PUSH2 0x160 DUP4 ADD DUP5 PUSH2 0x4175 JUMP JUMPDEST SWAP14 SWAP13 POP POP POP POP POP POP POP POP POP POP POP POP POP JUMP JUMPDEST PUSH0 PUSH1 0xE0 DUP3 ADD SWAP1 POP PUSH2 0x46C7 PUSH0 DUP4 ADD DUP11 PUSH2 0x458F JUMP JUMPDEST PUSH2 0x46D4 PUSH1 0x20 DUP4 ADD DUP10 PUSH2 0x4175 JUMP JUMPDEST PUSH2 0x46E1 PUSH1 0x40 DUP4 ADD DUP9 PUSH2 0x4175 JUMP JUMPDEST PUSH2 0x46EE PUSH1 0x60 DUP4 ADD DUP8 PUSH2 0x4175 JUMP JUMPDEST PUSH2 0x46FB PUSH1 0x80 DUP4 ADD DUP7 PUSH2 0x4175 JUMP JUMPDEST PUSH2 0x4708 PUSH1 0xA0 DUP4 ADD DUP6 PUSH2 0x4175 JUMP JUMPDEST PUSH2 0x4715 PUSH1 0xC0 DUP4 ADD DUP5 PUSH2 0x407A JUMP JUMPDEST SWAP9 SWAP8 POP POP POP POP POP POP POP POP JUMP JUMPDEST PUSH0 PUSH2 0x160 DUP3 ADD SWAP1 POP PUSH2 0x4735 PUSH0 DUP4 ADD DUP15 PUSH2 0x4503 JUMP JUMPDEST PUSH2 0x4742 PUSH1 0x20 DUP4 ADD DUP14 PUSH2 0x4503 JUMP JUMPDEST PUSH2 0x474F PUSH1 0x40 DUP4 ADD DUP13 PUSH2 0x4503 JUMP JUMPDEST PUSH2 0x475C PUSH1 0x60 DUP4 ADD DUP12 PUSH2 0x407A JUMP JUMPDEST PUSH2 0x4769 PUSH1 0x80 DUP4 ADD DUP11 PUSH2 0x407A JUMP JUMPDEST PUSH2 0x4776 PUSH1 0xA0 DUP4 ADD DUP10 PUSH2 0x458F JUMP JUMPDEST DUP2 DUP2 SUB PUSH1 0xC0 DUP4 ADD MSTORE PUSH2 0x4788 DUP2 DUP9 PUSH2 0x45B6 JUMP JUMPDEST SWAP1 POP DUP2 DUP2 SUB PUSH1 0xE0 DUP4 ADD MSTORE PUSH2 0x479C DUP2 DUP8 PUSH2 0x45B6 JUMP JUMPDEST SWAP1 POP PUSH2 0x47AC PUSH2 0x100 DUP4 ADD DUP7 PUSH2 0x407A JUMP JUMPDEST PUSH2 0x47BA PUSH2 0x120 DUP4 ADD DUP6 PUSH2 0x407A JUMP JUMPDEST PUSH2 0x47C8 PUSH2 0x140 DUP4 ADD DUP5 PUSH2 0x4175 JUMP JUMPDEST SWAP13 SWAP12 POP POP POP POP POP POP POP POP POP POP POP POP JUMP JUMPDEST PUSH0 PUSH1 0xFF DUP3 AND SWAP1 POP SWAP2 SWAP1 POP JUMP JUMPDEST PUSH2 0x47ED DUP2 PUSH2 0x47D8 JUMP JUMPDEST DUP2 EQ PUSH2 0x47F7 JUMPI PUSH0 PUSH0 REVERT JUMPDEST POP JUMP JUMPDEST PUSH0 DUP2 CALLDATALOAD SWAP1 POP PUSH2 0x4808 DUP2 PUSH2 0x47E4 JUMP JUMPDEST SWAP3 SWAP2 POP POP JUMP JUMPDEST PUSH0 PUSH0 PUSH1 0x40 DUP4 DUP6 SUB SLT ISZERO PUSH2 0x4824 JUMPI PUSH2 0x4823 PUSH2 0x3F0D JUMP JUMPDEST JUMPDEST PUSH0 PUSH2 0x4831 DUP6 DUP3 DUP7 ADD PUSH2 0x40D4 JUMP JUMPDEST SWAP3 POP POP PUSH1 0x20 PUSH2 0x4842 DUP6 DUP3 DUP7 ADD PUSH2 0x47FA JUMP JUMPDEST SWAP2 POP POP SWAP3 POP SWAP3 SWAP1 POP JUMP JUMPDEST PUSH0 PUSH2 0x4856 DUP3 PUSH2 0x4301 JUMP JUMPDEST SWAP1 POP SWAP2 SWAP1 POP JUMP JUMPDEST PUSH2 0x4866 DUP2 PUSH2 0x484C JUMP JUMPDEST DUP3 MSTORE POP POP JUMP JUMPDEST PUSH0 PUSH1 0x20 DUP3 ADD SWAP1 POP PUSH2 0x487F PUSH0 DUP4 ADD DUP5 PUSH2 0x485D JUMP JUMPDEST SWAP3 SWAP2 POP POP JUMP JUMPDEST PUSH0 PUSH1 0x40 DUP3 ADD SWAP1 POP PUSH2 0x4898 PUSH0 DUP4 ADD DUP6 PUSH2 0x458F JUMP JUMPDEST PUSH2 0x48A5 PUSH1 0x20 DUP4 ADD DUP5 PUSH2 0x458F JUMP JUMPDEST SWAP4 SWAP3 POP POP POP JUMP JUMPDEST PUSH32 0x4E487B7100000000000000000000000000000000000000000000000000000000 PUSH0 MSTORE PUSH1 0x11 PUSH1 0x4 MSTORE PUSH1 0x24 PUSH0 REVERT JUMPDEST PUSH0 PUSH2 0x48E3 DUP3 PUSH2 0x3FC3 JUMP JUMPDEST SWAP2 POP PUSH2 0x48EE DUP4 PUSH2 0x3FC3 JUMP JUMPDEST SWAP3 POP DUP3 DUP3 MUL PUSH2 0x48FC DUP2 PUSH2 0x3FC3 JUMP JUMPDEST SWAP2 POP DUP3 DUP3 DIV DUP5 EQ DUP4 ISZERO OR PUSH2 0x4913 JUMPI PUSH2 0x4912 PUSH2 0x48AC JUMP JUMPDEST JUMPDEST POP SWAP3 SWAP2 POP POP JUMP JUMPDEST PUSH32 0x4E487B7100000000000000000000000000000000000000000000000000000000 PUSH0 MSTORE PUSH1 0x12 PUSH1 0x4 MSTORE PUSH1 0x24 PUSH0 REVERT JUMPDEST PUSH0 PUSH2 0x4951 DUP3 PUSH2 0x3FC3 JUMP JUMPDEST SWAP2 POP PUSH2 0x495C DUP4 PUSH2 0x3FC3 JUMP JUMPDEST SWAP3 POP DUP3 PUSH2 0x496C JUMPI PUSH2 0x496B PUSH2 0x491A JUMP JUMPDEST JUMPDEST DUP3 DUP3 DIV SWAP1 POP SWAP3 SWAP2 POP POP JUMP JUMPDEST PUSH0 PUSH2 0x4981 DUP3 PUSH2 0x3FC3 JUMP JUMPDEST SWAP2 POP PUSH2 0x498C DUP4 PUSH2 0x3FC3 JUMP JUMPDEST SWAP3 POP DUP3 DUP3 SUB SWAP1 POP DUP2 DUP2 GT ISZERO PUSH2 0x49A4 JUMPI PUSH2 0x49A3 PUSH2 0x48AC JUMP JUMPDEST JUMPDEST SWAP3 SWAP2 POP POP JUMP JUMPDEST PUSH0 DUP2 SWAP1 POP SWAP3 SWAP2 POP POP JUMP JUMPDEST POP JUMP JUMPDEST PUSH0 PUSH2 0x49C2 PUSH0 DUP4 PUSH2 0x49AA JUMP JUMPDEST SWAP2 POP PUSH2 0x49CD DUP3 PUSH2 0x49B4 JUMP JUMPDEST PUSH0 DUP3 ADD SWAP1 POP SWAP2 SWAP1 POP JUMP JUMPDEST PUSH0 PUSH2 0x49E1 DUP3 PUSH2 0x49B7 JUMP JUMPDEST SWAP2 POP DUP2 SWAP1 POP SWAP2 SWAP1 POP JUMP JUMPDEST PUSH0 PUSH1 0x40 DUP3 ADD SWAP1 POP PUSH2 0x49FE PUSH0 DUP4 ADD DUP6 PUSH2 0x407A JUMP JUMPDEST PUSH2 0x4A0B PUSH1 0x20 DUP4 ADD DUP5 PUSH2 0x407A JUMP JUMPDEST SWAP4 SWAP3 POP POP POP JUMP JUMPDEST PUSH2 0x4A1B DUP2 PUSH2 0x416A JUMP JUMPDEST DUP2 EQ PUSH2 0x4A25 JUMPI PUSH0 PUSH0 REVERT JUMPDEST POP JUMP JUMPDEST PUSH0 DUP2 MLOAD SWAP1 POP PUSH2 0x4A36 DUP2 PUSH2 0x4A12 JUMP JUMPDEST SWAP3 SWAP2 POP POP JUMP JUMPDEST PUSH0 PUSH1 0x20 DUP3 DUP5 SUB SLT ISZERO PUSH2 0x4A51 JUMPI PUSH2 0x4A50 PUSH2 0x3F0D JUMP JUMPDEST JUMPDEST PUSH0 PUSH2 0x4A5E DUP5 DUP3 DUP6 ADD PUSH2 0x4A28 JUMP JUMPDEST SWAP2 POP POP SWAP3 SWAP2 POP POP JUMP JUMPDEST PUSH0 PUSH2 0x4A71 DUP3 PUSH2 0x3FC3 JUMP JUMPDEST SWAP2 POP PUSH2 0x4A7C DUP4 PUSH2 0x3FC3 JUMP JUMPDEST SWAP3 POP DUP3 DUP3 ADD SWAP1 POP DUP1 DUP3 GT ISZERO PUSH2 0x4A94 JUMPI PUSH2 0x4A93 PUSH2 0x48AC JUMP JUMPDEST JUMPDEST SWAP3 SWAP2 POP POP JUMP JUMPDEST PUSH0 DUP3 SWAP1 POP SWAP3 SWAP2 POP POP JUMP JUMPDEST PUSH32 0x4E487B7100000000000000000000000000000000000000000000000000000000 PUSH0 MSTORE PUSH1 0x22 PUSH1 0x4 MSTORE PUSH1 0x24 PUSH0 REVERT JUMPDEST PUSH0 PUSH1 0x2 DUP3 DIV SWAP1 POP PUSH1 0x1 DUP3 AND DUP1 PUSH2 0x4AE8 JUMPI PUSH1 0x7F DUP3 AND SWAP2 POP JUMPDEST PUSH1 0x20 DUP3 LT DUP2 SUB PUSH2 0x4AFB JUMPI PUSH2 0x4AFA PUSH2 0x4AA4 JUMP JUMPDEST JUMPDEST POP SWAP2 SWAP1 POP JUMP JUMPDEST PUSH0 DUP2 SWAP1 POP DUP2 PUSH0 MSTORE PUSH1 0x20 PUSH0 KECCAK256 SWAP1 POP SWAP2 SWAP1 POP JUMP JUMPDEST PUSH0 PUSH1 0x20 PUSH1 0x1F DUP4 ADD DIV SWAP1 POP SWAP2 SWAP1 POP JUMP JUMPDEST PUSH0 DUP3 DUP3 SHL SWAP1 POP SWAP3 SWAP2 POP POP JUMP JUMPDEST PUSH0 PUSH1 0x8 DUP4 MUL PUSH2 0x4B5D PUSH32 0xFFFFFFFFFFFFFFFFFFFFFFFFFFFFFFFFFFFFFFFFFFFFFFFFFFFFFFFFFFFFFFFF DUP3 PUSH2 0x4B22 JUMP JUMPDEST PUSH2 0x4B67 DUP7 DUP4 PUSH2 0x4B22 JUMP JUMPDEST SWAP6 POP DUP1 NOT DUP5 AND SWAP4 POP DUP1 DUP7 AND DUP5 OR SWAP3 POP POP POP SWAP4 SWAP3 POP POP POP JUMP JUMPDEST PUSH0 PUSH2 0x4B99 PUSH2 0x4B94 PUSH2 0x4B8F DUP5 PUSH2 0x3FC3 JUMP JUMPDEST PUSH2 0x42D7 JUMP JUMPDEST PUSH2 0x3FC3 JUMP JUMPDEST SWAP1 POP SWAP2 SWAP1 POP JUMP JUMPDEST PUSH0 DUP2 SWAP1 POP SWAP2 SWAP1 POP JUMP JUMPDEST PUSH2 0x4BB2 DUP4 PUSH2 0x4B7F JUMP JUMPDEST PUSH2 0x4BC6 PUSH2 0x4BBE DUP3 PUSH2 0x4BA0 JUMP JUMPDEST DUP5 DUP5 SLOAD PUSH2 0x4B2E JUMP JUMPDEST DUP3 SSTORE POP POP POP POP JUMP JUMPDEST PUSH0 PUSH0 SWAP1 POP SWAP1 JUMP JUMPDEST PUSH2 0x4BDD PUSH2 0x4BCE JUMP JUMPDEST PUSH2 0x4BE8 DUP2 DUP5 DUP5 PUSH2 0x4BA9 JUMP JUMPDEST POP POP POP JUMP JUMPDEST JUMPDEST DUP2 DUP2 LT ISZERO PUSH2 0x4C0B JUMPI PUSH2 0x4C00 PUSH0 DUP3 PUSH2 0x4BD5 JUMP JUMPDEST PUSH1 0x1 DUP2 ADD SWAP1 POP PUSH2 0x4BEE JUMP JUMPDEST POP POP JUMP JUMPDEST PUSH1 0x1F DUP3 GT ISZERO PUSH2 0x4C50 JUMPI PUSH2 0x4C21 DUP2 PUSH2 0x4B01 JUMP JUMPDEST PUSH2 0x4C2A DUP5 PUSH2 0x4B13 JUMP JUMPDEST DUP2 ADD PUSH1 0x20 DUP6 LT ISZERO PUSH2 0x4C39 JUMPI DUP2 SWAP1 POP JUMPDEST PUSH2 0x4C4D PUSH2 0x4C45 DUP6 PUSH2 0x4B13 JUMP JUMPDEST DUP4 ADD DUP3 PUSH2 0x4BED JUMP JUMPDEST POP POP JUMPDEST POP POP POP JUMP JUMPDEST PUSH0 DUP3 DUP3 SHR SWAP1 POP SWAP3 SWAP2 POP POP JUMP JUMPDEST PUSH0 PUSH2 0x4C70 PUSH0 NOT DUP5 PUSH1 0x8 MUL PUSH2 0x4C55 JUMP JUMPDEST NOT DUP1 DUP4 AND SWAP2 POP POP SWAP3 SWAP2 POP POP JUMP JUMPDEST PUSH0 PUSH2 0x4C88 DUP4 DUP4 PUSH2 0x4C61 JUMP JUMPDEST SWAP2 POP DUP3 PUSH1 0x2 MUL DUP3 OR SWAP1 POP SWAP3 SWAP2 POP POP JUMP JUMPDEST PUSH2 0x4CA2 DUP4 DUP4 PUSH2 0x4A9A JUMP JUMPDEST PUSH8 0xFFFFFFFFFFFFFFFF DUP2 GT ISZERO PUSH2 0x4CBB JUMPI PUSH2 0x4CBA PUSH2 0x435F JUMP JUMPDEST JUMPDEST PUSH2 0x4CC5 DUP3 SLOAD PUSH2 0x4AD1 JUMP JUMPDEST PUSH2 0x4CD0 DUP3 DUP3 DUP6 PUSH2 0x4C0F JUMP JUMPDEST PUSH0 PUSH1 0x1F DUP4 GT PUSH1 0x1 DUP2 EQ PUSH2 0x4CFD JUMPI PUSH0 DUP5 ISZERO PUSH2 0x4CEB JUMPI DUP3 DUP8 ADD CALLDATALOAD SWAP1 POP JUMPDEST PUSH2 0x4CF5 DUP6 DUP3 PUSH2 0x4C7D JUMP JUMPDEST DUP7 SSTORE POP PUSH2 0x4D5C JUMP JUMPDEST PUSH1 0x1F NOT DUP5 AND PUSH2 0x4D0B DUP7 PUSH2 0x4B01 JUMP JUMPDEST PUSH0 JUMPDEST DUP3 DUP2 LT ISZERO PUSH2 0x4D32 JUMPI DUP5 DUP10 ADD CALLDATALOAD DUP3 SSTORE PUSH1 0x1 DUP3 ADD SWAP2 POP PUSH1 0x20 DUP6 ADD SWAP5 POP PUSH1 0x20 DUP2 ADD SWAP1 POP PUSH2 0x4D0D JUMP JUMPDEST DUP7 DUP4 LT ISZERO PUSH2 0x4D4F JUMPI DUP5 DUP10 ADD CALLDATALOAD PUSH2 0x4D4B PUSH1 0x1F DUP10 AND DUP3 PUSH2 0x4C61 JUMP JUMPDEST DUP4 SSTORE POP JUMPDEST PUSH1 0x1 PUSH1 0x2 DUP9 MUL ADD DUP9 SSTORE POP POP POP JUMPDEST POP POP POP POP POP POP POP JUMP JUMPDEST PUSH0 PUSH1 0x40 DUP3 ADD SWAP1 POP PUSH2 0x4D78 PUSH0 DUP4 ADD DUP6 PUSH2 0x4503 JUMP JUMPDEST PUSH2 0x4D85 PUSH1 0x20 DUP4 ADD DUP5 PUSH2 0x4175 JUMP JUMPDEST SWAP4 SWAP3 POP POP POP JUMP JUMPDEST PUSH0 PUSH2 0x4D97 DUP4 DUP6 PUSH2 0x3DFE JUMP JUMPDEST SWAP4 POP PUSH2 0x4DA4 DUP4 DUP6 DUP5 PUSH2 0x4407 JUMP JUMPDEST PUSH2 0x4DAD DUP4 PUSH2 0x434F JUMP JUMPDEST DUP5 ADD SWAP1 POP SWAP4 SWAP3 POP POP POP JUMP JUMPDEST PUSH0 PUSH1 0x20 DUP3 ADD SWAP1 POP DUP2 DUP2 SUB PUSH0 DUP4 ADD MSTORE PUSH2 0x4DD1 DUP2 DUP5 DUP7 PUSH2 0x4D8C JUMP JUMPDEST SWAP1 POP SWAP4 SWAP3 POP POP POP JUMP JUMPDEST PUSH0 PUSH1 0x40 DUP3 ADD SWAP1 POP PUSH2 0x4DED PUSH0 DUP4 ADD DUP6 PUSH2 0x4503 JUMP JUMPDEST PUSH2 0x4DFA PUSH1 0x20 DUP4 ADD DUP5 PUSH2 0x4503 JUMP JUMPDEST SWAP4 SWAP3 POP POP POP JUMP JUMPDEST PUSH2 0x4E0A DUP3 PUSH2 0x459E JUMP JUMPDEST PUSH8 0xFFFFFFFFFFFFFFFF DUP2 GT ISZERO PUSH2 0x4E23 JUMPI PUSH2 0x4E22 PUSH2 0x435F JUMP JUMPDEST JUMPDEST PUSH2 0x4E2D DUP3 SLOAD PUSH2 0x4AD1 JUMP JUMPDEST PUSH2 0x4E38 DUP3 DUP3 DUP6 PUSH2 0x4C0F JUMP JUMPDEST PUSH0 PUSH1 0x20 SWAP1 POP PUSH1 0x1F DUP4 GT PUSH1 0x1 DUP2 EQ PUSH2 0x4E69 JUMPI PUSH0 DUP5 ISZERO PUSH2 0x4E57 JUMPI DUP3 DUP8 ADD MLOAD SWAP1 POP JUMPDEST PUSH2 0x4E61 DUP6 DUP3 PUSH2 0x4C7D JUMP JUMPDEST DUP7 SSTORE POP PUSH2 0x4EC8 JUMP JUMPDEST PUSH1 0x1F NOT DUP5 AND PUSH2 0x4E77 DUP7 PUSH2 0x4B01 JUMP JUMPDEST PUSH0 JUMPDEST DUP3 DUP2 LT ISZERO PUSH2 0x4E9E JUMPI DUP5 DUP10 ADD MLOAD DUP3 SSTORE PUSH1 0x1 DUP3 ADD SWAP2 POP PUSH1 0x20 DUP6 ADD SWAP5 POP PUSH1 0x20 DUP2 ADD SWAP1 POP PUSH2 0x4E79 JUMP JUMPDEST DUP7 DUP4 LT ISZERO PUSH2 0x4EBB JUMPI DUP5 DUP10 ADD MLOAD PUSH2 0x4EB7 PUSH1 0x1F DUP10 AND DUP3 PUSH2 0x4C61 JUMP JUMPDEST DUP4 SSTORE POP JUMPDEST PUSH1 0x1 PUSH1 0x2 DUP9 MUL ADD DUP9 SSTORE POP POP POP JUMPDEST POP POP POP POP POP POP JUMP JUMPDEST PUSH0 PUSH2 0x4EDA DUP3 PUSH2 0x3FC3 JUMP JUMPDEST SWAP2 POP PUSH32 0xFFFFFFFFFFFFFFFFFFFFFFFFFFFFFFFFFFFFFFFFFFFFFFFFFFFFFFFFFFFFFFFF DUP3 SUB PUSH2 0x4F0C JUMPI PUSH2 0x4F0B PUSH2 0x48AC JUMP JUMPDEST JUMPDEST PUSH1 0x1 DUP3 ADD SWAP1 POP SWAP2 SWAP1 POP JUMP JUMPDEST PUSH0 DUP2 SWAP1 POP SWAP2 SWAP1 POP JUMP JUMPDEST PUSH0 PUSH2 0x4F3A PUSH2 0x4F35 PUSH2 0x4F30 DUP5 PUSH2 0x4F17 JUMP JUMPDEST PUSH2 0x42D7 JUMP JUMPDEST PUSH2 0x3FC3 JUMP JUMPDEST SWAP1 POP SWAP2 SWAP1 POP JUMP JUMPDEST PUSH2 0x4F4A DUP2 PUSH2 0x4F20 JUMP JUMPDEST DUP3 MSTORE POP POP JUMP JUMPDEST PUSH0 PUSH1 0x60 DUP3 ADD SWAP1 POP PUSH2 0x4F63 PUSH0 DUP4 ADD DUP7 PUSH2 0x4503 JUMP JUMPDEST PUSH2 0x4F70 PUSH1 0x20 DUP4 ADD DUP6 PUSH2 0x4F41 JUMP JUMPDEST DUP2 DUP2 SUB PUSH1 0x40 DUP4 ADD MSTORE PUSH2 0x4F82 DUP2 DUP5 PUSH2 0x45B6 JUMP JUMPDEST SWAP1 POP SWAP5 SWAP4 POP POP POP POP JUMP JUMPDEST PUSH0 PUSH1 0x80 DUP3 ADD SWAP1 POP PUSH2 0x4F9F PUSH0 DUP4 ADD DUP8 PUSH2 0x4503 JUMP JUMPDEST PUSH2 0x4FAC PUSH1 0x20 DUP4 ADD DUP7 PUSH2 0x4175 JUMP JUMPDEST PUSH2 0x4FB9 PUSH1 0x40 DUP4 ADD DUP6 PUSH2 0x407A JUMP JUMPDEST PUSH2 0x4FC6 PUSH1 0x60 DUP4 ADD DUP5 PUSH2 0x407A JUMP JUMPDEST SWAP6 SWAP5 POP POP POP POP POP JUMP JUMPDEST PUSH32 0x4E487B7100000000000000000000000000000000000000000000000000000000 PUSH0 MSTORE PUSH1 0x32 PUSH1 0x4 MSTORE PUSH1 0x24 PUSH0 REVERT JUMPDEST PUSH0 PUSH1 0x40 DUP3 ADD SWAP1 POP PUSH2 0x500F PUSH0 DUP4 ADD DUP6 PUSH2 0x4503 JUMP JUMPDEST PUSH2 0x501C PUSH1 0x20 DUP4 ADD DUP5 PUSH2 0x407A JUMP JUMPDEST SWAP4 SWAP3 POP POP POP JUMP INVALID LOG2 PUSH5 0x6970667358 0x22 SLT KECCAK256 SWAPN 0xA6 0x4D RETF 0x27 0xEF RETURN 0xC4 ADD 0xC1 0x21 0xDE DUP2 SWAP7 SHL SWAP15 SWAP8 DUP6 0xC6 0x4D PUSH11 0x1C4AF4FF6C6C750B3A3F78 PUSH5 0x736F6C6343 STOP ADDMOD 0x1E STOP CALLER "
				},
				"gasEstimates": {
					"creation": {
						"codeDepositCost": "4113800",
						"executionCost": "73190",
						"totalCost": "4186990"
					},
					"external": {
						"": "513",
						"createAndFundTransfer(address,address,string,uint256)": "infinite",
						"createTransfer(address,address,string,uint256)": "infinite",
						"extendDeadline(uint256,uint256)": "infinite",
						"fundTransfer(uint256)": "infinite",
						"getContractBalance()": "423",
						"getPlatformStats()": "infinite",
						"getRecipientTransfers(address)": "infinite",
						"getSenderTransfers(address)": "infinite",
						"getTransfer(uint256)": "infinite",
						"getTransferStatus(uint256)": "infinite",
						"getValidatorTransfers(address)": "infinite",
						"isUserVerified(address)": "infinite",
						"isValidatorCertified(address)": "infinite",
						"owner()": "2618",
						"platformFeePercentage()": "2536",
						"raiseDispute(uint256,string)": "infinite",
						"recipientTransfers(address,uint256)": "infinite",
						"refundTransfer(uint256)": "infinite",
						"resolveDispute(uint256,uint8)": "infinite",
						"senderTransfers(address,uint256)": "infinite",
						"setUserRegistry(address)": "infinite",
						"setValidatorRegistry(address)": "infinite",
						"totalTransfers()": "2515",
						"totalValueLocked()": "2513",
						"transfers(uint256)": "infinite",
						"updatePlatformFee(uint256)": "24776",
						"updateRecipient(uint256,address)": "infinite",
						"updateValidator(uint256,address)": "infinite",
						"userRegistry()": "infinite",
						"validateTransfer(uint256,string)": "infinite",
						"validatorRegistry()": "infinite",
						"validatorTransfers(address,uint256)": "infinite",
						"withdrawFunds(uint256)": "infinite"
					},
					"internal": {
						"_updateUserReputation(address)": "infinite"
					}
				},
				"methodIdentifiers": {
					"createAndFundTransfer(address,address,string,uint256)": "9259061e",
					"createTransfer(address,address,string,uint256)": "6353f887",
					"extendDeadline(uint256,uint256)": "2d1fdef6",
					"fundTransfer(uint256)": "eaf8294b",
					"getContractBalance()": "6f9fb98a",
					"getPlatformStats()": "136d8883",
					"getRecipientTransfers(address)": "04233456",
					"getSenderTransfers(address)": "9c51d4a1",
					"getTransfer(uint256)": "c16fe907",
					"getTransferStatus(uint256)": "b93c3770",
					"getValidatorTransfers(address)": "42b0a8ce",
					"isUserVerified(address)": "ace417e0",
					"isValidatorCertified(address)": "2beca249",
					"owner()": "8da5cb5b",
					"platformFeePercentage()": "cdd78cfc",
					"raiseDispute(uint256,string)": "5aef573c",
					"recipientTransfers(address,uint256)": "9cb80f00",
					"refundTransfer(uint256)": "f3fee05d",
					"resolveDispute(uint256,uint8)": "e55e4211",
					"senderTransfers(address,uint256)": "2bbdcb4e",
					"setUserRegistry(address)": "b0d5451b",
					"setValidatorRegistry(address)": "49773050",
					"totalTransfers()": "3bf47720",
					"totalValueLocked()": "ec18154e",
					"transfers(uint256)": "9377d711",
					"updatePlatformFee(uint256)": "aa0b5988",
					"updateRecipient(uint256,address)": "b3d50e37",
					"updateValidator(uint256,address)": "5a27cbcb",
					"userRegistry()": "5c7460d6",
					"validateTransfer(uint256,string)": "4b920afe",
					"validatorRegistry()": "f376ebbb",
					"validatorTransfers(address,uint256)": "9bfd3f9d",
					"withdrawFunds(uint256)": "155dd5ee"
				}
			},
			"storageLayout": {
				"storage": [
					{
						"astId": 74,
						"contract": "contracts/DiasporaRemitEscrow.sol:DiasporaRemitEscrow",
						"label": "owner",
						"offset": 0,
						"slot": "0",
						"type": "t_address"
					},
					{
						"astId": 77,
						"contract": "contracts/DiasporaRemitEscrow.sol:DiasporaRemitEscrow",
						"label": "platformFeePercentage",
						"offset": 0,
						"slot": "1",
						"type": "t_uint256"
					},
					{
						"astId": 79,
						"contract": "contracts/DiasporaRemitEscrow.sol:DiasporaRemitEscrow",
						"label": "totalTransfers",
						"offset": 0,
						"slot": "2",
						"type": "t_uint256"
					},
					{
						"astId": 81,
						"contract": "contracts/DiasporaRemitEscrow.sol:DiasporaRemitEscrow",
						"label": "totalValueLocked",
						"offset": 0,
						"slot": "3",
						"type": "t_uint256"
					},
					{
						"astId": 86,
						"contract": "contracts/DiasporaRemitEscrow.sol:DiasporaRemitEscrow",
						"label": "transfers",
						"offset": 0,
						"slot": "4",
						"type": "t_mapping(t_uint256,t_struct(Transfer)65_storage)"
					},
					{
						"astId": 91,
						"contract": "contracts/DiasporaRemitEscrow.sol:DiasporaRemitEscrow",
						"label": "senderTransfers",
						"offset": 0,
						"slot": "5",
						"type": "t_mapping(t_address,t_array(t_uint256)dyn_storage)"
					},
					{
						"astId": 96,
						"contract": "contracts/DiasporaRemitEscrow.sol:DiasporaRemitEscrow",
						"label": "recipientTransfers",
						"offset": 0,
						"slot": "6",
						"type": "t_mapping(t_address,t_array(t_uint256)dyn_storage)"
					},
					{
						"astId": 101,
						"contract": "contracts/DiasporaRemitEscrow.sol:DiasporaRemitEscrow",
						"label": "validatorTransfers",
						"offset": 0,
						"slot": "7",
						"type": "t_mapping(t_address,t_array(t_uint256)dyn_storage)"
					},
					{
						"astId": 104,
						"contract": "contracts/DiasporaRemitEscrow.sol:DiasporaRemitEscrow",
						"label": "locked",
						"offset": 0,
						"slot": "8",
						"type": "t_uint256"
					},
					{
						"astId": 107,
						"contract": "contracts/DiasporaRemitEscrow.sol:DiasporaRemitEscrow",
						"label": "userRegistry",
						"offset": 0,
						"slot": "9",
						"type": "t_contract(IUserRegistry)24"
					},
					{
						"astId": 110,
						"contract": "contracts/DiasporaRemitEscrow.sol:DiasporaRemitEscrow",
						"label": "validatorRegistry",
						"offset": 0,
						"slot": "10",
						"type": "t_contract(IValidatorRegistry)39"
					}
				],
				"types": {
					"t_address": {
						"encoding": "inplace",
						"label": "address",
						"numberOfBytes": "20"
					},
					"t_array(t_uint256)dyn_storage": {
						"base": "t_uint256",
						"encoding": "dynamic_array",
						"label": "uint256[]",
						"numberOfBytes": "32"
					},
					"t_bool": {
						"encoding": "inplace",
						"label": "bool",
						"numberOfBytes": "1"
					},
					"t_contract(IUserRegistry)24": {
						"encoding": "inplace",
						"label": "contract IUserRegistry",
						"numberOfBytes": "20"
					},
					"t_contract(IValidatorRegistry)39": {
						"encoding": "inplace",
						"label": "contract IValidatorRegistry",
						"numberOfBytes": "20"
					},
					"t_enum(TransferStatus)72": {
						"encoding": "inplace",
						"label": "enum DiasporaRemitEscrow.TransferStatus",
						"numberOfBytes": "1"
					},
					"t_mapping(t_address,t_array(t_uint256)dyn_storage)": {
						"encoding": "mapping",
						"key": "t_address",
						"label": "mapping(address => uint256[])",
						"numberOfBytes": "32",
						"value": "t_array(t_uint256)dyn_storage"
					},
					"t_mapping(t_uint256,t_struct(Transfer)65_storage)": {
						"encoding": "mapping",
						"key": "t_uint256",
						"label": "mapping(uint256 => struct DiasporaRemitEscrow.Transfer)",
						"numberOfBytes": "32",
						"value": "t_struct(Transfer)65_storage"
					},
					"t_string_storage": {
						"encoding": "bytes",
						"label": "string",
						"numberOfBytes": "32"
					},
					"t_struct(Transfer)65_storage": {
						"encoding": "inplace",
						"label": "struct DiasporaRemitEscrow.Transfer",
						"members": [
							{
								"astId": 41,
								"contract": "contracts/DiasporaRemitEscrow.sol:DiasporaRemitEscrow",
								"label": "transferId",
								"offset": 0,
								"slot": "0",
								"type": "t_uint256"
							},
							{
								"astId": 43,
								"contract": "contracts/DiasporaRemitEscrow.sol:DiasporaRemitEscrow",
								"label": "sender",
								"offset": 0,
								"slot": "1",
								"type": "t_address"
							},
							{
								"astId": 45,
								"contract": "contracts/DiasporaRemitEscrow.sol:DiasporaRemitEscrow",
								"label": "recipient",
								"offset": 0,
								"slot": "2",
								"type": "t_address"
							},
							{
								"astId": 47,
								"contract": "contracts/DiasporaRemitEscrow.sol:DiasporaRemitEscrow",
								"label": "validator",
								"offset": 0,
								"slot": "3",
								"type": "t_address"
							},
							{
								"astId": 49,
								"contract": "contracts/DiasporaRemitEscrow.sol:DiasporaRemitEscrow",
								"label": "amount",
								"offset": 0,
								"slot": "4",
								"type": "t_uint256"
							},
							{
								"astId": 51,
								"contract": "contracts/DiasporaRemitEscrow.sol:DiasporaRemitEscrow",
								"label": "deadline",
								"offset": 0,
								"slot": "5",
								"type": "t_uint256"
							},
							{
								"astId": 54,
								"contract": "contracts/DiasporaRemitEscrow.sol:DiasporaRemitEscrow",
								"label": "status",
								"offset": 0,
								"slot": "6",
								"type": "t_enum(TransferStatus)72"
							},
							{
								"astId": 56,
								"contract": "contracts/DiasporaRemitEscrow.sol:DiasporaRemitEscrow",
								"label": "purpose",
								"offset": 0,
								"slot": "7",
								"type": "t_string_storage"
							},
							{
								"astId": 58,
								"contract": "contracts/DiasporaRemitEscrow.sol:DiasporaRemitEscrow",
								"label": "validationNote",
								"offset": 0,
								"slot": "8",
								"type": "t_string_storage"
							},
							{
								"astId": 60,
								"contract": "contracts/DiasporaRemitEscrow.sol:DiasporaRemitEscrow",
								"label": "createdAt",
								"offset": 0,
								"slot": "9",
								"type": "t_uint256"
							},
							{
								"astId": 62,
								"contract": "contracts/DiasporaRemitEscrow.sol:DiasporaRemitEscrow",
								"label": "releasedAt",
								"offset": 0,
								"slot": "10",
								"type": "t_uint256"
							},
							{
								"astId": 64,
								"contract": "contracts/DiasporaRemitEscrow.sol:DiasporaRemitEscrow",
								"label": "isRefunded",
								"offset": 0,
								"slot": "11",
								"type": "t_bool"
							}
						],
						"numberOfBytes": "384"
					},
					"t_uint256": {
						"encoding": "inplace",
						"label": "uint256",
						"numberOfBytes": "32"
					}
				}
			},
			"userdoc": {
				"kind": "user",
				"methods": {},
				"version": 1
			}
		}
	}
}