{
	"contracts/modular/DiasporaUserRegistry.sol": {
		"DiasporaUserRegistry": {
			"abi": [
				{
					"inputs": [],
					"stateMutability": "nonpayable",
					"type": "constructor"
				},
				{
					"anonymous": false,
					"inputs": [
						{
							"indexed": true,
							"internalType": "address",
							"name": "user",
							"type": "address"
						}
					],
					"name": "ProfileUpdated",
					"type": "event"
				},
				{
					"anonymous": false,
					"inputs": [
						{
							"indexed": true,
							"internalType": "address",
							"name": "user",
							"type": "address"
						},
						{
							"indexed": false,
							"internalType": "uint256",
							"name": "newScore",
							"type": "uint256"
						}
					],
					"name": "ReputationUpdated",
					"type": "event"
				},
				{
					"anonymous": false,
					"inputs": [
						{
							"indexed": true,
							"internalType": "address",
							"name": "user",
							"type": "address"
						},
						{
							"indexed": false,
							"internalType": "string",
							"name": "name",
							"type": "string"
						},
						{
							"indexed": false,
							"internalType": "enum DiasporaUserRegistry.UserType",
							"name": "userType",
							"type": "uint8"
						}
					],
					"name": "UserRegistered",
					"type": "event"
				},
				{
					"anonymous": false,
					"inputs": [
						{
							"indexed": true,
							"internalType": "address",
							"name": "user",
							"type": "address"
						},
						{
							"indexed": true,
							"internalType": "address",
							"name": "verifier",
							"type": "address"
						}
					],
					"name": "UserVerified",
					"type": "event"
				},
				{
					"inputs": [
						{
							"internalType": "address",
							"name": "_user",
							"type": "address"
						}
					],
					"name": "getUserProfile",
					"outputs": [
						{
							"internalType": "string",
							"name": "name",
							"type": "string"
						},
						{
							"internalType": "string",
							"name": "country",
							"type": "string"
						},
						{
							"internalType": "enum DiasporaUserRegistry.UserType",
							"name": "userType",
							"type": "uint8"
						},
						{
							"internalType": "bool",
							"name": "verified",
							"type": "bool"
						},
						{
							"internalType": "uint256",
							"name": "reputation",
							"type": "uint256"
						}
					],
					"stateMutability": "view",
					"type": "function"
				},
				{
					"inputs": [
						{
							"internalType": "address",
							"name": "",
							"type": "address"
						}
					],
					"name": "isRegistered",
					"outputs": [
						{
							"internalType": "bool",
							"name": "",
							"type": "bool"
						}
					],
					"stateMutability": "view",
					"type": "function"
				},
				{
					"inputs": [
						{
							"internalType": "address",
							"name": "_user",
							"type": "address"
						}
					],
					"name": "isUserVerified",
					"outputs": [
						{
							"internalType": "bool",
							"name": "",
							"type": "bool"
						}
					],
					"stateMutability": "view",
					"type": "function"
				},
				{
					"inputs": [],
					"name": "mainContract",
					"outputs": [
						{
							"internalType": "address",
							"name": "",
							"type": "address"
						}
					],
					"stateMutability": "view",
					"type": "function"
				},
				{
					"inputs": [],
					"name": "owner",
					"outputs": [
						{
							"internalType": "address",
							"name": "",
							"type": "address"
						}
					],
					"stateMutability": "view",
					"type": "function"
				},
				{
					"inputs": [
						{
							"internalType": "string",
							"name": "_name",
							"type": "string"
						},
						{
							"internalType": "string",
							"name": "_country",
							"type": "string"
						},
						{
							"internalType": "enum DiasporaUserRegistry.UserType",
							"name": "_userType",
							"type": "uint8"
						}
					],
					"name": "registerUser",
					"outputs": [],
					"stateMutability": "nonpayable",
					"type": "function"
				},
				{
					"inputs": [
						{
							"internalType": "address",
							"name": "_mainContract",
							"type": "address"
						}
					],
					"name": "setMainContract",
					"outputs": [],
					"stateMutability": "nonpayable",
					"type": "function"
				},
				{
					"inputs": [],
					"name": "totalUsers",
					"outputs": [
						{
							"internalType": "uint256",
							"name": "",
							"type": "uint256"
						}
					],
					"stateMutability": "view",
					"type": "function"
				},
				{
					"inputs": [
						{
							"internalType": "string",
							"name": "_name",
							"type": "string"
						},
						{
							"internalType": "string",
							"name": "_country",
							"type": "string"
						}
					],
					"name": "updateProfile",
					"outputs": [],
					"stateMutability": "nonpayable",
					"type": "function"
				},
				{
					"inputs": [
						{
							"internalType": "address",
							"name": "_user",
							"type": "address"
						},
						{
							"internalType": "uint256",
							"name": "_newScore",
							"type": "uint256"
						}
					],
					"name": "updateReputation",
					"outputs": [],
					"stateMutability": "nonpayable",
					"type": "function"
				},
				{
					"inputs": [
						{
							"internalType": "address",
							"name": "",
							"type": "address"
						}
					],
					"name": "userProfiles",
					"outputs": [
						{
							"internalType": "address",
							"name": "userAddress",
							"type": "address"
						},
						{
							"internalType": "string",
							"name": "name",
							"type": "string"
						},
						{
							"internalType": "string",
							"name": "country",
							"type": "string"
						},
						{
							"internalType": "enum DiasporaUserRegistry.UserType",
							"name": "userType",
							"type": "uint8"
						},
						{
							"internalType": "bool",
							"name": "isVerified",
							"type": "bool"
						},
						{
							"internalType": "uint256",
							"name": "registrationDate",
							"type": "uint256"
						},
						{
							"internalType": "uint256",
							"name": "reputationScore",
							"type": "uint256"
						},
						{
							"internalType": "string",
							"name": "kycDocumentHash",
							"type": "string"
						}
					],
					"stateMutability": "view",
					"type": "function"
				},
				{
					"inputs": [
						{
							"internalType": "address",
							"name": "_user",
							"type": "address"
						},
						{
							"internalType": "string",
							"name": "_kycHash",
							"type": "string"
						}
					],
					"name": "verifyUser",
					"outputs": [],
					"stateMutability": "nonpayable",
					"type": "function"
				}
			],
			"devdoc": {
				"kind": "dev",
				"methods": {},
				"title": "DiasporaUserRegistry - Gestion des profils utilisateurs",
				"version": 1
			},
			"evm": {
				"assembly": "    /* \"contracts/modular/DiasporaUserRegistry.sol\":224:4724  contract DiasporaUserRegistry {... */\n  mstore(0x40, 0x80)\n    /* \"contracts/modular/DiasporaUserRegistry.sol\":1884:1935  constructor() {... */\n  callvalue\n  dup1\n  iszero\n  tag_1\n  jumpi\n  revert(0x00, 0x00)\ntag_1:\n  pop\n    /* \"contracts/modular/DiasporaUserRegistry.sol\":1917:1927  msg.sender */\n  caller\n    /* \"contracts/modular/DiasporaUserRegistry.sol\":1909:1914  owner */\n  0x00\n  0x00\n    /* \"contracts/modular/DiasporaUserRegistry.sol\":1909:1927  owner = msg.sender */\n  0x0100\n  exp\n  dup2\n  sload\n  dup2\n  0xffffffffffffffffffffffffffffffffffffffff\n  mul\n  not\n  and\n  swap1\n  dup4\n  0xffffffffffffffffffffffffffffffffffffffff\n  and\n  mul\n  or\n  swap1\n  sstore\n  pop\n    /* \"contracts/modular/DiasporaUserRegistry.sol\":224:4724  contract DiasporaUserRegistry {... */\n  dataSize(sub_0)\n  dup1\n  dataOffset(sub_0)\n  0x00\n  codecopy\n  0x00\n  return\nstop\n\nsub_0: assembly {\n        /* \"contracts/modular/DiasporaUserRegistry.sol\":224:4724  contract DiasporaUserRegistry {... */\n      mstore(0x40, 0x80)\n      callvalue\n      dup1\n      iszero\n      tag_1\n      jumpi\n      revert(0x00, 0x00)\n    tag_1:\n      pop\n      jumpi(tag_2, lt(calldatasize, 0x04))\n      shr(0xe0, calldataload(0x00))\n      dup1\n      0xace417e0\n      gt\n      tag_15\n      jumpi\n      dup1\n      0xace417e0\n      eq\n      tag_9\n      jumpi\n      dup1\n      0xbff1f9e1\n      eq\n      tag_10\n      jumpi\n      dup1\n      0xc3c5a547\n      eq\n      tag_11\n      jumpi\n      dup1\n      0xc9d3cc6a\n      eq\n      tag_12\n      jumpi\n      dup1\n      0xd270e7ab\n      eq\n      tag_13\n      jumpi\n      dup1\n      0xf5c91a08\n      eq\n      tag_14\n      jumpi\n      jump(tag_2)\n    tag_15:\n      dup1\n      0x2e17a931\n      eq\n      tag_3\n      jumpi\n      dup1\n      0x332d56d7\n      eq\n      tag_4\n      jumpi\n      dup1\n      0x3ded33bc\n      eq\n      tag_5\n      jumpi\n      dup1\n      0x641d7a78\n      eq\n      tag_6\n      jumpi\n      dup1\n      0x8da5cb5b\n      eq\n      tag_7\n      jumpi\n      dup1\n      0x987ee156\n      eq\n      tag_8\n      jumpi\n    tag_2:\n      revert(0x00, 0x00)\n        /* \"contracts/modular/DiasporaUserRegistry.sol\":2151:2911  function registerUser(... */\n    tag_3:\n      tag_16\n      0x04\n      dup1\n      calldatasize\n      sub\n      dup2\n      add\n      swap1\n      tag_17\n      swap2\n      swap1\n      tag_18\n      jump\t// in\n    tag_17:\n      tag_19\n      jump\t// in\n    tag_16:\n      stop\n        /* \"contracts/modular/DiasporaUserRegistry.sol\":1010:1061  mapping(address => UserProfile) public userProfiles */\n    tag_4:\n      tag_20\n      0x04\n      dup1\n      calldatasize\n      sub\n      dup2\n      add\n      swap1\n      tag_21\n      swap2\n      swap1\n      tag_22\n      jump\t// in\n    tag_21:\n      tag_23\n      jump\t// in\n    tag_20:\n      mload(0x40)\n      tag_24\n      swap9\n      swap8\n      swap7\n      swap6\n      swap5\n      swap4\n      swap3\n      swap2\n      swap1\n      tag_25\n      jump\t// in\n    tag_24:\n      mload(0x40)\n      dup1\n      swap2\n      sub\n      swap1\n      return\n        /* \"contracts/modular/DiasporaUserRegistry.sol\":1947:2061  function setMainContract(address _mainContract) external onlyOwner {... */\n    tag_5:\n      tag_26\n      0x04\n      dup1\n      calldatasize\n      sub\n      dup2\n      add\n      swap1\n      tag_27\n      swap2\n      swap1\n      tag_22\n      jump\t// in\n    tag_27:\n      tag_28\n      jump\t// in\n    tag_26:\n      stop\n        /* \"contracts/modular/DiasporaUserRegistry.sol\":3302:3622  function verifyUser(address _user, string memory _kycHash) external onlyOwner {... */\n    tag_6:\n      tag_29\n      0x04\n      dup1\n      calldatasize\n      sub\n      dup2\n      add\n      swap1\n      tag_30\n      swap2\n      swap1\n      tag_31\n      jump\t// in\n    tag_30:\n      tag_32\n      jump\t// in\n    tag_29:\n      stop\n        /* \"contracts/modular/DiasporaUserRegistry.sol\":943:963  address public owner */\n    tag_7:\n      tag_33\n      tag_34\n      jump\t// in\n    tag_33:\n      mload(0x40)\n      tag_35\n      swap2\n      swap1\n      tag_36\n      jump\t// in\n    tag_35:\n      mload(0x40)\n      dup1\n      swap2\n      sub\n      swap1\n      return\n        /* \"contracts/modular/DiasporaUserRegistry.sol\":4063:4585  function getUserProfile(address _user)... */\n    tag_8:\n      tag_37\n      0x04\n      dup1\n      calldatasize\n      sub\n      dup2\n      add\n      swap1\n      tag_38\n      swap2\n      swap1\n      tag_22\n      jump\t// in\n    tag_38:\n      tag_39\n      jump\t// in\n    tag_37:\n      mload(0x40)\n      tag_40\n      swap6\n      swap5\n      swap4\n      swap3\n      swap2\n      swap1\n      tag_41\n      jump\t// in\n    tag_40:\n      mload(0x40)\n      dup1\n      swap2\n      sub\n      swap1\n      return\n        /* \"contracts/modular/DiasporaUserRegistry.sol\":4597:4721  function isUserVerified(address _user) external view returns (bool) {... */\n    tag_9:\n      tag_42\n      0x04\n      dup1\n      calldatasize\n      sub\n      dup2\n      add\n      swap1\n      tag_43\n      swap2\n      swap1\n      tag_22\n      jump\t// in\n    tag_43:\n      tag_44\n      jump\t// in\n    tag_42:\n      mload(0x40)\n      tag_45\n      swap2\n      swap1\n      tag_46\n      jump\t// in\n    tag_45:\n      mload(0x40)\n      dup1\n      swap2\n      sub\n      swap1\n      return\n        /* \"contracts/modular/DiasporaUserRegistry.sol\":1125:1150  uint256 public totalUsers */\n    tag_10:\n      tag_47\n      tag_48\n      jump\t// in\n    tag_47:\n      mload(0x40)\n      tag_49\n      swap2\n      swap1\n      tag_50\n      jump\t// in\n    tag_49:\n      mload(0x40)\n      dup1\n      swap2\n      sub\n      swap1\n      return\n        /* \"contracts/modular/DiasporaUserRegistry.sol\":1068:1112  mapping(address => bool) public isRegistered */\n    tag_11:\n      tag_51\n      0x04\n      dup1\n      calldatasize\n      sub\n      dup2\n      add\n      swap1\n      tag_52\n      swap2\n      swap1\n      tag_22\n      jump\t// in\n    tag_52:\n      tag_53\n      jump\t// in\n    tag_51:\n      mload(0x40)\n      tag_54\n      swap2\n      swap1\n      tag_46\n      jump\t// in\n    tag_54:\n      mload(0x40)\n      dup1\n      swap2\n      sub\n      swap1\n      return\n        /* \"contracts/modular/DiasporaUserRegistry.sol\":2923:3290  function updateProfile(... */\n    tag_12:\n      tag_55\n      0x04\n      dup1\n      calldatasize\n      sub\n      dup2\n      add\n      swap1\n      tag_56\n      swap2\n      swap1\n      tag_57\n      jump\t// in\n    tag_56:\n      tag_58\n      jump\t// in\n    tag_55:\n      stop\n        /* \"contracts/modular/DiasporaUserRegistry.sol\":970:997  address public mainContract */\n    tag_13:\n      tag_59\n      tag_60\n      jump\t// in\n    tag_59:\n      mload(0x40)\n      tag_61\n      swap2\n      swap1\n      tag_36\n      jump\t// in\n    tag_61:\n      mload(0x40)\n      dup1\n      swap2\n      sub\n      swap1\n      return\n        /* \"contracts/modular/DiasporaUserRegistry.sol\":3634:3978  function updateReputation(address _user, uint256 _newScore) external onlyMainContract {... */\n    tag_14:\n      tag_62\n      0x04\n      dup1\n      calldatasize\n      sub\n      dup2\n      add\n      swap1\n      tag_63\n      swap2\n      swap1\n      tag_64\n      jump\t// in\n    tag_63:\n      tag_65\n      jump\t// in\n    tag_62:\n      stop\n        /* \"contracts/modular/DiasporaUserRegistry.sol\":2151:2911  function registerUser(... */\n    tag_19:\n        /* \"contracts/modular/DiasporaUserRegistry.sol\":2301:2313  isRegistered */\n      0x03\n        /* \"contracts/modular/DiasporaUserRegistry.sol\":2301:2325  isRegistered[msg.sender] */\n      0x00\n        /* \"contracts/modular/DiasporaUserRegistry.sol\":2314:2324  msg.sender */\n      caller\n        /* \"contracts/modular/DiasporaUserRegistry.sol\":2301:2325  isRegistered[msg.sender] */\n      0xffffffffffffffffffffffffffffffffffffffff\n      and\n      0xffffffffffffffffffffffffffffffffffffffff\n      and\n      dup2\n      mstore\n      0x20\n      add\n      swap1\n      dup2\n      mstore\n      0x20\n      add\n      0x00\n      keccak256\n      0x00\n      swap1\n      sload\n      swap1\n      0x0100\n      exp\n      swap1\n      div\n      0xff\n      and\n        /* \"contracts/modular/DiasporaUserRegistry.sol\":2300:2325  !isRegistered[msg.sender] */\n      iszero\n        /* \"contracts/modular/DiasporaUserRegistry.sol\":2292:2348  require(!isRegistered[msg.sender], \"Already registered\") */\n      tag_67\n      jumpi\n      mload(0x40)\n      0x08c379a000000000000000000000000000000000000000000000000000000000\n      dup2\n      mstore\n      0x04\n      add\n      tag_68\n      swap1\n      tag_69\n      jump\t// in\n    tag_68:\n      mload(0x40)\n      dup1\n      swap2\n      sub\n      swap1\n      revert\n    tag_67:\n        /* \"contracts/modular/DiasporaUserRegistry.sol\":2389:2390  0 */\n      0x00\n        /* \"contracts/modular/DiasporaUserRegistry.sol\":2373:2378  _name */\n      dup4\n        /* \"contracts/modular/DiasporaUserRegistry.sol\":2367:2386  bytes(_name).length */\n      mload\n        /* \"contracts/modular/DiasporaUserRegistry.sol\":2367:2390  bytes(_name).length > 0 */\n      gt\n        /* \"contracts/modular/DiasporaUserRegistry.sol\":2359:2408  require(bytes(_name).length > 0, \"Name required\") */\n      tag_70\n      jumpi\n      mload(0x40)\n      0x08c379a000000000000000000000000000000000000000000000000000000000\n      dup2\n      mstore\n      0x04\n      add\n      tag_71\n      swap1\n      tag_72\n      jump\t// in\n    tag_71:\n      mload(0x40)\n      dup1\n      swap2\n      sub\n      swap1\n      revert\n    tag_70:\n        /* \"contracts/modular/DiasporaUserRegistry.sol\":2456:2758  UserProfile({... */\n      mload(0x40)\n      dup1\n      0x0100\n      add\n      0x40\n      mstore\n      dup1\n        /* \"contracts/modular/DiasporaUserRegistry.sol\":2496:2506  msg.sender */\n      caller\n        /* \"contracts/modular/DiasporaUserRegistry.sol\":2456:2758  UserProfile({... */\n      0xffffffffffffffffffffffffffffffffffffffff\n      and\n      dup2\n      mstore\n      0x20\n      add\n        /* \"contracts/modular/DiasporaUserRegistry.sol\":2527:2532  _name */\n      dup5\n        /* \"contracts/modular/DiasporaUserRegistry.sol\":2456:2758  UserProfile({... */\n      dup2\n      mstore\n      0x20\n      add\n        /* \"contracts/modular/DiasporaUserRegistry.sol\":2556:2564  _country */\n      dup4\n        /* \"contracts/modular/DiasporaUserRegistry.sol\":2456:2758  UserProfile({... */\n      dup2\n      mstore\n      0x20\n      add\n        /* \"contracts/modular/DiasporaUserRegistry.sol\":2589:2598  _userType */\n      dup3\n        /* \"contracts/modular/DiasporaUserRegistry.sol\":2456:2758  UserProfile({... */\n      0x03\n      dup2\n      gt\n      iszero\n      tag_73\n      jumpi\n      tag_74\n      tag_75\n      jump\t// in\n    tag_74:\n    tag_73:\n      dup2\n      mstore\n      0x20\n      add\n        /* \"contracts/modular/DiasporaUserRegistry.sol\":2625:2630  false */\n      0x00\n        /* \"contracts/modular/DiasporaUserRegistry.sol\":2456:2758  UserProfile({... */\n      iszero\n      iszero\n      dup2\n      mstore\n      0x20\n      add\n        /* \"contracts/modular/DiasporaUserRegistry.sol\":2663:2678  block.timestamp */\n      timestamp\n        /* \"contracts/modular/DiasporaUserRegistry.sol\":2456:2758  UserProfile({... */\n      dup2\n      mstore\n      0x20\n      add\n        /* \"contracts/modular/DiasporaUserRegistry.sol\":2710:2712  50 */\n      0x32\n        /* \"contracts/modular/DiasporaUserRegistry.sol\":2456:2758  UserProfile({... */\n      dup2\n      mstore\n      0x20\n      add\n      mload(0x40)\n      dup1\n      0x20\n      add\n      0x40\n      mstore\n      dup1\n      0x00\n      dup2\n      mstore\n      pop\n      dup2\n      mstore\n      pop\n        /* \"contracts/modular/DiasporaUserRegistry.sol\":2429:2441  userProfiles */\n      0x02\n        /* \"contracts/modular/DiasporaUserRegistry.sol\":2429:2453  userProfiles[msg.sender] */\n      0x00\n        /* \"contracts/modular/DiasporaUserRegistry.sol\":2442:2452  msg.sender */\n      caller\n        /* \"contracts/modular/DiasporaUserRegistry.sol\":2429:2453  userProfiles[msg.sender] */\n      0xffffffffffffffffffffffffffffffffffffffff\n      and\n      0xffffffffffffffffffffffffffffffffffffffff\n      and\n      dup2\n      mstore\n      0x20\n      add\n      swap1\n      dup2\n      mstore\n      0x20\n      add\n      0x00\n      keccak256\n        /* \"contracts/modular/DiasporaUserRegistry.sol\":2429:2758  userProfiles[msg.sender] = UserProfile({... */\n      0x00\n      dup3\n      add\n      mload\n      dup2\n      0x00\n      add\n      exp(0x0100, 0x00)\n      dup2\n      sload\n      dup2\n      0xffffffffffffffffffffffffffffffffffffffff\n      mul\n      not\n      and\n      swap1\n      dup4\n      0xffffffffffffffffffffffffffffffffffffffff\n      and\n      mul\n      or\n      swap1\n      sstore\n      pop\n      0x20\n      dup3\n      add\n      mload\n      dup2\n      0x01\n      add\n      swap1\n      dup2\n      tag_76\n      swap2\n      swap1\n      tag_77\n      jump\t// in\n    tag_76:\n      pop\n      0x40\n      dup3\n      add\n      mload\n      dup2\n      0x02\n      add\n      swap1\n      dup2\n      tag_78\n      swap2\n      swap1\n      tag_77\n      jump\t// in\n    tag_78:\n      pop\n      0x60\n      dup3\n      add\n      mload\n      dup2\n      0x03\n      add\n      exp(0x0100, 0x00)\n      dup2\n      sload\n      dup2\n      0xff\n      mul\n      not\n      and\n      swap1\n      dup4\n      0x03\n      dup2\n      gt\n      iszero\n      tag_79\n      jumpi\n      tag_80\n      tag_75\n      jump\t// in\n    tag_80:\n    tag_79:\n      mul\n      or\n      swap1\n      sstore\n      pop\n      0x80\n      dup3\n      add\n      mload\n      dup2\n      0x03\n      add\n      exp(0x0100, 0x01)\n      dup2\n      sload\n      dup2\n      0xff\n      mul\n      not\n      and\n      swap1\n      dup4\n      iszero\n      iszero\n      mul\n      or\n      swap1\n      sstore\n      pop\n      0xa0\n      dup3\n      add\n      mload\n      dup2\n      0x04\n      add\n      sstore\n      0xc0\n      dup3\n      add\n      mload\n      dup2\n      0x05\n      add\n      sstore\n      0xe0\n      dup3\n      add\n      mload\n      dup2\n      0x06\n      add\n      swap1\n      dup2\n      tag_81\n      swap2\n      swap1\n      tag_77\n      jump\t// in\n    tag_81:\n      pop\n      swap1\n      pop\n      pop\n        /* \"contracts/modular/DiasporaUserRegistry.sol\":2806:2810  true */\n      0x01\n        /* \"contracts/modular/DiasporaUserRegistry.sol\":2779:2791  isRegistered */\n      0x03\n        /* \"contracts/modular/DiasporaUserRegistry.sol\":2779:2803  isRegistered[msg.sender] */\n      0x00\n        /* \"contracts/modular/DiasporaUserRegistry.sol\":2792:2802  msg.sender */\n      caller\n        /* \"contracts/modular/DiasporaUserRegistry.sol\":2779:2803  isRegistered[msg.sender] */\n      0xffffffffffffffffffffffffffffffffffffffff\n      and\n      0xffffffffffffffffffffffffffffffffffffffff\n      and\n      dup2\n      mstore\n      0x20\n      add\n      swap1\n      dup2\n      mstore\n      0x20\n      add\n      0x00\n      keccak256\n      0x00\n        /* \"contracts/modular/DiasporaUserRegistry.sol\":2779:2810  isRegistered[msg.sender] = true */\n      0x0100\n      exp\n      dup2\n      sload\n      dup2\n      0xff\n      mul\n      not\n      and\n      swap1\n      dup4\n      iszero\n      iszero\n      mul\n      or\n      swap1\n      sstore\n      pop\n        /* \"contracts/modular/DiasporaUserRegistry.sol\":2821:2831  totalUsers */\n      0x04\n      0x00\n        /* \"contracts/modular/DiasporaUserRegistry.sol\":2821:2833  totalUsers++ */\n      dup2\n      sload\n      dup1\n      swap3\n      swap2\n      swap1\n      tag_82\n      swap1\n      tag_83\n      jump\t// in\n    tag_82:\n      swap2\n      swap1\n      pop\n      sstore\n      pop\n        /* \"contracts/modular/DiasporaUserRegistry.sol\":2874:2884  msg.sender */\n      caller\n        /* \"contracts/modular/DiasporaUserRegistry.sol\":2859:2903  UserRegistered(msg.sender, _name, _userType) */\n      0xffffffffffffffffffffffffffffffffffffffff\n      and\n      0xc2e5d5da58bd71d1a2d14cdef02a4256d971b728088f8190d067ccfbae3bd73e\n        /* \"contracts/modular/DiasporaUserRegistry.sol\":2886:2891  _name */\n      dup5\n        /* \"contracts/modular/DiasporaUserRegistry.sol\":2893:2902  _userType */\n      dup4\n        /* \"contracts/modular/DiasporaUserRegistry.sol\":2859:2903  UserRegistered(msg.sender, _name, _userType) */\n      mload(0x40)\n      tag_84\n      swap3\n      swap2\n      swap1\n      tag_85\n      jump\t// in\n    tag_84:\n      mload(0x40)\n      dup1\n      swap2\n      sub\n      swap1\n      log2\n        /* \"contracts/modular/DiasporaUserRegistry.sol\":2151:2911  function registerUser(... */\n      pop\n      pop\n      pop\n      jump\t// out\n        /* \"contracts/modular/DiasporaUserRegistry.sol\":1010:1061  mapping(address => UserProfile) public userProfiles */\n    tag_23:\n      mstore(0x20, 0x02)\n      dup1\n      0x00\n      mstore\n      keccak256(0x00, 0x40)\n      0x00\n      swap2\n      pop\n      swap1\n      pop\n      dup1\n      0x00\n      add\n      0x00\n      swap1\n      sload\n      swap1\n      0x0100\n      exp\n      swap1\n      div\n      0xffffffffffffffffffffffffffffffffffffffff\n      and\n      swap1\n      dup1\n      0x01\n      add\n      dup1\n      sload\n      tag_86\n      swap1\n      tag_87\n      jump\t// in\n    tag_86:\n      dup1\n      0x1f\n      add\n      0x20\n      dup1\n      swap2\n      div\n      mul\n      0x20\n      add\n      mload(0x40)\n      swap1\n      dup2\n      add\n      0x40\n      mstore\n      dup1\n      swap3\n      swap2\n      swap1\n      dup2\n      dup2\n      mstore\n      0x20\n      add\n      dup3\n      dup1\n      sload\n      tag_88\n      swap1\n      tag_87\n      jump\t// in\n    tag_88:\n      dup1\n      iszero\n      tag_89\n      jumpi\n      dup1\n      0x1f\n      lt\n      tag_90\n      jumpi\n      0x0100\n      dup1\n      dup4\n      sload\n      div\n      mul\n      dup4\n      mstore\n      swap2\n      0x20\n      add\n      swap2\n      jump(tag_89)\n    tag_90:\n      dup3\n      add\n      swap2\n      swap1\n      0x00\n      mstore\n      keccak256(0x00, 0x20)\n      swap1\n    tag_91:\n      dup2\n      sload\n      dup2\n      mstore\n      swap1\n      0x01\n      add\n      swap1\n      0x20\n      add\n      dup1\n      dup4\n      gt\n      tag_91\n      jumpi\n      dup3\n      swap1\n      sub\n      0x1f\n      and\n      dup3\n      add\n      swap2\n    tag_89:\n      pop\n      pop\n      pop\n      pop\n      pop\n      swap1\n      dup1\n      0x02\n      add\n      dup1\n      sload\n      tag_92\n      swap1\n      tag_87\n      jump\t// in\n    tag_92:\n      dup1\n      0x1f\n      add\n      0x20\n      dup1\n      swap2\n      div\n      mul\n      0x20\n      add\n      mload(0x40)\n      swap1\n      dup2\n      add\n      0x40\n      mstore\n      dup1\n      swap3\n      swap2\n      swap1\n      dup2\n      dup2\n      mstore\n      0x20\n      add\n      dup3\n      dup1\n      sload\n      tag_93\n      swap1\n      tag_87\n      jump\t// in\n    tag_93:\n      dup1\n      iszero\n      tag_94\n      jumpi\n      dup1\n      0x1f\n      lt\n      tag_95\n      jumpi\n      0x0100\n      dup1\n      dup4\n      sload\n      div\n      mul\n      dup4\n      mstore\n      swap2\n      0x20\n      add\n      swap2\n      jump(tag_94)\n    tag_95:\n      dup3\n      add\n      swap2\n      swap1\n      0x00\n      mstore\n      keccak256(0x00, 0x20)\n      swap1\n    tag_96:\n      dup2\n      sload\n      dup2\n      mstore\n      swap1\n      0x01\n      add\n      swap1\n      0x20\n      add\n      dup1\n      dup4\n      gt\n      tag_96\n      jumpi\n      dup3\n      swap1\n      sub\n      0x1f\n      and\n      dup3\n      add\n      swap2\n    tag_94:\n      pop\n      pop\n      pop\n      pop\n      pop\n      swap1\n      dup1\n      0x03\n      add\n      0x00\n      swap1\n      sload\n      swap1\n      0x0100\n      exp\n      swap1\n      div\n      0xff\n      and\n      swap1\n      dup1\n      0x03\n      add\n      0x01\n      swap1\n      sload\n      swap1\n      0x0100\n      exp\n      swap1\n      div\n      0xff\n      and\n      swap1\n      dup1\n      0x04\n      add\n      sload\n      swap1\n      dup1\n      0x05\n      add\n      sload\n      swap1\n      dup1\n      0x06\n      add\n      dup1\n      sload\n      tag_97\n      swap1\n      tag_87\n      jump\t// in\n    tag_97:\n      dup1\n      0x1f\n      add\n      0x20\n      dup1\n      swap2\n      div\n      mul\n      0x20\n      add\n      mload(0x40)\n      swap1\n      dup2\n      add\n      0x40\n      mstore\n      dup1\n      swap3\n      swap2\n      swap1\n      dup2\n      dup2\n      mstore\n      0x20\n      add\n      dup3\n      dup1\n      sload\n      tag_98\n      swap1\n      tag_87\n      jump\t// in\n    tag_98:\n      dup1\n      iszero\n      tag_99\n      jumpi\n      dup1\n      0x1f\n      lt\n      tag_100\n      jumpi\n      0x0100\n      dup1\n      dup4\n      sload\n      div\n      mul\n      dup4\n      mstore\n      swap2\n      0x20\n      add\n      swap2\n      jump(tag_99)\n    tag_100:\n      dup3\n      add\n      swap2\n      swap1\n      0x00\n      mstore\n      keccak256(0x00, 0x20)\n      swap1\n    tag_101:\n      dup2\n      sload\n      dup2\n      mstore\n      swap1\n      0x01\n      add\n      swap1\n      0x20\n      add\n      dup1\n      dup4\n      gt\n      tag_101\n      jumpi\n      dup3\n      swap1\n      sub\n      0x1f\n      and\n      dup3\n      add\n      swap2\n    tag_99:\n      pop\n      pop\n      pop\n      pop\n      pop\n      swap1\n      pop\n      dup9\n      jump\t// out\n        /* \"contracts/modular/DiasporaUserRegistry.sol\":1947:2061  function setMainContract(address _mainContract) external onlyOwner {... */\n    tag_28:\n        /* \"contracts/modular/DiasporaUserRegistry.sol\":1635:1640  owner */\n      0x00\n      0x00\n      swap1\n      sload\n      swap1\n      0x0100\n      exp\n      swap1\n      div\n      0xffffffffffffffffffffffffffffffffffffffff\n      and\n        /* \"contracts/modular/DiasporaUserRegistry.sol\":1621:1640  msg.sender == owner */\n      0xffffffffffffffffffffffffffffffffffffffff\n      and\n        /* \"contracts/modular/DiasporaUserRegistry.sol\":1621:1631  msg.sender */\n      caller\n        /* \"contracts/modular/DiasporaUserRegistry.sol\":1621:1640  msg.sender == owner */\n      0xffffffffffffffffffffffffffffffffffffffff\n      and\n      eq\n        /* \"contracts/modular/DiasporaUserRegistry.sol\":1613:1655  require(msg.sender == owner, \"Only owner\") */\n      tag_103\n      jumpi\n      mload(0x40)\n      0x08c379a000000000000000000000000000000000000000000000000000000000\n      dup2\n      mstore\n      0x04\n      add\n      tag_104\n      swap1\n      tag_105\n      jump\t// in\n    tag_104:\n      mload(0x40)\n      dup1\n      swap2\n      sub\n      swap1\n      revert\n    tag_103:\n        /* \"contracts/modular/DiasporaUserRegistry.sol\":2040:2053  _mainContract */\n      dup1\n        /* \"contracts/modular/DiasporaUserRegistry.sol\":2025:2037  mainContract */\n      0x01\n      0x00\n        /* \"contracts/modular/DiasporaUserRegistry.sol\":2025:2053  mainContract = _mainContract */\n      0x0100\n      exp\n      dup2\n      sload\n      dup2\n      0xffffffffffffffffffffffffffffffffffffffff\n      mul\n      not\n      and\n      swap1\n      dup4\n      0xffffffffffffffffffffffffffffffffffffffff\n      and\n      mul\n      or\n      swap1\n      sstore\n      pop\n        /* \"contracts/modular/DiasporaUserRegistry.sol\":1947:2061  function setMainContract(address _mainContract) external onlyOwner {... */\n      pop\n      jump\t// out\n        /* \"contracts/modular/DiasporaUserRegistry.sol\":3302:3622  function verifyUser(address _user, string memory _kycHash) external onlyOwner {... */\n    tag_32:\n        /* \"contracts/modular/DiasporaUserRegistry.sol\":1635:1640  owner */\n      0x00\n      0x00\n      swap1\n      sload\n      swap1\n      0x0100\n      exp\n      swap1\n      div\n      0xffffffffffffffffffffffffffffffffffffffff\n      and\n        /* \"contracts/modular/DiasporaUserRegistry.sol\":1621:1640  msg.sender == owner */\n      0xffffffffffffffffffffffffffffffffffffffff\n      and\n        /* \"contracts/modular/DiasporaUserRegistry.sol\":1621:1631  msg.sender */\n      caller\n        /* \"contracts/modular/DiasporaUserRegistry.sol\":1621:1640  msg.sender == owner */\n      0xffffffffffffffffffffffffffffffffffffffff\n      and\n      eq\n        /* \"contracts/modular/DiasporaUserRegistry.sol\":1613:1655  require(msg.sender == owner, \"Only owner\") */\n      tag_108\n      jumpi\n      mload(0x40)\n      0x08c379a000000000000000000000000000000000000000000000000000000000\n      dup2\n      mstore\n      0x04\n      add\n      tag_109\n      swap1\n      tag_105\n      jump\t// in\n    tag_109:\n      mload(0x40)\n      dup1\n      swap2\n      sub\n      swap1\n      revert\n    tag_108:\n        /* \"contracts/modular/DiasporaUserRegistry.sol\":3399:3411  isRegistered */\n      0x03\n        /* \"contracts/modular/DiasporaUserRegistry.sol\":3399:3418  isRegistered[_user] */\n      0x00\n        /* \"contracts/modular/DiasporaUserRegistry.sol\":3412:3417  _user */\n      dup4\n        /* \"contracts/modular/DiasporaUserRegistry.sol\":3399:3418  isRegistered[_user] */\n      0xffffffffffffffffffffffffffffffffffffffff\n      and\n      0xffffffffffffffffffffffffffffffffffffffff\n      and\n      dup2\n      mstore\n      0x20\n      add\n      swap1\n      dup2\n      mstore\n      0x20\n      add\n      0x00\n      keccak256\n      0x00\n      swap1\n      sload\n      swap1\n      0x0100\n      exp\n      swap1\n      div\n      0xff\n      and\n        /* \"contracts/modular/DiasporaUserRegistry.sol\":3391:3442  require(isRegistered[_user], \"User not registered\") */\n      tag_111\n      jumpi\n      mload(0x40)\n      0x08c379a000000000000000000000000000000000000000000000000000000000\n      dup2\n      mstore\n      0x04\n      add\n      tag_112\n      swap1\n      tag_113\n      jump\t// in\n    tag_112:\n      mload(0x40)\n      dup1\n      swap2\n      sub\n      swap1\n      revert\n    tag_111:\n        /* \"contracts/modular/DiasporaUserRegistry.sol\":3496:3500  true */\n      0x01\n        /* \"contracts/modular/DiasporaUserRegistry.sol\":3463:3475  userProfiles */\n      0x02\n        /* \"contracts/modular/DiasporaUserRegistry.sol\":3463:3482  userProfiles[_user] */\n      0x00\n        /* \"contracts/modular/DiasporaUserRegistry.sol\":3476:3481  _user */\n      dup5\n        /* \"contracts/modular/DiasporaUserRegistry.sol\":3463:3482  userProfiles[_user] */\n      0xffffffffffffffffffffffffffffffffffffffff\n      and\n      0xffffffffffffffffffffffffffffffffffffffff\n      and\n      dup2\n      mstore\n      0x20\n      add\n      swap1\n      dup2\n      mstore\n      0x20\n      add\n      0x00\n      keccak256\n        /* \"contracts/modular/DiasporaUserRegistry.sol\":3463:3493  userProfiles[_user].isVerified */\n      0x03\n      add\n      0x01\n        /* \"contracts/modular/DiasporaUserRegistry.sol\":3463:3500  userProfiles[_user].isVerified = true */\n      0x0100\n      exp\n      dup2\n      sload\n      dup2\n      0xff\n      mul\n      not\n      and\n      swap1\n      dup4\n      iszero\n      iszero\n      mul\n      or\n      swap1\n      sstore\n      pop\n        /* \"contracts/modular/DiasporaUserRegistry.sol\":3549:3557  _kycHash */\n      dup1\n        /* \"contracts/modular/DiasporaUserRegistry.sol\":3511:3523  userProfiles */\n      0x02\n        /* \"contracts/modular/DiasporaUserRegistry.sol\":3511:3530  userProfiles[_user] */\n      0x00\n        /* \"contracts/modular/DiasporaUserRegistry.sol\":3524:3529  _user */\n      dup5\n        /* \"contracts/modular/DiasporaUserRegistry.sol\":3511:3530  userProfiles[_user] */\n      0xffffffffffffffffffffffffffffffffffffffff\n      and\n      0xffffffffffffffffffffffffffffffffffffffff\n      and\n      dup2\n      mstore\n      0x20\n      add\n      swap1\n      dup2\n      mstore\n      0x20\n      add\n      0x00\n      keccak256\n        /* \"contracts/modular/DiasporaUserRegistry.sol\":3511:3546  userProfiles[_user].kycDocumentHash */\n      0x06\n      add\n        /* \"contracts/modular/DiasporaUserRegistry.sol\":3511:3557  userProfiles[_user].kycDocumentHash = _kycHash */\n      swap1\n      dup2\n      tag_114\n      swap2\n      swap1\n      tag_77\n      jump\t// in\n    tag_114:\n      pop\n        /* \"contracts/modular/DiasporaUserRegistry.sol\":3603:3613  msg.sender */\n      caller\n        /* \"contracts/modular/DiasporaUserRegistry.sol\":3583:3614  UserVerified(_user, msg.sender) */\n      0xffffffffffffffffffffffffffffffffffffffff\n      and\n        /* \"contracts/modular/DiasporaUserRegistry.sol\":3596:3601  _user */\n      dup3\n        /* \"contracts/modular/DiasporaUserRegistry.sol\":3583:3614  UserVerified(_user, msg.sender) */\n      0xffffffffffffffffffffffffffffffffffffffff\n      and\n      0xbfb2fa25f828a712fda370028ecc8813c7082c69b239a579753b10e24dd472cc\n      mload(0x40)\n      mload(0x40)\n      dup1\n      swap2\n      sub\n      swap1\n      log3\n        /* \"contracts/modular/DiasporaUserRegistry.sol\":3302:3622  function verifyUser(address _user, string memory _kycHash) external onlyOwner {... */\n      pop\n      pop\n      jump\t// out\n        /* \"contracts/modular/DiasporaUserRegistry.sol\":943:963  address public owner */\n    tag_34:\n      0x00\n      0x00\n      swap1\n      sload\n      swap1\n      0x0100\n      exp\n      swap1\n      div\n      0xffffffffffffffffffffffffffffffffffffffff\n      and\n      dup2\n      jump\t// out\n        /* \"contracts/modular/DiasporaUserRegistry.sol\":4063:4585  function getUserProfile(address _user)... */\n    tag_39:\n        /* \"contracts/modular/DiasporaUserRegistry.sol\":4166:4184  string memory name */\n      0x60\n        /* \"contracts/modular/DiasporaUserRegistry.sol\":4199:4220  string memory country */\n      dup1\n        /* \"contracts/modular/DiasporaUserRegistry.sol\":4235:4252  UserType userType */\n      0x00\n        /* \"contracts/modular/DiasporaUserRegistry.sol\":4267:4280  bool verified */\n      0x00\n        /* \"contracts/modular/DiasporaUserRegistry.sol\":4295:4313  uint256 reputation */\n      0x00\n        /* \"contracts/modular/DiasporaUserRegistry.sol\":4341:4367  UserProfile memory profile */\n      0x00\n        /* \"contracts/modular/DiasporaUserRegistry.sol\":4370:4382  userProfiles */\n      0x02\n        /* \"contracts/modular/DiasporaUserRegistry.sol\":4370:4389  userProfiles[_user] */\n      0x00\n        /* \"contracts/modular/DiasporaUserRegistry.sol\":4383:4388  _user */\n      dup9\n        /* \"contracts/modular/DiasporaUserRegistry.sol\":4370:4389  userProfiles[_user] */\n      0xffffffffffffffffffffffffffffffffffffffff\n      and\n      0xffffffffffffffffffffffffffffffffffffffff\n      and\n      dup2\n      mstore\n      0x20\n      add\n      swap1\n      dup2\n      mstore\n      0x20\n      add\n      0x00\n      keccak256\n        /* \"contracts/modular/DiasporaUserRegistry.sol\":4341:4389  UserProfile memory profile = userProfiles[_user] */\n      mload(0x40)\n      dup1\n      0x0100\n      add\n      0x40\n      mstore\n      swap1\n      dup2\n      0x00\n      dup3\n      add\n      0x00\n      swap1\n      sload\n      swap1\n      0x0100\n      exp\n      swap1\n      div\n      0xffffffffffffffffffffffffffffffffffffffff\n      and\n      0xffffffffffffffffffffffffffffffffffffffff\n      and\n      0xffffffffffffffffffffffffffffffffffffffff\n      and\n      dup2\n      mstore\n      0x20\n      add\n      0x01\n      dup3\n      add\n      dup1\n      sload\n      tag_116\n      swap1\n      tag_87\n      jump\t// in\n    tag_116:\n      dup1\n      0x1f\n      add\n      0x20\n      dup1\n      swap2\n      div\n      mul\n      0x20\n      add\n      mload(0x40)\n      swap1\n      dup2\n      add\n      0x40\n      mstore\n      dup1\n      swap3\n      swap2\n      swap1\n      dup2\n      dup2\n      mstore\n      0x20\n      add\n      dup3\n      dup1\n      sload\n      tag_117\n      swap1\n      tag_87\n      jump\t// in\n    tag_117:\n      dup1\n      iszero\n      tag_118\n      jumpi\n      dup1\n      0x1f\n      lt\n      tag_119\n      jumpi\n      0x0100\n      dup1\n      dup4\n      sload\n      div\n      mul\n      dup4\n      mstore\n      swap2\n      0x20\n      add\n      swap2\n      jump(tag_118)\n    tag_119:\n      dup3\n      add\n      swap2\n      swap1\n      0x00\n      mstore\n      keccak256(0x00, 0x20)\n      swap1\n    tag_120:\n      dup2\n      sload\n      dup2\n      mstore\n      swap1\n      0x01\n      add\n      swap1\n      0x20\n      add\n      dup1\n      dup4\n      gt\n      tag_120\n      jumpi\n      dup3\n      swap1\n      sub\n      0x1f\n      and\n      dup3\n      add\n      swap2\n    tag_118:\n      pop\n      pop\n      pop\n      pop\n      pop\n      dup2\n      mstore\n      0x20\n      add\n      0x02\n      dup3\n      add\n      dup1\n      sload\n      tag_121\n      swap1\n      tag_87\n      jump\t// in\n    tag_121:\n      dup1\n      0x1f\n      add\n      0x20\n      dup1\n      swap2\n      div\n      mul\n      0x20\n      add\n      mload(0x40)\n      swap1\n      dup2\n      add\n      0x40\n      mstore\n      dup1\n      swap3\n      swap2\n      swap1\n      dup2\n      dup2\n      mstore\n      0x20\n      add\n      dup3\n      dup1\n      sload\n      tag_122\n      swap1\n      tag_87\n      jump\t// in\n    tag_122:\n      dup1\n      iszero\n      tag_123\n      jumpi\n      dup1\n      0x1f\n      lt\n      tag_124\n      jumpi\n      0x0100\n      dup1\n      dup4\n      sload\n      div\n      mul\n      dup4\n      mstore\n      swap2\n      0x20\n      add\n      swap2\n      jump(tag_123)\n    tag_124:\n      dup3\n      add\n      swap2\n      swap1\n      0x00\n      mstore\n      keccak256(0x00, 0x20)\n      swap1\n    tag_125:\n      dup2\n      sload\n      dup2\n      mstore\n      swap1\n      0x01\n      add\n      swap1\n      0x20\n      add\n      dup1\n      dup4\n      gt\n      tag_125\n      jumpi\n      dup3\n      swap1\n      sub\n      0x1f\n      and\n      dup3\n      add\n      swap2\n    tag_123:\n      pop\n      pop\n      pop\n      pop\n      pop\n      dup2\n      mstore\n      0x20\n      add\n      0x03\n      dup3\n      add\n      0x00\n      swap1\n      sload\n      swap1\n      0x0100\n      exp\n      swap1\n      div\n      0xff\n      and\n      0x03\n      dup2\n      gt\n      iszero\n      tag_126\n      jumpi\n      tag_127\n      tag_75\n      jump\t// in\n    tag_127:\n    tag_126:\n      0x03\n      dup2\n      gt\n      iszero\n      tag_128\n      jumpi\n      tag_129\n      tag_75\n      jump\t// in\n    tag_129:\n    tag_128:\n      dup2\n      mstore\n      0x20\n      add\n      0x03\n      dup3\n      add\n      0x01\n      swap1\n      sload\n      swap1\n      0x0100\n      exp\n      swap1\n      div\n      0xff\n      and\n      iszero\n      iszero\n      iszero\n      iszero\n      dup2\n      mstore\n      0x20\n      add\n      0x04\n      dup3\n      add\n      sload\n      dup2\n      mstore\n      0x20\n      add\n      0x05\n      dup3\n      add\n      sload\n      dup2\n      mstore\n      0x20\n      add\n      0x06\n      dup3\n      add\n      dup1\n      sload\n      tag_130\n      swap1\n      tag_87\n      jump\t// in\n    tag_130:\n      dup1\n      0x1f\n      add\n      0x20\n      dup1\n      swap2\n      div\n      mul\n      0x20\n      add\n      mload(0x40)\n      swap1\n      dup2\n      add\n      0x40\n      mstore\n      dup1\n      swap3\n      swap2\n      swap1\n      dup2\n      dup2\n      mstore\n      0x20\n      add\n      dup3\n      dup1\n      sload\n      tag_131\n      swap1\n      tag_87\n      jump\t// in\n    tag_131:\n      dup1\n      iszero\n      tag_132\n      jumpi\n      dup1\n      0x1f\n      lt\n      tag_133\n      jumpi\n      0x0100\n      dup1\n      dup4\n      sload\n      div\n      mul\n      dup4\n      mstore\n      swap2\n      0x20\n      add\n      swap2\n      jump(tag_132)\n    tag_133:\n      dup3\n      add\n      swap2\n      swap1\n      0x00\n      mstore\n      keccak256(0x00, 0x20)\n      swap1\n    tag_134:\n      dup2\n      sload\n      dup2\n      mstore\n      swap1\n      0x01\n      add\n      swap1\n      0x20\n      add\n      dup1\n      dup4\n      gt\n      tag_134\n      jumpi\n      dup3\n      swap1\n      sub\n      0x1f\n      and\n      dup3\n      add\n      swap2\n    tag_132:\n      pop\n      pop\n      pop\n      pop\n      pop\n      dup2\n      mstore\n      pop\n      pop\n      swap1\n      pop\n        /* \"contracts/modular/DiasporaUserRegistry.sol\":4422:4429  profile */\n      dup1\n        /* \"contracts/modular/DiasporaUserRegistry.sol\":4422:4434  profile.name */\n      0x20\n      add\n      mload\n        /* \"contracts/modular/DiasporaUserRegistry.sol\":4449:4456  profile */\n      dup2\n        /* \"contracts/modular/DiasporaUserRegistry.sol\":4449:4464  profile.country */\n      0x40\n      add\n      mload\n        /* \"contracts/modular/DiasporaUserRegistry.sol\":4479:4486  profile */\n      dup3\n        /* \"contracts/modular/DiasporaUserRegistry.sol\":4479:4495  profile.userType */\n      0x60\n      add\n      mload\n        /* \"contracts/modular/DiasporaUserRegistry.sol\":4510:4517  profile */\n      dup4\n        /* \"contracts/modular/DiasporaUserRegistry.sol\":4510:4528  profile.isVerified */\n      0x80\n      add\n      mload\n        /* \"contracts/modular/DiasporaUserRegistry.sol\":4543:4550  profile */\n      dup5\n        /* \"contracts/modular/DiasporaUserRegistry.sol\":4543:4566  profile.reputationScore */\n      0xc0\n      add\n      mload\n        /* \"contracts/modular/DiasporaUserRegistry.sol\":4400:4577  return (... */\n      swap6\n      pop\n      swap6\n      pop\n      swap6\n      pop\n      swap6\n      pop\n      swap6\n      pop\n      pop\n        /* \"contracts/modular/DiasporaUserRegistry.sol\":4063:4585  function getUserProfile(address _user)... */\n      swap2\n      swap4\n      swap6\n      swap1\n      swap3\n      swap5\n      pop\n      jump\t// out\n        /* \"contracts/modular/DiasporaUserRegistry.sol\":4597:4721  function isUserVerified(address _user) external view returns (bool) {... */\n    tag_44:\n        /* \"contracts/modular/DiasporaUserRegistry.sol\":4659:4663  bool */\n      0x00\n        /* \"contracts/modular/DiasporaUserRegistry.sol\":4683:4695  userProfiles */\n      0x02\n        /* \"contracts/modular/DiasporaUserRegistry.sol\":4683:4702  userProfiles[_user] */\n      0x00\n        /* \"contracts/modular/DiasporaUserRegistry.sol\":4696:4701  _user */\n      dup4\n        /* \"contracts/modular/DiasporaUserRegistry.sol\":4683:4702  userProfiles[_user] */\n      0xffffffffffffffffffffffffffffffffffffffff\n      and\n      0xffffffffffffffffffffffffffffffffffffffff\n      and\n      dup2\n      mstore\n      0x20\n      add\n      swap1\n      dup2\n      mstore\n      0x20\n      add\n      0x00\n      keccak256\n        /* \"contracts/modular/DiasporaUserRegistry.sol\":4683:4713  userProfiles[_user].isVerified */\n      0x03\n      add\n      0x01\n      swap1\n      sload\n      swap1\n      0x0100\n      exp\n      swap1\n      div\n      0xff\n      and\n        /* \"contracts/modular/DiasporaUserRegistry.sol\":4676:4713  return userProfiles[_user].isVerified */\n      swap1\n      pop\n        /* \"contracts/modular/DiasporaUserRegistry.sol\":4597:4721  function isUserVerified(address _user) external view returns (bool) {... */\n      swap2\n      swap1\n      pop\n      jump\t// out\n        /* \"contracts/modular/DiasporaUserRegistry.sol\":1125:1150  uint256 public totalUsers */\n    tag_48:\n      sload(0x04)\n      dup2\n      jump\t// out\n        /* \"contracts/modular/DiasporaUserRegistry.sol\":1068:1112  mapping(address => bool) public isRegistered */\n    tag_53:\n      mstore(0x20, 0x03)\n      dup1\n      0x00\n      mstore\n      keccak256(0x00, 0x40)\n      0x00\n      swap2\n      pop\n      sload\n      swap1\n      0x0100\n      exp\n      swap1\n      div\n      0xff\n      and\n      dup2\n      jump\t// out\n        /* \"contracts/modular/DiasporaUserRegistry.sol\":2923:3290  function updateProfile(... */\n    tag_58:\n        /* \"contracts/modular/DiasporaUserRegistry.sol\":3044:3056  isRegistered */\n      0x03\n        /* \"contracts/modular/DiasporaUserRegistry.sol\":3044:3068  isRegistered[msg.sender] */\n      0x00\n        /* \"contracts/modular/DiasporaUserRegistry.sol\":3057:3067  msg.sender */\n      caller\n        /* \"contracts/modular/DiasporaUserRegistry.sol\":3044:3068  isRegistered[msg.sender] */\n      0xffffffffffffffffffffffffffffffffffffffff\n      and\n      0xffffffffffffffffffffffffffffffffffffffff\n      and\n      dup2\n      mstore\n      0x20\n      add\n      swap1\n      dup2\n      mstore\n      0x20\n      add\n      0x00\n      keccak256\n      0x00\n      swap1\n      sload\n      swap1\n      0x0100\n      exp\n      swap1\n      div\n      0xff\n      and\n        /* \"contracts/modular/DiasporaUserRegistry.sol\":3036:3087  require(isRegistered[msg.sender], \"Not registered\") */\n      tag_137\n      jumpi\n      mload(0x40)\n      0x08c379a000000000000000000000000000000000000000000000000000000000\n      dup2\n      mstore\n      0x04\n      add\n      tag_138\n      swap1\n      tag_139\n      jump\t// in\n    tag_138:\n      mload(0x40)\n      dup1\n      swap2\n      sub\n      swap1\n      revert\n    tag_137:\n        /* \"contracts/modular/DiasporaUserRegistry.sol\":3108:3135  UserProfile storage profile */\n      0x00\n        /* \"contracts/modular/DiasporaUserRegistry.sol\":3138:3150  userProfiles */\n      0x02\n        /* \"contracts/modular/DiasporaUserRegistry.sol\":3138:3162  userProfiles[msg.sender] */\n      0x00\n        /* \"contracts/modular/DiasporaUserRegistry.sol\":3151:3161  msg.sender */\n      caller\n        /* \"contracts/modular/DiasporaUserRegistry.sol\":3138:3162  userProfiles[msg.sender] */\n      0xffffffffffffffffffffffffffffffffffffffff\n      and\n      0xffffffffffffffffffffffffffffffffffffffff\n      and\n      dup2\n      mstore\n      0x20\n      add\n      swap1\n      dup2\n      mstore\n      0x20\n      add\n      0x00\n      keccak256\n        /* \"contracts/modular/DiasporaUserRegistry.sol\":3108:3162  UserProfile storage profile = userProfiles[msg.sender] */\n      swap1\n      pop\n        /* \"contracts/modular/DiasporaUserRegistry.sol\":3188:3193  _name */\n      dup3\n        /* \"contracts/modular/DiasporaUserRegistry.sol\":3173:3180  profile */\n      dup2\n        /* \"contracts/modular/DiasporaUserRegistry.sol\":3173:3185  profile.name */\n      0x01\n      add\n        /* \"contracts/modular/DiasporaUserRegistry.sol\":3173:3193  profile.name = _name */\n      swap1\n      dup2\n      tag_140\n      swap2\n      swap1\n      tag_77\n      jump\t// in\n    tag_140:\n      pop\n        /* \"contracts/modular/DiasporaUserRegistry.sol\":3222:3230  _country */\n      dup2\n        /* \"contracts/modular/DiasporaUserRegistry.sol\":3204:3211  profile */\n      dup2\n        /* \"contracts/modular/DiasporaUserRegistry.sol\":3204:3219  profile.country */\n      0x02\n      add\n        /* \"contracts/modular/DiasporaUserRegistry.sol\":3204:3230  profile.country = _country */\n      swap1\n      dup2\n      tag_141\n      swap2\n      swap1\n      tag_77\n      jump\t// in\n    tag_141:\n      pop\n        /* \"contracts/modular/DiasporaUserRegistry.sol\":3271:3281  msg.sender */\n      caller\n        /* \"contracts/modular/DiasporaUserRegistry.sol\":3256:3282  ProfileUpdated(msg.sender) */\n      0xffffffffffffffffffffffffffffffffffffffff\n      and\n      0xbe4ec58a792f909e102ee3d745d0c3b34a4d437a54d903c4db098d31c556422f\n      mload(0x40)\n      mload(0x40)\n      dup1\n      swap2\n      sub\n      swap1\n      log2\n        /* \"contracts/modular/DiasporaUserRegistry.sol\":3025:3290  {... */\n      pop\n        /* \"contracts/modular/DiasporaUserRegistry.sol\":2923:3290  function updateProfile(... */\n      pop\n      pop\n      jump\t// out\n        /* \"contracts/modular/DiasporaUserRegistry.sol\":970:997  address public mainContract */\n    tag_60:\n      0x01\n      0x00\n      swap1\n      sload\n      swap1\n      0x0100\n      exp\n      swap1\n      div\n      0xffffffffffffffffffffffffffffffffffffffff\n      and\n      dup2\n      jump\t// out\n        /* \"contracts/modular/DiasporaUserRegistry.sol\":3634:3978  function updateReputation(address _user, uint256 _newScore) external onlyMainContract {... */\n    tag_65:\n        /* \"contracts/modular/DiasporaUserRegistry.sol\":1748:1760  mainContract */\n      0x01\n      0x00\n      swap1\n      sload\n      swap1\n      0x0100\n      exp\n      swap1\n      div\n      0xffffffffffffffffffffffffffffffffffffffff\n      and\n        /* \"contracts/modular/DiasporaUserRegistry.sol\":1734:1760  msg.sender == mainContract */\n      0xffffffffffffffffffffffffffffffffffffffff\n      and\n        /* \"contracts/modular/DiasporaUserRegistry.sol\":1734:1744  msg.sender */\n      caller\n        /* \"contracts/modular/DiasporaUserRegistry.sol\":1734:1760  msg.sender == mainContract */\n      0xffffffffffffffffffffffffffffffffffffffff\n      and\n      eq\n        /* \"contracts/modular/DiasporaUserRegistry.sol\":1726:1783  require(msg.sender == mainContract, \"Only main contract\") */\n      tag_143\n      jumpi\n      mload(0x40)\n      0x08c379a000000000000000000000000000000000000000000000000000000000\n      dup2\n      mstore\n      0x04\n      add\n      tag_144\n      swap1\n      tag_145\n      jump\t// in\n    tag_144:\n      mload(0x40)\n      dup1\n      swap2\n      sub\n      swap1\n      revert\n    tag_143:\n        /* \"contracts/modular/DiasporaUserRegistry.sol\":3739:3751  isRegistered */\n      0x03\n        /* \"contracts/modular/DiasporaUserRegistry.sol\":3739:3758  isRegistered[_user] */\n      0x00\n        /* \"contracts/modular/DiasporaUserRegistry.sol\":3752:3757  _user */\n      dup4\n        /* \"contracts/modular/DiasporaUserRegistry.sol\":3739:3758  isRegistered[_user] */\n      0xffffffffffffffffffffffffffffffffffffffff\n      and\n      0xffffffffffffffffffffffffffffffffffffffff\n      and\n      dup2\n      mstore\n      0x20\n      add\n      swap1\n      dup2\n      mstore\n      0x20\n      add\n      0x00\n      keccak256\n      0x00\n      swap1\n      sload\n      swap1\n      0x0100\n      exp\n      swap1\n      div\n      0xff\n      and\n        /* \"contracts/modular/DiasporaUserRegistry.sol\":3731:3782  require(isRegistered[_user], \"User not registered\") */\n      tag_147\n      jumpi\n      mload(0x40)\n      0x08c379a000000000000000000000000000000000000000000000000000000000\n      dup2\n      mstore\n      0x04\n      add\n      tag_148\n      swap1\n      tag_113\n      jump\t// in\n    tag_148:\n      mload(0x40)\n      dup1\n      swap2\n      sub\n      swap1\n      revert\n    tag_147:\n        /* \"contracts/modular/DiasporaUserRegistry.sol\":3814:3817  100 */\n      0x64\n        /* \"contracts/modular/DiasporaUserRegistry.sol\":3801:3810  _newScore */\n      dup2\n        /* \"contracts/modular/DiasporaUserRegistry.sol\":3801:3817  _newScore <= 100 */\n      gt\n      iszero\n        /* \"contracts/modular/DiasporaUserRegistry.sol\":3793:3841  require(_newScore <= 100, \"Score must be 0-100\") */\n      tag_149\n      jumpi\n      mload(0x40)\n      0x08c379a000000000000000000000000000000000000000000000000000000000\n      dup2\n      mstore\n      0x04\n      add\n      tag_150\n      swap1\n      tag_151\n      jump\t// in\n    tag_150:\n      mload(0x40)\n      dup1\n      swap2\n      sub\n      swap1\n      revert\n    tag_149:\n        /* \"contracts/modular/DiasporaUserRegistry.sol\":3900:3909  _newScore */\n      dup1\n        /* \"contracts/modular/DiasporaUserRegistry.sol\":3862:3874  userProfiles */\n      0x02\n        /* \"contracts/modular/DiasporaUserRegistry.sol\":3862:3881  userProfiles[_user] */\n      0x00\n        /* \"contracts/modular/DiasporaUserRegistry.sol\":3875:3880  _user */\n      dup5\n        /* \"contracts/modular/DiasporaUserRegistry.sol\":3862:3881  userProfiles[_user] */\n      0xffffffffffffffffffffffffffffffffffffffff\n      and\n      0xffffffffffffffffffffffffffffffffffffffff\n      and\n      dup2\n      mstore\n      0x20\n      add\n      swap1\n      dup2\n      mstore\n      0x20\n      add\n      0x00\n      keccak256\n        /* \"contracts/modular/DiasporaUserRegistry.sol\":3862:3897  userProfiles[_user].reputationScore */\n      0x05\n      add\n        /* \"contracts/modular/DiasporaUserRegistry.sol\":3862:3909  userProfiles[_user].reputationScore = _newScore */\n      dup2\n      swap1\n      sstore\n      pop\n        /* \"contracts/modular/DiasporaUserRegistry.sol\":3953:3958  _user */\n      dup2\n        /* \"contracts/modular/DiasporaUserRegistry.sol\":3935:3970  ReputationUpdated(_user, _newScore) */\n      0xffffffffffffffffffffffffffffffffffffffff\n      and\n      0xfc577563f1b9a0461e24abef1e1fcc0d33d3d881f20b5df6dda59de4aae2c821\n        /* \"contracts/modular/DiasporaUserRegistry.sol\":3960:3969  _newScore */\n      dup3\n        /* \"contracts/modular/DiasporaUserRegistry.sol\":3935:3970  ReputationUpdated(_user, _newScore) */\n      mload(0x40)\n      tag_152\n      swap2\n      swap1\n      tag_50\n      jump\t// in\n    tag_152:\n      mload(0x40)\n      dup1\n      swap2\n      sub\n      swap1\n      log2\n        /* \"contracts/modular/DiasporaUserRegistry.sol\":3634:3978  function updateReputation(address _user, uint256 _newScore) external onlyMainContract {... */\n      pop\n      pop\n      jump\t// out\n        /* \"#utility.yul\":7:82   */\n    tag_153:\n        /* \"#utility.yul\":40:46   */\n      0x00\n        /* \"#utility.yul\":73:75   */\n      0x40\n        /* \"#utility.yul\":67:76   */\n      mload\n        /* \"#utility.yul\":57:76   */\n      swap1\n      pop\n        /* \"#utility.yul\":7:82   */\n      swap1\n      jump\t// out\n        /* \"#utility.yul\":88:205   */\n    tag_154:\n        /* \"#utility.yul\":197:198   */\n      0x00\n        /* \"#utility.yul\":194:195   */\n      0x00\n        /* \"#utility.yul\":187:199   */\n      revert\n        /* \"#utility.yul\":211:328   */\n    tag_155:\n        /* \"#utility.yul\":320:321   */\n      0x00\n        /* \"#utility.yul\":317:318   */\n      0x00\n        /* \"#utility.yul\":310:322   */\n      revert\n        /* \"#utility.yul\":334:451   */\n    tag_156:\n        /* \"#utility.yul\":443:444   */\n      0x00\n        /* \"#utility.yul\":440:441   */\n      0x00\n        /* \"#utility.yul\":433:445   */\n      revert\n        /* \"#utility.yul\":457:574   */\n    tag_157:\n        /* \"#utility.yul\":566:567   */\n      0x00\n        /* \"#utility.yul\":563:564   */\n      0x00\n        /* \"#utility.yul\":556:568   */\n      revert\n        /* \"#utility.yul\":580:682   */\n    tag_158:\n        /* \"#utility.yul\":621:627   */\n      0x00\n        /* \"#utility.yul\":672:674   */\n      0x1f\n        /* \"#utility.yul\":668:675   */\n      not\n        /* \"#utility.yul\":663:665   */\n      0x1f\n        /* \"#utility.yul\":656:661   */\n      dup4\n        /* \"#utility.yul\":652:666   */\n      add\n        /* \"#utility.yul\":648:676   */\n      and\n        /* \"#utility.yul\":638:676   */\n      swap1\n      pop\n        /* \"#utility.yul\":580:682   */\n      swap2\n      swap1\n      pop\n      jump\t// out\n        /* \"#utility.yul\":688:868   */\n    tag_159:\n        /* \"#utility.yul\":736:813   */\n      0x4e487b7100000000000000000000000000000000000000000000000000000000\n        /* \"#utility.yul\":733:734   */\n      0x00\n        /* \"#utility.yul\":726:814   */\n      mstore\n        /* \"#utility.yul\":833:837   */\n      0x41\n        /* \"#utility.yul\":830:831   */\n      0x04\n        /* \"#utility.yul\":823:838   */\n      mstore\n        /* \"#utility.yul\":857:861   */\n      0x24\n        /* \"#utility.yul\":854:855   */\n      0x00\n        /* \"#utility.yul\":847:862   */\n      revert\n        /* \"#utility.yul\":874:1155   */\n    tag_160:\n        /* \"#utility.yul\":957:984   */\n      tag_227\n        /* \"#utility.yul\":979:983   */\n      dup3\n        /* \"#utility.yul\":957:984   */\n      tag_158\n      jump\t// in\n    tag_227:\n        /* \"#utility.yul\":949:955   */\n      dup2\n        /* \"#utility.yul\":945:985   */\n      add\n        /* \"#utility.yul\":1087:1093   */\n      dup2\n        /* \"#utility.yul\":1075:1085   */\n      dup2\n        /* \"#utility.yul\":1072:1094   */\n      lt\n        /* \"#utility.yul\":1051:1069   */\n      0xffffffffffffffff\n        /* \"#utility.yul\":1039:1049   */\n      dup3\n        /* \"#utility.yul\":1036:1070   */\n      gt\n        /* \"#utility.yul\":1033:1095   */\n      or\n        /* \"#utility.yul\":1030:1118   */\n      iszero\n      tag_228\n      jumpi\n        /* \"#utility.yul\":1098:1116   */\n      tag_229\n      tag_159\n      jump\t// in\n    tag_229:\n        /* \"#utility.yul\":1030:1118   */\n    tag_228:\n        /* \"#utility.yul\":1138:1148   */\n      dup1\n        /* \"#utility.yul\":1134:1136   */\n      0x40\n        /* \"#utility.yul\":1127:1149   */\n      mstore\n        /* \"#utility.yul\":917:1155   */\n      pop\n        /* \"#utility.yul\":874:1155   */\n      pop\n      pop\n      jump\t// out\n        /* \"#utility.yul\":1161:1290   */\n    tag_161:\n        /* \"#utility.yul\":1195:1201   */\n      0x00\n        /* \"#utility.yul\":1222:1242   */\n      tag_231\n      tag_153\n      jump\t// in\n    tag_231:\n        /* \"#utility.yul\":1212:1242   */\n      swap1\n      pop\n        /* \"#utility.yul\":1251:1284   */\n      tag_232\n        /* \"#utility.yul\":1279:1283   */\n      dup3\n        /* \"#utility.yul\":1271:1277   */\n      dup3\n        /* \"#utility.yul\":1251:1284   */\n      tag_160\n      jump\t// in\n    tag_232:\n        /* \"#utility.yul\":1161:1290   */\n      swap2\n      swap1\n      pop\n      jump\t// out\n        /* \"#utility.yul\":1296:1604   */\n    tag_162:\n        /* \"#utility.yul\":1358:1362   */\n      0x00\n        /* \"#utility.yul\":1448:1466   */\n      0xffffffffffffffff\n        /* \"#utility.yul\":1440:1446   */\n      dup3\n        /* \"#utility.yul\":1437:1467   */\n      gt\n        /* \"#utility.yul\":1434:1490   */\n      iszero\n      tag_234\n      jumpi\n        /* \"#utility.yul\":1470:1488   */\n      tag_235\n      tag_159\n      jump\t// in\n    tag_235:\n        /* \"#utility.yul\":1434:1490   */\n    tag_234:\n        /* \"#utility.yul\":1508:1537   */\n      tag_236\n        /* \"#utility.yul\":1530:1536   */\n      dup3\n        /* \"#utility.yul\":1508:1537   */\n      tag_158\n      jump\t// in\n    tag_236:\n        /* \"#utility.yul\":1500:1537   */\n      swap1\n      pop\n        /* \"#utility.yul\":1592:1596   */\n      0x20\n        /* \"#utility.yul\":1586:1590   */\n      dup2\n        /* \"#utility.yul\":1582:1597   */\n      add\n        /* \"#utility.yul\":1574:1597   */\n      swap1\n      pop\n        /* \"#utility.yul\":1296:1604   */\n      swap2\n      swap1\n      pop\n      jump\t// out\n        /* \"#utility.yul\":1610:1758   */\n    tag_163:\n        /* \"#utility.yul\":1708:1714   */\n      dup3\n        /* \"#utility.yul\":1703:1706   */\n      dup2\n        /* \"#utility.yul\":1698:1701   */\n      dup4\n        /* \"#utility.yul\":1685:1715   */\n      calldatacopy\n        /* \"#utility.yul\":1749:1750   */\n      0x00\n        /* \"#utility.yul\":1740:1746   */\n      dup4\n        /* \"#utility.yul\":1735:1738   */\n      dup4\n        /* \"#utility.yul\":1731:1747   */\n      add\n        /* \"#utility.yul\":1724:1751   */\n      mstore\n        /* \"#utility.yul\":1610:1758   */\n      pop\n      pop\n      pop\n      jump\t// out\n        /* \"#utility.yul\":1764:2189   */\n    tag_164:\n        /* \"#utility.yul\":1842:1847   */\n      0x00\n        /* \"#utility.yul\":1867:1933   */\n      tag_239\n        /* \"#utility.yul\":1883:1932   */\n      tag_240\n        /* \"#utility.yul\":1925:1931   */\n      dup5\n        /* \"#utility.yul\":1883:1932   */\n      tag_162\n      jump\t// in\n    tag_240:\n        /* \"#utility.yul\":1867:1933   */\n      tag_161\n      jump\t// in\n    tag_239:\n        /* \"#utility.yul\":1858:1933   */\n      swap1\n      pop\n        /* \"#utility.yul\":1956:1962   */\n      dup3\n        /* \"#utility.yul\":1949:1954   */\n      dup2\n        /* \"#utility.yul\":1942:1963   */\n      mstore\n        /* \"#utility.yul\":1994:1998   */\n      0x20\n        /* \"#utility.yul\":1987:1992   */\n      dup2\n        /* \"#utility.yul\":1983:1999   */\n      add\n        /* \"#utility.yul\":2032:2035   */\n      dup5\n        /* \"#utility.yul\":2023:2029   */\n      dup5\n        /* \"#utility.yul\":2018:2021   */\n      dup5\n        /* \"#utility.yul\":2014:2030   */\n      add\n        /* \"#utility.yul\":2011:2036   */\n      gt\n        /* \"#utility.yul\":2008:2120   */\n      iszero\n      tag_241\n      jumpi\n        /* \"#utility.yul\":2039:2118   */\n      tag_242\n      tag_157\n      jump\t// in\n    tag_242:\n        /* \"#utility.yul\":2008:2120   */\n    tag_241:\n        /* \"#utility.yul\":2129:2183   */\n      tag_243\n        /* \"#utility.yul\":2176:2182   */\n      dup5\n        /* \"#utility.yul\":2171:2174   */\n      dup3\n        /* \"#utility.yul\":2166:2169   */\n      dup6\n        /* \"#utility.yul\":2129:2183   */\n      tag_163\n      jump\t// in\n    tag_243:\n        /* \"#utility.yul\":1848:2189   */\n      pop\n        /* \"#utility.yul\":1764:2189   */\n      swap4\n      swap3\n      pop\n      pop\n      pop\n      jump\t// out\n        /* \"#utility.yul\":2209:2549   */\n    tag_165:\n        /* \"#utility.yul\":2265:2270   */\n      0x00\n        /* \"#utility.yul\":2314:2317   */\n      dup3\n        /* \"#utility.yul\":2307:2311   */\n      0x1f\n        /* \"#utility.yul\":2299:2305   */\n      dup4\n        /* \"#utility.yul\":2295:2312   */\n      add\n        /* \"#utility.yul\":2291:2318   */\n      slt\n        /* \"#utility.yul\":2281:2403   */\n      tag_245\n      jumpi\n        /* \"#utility.yul\":2322:2401   */\n      tag_246\n      tag_156\n      jump\t// in\n    tag_246:\n        /* \"#utility.yul\":2281:2403   */\n    tag_245:\n        /* \"#utility.yul\":2439:2445   */\n      dup2\n        /* \"#utility.yul\":2426:2446   */\n      calldataload\n        /* \"#utility.yul\":2464:2543   */\n      tag_247\n        /* \"#utility.yul\":2539:2542   */\n      dup5\n        /* \"#utility.yul\":2531:2537   */\n      dup3\n        /* \"#utility.yul\":2524:2528   */\n      0x20\n        /* \"#utility.yul\":2516:2522   */\n      dup7\n        /* \"#utility.yul\":2512:2529   */\n      add\n        /* \"#utility.yul\":2464:2543   */\n      tag_164\n      jump\t// in\n    tag_247:\n        /* \"#utility.yul\":2455:2543   */\n      swap2\n      pop\n        /* \"#utility.yul\":2271:2549   */\n      pop\n        /* \"#utility.yul\":2209:2549   */\n      swap3\n      swap2\n      pop\n      pop\n      jump\t// out\n        /* \"#utility.yul\":2555:2665   */\n    tag_166:\n        /* \"#utility.yul\":2639:2640   */\n      0x04\n        /* \"#utility.yul\":2632:2637   */\n      dup2\n        /* \"#utility.yul\":2629:2641   */\n      lt\n        /* \"#utility.yul\":2619:2659   */\n      tag_249\n      jumpi\n        /* \"#utility.yul\":2655:2656   */\n      0x00\n        /* \"#utility.yul\":2652:2653   */\n      0x00\n        /* \"#utility.yul\":2645:2657   */\n      revert\n        /* \"#utility.yul\":2619:2659   */\n    tag_249:\n        /* \"#utility.yul\":2555:2665   */\n      pop\n      jump\t// out\n        /* \"#utility.yul\":2671:2832   */\n    tag_167:\n        /* \"#utility.yul\":2728:2733   */\n      0x00\n        /* \"#utility.yul\":2766:2772   */\n      dup2\n        /* \"#utility.yul\":2753:2773   */\n      calldataload\n        /* \"#utility.yul\":2744:2773   */\n      swap1\n      pop\n        /* \"#utility.yul\":2782:2826   */\n      tag_251\n        /* \"#utility.yul\":2820:2825   */\n      dup2\n        /* \"#utility.yul\":2782:2826   */\n      tag_166\n      jump\t// in\n    tag_251:\n        /* \"#utility.yul\":2671:2832   */\n      swap3\n      swap2\n      pop\n      pop\n      jump\t// out\n        /* \"#utility.yul\":2838:3839   */\n    tag_18:\n        /* \"#utility.yul\":2946:2952   */\n      0x00\n        /* \"#utility.yul\":2954:2960   */\n      0x00\n        /* \"#utility.yul\":2962:2968   */\n      0x00\n        /* \"#utility.yul\":3011:3013   */\n      0x60\n        /* \"#utility.yul\":2999:3008   */\n      dup5\n        /* \"#utility.yul\":2990:2997   */\n      dup7\n        /* \"#utility.yul\":2986:3009   */\n      sub\n        /* \"#utility.yul\":2982:3014   */\n      slt\n        /* \"#utility.yul\":2979:3098   */\n      iszero\n      tag_253\n      jumpi\n        /* \"#utility.yul\":3017:3096   */\n      tag_254\n      tag_154\n      jump\t// in\n    tag_254:\n        /* \"#utility.yul\":2979:3098   */\n    tag_253:\n        /* \"#utility.yul\":3165:3166   */\n      0x00\n        /* \"#utility.yul\":3154:3163   */\n      dup5\n        /* \"#utility.yul\":3150:3167   */\n      add\n        /* \"#utility.yul\":3137:3168   */\n      calldataload\n        /* \"#utility.yul\":3195:3213   */\n      0xffffffffffffffff\n        /* \"#utility.yul\":3187:3193   */\n      dup2\n        /* \"#utility.yul\":3184:3214   */\n      gt\n        /* \"#utility.yul\":3181:3298   */\n      iszero\n      tag_255\n      jumpi\n        /* \"#utility.yul\":3217:3296   */\n      tag_256\n      tag_155\n      jump\t// in\n    tag_256:\n        /* \"#utility.yul\":3181:3298   */\n    tag_255:\n        /* \"#utility.yul\":3322:3385   */\n      tag_257\n        /* \"#utility.yul\":3377:3384   */\n      dup7\n        /* \"#utility.yul\":3368:3374   */\n      dup3\n        /* \"#utility.yul\":3357:3366   */\n      dup8\n        /* \"#utility.yul\":3353:3375   */\n      add\n        /* \"#utility.yul\":3322:3385   */\n      tag_165\n      jump\t// in\n    tag_257:\n        /* \"#utility.yul\":3312:3385   */\n      swap4\n      pop\n        /* \"#utility.yul\":3108:3395   */\n      pop\n        /* \"#utility.yul\":3462:3464   */\n      0x20\n        /* \"#utility.yul\":3451:3460   */\n      dup5\n        /* \"#utility.yul\":3447:3465   */\n      add\n        /* \"#utility.yul\":3434:3466   */\n      calldataload\n        /* \"#utility.yul\":3493:3511   */\n      0xffffffffffffffff\n        /* \"#utility.yul\":3485:3491   */\n      dup2\n        /* \"#utility.yul\":3482:3512   */\n      gt\n        /* \"#utility.yul\":3479:3596   */\n      iszero\n      tag_258\n      jumpi\n        /* \"#utility.yul\":3515:3594   */\n      tag_259\n      tag_155\n      jump\t// in\n    tag_259:\n        /* \"#utility.yul\":3479:3596   */\n    tag_258:\n        /* \"#utility.yul\":3620:3683   */\n      tag_260\n        /* \"#utility.yul\":3675:3682   */\n      dup7\n        /* \"#utility.yul\":3666:3672   */\n      dup3\n        /* \"#utility.yul\":3655:3664   */\n      dup8\n        /* \"#utility.yul\":3651:3673   */\n      add\n        /* \"#utility.yul\":3620:3683   */\n      tag_165\n      jump\t// in\n    tag_260:\n        /* \"#utility.yul\":3610:3683   */\n      swap3\n      pop\n        /* \"#utility.yul\":3405:3693   */\n      pop\n        /* \"#utility.yul\":3732:3734   */\n      0x40\n        /* \"#utility.yul\":3758:3822   */\n      tag_261\n        /* \"#utility.yul\":3814:3821   */\n      dup7\n        /* \"#utility.yul\":3805:3811   */\n      dup3\n        /* \"#utility.yul\":3794:3803   */\n      dup8\n        /* \"#utility.yul\":3790:3812   */\n      add\n        /* \"#utility.yul\":3758:3822   */\n      tag_167\n      jump\t// in\n    tag_261:\n        /* \"#utility.yul\":3748:3822   */\n      swap2\n      pop\n        /* \"#utility.yul\":3703:3832   */\n      pop\n        /* \"#utility.yul\":2838:3839   */\n      swap3\n      pop\n      swap3\n      pop\n      swap3\n      jump\t// out\n        /* \"#utility.yul\":3845:3971   */\n    tag_168:\n        /* \"#utility.yul\":3882:3889   */\n      0x00\n        /* \"#utility.yul\":3922:3964   */\n      0xffffffffffffffffffffffffffffffffffffffff\n        /* \"#utility.yul\":3915:3920   */\n      dup3\n        /* \"#utility.yul\":3911:3965   */\n      and\n        /* \"#utility.yul\":3900:3965   */\n      swap1\n      pop\n        /* \"#utility.yul\":3845:3971   */\n      swap2\n      swap1\n      pop\n      jump\t// out\n        /* \"#utility.yul\":3977:4073   */\n    tag_169:\n        /* \"#utility.yul\":4014:4021   */\n      0x00\n        /* \"#utility.yul\":4043:4067   */\n      tag_264\n        /* \"#utility.yul\":4061:4066   */\n      dup3\n        /* \"#utility.yul\":4043:4067   */\n      tag_168\n      jump\t// in\n    tag_264:\n        /* \"#utility.yul\":4032:4067   */\n      swap1\n      pop\n        /* \"#utility.yul\":3977:4073   */\n      swap2\n      swap1\n      pop\n      jump\t// out\n        /* \"#utility.yul\":4079:4201   */\n    tag_170:\n        /* \"#utility.yul\":4152:4176   */\n      tag_266\n        /* \"#utility.yul\":4170:4175   */\n      dup2\n        /* \"#utility.yul\":4152:4176   */\n      tag_169\n      jump\t// in\n    tag_266:\n        /* \"#utility.yul\":4145:4150   */\n      dup2\n        /* \"#utility.yul\":4142:4177   */\n      eq\n        /* \"#utility.yul\":4132:4195   */\n      tag_267\n      jumpi\n        /* \"#utility.yul\":4191:4192   */\n      0x00\n        /* \"#utility.yul\":4188:4189   */\n      0x00\n        /* \"#utility.yul\":4181:4193   */\n      revert\n        /* \"#utility.yul\":4132:4195   */\n    tag_267:\n        /* \"#utility.yul\":4079:4201   */\n      pop\n      jump\t// out\n        /* \"#utility.yul\":4207:4346   */\n    tag_171:\n        /* \"#utility.yul\":4253:4258   */\n      0x00\n        /* \"#utility.yul\":4291:4297   */\n      dup2\n        /* \"#utility.yul\":4278:4298   */\n      calldataload\n        /* \"#utility.yul\":4269:4298   */\n      swap1\n      pop\n        /* \"#utility.yul\":4307:4340   */\n      tag_269\n        /* \"#utility.yul\":4334:4339   */\n      dup2\n        /* \"#utility.yul\":4307:4340   */\n      tag_170\n      jump\t// in\n    tag_269:\n        /* \"#utility.yul\":4207:4346   */\n      swap3\n      swap2\n      pop\n      pop\n      jump\t// out\n        /* \"#utility.yul\":4352:4681   */\n    tag_22:\n        /* \"#utility.yul\":4411:4417   */\n      0x00\n        /* \"#utility.yul\":4460:4462   */\n      0x20\n        /* \"#utility.yul\":4448:4457   */\n      dup3\n        /* \"#utility.yul\":4439:4446   */\n      dup5\n        /* \"#utility.yul\":4435:4458   */\n      sub\n        /* \"#utility.yul\":4431:4463   */\n      slt\n        /* \"#utility.yul\":4428:4547   */\n      iszero\n      tag_271\n      jumpi\n        /* \"#utility.yul\":4466:4545   */\n      tag_272\n      tag_154\n      jump\t// in\n    tag_272:\n        /* \"#utility.yul\":4428:4547   */\n    tag_271:\n        /* \"#utility.yul\":4586:4587   */\n      0x00\n        /* \"#utility.yul\":4611:4664   */\n      tag_273\n        /* \"#utility.yul\":4656:4663   */\n      dup5\n        /* \"#utility.yul\":4647:4653   */\n      dup3\n        /* \"#utility.yul\":4636:4645   */\n      dup6\n        /* \"#utility.yul\":4632:4654   */\n      add\n        /* \"#utility.yul\":4611:4664   */\n      tag_171\n      jump\t// in\n    tag_273:\n        /* \"#utility.yul\":4601:4664   */\n      swap2\n      pop\n        /* \"#utility.yul\":4557:4674   */\n      pop\n        /* \"#utility.yul\":4352:4681   */\n      swap3\n      swap2\n      pop\n      pop\n      jump\t// out\n        /* \"#utility.yul\":4687:4805   */\n    tag_172:\n        /* \"#utility.yul\":4774:4798   */\n      tag_275\n        /* \"#utility.yul\":4792:4797   */\n      dup2\n        /* \"#utility.yul\":4774:4798   */\n      tag_169\n      jump\t// in\n    tag_275:\n        /* \"#utility.yul\":4769:4772   */\n      dup3\n        /* \"#utility.yul\":4762:4799   */\n      mstore\n        /* \"#utility.yul\":4687:4805   */\n      pop\n      pop\n      jump\t// out\n        /* \"#utility.yul\":4811:4910   */\n    tag_173:\n        /* \"#utility.yul\":4863:4869   */\n      0x00\n        /* \"#utility.yul\":4897:4902   */\n      dup2\n        /* \"#utility.yul\":4891:4903   */\n      mload\n        /* \"#utility.yul\":4881:4903   */\n      swap1\n      pop\n        /* \"#utility.yul\":4811:4910   */\n      swap2\n      swap1\n      pop\n      jump\t// out\n        /* \"#utility.yul\":4916:5085   */\n    tag_174:\n        /* \"#utility.yul\":5000:5011   */\n      0x00\n        /* \"#utility.yul\":5034:5040   */\n      dup3\n        /* \"#utility.yul\":5029:5032   */\n      dup3\n        /* \"#utility.yul\":5022:5041   */\n      mstore\n        /* \"#utility.yul\":5074:5078   */\n      0x20\n        /* \"#utility.yul\":5069:5072   */\n      dup3\n        /* \"#utility.yul\":5065:5079   */\n      add\n        /* \"#utility.yul\":5050:5079   */\n      swap1\n      pop\n        /* \"#utility.yul\":4916:5085   */\n      swap3\n      swap2\n      pop\n      pop\n      jump\t// out\n        /* \"#utility.yul\":5091:5230   */\n    tag_175:\n        /* \"#utility.yul\":5180:5186   */\n      dup3\n        /* \"#utility.yul\":5175:5178   */\n      dup2\n        /* \"#utility.yul\":5170:5173   */\n      dup4\n        /* \"#utility.yul\":5164:5187   */\n      mcopy\n        /* \"#utility.yul\":5221:5222   */\n      0x00\n        /* \"#utility.yul\":5212:5218   */\n      dup4\n        /* \"#utility.yul\":5207:5210   */\n      dup4\n        /* \"#utility.yul\":5203:5219   */\n      add\n        /* \"#utility.yul\":5196:5223   */\n      mstore\n        /* \"#utility.yul\":5091:5230   */\n      pop\n      pop\n      pop\n      jump\t// out\n        /* \"#utility.yul\":5236:5613   */\n    tag_176:\n        /* \"#utility.yul\":5324:5327   */\n      0x00\n        /* \"#utility.yul\":5352:5391   */\n      tag_280\n        /* \"#utility.yul\":5385:5390   */\n      dup3\n        /* \"#utility.yul\":5352:5391   */\n      tag_173\n      jump\t// in\n    tag_280:\n        /* \"#utility.yul\":5407:5478   */\n      tag_281\n        /* \"#utility.yul\":5471:5477   */\n      dup2\n        /* \"#utility.yul\":5466:5469   */\n      dup6\n        /* \"#utility.yul\":5407:5478   */\n      tag_174\n      jump\t// in\n    tag_281:\n        /* \"#utility.yul\":5400:5478   */\n      swap4\n      pop\n        /* \"#utility.yul\":5487:5552   */\n      tag_282\n        /* \"#utility.yul\":5545:5551   */\n      dup2\n        /* \"#utility.yul\":5540:5543   */\n      dup6\n        /* \"#utility.yul\":5533:5537   */\n      0x20\n        /* \"#utility.yul\":5526:5531   */\n      dup7\n        /* \"#utility.yul\":5522:5538   */\n      add\n        /* \"#utility.yul\":5487:5552   */\n      tag_175\n      jump\t// in\n    tag_282:\n        /* \"#utility.yul\":5577:5606   */\n      tag_283\n        /* \"#utility.yul\":5599:5605   */\n      dup2\n        /* \"#utility.yul\":5577:5606   */\n      tag_158\n      jump\t// in\n    tag_283:\n        /* \"#utility.yul\":5572:5575   */\n      dup5\n        /* \"#utility.yul\":5568:5607   */\n      add\n        /* \"#utility.yul\":5561:5607   */\n      swap2\n      pop\n        /* \"#utility.yul\":5328:5613   */\n      pop\n        /* \"#utility.yul\":5236:5613   */\n      swap3\n      swap2\n      pop\n      pop\n      jump\t// out\n        /* \"#utility.yul\":5619:5799   */\n    tag_75:\n        /* \"#utility.yul\":5667:5744   */\n      0x4e487b7100000000000000000000000000000000000000000000000000000000\n        /* \"#utility.yul\":5664:5665   */\n      0x00\n        /* \"#utility.yul\":5657:5745   */\n      mstore\n        /* \"#utility.yul\":5764:5768   */\n      0x21\n        /* \"#utility.yul\":5761:5762   */\n      0x04\n        /* \"#utility.yul\":5754:5769   */\n      mstore\n        /* \"#utility.yul\":5788:5792   */\n      0x24\n        /* \"#utility.yul\":5785:5786   */\n      0x00\n        /* \"#utility.yul\":5778:5793   */\n      revert\n        /* \"#utility.yul\":5805:5921   */\n    tag_177:\n        /* \"#utility.yul\":5889:5890   */\n      0x04\n        /* \"#utility.yul\":5882:5887   */\n      dup2\n        /* \"#utility.yul\":5879:5891   */\n      lt\n        /* \"#utility.yul\":5869:5915   */\n      tag_286\n      jumpi\n        /* \"#utility.yul\":5895:5913   */\n      tag_287\n      tag_75\n      jump\t// in\n    tag_287:\n        /* \"#utility.yul\":5869:5915   */\n    tag_286:\n        /* \"#utility.yul\":5805:5921   */\n      pop\n      jump\t// out\n        /* \"#utility.yul\":5927:6060   */\n    tag_178:\n        /* \"#utility.yul\":5975:5982   */\n      0x00\n        /* \"#utility.yul\":6004:6009   */\n      dup2\n        /* \"#utility.yul\":5993:6009   */\n      swap1\n      pop\n        /* \"#utility.yul\":6010:6054   */\n      tag_289\n        /* \"#utility.yul\":6048:6053   */\n      dup3\n        /* \"#utility.yul\":6010:6054   */\n      tag_177\n      jump\t// in\n    tag_289:\n        /* \"#utility.yul\":5927:6060   */\n      swap2\n      swap1\n      pop\n      jump\t// out\n        /* \"#utility.yul\":6066:6199   */\n    tag_179:\n        /* \"#utility.yul\":6125:6134   */\n      0x00\n        /* \"#utility.yul\":6158:6193   */\n      tag_291\n        /* \"#utility.yul\":6187:6192   */\n      dup3\n        /* \"#utility.yul\":6158:6193   */\n      tag_178\n      jump\t// in\n    tag_291:\n        /* \"#utility.yul\":6145:6193   */\n      swap1\n      pop\n        /* \"#utility.yul\":6066:6199   */\n      swap2\n      swap1\n      pop\n      jump\t// out\n        /* \"#utility.yul\":6205:6354   */\n    tag_180:\n        /* \"#utility.yul\":6301:6347   */\n      tag_293\n        /* \"#utility.yul\":6341:6346   */\n      dup2\n        /* \"#utility.yul\":6301:6347   */\n      tag_179\n      jump\t// in\n    tag_293:\n        /* \"#utility.yul\":6296:6299   */\n      dup3\n        /* \"#utility.yul\":6289:6348   */\n      mstore\n        /* \"#utility.yul\":6205:6354   */\n      pop\n      pop\n      jump\t// out\n        /* \"#utility.yul\":6360:6450   */\n    tag_181:\n        /* \"#utility.yul\":6394:6401   */\n      0x00\n        /* \"#utility.yul\":6437:6442   */\n      dup2\n        /* \"#utility.yul\":6430:6443   */\n      iszero\n        /* \"#utility.yul\":6423:6444   */\n      iszero\n        /* \"#utility.yul\":6412:6444   */\n      swap1\n      pop\n        /* \"#utility.yul\":6360:6450   */\n      swap2\n      swap1\n      pop\n      jump\t// out\n        /* \"#utility.yul\":6456:6565   */\n    tag_182:\n        /* \"#utility.yul\":6537:6558   */\n      tag_296\n        /* \"#utility.yul\":6552:6557   */\n      dup2\n        /* \"#utility.yul\":6537:6558   */\n      tag_181\n      jump\t// in\n    tag_296:\n        /* \"#utility.yul\":6532:6535   */\n      dup3\n        /* \"#utility.yul\":6525:6559   */\n      mstore\n        /* \"#utility.yul\":6456:6565   */\n      pop\n      pop\n      jump\t// out\n        /* \"#utility.yul\":6571:6648   */\n    tag_183:\n        /* \"#utility.yul\":6608:6615   */\n      0x00\n        /* \"#utility.yul\":6637:6642   */\n      dup2\n        /* \"#utility.yul\":6626:6642   */\n      swap1\n      pop\n        /* \"#utility.yul\":6571:6648   */\n      swap2\n      swap1\n      pop\n      jump\t// out\n        /* \"#utility.yul\":6654:6772   */\n    tag_184:\n        /* \"#utility.yul\":6741:6765   */\n      tag_299\n        /* \"#utility.yul\":6759:6764   */\n      dup2\n        /* \"#utility.yul\":6741:6765   */\n      tag_183\n      jump\t// in\n    tag_299:\n        /* \"#utility.yul\":6736:6739   */\n      dup3\n        /* \"#utility.yul\":6729:6766   */\n      mstore\n        /* \"#utility.yul\":6654:6772   */\n      pop\n      pop\n      jump\t// out\n        /* \"#utility.yul\":6778:8054   */\n    tag_25:\n        /* \"#utility.yul\":7130:7134   */\n      0x00\n        /* \"#utility.yul\":7168:7171   */\n      0x0100\n        /* \"#utility.yul\":7157:7166   */\n      dup3\n        /* \"#utility.yul\":7153:7172   */\n      add\n        /* \"#utility.yul\":7145:7172   */\n      swap1\n      pop\n        /* \"#utility.yul\":7182:7253   */\n      tag_301\n        /* \"#utility.yul\":7250:7251   */\n      0x00\n        /* \"#utility.yul\":7239:7248   */\n      dup4\n        /* \"#utility.yul\":7235:7252   */\n      add\n        /* \"#utility.yul\":7226:7232   */\n      dup12\n        /* \"#utility.yul\":7182:7253   */\n      tag_172\n      jump\t// in\n    tag_301:\n        /* \"#utility.yul\":7300:7309   */\n      dup2\n        /* \"#utility.yul\":7294:7298   */\n      dup2\n        /* \"#utility.yul\":7290:7310   */\n      sub\n        /* \"#utility.yul\":7285:7287   */\n      0x20\n        /* \"#utility.yul\":7274:7283   */\n      dup4\n        /* \"#utility.yul\":7270:7288   */\n      add\n        /* \"#utility.yul\":7263:7311   */\n      mstore\n        /* \"#utility.yul\":7328:7406   */\n      tag_302\n        /* \"#utility.yul\":7401:7405   */\n      dup2\n        /* \"#utility.yul\":7392:7398   */\n      dup11\n        /* \"#utility.yul\":7328:7406   */\n      tag_176\n      jump\t// in\n    tag_302:\n        /* \"#utility.yul\":7320:7406   */\n      swap1\n      pop\n        /* \"#utility.yul\":7453:7462   */\n      dup2\n        /* \"#utility.yul\":7447:7451   */\n      dup2\n        /* \"#utility.yul\":7443:7463   */\n      sub\n        /* \"#utility.yul\":7438:7440   */\n      0x40\n        /* \"#utility.yul\":7427:7436   */\n      dup4\n        /* \"#utility.yul\":7423:7441   */\n      add\n        /* \"#utility.yul\":7416:7464   */\n      mstore\n        /* \"#utility.yul\":7481:7559   */\n      tag_303\n        /* \"#utility.yul\":7554:7558   */\n      dup2\n        /* \"#utility.yul\":7545:7551   */\n      dup10\n        /* \"#utility.yul\":7481:7559   */\n      tag_176\n      jump\t// in\n    tag_303:\n        /* \"#utility.yul\":7473:7559   */\n      swap1\n      pop\n        /* \"#utility.yul\":7569:7650   */\n      tag_304\n        /* \"#utility.yul\":7646:7648   */\n      0x60\n        /* \"#utility.yul\":7635:7644   */\n      dup4\n        /* \"#utility.yul\":7631:7649   */\n      add\n        /* \"#utility.yul\":7622:7628   */\n      dup9\n        /* \"#utility.yul\":7569:7650   */\n      tag_180\n      jump\t// in\n    tag_304:\n        /* \"#utility.yul\":7660:7727   */\n      tag_305\n        /* \"#utility.yul\":7722:7725   */\n      0x80\n        /* \"#utility.yul\":7711:7720   */\n      dup4\n        /* \"#utility.yul\":7707:7726   */\n      add\n        /* \"#utility.yul\":7698:7704   */\n      dup8\n        /* \"#utility.yul\":7660:7727   */\n      tag_182\n      jump\t// in\n    tag_305:\n        /* \"#utility.yul\":7737:7810   */\n      tag_306\n        /* \"#utility.yul\":7805:7808   */\n      0xa0\n        /* \"#utility.yul\":7794:7803   */\n      dup4\n        /* \"#utility.yul\":7790:7809   */\n      add\n        /* \"#utility.yul\":7781:7787   */\n      dup7\n        /* \"#utility.yul\":7737:7810   */\n      tag_184\n      jump\t// in\n    tag_306:\n        /* \"#utility.yul\":7820:7893   */\n      tag_307\n        /* \"#utility.yul\":7888:7891   */\n      0xc0\n        /* \"#utility.yul\":7877:7886   */\n      dup4\n        /* \"#utility.yul\":7873:7892   */\n      add\n        /* \"#utility.yul\":7864:7870   */\n      dup6\n        /* \"#utility.yul\":7820:7893   */\n      tag_184\n      jump\t// in\n    tag_307:\n        /* \"#utility.yul\":7941:7950   */\n      dup2\n        /* \"#utility.yul\":7935:7939   */\n      dup2\n        /* \"#utility.yul\":7931:7951   */\n      sub\n        /* \"#utility.yul\":7925:7928   */\n      0xe0\n        /* \"#utility.yul\":7914:7923   */\n      dup4\n        /* \"#utility.yul\":7910:7929   */\n      add\n        /* \"#utility.yul\":7903:7952   */\n      mstore\n        /* \"#utility.yul\":7969:8047   */\n      tag_308\n        /* \"#utility.yul\":8042:8046   */\n      dup2\n        /* \"#utility.yul\":8033:8039   */\n      dup5\n        /* \"#utility.yul\":7969:8047   */\n      tag_176\n      jump\t// in\n    tag_308:\n        /* \"#utility.yul\":7961:8047   */\n      swap1\n      pop\n        /* \"#utility.yul\":6778:8054   */\n      swap10\n      swap9\n      pop\n      pop\n      pop\n      pop\n      pop\n      pop\n      pop\n      pop\n      pop\n      jump\t// out\n        /* \"#utility.yul\":8060:8714   */\n    tag_31:\n        /* \"#utility.yul\":8138:8144   */\n      0x00\n        /* \"#utility.yul\":8146:8152   */\n      0x00\n        /* \"#utility.yul\":8195:8197   */\n      0x40\n        /* \"#utility.yul\":8183:8192   */\n      dup4\n        /* \"#utility.yul\":8174:8181   */\n      dup6\n        /* \"#utility.yul\":8170:8193   */\n      sub\n        /* \"#utility.yul\":8166:8198   */\n      slt\n        /* \"#utility.yul\":8163:8282   */\n      iszero\n      tag_310\n      jumpi\n        /* \"#utility.yul\":8201:8280   */\n      tag_311\n      tag_154\n      jump\t// in\n    tag_311:\n        /* \"#utility.yul\":8163:8282   */\n    tag_310:\n        /* \"#utility.yul\":8321:8322   */\n      0x00\n        /* \"#utility.yul\":8346:8399   */\n      tag_312\n        /* \"#utility.yul\":8391:8398   */\n      dup6\n        /* \"#utility.yul\":8382:8388   */\n      dup3\n        /* \"#utility.yul\":8371:8380   */\n      dup7\n        /* \"#utility.yul\":8367:8389   */\n      add\n        /* \"#utility.yul\":8346:8399   */\n      tag_171\n      jump\t// in\n    tag_312:\n        /* \"#utility.yul\":8336:8399   */\n      swap3\n      pop\n        /* \"#utility.yul\":8292:8409   */\n      pop\n        /* \"#utility.yul\":8476:8478   */\n      0x20\n        /* \"#utility.yul\":8465:8474   */\n      dup4\n        /* \"#utility.yul\":8461:8479   */\n      add\n        /* \"#utility.yul\":8448:8480   */\n      calldataload\n        /* \"#utility.yul\":8507:8525   */\n      0xffffffffffffffff\n        /* \"#utility.yul\":8499:8505   */\n      dup2\n        /* \"#utility.yul\":8496:8526   */\n      gt\n        /* \"#utility.yul\":8493:8610   */\n      iszero\n      tag_313\n      jumpi\n        /* \"#utility.yul\":8529:8608   */\n      tag_314\n      tag_155\n      jump\t// in\n    tag_314:\n        /* \"#utility.yul\":8493:8610   */\n    tag_313:\n        /* \"#utility.yul\":8634:8697   */\n      tag_315\n        /* \"#utility.yul\":8689:8696   */\n      dup6\n        /* \"#utility.yul\":8680:8686   */\n      dup3\n        /* \"#utility.yul\":8669:8678   */\n      dup7\n        /* \"#utility.yul\":8665:8687   */\n      add\n        /* \"#utility.yul\":8634:8697   */\n      tag_165\n      jump\t// in\n    tag_315:\n        /* \"#utility.yul\":8624:8697   */\n      swap2\n      pop\n        /* \"#utility.yul\":8419:8707   */\n      pop\n        /* \"#utility.yul\":8060:8714   */\n      swap3\n      pop\n      swap3\n      swap1\n      pop\n      jump\t// out\n        /* \"#utility.yul\":8720:8942   */\n    tag_36:\n        /* \"#utility.yul\":8813:8817   */\n      0x00\n        /* \"#utility.yul\":8851:8853   */\n      0x20\n        /* \"#utility.yul\":8840:8849   */\n      dup3\n        /* \"#utility.yul\":8836:8854   */\n      add\n        /* \"#utility.yul\":8828:8854   */\n      swap1\n      pop\n        /* \"#utility.yul\":8864:8935   */\n      tag_317\n        /* \"#utility.yul\":8932:8933   */\n      0x00\n        /* \"#utility.yul\":8921:8930   */\n      dup4\n        /* \"#utility.yul\":8917:8934   */\n      add\n        /* \"#utility.yul\":8908:8914   */\n      dup5\n        /* \"#utility.yul\":8864:8935   */\n      tag_172\n      jump\t// in\n    tag_317:\n        /* \"#utility.yul\":8720:8942   */\n      swap3\n      swap2\n      pop\n      pop\n      jump\t// out\n        /* \"#utility.yul\":8948:9800   */\n    tag_41:\n        /* \"#utility.yul\":9196:9200   */\n      0x00\n        /* \"#utility.yul\":9234:9237   */\n      0xa0\n        /* \"#utility.yul\":9223:9232   */\n      dup3\n        /* \"#utility.yul\":9219:9238   */\n      add\n        /* \"#utility.yul\":9211:9238   */\n      swap1\n      pop\n        /* \"#utility.yul\":9284:9293   */\n      dup2\n        /* \"#utility.yul\":9278:9282   */\n      dup2\n        /* \"#utility.yul\":9274:9294   */\n      sub\n        /* \"#utility.yul\":9270:9271   */\n      0x00\n        /* \"#utility.yul\":9259:9268   */\n      dup4\n        /* \"#utility.yul\":9255:9272   */\n      add\n        /* \"#utility.yul\":9248:9295   */\n      mstore\n        /* \"#utility.yul\":9312:9390   */\n      tag_319\n        /* \"#utility.yul\":9385:9389   */\n      dup2\n        /* \"#utility.yul\":9376:9382   */\n      dup9\n        /* \"#utility.yul\":9312:9390   */\n      tag_176\n      jump\t// in\n    tag_319:\n        /* \"#utility.yul\":9304:9390   */\n      swap1\n      pop\n        /* \"#utility.yul\":9437:9446   */\n      dup2\n        /* \"#utility.yul\":9431:9435   */\n      dup2\n        /* \"#utility.yul\":9427:9447   */\n      sub\n        /* \"#utility.yul\":9422:9424   */\n      0x20\n        /* \"#utility.yul\":9411:9420   */\n      dup4\n        /* \"#utility.yul\":9407:9425   */\n      add\n        /* \"#utility.yul\":9400:9448   */\n      mstore\n        /* \"#utility.yul\":9465:9543   */\n      tag_320\n        /* \"#utility.yul\":9538:9542   */\n      dup2\n        /* \"#utility.yul\":9529:9535   */\n      dup8\n        /* \"#utility.yul\":9465:9543   */\n      tag_176\n      jump\t// in\n    tag_320:\n        /* \"#utility.yul\":9457:9543   */\n      swap1\n      pop\n        /* \"#utility.yul\":9553:9634   */\n      tag_321\n        /* \"#utility.yul\":9630:9632   */\n      0x40\n        /* \"#utility.yul\":9619:9628   */\n      dup4\n        /* \"#utility.yul\":9615:9633   */\n      add\n        /* \"#utility.yul\":9606:9612   */\n      dup7\n        /* \"#utility.yul\":9553:9634   */\n      tag_180\n      jump\t// in\n    tag_321:\n        /* \"#utility.yul\":9644:9710   */\n      tag_322\n        /* \"#utility.yul\":9706:9708   */\n      0x60\n        /* \"#utility.yul\":9695:9704   */\n      dup4\n        /* \"#utility.yul\":9691:9709   */\n      add\n        /* \"#utility.yul\":9682:9688   */\n      dup6\n        /* \"#utility.yul\":9644:9710   */\n      tag_182\n      jump\t// in\n    tag_322:\n        /* \"#utility.yul\":9720:9793   */\n      tag_323\n        /* \"#utility.yul\":9788:9791   */\n      0x80\n        /* \"#utility.yul\":9777:9786   */\n      dup4\n        /* \"#utility.yul\":9773:9792   */\n      add\n        /* \"#utility.yul\":9764:9770   */\n      dup5\n        /* \"#utility.yul\":9720:9793   */\n      tag_184\n      jump\t// in\n    tag_323:\n        /* \"#utility.yul\":8948:9800   */\n      swap7\n      swap6\n      pop\n      pop\n      pop\n      pop\n      pop\n      pop\n      jump\t// out\n        /* \"#utility.yul\":9806:10016   */\n    tag_46:\n        /* \"#utility.yul\":9893:9897   */\n      0x00\n        /* \"#utility.yul\":9931:9933   */\n      0x20\n        /* \"#utility.yul\":9920:9929   */\n      dup3\n        /* \"#utility.yul\":9916:9934   */\n      add\n        /* \"#utility.yul\":9908:9934   */\n      swap1\n      pop\n        /* \"#utility.yul\":9944:10009   */\n      tag_325\n        /* \"#utility.yul\":10006:10007   */\n      0x00\n        /* \"#utility.yul\":9995:10004   */\n      dup4\n        /* \"#utility.yul\":9991:10008   */\n      add\n        /* \"#utility.yul\":9982:9988   */\n      dup5\n        /* \"#utility.yul\":9944:10009   */\n      tag_182\n      jump\t// in\n    tag_325:\n        /* \"#utility.yul\":9806:10016   */\n      swap3\n      swap2\n      pop\n      pop\n      jump\t// out\n        /* \"#utility.yul\":10022:10244   */\n    tag_50:\n        /* \"#utility.yul\":10115:10119   */\n      0x00\n        /* \"#utility.yul\":10153:10155   */\n      0x20\n        /* \"#utility.yul\":10142:10151   */\n      dup3\n        /* \"#utility.yul\":10138:10156   */\n      add\n        /* \"#utility.yul\":10130:10156   */\n      swap1\n      pop\n        /* \"#utility.yul\":10166:10237   */\n      tag_327\n        /* \"#utility.yul\":10234:10235   */\n      0x00\n        /* \"#utility.yul\":10223:10232   */\n      dup4\n        /* \"#utility.yul\":10219:10236   */\n      add\n        /* \"#utility.yul\":10210:10216   */\n      dup5\n        /* \"#utility.yul\":10166:10237   */\n      tag_184\n      jump\t// in\n    tag_327:\n        /* \"#utility.yul\":10022:10244   */\n      swap3\n      swap2\n      pop\n      pop\n      jump\t// out\n        /* \"#utility.yul\":10250:11084   */\n    tag_57:\n        /* \"#utility.yul\":10338:10344   */\n      0x00\n        /* \"#utility.yul\":10346:10352   */\n      0x00\n        /* \"#utility.yul\":10395:10397   */\n      0x40\n        /* \"#utility.yul\":10383:10392   */\n      dup4\n        /* \"#utility.yul\":10374:10381   */\n      dup6\n        /* \"#utility.yul\":10370:10393   */\n      sub\n        /* \"#utility.yul\":10366:10398   */\n      slt\n        /* \"#utility.yul\":10363:10482   */\n      iszero\n      tag_329\n      jumpi\n        /* \"#utility.yul\":10401:10480   */\n      tag_330\n      tag_154\n      jump\t// in\n    tag_330:\n        /* \"#utility.yul\":10363:10482   */\n    tag_329:\n        /* \"#utility.yul\":10549:10550   */\n      0x00\n        /* \"#utility.yul\":10538:10547   */\n      dup4\n        /* \"#utility.yul\":10534:10551   */\n      add\n        /* \"#utility.yul\":10521:10552   */\n      calldataload\n        /* \"#utility.yul\":10579:10597   */\n      0xffffffffffffffff\n        /* \"#utility.yul\":10571:10577   */\n      dup2\n        /* \"#utility.yul\":10568:10598   */\n      gt\n        /* \"#utility.yul\":10565:10682   */\n      iszero\n      tag_331\n      jumpi\n        /* \"#utility.yul\":10601:10680   */\n      tag_332\n      tag_155\n      jump\t// in\n    tag_332:\n        /* \"#utility.yul\":10565:10682   */\n    tag_331:\n        /* \"#utility.yul\":10706:10769   */\n      tag_333\n        /* \"#utility.yul\":10761:10768   */\n      dup6\n        /* \"#utility.yul\":10752:10758   */\n      dup3\n        /* \"#utility.yul\":10741:10750   */\n      dup7\n        /* \"#utility.yul\":10737:10759   */\n      add\n        /* \"#utility.yul\":10706:10769   */\n      tag_165\n      jump\t// in\n    tag_333:\n        /* \"#utility.yul\":10696:10769   */\n      swap3\n      pop\n        /* \"#utility.yul\":10492:10779   */\n      pop\n        /* \"#utility.yul\":10846:10848   */\n      0x20\n        /* \"#utility.yul\":10835:10844   */\n      dup4\n        /* \"#utility.yul\":10831:10849   */\n      add\n        /* \"#utility.yul\":10818:10850   */\n      calldataload\n        /* \"#utility.yul\":10877:10895   */\n      0xffffffffffffffff\n        /* \"#utility.yul\":10869:10875   */\n      dup2\n        /* \"#utility.yul\":10866:10896   */\n      gt\n        /* \"#utility.yul\":10863:10980   */\n      iszero\n      tag_334\n      jumpi\n        /* \"#utility.yul\":10899:10978   */\n      tag_335\n      tag_155\n      jump\t// in\n    tag_335:\n        /* \"#utility.yul\":10863:10980   */\n    tag_334:\n        /* \"#utility.yul\":11004:11067   */\n      tag_336\n        /* \"#utility.yul\":11059:11066   */\n      dup6\n        /* \"#utility.yul\":11050:11056   */\n      dup3\n        /* \"#utility.yul\":11039:11048   */\n      dup7\n        /* \"#utility.yul\":11035:11057   */\n      add\n        /* \"#utility.yul\":11004:11067   */\n      tag_165\n      jump\t// in\n    tag_336:\n        /* \"#utility.yul\":10994:11067   */\n      swap2\n      pop\n        /* \"#utility.yul\":10789:11077   */\n      pop\n        /* \"#utility.yul\":10250:11084   */\n      swap3\n      pop\n      swap3\n      swap1\n      pop\n      jump\t// out\n        /* \"#utility.yul\":11090:11212   */\n    tag_185:\n        /* \"#utility.yul\":11163:11187   */\n      tag_338\n        /* \"#utility.yul\":11181:11186   */\n      dup2\n        /* \"#utility.yul\":11163:11187   */\n      tag_183\n      jump\t// in\n    tag_338:\n        /* \"#utility.yul\":11156:11161   */\n      dup2\n        /* \"#utility.yul\":11153:11188   */\n      eq\n        /* \"#utility.yul\":11143:11206   */\n      tag_339\n      jumpi\n        /* \"#utility.yul\":11202:11203   */\n      0x00\n        /* \"#utility.yul\":11199:11200   */\n      0x00\n        /* \"#utility.yul\":11192:11204   */\n      revert\n        /* \"#utility.yul\":11143:11206   */\n    tag_339:\n        /* \"#utility.yul\":11090:11212   */\n      pop\n      jump\t// out\n        /* \"#utility.yul\":11218:11357   */\n    tag_186:\n        /* \"#utility.yul\":11264:11269   */\n      0x00\n        /* \"#utility.yul\":11302:11308   */\n      dup2\n        /* \"#utility.yul\":11289:11309   */\n      calldataload\n        /* \"#utility.yul\":11280:11309   */\n      swap1\n      pop\n        /* \"#utility.yul\":11318:11351   */\n      tag_341\n        /* \"#utility.yul\":11345:11350   */\n      dup2\n        /* \"#utility.yul\":11318:11351   */\n      tag_185\n      jump\t// in\n    tag_341:\n        /* \"#utility.yul\":11218:11357   */\n      swap3\n      swap2\n      pop\n      pop\n      jump\t// out\n        /* \"#utility.yul\":11363:11837   */\n    tag_64:\n        /* \"#utility.yul\":11431:11437   */\n      0x00\n        /* \"#utility.yul\":11439:11445   */\n      0x00\n        /* \"#utility.yul\":11488:11490   */\n      0x40\n        /* \"#utility.yul\":11476:11485   */\n      dup4\n        /* \"#utility.yul\":11467:11474   */\n      dup6\n        /* \"#utility.yul\":11463:11486   */\n      sub\n        /* \"#utility.yul\":11459:11491   */\n      slt\n        /* \"#utility.yul\":11456:11575   */\n      iszero\n      tag_343\n      jumpi\n        /* \"#utility.yul\":11494:11573   */\n      tag_344\n      tag_154\n      jump\t// in\n    tag_344:\n        /* \"#utility.yul\":11456:11575   */\n    tag_343:\n        /* \"#utility.yul\":11614:11615   */\n      0x00\n        /* \"#utility.yul\":11639:11692   */\n      tag_345\n        /* \"#utility.yul\":11684:11691   */\n      dup6\n        /* \"#utility.yul\":11675:11681   */\n      dup3\n        /* \"#utility.yul\":11664:11673   */\n      dup7\n        /* \"#utility.yul\":11660:11682   */\n      add\n        /* \"#utility.yul\":11639:11692   */\n      tag_171\n      jump\t// in\n    tag_345:\n        /* \"#utility.yul\":11629:11692   */\n      swap3\n      pop\n        /* \"#utility.yul\":11585:11702   */\n      pop\n        /* \"#utility.yul\":11741:11743   */\n      0x20\n        /* \"#utility.yul\":11767:11820   */\n      tag_346\n        /* \"#utility.yul\":11812:11819   */\n      dup6\n        /* \"#utility.yul\":11803:11809   */\n      dup3\n        /* \"#utility.yul\":11792:11801   */\n      dup7\n        /* \"#utility.yul\":11788:11810   */\n      add\n        /* \"#utility.yul\":11767:11820   */\n      tag_186\n      jump\t// in\n    tag_346:\n        /* \"#utility.yul\":11757:11820   */\n      swap2\n      pop\n        /* \"#utility.yul\":11712:11830   */\n      pop\n        /* \"#utility.yul\":11363:11837   */\n      swap3\n      pop\n      swap3\n      swap1\n      pop\n      jump\t// out\n        /* \"#utility.yul\":11843:12011   */\n    tag_187:\n        /* \"#utility.yul\":11983:12003   */\n      0x416c726561647920726567697374657265640000000000000000000000000000\n        /* \"#utility.yul\":11979:11980   */\n      0x00\n        /* \"#utility.yul\":11971:11977   */\n      dup3\n        /* \"#utility.yul\":11967:11981   */\n      add\n        /* \"#utility.yul\":11960:12004   */\n      mstore\n        /* \"#utility.yul\":11843:12011   */\n      pop\n      jump\t// out\n        /* \"#utility.yul\":12017:12383   */\n    tag_188:\n        /* \"#utility.yul\":12159:12162   */\n      0x00\n        /* \"#utility.yul\":12180:12247   */\n      tag_349\n        /* \"#utility.yul\":12244:12246   */\n      0x12\n        /* \"#utility.yul\":12239:12242   */\n      dup4\n        /* \"#utility.yul\":12180:12247   */\n      tag_174\n      jump\t// in\n    tag_349:\n        /* \"#utility.yul\":12173:12247   */\n      swap2\n      pop\n        /* \"#utility.yul\":12256:12349   */\n      tag_350\n        /* \"#utility.yul\":12345:12348   */\n      dup3\n        /* \"#utility.yul\":12256:12349   */\n      tag_187\n      jump\t// in\n    tag_350:\n        /* \"#utility.yul\":12374:12376   */\n      0x20\n        /* \"#utility.yul\":12369:12372   */\n      dup3\n        /* \"#utility.yul\":12365:12377   */\n      add\n        /* \"#utility.yul\":12358:12377   */\n      swap1\n      pop\n        /* \"#utility.yul\":12017:12383   */\n      swap2\n      swap1\n      pop\n      jump\t// out\n        /* \"#utility.yul\":12389:12808   */\n    tag_69:\n        /* \"#utility.yul\":12555:12559   */\n      0x00\n        /* \"#utility.yul\":12593:12595   */\n      0x20\n        /* \"#utility.yul\":12582:12591   */\n      dup3\n        /* \"#utility.yul\":12578:12596   */\n      add\n        /* \"#utility.yul\":12570:12596   */\n      swap1\n      pop\n        /* \"#utility.yul\":12642:12651   */\n      dup2\n        /* \"#utility.yul\":12636:12640   */\n      dup2\n        /* \"#utility.yul\":12632:12652   */\n      sub\n        /* \"#utility.yul\":12628:12629   */\n      0x00\n        /* \"#utility.yul\":12617:12626   */\n      dup4\n        /* \"#utility.yul\":12613:12630   */\n      add\n        /* \"#utility.yul\":12606:12653   */\n      mstore\n        /* \"#utility.yul\":12670:12801   */\n      tag_352\n        /* \"#utility.yul\":12796:12800   */\n      dup2\n        /* \"#utility.yul\":12670:12801   */\n      tag_188\n      jump\t// in\n    tag_352:\n        /* \"#utility.yul\":12662:12801   */\n      swap1\n      pop\n        /* \"#utility.yul\":12389:12808   */\n      swap2\n      swap1\n      pop\n      jump\t// out\n        /* \"#utility.yul\":12814:12977   */\n    tag_189:\n        /* \"#utility.yul\":12954:12969   */\n      0x4e616d6520726571756972656400000000000000000000000000000000000000\n        /* \"#utility.yul\":12950:12951   */\n      0x00\n        /* \"#utility.yul\":12942:12948   */\n      dup3\n        /* \"#utility.yul\":12938:12952   */\n      add\n        /* \"#utility.yul\":12931:12970   */\n      mstore\n        /* \"#utility.yul\":12814:12977   */\n      pop\n      jump\t// out\n        /* \"#utility.yul\":12983:13349   */\n    tag_190:\n        /* \"#utility.yul\":13125:13128   */\n      0x00\n        /* \"#utility.yul\":13146:13213   */\n      tag_355\n        /* \"#utility.yul\":13210:13212   */\n      0x0d\n        /* \"#utility.yul\":13205:13208   */\n      dup4\n        /* \"#utility.yul\":13146:13213   */\n      tag_174\n      jump\t// in\n    tag_355:\n        /* \"#utility.yul\":13139:13213   */\n      swap2\n      pop\n        /* \"#utility.yul\":13222:13315   */\n      tag_356\n        /* \"#utility.yul\":13311:13314   */\n      dup3\n        /* \"#utility.yul\":13222:13315   */\n      tag_189\n      jump\t// in\n    tag_356:\n        /* \"#utility.yul\":13340:13342   */\n      0x20\n        /* \"#utility.yul\":13335:13338   */\n      dup3\n        /* \"#utility.yul\":13331:13343   */\n      add\n        /* \"#utility.yul\":13324:13343   */\n      swap1\n      pop\n        /* \"#utility.yul\":12983:13349   */\n      swap2\n      swap1\n      pop\n      jump\t// out\n        /* \"#utility.yul\":13355:13774   */\n    tag_72:\n        /* \"#utility.yul\":13521:13525   */\n      0x00\n        /* \"#utility.yul\":13559:13561   */\n      0x20\n        /* \"#utility.yul\":13548:13557   */\n      dup3\n        /* \"#utility.yul\":13544:13562   */\n      add\n        /* \"#utility.yul\":13536:13562   */\n      swap1\n      pop\n        /* \"#utility.yul\":13608:13617   */\n      dup2\n        /* \"#utility.yul\":13602:13606   */\n      dup2\n        /* \"#utility.yul\":13598:13618   */\n      sub\n        /* \"#utility.yul\":13594:13595   */\n      0x00\n        /* \"#utility.yul\":13583:13592   */\n      dup4\n        /* \"#utility.yul\":13579:13596   */\n      add\n        /* \"#utility.yul\":13572:13619   */\n      mstore\n        /* \"#utility.yul\":13636:13767   */\n      tag_358\n        /* \"#utility.yul\":13762:13766   */\n      dup2\n        /* \"#utility.yul\":13636:13767   */\n      tag_190\n      jump\t// in\n    tag_358:\n        /* \"#utility.yul\":13628:13767   */\n      swap1\n      pop\n        /* \"#utility.yul\":13355:13774   */\n      swap2\n      swap1\n      pop\n      jump\t// out\n        /* \"#utility.yul\":13780:13960   */\n    tag_191:\n        /* \"#utility.yul\":13828:13905   */\n      0x4e487b7100000000000000000000000000000000000000000000000000000000\n        /* \"#utility.yul\":13825:13826   */\n      0x00\n        /* \"#utility.yul\":13818:13906   */\n      mstore\n        /* \"#utility.yul\":13925:13929   */\n      0x22\n        /* \"#utility.yul\":13922:13923   */\n      0x04\n        /* \"#utility.yul\":13915:13930   */\n      mstore\n        /* \"#utility.yul\":13949:13953   */\n      0x24\n        /* \"#utility.yul\":13946:13947   */\n      0x00\n        /* \"#utility.yul\":13939:13954   */\n      revert\n        /* \"#utility.yul\":13966:14286   */\n    tag_87:\n        /* \"#utility.yul\":14010:14016   */\n      0x00\n        /* \"#utility.yul\":14047:14048   */\n      0x02\n        /* \"#utility.yul\":14041:14045   */\n      dup3\n        /* \"#utility.yul\":14037:14049   */\n      div\n        /* \"#utility.yul\":14027:14049   */\n      swap1\n      pop\n        /* \"#utility.yul\":14094:14095   */\n      0x01\n        /* \"#utility.yul\":14088:14092   */\n      dup3\n        /* \"#utility.yul\":14084:14096   */\n      and\n        /* \"#utility.yul\":14115:14133   */\n      dup1\n        /* \"#utility.yul\":14105:14186   */\n      tag_361\n      jumpi\n        /* \"#utility.yul\":14171:14175   */\n      0x7f\n        /* \"#utility.yul\":14163:14169   */\n      dup3\n        /* \"#utility.yul\":14159:14176   */\n      and\n        /* \"#utility.yul\":14149:14176   */\n      swap2\n      pop\n        /* \"#utility.yul\":14105:14186   */\n    tag_361:\n        /* \"#utility.yul\":14233:14235   */\n      0x20\n        /* \"#utility.yul\":14225:14231   */\n      dup3\n        /* \"#utility.yul\":14222:14236   */\n      lt\n        /* \"#utility.yul\":14202:14220   */\n      dup2\n        /* \"#utility.yul\":14199:14237   */\n      sub\n        /* \"#utility.yul\":14196:14280   */\n      tag_362\n      jumpi\n        /* \"#utility.yul\":14252:14270   */\n      tag_363\n      tag_191\n      jump\t// in\n    tag_363:\n        /* \"#utility.yul\":14196:14280   */\n    tag_362:\n        /* \"#utility.yul\":14017:14286   */\n      pop\n        /* \"#utility.yul\":13966:14286   */\n      swap2\n      swap1\n      pop\n      jump\t// out\n        /* \"#utility.yul\":14292:14433   */\n    tag_192:\n        /* \"#utility.yul\":14341:14345   */\n      0x00\n        /* \"#utility.yul\":14364:14367   */\n      dup2\n        /* \"#utility.yul\":14356:14367   */\n      swap1\n      pop\n        /* \"#utility.yul\":14387:14390   */\n      dup2\n        /* \"#utility.yul\":14384:14385   */\n      0x00\n        /* \"#utility.yul\":14377:14391   */\n      mstore\n        /* \"#utility.yul\":14421:14425   */\n      0x20\n        /* \"#utility.yul\":14418:14419   */\n      0x00\n        /* \"#utility.yul\":14408:14426   */\n      keccak256\n        /* \"#utility.yul\":14400:14426   */\n      swap1\n      pop\n        /* \"#utility.yul\":14292:14433   */\n      swap2\n      swap1\n      pop\n      jump\t// out\n        /* \"#utility.yul\":14439:14532   */\n    tag_193:\n        /* \"#utility.yul\":14476:14482   */\n      0x00\n        /* \"#utility.yul\":14523:14525   */\n      0x20\n        /* \"#utility.yul\":14518:14520   */\n      0x1f\n        /* \"#utility.yul\":14511:14516   */\n      dup4\n        /* \"#utility.yul\":14507:14521   */\n      add\n        /* \"#utility.yul\":14503:14526   */\n      div\n        /* \"#utility.yul\":14493:14526   */\n      swap1\n      pop\n        /* \"#utility.yul\":14439:14532   */\n      swap2\n      swap1\n      pop\n      jump\t// out\n        /* \"#utility.yul\":14538:14645   */\n    tag_194:\n        /* \"#utility.yul\":14582:14590   */\n      0x00\n        /* \"#utility.yul\":14632:14637   */\n      dup3\n        /* \"#utility.yul\":14626:14630   */\n      dup3\n        /* \"#utility.yul\":14622:14638   */\n      shl\n        /* \"#utility.yul\":14601:14638   */\n      swap1\n      pop\n        /* \"#utility.yul\":14538:14645   */\n      swap3\n      swap2\n      pop\n      pop\n      jump\t// out\n        /* \"#utility.yul\":14651:15044   */\n    tag_195:\n        /* \"#utility.yul\":14720:14726   */\n      0x00\n        /* \"#utility.yul\":14770:14771   */\n      0x08\n        /* \"#utility.yul\":14758:14768   */\n      dup4\n        /* \"#utility.yul\":14754:14772   */\n      mul\n        /* \"#utility.yul\":14793:14890   */\n      tag_368\n        /* \"#utility.yul\":14823:14889   */\n      0xffffffffffffffffffffffffffffffffffffffffffffffffffffffffffffffff\n        /* \"#utility.yul\":14812:14821   */\n      dup3\n        /* \"#utility.yul\":14793:14890   */\n      tag_194\n      jump\t// in\n    tag_368:\n        /* \"#utility.yul\":14911:14950   */\n      tag_369\n        /* \"#utility.yul\":14941:14949   */\n      dup7\n        /* \"#utility.yul\":14930:14939   */\n      dup4\n        /* \"#utility.yul\":14911:14950   */\n      tag_194\n      jump\t// in\n    tag_369:\n        /* \"#utility.yul\":14899:14950   */\n      swap6\n      pop\n        /* \"#utility.yul\":14983:14987   */\n      dup1\n        /* \"#utility.yul\":14979:14988   */\n      not\n        /* \"#utility.yul\":14972:14977   */\n      dup5\n        /* \"#utility.yul\":14968:14989   */\n      and\n        /* \"#utility.yul\":14959:14989   */\n      swap4\n      pop\n        /* \"#utility.yul\":15032:15036   */\n      dup1\n        /* \"#utility.yul\":15022:15030   */\n      dup7\n        /* \"#utility.yul\":15018:15037   */\n      and\n        /* \"#utility.yul\":15011:15016   */\n      dup5\n        /* \"#utility.yul\":15008:15038   */\n      or\n        /* \"#utility.yul\":14998:15038   */\n      swap3\n      pop\n        /* \"#utility.yul\":14727:15044   */\n      pop\n      pop\n        /* \"#utility.yul\":14651:15044   */\n      swap4\n      swap3\n      pop\n      pop\n      pop\n      jump\t// out\n        /* \"#utility.yul\":15050:15110   */\n    tag_196:\n        /* \"#utility.yul\":15078:15081   */\n      0x00\n        /* \"#utility.yul\":15099:15104   */\n      dup2\n        /* \"#utility.yul\":15092:15104   */\n      swap1\n      pop\n        /* \"#utility.yul\":15050:15110   */\n      swap2\n      swap1\n      pop\n      jump\t// out\n        /* \"#utility.yul\":15116:15258   */\n    tag_197:\n        /* \"#utility.yul\":15166:15175   */\n      0x00\n        /* \"#utility.yul\":15199:15252   */\n      tag_372\n        /* \"#utility.yul\":15217:15251   */\n      tag_373\n        /* \"#utility.yul\":15226:15250   */\n      tag_374\n        /* \"#utility.yul\":15244:15249   */\n      dup5\n        /* \"#utility.yul\":15226:15250   */\n      tag_183\n      jump\t// in\n    tag_374:\n        /* \"#utility.yul\":15217:15251   */\n      tag_196\n      jump\t// in\n    tag_373:\n        /* \"#utility.yul\":15199:15252   */\n      tag_183\n      jump\t// in\n    tag_372:\n        /* \"#utility.yul\":15186:15252   */\n      swap1\n      pop\n        /* \"#utility.yul\":15116:15258   */\n      swap2\n      swap1\n      pop\n      jump\t// out\n        /* \"#utility.yul\":15264:15339   */\n    tag_198:\n        /* \"#utility.yul\":15307:15310   */\n      0x00\n        /* \"#utility.yul\":15328:15333   */\n      dup2\n        /* \"#utility.yul\":15321:15333   */\n      swap1\n      pop\n        /* \"#utility.yul\":15264:15339   */\n      swap2\n      swap1\n      pop\n      jump\t// out\n        /* \"#utility.yul\":15345:15614   */\n    tag_199:\n        /* \"#utility.yul\":15455:15494   */\n      tag_377\n        /* \"#utility.yul\":15486:15493   */\n      dup4\n        /* \"#utility.yul\":15455:15494   */\n      tag_197\n      jump\t// in\n    tag_377:\n        /* \"#utility.yul\":15516:15607   */\n      tag_378\n        /* \"#utility.yul\":15565:15606   */\n      tag_379\n        /* \"#utility.yul\":15589:15605   */\n      dup3\n        /* \"#utility.yul\":15565:15606   */\n      tag_198\n      jump\t// in\n    tag_379:\n        /* \"#utility.yul\":15557:15563   */\n      dup5\n        /* \"#utility.yul\":15550:15554   */\n      dup5\n        /* \"#utility.yul\":15544:15555   */\n      sload\n        /* \"#utility.yul\":15516:15607   */\n      tag_195\n      jump\t// in\n    tag_378:\n        /* \"#utility.yul\":15510:15514   */\n      dup3\n        /* \"#utility.yul\":15503:15608   */\n      sstore\n        /* \"#utility.yul\":15421:15614   */\n      pop\n        /* \"#utility.yul\":15345:15614   */\n      pop\n      pop\n      pop\n      jump\t// out\n        /* \"#utility.yul\":15620:15693   */\n    tag_200:\n        /* \"#utility.yul\":15665:15668   */\n      0x00\n        /* \"#utility.yul\":15686:15687   */\n      0x00\n        /* \"#utility.yul\":15679:15687   */\n      swap1\n      pop\n        /* \"#utility.yul\":15620:15693   */\n      swap1\n      jump\t// out\n        /* \"#utility.yul\":15699:15888   */\n    tag_201:\n        /* \"#utility.yul\":15776:15808   */\n      tag_382\n      tag_200\n      jump\t// in\n    tag_382:\n        /* \"#utility.yul\":15817:15882   */\n      tag_383\n        /* \"#utility.yul\":15875:15881   */\n      dup2\n        /* \"#utility.yul\":15867:15873   */\n      dup5\n        /* \"#utility.yul\":15861:15865   */\n      dup5\n        /* \"#utility.yul\":15817:15882   */\n      tag_199\n      jump\t// in\n    tag_383:\n        /* \"#utility.yul\":15752:15888   */\n      pop\n        /* \"#utility.yul\":15699:15888   */\n      pop\n      pop\n      jump\t// out\n        /* \"#utility.yul\":15894:16080   */\n    tag_202:\n        /* \"#utility.yul\":15954:16074   */\n    tag_385:\n        /* \"#utility.yul\":15971:15974   */\n      dup2\n        /* \"#utility.yul\":15964:15969   */\n      dup2\n        /* \"#utility.yul\":15961:15975   */\n      lt\n        /* \"#utility.yul\":15954:16074   */\n      iszero\n      tag_387\n      jumpi\n        /* \"#utility.yul\":16025:16064   */\n      tag_388\n        /* \"#utility.yul\":16062:16063   */\n      0x00\n        /* \"#utility.yul\":16055:16060   */\n      dup3\n        /* \"#utility.yul\":16025:16064   */\n      tag_201\n      jump\t// in\n    tag_388:\n        /* \"#utility.yul\":15998:15999   */\n      0x01\n        /* \"#utility.yul\":15991:15996   */\n      dup2\n        /* \"#utility.yul\":15987:16000   */\n      add\n        /* \"#utility.yul\":15978:16000   */\n      swap1\n      pop\n        /* \"#utility.yul\":15954:16074   */\n      jump(tag_385)\n    tag_387:\n        /* \"#utility.yul\":15894:16080   */\n      pop\n      pop\n      jump\t// out\n        /* \"#utility.yul\":16086:16629   */\n    tag_203:\n        /* \"#utility.yul\":16187:16189   */\n      0x1f\n        /* \"#utility.yul\":16182:16185   */\n      dup3\n        /* \"#utility.yul\":16179:16190   */\n      gt\n        /* \"#utility.yul\":16176:16622   */\n      iszero\n      tag_390\n      jumpi\n        /* \"#utility.yul\":16221:16259   */\n      tag_391\n        /* \"#utility.yul\":16253:16258   */\n      dup2\n        /* \"#utility.yul\":16221:16259   */\n      tag_192\n      jump\t// in\n    tag_391:\n        /* \"#utility.yul\":16305:16334   */\n      tag_392\n        /* \"#utility.yul\":16323:16333   */\n      dup5\n        /* \"#utility.yul\":16305:16334   */\n      tag_193\n      jump\t// in\n    tag_392:\n        /* \"#utility.yul\":16295:16303   */\n      dup2\n        /* \"#utility.yul\":16291:16335   */\n      add\n        /* \"#utility.yul\":16488:16490   */\n      0x20\n        /* \"#utility.yul\":16476:16486   */\n      dup6\n        /* \"#utility.yul\":16473:16491   */\n      lt\n        /* \"#utility.yul\":16470:16519   */\n      iszero\n      tag_393\n      jumpi\n        /* \"#utility.yul\":16509:16517   */\n      dup2\n        /* \"#utility.yul\":16494:16517   */\n      swap1\n      pop\n        /* \"#utility.yul\":16470:16519   */\n    tag_393:\n        /* \"#utility.yul\":16532:16612   */\n      tag_394\n        /* \"#utility.yul\":16588:16610   */\n      tag_395\n        /* \"#utility.yul\":16606:16609   */\n      dup6\n        /* \"#utility.yul\":16588:16610   */\n      tag_193\n      jump\t// in\n    tag_395:\n        /* \"#utility.yul\":16578:16586   */\n      dup4\n        /* \"#utility.yul\":16574:16611   */\n      add\n        /* \"#utility.yul\":16561:16572   */\n      dup3\n        /* \"#utility.yul\":16532:16612   */\n      tag_202\n      jump\t// in\n    tag_394:\n        /* \"#utility.yul\":16191:16622   */\n      pop\n      pop\n        /* \"#utility.yul\":16176:16622   */\n    tag_390:\n        /* \"#utility.yul\":16086:16629   */\n      pop\n      pop\n      pop\n      jump\t// out\n        /* \"#utility.yul\":16635:16752   */\n    tag_204:\n        /* \"#utility.yul\":16689:16697   */\n      0x00\n        /* \"#utility.yul\":16739:16744   */\n      dup3\n        /* \"#utility.yul\":16733:16737   */\n      dup3\n        /* \"#utility.yul\":16729:16745   */\n      shr\n        /* \"#utility.yul\":16708:16745   */\n      swap1\n      pop\n        /* \"#utility.yul\":16635:16752   */\n      swap3\n      swap2\n      pop\n      pop\n      jump\t// out\n        /* \"#utility.yul\":16758:16927   */\n    tag_205:\n        /* \"#utility.yul\":16802:16808   */\n      0x00\n        /* \"#utility.yul\":16835:16886   */\n      tag_398\n        /* \"#utility.yul\":16883:16884   */\n      0x00\n        /* \"#utility.yul\":16879:16885   */\n      not\n        /* \"#utility.yul\":16871:16876   */\n      dup5\n        /* \"#utility.yul\":16868:16869   */\n      0x08\n        /* \"#utility.yul\":16864:16877   */\n      mul\n        /* \"#utility.yul\":16835:16886   */\n      tag_204\n      jump\t// in\n    tag_398:\n        /* \"#utility.yul\":16831:16887   */\n      not\n        /* \"#utility.yul\":16916:16920   */\n      dup1\n        /* \"#utility.yul\":16910:16914   */\n      dup4\n        /* \"#utility.yul\":16906:16921   */\n      and\n        /* \"#utility.yul\":16896:16921   */\n      swap2\n      pop\n        /* \"#utility.yul\":16809:16927   */\n      pop\n        /* \"#utility.yul\":16758:16927   */\n      swap3\n      swap2\n      pop\n      pop\n      jump\t// out\n        /* \"#utility.yul\":16932:17227   */\n    tag_206:\n        /* \"#utility.yul\":17008:17012   */\n      0x00\n        /* \"#utility.yul\":17154:17183   */\n      tag_400\n        /* \"#utility.yul\":17179:17182   */\n      dup4\n        /* \"#utility.yul\":17173:17177   */\n      dup4\n        /* \"#utility.yul\":17154:17183   */\n      tag_205\n      jump\t// in\n    tag_400:\n        /* \"#utility.yul\":17146:17183   */\n      swap2\n      pop\n        /* \"#utility.yul\":17216:17219   */\n      dup3\n        /* \"#utility.yul\":17213:17214   */\n      0x02\n        /* \"#utility.yul\":17209:17220   */\n      mul\n        /* \"#utility.yul\":17203:17207   */\n      dup3\n        /* \"#utility.yul\":17200:17221   */\n      or\n        /* \"#utility.yul\":17192:17221   */\n      swap1\n      pop\n        /* \"#utility.yul\":16932:17227   */\n      swap3\n      swap2\n      pop\n      pop\n      jump\t// out\n        /* \"#utility.yul\":17232:18627   */\n    tag_77:\n        /* \"#utility.yul\":17349:17386   */\n      tag_402\n        /* \"#utility.yul\":17382:17385   */\n      dup3\n        /* \"#utility.yul\":17349:17386   */\n      tag_173\n      jump\t// in\n    tag_402:\n        /* \"#utility.yul\":17451:17469   */\n      0xffffffffffffffff\n        /* \"#utility.yul\":17443:17449   */\n      dup2\n        /* \"#utility.yul\":17440:17470   */\n      gt\n        /* \"#utility.yul\":17437:17493   */\n      iszero\n      tag_403\n      jumpi\n        /* \"#utility.yul\":17473:17491   */\n      tag_404\n      tag_159\n      jump\t// in\n    tag_404:\n        /* \"#utility.yul\":17437:17493   */\n    tag_403:\n        /* \"#utility.yul\":17517:17555   */\n      tag_405\n        /* \"#utility.yul\":17549:17553   */\n      dup3\n        /* \"#utility.yul\":17543:17554   */\n      sload\n        /* \"#utility.yul\":17517:17555   */\n      tag_87\n      jump\t// in\n    tag_405:\n        /* \"#utility.yul\":17602:17669   */\n      tag_406\n        /* \"#utility.yul\":17662:17668   */\n      dup3\n        /* \"#utility.yul\":17654:17660   */\n      dup3\n        /* \"#utility.yul\":17648:17652   */\n      dup6\n        /* \"#utility.yul\":17602:17669   */\n      tag_203\n      jump\t// in\n    tag_406:\n        /* \"#utility.yul\":17696:17697   */\n      0x00\n        /* \"#utility.yul\":17720:17724   */\n      0x20\n        /* \"#utility.yul\":17707:17724   */\n      swap1\n      pop\n        /* \"#utility.yul\":17752:17754   */\n      0x1f\n        /* \"#utility.yul\":17744:17750   */\n      dup4\n        /* \"#utility.yul\":17741:17755   */\n      gt\n        /* \"#utility.yul\":17769:17770   */\n      0x01\n        /* \"#utility.yul\":17764:18382   */\n      dup2\n      eq\n      tag_408\n      jumpi\n        /* \"#utility.yul\":18426:18427   */\n      0x00\n        /* \"#utility.yul\":18443:18449   */\n      dup5\n        /* \"#utility.yul\":18440:18517   */\n      iszero\n      tag_409\n      jumpi\n        /* \"#utility.yul\":18492:18501   */\n      dup3\n        /* \"#utility.yul\":18487:18490   */\n      dup8\n        /* \"#utility.yul\":18483:18502   */\n      add\n        /* \"#utility.yul\":18477:18503   */\n      mload\n        /* \"#utility.yul\":18468:18503   */\n      swap1\n      pop\n        /* \"#utility.yul\":18440:18517   */\n    tag_409:\n        /* \"#utility.yul\":18543:18610   */\n      tag_410\n        /* \"#utility.yul\":18603:18609   */\n      dup6\n        /* \"#utility.yul\":18596:18601   */\n      dup3\n        /* \"#utility.yul\":18543:18610   */\n      tag_206\n      jump\t// in\n    tag_410:\n        /* \"#utility.yul\":18537:18541   */\n      dup7\n        /* \"#utility.yul\":18530:18611   */\n      sstore\n        /* \"#utility.yul\":18399:18621   */\n      pop\n        /* \"#utility.yul\":17734:18621   */\n      jump(tag_407)\n        /* \"#utility.yul\":17764:18382   */\n    tag_408:\n        /* \"#utility.yul\":17816:17820   */\n      0x1f\n        /* \"#utility.yul\":17812:17821   */\n      not\n        /* \"#utility.yul\":17804:17810   */\n      dup5\n        /* \"#utility.yul\":17800:17822   */\n      and\n        /* \"#utility.yul\":17850:17887   */\n      tag_411\n        /* \"#utility.yul\":17882:17886   */\n      dup7\n        /* \"#utility.yul\":17850:17887   */\n      tag_192\n      jump\t// in\n    tag_411:\n        /* \"#utility.yul\":17909:17910   */\n      0x00\n        /* \"#utility.yul\":17923:18131   */\n    tag_412:\n        /* \"#utility.yul\":17937:17944   */\n      dup3\n        /* \"#utility.yul\":17934:17935   */\n      dup2\n        /* \"#utility.yul\":17931:17945   */\n      lt\n        /* \"#utility.yul\":17923:18131   */\n      iszero\n      tag_414\n      jumpi\n        /* \"#utility.yul\":18016:18025   */\n      dup5\n        /* \"#utility.yul\":18011:18014   */\n      dup10\n        /* \"#utility.yul\":18007:18026   */\n      add\n        /* \"#utility.yul\":18001:18027   */\n      mload\n        /* \"#utility.yul\":17993:17999   */\n      dup3\n        /* \"#utility.yul\":17986:18028   */\n      sstore\n        /* \"#utility.yul\":18067:18068   */\n      0x01\n        /* \"#utility.yul\":18059:18065   */\n      dup3\n        /* \"#utility.yul\":18055:18069   */\n      add\n        /* \"#utility.yul\":18045:18069   */\n      swap2\n      pop\n        /* \"#utility.yul\":18114:18116   */\n      0x20\n        /* \"#utility.yul\":18103:18112   */\n      dup6\n        /* \"#utility.yul\":18099:18117   */\n      add\n        /* \"#utility.yul\":18086:18117   */\n      swap5\n      pop\n        /* \"#utility.yul\":17960:17964   */\n      0x20\n        /* \"#utility.yul\":17957:17958   */\n      dup2\n        /* \"#utility.yul\":17953:17965   */\n      add\n        /* \"#utility.yul\":17948:17965   */\n      swap1\n      pop\n        /* \"#utility.yul\":17923:18131   */\n      jump(tag_412)\n    tag_414:\n        /* \"#utility.yul\":18159:18165   */\n      dup7\n        /* \"#utility.yul\":18150:18157   */\n      dup4\n        /* \"#utility.yul\":18147:18166   */\n      lt\n        /* \"#utility.yul\":18144:18323   */\n      iszero\n      tag_415\n      jumpi\n        /* \"#utility.yul\":18217:18226   */\n      dup5\n        /* \"#utility.yul\":18212:18215   */\n      dup10\n        /* \"#utility.yul\":18208:18227   */\n      add\n        /* \"#utility.yul\":18202:18228   */\n      mload\n        /* \"#utility.yul\":18260:18308   */\n      tag_416\n        /* \"#utility.yul\":18302:18306   */\n      0x1f\n        /* \"#utility.yul\":18294:18300   */\n      dup10\n        /* \"#utility.yul\":18290:18307   */\n      and\n        /* \"#utility.yul\":18279:18288   */\n      dup3\n        /* \"#utility.yul\":18260:18308   */\n      tag_205\n      jump\t// in\n    tag_416:\n        /* \"#utility.yul\":18252:18258   */\n      dup4\n        /* \"#utility.yul\":18245:18309   */\n      sstore\n        /* \"#utility.yul\":18167:18323   */\n      pop\n        /* \"#utility.yul\":18144:18323   */\n    tag_415:\n        /* \"#utility.yul\":18369:18370   */\n      0x01\n        /* \"#utility.yul\":18365:18366   */\n      0x02\n        /* \"#utility.yul\":18357:18363   */\n      dup9\n        /* \"#utility.yul\":18353:18367   */\n      mul\n        /* \"#utility.yul\":18349:18371   */\n      add\n        /* \"#utility.yul\":18343:18347   */\n      dup9\n        /* \"#utility.yul\":18336:18372   */\n      sstore\n        /* \"#utility.yul\":17771:18382   */\n      pop\n      pop\n      pop\n        /* \"#utility.yul\":17734:18621   */\n    tag_407:\n      pop\n        /* \"#utility.yul\":17324:18627   */\n      pop\n      pop\n      pop\n        /* \"#utility.yul\":17232:18627   */\n      pop\n      pop\n      jump\t// out\n        /* \"#utility.yul\":18633:18813   */\n    tag_207:\n        /* \"#utility.yul\":18681:18758   */\n      0x4e487b7100000000000000000000000000000000000000000000000000000000\n        /* \"#utility.yul\":18678:18679   */\n      0x00\n        /* \"#utility.yul\":18671:18759   */\n      mstore\n        /* \"#utility.yul\":18778:18782   */\n      0x11\n        /* \"#utility.yul\":18775:18776   */\n      0x04\n        /* \"#utility.yul\":18768:18783   */\n      mstore\n        /* \"#utility.yul\":18802:18806   */\n      0x24\n        /* \"#utility.yul\":18799:18800   */\n      0x00\n        /* \"#utility.yul\":18792:18807   */\n      revert\n        /* \"#utility.yul\":18819:19052   */\n    tag_83:\n        /* \"#utility.yul\":18858:18861   */\n      0x00\n        /* \"#utility.yul\":18881:18905   */\n      tag_419\n        /* \"#utility.yul\":18899:18904   */\n      dup3\n        /* \"#utility.yul\":18881:18905   */\n      tag_183\n      jump\t// in\n    tag_419:\n        /* \"#utility.yul\":18872:18905   */\n      swap2\n      pop\n        /* \"#utility.yul\":18927:18993   */\n      0xffffffffffffffffffffffffffffffffffffffffffffffffffffffffffffffff\n        /* \"#utility.yul\":18920:18925   */\n      dup3\n        /* \"#utility.yul\":18917:18994   */\n      sub\n        /* \"#utility.yul\":18914:19017   */\n      tag_420\n      jumpi\n        /* \"#utility.yul\":18997:19015   */\n      tag_421\n      tag_207\n      jump\t// in\n    tag_421:\n        /* \"#utility.yul\":18914:19017   */\n    tag_420:\n        /* \"#utility.yul\":19044:19045   */\n      0x01\n        /* \"#utility.yul\":19037:19042   */\n      dup3\n        /* \"#utility.yul\":19033:19046   */\n      add\n        /* \"#utility.yul\":19026:19046   */\n      swap1\n      pop\n        /* \"#utility.yul\":18819:19052   */\n      swap2\n      swap1\n      pop\n      jump\t// out\n        /* \"#utility.yul\":19058:19499   */\n    tag_85:\n        /* \"#utility.yul\":19208:19212   */\n      0x00\n        /* \"#utility.yul\":19246:19248   */\n      0x40\n        /* \"#utility.yul\":19235:19244   */\n      dup3\n        /* \"#utility.yul\":19231:19249   */\n      add\n        /* \"#utility.yul\":19223:19249   */\n      swap1\n      pop\n        /* \"#utility.yul\":19295:19304   */\n      dup2\n        /* \"#utility.yul\":19289:19293   */\n      dup2\n        /* \"#utility.yul\":19285:19305   */\n      sub\n        /* \"#utility.yul\":19281:19282   */\n      0x00\n        /* \"#utility.yul\":19270:19279   */\n      dup4\n        /* \"#utility.yul\":19266:19283   */\n      add\n        /* \"#utility.yul\":19259:19306   */\n      mstore\n        /* \"#utility.yul\":19323:19401   */\n      tag_423\n        /* \"#utility.yul\":19396:19400   */\n      dup2\n        /* \"#utility.yul\":19387:19393   */\n      dup6\n        /* \"#utility.yul\":19323:19401   */\n      tag_176\n      jump\t// in\n    tag_423:\n        /* \"#utility.yul\":19315:19401   */\n      swap1\n      pop\n        /* \"#utility.yul\":19411:19492   */\n      tag_424\n        /* \"#utility.yul\":19488:19490   */\n      0x20\n        /* \"#utility.yul\":19477:19486   */\n      dup4\n        /* \"#utility.yul\":19473:19491   */\n      add\n        /* \"#utility.yul\":19464:19470   */\n      dup5\n        /* \"#utility.yul\":19411:19492   */\n      tag_180\n      jump\t// in\n    tag_424:\n        /* \"#utility.yul\":19058:19499   */\n      swap4\n      swap3\n      pop\n      pop\n      pop\n      jump\t// out\n        /* \"#utility.yul\":19505:19665   */\n    tag_208:\n        /* \"#utility.yul\":19645:19657   */\n      0x4f6e6c79206f776e657200000000000000000000000000000000000000000000\n        /* \"#utility.yul\":19641:19642   */\n      0x00\n        /* \"#utility.yul\":19633:19639   */\n      dup3\n        /* \"#utility.yul\":19629:19643   */\n      add\n        /* \"#utility.yul\":19622:19658   */\n      mstore\n        /* \"#utility.yul\":19505:19665   */\n      pop\n      jump\t// out\n        /* \"#utility.yul\":19671:20037   */\n    tag_209:\n        /* \"#utility.yul\":19813:19816   */\n      0x00\n        /* \"#utility.yul\":19834:19901   */\n      tag_427\n        /* \"#utility.yul\":19898:19900   */\n      0x0a\n        /* \"#utility.yul\":19893:19896   */\n      dup4\n        /* \"#utility.yul\":19834:19901   */\n      tag_174\n      jump\t// in\n    tag_427:\n        /* \"#utility.yul\":19827:19901   */\n      swap2\n      pop\n        /* \"#utility.yul\":19910:20003   */\n      tag_428\n        /* \"#utility.yul\":19999:20002   */\n      dup3\n        /* \"#utility.yul\":19910:20003   */\n      tag_208\n      jump\t// in\n    tag_428:\n        /* \"#utility.yul\":20028:20030   */\n      0x20\n        /* \"#utility.yul\":20023:20026   */\n      dup3\n        /* \"#utility.yul\":20019:20031   */\n      add\n        /* \"#utility.yul\":20012:20031   */\n      swap1\n      pop\n        /* \"#utility.yul\":19671:20037   */\n      swap2\n      swap1\n      pop\n      jump\t// out\n        /* \"#utility.yul\":20043:20462   */\n    tag_105:\n        /* \"#utility.yul\":20209:20213   */\n      0x00\n        /* \"#utility.yul\":20247:20249   */\n      0x20\n        /* \"#utility.yul\":20236:20245   */\n      dup3\n        /* \"#utility.yul\":20232:20250   */\n      add\n        /* \"#utility.yul\":20224:20250   */\n      swap1\n      pop\n        /* \"#utility.yul\":20296:20305   */\n      dup2\n        /* \"#utility.yul\":20290:20294   */\n      dup2\n        /* \"#utility.yul\":20286:20306   */\n      sub\n        /* \"#utility.yul\":20282:20283   */\n      0x00\n        /* \"#utility.yul\":20271:20280   */\n      dup4\n        /* \"#utility.yul\":20267:20284   */\n      add\n        /* \"#utility.yul\":20260:20307   */\n      mstore\n        /* \"#utility.yul\":20324:20455   */\n      tag_430\n        /* \"#utility.yul\":20450:20454   */\n      dup2\n        /* \"#utility.yul\":20324:20455   */\n      tag_209\n      jump\t// in\n    tag_430:\n        /* \"#utility.yul\":20316:20455   */\n      swap1\n      pop\n        /* \"#utility.yul\":20043:20462   */\n      swap2\n      swap1\n      pop\n      jump\t// out\n        /* \"#utility.yul\":20468:20637   */\n    tag_210:\n        /* \"#utility.yul\":20608:20629   */\n      0x55736572206e6f74207265676973746572656400000000000000000000000000\n        /* \"#utility.yul\":20604:20605   */\n      0x00\n        /* \"#utility.yul\":20596:20602   */\n      dup3\n        /* \"#utility.yul\":20592:20606   */\n      add\n        /* \"#utility.yul\":20585:20630   */\n      mstore\n        /* \"#utility.yul\":20468:20637   */\n      pop\n      jump\t// out\n        /* \"#utility.yul\":20643:21009   */\n    tag_211:\n        /* \"#utility.yul\":20785:20788   */\n      0x00\n        /* \"#utility.yul\":20806:20873   */\n      tag_433\n        /* \"#utility.yul\":20870:20872   */\n      0x13\n        /* \"#utility.yul\":20865:20868   */\n      dup4\n        /* \"#utility.yul\":20806:20873   */\n      tag_174\n      jump\t// in\n    tag_433:\n        /* \"#utility.yul\":20799:20873   */\n      swap2\n      pop\n        /* \"#utility.yul\":20882:20975   */\n      tag_434\n        /* \"#utility.yul\":20971:20974   */\n      dup3\n        /* \"#utility.yul\":20882:20975   */\n      tag_210\n      jump\t// in\n    tag_434:\n        /* \"#utility.yul\":21000:21002   */\n      0x20\n        /* \"#utility.yul\":20995:20998   */\n      dup3\n        /* \"#utility.yul\":20991:21003   */\n      add\n        /* \"#utility.yul\":20984:21003   */\n      swap1\n      pop\n        /* \"#utility.yul\":20643:21009   */\n      swap2\n      swap1\n      pop\n      jump\t// out\n        /* \"#utility.yul\":21015:21434   */\n    tag_113:\n        /* \"#utility.yul\":21181:21185   */\n      0x00\n        /* \"#utility.yul\":21219:21221   */\n      0x20\n        /* \"#utility.yul\":21208:21217   */\n      dup3\n        /* \"#utility.yul\":21204:21222   */\n      add\n        /* \"#utility.yul\":21196:21222   */\n      swap1\n      pop\n        /* \"#utility.yul\":21268:21277   */\n      dup2\n        /* \"#utility.yul\":21262:21266   */\n      dup2\n        /* \"#utility.yul\":21258:21278   */\n      sub\n        /* \"#utility.yul\":21254:21255   */\n      0x00\n        /* \"#utility.yul\":21243:21252   */\n      dup4\n        /* \"#utility.yul\":21239:21256   */\n      add\n        /* \"#utility.yul\":21232:21279   */\n      mstore\n        /* \"#utility.yul\":21296:21427   */\n      tag_436\n        /* \"#utility.yul\":21422:21426   */\n      dup2\n        /* \"#utility.yul\":21296:21427   */\n      tag_211\n      jump\t// in\n    tag_436:\n        /* \"#utility.yul\":21288:21427   */\n      swap1\n      pop\n        /* \"#utility.yul\":21015:21434   */\n      swap2\n      swap1\n      pop\n      jump\t// out\n        /* \"#utility.yul\":21440:21604   */\n    tag_212:\n        /* \"#utility.yul\":21580:21596   */\n      0x4e6f742072656769737465726564000000000000000000000000000000000000\n        /* \"#utility.yul\":21576:21577   */\n      0x00\n        /* \"#utility.yul\":21568:21574   */\n      dup3\n        /* \"#utility.yul\":21564:21578   */\n      add\n        /* \"#utility.yul\":21557:21597   */\n      mstore\n        /* \"#utility.yul\":21440:21604   */\n      pop\n      jump\t// out\n        /* \"#utility.yul\":21610:21976   */\n    tag_213:\n        /* \"#utility.yul\":21752:21755   */\n      0x00\n        /* \"#utility.yul\":21773:21840   */\n      tag_439\n        /* \"#utility.yul\":21837:21839   */\n      0x0e\n        /* \"#utility.yul\":21832:21835   */\n      dup4\n        /* \"#utility.yul\":21773:21840   */\n      tag_174\n      jump\t// in\n    tag_439:\n        /* \"#utility.yul\":21766:21840   */\n      swap2\n      pop\n        /* \"#utility.yul\":21849:21942   */\n      tag_440\n        /* \"#utility.yul\":21938:21941   */\n      dup3\n        /* \"#utility.yul\":21849:21942   */\n      tag_212\n      jump\t// in\n    tag_440:\n        /* \"#utility.yul\":21967:21969   */\n      0x20\n        /* \"#utility.yul\":21962:21965   */\n      dup3\n        /* \"#utility.yul\":21958:21970   */\n      add\n        /* \"#utility.yul\":21951:21970   */\n      swap1\n      pop\n        /* \"#utility.yul\":21610:21976   */\n      swap2\n      swap1\n      pop\n      jump\t// out\n        /* \"#utility.yul\":21982:22401   */\n    tag_139:\n        /* \"#utility.yul\":22148:22152   */\n      0x00\n        /* \"#utility.yul\":22186:22188   */\n      0x20\n        /* \"#utility.yul\":22175:22184   */\n      dup3\n        /* \"#utility.yul\":22171:22189   */\n      add\n        /* \"#utility.yul\":22163:22189   */\n      swap1\n      pop\n        /* \"#utility.yul\":22235:22244   */\n      dup2\n        /* \"#utility.yul\":22229:22233   */\n      dup2\n        /* \"#utility.yul\":22225:22245   */\n      sub\n        /* \"#utility.yul\":22221:22222   */\n      0x00\n        /* \"#utility.yul\":22210:22219   */\n      dup4\n        /* \"#utility.yul\":22206:22223   */\n      add\n        /* \"#utility.yul\":22199:22246   */\n      mstore\n        /* \"#utility.yul\":22263:22394   */\n      tag_442\n        /* \"#utility.yul\":22389:22393   */\n      dup2\n        /* \"#utility.yul\":22263:22394   */\n      tag_213\n      jump\t// in\n    tag_442:\n        /* \"#utility.yul\":22255:22394   */\n      swap1\n      pop\n        /* \"#utility.yul\":21982:22401   */\n      swap2\n      swap1\n      pop\n      jump\t// out\n        /* \"#utility.yul\":22407:22575   */\n    tag_214:\n        /* \"#utility.yul\":22547:22567   */\n      0x4f6e6c79206d61696e20636f6e74726163740000000000000000000000000000\n        /* \"#utility.yul\":22543:22544   */\n      0x00\n        /* \"#utility.yul\":22535:22541   */\n      dup3\n        /* \"#utility.yul\":22531:22545   */\n      add\n        /* \"#utility.yul\":22524:22568   */\n      mstore\n        /* \"#utility.yul\":22407:22575   */\n      pop\n      jump\t// out\n        /* \"#utility.yul\":22581:22947   */\n    tag_215:\n        /* \"#utility.yul\":22723:22726   */\n      0x00\n        /* \"#utility.yul\":22744:22811   */\n      tag_445\n        /* \"#utility.yul\":22808:22810   */\n      0x12\n        /* \"#utility.yul\":22803:22806   */\n      dup4\n        /* \"#utility.yul\":22744:22811   */\n      tag_174\n      jump\t// in\n    tag_445:\n        /* \"#utility.yul\":22737:22811   */\n      swap2\n      pop\n        /* \"#utility.yul\":22820:22913   */\n      tag_446\n        /* \"#utility.yul\":22909:22912   */\n      dup3\n        /* \"#utility.yul\":22820:22913   */\n      tag_214\n      jump\t// in\n    tag_446:\n        /* \"#utility.yul\":22938:22940   */\n      0x20\n        /* \"#utility.yul\":22933:22936   */\n      dup3\n        /* \"#utility.yul\":22929:22941   */\n      add\n        /* \"#utility.yul\":22922:22941   */\n      swap1\n      pop\n        /* \"#utility.yul\":22581:22947   */\n      swap2\n      swap1\n      pop\n      jump\t// out\n        /* \"#utility.yul\":22953:23372   */\n    tag_145:\n        /* \"#utility.yul\":23119:23123   */\n      0x00\n        /* \"#utility.yul\":23157:23159   */\n      0x20\n        /* \"#utility.yul\":23146:23155   */\n      dup3\n        /* \"#utility.yul\":23142:23160   */\n      add\n        /* \"#utility.yul\":23134:23160   */\n      swap1\n      pop\n        /* \"#utility.yul\":23206:23215   */\n      dup2\n        /* \"#utility.yul\":23200:23204   */\n      dup2\n        /* \"#utility.yul\":23196:23216   */\n      sub\n        /* \"#utility.yul\":23192:23193   */\n      0x00\n        /* \"#utility.yul\":23181:23190   */\n      dup4\n        /* \"#utility.yul\":23177:23194   */\n      add\n        /* \"#utility.yul\":23170:23217   */\n      mstore\n        /* \"#utility.yul\":23234:23365   */\n      tag_448\n        /* \"#utility.yul\":23360:23364   */\n      dup2\n        /* \"#utility.yul\":23234:23365   */\n      tag_215\n      jump\t// in\n    tag_448:\n        /* \"#utility.yul\":23226:23365   */\n      swap1\n      pop\n        /* \"#utility.yul\":22953:23372   */\n      swap2\n      swap1\n      pop\n      jump\t// out\n        /* \"#utility.yul\":23378:23547   */\n    tag_216:\n        /* \"#utility.yul\":23518:23539   */\n      0x53636f7265206d75737420626520302d31303000000000000000000000000000\n        /* \"#utility.yul\":23514:23515   */\n      0x00\n        /* \"#utility.yul\":23506:23512   */\n      dup3\n        /* \"#utility.yul\":23502:23516   */\n      add\n        /* \"#utility.yul\":23495:23540   */\n      mstore\n        /* \"#utility.yul\":23378:23547   */\n      pop\n      jump\t// out\n        /* \"#utility.yul\":23553:23919   */\n    tag_217:\n        /* \"#utility.yul\":23695:23698   */\n      0x00\n        /* \"#utility.yul\":23716:23783   */\n      tag_451\n        /* \"#utility.yul\":23780:23782   */\n      0x13\n        /* \"#utility.yul\":23775:23778   */\n      dup4\n        /* \"#utility.yul\":23716:23783   */\n      tag_174\n      jump\t// in\n    tag_451:\n        /* \"#utility.yul\":23709:23783   */\n      swap2\n      pop\n        /* \"#utility.yul\":23792:23885   */\n      tag_452\n        /* \"#utility.yul\":23881:23884   */\n      dup3\n        /* \"#utility.yul\":23792:23885   */\n      tag_216\n      jump\t// in\n    tag_452:\n        /* \"#utility.yul\":23910:23912   */\n      0x20\n        /* \"#utility.yul\":23905:23908   */\n      dup3\n        /* \"#utility.yul\":23901:23913   */\n      add\n        /* \"#utility.yul\":23894:23913   */\n      swap1\n      pop\n        /* \"#utility.yul\":23553:23919   */\n      swap2\n      swap1\n      pop\n      jump\t// out\n        /* \"#utility.yul\":23925:24344   */\n    tag_151:\n        /* \"#utility.yul\":24091:24095   */\n      0x00\n        /* \"#utility.yul\":24129:24131   */\n      0x20\n        /* \"#utility.yul\":24118:24127   */\n      dup3\n        /* \"#utility.yul\":24114:24132   */\n      add\n        /* \"#utility.yul\":24106:24132   */\n      swap1\n      pop\n        /* \"#utility.yul\":24178:24187   */\n      dup2\n        /* \"#utility.yul\":24172:24176   */\n      dup2\n        /* \"#utility.yul\":24168:24188   */\n      sub\n        /* \"#utility.yul\":24164:24165   */\n      0x00\n        /* \"#utility.yul\":24153:24162   */\n      dup4\n        /* \"#utility.yul\":24149:24166   */\n      add\n        /* \"#utility.yul\":24142:24189   */\n      mstore\n        /* \"#utility.yul\":24206:24337   */\n      tag_454\n        /* \"#utility.yul\":24332:24336   */\n      dup2\n        /* \"#utility.yul\":24206:24337   */\n      tag_217\n      jump\t// in\n    tag_454:\n        /* \"#utility.yul\":24198:24337   */\n      swap1\n      pop\n        /* \"#utility.yul\":23925:24344   */\n      swap2\n      swap1\n      pop\n      jump\t// out\n\n    auxdata: 0xa264697066735822122044eadbaacff0392a3c3f67379d00359abd57cd7b24fcfedfe193b522eeac640364736f6c634300081e0033\n}\n",
				"bytecode": {
					"linkReferences": {},
					"object": "6080604052348015600e575f5ffd5b50335f5f6101000a81548173ffffffffffffffffffffffffffffffffffffffff021916908373ffffffffffffffffffffffffffffffffffffffff160217905550611de28061005b5f395ff3fe608060405234801561000f575f5ffd5b50600436106100b2575f3560e01c8063ace417e01161006f578063ace417e014610193578063bff1f9e1146101c3578063c3c5a547146101e1578063c9d3cc6a14610211578063d270e7ab1461022d578063f5c91a081461024b576100b2565b80632e17a931146100b6578063332d56d7146100d25780633ded33bc14610109578063641d7a78146101255780638da5cb5b14610141578063987ee1561461015f575b5f5ffd5b6100d060048036038101906100cb91906112d2565b610267565b005b6100ec60048036038101906100e791906113b4565b610591565b6040516101009897969594939291906114f3565b60405180910390f35b610123600480360381019061011e91906113b4565b61079f565b005b61013f600480360381019061013a9190611584565b610870565b005b610149610a8c565b60405161015691906115de565b60405180910390f35b610179600480360381019061017491906113b4565b610ab0565b60405161018a9594939291906115f7565b60405180910390f35b6101ad60048036038101906101a891906113b4565b610d9c565b6040516101ba9190611656565b60405180910390f35b6101cb610df2565b6040516101d8919061166f565b60405180910390f35b6101fb60048036038101906101f691906113b4565b610df8565b6040516102089190611656565b60405180910390f35b61022b60048036038101906102269190611688565b610e15565b005b610235610f4a565b60405161024291906115de565b60405180910390f35b61026560048036038101906102609190611728565b610f6f565b005b60035f3373ffffffffffffffffffffffffffffffffffffffff1673ffffffffffffffffffffffffffffffffffffffff1681526020019081526020015f205f9054906101000a900460ff16156102f1576040517f08c379a00000000000000000000000000000000000000000000000000000000081526004016102e8906117b0565b60405180910390fd5b5f835111610334576040517f08c379a000000000000000000000000000000000000000000000000000000000815260040161032b90611818565b60405180910390fd5b6040518061010001604052803373ffffffffffffffffffffffffffffffffffffffff16815260200184815260200183815260200182600381111561037b5761037a61144e565b5b81526020015f151581526020014281526020016032815260200160405180602001604052805f81525081525060025f3373ffffffffffffffffffffffffffffffffffffffff1673ffffffffffffffffffffffffffffffffffffffff1681526020019081526020015f205f820151815f015f6101000a81548173ffffffffffffffffffffffffffffffffffffffff021916908373ffffffffffffffffffffffffffffffffffffffff160217905550602082015181600101908161043d9190611a33565b5060408201518160020190816104539190611a33565b506060820151816003015f6101000a81548160ff0219169083600381111561047e5761047d61144e565b5b021790555060808201518160030160016101000a81548160ff02191690831515021790555060a0820151816004015560c0820151816005015560e08201518160060190816104cc9190611a33565b50905050600160035f3373ffffffffffffffffffffffffffffffffffffffff1673ffffffffffffffffffffffffffffffffffffffff1681526020019081526020015f205f6101000a81548160ff02191690831515021790555060045f81548092919061053790611b2f565b91905055503373ffffffffffffffffffffffffffffffffffffffff167fc2e5d5da58bd71d1a2d14cdef02a4256d971b728088f8190d067ccfbae3bd73e8483604051610584929190611b76565b60405180910390a2505050565b6002602052805f5260405f205f91509050805f015f9054906101000a900473ffffffffffffffffffffffffffffffffffffffff16908060010180546105d590611863565b80601f016020809104026020016040519081016040528092919081815260200182805461060190611863565b801561064c5780601f106106235761010080835404028352916020019161064c565b820191905f5260205f20905b81548152906001019060200180831161062f57829003601f168201915b50505050509080600201805461066190611863565b80601f016020809104026020016040519081016040528092919081815260200182805461068d90611863565b80156106d85780601f106106af576101008083540402835291602001916106d8565b820191905f5260205f20905b8154815290600101906020018083116106bb57829003601f168201915b505050505090806003015f9054906101000a900460ff16908060030160019054906101000a900460ff169080600401549080600501549080600601805461071e90611863565b80601f016020809104026020016040519081016040528092919081815260200182805461074a90611863565b80156107955780601f1061076c57610100808354040283529160200191610795565b820191905f5260205f20905b81548152906001019060200180831161077857829003601f168201915b5050505050905088565b5f5f9054906101000a900473ffffffffffffffffffffffffffffffffffffffff1673ffffffffffffffffffffffffffffffffffffffff163373ffffffffffffffffffffffffffffffffffffffff161461082d576040517f08c379a000000000000000000000000000000000000000000000000000000000815260040161082490611bee565b60405180910390fd5b8060015f6101000a81548173ffffffffffffffffffffffffffffffffffffffff021916908373ffffffffffffffffffffffffffffffffffffffff16021790555050565b5f5f9054906101000a900473ffffffffffffffffffffffffffffffffffffffff1673ffffffffffffffffffffffffffffffffffffffff163373ffffffffffffffffffffffffffffffffffffffff16146108fe576040517f08c379a00000000000000000000000000000000000000000000000000000000081526004016108f590611bee565b60405180910390fd5b60035f8373ffffffffffffffffffffffffffffffffffffffff1673ffffffffffffffffffffffffffffffffffffffff1681526020019081526020015f205f9054906101000a900460ff16610987576040517f08c379a000000000000000000000000000000000000000000000000000000000815260040161097e90611c56565b60405180910390fd5b600160025f8473ffffffffffffffffffffffffffffffffffffffff1673ffffffffffffffffffffffffffffffffffffffff1681526020019081526020015f2060030160016101000a81548160ff0219169083151502179055508060025f8473ffffffffffffffffffffffffffffffffffffffff1673ffffffffffffffffffffffffffffffffffffffff1681526020019081526020015f206006019081610a2d9190611a33565b503373ffffffffffffffffffffffffffffffffffffffff168273ffffffffffffffffffffffffffffffffffffffff167fbfb2fa25f828a712fda370028ecc8813c7082c69b239a579753b10e24dd472cc60405160405180910390a35050565b5f5f9054906101000a900473ffffffffffffffffffffffffffffffffffffffff1681565b6060805f5f5f5f60025f8873ffffffffffffffffffffffffffffffffffffffff1673ffffffffffffffffffffffffffffffffffffffff1681526020019081526020015f20604051806101000160405290815f82015f9054906101000a900473ffffffffffffffffffffffffffffffffffffffff1673ffffffffffffffffffffffffffffffffffffffff1673ffffffffffffffffffffffffffffffffffffffff168152602001600182018054610b6490611863565b80601f0160208091040260200160405190810160405280929190818152602001828054610b9090611863565b8015610bdb5780601f10610bb257610100808354040283529160200191610bdb565b820191905f5260205f20905b815481529060010190602001808311610bbe57829003601f168201915b50505050508152602001600282018054610bf490611863565b80601f0160208091040260200160405190810160405280929190818152602001828054610c2090611863565b8015610c6b5780601f10610c4257610100808354040283529160200191610c6b565b820191905f5260205f20905b815481529060010190602001808311610c4e57829003601f168201915b50505050508152602001600382015f9054906101000a900460ff166003811115610c9857610c9761144e565b5b6003811115610caa57610ca961144e565b5b81526020016003820160019054906101000a900460ff161515151581526020016004820154815260200160058201548152602001600682018054610ced90611863565b80601f0160208091040260200160405190810160405280929190818152602001828054610d1990611863565b8015610d645780601f10610d3b57610100808354040283529160200191610d64565b820191905f5260205f20905b815481529060010190602001808311610d4757829003601f168201915b505050505081525050905080602001518160400151826060015183608001518460c00151955095509550955095505091939590929450565b5f60025f8373ffffffffffffffffffffffffffffffffffffffff1673ffffffffffffffffffffffffffffffffffffffff1681526020019081526020015f2060030160019054906101000a900460ff169050919050565b60045481565b6003602052805f5260405f205f915054906101000a900460ff1681565b60035f3373ffffffffffffffffffffffffffffffffffffffff1673ffffffffffffffffffffffffffffffffffffffff1681526020019081526020015f205f9054906101000a900460ff16610e9e576040517f08c379a0000000000000000000000000000000000000000000000000000000008152600401610e9590611cbe565b60405180910390fd5b5f60025f3373ffffffffffffffffffffffffffffffffffffffff1673ffffffffffffffffffffffffffffffffffffffff1681526020019081526020015f20905082816001019081610eef9190611a33565b5081816002019081610f019190611a33565b503373ffffffffffffffffffffffffffffffffffffffff167fbe4ec58a792f909e102ee3d745d0c3b34a4d437a54d903c4db098d31c556422f60405160405180910390a2505050565b60015f9054906101000a900473ffffffffffffffffffffffffffffffffffffffff1681565b60015f9054906101000a900473ffffffffffffffffffffffffffffffffffffffff1673ffffffffffffffffffffffffffffffffffffffff163373ffffffffffffffffffffffffffffffffffffffff1614610ffe576040517f08c379a0000000000000000000000000000000000000000000000000000000008152600401610ff590611d26565b60405180910390fd5b60035f8373ffffffffffffffffffffffffffffffffffffffff1673ffffffffffffffffffffffffffffffffffffffff1681526020019081526020015f205f9054906101000a900460ff16611087576040517f08c379a000000000000000000000000000000000000000000000000000000000815260040161107e90611c56565b60405180910390fd5b60648111156110cb576040517f08c379a00000000000000000000000000000000000000000000000000000000081526004016110c290611d8e565b60405180910390fd5b8060025f8473ffffffffffffffffffffffffffffffffffffffff1673ffffffffffffffffffffffffffffffffffffffff1681526020019081526020015f20600501819055508173ffffffffffffffffffffffffffffffffffffffff167ffc577563f1b9a0461e24abef1e1fcc0d33d3d881f20b5df6dda59de4aae2c82182604051611156919061166f565b60405180910390a25050565b5f604051905090565b5f5ffd5b5f5ffd5b5f5ffd5b5f5ffd5b5f601f19601f8301169050919050565b7f4e487b71000000000000000000000000000000000000000000000000000000005f52604160045260245ffd5b6111c18261117b565b810181811067ffffffffffffffff821117156111e0576111df61118b565b5b80604052505050565b5f6111f2611162565b90506111fe82826111b8565b919050565b5f67ffffffffffffffff82111561121d5761121c61118b565b5b6112268261117b565b9050602081019050919050565b828183375f83830152505050565b5f61125361124e84611203565b6111e9565b90508281526020810184848401111561126f5761126e611177565b5b61127a848285611233565b509392505050565b5f82601f83011261129657611295611173565b5b81356112a6848260208601611241565b91505092915050565b600481106112bb575f5ffd5b50565b5f813590506112cc816112af565b92915050565b5f5f5f606084860312156112e9576112e861116b565b5b5f84013567ffffffffffffffff8111156113065761130561116f565b5b61131286828701611282565b935050602084013567ffffffffffffffff8111156113335761133261116f565b5b61133f86828701611282565b9250506040611350868287016112be565b9150509250925092565b5f73ffffffffffffffffffffffffffffffffffffffff82169050919050565b5f6113838261135a565b9050919050565b61139381611379565b811461139d575f5ffd5b50565b5f813590506113ae8161138a565b92915050565b5f602082840312156113c9576113c861116b565b5b5f6113d6848285016113a0565b91505092915050565b6113e881611379565b82525050565b5f81519050919050565b5f82825260208201905092915050565b8281835e5f83830152505050565b5f611420826113ee565b61142a81856113f8565b935061143a818560208601611408565b6114438161117b565b840191505092915050565b7f4e487b71000000000000000000000000000000000000000000000000000000005f52602160045260245ffd5b6004811061148c5761148b61144e565b5b50565b5f81905061149c8261147b565b919050565b5f6114ab8261148f565b9050919050565b6114bb816114a1565b82525050565b5f8115159050919050565b6114d5816114c1565b82525050565b5f819050919050565b6114ed816114db565b82525050565b5f610100820190506115075f83018b6113df565b8181036020830152611519818a611416565b9050818103604083015261152d8189611416565b905061153c60608301886114b2565b61154960808301876114cc565b61155660a08301866114e4565b61156360c08301856114e4565b81810360e08301526115758184611416565b90509998505050505050505050565b5f5f6040838503121561159a5761159961116b565b5b5f6115a7858286016113a0565b925050602083013567ffffffffffffffff8111156115c8576115c761116f565b5b6115d485828601611282565b9150509250929050565b5f6020820190506115f15f8301846113df565b92915050565b5f60a0820190508181035f83015261160f8188611416565b905081810360208301526116238187611416565b905061163260408301866114b2565b61163f60608301856114cc565b61164c60808301846114e4565b9695505050505050565b5f6020820190506116695f8301846114cc565b92915050565b5f6020820190506116825f8301846114e4565b92915050565b5f5f6040838503121561169e5761169d61116b565b5b5f83013567ffffffffffffffff8111156116bb576116ba61116f565b5b6116c785828601611282565b925050602083013567ffffffffffffffff8111156116e8576116e761116f565b5b6116f485828601611282565b9150509250929050565b611707816114db565b8114611711575f5ffd5b50565b5f81359050611722816116fe565b92915050565b5f5f6040838503121561173e5761173d61116b565b5b5f61174b858286016113a0565b925050602061175c85828601611714565b9150509250929050565b7f416c7265616479207265676973746572656400000000000000000000000000005f82015250565b5f61179a6012836113f8565b91506117a582611766565b602082019050919050565b5f6020820190508181035f8301526117c78161178e565b9050919050565b7f4e616d65207265717569726564000000000000000000000000000000000000005f82015250565b5f611802600d836113f8565b915061180d826117ce565b602082019050919050565b5f6020820190508181035f83015261182f816117f6565b9050919050565b7f4e487b71000000000000000000000000000000000000000000000000000000005f52602260045260245ffd5b5f600282049050600182168061187a57607f821691505b60208210810361188d5761188c611836565b5b50919050565b5f819050815f5260205f209050919050565b5f6020601f8301049050919050565b5f82821b905092915050565b5f600883026118ef7fffffffffffffffffffffffffffffffffffffffffffffffffffffffffffffffff826118b4565b6118f986836118b4565b95508019841693508086168417925050509392505050565b5f819050919050565b5f61193461192f61192a846114db565b611911565b6114db565b9050919050565b5f819050919050565b61194d8361191a565b6119616119598261193b565b8484546118c0565b825550505050565b5f5f905090565b611978611969565b611983818484611944565b505050565b5b818110156119a65761199b5f82611970565b600181019050611989565b5050565b601f8211156119eb576119bc81611893565b6119c5846118a5565b810160208510156119d4578190505b6119e86119e0856118a5565b830182611988565b50505b505050565b5f82821c905092915050565b5f611a0b5f19846008026119f0565b1980831691505092915050565b5f611a2383836119fc565b9150826002028217905092915050565b611a3c826113ee565b67ffffffffffffffff811115611a5557611a5461118b565b5b611a5f8254611863565b611a6a8282856119aa565b5f60209050601f831160018114611a9b575f8415611a89578287015190505b611a938582611a18565b865550611afa565b601f198416611aa986611893565b5f5b82811015611ad057848901518255600182019150602085019450602081019050611aab565b86831015611aed5784890151611ae9601f8916826119fc565b8355505b6001600288020188555050505b505050505050565b7f4e487b71000000000000000000000000000000000000000000000000000000005f52601160045260245ffd5b5f611b39826114db565b91507fffffffffffffffffffffffffffffffffffffffffffffffffffffffffffffffff8203611b6b57611b6a611b02565b5b600182019050919050565b5f6040820190508181035f830152611b8e8185611416565b9050611b9d60208301846114b2565b9392505050565b7f4f6e6c79206f776e6572000000000000000000000000000000000000000000005f82015250565b5f611bd8600a836113f8565b9150611be382611ba4565b602082019050919050565b5f6020820190508181035f830152611c0581611bcc565b9050919050565b7f55736572206e6f742072656769737465726564000000000000000000000000005f82015250565b5f611c406013836113f8565b9150611c4b82611c0c565b602082019050919050565b5f6020820190508181035f830152611c6d81611c34565b9050919050565b7f4e6f7420726567697374657265640000000000000000000000000000000000005f82015250565b5f611ca8600e836113f8565b9150611cb382611c74565b602082019050919050565b5f6020820190508181035f830152611cd581611c9c565b9050919050565b7f4f6e6c79206d61696e20636f6e747261637400000000000000000000000000005f82015250565b5f611d106012836113f8565b9150611d1b82611cdc565b602082019050919050565b5f6020820190508181035f830152611d3d81611d04565b9050919050565b7f53636f7265206d75737420626520302d313030000000000000000000000000005f82015250565b5f611d786013836113f8565b9150611d8382611d44565b602082019050919050565b5f6020820190508181035f830152611da581611d6c565b905091905056fea264697066735822122044eadbaacff0392a3c3f67379d00359abd57cd7b24fcfedfe193b522eeac640364736f6c634300081e0033",
					"opcodes": "PUSH1 0x80 PUSH1 0x40 MSTORE CALLVALUE DUP1 ISZERO PUSH1 0xE JUMPI PUSH0 PUSH0 REVERT JUMPDEST POP CALLER PUSH0 PUSH0 PUSH2 0x100 EXP DUP2 SLOAD DUP2 PUSH20 0xFFFFFFFFFFFFFFFFFFFFFFFFFFFFFFFFFFFFFFFF MUL NOT AND SWAP1 DUP4 PUSH20 0xFFFFFFFFFFFFFFFFFFFFFFFFFFFFFFFFFFFFFFFF AND MUL OR SWAP1 SSTORE POP PUSH2 0x1DE2 DUP1 PUSH2 0x5B PUSH0 CODECOPY PUSH0 RETURN INVALID PUSH1 0x80 PUSH1 0x40 MSTORE CALLVALUE DUP1 ISZERO PUSH2 0xF JUMPI PUSH0 PUSH0 REVERT JUMPDEST POP PUSH1 0x4 CALLDATASIZE LT PUSH2 0xB2 JUMPI PUSH0 CALLDATALOAD PUSH1 0xE0 SHR DUP1 PUSH4 0xACE417E0 GT PUSH2 0x6F JUMPI DUP1 PUSH4 0xACE417E0 EQ PUSH2 0x193 JUMPI DUP1 PUSH4 0xBFF1F9E1 EQ PUSH2 0x1C3 JUMPI DUP1 PUSH4 0xC3C5A547 EQ PUSH2 0x1E1 JUMPI DUP1 PUSH4 0xC9D3CC6A EQ PUSH2 0x211 JUMPI DUP1 PUSH4 0xD270E7AB EQ PUSH2 0x22D JUMPI DUP1 PUSH4 0xF5C91A08 EQ PUSH2 0x24B JUMPI PUSH2 0xB2 JUMP JUMPDEST DUP1 PUSH4 0x2E17A931 EQ PUSH2 0xB6 JUMPI DUP1 PUSH4 0x332D56D7 EQ PUSH2 0xD2 JUMPI DUP1 PUSH4 0x3DED33BC EQ PUSH2 0x109 JUMPI DUP1 PUSH4 0x641D7A78 EQ PUSH2 0x125 JUMPI DUP1 PUSH4 0x8DA5CB5B EQ PUSH2 0x141 JUMPI DUP1 PUSH4 0x987EE156 EQ PUSH2 0x15F JUMPI JUMPDEST PUSH0 PUSH0 REVERT JUMPDEST PUSH2 0xD0 PUSH1 0x4 DUP1 CALLDATASIZE SUB DUP2 ADD SWAP1 PUSH2 0xCB SWAP2 SWAP1 PUSH2 0x12D2 JUMP JUMPDEST PUSH2 0x267 JUMP JUMPDEST STOP JUMPDEST PUSH2 0xEC PUSH1 0x4 DUP1 CALLDATASIZE SUB DUP2 ADD SWAP1 PUSH2 0xE7 SWAP2 SWAP1 PUSH2 0x13B4 JUMP JUMPDEST PUSH2 0x591 JUMP JUMPDEST PUSH1 0x40 MLOAD PUSH2 0x100 SWAP9 SWAP8 SWAP7 SWAP6 SWAP5 SWAP4 SWAP3 SWAP2 SWAP1 PUSH2 0x14F3 JUMP JUMPDEST PUSH1 0x40 MLOAD DUP1 SWAP2 SUB SWAP1 RETURN JUMPDEST PUSH2 0x123 PUSH1 0x4 DUP1 CALLDATASIZE SUB DUP2 ADD SWAP1 PUSH2 0x11E SWAP2 SWAP1 PUSH2 0x13B4 JUMP JUMPDEST PUSH2 0x79F JUMP JUMPDEST STOP JUMPDEST PUSH2 0x13F PUSH1 0x4 DUP1 CALLDATASIZE SUB DUP2 ADD SWAP1 PUSH2 0x13A SWAP2 SWAP1 PUSH2 0x1584 JUMP JUMPDEST PUSH2 0x870 JUMP JUMPDEST STOP JUMPDEST PUSH2 0x149 PUSH2 0xA8C JUMP JUMPDEST PUSH1 0x40 MLOAD PUSH2 0x156 SWAP2 SWAP1 PUSH2 0x15DE JUMP JUMPDEST PUSH1 0x40 MLOAD DUP1 SWAP2 SUB SWAP1 RETURN JUMPDEST PUSH2 0x179 PUSH1 0x4 DUP1 CALLDATASIZE SUB DUP2 ADD SWAP1 PUSH2 0x174 SWAP2 SWAP1 PUSH2 0x13B4 JUMP JUMPDEST PUSH2 0xAB0 JUMP JUMPDEST PUSH1 0x40 MLOAD PUSH2 0x18A SWAP6 SWAP5 SWAP4 SWAP3 SWAP2 SWAP1 PUSH2 0x15F7 JUMP JUMPDEST PUSH1 0x40 MLOAD DUP1 SWAP2 SUB SWAP1 RETURN JUMPDEST PUSH2 0x1AD PUSH1 0x4 DUP1 CALLDATASIZE SUB DUP2 ADD SWAP1 PUSH2 0x1A8 SWAP2 SWAP1 PUSH2 0x13B4 JUMP JUMPDEST PUSH2 0xD9C JUMP JUMPDEST PUSH1 0x40 MLOAD PUSH2 0x1BA SWAP2 SWAP1 PUSH2 0x1656 JUMP JUMPDEST PUSH1 0x40 MLOAD DUP1 SWAP2 SUB SWAP1 RETURN JUMPDEST PUSH2 0x1CB PUSH2 0xDF2 JUMP JUMPDEST PUSH1 0x40 MLOAD PUSH2 0x1D8 SWAP2 SWAP1 PUSH2 0x166F JUMP JUMPDEST PUSH1 0x40 MLOAD DUP1 SWAP2 SUB SWAP1 RETURN JUMPDEST PUSH2 0x1FB PUSH1 0x4 DUP1 CALLDATASIZE SUB DUP2 ADD SWAP1 PUSH2 0x1F6 SWAP2 SWAP1 PUSH2 0x13B4 JUMP JUMPDEST PUSH2 0xDF8 JUMP JUMPDEST PUSH1 0x40 MLOAD PUSH2 0x208 SWAP2 SWAP1 PUSH2 0x1656 JUMP JUMPDEST PUSH1 0x40 MLOAD DUP1 SWAP2 SUB SWAP1 RETURN JUMPDEST PUSH2 0x22B PUSH1 0x4 DUP1 CALLDATASIZE SUB DUP2 ADD SWAP1 PUSH2 0x226 SWAP2 SWAP1 PUSH2 0x1688 JUMP JUMPDEST PUSH2 0xE15 JUMP JUMPDEST STOP JUMPDEST PUSH2 0x235 PUSH2 0xF4A JUMP JUMPDEST PUSH1 0x40 MLOAD PUSH2 0x242 SWAP2 SWAP1 PUSH2 0x15DE JUMP JUMPDEST PUSH1 0x40 MLOAD DUP1 SWAP2 SUB SWAP1 RETURN JUMPDEST PUSH2 0x265 PUSH1 0x4 DUP1 CALLDATASIZE SUB DUP2 ADD SWAP1 PUSH2 0x260 SWAP2 SWAP1 PUSH2 0x1728 JUMP JUMPDEST PUSH2 0xF6F JUMP JUMPDEST STOP JUMPDEST PUSH1 0x3 PUSH0 CALLER PUSH20 0xFFFFFFFFFFFFFFFFFFFFFFFFFFFFFFFFFFFFFFFF AND PUSH20 0xFFFFFFFFFFFFFFFFFFFFFFFFFFFFFFFFFFFFFFFF AND DUP2 MSTORE PUSH1 0x20 ADD SWAP1 DUP2 MSTORE PUSH1 0x20 ADD PUSH0 KECCAK256 PUSH0 SWAP1 SLOAD SWAP1 PUSH2 0x100 EXP SWAP1 DIV PUSH1 0xFF AND ISZERO PUSH2 0x2F1 JUMPI PUSH1 0x40 MLOAD PUSH32 0x8C379A000000000000000000000000000000000000000000000000000000000 DUP2 MSTORE PUSH1 0x4 ADD PUSH2 0x2E8 SWAP1 PUSH2 0x17B0 JUMP JUMPDEST PUSH1 0x40 MLOAD DUP1 SWAP2 SUB SWAP1 REVERT JUMPDEST PUSH0 DUP4 MLOAD GT PUSH2 0x334 JUMPI PUSH1 0x40 MLOAD PUSH32 0x8C379A000000000000000000000000000000000000000000000000000000000 DUP2 MSTORE PUSH1 0x4 ADD PUSH2 0x32B SWAP1 PUSH2 0x1818 JUMP JUMPDEST PUSH1 0x40 MLOAD DUP1 SWAP2 SUB SWAP1 REVERT JUMPDEST PUSH1 0x40 MLOAD DUP1 PUSH2 0x100 ADD PUSH1 0x40 MSTORE DUP1 CALLER PUSH20 0xFFFFFFFFFFFFFFFFFFFFFFFFFFFFFFFFFFFFFFFF AND DUP2 MSTORE PUSH1 0x20 ADD DUP5 DUP2 MSTORE PUSH1 0x20 ADD DUP4 DUP2 MSTORE PUSH1 0x20 ADD DUP3 PUSH1 0x3 DUP2 GT ISZERO PUSH2 0x37B JUMPI PUSH2 0x37A PUSH2 0x144E JUMP JUMPDEST JUMPDEST DUP2 MSTORE PUSH1 0x20 ADD PUSH0 ISZERO ISZERO DUP2 MSTORE PUSH1 0x20 ADD TIMESTAMP DUP2 MSTORE PUSH1 0x20 ADD PUSH1 0x32 DUP2 MSTORE PUSH1 0x20 ADD PUSH1 0x40 MLOAD DUP1 PUSH1 0x20 ADD PUSH1 0x40 MSTORE DUP1 PUSH0 DUP2 MSTORE POP DUP2 MSTORE POP PUSH1 0x2 PUSH0 CALLER PUSH20 0xFFFFFFFFFFFFFFFFFFFFFFFFFFFFFFFFFFFFFFFF AND PUSH20 0xFFFFFFFFFFFFFFFFFFFFFFFFFFFFFFFFFFFFFFFF AND DUP2 MSTORE PUSH1 0x20 ADD SWAP1 DUP2 MSTORE PUSH1 0x20 ADD PUSH0 KECCAK256 PUSH0 DUP3 ADD MLOAD DUP2 PUSH0 ADD PUSH0 PUSH2 0x100 EXP DUP2 SLOAD DUP2 PUSH20 0xFFFFFFFFFFFFFFFFFFFFFFFFFFFFFFFFFFFFFFFF MUL NOT AND SWAP1 DUP4 PUSH20 0xFFFFFFFFFFFFFFFFFFFFFFFFFFFFFFFFFFFFFFFF AND MUL OR SWAP1 SSTORE POP PUSH1 0x20 DUP3 ADD MLOAD DUP2 PUSH1 0x1 ADD SWAP1 DUP2 PUSH2 0x43D SWAP2 SWAP1 PUSH2 0x1A33 JUMP JUMPDEST POP PUSH1 0x40 DUP3 ADD MLOAD DUP2 PUSH1 0x2 ADD SWAP1 DUP2 PUSH2 0x453 SWAP2 SWAP1 PUSH2 0x1A33 JUMP JUMPDEST POP PUSH1 0x60 DUP3 ADD MLOAD DUP2 PUSH1 0x3 ADD PUSH0 PUSH2 0x100 EXP DUP2 SLOAD DUP2 PUSH1 0xFF MUL NOT AND SWAP1 DUP4 PUSH1 0x3 DUP2 GT ISZERO PUSH2 0x47E JUMPI PUSH2 0x47D PUSH2 0x144E JUMP JUMPDEST JUMPDEST MUL OR SWAP1 SSTORE POP PUSH1 0x80 DUP3 ADD MLOAD DUP2 PUSH1 0x3 ADD PUSH1 0x1 PUSH2 0x100 EXP DUP2 SLOAD DUP2 PUSH1 0xFF MUL NOT AND SWAP1 DUP4 ISZERO ISZERO MUL OR SWAP1 SSTORE POP PUSH1 0xA0 DUP3 ADD MLOAD DUP2 PUSH1 0x4 ADD SSTORE PUSH1 0xC0 DUP3 ADD MLOAD DUP2 PUSH1 0x5 ADD SSTORE PUSH1 0xE0 DUP3 ADD MLOAD DUP2 PUSH1 0x6 ADD SWAP1 DUP2 PUSH2 0x4CC SWAP2 SWAP1 PUSH2 0x1A33 JUMP JUMPDEST POP SWAP1 POP POP PUSH1 0x1 PUSH1 0x3 PUSH0 CALLER PUSH20 0xFFFFFFFFFFFFFFFFFFFFFFFFFFFFFFFFFFFFFFFF AND PUSH20 0xFFFFFFFFFFFFFFFFFFFFFFFFFFFFFFFFFFFFFFFF AND DUP2 MSTORE PUSH1 0x20 ADD SWAP1 DUP2 MSTORE PUSH1 0x20 ADD PUSH0 KECCAK256 PUSH0 PUSH2 0x100 EXP DUP2 SLOAD DUP2 PUSH1 0xFF MUL NOT AND SWAP1 DUP4 ISZERO ISZERO MUL OR SWAP1 SSTORE POP PUSH1 0x4 PUSH0 DUP2 SLOAD DUP1 SWAP3 SWAP2 SWAP1 PUSH2 0x537 SWAP1 PUSH2 0x1B2F JUMP JUMPDEST SWAP2 SWAP1 POP SSTORE POP CALLER PUSH20 0xFFFFFFFFFFFFFFFFFFFFFFFFFFFFFFFFFFFFFFFF AND PUSH32 0xC2E5D5DA58BD71D1A2D14CDEF02A4256D971B728088F8190D067CCFBAE3BD73E DUP5 DUP4 PUSH1 0x40 MLOAD PUSH2 0x584 SWAP3 SWAP2 SWAP1 PUSH2 0x1B76 JUMP JUMPDEST PUSH1 0x40 MLOAD DUP1 SWAP2 SUB SWAP1 LOG2 POP POP POP JUMP JUMPDEST PUSH1 0x2 PUSH1 0x20 MSTORE DUP1 PUSH0 MSTORE PUSH1 0x40 PUSH0 KECCAK256 PUSH0 SWAP2 POP SWAP1 POP DUP1 PUSH0 ADD PUSH0 SWAP1 SLOAD SWAP1 PUSH2 0x100 EXP SWAP1 DIV PUSH20 0xFFFFFFFFFFFFFFFFFFFFFFFFFFFFFFFFFFFFFFFF AND SWAP1 DUP1 PUSH1 0x1 ADD DUP1 SLOAD PUSH2 0x5D5 SWAP1 PUSH2 0x1863 JUMP JUMPDEST DUP1 PUSH1 0x1F ADD PUSH1 0x20 DUP1 SWAP2 DIV MUL PUSH1 0x20 ADD PUSH1 0x40 MLOAD SWAP1 DUP2 ADD PUSH1 0x40 MSTORE DUP1 SWAP3 SWAP2 SWAP1 DUP2 DUP2 MSTORE PUSH1 0x20 ADD DUP3 DUP1 SLOAD PUSH2 0x601 SWAP1 PUSH2 0x1863 JUMP JUMPDEST DUP1 ISZERO PUSH2 0x64C JUMPI DUP1 PUSH1 0x1F LT PUSH2 0x623 JUMPI PUSH2 0x100 DUP1 DUP4 SLOAD DIV MUL DUP4 MSTORE SWAP2 PUSH1 0x20 ADD SWAP2 PUSH2 0x64C JUMP JUMPDEST DUP3 ADD SWAP2 SWAP1 PUSH0 MSTORE PUSH1 0x20 PUSH0 KECCAK256 SWAP1 JUMPDEST DUP2 SLOAD DUP2 MSTORE SWAP1 PUSH1 0x1 ADD SWAP1 PUSH1 0x20 ADD DUP1 DUP4 GT PUSH2 0x62F JUMPI DUP3 SWAP1 SUB PUSH1 0x1F AND DUP3 ADD SWAP2 JUMPDEST POP POP POP POP POP SWAP1 DUP1 PUSH1 0x2 ADD DUP1 SLOAD PUSH2 0x661 SWAP1 PUSH2 0x1863 JUMP JUMPDEST DUP1 PUSH1 0x1F ADD PUSH1 0x20 DUP1 SWAP2 DIV MUL PUSH1 0x20 ADD PUSH1 0x40 MLOAD SWAP1 DUP2 ADD PUSH1 0x40 MSTORE DUP1 SWAP3 SWAP2 SWAP1 DUP2 DUP2 MSTORE PUSH1 0x20 ADD DUP3 DUP1 SLOAD PUSH2 0x68D SWAP1 PUSH2 0x1863 JUMP JUMPDEST DUP1 ISZERO PUSH2 0x6D8 JUMPI DUP1 PUSH1 0x1F LT PUSH2 0x6AF JUMPI PUSH2 0x100 DUP1 DUP4 SLOAD DIV MUL DUP4 MSTORE SWAP2 PUSH1 0x20 ADD SWAP2 PUSH2 0x6D8 JUMP JUMPDEST DUP3 ADD SWAP2 SWAP1 PUSH0 MSTORE PUSH1 0x20 PUSH0 KECCAK256 SWAP1 JUMPDEST DUP2 SLOAD DUP2 MSTORE SWAP1 PUSH1 0x1 ADD SWAP1 PUSH1 0x20 ADD DUP1 DUP4 GT PUSH2 0x6BB JUMPI DUP3 SWAP1 SUB PUSH1 0x1F AND DUP3 ADD SWAP2 JUMPDEST POP POP POP POP POP SWAP1 DUP1 PUSH1 0x3 ADD PUSH0 SWAP1 SLOAD SWAP1 PUSH2 0x100 EXP SWAP1 DIV PUSH1 0xFF AND SWAP1 DUP1 PUSH1 0x3 ADD PUSH1 0x1 SWAP1 SLOAD SWAP1 PUSH2 0x100 EXP SWAP1 DIV PUSH1 0xFF AND SWAP1 DUP1 PUSH1 0x4 ADD SLOAD SWAP1 DUP1 PUSH1 0x5 ADD SLOAD SWAP1 DUP1 PUSH1 0x6 ADD DUP1 SLOAD PUSH2 0x71E SWAP1 PUSH2 0x1863 JUMP JUMPDEST DUP1 PUSH1 0x1F ADD PUSH1 0x20 DUP1 SWAP2 DIV MUL PUSH1 0x20 ADD PUSH1 0x40 MLOAD SWAP1 DUP2 ADD PUSH1 0x40 MSTORE DUP1 SWAP3 SWAP2 SWAP1 DUP2 DUP2 MSTORE PUSH1 0x20 ADD DUP3 DUP1 SLOAD PUSH2 0x74A SWAP1 PUSH2 0x1863 JUMP JUMPDEST DUP1 ISZERO PUSH2 0x795 JUMPI DUP1 PUSH1 0x1F LT PUSH2 0x76C JUMPI PUSH2 0x100 DUP1 DUP4 SLOAD DIV MUL DUP4 MSTORE SWAP2 PUSH1 0x20 ADD SWAP2 PUSH2 0x795 JUMP JUMPDEST DUP3 ADD SWAP2 SWAP1 PUSH0 MSTORE PUSH1 0x20 PUSH0 KECCAK256 SWAP1 JUMPDEST DUP2 SLOAD DUP2 MSTORE SWAP1 PUSH1 0x1 ADD SWAP1 PUSH1 0x20 ADD DUP1 DUP4 GT PUSH2 0x778 JUMPI DUP3 SWAP1 SUB PUSH1 0x1F AND DUP3 ADD SWAP2 JUMPDEST POP POP POP POP POP SWAP1 POP DUP9 JUMP JUMPDEST PUSH0 PUSH0 SWAP1 SLOAD SWAP1 PUSH2 0x100 EXP SWAP1 DIV PUSH20 0xFFFFFFFFFFFFFFFFFFFFFFFFFFFFFFFFFFFFFFFF AND PUSH20 0xFFFFFFFFFFFFFFFFFFFFFFFFFFFFFFFFFFFFFFFF AND CALLER PUSH20 0xFFFFFFFFFFFFFFFFFFFFFFFFFFFFFFFFFFFFFFFF AND EQ PUSH2 0x82D JUMPI PUSH1 0x40 MLOAD PUSH32 0x8C379A000000000000000000000000000000000000000000000000000000000 DUP2 MSTORE PUSH1 0x4 ADD PUSH2 0x824 SWAP1 PUSH2 0x1BEE JUMP JUMPDEST PUSH1 0x40 MLOAD DUP1 SWAP2 SUB SWAP1 REVERT JUMPDEST DUP1 PUSH1 0x1 PUSH0 PUSH2 0x100 EXP DUP2 SLOAD DUP2 PUSH20 0xFFFFFFFFFFFFFFFFFFFFFFFFFFFFFFFFFFFFFFFF MUL NOT AND SWAP1 DUP4 PUSH20 0xFFFFFFFFFFFFFFFFFFFFFFFFFFFFFFFFFFFFFFFF AND MUL OR SWAP1 SSTORE POP POP JUMP JUMPDEST PUSH0 PUSH0 SWAP1 SLOAD SWAP1 PUSH2 0x100 EXP SWAP1 DIV PUSH20 0xFFFFFFFFFFFFFFFFFFFFFFFFFFFFFFFFFFFFFFFF AND PUSH20 0xFFFFFFFFFFFFFFFFFFFFFFFFFFFFFFFFFFFFFFFF AND CALLER PUSH20 0xFFFFFFFFFFFFFFFFFFFFFFFFFFFFFFFFFFFFFFFF AND EQ PUSH2 0x8FE JUMPI PUSH1 0x40 MLOAD PUSH32 0x8C379A000000000000000000000000000000000000000000000000000000000 DUP2 MSTORE PUSH1 0x4 ADD PUSH2 0x8F5 SWAP1 PUSH2 0x1BEE JUMP JUMPDEST PUSH1 0x40 MLOAD DUP1 SWAP2 SUB SWAP1 REVERT JUMPDEST PUSH1 0x3 PUSH0 DUP4 PUSH20 0xFFFFFFFFFFFFFFFFFFFFFFFFFFFFFFFFFFFFFFFF AND PUSH20 0xFFFFFFFFFFFFFFFFFFFFFFFFFFFFFFFFFFFFFFFF AND DUP2 MSTORE PUSH1 0x20 ADD SWAP1 DUP2 MSTORE PUSH1 0x20 ADD PUSH0 KECCAK256 PUSH0 SWAP1 SLOAD SWAP1 PUSH2 0x100 EXP SWAP1 DIV PUSH1 0xFF AND PUSH2 0x987 JUMPI PUSH1 0x40 MLOAD PUSH32 0x8C379A000000000000000000000000000000000000000000000000000000000 DUP2 MSTORE PUSH1 0x4 ADD PUSH2 0x97E SWAP1 PUSH2 0x1C56 JUMP JUMPDEST PUSH1 0x40 MLOAD DUP1 SWAP2 SUB SWAP1 REVERT JUMPDEST PUSH1 0x1 PUSH1 0x2 PUSH0 DUP5 PUSH20 0xFFFFFFFFFFFFFFFFFFFFFFFFFFFFFFFFFFFFFFFF AND PUSH20 0xFFFFFFFFFFFFFFFFFFFFFFFFFFFFFFFFFFFFFFFF AND DUP2 MSTORE PUSH1 0x20 ADD SWAP1 DUP2 MSTORE PUSH1 0x20 ADD PUSH0 KECCAK256 PUSH1 0x3 ADD PUSH1 0x1 PUSH2 0x100 EXP DUP2 SLOAD DUP2 PUSH1 0xFF MUL NOT AND SWAP1 DUP4 ISZERO ISZERO MUL OR SWAP1 SSTORE POP DUP1 PUSH1 0x2 PUSH0 DUP5 PUSH20 0xFFFFFFFFFFFFFFFFFFFFFFFFFFFFFFFFFFFFFFFF AND PUSH20 0xFFFFFFFFFFFFFFFFFFFFFFFFFFFFFFFFFFFFFFFF AND DUP2 MSTORE PUSH1 0x20 ADD SWAP1 DUP2 MSTORE PUSH1 0x20 ADD PUSH0 KECCAK256 PUSH1 0x6 ADD SWAP1 DUP2 PUSH2 0xA2D SWAP2 SWAP1 PUSH2 0x1A33 JUMP JUMPDEST POP CALLER PUSH20 0xFFFFFFFFFFFFFFFFFFFFFFFFFFFFFFFFFFFFFFFF AND DUP3 PUSH20 0xFFFFFFFFFFFFFFFFFFFFFFFFFFFFFFFFFFFFFFFF AND PUSH32 0xBFB2FA25F828A712FDA370028ECC8813C7082C69B239A579753B10E24DD472CC PUSH1 0x40 MLOAD PUSH1 0x40 MLOAD DUP1 SWAP2 SUB SWAP1 LOG3 POP POP JUMP JUMPDEST PUSH0 PUSH0 SWAP1 SLOAD SWAP1 PUSH2 0x100 EXP SWAP1 DIV PUSH20 0xFFFFFFFFFFFFFFFFFFFFFFFFFFFFFFFFFFFFFFFF AND DUP2 JUMP JUMPDEST PUSH1 0x60 DUP1 PUSH0 PUSH0 PUSH0 PUSH0 PUSH1 0x2 PUSH0 DUP9 PUSH20 0xFFFFFFFFFFFFFFFFFFFFFFFFFFFFFFFFFFFFFFFF AND PUSH20 0xFFFFFFFFFFFFFFFFFFFFFFFFFFFFFFFFFFFFFFFF AND DUP2 MSTORE PUSH1 0x20 ADD SWAP1 DUP2 MSTORE PUSH1 0x20 ADD PUSH0 KECCAK256 PUSH1 0x40 MLOAD DUP1 PUSH2 0x100 ADD PUSH1 0x40 MSTORE SWAP1 DUP2 PUSH0 DUP3 ADD PUSH0 SWAP1 SLOAD SWAP1 PUSH2 0x100 EXP SWAP1 DIV PUSH20 0xFFFFFFFFFFFFFFFFFFFFFFFFFFFFFFFFFFFFFFFF AND PUSH20 0xFFFFFFFFFFFFFFFFFFFFFFFFFFFFFFFFFFFFFFFF AND PUSH20 0xFFFFFFFFFFFFFFFFFFFFFFFFFFFFFFFFFFFFFFFF AND DUP2 MSTORE PUSH1 0x20 ADD PUSH1 0x1 DUP3 ADD DUP1 SLOAD PUSH2 0xB64 SWAP1 PUSH2 0x1863 JUMP JUMPDEST DUP1 PUSH1 0x1F ADD PUSH1 0x20 DUP1 SWAP2 DIV MUL PUSH1 0x20 ADD PUSH1 0x40 MLOAD SWAP1 DUP2 ADD PUSH1 0x40 MSTORE DUP1 SWAP3 SWAP2 SWAP1 DUP2 DUP2 MSTORE PUSH1 0x20 ADD DUP3 DUP1 SLOAD PUSH2 0xB90 SWAP1 PUSH2 0x1863 JUMP JUMPDEST DUP1 ISZERO PUSH2 0xBDB JUMPI DUP1 PUSH1 0x1F LT PUSH2 0xBB2 JUMPI PUSH2 0x100 DUP1 DUP4 SLOAD DIV MUL DUP4 MSTORE SWAP2 PUSH1 0x20 ADD SWAP2 PUSH2 0xBDB JUMP JUMPDEST DUP3 ADD SWAP2 SWAP1 PUSH0 MSTORE PUSH1 0x20 PUSH0 KECCAK256 SWAP1 JUMPDEST DUP2 SLOAD DUP2 MSTORE SWAP1 PUSH1 0x1 ADD SWAP1 PUSH1 0x20 ADD DUP1 DUP4 GT PUSH2 0xBBE JUMPI DUP3 SWAP1 SUB PUSH1 0x1F AND DUP3 ADD SWAP2 JUMPDEST POP POP POP POP POP DUP2 MSTORE PUSH1 0x20 ADD PUSH1 0x2 DUP3 ADD DUP1 SLOAD PUSH2 0xBF4 SWAP1 PUSH2 0x1863 JUMP JUMPDEST DUP1 PUSH1 0x1F ADD PUSH1 0x20 DUP1 SWAP2 DIV MUL PUSH1 0x20 ADD PUSH1 0x40 MLOAD SWAP1 DUP2 ADD PUSH1 0x40 MSTORE DUP1 SWAP3 SWAP2 SWAP1 DUP2 DUP2 MSTORE PUSH1 0x20 ADD DUP3 DUP1 SLOAD PUSH2 0xC20 SWAP1 PUSH2 0x1863 JUMP JUMPDEST DUP1 ISZERO PUSH2 0xC6B JUMPI DUP1 PUSH1 0x1F LT PUSH2 0xC42 JUMPI PUSH2 0x100 DUP1 DUP4 SLOAD DIV MUL DUP4 MSTORE SWAP2 PUSH1 0x20 ADD SWAP2 PUSH2 0xC6B JUMP JUMPDEST DUP3 ADD SWAP2 SWAP1 PUSH0 MSTORE PUSH1 0x20 PUSH0 KECCAK256 SWAP1 JUMPDEST DUP2 SLOAD DUP2 MSTORE SWAP1 PUSH1 0x1 ADD SWAP1 PUSH1 0x20 ADD DUP1 DUP4 GT PUSH2 0xC4E JUMPI DUP3 SWAP1 SUB PUSH1 0x1F AND DUP3 ADD SWAP2 JUMPDEST POP POP POP POP POP DUP2 MSTORE PUSH1 0x20 ADD PUSH1 0x3 DUP3 ADD PUSH0 SWAP1 SLOAD SWAP1 PUSH2 0x100 EXP SWAP1 DIV PUSH1 0xFF AND PUSH1 0x3 DUP2 GT ISZERO PUSH2 0xC98 JUMPI PUSH2 0xC97 PUSH2 0x144E JUMP JUMPDEST JUMPDEST PUSH1 0x3 DUP2 GT ISZERO PUSH2 0xCAA JUMPI PUSH2 0xCA9 PUSH2 0x144E JUMP JUMPDEST JUMPDEST DUP2 MSTORE PUSH1 0x20 ADD PUSH1 0x3 DUP3 ADD PUSH1 0x1 SWAP1 SLOAD SWAP1 PUSH2 0x100 EXP SWAP1 DIV PUSH1 0xFF AND ISZERO ISZERO ISZERO ISZERO DUP2 MSTORE PUSH1 0x20 ADD PUSH1 0x4 DUP3 ADD SLOAD DUP2 MSTORE PUSH1 0x20 ADD PUSH1 0x5 DUP3 ADD SLOAD DUP2 MSTORE PUSH1 0x20 ADD PUSH1 0x6 DUP3 ADD DUP1 SLOAD PUSH2 0xCED SWAP1 PUSH2 0x1863 JUMP JUMPDEST DUP1 PUSH1 0x1F ADD PUSH1 0x20 DUP1 SWAP2 DIV MUL PUSH1 0x20 ADD PUSH1 0x40 MLOAD SWAP1 DUP2 ADD PUSH1 0x40 MSTORE DUP1 SWAP3 SWAP2 SWAP1 DUP2 DUP2 MSTORE PUSH1 0x20 ADD DUP3 DUP1 SLOAD PUSH2 0xD19 SWAP1 PUSH2 0x1863 JUMP JUMPDEST DUP1 ISZERO PUSH2 0xD64 JUMPI DUP1 PUSH1 0x1F LT PUSH2 0xD3B JUMPI PUSH2 0x100 DUP1 DUP4 SLOAD DIV MUL DUP4 MSTORE SWAP2 PUSH1 0x20 ADD SWAP2 PUSH2 0xD64 JUMP JUMPDEST DUP3 ADD SWAP2 SWAP1 PUSH0 MSTORE PUSH1 0x20 PUSH0 KECCAK256 SWAP1 JUMPDEST DUP2 SLOAD DUP2 MSTORE SWAP1 PUSH1 0x1 ADD SWAP1 PUSH1 0x20 ADD DUP1 DUP4 GT PUSH2 0xD47 JUMPI DUP3 SWAP1 SUB PUSH1 0x1F AND DUP3 ADD SWAP2 JUMPDEST POP POP POP POP POP DUP2 MSTORE POP POP SWAP1 POP DUP1 PUSH1 0x20 ADD MLOAD DUP2 PUSH1 0x40 ADD MLOAD DUP3 PUSH1 0x60 ADD MLOAD DUP4 PUSH1 0x80 ADD MLOAD DUP5 PUSH1 0xC0 ADD MLOAD SWAP6 POP SWAP6 POP SWAP6 POP SWAP6 POP SWAP6 POP POP SWAP2 SWAP4 SWAP6 SWAP1 SWAP3 SWAP5 POP JUMP JUMPDEST PUSH0 PUSH1 0x2 PUSH0 DUP4 PUSH20 0xFFFFFFFFFFFFFFFFFFFFFFFFFFFFFFFFFFFFFFFF AND PUSH20 0xFFFFFFFFFFFFFFFFFFFFFFFFFFFFFFFFFFFFFFFF AND DUP2 MSTORE PUSH1 0x20 ADD SWAP1 DUP2 MSTORE PUSH1 0x20 ADD PUSH0 KECCAK256 PUSH1 0x3 ADD PUSH1 0x1 SWAP1 SLOAD SWAP1 PUSH2 0x100 EXP SWAP1 DIV PUSH1 0xFF AND SWAP1 POP SWAP2 SWAP1 POP JUMP JUMPDEST PUSH1 0x4 SLOAD DUP2 JUMP JUMPDEST PUSH1 0x3 PUSH1 0x20 MSTORE DUP1 PUSH0 MSTORE PUSH1 0x40 PUSH0 KECCAK256 PUSH0 SWAP2 POP SLOAD SWAP1 PUSH2 0x100 EXP SWAP1 DIV PUSH1 0xFF AND DUP2 JUMP JUMPDEST PUSH1 0x3 PUSH0 CALLER PUSH20 0xFFFFFFFFFFFFFFFFFFFFFFFFFFFFFFFFFFFFFFFF AND PUSH20 0xFFFFFFFFFFFFFFFFFFFFFFFFFFFFFFFFFFFFFFFF AND DUP2 MSTORE PUSH1 0x20 ADD SWAP1 DUP2 MSTORE PUSH1 0x20 ADD PUSH0 KECCAK256 PUSH0 SWAP1 SLOAD SWAP1 PUSH2 0x100 EXP SWAP1 DIV PUSH1 0xFF AND PUSH2 0xE9E JUMPI PUSH1 0x40 MLOAD PUSH32 0x8C379A000000000000000000000000000000000000000000000000000000000 DUP2 MSTORE PUSH1 0x4 ADD PUSH2 0xE95 SWAP1 PUSH2 0x1CBE JUMP JUMPDEST PUSH1 0x40 MLOAD DUP1 SWAP2 SUB SWAP1 REVERT JUMPDEST PUSH0 PUSH1 0x2 PUSH0 CALLER PUSH20 0xFFFFFFFFFFFFFFFFFFFFFFFFFFFFFFFFFFFFFFFF AND PUSH20 0xFFFFFFFFFFFFFFFFFFFFFFFFFFFFFFFFFFFFFFFF AND DUP2 MSTORE PUSH1 0x20 ADD SWAP1 DUP2 MSTORE PUSH1 0x20 ADD PUSH0 KECCAK256 SWAP1 POP DUP3 DUP2 PUSH1 0x1 ADD SWAP1 DUP2 PUSH2 0xEEF SWAP2 SWAP1 PUSH2 0x1A33 JUMP JUMPDEST POP DUP2 DUP2 PUSH1 0x2 ADD SWAP1 DUP2 PUSH2 0xF01 SWAP2 SWAP1 PUSH2 0x1A33 JUMP JUMPDEST POP CALLER PUSH20 0xFFFFFFFFFFFFFFFFFFFFFFFFFFFFFFFFFFFFFFFF AND PUSH32 0xBE4EC58A792F909E102EE3D745D0C3B34A4D437A54D903C4DB098D31C556422F PUSH1 0x40 MLOAD PUSH1 0x40 MLOAD DUP1 SWAP2 SUB SWAP1 LOG2 POP POP POP JUMP JUMPDEST PUSH1 0x1 PUSH0 SWAP1 SLOAD SWAP1 PUSH2 0x100 EXP SWAP1 DIV PUSH20 0xFFFFFFFFFFFFFFFFFFFFFFFFFFFFFFFFFFFFFFFF AND DUP2 JUMP JUMPDEST PUSH1 0x1 PUSH0 SWAP1 SLOAD SWAP1 PUSH2 0x100 EXP SWAP1 DIV PUSH20 0xFFFFFFFFFFFFFFFFFFFFFFFFFFFFFFFFFFFFFFFF AND PUSH20 0xFFFFFFFFFFFFFFFFFFFFFFFFFFFFFFFFFFFFFFFF AND CALLER PUSH20 0xFFFFFFFFFFFFFFFFFFFFFFFFFFFFFFFFFFFFFFFF AND EQ PUSH2 0xFFE JUMPI PUSH1 0x40 MLOAD PUSH32 0x8C379A000000000000000000000000000000000000000000000000000000000 DUP2 MSTORE PUSH1 0x4 ADD PUSH2 0xFF5 SWAP1 PUSH2 0x1D26 JUMP JUMPDEST PUSH1 0x40 MLOAD DUP1 SWAP2 SUB SWAP1 REVERT JUMPDEST PUSH1 0x3 PUSH0 DUP4 PUSH20 0xFFFFFFFFFFFFFFFFFFFFFFFFFFFFFFFFFFFFFFFF AND PUSH20 0xFFFFFFFFFFFFFFFFFFFFFFFFFFFFFFFFFFFFFFFF AND DUP2 MSTORE PUSH1 0x20 ADD SWAP1 DUP2 MSTORE PUSH1 0x20 ADD PUSH0 KECCAK256 PUSH0 SWAP1 SLOAD SWAP1 PUSH2 0x100 EXP SWAP1 DIV PUSH1 0xFF AND PUSH2 0x1087 JUMPI PUSH1 0x40 MLOAD PUSH32 0x8C379A000000000000000000000000000000000000000000000000000000000 DUP2 MSTORE PUSH1 0x4 ADD PUSH2 0x107E SWAP1 PUSH2 0x1C56 JUMP JUMPDEST PUSH1 0x40 MLOAD DUP1 SWAP2 SUB SWAP1 REVERT JUMPDEST PUSH1 0x64 DUP2 GT ISZERO PUSH2 0x10CB JUMPI PUSH1 0x40 MLOAD PUSH32 0x8C379A000000000000000000000000000000000000000000000000000000000 DUP2 MSTORE PUSH1 0x4 ADD PUSH2 0x10C2 SWAP1 PUSH2 0x1D8E JUMP JUMPDEST PUSH1 0x40 MLOAD DUP1 SWAP2 SUB SWAP1 REVERT JUMPDEST DUP1 PUSH1 0x2 PUSH0 DUP5 PUSH20 0xFFFFFFFFFFFFFFFFFFFFFFFFFFFFFFFFFFFFFFFF AND PUSH20 0xFFFFFFFFFFFFFFFFFFFFFFFFFFFFFFFFFFFFFFFF AND DUP2 MSTORE PUSH1 0x20 ADD SWAP1 DUP2 MSTORE PUSH1 0x20 ADD PUSH0 KECCAK256 PUSH1 0x5 ADD DUP2 SWAP1 SSTORE POP DUP2 PUSH20 0xFFFFFFFFFFFFFFFFFFFFFFFFFFFFFFFFFFFFFFFF AND PUSH32 0xFC577563F1B9A0461E24ABEF1E1FCC0D33D3D881F20B5DF6DDA59DE4AAE2C821 DUP3 PUSH1 0x40 MLOAD PUSH2 0x1156 SWAP2 SWAP1 PUSH2 0x166F JUMP JUMPDEST PUSH1 0x40 MLOAD DUP1 SWAP2 SUB SWAP1 LOG2 POP POP JUMP JUMPDEST PUSH0 PUSH1 0x40 MLOAD SWAP1 POP SWAP1 JUMP JUMPDEST PUSH0 PUSH0 REVERT JUMPDEST PUSH0 PUSH0 REVERT JUMPDEST PUSH0 PUSH0 REVERT JUMPDEST PUSH0 PUSH0 REVERT JUMPDEST PUSH0 PUSH1 0x1F NOT PUSH1 0x1F DUP4 ADD AND SWAP1 POP SWAP2 SWAP1 POP JUMP JUMPDEST PUSH32 0x4E487B7100000000000000000000000000000000000000000000000000000000 PUSH0 MSTORE PUSH1 0x41 PUSH1 0x4 MSTORE PUSH1 0x24 PUSH0 REVERT JUMPDEST PUSH2 0x11C1 DUP3 PUSH2 0x117B JUMP JUMPDEST DUP2 ADD DUP2 DUP2 LT PUSH8 0xFFFFFFFFFFFFFFFF DUP3 GT OR ISZERO PUSH2 0x11E0 JUMPI PUSH2 0x11DF PUSH2 0x118B JUMP JUMPDEST JUMPDEST DUP1 PUSH1 0x40 MSTORE POP POP POP JUMP JUMPDEST PUSH0 PUSH2 0x11F2 PUSH2 0x1162 JUMP JUMPDEST SWAP1 POP PUSH2 0x11FE DUP3 DUP3 PUSH2 0x11B8 JUMP JUMPDEST SWAP2 SWAP1 POP JUMP JUMPDEST PUSH0 PUSH8 0xFFFFFFFFFFFFFFFF DUP3 GT ISZERO PUSH2 0x121D JUMPI PUSH2 0x121C PUSH2 0x118B JUMP JUMPDEST JUMPDEST PUSH2 0x1226 DUP3 PUSH2 0x117B JUMP JUMPDEST SWAP1 POP PUSH1 0x20 DUP2 ADD SWAP1 POP SWAP2 SWAP1 POP JUMP JUMPDEST DUP3 DUP2 DUP4 CALLDATACOPY PUSH0 DUP4 DUP4 ADD MSTORE POP POP POP JUMP JUMPDEST PUSH0 PUSH2 0x1253 PUSH2 0x124E DUP5 PUSH2 0x1203 JUMP JUMPDEST PUSH2 0x11E9 JUMP JUMPDEST SWAP1 POP DUP3 DUP2 MSTORE PUSH1 0x20 DUP2 ADD DUP5 DUP5 DUP5 ADD GT ISZERO PUSH2 0x126F JUMPI PUSH2 0x126E PUSH2 0x1177 JUMP JUMPDEST JUMPDEST PUSH2 0x127A DUP5 DUP3 DUP6 PUSH2 0x1233 JUMP JUMPDEST POP SWAP4 SWAP3 POP POP POP JUMP JUMPDEST PUSH0 DUP3 PUSH1 0x1F DUP4 ADD SLT PUSH2 0x1296 JUMPI PUSH2 0x1295 PUSH2 0x1173 JUMP JUMPDEST JUMPDEST DUP2 CALLDATALOAD PUSH2 0x12A6 DUP5 DUP3 PUSH1 0x20 DUP7 ADD PUSH2 0x1241 JUMP JUMPDEST SWAP2 POP POP SWAP3 SWAP2 POP POP JUMP JUMPDEST PUSH1 0x4 DUP2 LT PUSH2 0x12BB JUMPI PUSH0 PUSH0 REVERT JUMPDEST POP JUMP JUMPDEST PUSH0 DUP2 CALLDATALOAD SWAP1 POP PUSH2 0x12CC DUP2 PUSH2 0x12AF JUMP JUMPDEST SWAP3 SWAP2 POP POP JUMP JUMPDEST PUSH0 PUSH0 PUSH0 PUSH1 0x60 DUP5 DUP7 SUB SLT ISZERO PUSH2 0x12E9 JUMPI PUSH2 0x12E8 PUSH2 0x116B JUMP JUMPDEST JUMPDEST PUSH0 DUP5 ADD CALLDATALOAD PUSH8 0xFFFFFFFFFFFFFFFF DUP2 GT ISZERO PUSH2 0x1306 JUMPI PUSH2 0x1305 PUSH2 0x116F JUMP JUMPDEST JUMPDEST PUSH2 0x1312 DUP7 DUP3 DUP8 ADD PUSH2 0x1282 JUMP JUMPDEST SWAP4 POP POP PUSH1 0x20 DUP5 ADD CALLDATALOAD PUSH8 0xFFFFFFFFFFFFFFFF DUP2 GT ISZERO PUSH2 0x1333 JUMPI PUSH2 0x1332 PUSH2 0x116F JUMP JUMPDEST JUMPDEST PUSH2 0x133F DUP7 DUP3 DUP8 ADD PUSH2 0x1282 JUMP JUMPDEST SWAP3 POP POP PUSH1 0x40 PUSH2 0x1350 DUP7 DUP3 DUP8 ADD PUSH2 0x12BE JUMP JUMPDEST SWAP2 POP POP SWAP3 POP SWAP3 POP SWAP3 JUMP JUMPDEST PUSH0 PUSH20 0xFFFFFFFFFFFFFFFFFFFFFFFFFFFFFFFFFFFFFFFF DUP3 AND SWAP1 POP SWAP2 SWAP1 POP JUMP JUMPDEST PUSH0 PUSH2 0x1383 DUP3 PUSH2 0x135A JUMP JUMPDEST SWAP1 POP SWAP2 SWAP1 POP JUMP JUMPDEST PUSH2 0x1393 DUP2 PUSH2 0x1379 JUMP JUMPDEST DUP2 EQ PUSH2 0x139D JUMPI PUSH0 PUSH0 REVERT JUMPDEST POP JUMP JUMPDEST PUSH0 DUP2 CALLDATALOAD SWAP1 POP PUSH2 0x13AE DUP2 PUSH2 0x138A JUMP JUMPDEST SWAP3 SWAP2 POP POP JUMP JUMPDEST PUSH0 PUSH1 0x20 DUP3 DUP5 SUB SLT ISZERO PUSH2 0x13C9 JUMPI PUSH2 0x13C8 PUSH2 0x116B JUMP JUMPDEST JUMPDEST PUSH0 PUSH2 0x13D6 DUP5 DUP3 DUP6 ADD PUSH2 0x13A0 JUMP JUMPDEST SWAP2 POP POP SWAP3 SWAP2 POP POP JUMP JUMPDEST PUSH2 0x13E8 DUP2 PUSH2 0x1379 JUMP JUMPDEST DUP3 MSTORE POP POP JUMP JUMPDEST PUSH0 DUP2 MLOAD SWAP1 POP SWAP2 SWAP1 POP JUMP JUMPDEST PUSH0 DUP3 DUP3 MSTORE PUSH1 0x20 DUP3 ADD SWAP1 POP SWAP3 SWAP2 POP POP JUMP JUMPDEST DUP3 DUP2 DUP4 MCOPY PUSH0 DUP4 DUP4 ADD MSTORE POP POP POP JUMP JUMPDEST PUSH0 PUSH2 0x1420 DUP3 PUSH2 0x13EE JUMP JUMPDEST PUSH2 0x142A DUP2 DUP6 PUSH2 0x13F8 JUMP JUMPDEST SWAP4 POP PUSH2 0x143A DUP2 DUP6 PUSH1 0x20 DUP7 ADD PUSH2 0x1408 JUMP JUMPDEST PUSH2 0x1443 DUP2 PUSH2 0x117B JUMP JUMPDEST DUP5 ADD SWAP2 POP POP SWAP3 SWAP2 POP POP JUMP JUMPDEST PUSH32 0x4E487B7100000000000000000000000000000000000000000000000000000000 PUSH0 MSTORE PUSH1 0x21 PUSH1 0x4 MSTORE PUSH1 0x24 PUSH0 REVERT JUMPDEST PUSH1 0x4 DUP2 LT PUSH2 0x148C JUMPI PUSH2 0x148B PUSH2 0x144E JUMP JUMPDEST JUMPDEST POP JUMP JUMPDEST PUSH0 DUP2 SWAP1 POP PUSH2 0x149C DUP3 PUSH2 0x147B JUMP JUMPDEST SWAP2 SWAP1 POP JUMP JUMPDEST PUSH0 PUSH2 0x14AB DUP3 PUSH2 0x148F JUMP JUMPDEST SWAP1 POP SWAP2 SWAP1 POP JUMP JUMPDEST PUSH2 0x14BB DUP2 PUSH2 0x14A1 JUMP JUMPDEST DUP3 MSTORE POP POP JUMP JUMPDEST PUSH0 DUP2 ISZERO ISZERO SWAP1 POP SWAP2 SWAP1 POP JUMP JUMPDEST PUSH2 0x14D5 DUP2 PUSH2 0x14C1 JUMP JUMPDEST DUP3 MSTORE POP POP JUMP JUMPDEST PUSH0 DUP2 SWAP1 POP SWAP2 SWAP1 POP JUMP JUMPDEST PUSH2 0x14ED DUP2 PUSH2 0x14DB JUMP JUMPDEST DUP3 MSTORE POP POP JUMP JUMPDEST PUSH0 PUSH2 0x100 DUP3 ADD SWAP1 POP PUSH2 0x1507 PUSH0 DUP4 ADD DUP12 PUSH2 0x13DF JUMP JUMPDEST DUP2 DUP2 SUB PUSH1 0x20 DUP4 ADD MSTORE PUSH2 0x1519 DUP2 DUP11 PUSH2 0x1416 JUMP JUMPDEST SWAP1 POP DUP2 DUP2 SUB PUSH1 0x40 DUP4 ADD MSTORE PUSH2 0x152D DUP2 DUP10 PUSH2 0x1416 JUMP JUMPDEST SWAP1 POP PUSH2 0x153C PUSH1 0x60 DUP4 ADD DUP9 PUSH2 0x14B2 JUMP JUMPDEST PUSH2 0x1549 PUSH1 0x80 DUP4 ADD DUP8 PUSH2 0x14CC JUMP JUMPDEST PUSH2 0x1556 PUSH1 0xA0 DUP4 ADD DUP7 PUSH2 0x14E4 JUMP JUMPDEST PUSH2 0x1563 PUSH1 0xC0 DUP4 ADD DUP6 PUSH2 0x14E4 JUMP JUMPDEST DUP2 DUP2 SUB PUSH1 0xE0 DUP4 ADD MSTORE PUSH2 0x1575 DUP2 DUP5 PUSH2 0x1416 JUMP JUMPDEST SWAP1 POP SWAP10 SWAP9 POP POP POP POP POP POP POP POP POP JUMP JUMPDEST PUSH0 PUSH0 PUSH1 0x40 DUP4 DUP6 SUB SLT ISZERO PUSH2 0x159A JUMPI PUSH2 0x1599 PUSH2 0x116B JUMP JUMPDEST JUMPDEST PUSH0 PUSH2 0x15A7 DUP6 DUP3 DUP7 ADD PUSH2 0x13A0 JUMP JUMPDEST SWAP3 POP POP PUSH1 0x20 DUP4 ADD CALLDATALOAD PUSH8 0xFFFFFFFFFFFFFFFF DUP2 GT ISZERO PUSH2 0x15C8 JUMPI PUSH2 0x15C7 PUSH2 0x116F JUMP JUMPDEST JUMPDEST PUSH2 0x15D4 DUP6 DUP3 DUP7 ADD PUSH2 0x1282 JUMP JUMPDEST SWAP2 POP POP SWAP3 POP SWAP3 SWAP1 POP JUMP JUMPDEST PUSH0 PUSH1 0x20 DUP3 ADD SWAP1 POP PUSH2 0x15F1 PUSH0 DUP4 ADD DUP5 PUSH2 0x13DF JUMP JUMPDEST SWAP3 SWAP2 POP POP JUMP JUMPDEST PUSH0 PUSH1 0xA0 DUP3 ADD SWAP1 POP DUP2 DUP2 SUB PUSH0 DUP4 ADD MSTORE PUSH2 0x160F DUP2 DUP9 PUSH2 0x1416 JUMP JUMPDEST SWAP1 POP DUP2 DUP2 SUB PUSH1 0x20 DUP4 ADD MSTORE PUSH2 0x1623 DUP2 DUP8 PUSH2 0x1416 JUMP JUMPDEST SWAP1 POP PUSH2 0x1632 PUSH1 0x40 DUP4 ADD DUP7 PUSH2 0x14B2 JUMP JUMPDEST PUSH2 0x163F PUSH1 0x60 DUP4 ADD DUP6 PUSH2 0x14CC JUMP JUMPDEST PUSH2 0x164C PUSH1 0x80 DUP4 ADD DUP5 PUSH2 0x14E4 JUMP JUMPDEST SWAP7 SWAP6 POP POP POP POP POP POP JUMP JUMPDEST PUSH0 PUSH1 0x20 DUP3 ADD SWAP1 POP PUSH2 0x1669 PUSH0 DUP4 ADD DUP5 PUSH2 0x14CC JUMP JUMPDEST SWAP3 SWAP2 POP POP JUMP JUMPDEST PUSH0 PUSH1 0x20 DUP3 ADD SWAP1 POP PUSH2 0x1682 PUSH0 DUP4 ADD DUP5 PUSH2 0x14E4 JUMP JUMPDEST SWAP3 SWAP2 POP POP JUMP JUMPDEST PUSH0 PUSH0 PUSH1 0x40 DUP4 DUP6 SUB SLT ISZERO PUSH2 0x169E JUMPI PUSH2 0x169D PUSH2 0x116B JUMP JUMPDEST JUMPDEST PUSH0 DUP4 ADD CALLDATALOAD PUSH8 0xFFFFFFFFFFFFFFFF DUP2 GT ISZERO PUSH2 0x16BB JUMPI PUSH2 0x16BA PUSH2 0x116F JUMP JUMPDEST JUMPDEST PUSH2 0x16C7 DUP6 DUP3 DUP7 ADD PUSH2 0x1282 JUMP JUMPDEST SWAP3 POP POP PUSH1 0x20 DUP4 ADD CALLDATALOAD PUSH8 0xFFFFFFFFFFFFFFFF DUP2 GT ISZERO PUSH2 0x16E8 JUMPI PUSH2 0x16E7 PUSH2 0x116F JUMP JUMPDEST JUMPDEST PUSH2 0x16F4 DUP6 DUP3 DUP7 ADD PUSH2 0x1282 JUMP JUMPDEST SWAP2 POP POP SWAP3 POP SWAP3 SWAP1 POP JUMP JUMPDEST PUSH2 0x1707 DUP2 PUSH2 0x14DB JUMP JUMPDEST DUP2 EQ PUSH2 0x1711 JUMPI PUSH0 PUSH0 REVERT JUMPDEST POP JUMP JUMPDEST PUSH0 DUP2 CALLDATALOAD SWAP1 POP PUSH2 0x1722 DUP2 PUSH2 0x16FE JUMP JUMPDEST SWAP3 SWAP2 POP POP JUMP JUMPDEST PUSH0 PUSH0 PUSH1 0x40 DUP4 DUP6 SUB SLT ISZERO PUSH2 0x173E JUMPI PUSH2 0x173D PUSH2 0x116B JUMP JUMPDEST JUMPDEST PUSH0 PUSH2 0x174B DUP6 DUP3 DUP7 ADD PUSH2 0x13A0 JUMP JUMPDEST SWAP3 POP POP PUSH1 0x20 PUSH2 0x175C DUP6 DUP3 DUP7 ADD PUSH2 0x1714 JUMP JUMPDEST SWAP2 POP POP SWAP3 POP SWAP3 SWAP1 POP JUMP JUMPDEST PUSH32 0x416C726561647920726567697374657265640000000000000000000000000000 PUSH0 DUP3 ADD MSTORE POP JUMP JUMPDEST PUSH0 PUSH2 0x179A PUSH1 0x12 DUP4 PUSH2 0x13F8 JUMP JUMPDEST SWAP2 POP PUSH2 0x17A5 DUP3 PUSH2 0x1766 JUMP JUMPDEST PUSH1 0x20 DUP3 ADD SWAP1 POP SWAP2 SWAP1 POP JUMP JUMPDEST PUSH0 PUSH1 0x20 DUP3 ADD SWAP1 POP DUP2 DUP2 SUB PUSH0 DUP4 ADD MSTORE PUSH2 0x17C7 DUP2 PUSH2 0x178E JUMP JUMPDEST SWAP1 POP SWAP2 SWAP1 POP JUMP JUMPDEST PUSH32 0x4E616D6520726571756972656400000000000000000000000000000000000000 PUSH0 DUP3 ADD MSTORE POP JUMP JUMPDEST PUSH0 PUSH2 0x1802 PUSH1 0xD DUP4 PUSH2 0x13F8 JUMP JUMPDEST SWAP2 POP PUSH2 0x180D DUP3 PUSH2 0x17CE JUMP JUMPDEST PUSH1 0x20 DUP3 ADD SWAP1 POP SWAP2 SWAP1 POP JUMP JUMPDEST PUSH0 PUSH1 0x20 DUP3 ADD SWAP1 POP DUP2 DUP2 SUB PUSH0 DUP4 ADD MSTORE PUSH2 0x182F DUP2 PUSH2 0x17F6 JUMP JUMPDEST SWAP1 POP SWAP2 SWAP1 POP JUMP JUMPDEST PUSH32 0x4E487B7100000000000000000000000000000000000000000000000000000000 PUSH0 MSTORE PUSH1 0x22 PUSH1 0x4 MSTORE PUSH1 0x24 PUSH0 REVERT JUMPDEST PUSH0 PUSH1 0x2 DUP3 DIV SWAP1 POP PUSH1 0x1 DUP3 AND DUP1 PUSH2 0x187A JUMPI PUSH1 0x7F DUP3 AND SWAP2 POP JUMPDEST PUSH1 0x20 DUP3 LT DUP2 SUB PUSH2 0x188D JUMPI PUSH2 0x188C PUSH2 0x1836 JUMP JUMPDEST JUMPDEST POP SWAP2 SWAP1 POP JUMP JUMPDEST PUSH0 DUP2 SWAP1 POP DUP2 PUSH0 MSTORE PUSH1 0x20 PUSH0 KECCAK256 SWAP1 POP SWAP2 SWAP1 POP JUMP JUMPDEST PUSH0 PUSH1 0x20 PUSH1 0x1F DUP4 ADD DIV SWAP1 POP SWAP2 SWAP1 POP JUMP JUMPDEST PUSH0 DUP3 DUP3 SHL SWAP1 POP SWAP3 SWAP2 POP POP JUMP JUMPDEST PUSH0 PUSH1 0x8 DUP4 MUL PUSH2 0x18EF PUSH32 0xFFFFFFFFFFFFFFFFFFFFFFFFFFFFFFFFFFFFFFFFFFFFFFFFFFFFFFFFFFFFFFFF DUP3 PUSH2 0x18B4 JUMP JUMPDEST PUSH2 0x18F9 DUP7 DUP4 PUSH2 0x18B4 JUMP JUMPDEST SWAP6 POP DUP1 NOT DUP5 AND SWAP4 POP DUP1 DUP7 AND DUP5 OR SWAP3 POP POP POP SWAP4 SWAP3 POP POP POP JUMP JUMPDEST PUSH0 DUP2 SWAP1 POP SWAP2 SWAP1 POP JUMP JUMPDEST PUSH0 PUSH2 0x1934 PUSH2 0x192F PUSH2 0x192A DUP5 PUSH2 0x14DB JUMP JUMPDEST PUSH2 0x1911 JUMP JUMPDEST PUSH2 0x14DB JUMP JUMPDEST SWAP1 POP SWAP2 SWAP1 POP JUMP JUMPDEST PUSH0 DUP2 SWAP1 POP SWAP2 SWAP1 POP JUMP JUMPDEST PUSH2 0x194D DUP4 PUSH2 0x191A JUMP JUMPDEST PUSH2 0x1961 PUSH2 0x1959 DUP3 PUSH2 0x193B JUMP JUMPDEST DUP5 DUP5 SLOAD PUSH2 0x18C0 JUMP JUMPDEST DUP3 SSTORE POP POP POP POP JUMP JUMPDEST PUSH0 PUSH0 SWAP1 POP SWAP1 JUMP JUMPDEST PUSH2 0x1978 PUSH2 0x1969 JUMP JUMPDEST PUSH2 0x1983 DUP2 DUP5 DUP5 PUSH2 0x1944 JUMP JUMPDEST POP POP POP JUMP JUMPDEST JUMPDEST DUP2 DUP2 LT ISZERO PUSH2 0x19A6 JUMPI PUSH2 0x199B PUSH0 DUP3 PUSH2 0x1970 JUMP JUMPDEST PUSH1 0x1 DUP2 ADD SWAP1 POP PUSH2 0x1989 JUMP JUMPDEST POP POP JUMP JUMPDEST PUSH1 0x1F DUP3 GT ISZERO PUSH2 0x19EB JUMPI PUSH2 0x19BC DUP2 PUSH2 0x1893 JUMP JUMPDEST PUSH2 0x19C5 DUP5 PUSH2 0x18A5 JUMP JUMPDEST DUP2 ADD PUSH1 0x20 DUP6 LT ISZERO PUSH2 0x19D4 JUMPI DUP2 SWAP1 POP JUMPDEST PUSH2 0x19E8 PUSH2 0x19E0 DUP6 PUSH2 0x18A5 JUMP JUMPDEST DUP4 ADD DUP3 PUSH2 0x1988 JUMP JUMPDEST POP POP JUMPDEST POP POP POP JUMP JUMPDEST PUSH0 DUP3 DUP3 SHR SWAP1 POP SWAP3 SWAP2 POP POP JUMP JUMPDEST PUSH0 PUSH2 0x1A0B PUSH0 NOT DUP5 PUSH1 0x8 MUL PUSH2 0x19F0 JUMP JUMPDEST NOT DUP1 DUP4 AND SWAP2 POP POP SWAP3 SWAP2 POP POP JUMP JUMPDEST PUSH0 PUSH2 0x1A23 DUP4 DUP4 PUSH2 0x19FC JUMP JUMPDEST SWAP2 POP DUP3 PUSH1 0x2 MUL DUP3 OR SWAP1 POP SWAP3 SWAP2 POP POP JUMP JUMPDEST PUSH2 0x1A3C DUP3 PUSH2 0x13EE JUMP JUMPDEST PUSH8 0xFFFFFFFFFFFFFFFF DUP2 GT ISZERO PUSH2 0x1A55 JUMPI PUSH2 0x1A54 PUSH2 0x118B JUMP JUMPDEST JUMPDEST PUSH2 0x1A5F DUP3 SLOAD PUSH2 0x1863 JUMP JUMPDEST PUSH2 0x1A6A DUP3 DUP3 DUP6 PUSH2 0x19AA JUMP JUMPDEST PUSH0 PUSH1 0x20 SWAP1 POP PUSH1 0x1F DUP4 GT PUSH1 0x1 DUP2 EQ PUSH2 0x1A9B JUMPI PUSH0 DUP5 ISZERO PUSH2 0x1A89 JUMPI DUP3 DUP8 ADD MLOAD SWAP1 POP JUMPDEST PUSH2 0x1A93 DUP6 DUP3 PUSH2 0x1A18 JUMP JUMPDEST DUP7 SSTORE POP PUSH2 0x1AFA JUMP JUMPDEST PUSH1 0x1F NOT DUP5 AND PUSH2 0x1AA9 DUP7 PUSH2 0x1893 JUMP JUMPDEST PUSH0 JUMPDEST DUP3 DUP2 LT ISZERO PUSH2 0x1AD0 JUMPI DUP5 DUP10 ADD MLOAD DUP3 SSTORE PUSH1 0x1 DUP3 ADD SWAP2 POP PUSH1 0x20 DUP6 ADD SWAP5 POP PUSH1 0x20 DUP2 ADD SWAP1 POP PUSH2 0x1AAB JUMP JUMPDEST DUP7 DUP4 LT ISZERO PUSH2 0x1AED JUMPI DUP5 DUP10 ADD MLOAD PUSH2 0x1AE9 PUSH1 0x1F DUP10 AND DUP3 PUSH2 0x19FC JUMP JUMPDEST DUP4 SSTORE POP JUMPDEST PUSH1 0x1 PUSH1 0x2 DUP9 MUL ADD DUP9 SSTORE POP POP POP JUMPDEST POP POP POP POP POP POP JUMP JUMPDEST PUSH32 0x4E487B7100000000000000000000000000000000000000000000000000000000 PUSH0 MSTORE PUSH1 0x11 PUSH1 0x4 MSTORE PUSH1 0x24 PUSH0 REVERT JUMPDEST PUSH0 PUSH2 0x1B39 DUP3 PUSH2 0x14DB JUMP JUMPDEST SWAP2 POP PUSH32 0xFFFFFFFFFFFFFFFFFFFFFFFFFFFFFFFFFFFFFFFFFFFFFFFFFFFFFFFFFFFFFFFF DUP3 SUB PUSH2 0x1B6B JUMPI PUSH2 0x1B6A PUSH2 0x1B02 JUMP JUMPDEST JUMPDEST PUSH1 0x1 DUP3 ADD SWAP1 POP SWAP2 SWAP1 POP JUMP JUMPDEST PUSH0 PUSH1 0x40 DUP3 ADD SWAP1 POP DUP2 DUP2 SUB PUSH0 DUP4 ADD MSTORE PUSH2 0x1B8E DUP2 DUP6 PUSH2 0x1416 JUMP JUMPDEST SWAP1 POP PUSH2 0x1B9D PUSH1 0x20 DUP4 ADD DUP5 PUSH2 0x14B2 JUMP JUMPDEST SWAP4 SWAP3 POP POP POP JUMP JUMPDEST PUSH32 0x4F6E6C79206F776E657200000000000000000000000000000000000000000000 PUSH0 DUP3 ADD MSTORE POP JUMP JUMPDEST PUSH0 PUSH2 0x1BD8 PUSH1 0xA DUP4 PUSH2 0x13F8 JUMP JUMPDEST SWAP2 POP PUSH2 0x1BE3 DUP3 PUSH2 0x1BA4 JUMP JUMPDEST PUSH1 0x20 DUP3 ADD SWAP1 POP SWAP2 SWAP1 POP JUMP JUMPDEST PUSH0 PUSH1 0x20 DUP3 ADD SWAP1 POP DUP2 DUP2 SUB PUSH0 DUP4 ADD MSTORE PUSH2 0x1C05 DUP2 PUSH2 0x1BCC JUMP JUMPDEST SWAP1 POP SWAP2 SWAP1 POP JUMP JUMPDEST PUSH32 0x55736572206E6F74207265676973746572656400000000000000000000000000 PUSH0 DUP3 ADD MSTORE POP JUMP JUMPDEST PUSH0 PUSH2 0x1C40 PUSH1 0x13 DUP4 PUSH2 0x13F8 JUMP JUMPDEST SWAP2 POP PUSH2 0x1C4B DUP3 PUSH2 0x1C0C JUMP JUMPDEST PUSH1 0x20 DUP3 ADD SWAP1 POP SWAP2 SWAP1 POP JUMP JUMPDEST PUSH0 PUSH1 0x20 DUP3 ADD SWAP1 POP DUP2 DUP2 SUB PUSH0 DUP4 ADD MSTORE PUSH2 0x1C6D DUP2 PUSH2 0x1C34 JUMP JUMPDEST SWAP1 POP SWAP2 SWAP1 POP JUMP JUMPDEST PUSH32 0x4E6F742072656769737465726564000000000000000000000000000000000000 PUSH0 DUP3 ADD MSTORE POP JUMP JUMPDEST PUSH0 PUSH2 0x1CA8 PUSH1 0xE DUP4 PUSH2 0x13F8 JUMP JUMPDEST SWAP2 POP PUSH2 0x1CB3 DUP3 PUSH2 0x1C74 JUMP JUMPDEST PUSH1 0x20 DUP3 ADD SWAP1 POP SWAP2 SWAP1 POP JUMP JUMPDEST PUSH0 PUSH1 0x20 DUP3 ADD SWAP1 POP DUP2 DUP2 SUB PUSH0 DUP4 ADD MSTORE PUSH2 0x1CD5 DUP2 PUSH2 0x1C9C JUMP JUMPDEST SWAP1 POP SWAP2 SWAP1 POP JUMP JUMPDEST PUSH32 0x4F6E6C79206D61696E20636F6E74726163740000000000000000000000000000 PUSH0 DUP3 ADD MSTORE POP JUMP JUMPDEST PUSH0 PUSH2 0x1D10 PUSH1 0x12 DUP4 PUSH2 0x13F8 JUMP JUMPDEST SWAP2 POP PUSH2 0x1D1B DUP3 PUSH2 0x1CDC JUMP JUMPDEST PUSH1 0x20 DUP3 ADD SWAP1 POP SWAP2 SWAP1 POP JUMP JUMPDEST PUSH0 PUSH1 0x20 DUP3 ADD SWAP1 POP DUP2 DUP2 SUB PUSH0 DUP4 ADD MSTORE PUSH2 0x1D3D DUP2 PUSH2 0x1D04 JUMP JUMPDEST SWAP1 POP SWAP2 SWAP1 POP JUMP JUMPDEST PUSH32 0x53636F7265206D75737420626520302D31303000000000000000000000000000 PUSH0 DUP3 ADD MSTORE POP JUMP JUMPDEST PUSH0 PUSH2 0x1D78 PUSH1 0x13 DUP4 PUSH2 0x13F8 JUMP JUMPDEST SWAP2 POP PUSH2 0x1D83 DUP3 PUSH2 0x1D44 JUMP JUMPDEST PUSH1 0x20 DUP3 ADD SWAP1 POP SWAP2 SWAP1 POP JUMP JUMPDEST PUSH0 PUSH1 0x20 DUP3 ADD SWAP1 POP DUP2 DUP2 SUB PUSH0 DUP4 ADD MSTORE PUSH2 0x1DA5 DUP2 PUSH2 0x1D6C JUMP JUMPDEST SWAP1 POP SWAP2 SWAP1 POP JUMP INVALID LOG2 PUSH5 0x6970667358 0x22 SLT KECCAK256 PREVRANDAO 0xEA 0xDB 0xAA 0xCF CREATE CODECOPY 0x2A EXTCODECOPY EXTCODEHASH PUSH8 0x379D00359ABD57CD PUSH28 0x24FCFEDFE193B522EEAC640364736F6C634300081E00330000000000 "
				},
				"gasEstimates": {
					"creation": {
						"codeDepositCost": "1530000",
						"executionCost": "25865",
						"totalCost": "1555865"
					},
					"external": {
						"getUserProfile(address)": "infinite",
						"isRegistered(address)": "2877",
						"isUserVerified(address)": "2927",
						"mainContract()": "2596",
						"owner()": "2596",
						"registerUser(string,string,uint8)": "infinite",
						"setMainContract(address)": "26928",
						"totalUsers()": "2447",
						"updateProfile(string,string)": "infinite",
						"updateReputation(address,uint256)": "infinite",
						"userProfiles(address)": "infinite",
						"verifyUser(address,string)": "infinite"
					}
				},
				"methodIdentifiers": {
					"getUserProfile(address)": "987ee156",
					"isRegistered(address)": "c3c5a547",
					"isUserVerified(address)": "ace417e0",
					"mainContract()": "d270e7ab",
					"owner()": "8da5cb5b",
					"registerUser(string,string,uint8)": "2e17a931",
					"setMainContract(address)": "3ded33bc",
					"totalUsers()": "bff1f9e1",
					"updateProfile(string,string)": "c9d3cc6a",
					"updateReputation(address,uint256)": "f5c91a08",
					"userProfiles(address)": "332d56d7",
					"verifyUser(address,string)": "641d7a78"
				}
			},
			"storageLayout": {
				"storage": [
					{
						"astId": 27,
						"contract": "contracts/modular/DiasporaUserRegistry.sol:DiasporaUserRegistry",
						"label": "owner",
						"offset": 0,
						"slot": "0",
						"type": "t_address"
					},
					{
						"astId": 29,
						"contract": "contracts/modular/DiasporaUserRegistry.sol:DiasporaUserRegistry",
						"label": "mainContract",
						"offset": 0,
						"slot": "1",
						"type": "t_address"
					},
					{
						"astId": 34,
						"contract": "contracts/modular/DiasporaUserRegistry.sol:DiasporaUserRegistry",
						"label": "userProfiles",
						"offset": 0,
						"slot": "2",
						"type": "t_mapping(t_address,t_struct(UserProfile)20_storage)"
					},
					{
						"astId": 38,
						"contract": "contracts/modular/DiasporaUserRegistry.sol:DiasporaUserRegistry",
						"label": "isRegistered",
						"offset": 0,
						"slot": "3",
						"type": "t_mapping(t_address,t_bool)"
					},
					{
						"astId": 40,
						"contract": "contracts/modular/DiasporaUserRegistry.sol:DiasporaUserRegistry",
						"label": "totalUsers",
						"offset": 0,
						"slot": "4",
						"type": "t_uint256"
					}
				],
				"types": {
					"t_address": {
						"encoding": "inplace",
						"label": "address",
						"numberOfBytes": "20"
					},
					"t_bool": {
						"encoding": "inplace",
						"label": "bool",
						"numberOfBytes": "1"
					},
					"t_enum(UserType)25": {
						"encoding": "inplace",
						"label": "enum DiasporaUserRegistry.UserType",
						"numberOfBytes": "1"
					},
					"t_mapping(t_address,t_bool)": {
						"encoding": "mapping",
						"key": "t_address",
						"label": "mapping(address => bool)",
						"numberOfBytes": "32",
						"value": "t_bool"
					},
					"t_mapping(t_address,t_struct(UserProfile)20_storage)": {
						"encoding": "mapping",
						"key": "t_address",
						"label": "mapping(address => struct DiasporaUserRegistry.UserProfile)",
						"numberOfBytes": "32",
						"value": "t_struct(UserProfile)20_storage"
					},
					"t_string_storage": {
						"encoding": "bytes",
						"label": "string",
						"numberOfBytes": "32"
					},
					"t_struct(UserProfile)20_storage": {
						"encoding": "inplace",
						"label": "struct DiasporaUserRegistry.UserProfile",
						"members": [
							{
								"astId": 4,
								"contract": "contracts/modular/DiasporaUserRegistry.sol:DiasporaUserRegistry",
								"label": "userAddress",
								"offset": 0,
								"slot": "0",
								"type": "t_address"
							},
							{
								"astId": 6,
								"contract": "contracts/modular/DiasporaUserRegistry.sol:DiasporaUserRegistry",
								"label": "name",
								"offset": 0,
								"slot": "1",
								"type": "t_string_storage"
							},
							{
								"astId": 8,
								"contract": "contracts/modular/DiasporaUserRegistry.sol:DiasporaUserRegistry",
								"label": "country",
								"offset": 0,
								"slot": "2",
								"type": "t_string_storage"
							},
							{
								"astId": 11,
								"contract": "contracts/modular/DiasporaUserRegistry.sol:DiasporaUserRegistry",
								"label": "userType",
								"offset": 0,
								"slot": "3",
								"type": "t_enum(UserType)25"
							},
							{
								"astId": 13,
								"contract": "contracts/modular/DiasporaUserRegistry.sol:DiasporaUserRegistry",
								"label": "isVerified",
								"offset": 1,
								"slot": "3",
								"type": "t_bool"
							},
							{
								"astId": 15,
								"contract": "contracts/modular/DiasporaUserRegistry.sol:DiasporaUserRegistry",
								"label": "registrationDate",
								"offset": 0,
								"slot": "4",
								"type": "t_uint256"
							},
							{
								"astId": 17,
								"contract": "contracts/modular/DiasporaUserRegistry.sol:DiasporaUserRegistry",
								"label": "reputationScore",
								"offset": 0,
								"slot": "5",
								"type": "t_uint256"
							},
							{
								"astId": 19,
								"contract": "contracts/modular/DiasporaUserRegistry.sol:DiasporaUserRegistry",
								"label": "kycDocumentHash",
								"offset": 0,
								"slot": "6",
								"type": "t_string_storage"
							}
						],
						"numberOfBytes": "224"
					},
					"t_uint256": {
						"encoding": "inplace",
						"label": "uint256",
						"numberOfBytes": "32"
					}
				}
			},
			"userdoc": {
				"kind": "user",
				"methods": {},
				"notice": "Registre pour gérer les profils des expéditeurs, bénéficiaires et validateurs",
				"version": 1
			}
		}
	}
}