{
	"data": {
		"bytecode": {
			"linkReferences": {},
			"object": "60806040526001805560016008553480156017575f5ffd5b50335f5f6101000a81548173ffffffffffffffffffffffffffffffffffffffff021916908373ffffffffffffffffffffffffffffffffffffffff160217905550615059806100645f395ff3fe6080604052600436106101f1575f3560e01c80639259061e1161010c578063b3d50e371161009f578063e55e42111161006e578063e55e4211146107ed578063eaf8294b14610815578063ec18154e14610831578063f376ebbb1461085b578063f3fee05d1461088557610231565b8063b3d50e3714610713578063b93c37701461073b578063c16fe9071461077d578063cdd78cfc146107c357610231565b80639cb80f00116100db5780639cb80f001461064b578063aa0b598814610687578063ace417e0146106af578063b0d5451b146106eb57610231565b80639259061e1461055c5780639377d7111461058c5780639bfd3f9d146105d35780639c51d4a11461060f57610231565b806349773050116101845780635c7460d6116101535780635c7460d6146104a25780636353f887146104cc5780636f9fb98a146105085780638da5cb5b1461053257610231565b806349773050146104025780634b920afe1461042a5780635a27cbcb146104525780635aef573c1461047a57610231565b80632beca249116101c05780632beca249146103385780632d1fdef6146103745780633bf477201461039c57806342b0a8ce146103c657610231565b8063042334561461026c578063136d8883146102a8578063155dd5ee146102d45780632bbdcb4e146102fc57610231565b36610231576040517f08c379a000000000000000000000000000000000000000000000000000000000815260040161022890613e7e565b60405180910390fd5b6040517f08c379a000000000000000000000000000000000000000000000000000000000815260040161026390613ee6565b60405180910390fd5b348015610277575f5ffd5b50610292600480360381019061028d9190613f6f565b6108ad565b60405161029f919061405a565b60405180910390f35b3480156102b3575f5ffd5b506102bc610940565b6040516102cb93929190614089565b60405180910390f35b3480156102df575f5ffd5b506102fa60048036038101906102f591906140e8565b610957565b005b348015610307575f5ffd5b50610322600480360381019061031d9190614113565b610dad565b60405161032f9190614151565b60405180910390f35b348015610343575f5ffd5b5061035e60048036038101906103599190613f6f565b610dd8565b60405161036b9190614184565b60405180910390f35b34801561037f575f5ffd5b5061039a6004803603810190610395919061419d565b610ed6565b005b3480156103a7575f5ffd5b506103b0611107565b6040516103bd9190614151565b60405180910390f35b3480156103d1575f5ffd5b506103ec60048036038101906103e79190613f6f565b61110d565b6040516103f9919061405a565b60405180910390f35b34801561040d575f5ffd5b5061042860048036038101906104239190613f6f565b6111a0565b005b348015610435575f5ffd5b50610450600480360381019061044b919061423c565b611273565b005b34801561045d575f5ffd5b5061047860048036038101906104739190614299565b6115b4565b005b348015610485575f5ffd5b506104a0600480360381019061049b919061423c565b611890565b005b3480156104ad575f5ffd5b506104b6611b2e565b6040516104c39190614332565b60405180910390f35b3480156104d7575f5ffd5b506104f260048036038101906104ed9190614483565b611b53565b6040516104ff9190614151565b60405180910390f35b348015610513575f5ffd5b5061051c612072565b6040516105299190614151565b60405180910390f35b34801561053d575f5ffd5b50610546612079565b6040516105539190614512565b60405180910390f35b61057660048036038101906105719190614483565b61209d565b6040516105839190614151565b60405180910390f35b348015610597575f5ffd5b506105b260048036038101906105ad91906140e8565b612192565b6040516105ca9c9b9a999897969594939291906145ee565b60405180910390f35b3480156105de575f5ffd5b506105f960048036038101906105f49190614113565b61236f565b6040516106069190614151565b60405180910390f35b34801561061a575f5ffd5b5061063560048036038101906106309190613f6f565b61239a565b604051610642919061405a565b60405180910390f35b348015610656575f5ffd5b50610671600480360381019061066c9190614113565b61242d565b60405161067e9190614151565b60405180910390f35b348015610692575f5ffd5b506106ad60048036038101906106a891906140e8565b612458565b005b3480156106ba575f5ffd5b506106d560048036038101906106d09190613f6f565b61252d565b6040516106e29190614184565b60405180910390f35b3480156106f6575f5ffd5b50610711600480360381019061070c9190613f6f565b61262b565b005b34801561071e575f5ffd5b5061073960048036038101906107349190614299565b6126fe565b005b348015610746575f5ffd5b50610761600480360381019061075c91906140e8565b612997565b60405161077497969594939291906146b4565b60405180910390f35b348015610788575f5ffd5b506107a3600480360381019061079e91906140e8565b612dc9565b6040516107ba9b9a99989796959493929190614721565b60405180910390f35b3480156107ce575f5ffd5b506107d7613142565b6040516107e49190614151565b60405180910390f35b3480156107f8575f5ffd5b50610813600480360381019061080e919061480e565b613148565b005b61082f600480360381019061082a91906140e8565b6135af565b005b34801561083c575f5ffd5b5061084561388c565b6040516108529190614151565b60405180910390f35b348015610866575f5ffd5b5061086f613892565b60405161087c919061486c565b60405180910390f35b348015610890575f5ffd5b506108ab60048036038101906108a691906140e8565b6138b7565b005b606060065f8373ffffffffffffffffffffffffffffffffffffffff1673ffffffffffffffffffffffffffffffffffffffff1681526020019081526020015f2080548060200260200160405190810160405280929190818152602001828054801561093457602002820191905f5260205f20905b815481526020019060010190808311610920575b50505050509050919050565b5f5f5f600254600354600154925092509250909192565b80600254811061099e57806040517fee9ffcb70000000000000000000000000000000000000000000000000000000081526004016109959190614151565b60405180910390fd5b813373ffffffffffffffffffffffffffffffffffffffff1660045f8381526020019081526020015f206002015f9054906101000a900473ffffffffffffffffffffffffffffffffffffffff1673ffffffffffffffffffffffffffffffffffffffff1614610a4257336040517f8e4a23d6000000000000000000000000000000000000000000000000000000008152600401610a399190614512565b60405180910390fd5b600160085414610a7e576040517fc5f2be5100000000000000000000000000000000000000000000000000000000815260040160405180910390fd5b60026008819055505f60045f8581526020019081526020015f20905060026005811115610aae57610aad61452b565b5b816006015f9054906101000a900460ff166005811115610ad157610ad061452b565b5b14610b2657806006015f9054906101000a900460ff1660026040517ff924664d000000000000000000000000000000000000000000000000000000008152600401610b1d929190614885565b60405180910390fd5b5f816004015403610b63576040517fd5ef09ba00000000000000000000000000000000000000000000000000000000815260040160405180910390fd5b5f816004015490505f606460015483610b7c91906148d9565b610b869190614947565b90505f8183610b959190614977565b90506003846006015f6101000a81548160ff02191690836005811115610bbe57610bbd61452b565b5b02179055504284600a01819055508260035f828254610bdd9190614977565b925050819055505f73ffffffffffffffffffffffffffffffffffffffff1660095f9054906101000a900473ffffffffffffffffffffffffffffffffffffffff1673ffffffffffffffffffffffffffffffffffffffff1614610c6557610c64846001015f9054906101000a900473ffffffffffffffffffffffffffffffffffffffff16613c12565b5b5f846002015f9054906101000a900473ffffffffffffffffffffffffffffffffffffffff1673ffffffffffffffffffffffffffffffffffffffff1682604051610cad906149d7565b5f6040518083038185875af1925050503d805f8114610ce7576040519150601f19603f3d011682016040523d82523d5f602084013e610cec565b606091505b5050905080610d27576040517f90b8ec1800000000000000000000000000000000000000000000000000000000815260040160405180910390fd5b846002015f9054906101000a900473ffffffffffffffffffffffffffffffffffffffff1673ffffffffffffffffffffffffffffffffffffffff16887f8f034c05208e51e526ae64863f6f62ce04aa7d67d7568c54c28bcda6f1ced6a98486604051610d939291906149eb565b60405180910390a350505050506001600881905550505050565b6005602052815f5260405f208181548110610dc6575f80fd5b905f5260205f20015f91509150505481565b5f5f73ffffffffffffffffffffffffffffffffffffffff16600a5f9054906101000a900473ffffffffffffffffffffffffffffffffffffffff1673ffffffffffffffffffffffffffffffffffffffff1603610e35575f9050610ed1565b600a5f9054906101000a900473ffffffffffffffffffffffffffffffffffffffff1673ffffffffffffffffffffffffffffffffffffffff1663305ea318836040518263ffffffff1660e01b8152600401610e8f9190614512565b602060405180830381865afa158015610eaa573d5f5f3e3d5ffd5b505050506040513d601f19601f82011682018060405250810190610ece9190614a3c565b90505b919050565b816002548110610f1d57806040517fee9ffcb7000000000000000000000000000000000000000000000000000000008152600401610f149190614151565b60405180910390fd5b823373ffffffffffffffffffffffffffffffffffffffff1660045f8381526020019081526020015f206001015f9054906101000a900473ffffffffffffffffffffffffffffffffffffffff1673ffffffffffffffffffffffffffffffffffffffff1614610fc157336040517f8e4a23d6000000000000000000000000000000000000000000000000000000008152600401610fb89190614512565b60405180910390fd5b5f60045f8681526020019081526020015f20905060016005811115610fe957610fe861452b565b5b816006015f9054906101000a900460ff16600581111561100c5761100b61452b565b5b1461106157806006015f9054906101000a900460ff1660016040517ff924664d000000000000000000000000000000000000000000000000000000008152600401611058929190614885565b60405180910390fd5b806005015442111561109f576040517f70f65caa00000000000000000000000000000000000000000000000000000000815260040160405180910390fd5b5f8160050154905084826005015f8282546110ba9190614a67565b92505081905550857f514af8ba7abbcaa858d00568e0788cd39416a39195eac9780f8730cd4fcfb1038284600501546040516110f79291906149eb565b60405180910390a2505050505050565b60025481565b606060075f8373ffffffffffffffffffffffffffffffffffffffff1673ffffffffffffffffffffffffffffffffffffffff1681526020019081526020015f2080548060200260200160405190810160405280929190818152602001828054801561119457602002820191905f5260205f20905b815481526020019060010190808311611180575b50505050509050919050565b5f5f9054906101000a900473ffffffffffffffffffffffffffffffffffffffff1673ffffffffffffffffffffffffffffffffffffffff163373ffffffffffffffffffffffffffffffffffffffff161461123057336040517f8e4a23d60000000000000000000000000000000000000000000000000000000081526004016112279190614512565b60405180910390fd5b80600a5f6101000a81548173ffffffffffffffffffffffffffffffffffffffff021916908373ffffffffffffffffffffffffffffffffffffffff16021790555050565b8260025481106112ba57806040517fee9ffcb70000000000000000000000000000000000000000000000000000000081526004016112b19190614151565b60405180910390fd5b833373ffffffffffffffffffffffffffffffffffffffff1660045f8381526020019081526020015f206003015f9054906101000a900473ffffffffffffffffffffffffffffffffffffffff1673ffffffffffffffffffffffffffffffffffffffff161461135e57336040517f8e4a23d60000000000000000000000000000000000000000000000000000000081526004016113559190614512565b60405180910390fd5b5f60045f8781526020019081526020015f209050600160058111156113865761138561452b565b5b816006015f9054906101000a900460ff1660058111156113a9576113a861452b565b5b146113fe57806006015f9054906101000a900460ff1660016040517ff924664d0000000000000000000000000000000000000000000000000000000081526004016113f5929190614885565b60405180910390fd5b806005015442111561143c576040517f70f65caa00000000000000000000000000000000000000000000000000000000815260040160405180910390fd5b6002816006015f6101000a81548160ff021916908360058111156114635761146261452b565b5b0217905550848482600801918261147b929190614c98565b505f73ffffffffffffffffffffffffffffffffffffffff16600a5f9054906101000a900473ffffffffffffffffffffffffffffffffffffffff1673ffffffffffffffffffffffffffffffffffffffff161461155b57600a5f9054906101000a900473ffffffffffffffffffffffffffffffffffffffff1673ffffffffffffffffffffffffffffffffffffffff16631d11308e3360016040518363ffffffff1660e01b815260040161152d929190614d65565b5f604051808303815f87803b158015611544575f5ffd5b505af1158015611556573d5f5f3e3d5ffd5b505050505b3373ffffffffffffffffffffffffffffffffffffffff16867f800ef3e3b110573f2f50295ca58cb134587dec0061753c905e35e84f2efb8c5287876040516115a4929190614db8565b60405180910390a3505050505050565b8160025481106115fb57806040517fee9ffcb70000000000000000000000000000000000000000000000000000000081526004016115f29190614151565b60405180910390fd5b823373ffffffffffffffffffffffffffffffffffffffff1660045f8381526020019081526020015f206001015f9054906101000a900473ffffffffffffffffffffffffffffffffffffffff1673ffffffffffffffffffffffffffffffffffffffff161461169f57336040517f8e4a23d60000000000000000000000000000000000000000000000000000000081526004016116969190614512565b60405180910390fd5b5f73ffffffffffffffffffffffffffffffffffffffff168373ffffffffffffffffffffffffffffffffffffffff1603611704576040517fe6c4247b00000000000000000000000000000000000000000000000000000000815260040160405180910390fd5b5f60045f8681526020019081526020015f2090505f600581111561172b5761172a61452b565b5b816006015f9054906101000a900460ff16600581111561174e5761174d61452b565b5b1415801561179157506001600581111561176b5761176a61452b565b5b816006015f9054906101000a900460ff16600581111561178e5761178d61452b565b5b14155b156117e557806006015f9054906101000a900460ff165f6040517ff924664d0000000000000000000000000000000000000000000000000000000081526004016117dc929190614885565b60405180910390fd5b5f816003015f9054906101000a900473ffffffffffffffffffffffffffffffffffffffff16905084826003015f6101000a81548173ffffffffffffffffffffffffffffffffffffffff021916908373ffffffffffffffffffffffffffffffffffffffff160217905550857f2acb199b487dd9d4949bf0ce3a2b36baa7e688eb88197841015161a98b3d87478287604051611880929190614dda565b60405180910390a2505050505050565b8260025481106118d757806040517fee9ffcb70000000000000000000000000000000000000000000000000000000081526004016118ce9190614151565b60405180910390fd5b5f60045f8681526020019081526020015f209050806001015f9054906101000a900473ffffffffffffffffffffffffffffffffffffffff1673ffffffffffffffffffffffffffffffffffffffff163373ffffffffffffffffffffffffffffffffffffffff16141580156119995750806002015f9054906101000a900473ffffffffffffffffffffffffffffffffffffffff1673ffffffffffffffffffffffffffffffffffffffff163373ffffffffffffffffffffffffffffffffffffffff1614155b156119db57336040517f8e4a23d60000000000000000000000000000000000000000000000000000000081526004016119d29190614512565b60405180910390fd5b600260058111156119ef576119ee61452b565b5b816006015f9054906101000a900460ff166005811115611a1257611a1161452b565b5b14158015611a55575060016005811115611a2f57611a2e61452b565b5b816006015f9054906101000a900460ff166005811115611a5257611a5161452b565b5b14155b15611aaa57806006015f9054906101000a900460ff1660026040517ff924664d000000000000000000000000000000000000000000000000000000008152600401611aa1929190614885565b60405180910390fd5b6005816006015f6101000a81548160ff02191690836005811115611ad157611ad061452b565b5b02179055503373ffffffffffffffffffffffffffffffffffffffff16857f556a5bf38cb59a9278ed161f499d231bbbed1025f2765aa08fb5688767a65e508686604051611b1f929190614db8565b60405180910390a35050505050565b60095f9054906101000a900473ffffffffffffffffffffffffffffffffffffffff1681565b5f5f73ffffffffffffffffffffffffffffffffffffffff168573ffffffffffffffffffffffffffffffffffffffff161480611bb957505f73ffffffffffffffffffffffffffffffffffffffff168473ffffffffffffffffffffffffffffffffffffffff16145b15611bf0576040517fe6c4247b00000000000000000000000000000000000000000000000000000000815260040160405180910390fd5b5f835103611c2a576040517fdfa03e5000000000000000000000000000000000000000000000000000000000815260040160405180910390fd5b62015180821015611c67576040517f2c5211c600000000000000000000000000000000000000000000000000000000815260040160405180910390fd5b5f60025490506040518061018001604052808281526020013373ffffffffffffffffffffffffffffffffffffffff1681526020018773ffffffffffffffffffffffffffffffffffffffff1681526020018673ffffffffffffffffffffffffffffffffffffffff1681526020015f81526020018442611ce59190614a67565b81526020015f6005811115611cfd57611cfc61452b565b5b815260200185815260200160405180602001604052805f81525081526020014281526020015f81526020015f151581525060045f8381526020019081526020015f205f820151815f01556020820151816001015f6101000a81548173ffffffffffffffffffffffffffffffffffffffff021916908373ffffffffffffffffffffffffffffffffffffffff1602179055506040820151816002015f6101000a81548173ffffffffffffffffffffffffffffffffffffffff021916908373ffffffffffffffffffffffffffffffffffffffff1602179055506060820151816003015f6101000a81548173ffffffffffffffffffffffffffffffffffffffff021916908373ffffffffffffffffffffffffffffffffffffffff1602179055506080820151816004015560a0820151816005015560c0820151816006015f6101000a81548160ff02191690836005811115611e5757611e5661452b565b5b021790555060e0820151816007019081611e719190614e01565b50610100820151816008019081611e889190614e01565b50610120820151816009015561014082015181600a015561016082015181600b015f6101000a81548160ff02191690831515021790555090505060055f3373ffffffffffffffffffffffffffffffffffffffff1673ffffffffffffffffffffffffffffffffffffffff1681526020019081526020015f2081908060018154018082558091505060019003905f5260205f20015f909190919091505560065f8773ffffffffffffffffffffffffffffffffffffffff1673ffffffffffffffffffffffffffffffffffffffff1681526020019081526020015f2081908060018154018082558091505060019003905f5260205f20015f909190919091505560075f8673ffffffffffffffffffffffffffffffffffffffff1673ffffffffffffffffffffffffffffffffffffffff1681526020019081526020015f2081908060018154018082558091505060019003905f5260205f20015f909190919091505560025f815480929190611ff790614ed0565b91905055508573ffffffffffffffffffffffffffffffffffffffff163373ffffffffffffffffffffffffffffffffffffffff16827ffec2e0001f23ac3e685805535a487f140c608e19fa1f37407b0ff7d71ede5bc7885f8960405161205e93929190614f50565b60405180910390a480915050949350505050565b5f47905090565b5f5f9054906101000a900473ffffffffffffffffffffffffffffffffffffffff1681565b5f5f34036120d7576040517f2c5211c600000000000000000000000000000000000000000000000000000000815260040160405180910390fd5b5f6120e486868686611b53565b90505f60045f8381526020019081526020015f2090503481600401819055506001816006015f6101000a81548160ff0219169083600581111561212a5761212961452b565b5b02179055503460035f8282546121409190614a67565b92505081905550817ff984c0f6b056fe16b28046e36fcafa84a00d503f88f1d0afa768e4c206192b8034836005015460405161217d9291906149eb565b60405180910390a28192505050949350505050565b6004602052805f5260405f205f91509050805f015490806001015f9054906101000a900473ffffffffffffffffffffffffffffffffffffffff1690806002015f9054906101000a900473ffffffffffffffffffffffffffffffffffffffff1690806003015f9054906101000a900473ffffffffffffffffffffffffffffffffffffffff1690806004015490806005015490806006015f9054906101000a900460ff169080600701805461224490614ad1565b80601f016020809104026020016040519081016040528092919081815260200182805461227090614ad1565b80156122bb5780601f10612292576101008083540402835291602001916122bb565b820191905f5260205f20905b81548152906001019060200180831161229e57829003601f168201915b5050505050908060080180546122d090614ad1565b80601f01602080910402602001604051908101604052809291908181526020018280546122fc90614ad1565b80156123475780601f1061231e57610100808354040283529160200191612347565b820191905f5260205f20905b81548152906001019060200180831161232a57829003601f168201915b50505050509080600901549080600a01549080600b015f9054906101000a900460ff1690508c565b6007602052815f5260405f208181548110612388575f80fd5b905f5260205f20015f91509150505481565b606060055f8373ffffffffffffffffffffffffffffffffffffffff1673ffffffffffffffffffffffffffffffffffffffff1681526020019081526020015f2080548060200260200160405190810160405280929190818152602001828054801561242157602002820191905f5260205f20905b81548152602001906001019080831161240d575b50505050509050919050565b6006602052815f5260405f208181548110612446575f80fd5b905f5260205f20015f91509150505481565b5f5f9054906101000a900473ffffffffffffffffffffffffffffffffffffffff1673ffffffffffffffffffffffffffffffffffffffff163373ffffffffffffffffffffffffffffffffffffffff16146124e857336040517f8e4a23d60000000000000000000000000000000000000000000000000000000081526004016124df9190614512565b60405180910390fd5b600a811115612523576040517f1f3b85d300000000000000000000000000000000000000000000000000000000815260040160405180910390fd5b8060018190555050565b5f5f73ffffffffffffffffffffffffffffffffffffffff1660095f9054906101000a900473ffffffffffffffffffffffffffffffffffffffff1673ffffffffffffffffffffffffffffffffffffffff160361258a575f9050612626565b60095f9054906101000a900473ffffffffffffffffffffffffffffffffffffffff1673ffffffffffffffffffffffffffffffffffffffff1663ace417e0836040518263ffffffff1660e01b81526004016125e49190614512565b602060405180830381865afa1580156125ff573d5f5f3e3d5ffd5b505050506040513d601f19601f820116820180604052508101906126239190614a3c565b90505b919050565b5f5f9054906101000a900473ffffffffffffffffffffffffffffffffffffffff1673ffffffffffffffffffffffffffffffffffffffff163373ffffffffffffffffffffffffffffffffffffffff16146126bb57336040517f8e4a23d60000000000000000000000000000000000000000000000000000000081526004016126b29190614512565b60405180910390fd5b8060095f6101000a81548173ffffffffffffffffffffffffffffffffffffffff021916908373ffffffffffffffffffffffffffffffffffffffff16021790555050565b81600254811061274557806040517fee9ffcb700000000000000000000000000000000000000000000000000000000815260040161273c9190614151565b60405180910390fd5b823373ffffffffffffffffffffffffffffffffffffffff1660045f8381526020019081526020015f206001015f9054906101000a900473ffffffffffffffffffffffffffffffffffffffff1673ffffffffffffffffffffffffffffffffffffffff16146127e957336040517f8e4a23d60000000000000000000000000000000000000000000000000000000081526004016127e09190614512565b60405180910390fd5b5f73ffffffffffffffffffffffffffffffffffffffff168373ffffffffffffffffffffffffffffffffffffffff160361284e576040517fe6c4247b00000000000000000000000000000000000000000000000000000000815260040160405180910390fd5b5f60045f8681526020019081526020015f2090505f60058111156128755761287461452b565b5b816006015f9054906101000a900460ff1660058111156128985761289761452b565b5b146128ec57806006015f9054906101000a900460ff165f6040517ff924664d0000000000000000000000000000000000000000000000000000000081526004016128e3929190614885565b60405180910390fd5b5f816002015f9054906101000a900473ffffffffffffffffffffffffffffffffffffffff16905084826002015f6101000a81548173ffffffffffffffffffffffffffffffffffffffff021916908373ffffffffffffffffffffffffffffffffffffffff160217905550857feb42f80d8691a4932e59d407b00ed90f3816304690706e7af5182e0cb3dcbd178287604051612987929190614dda565b60405180910390a2505050505050565b5f5f5f5f5f5f5f8760025481106129e557806040517fee9ffcb70000000000000000000000000000000000000000000000000000000081526004016129dc9190614151565b60405180910390fd5b5f60045f8b81526020019081526020015f20604051806101800160405290815f8201548152602001600182015f9054906101000a900473ffffffffffffffffffffffffffffffffffffffff1673ffffffffffffffffffffffffffffffffffffffff1673ffffffffffffffffffffffffffffffffffffffff168152602001600282015f9054906101000a900473ffffffffffffffffffffffffffffffffffffffff1673ffffffffffffffffffffffffffffffffffffffff1673ffffffffffffffffffffffffffffffffffffffff168152602001600382015f9054906101000a900473ffffffffffffffffffffffffffffffffffffffff1673ffffffffffffffffffffffffffffffffffffffff1673ffffffffffffffffffffffffffffffffffffffff1681526020016004820154815260200160058201548152602001600682015f9054906101000a900460ff166005811115612b4357612b4261452b565b5b6005811115612b5557612b5461452b565b5b8152602001600782018054612b6990614ad1565b80601f0160208091040260200160405190810160405280929190818152602001828054612b9590614ad1565b8015612be05780601f10612bb757610100808354040283529160200191612be0565b820191905f5260205f20905b815481529060010190602001808311612bc357829003601f168201915b50505050508152602001600882018054612bf990614ad1565b80601f0160208091040260200160405190810160405280929190818152602001828054612c2590614ad1565b8015612c705780601f10612c4757610100808354040283529160200191612c70565b820191905f5260205f20905b815481529060010190602001808311612c5357829003601f168201915b5050505050815260200160098201548152602001600a8201548152602001600b82015f9054906101000a900460ff16151515158152505090505f60016005811115612cbe57612cbd61452b565b5b8260c001516005811115612cd557612cd461452b565b5b148015612ce657508160a001514210155b90505f428360a0015111612cfa575f612d0b565b428360a00151612d0a9190614977565b5b90508260c001515f84608001511160026005811115612d2d57612d2c61452b565b5b8560c001516005811115612d4457612d4361452b565b5b1480612d78575060036005811115612d5f57612d5e61452b565b5b8560c001516005811115612d7657612d7561452b565b5b145b60036005811115612d8c57612d8b61452b565b5b8660c001516005811115612da357612da261452b565b5b1486610160015186869a509a509a509a509a509a509a5050505050919395979092949650565b5f5f5f5f5f5f6060805f5f5f8b6002548110612e1c57806040517fee9ffcb7000000000000000000000000000000000000000000000000000000008152600401612e139190614151565b60405180910390fd5b5f60045f8f81526020019081526020015f20604051806101800160405290815f8201548152602001600182015f9054906101000a900473ffffffffffffffffffffffffffffffffffffffff1673ffffffffffffffffffffffffffffffffffffffff1673ffffffffffffffffffffffffffffffffffffffff168152602001600282015f9054906101000a900473ffffffffffffffffffffffffffffffffffffffff1673ffffffffffffffffffffffffffffffffffffffff1673ffffffffffffffffffffffffffffffffffffffff168152602001600382015f9054906101000a900473ffffffffffffffffffffffffffffffffffffffff1673ffffffffffffffffffffffffffffffffffffffff1673ffffffffffffffffffffffffffffffffffffffff1681526020016004820154815260200160058201548152602001600682015f9054906101000a900460ff166005811115612f7a57612f7961452b565b5b6005811115612f8c57612f8b61452b565b5b8152602001600782018054612fa090614ad1565b80601f0160208091040260200160405190810160405280929190818152602001828054612fcc90614ad1565b80156130175780601f10612fee57610100808354040283529160200191613017565b820191905f5260205f20905b815481529060010190602001808311612ffa57829003601f168201915b5050505050815260200160088201805461303090614ad1565b80601f016020809104026020016040519081016040528092919081815260200182805461305c90614ad1565b80156130a75780601f1061307e576101008083540402835291602001916130a7565b820191905f5260205f20905b81548152906001019060200180831161308a57829003601f168201915b5050505050815260200160098201548152602001600a8201548152602001600b82015f9054906101000a900460ff161515151581525050905080602001518160400151826060015183608001518460a001518560c001518660e001518761010001518861012001518961014001518a61016001519c509c509c509c509c509c509c509c509c509c509c50505091939597999b90929496989a50565b60015481565b5f5f9054906101000a900473ffffffffffffffffffffffffffffffffffffffff1673ffffffffffffffffffffffffffffffffffffffff163373ffffffffffffffffffffffffffffffffffffffff16146131d857336040517f8e4a23d60000000000000000000000000000000000000000000000000000000081526004016131cf9190614512565b60405180910390fd5b81600254811061321f57806040517fee9ffcb70000000000000000000000000000000000000000000000000000000081526004016132169190614151565b60405180910390fd5b60016008541461325b576040517fc5f2be5100000000000000000000000000000000000000000000000000000000815260040160405180910390fd5b60026008819055505f60045f8581526020019081526020015f20905060058081111561328a5761328961452b565b5b816006015f9054906101000a900460ff1660058111156132ad576132ac61452b565b5b1461330257806006015f9054906101000a900460ff1660056040517ff924664d0000000000000000000000000000000000000000000000000000000081526004016132f9929190614885565b60405180910390fd5b60648360ff161115613340576040517f1f3b85d300000000000000000000000000000000000000000000000000000000815260040160405180910390fd5b5f816004015490505f60648560ff168361335a91906148d9565b6133649190614947565b90505f81836133739190614977565b90506003846006015f6101000a81548160ff0219169083600581111561339c5761339b61452b565b5b02179055504284600a01819055508260035f8282546133bb9190614977565b925050819055505f82111561348e575f846002015f9054906101000a900473ffffffffffffffffffffffffffffffffffffffff1673ffffffffffffffffffffffffffffffffffffffff1683604051613412906149d7565b5f6040518083038185875af1925050503d805f811461344c576040519150601f19603f3d011682016040523d82523d5f602084013e613451565b606091505b505090508061348c576040517f90b8ec1800000000000000000000000000000000000000000000000000000000815260040160405180910390fd5b505b5f81111561355a575f846001015f9054906101000a900473ffffffffffffffffffffffffffffffffffffffff1673ffffffffffffffffffffffffffffffffffffffff16826040516134de906149d7565b5f6040518083038185875af1925050503d805f8114613518576040519150601f19603f3d011682016040523d82523d5f602084013e61351d565b606091505b5050905080613558576040517f90b8ec1800000000000000000000000000000000000000000000000000000000815260040160405180910390fd5b505b867f3accdf79205b59d18e690f066707caf6d0ee4d4f59ded4fa88fdec5dde4accd93360328960ff161185856040516135969493929190614f8c565b60405180910390a2505050506001600881905550505050565b8060025481106135f657806040517fee9ffcb70000000000000000000000000000000000000000000000000000000081526004016135ed9190614151565b60405180910390fd5b813373ffffffffffffffffffffffffffffffffffffffff1660045f8381526020019081526020015f206001015f9054906101000a900473ffffffffffffffffffffffffffffffffffffffff1673ffffffffffffffffffffffffffffffffffffffff161461369a57336040517f8e4a23d60000000000000000000000000000000000000000000000000000000081526004016136919190614512565b60405180910390fd5b6001600854146136d6576040517fc5f2be5100000000000000000000000000000000000000000000000000000000815260040160405180910390fd5b60026008819055505f60045f8581526020019081526020015f2090505f60058111156137055761370461452b565b5b816006015f9054906101000a900460ff1660058111156137285761372761452b565b5b1461377c57806006015f9054906101000a900460ff165f6040517ff924664d000000000000000000000000000000000000000000000000000000008152600401613773929190614885565b60405180910390fd5b5f34036137b5576040517f2c5211c600000000000000000000000000000000000000000000000000000000815260040160405180910390fd5b5f816004015411156137f3576040517f5adf638700000000000000000000000000000000000000000000000000000000815260040160405180910390fd5b3481600401819055506001816006015f6101000a81548160ff021916908360058111156138235761382261452b565b5b02179055503460035f8282546138399190614a67565b92505081905550837ff984c0f6b056fe16b28046e36fcafa84a00d503f88f1d0afa768e4c206192b803483600501546040516138769291906149eb565b60405180910390a2506001600881905550505050565b60035481565b600a5f9054906101000a900473ffffffffffffffffffffffffffffffffffffffff1681565b8060025481106138fe57806040517fee9ffcb70000000000000000000000000000000000000000000000000000000081526004016138f59190614151565b60405180910390fd5b60016008541461393a576040517fc5f2be5100000000000000000000000000000000000000000000000000000000815260040160405180910390fd5b60026008819055505f60045f8481526020019081526020015f2090506001600581111561396a5761396961452b565b5b816006015f9054906101000a900460ff16600581111561398d5761398c61452b565b5b146139e257806006015f9054906101000a900460ff1660016040517ff924664d0000000000000000000000000000000000000000000000000000000081526004016139d9929190614885565b60405180910390fd5b80600501544211613a1f576040517f2eb3543000000000000000000000000000000000000000000000000000000000815260040160405180910390fd5b80600b015f9054906101000a900460ff1615613a67576040517fa85e6f1a00000000000000000000000000000000000000000000000000000000815260040160405180910390fd5b5f816004015490506004826006015f6101000a81548160ff02191690836005811115613a9657613a9561452b565b5b0217905550600182600b015f6101000a81548160ff0219169083151502179055508060035f828254613ac89190614977565b925050819055505f826001015f9054906101000a900473ffffffffffffffffffffffffffffffffffffffff1673ffffffffffffffffffffffffffffffffffffffff1682604051613b17906149d7565b5f6040518083038185875af1925050503d805f8114613b51576040519150601f19603f3d011682016040523d82523d5f602084013e613b56565b606091505b5050905080613b91576040517f90b8ec1800000000000000000000000000000000000000000000000000000000815260040160405180910390fd5b826001015f9054906101000a900473ffffffffffffffffffffffffffffffffffffffff1673ffffffffffffffffffffffffffffffffffffffff16857f1866a9bdac25bb7cbf867a60c0e9008732ac88da2ec6bf1d87641a09d38128b684604051613bfb9190614151565b60405180910390a350505060016008819055505050565b5f60055f8373ffffffffffffffffffffffffffffffffffffffff1673ffffffffffffffffffffffffffffffffffffffff1681526020019081526020015f20805480602002602001604051908101604052809291908181526020018280548015613c9857602002820191905f5260205f20905b815481526020019060010190808311613c84575b505050505090505f81511115613dfa575f5f90505f6064835111613cbd578251613cc0565b60645b90505f5f90505b81811015613d515760036005811115613ce357613ce261452b565b5b60045f868481518110613cf957613cf8614fcf565b5b602002602001015181526020019081526020015f206006015f9054906101000a900460ff166005811115613d3057613d2f61452b565b5b03613d44578280613d4090614ed0565b9350505b8080600101915050613cc7565b505f81606484613d6191906148d9565b613d6b9190614947565b905060095f9054906101000a900473ffffffffffffffffffffffffffffffffffffffff1673ffffffffffffffffffffffffffffffffffffffff1663f5c91a0886836040518363ffffffff1660e01b8152600401613dc9929190614ffc565b5f604051808303815f87803b158015613de0575f5ffd5b505af1158015613df2573d5f5f3e3d5ffd5b505050505050505b5050565b5f82825260208201905092915050565b7f55736520637265617465416e6446756e645472616e736665722829206f7220665f8201527f756e645472616e73666572282900000000000000000000000000000000000000602082015250565b5f613e68602d83613dfe565b9150613e7382613e0e565b604082019050919050565b5f6020820190508181035f830152613e9581613e5c565b9050919050565b7f496e76616c69642066756e6374696f6e2063616c6c00000000000000000000005f82015250565b5f613ed0601583613dfe565b9150613edb82613e9c565b602082019050919050565b5f6020820190508181035f830152613efd81613ec4565b9050919050565b5f604051905090565b5f5ffd5b5f5ffd5b5f73ffffffffffffffffffffffffffffffffffffffff82169050919050565b5f613f3e82613f15565b9050919050565b613f4e81613f34565b8114613f58575f5ffd5b50565b5f81359050613f6981613f45565b92915050565b5f60208284031215613f8457613f83613f0d565b5b5f613f9184828501613f5b565b91505092915050565b5f81519050919050565b5f82825260208201905092915050565b5f819050602082019050919050565b5f819050919050565b613fd581613fc3565b82525050565b5f613fe68383613fcc565b60208301905092915050565b5f602082019050919050565b5f61400882613f9a565b6140128185613fa4565b935061401d83613fb4565b805f5b8381101561404d5781516140348882613fdb565b975061403f83613ff2565b925050600181019050614020565b5085935050505092915050565b5f6020820190508181035f8301526140728184613ffe565b905092915050565b61408381613fc3565b82525050565b5f60608201905061409c5f83018661407a565b6140a9602083018561407a565b6140b6604083018461407a565b949350505050565b6140c781613fc3565b81146140d1575f5ffd5b50565b5f813590506140e2816140be565b92915050565b5f602082840312156140fd576140fc613f0d565b5b5f61410a848285016140d4565b91505092915050565b5f5f6040838503121561412957614128613f0d565b5b5f61413685828601613f5b565b9250506020614147858286016140d4565b9150509250929050565b5f6020820190506141645f83018461407a565b92915050565b5f8115159050919050565b61417e8161416a565b82525050565b5f6020820190506141975f830184614175565b92915050565b5f5f604083850312156141b3576141b2613f0d565b5b5f6141c0858286016140d4565b92505060206141d1858286016140d4565b9150509250929050565b5f5ffd5b5f5ffd5b5f5ffd5b5f5f83601f8401126141fc576141fb6141db565b5b8235905067ffffffffffffffff811115614219576142186141df565b5b602083019150836001820283011115614235576142346141e3565b5b9250929050565b5f5f5f6040848603121561425357614252613f0d565b5b5f614260868287016140d4565b935050602084013567ffffffffffffffff81111561428157614280613f11565b5b61428d868287016141e7565b92509250509250925092565b5f5f604083850312156142af576142ae613f0d565b5b5f6142bc858286016140d4565b92505060206142cd85828601613f5b565b9150509250929050565b5f819050919050565b5f6142fa6142f56142f084613f15565b6142d7565b613f15565b9050919050565b5f61430b826142e0565b9050919050565b5f61431c82614301565b9050919050565b61432c81614312565b82525050565b5f6020820190506143455f830184614323565b92915050565b5f5ffd5b5f601f19601f8301169050919050565b7f4e487b71000000000000000000000000000000000000000000000000000000005f52604160045260245ffd5b6143958261434f565b810181811067ffffffffffffffff821117156143b4576143b361435f565b5b80604052505050565b5f6143c6613f04565b90506143d2828261438c565b919050565b5f67ffffffffffffffff8211156143f1576143f061435f565b5b6143fa8261434f565b9050602081019050919050565b828183375f83830152505050565b5f614427614422846143d7565b6143bd565b9050828152602081018484840111156144435761444261434b565b5b61444e848285614407565b509392505050565b5f82601f83011261446a576144696141db565b5b813561447a848260208601614415565b91505092915050565b5f5f5f5f6080858703121561449b5761449a613f0d565b5b5f6144a887828801613f5b565b94505060206144b987828801613f5b565b935050604085013567ffffffffffffffff8111156144da576144d9613f11565b5b6144e687828801614456565b92505060606144f7878288016140d4565b91505092959194509250565b61450c81613f34565b82525050565b5f6020820190506145255f830184614503565b92915050565b7f4e487b71000000000000000000000000000000000000000000000000000000005f52602160045260245ffd5b600681106145695761456861452b565b5b50565b5f81905061457982614558565b919050565b5f6145888261456c565b9050919050565b6145988161457e565b82525050565b5f81519050919050565b8281835e5f83830152505050565b5f6145c08261459e565b6145ca8185613dfe565b93506145da8185602086016145a8565b6145e38161434f565b840191505092915050565b5f610180820190506146025f83018f61407a565b61460f602083018e614503565b61461c604083018d614503565b614629606083018c614503565b614636608083018b61407a565b61464360a083018a61407a565b61465060c083018961458f565b81810360e083015261466281886145b6565b905081810361010083015261467781876145b6565b905061468761012083018661407a565b61469561014083018561407a565b6146a3610160830184614175565b9d9c50505050505050505050505050565b5f60e0820190506146c75f83018a61458f565b6146d46020830189614175565b6146e16040830188614175565b6146ee6060830187614175565b6146fb6080830186614175565b61470860a0830185614175565b61471560c083018461407a565b98975050505050505050565b5f610160820190506147355f83018e614503565b614742602083018d614503565b61474f604083018c614503565b61475c606083018b61407a565b614769608083018a61407a565b61477660a083018961458f565b81810360c083015261478881886145b6565b905081810360e083015261479c81876145b6565b90506147ac61010083018661407a565b6147ba61012083018561407a565b6147c8610140830184614175565b9c9b505050505050505050505050565b5f60ff82169050919050565b6147ed816147d8565b81146147f7575f5ffd5b50565b5f81359050614808816147e4565b92915050565b5f5f6040838503121561482457614823613f0d565b5b5f614831858286016140d4565b9250506020614842858286016147fa565b9150509250929050565b5f61485682614301565b9050919050565b6148668161484c565b82525050565b5f60208201905061487f5f83018461485d565b92915050565b5f6040820190506148985f83018561458f565b6148a5602083018461458f565b9392505050565b7f4e487b71000000000000000000000000000000000000000000000000000000005f52601160045260245ffd5b5f6148e382613fc3565b91506148ee83613fc3565b92508282026148fc81613fc3565b91508282048414831517614913576149126148ac565b5b5092915050565b7f4e487b71000000000000000000000000000000000000000000000000000000005f52601260045260245ffd5b5f61495182613fc3565b915061495c83613fc3565b92508261496c5761496b61491a565b5b828204905092915050565b5f61498182613fc3565b915061498c83613fc3565b92508282039050818111156149a4576149a36148ac565b5b92915050565b5f81905092915050565b50565b5f6149c25f836149aa565b91506149cd826149b4565b5f82019050919050565b5f6149e1826149b7565b9150819050919050565b5f6040820190506149fe5f83018561407a565b614a0b602083018461407a565b9392505050565b614a1b8161416a565b8114614a25575f5ffd5b50565b5f81519050614a3681614a12565b92915050565b5f60208284031215614a5157614a50613f0d565b5b5f614a5e84828501614a28565b91505092915050565b5f614a7182613fc3565b9150614a7c83613fc3565b9250828201905080821115614a9457614a936148ac565b5b92915050565b5f82905092915050565b7f4e487b71000000000000000000000000000000000000000000000000000000005f52602260045260245ffd5b5f6002820490506001821680614ae857607f821691505b602082108103614afb57614afa614aa4565b5b50919050565b5f819050815f5260205f209050919050565b5f6020601f8301049050919050565b5f82821b905092915050565b5f60088302614b5d7fffffffffffffffffffffffffffffffffffffffffffffffffffffffffffffffff82614b22565b614b678683614b22565b95508019841693508086168417925050509392505050565b5f614b99614b94614b8f84613fc3565b6142d7565b613fc3565b9050919050565b5f819050919050565b614bb283614b7f565b614bc6614bbe82614ba0565b848454614b2e565b825550505050565b5f5f905090565b614bdd614bce565b614be8818484614ba9565b505050565b5b81811015614c0b57614c005f82614bd5565b600181019050614bee565b5050565b601f821115614c5057614c2181614b01565b614c2a84614b13565b81016020851015614c39578190505b614c4d614c4585614b13565b830182614bed565b50505b505050565b5f82821c905092915050565b5f614c705f1984600802614c55565b1980831691505092915050565b5f614c888383614c61565b9150826002028217905092915050565b614ca28383614a9a565b67ffffffffffffffff811115614cbb57614cba61435f565b5b614cc58254614ad1565b614cd0828285614c0f565b5f601f831160018114614cfd575f8415614ceb578287013590505b614cf58582614c7d565b865550614d5c565b601f198416614d0b86614b01565b5f5b82811015614d3257848901358255600182019150602085019450602081019050614d0d565b86831015614d4f5784890135614d4b601f891682614c61565b8355505b6001600288020188555050505b50505050505050565b5f604082019050614d785f830185614503565b614d856020830184614175565b9392505050565b5f614d978385613dfe565b9350614da4838584614407565b614dad8361434f565b840190509392505050565b5f6020820190508181035f830152614dd1818486614d8c565b90509392505050565b5f604082019050614ded5f830185614503565b614dfa6020830184614503565b9392505050565b614e0a8261459e565b67ffffffffffffffff811115614e2357614e2261435f565b5b614e2d8254614ad1565b614e38828285614c0f565b5f60209050601f831160018114614e69575f8415614e57578287015190505b614e618582614c7d565b865550614ec8565b601f198416614e7786614b01565b5f5b82811015614e9e57848901518255600182019150602085019450602081019050614e79565b86831015614ebb5784890151614eb7601f891682614c61565b8355505b6001600288020188555050505b505050505050565b5f614eda82613fc3565b91507fffffffffffffffffffffffffffffffffffffffffffffffffffffffffffffffff8203614f0c57614f0b6148ac565b5b600182019050919050565b5f819050919050565b5f614f3a614f35614f3084614f17565b6142d7565b613fc3565b9050919050565b614f4a81614f20565b82525050565b5f606082019050614f635f830186614503565b614f706020830185614f41565b8181036040830152614f8281846145b6565b9050949350505050565b5f608082019050614f9f5f830187614503565b614fac6020830186614175565b614fb9604083018561407a565b614fc6606083018461407a565b95945050505050565b7f4e487b71000000000000000000000000000000000000000000000000000000005f52603260045260245ffd5b5f60408201905061500f5f830185614503565b61501c602083018461407a565b939250505056fea2646970667358221220e7a64de427eff3c401c121de81961b9e9785c64d6a1c4af4ff6c6c750b3a3f7864736f6c634300081e0033",
			"opcodes": "PUSH1 0x80 PUSH1 0x40 MSTORE PUSH1 0x1 DUP1 SSTORE PUSH1 0x1 PUSH1 0x8 SSTORE CALLVALUE DUP1 ISZERO PUSH1 0x17 JUMPI PUSH0 PUSH0 REVERT JUMPDEST POP CALLER PUSH0 PUSH0 PUSH2 0x100 EXP DUP2 SLOAD DUP2 PUSH20 0xFFFFFFFFFFFFFFFFFFFFFFFFFFFFFFFFFFFFFFFF MUL NOT AND SWAP1 DUP4 PUSH20 0xFFFFFFFFFFFFFFFFFFFFFFFFFFFFFFFFFFFFFFFF AND MUL OR SWAP1 SSTORE POP PUSH2 0x5059 DUP1 PUSH2 0x64 PUSH0 CODECOPY PUSH0 RETURN INVALID PUSH1 0x80 PUSH1 0x40 MSTORE PUSH1 0x4 CALLDATASIZE LT PUSH2 0x1F1 JUMPI PUSH0 CALLDATALOAD PUSH1 0xE0 SHR DUP1 PUSH4 0x9259061E GT PUSH2 0x10C JUMPI DUP1 PUSH4 0xB3D50E37 GT PUSH2 0x9F JUMPI DUP1 PUSH4 0xE55E4211 GT PUSH2 0x6E JUMPI DUP1 PUSH4 0xE55E4211 EQ PUSH2 0x7ED JUMPI DUP1 PUSH4 0xEAF8294B EQ PUSH2 0x815 JUMPI DUP1 PUSH4 0xEC18154E EQ PUSH2 0x831 JUMPI DUP1 PUSH4 0xF376EBBB EQ PUSH2 0x85B JUMPI DUP1 PUSH4 0xF3FEE05D EQ PUSH2 0x885 JUMPI PUSH2 0x231 JUMP JUMPDEST DUP1 PUSH4 0xB3D50E37 EQ PUSH2 0x713 JUMPI DUP1 PUSH4 0xB93C3770 EQ PUSH2 0x73B JUMPI DUP1 PUSH4 0xC16FE907 EQ PUSH2 0x77D JUMPI DUP1 PUSH4 0xCDD78CFC EQ PUSH2 0x7C3 JUMPI PUSH2 0x231 JUMP JUMPDEST DUP1 PUSH4 0x9CB80F00 GT PUSH2 0xDB JUMPI DUP1 PUSH4 0x9CB80F00 EQ PUSH2 0x64B JUMPI DUP1 PUSH4 0xAA0B5988 EQ PUSH2 0x687 JUMPI DUP1 PUSH4 0xACE417E0 EQ PUSH2 0x6AF JUMPI DUP1 PUSH4 0xB0D5451B EQ PUSH2 0x6EB JUMPI PUSH2 0x231 JUMP JUMPDEST DUP1 PUSH4 0x9259061E EQ PUSH2 0x55C JUMPI DUP1 PUSH4 0x9377D711 EQ PUSH2 0x58C JUMPI DUP1 PUSH4 0x9BFD3F9D EQ PUSH2 0x5D3 JUMPI DUP1 PUSH4 0x9C51D4A1 EQ PUSH2 0x60F JUMPI PUSH2 0x231 JUMP JUMPDEST DUP1 PUSH4 0x49773050 GT PUSH2 0x184 JUMPI DUP1 PUSH4 0x5C7460D6 GT PUSH2 0x153 JUMPI DUP1 PUSH4 0x5C7460D6 EQ PUSH2 0x4A2 JUMPI DUP1 PUSH4 0x6353F887 EQ PUSH2 0x4CC JUMPI DUP1 PUSH4 0x6F9FB98A EQ PUSH2 0x508 JUMPI DUP1 PUSH4 0x8DA5CB5B EQ PUSH2 0x532 JUMPI PUSH2 0x231 JUMP JUMPDEST DUP1 PUSH4 0x49773050 EQ PUSH2 0x402 JUMPI DUP1 PUSH4 0x4B920AFE EQ PUSH2 0x42A JUMPI DUP1 PUSH4 0x5A27CBCB EQ PUSH2 0x452 JUMPI DUP1 PUSH4 0x5AEF573C EQ PUSH2 0x47A JUMPI PUSH2 0x231 JUMP JUMPDEST DUP1 PUSH4 0x2BECA249 GT PUSH2 0x1C0 JUMPI DUP1 PUSH4 0x2BECA249 EQ PUSH2 0x338 JUMPI DUP1 PUSH4 0x2D1FDEF6 EQ PUSH2 0x374 JUMPI DUP1 PUSH4 0x3BF47720 EQ PUSH2 0x39C JUMPI DUP1 PUSH4 0x42B0A8CE EQ PUSH2 0x3C6 JUMPI PUSH2 0x231 JUMP JUMPDEST DUP1 PUSH4 0x4233456 EQ PUSH2 0x26C JUMPI DUP1 PUSH4 0x136D8883 EQ PUSH2 0x2A8 JUMPI DUP1 PUSH4 0x155DD5EE EQ PUSH2 0x2D4 JUMPI DUP1 PUSH4 0x2BBDCB4E EQ PUSH2 0x2FC JUMPI PUSH2 0x231 JUMP JUMPDEST CALLDATASIZE PUSH2 0x231 JUMPI PUSH1 0x40 MLOAD PUSH32 0x8C379A000000000000000000000000000000000000000000000000000000000 DUP2 MSTORE PUSH1 0x4 ADD PUSH2 0x228 SWAP1 PUSH2 0x3E7E JUMP JUMPDEST PUSH1 0x40 MLOAD DUP1 SWAP2 SUB SWAP1 REVERT JUMPDEST PUSH1 0x40 MLOAD PUSH32 0x8C379A000000000000000000000000000000000000000000000000000000000 DUP2 MSTORE PUSH1 0x4 ADD PUSH2 0x263 SWAP1 PUSH2 0x3EE6 JUMP JUMPDEST PUSH1 0x40 MLOAD DUP1 SWAP2 SUB SWAP1 REVERT JUMPDEST CALLVALUE DUP1 ISZERO PUSH2 0x277 JUMPI PUSH0 PUSH0 REVERT JUMPDEST POP PUSH2 0x292 PUSH1 0x4 DUP1 CALLDATASIZE SUB DUP2 ADD SWAP1 PUSH2 0x28D SWAP2 SWAP1 PUSH2 0x3F6F JUMP JUMPDEST PUSH2 0x8AD JUMP JUMPDEST PUSH1 0x40 MLOAD PUSH2 0x29F SWAP2 SWAP1 PUSH2 0x405A JUMP JUMPDEST PUSH1 0x40 MLOAD DUP1 SWAP2 SUB SWAP1 RETURN JUMPDEST CALLVALUE DUP1 ISZERO PUSH2 0x2B3 JUMPI PUSH0 PUSH0 REVERT JUMPDEST POP PUSH2 0x2BC PUSH2 0x940 JUMP JUMPDEST PUSH1 0x40 MLOAD PUSH2 0x2CB SWAP4 SWAP3 SWAP2 SWAP1 PUSH2 0x4089 JUMP JUMPDEST PUSH1 0x40 MLOAD DUP1 SWAP2 SUB SWAP1 RETURN JUMPDEST CALLVALUE DUP1 ISZERO PUSH2 0x2DF JUMPI PUSH0 PUSH0 REVERT JUMPDEST POP PUSH2 0x2FA PUSH1 0x4 DUP1 CALLDATASIZE SUB DUP2 ADD SWAP1 PUSH2 0x2F5 SWAP2 SWAP1 PUSH2 0x40E8 JUMP JUMPDEST PUSH2 0x957 JUMP JUMPDEST STOP JUMPDEST CALLVALUE DUP1 ISZERO PUSH2 0x307 JUMPI PUSH0 PUSH0 REVERT JUMPDEST POP PUSH2 0x322 PUSH1 0x4 DUP1 CALLDATASIZE SUB DUP2 ADD SWAP1 PUSH2 0x31D SWAP2 SWAP1 PUSH2 0x4113 JUMP JUMPDEST PUSH2 0xDAD JUMP JUMPDEST PUSH1 0x40 MLOAD PUSH2 0x32F SWAP2 SWAP1 PUSH2 0x4151 JUMP JUMPDEST PUSH1 0x40 MLOAD DUP1 SWAP2 SUB SWAP1 RETURN JUMPDEST CALLVALUE DUP1 ISZERO PUSH2 0x343 JUMPI PUSH0 PUSH0 REVERT JUMPDEST POP PUSH2 0x35E PUSH1 0x4 DUP1 CALLDATASIZE SUB DUP2 ADD SWAP1 PUSH2 0x359 SWAP2 SWAP1 PUSH2 0x3F6F JUMP JUMPDEST PUSH2 0xDD8 JUMP JUMPDEST PUSH1 0x40 MLOAD PUSH2 0x36B SWAP2 SWAP1 PUSH2 0x4184 JUMP JUMPDEST PUSH1 0x40 MLOAD DUP1 SWAP2 SUB SWAP1 RETURN JUMPDEST CALLVALUE DUP1 ISZERO PUSH2 0x37F JUMPI PUSH0 PUSH0 REVERT JUMPDEST POP PUSH2 0x39A PUSH1 0x4 DUP1 CALLDATASIZE SUB DUP2 ADD SWAP1 PUSH2 0x395 SWAP2 SWAP1 PUSH2 0x419D JUMP JUMPDEST PUSH2 0xED6 JUMP JUMPDEST STOP JUMPDEST CALLVALUE DUP1 ISZERO PUSH2 0x3A7 JUMPI PUSH0 PUSH0 REVERT JUMPDEST POP PUSH2 0x3B0 PUSH2 0x1107 JUMP JUMPDEST PUSH1 0x40 MLOAD PUSH2 0x3BD SWAP2 SWAP1 PUSH2 0x4151 JUMP JUMPDEST PUSH1 0x40 MLOAD DUP1 SWAP2 SUB SWAP1 RETURN JUMPDEST CALLVALUE DUP1 ISZERO PUSH2 0x3D1 JUMPI PUSH0 PUSH0 REVERT JUMPDEST POP PUSH2 0x3EC PUSH1 0x4 DUP1 CALLDATASIZE SUB DUP2 ADD SWAP1 PUSH2 0x3E7 SWAP2 SWAP1 PUSH2 0x3F6F JUMP JUMPDEST PUSH2 0x110D JUMP JUMPDEST PUSH1 0x40 MLOAD PUSH2 0x3F9 SWAP2 SWAP1 PUSH2 0x405A JUMP JUMPDEST PUSH1 0x40 MLOAD DUP1 SWAP2 SUB SWAP1 RETURN JUMPDEST CALLVALUE DUP1 ISZERO PUSH2 0x40D JUMPI PUSH0 PUSH0 REVERT JUMPDEST POP PUSH2 0x428 PUSH1 0x4 DUP1 CALLDATASIZE SUB DUP2 ADD SWAP1 PUSH2 0x423 SWAP2 SWAP1 PUSH2 0x3F6F JUMP JUMPDEST PUSH2 0x11A0 JUMP JUMPDEST STOP JUMPDEST CALLVALUE DUP1 ISZERO PUSH2 0x435 JUMPI PUSH0 PUSH0 REVERT JUMPDEST POP PUSH2 0x450 PUSH1 0x4 DUP1 CALLDATASIZE SUB DUP2 ADD SWAP1 PUSH2 0x44B SWAP2 SWAP1 PUSH2 0x423C JUMP JUMPDEST PUSH2 0x1273 JUMP JUMPDEST STOP JUMPDEST CALLVALUE DUP1 ISZERO PUSH2 0x45D JUMPI PUSH0 PUSH0 REVERT JUMPDEST POP PUSH2 0x478 PUSH1 0x4 DUP1 CALLDATASIZE SUB DUP2 ADD SWAP1 PUSH2 0x473 SWAP2 SWAP1 PUSH2 0x4299 JUMP JUMPDEST PUSH2 0x15B4 JUMP JUMPDEST STOP JUMPDEST CALLVALUE DUP1 ISZERO PUSH2 0x485 JUMPI PUSH0 PUSH0 REVERT JUMPDEST POP PUSH2 0x4A0 PUSH1 0x4 DUP1 CALLDATASIZE SUB DUP2 ADD SWAP1 PUSH2 0x49B SWAP2 SWAP1 PUSH2 0x423C JUMP JUMPDEST PUSH2 0x1890 JUMP JUMPDEST STOP JUMPDEST CALLVALUE DUP1 ISZERO PUSH2 0x4AD JUMPI PUSH0 PUSH0 REVERT JUMPDEST POP PUSH2 0x4B6 PUSH2 0x1B2E JUMP JUMPDEST PUSH1 0x40 MLOAD PUSH2 0x4C3 SWAP2 SWAP1 PUSH2 0x4332 JUMP JUMPDEST PUSH1 0x40 MLOAD DUP1 SWAP2 SUB SWAP1 RETURN JUMPDEST CALLVALUE DUP1 ISZERO PUSH2 0x4D7 JUMPI PUSH0 PUSH0 REVERT JUMPDEST POP PUSH2 0x4F2 PUSH1 0x4 DUP1 CALLDATASIZE SUB DUP2 ADD SWAP1 PUSH2 0x4ED SWAP2 SWAP1 PUSH2 0x4483 JUMP JUMPDEST PUSH2 0x1B53 JUMP JUMPDEST PUSH1 0x40 MLOAD PUSH2 0x4FF SWAP2 SWAP1 PUSH2 0x4151 JUMP JUMPDEST PUSH1 0x40 MLOAD DUP1 SWAP2 SUB SWAP1 RETURN JUMPDEST CALLVALUE DUP1 ISZERO PUSH2 0x513 JUMPI PUSH0 PUSH0 REVERT JUMPDEST POP PUSH2 0x51C PUSH2 0x2072 JUMP JUMPDEST PUSH1 0x40 MLOAD PUSH2 0x529 SWAP2 SWAP1 PUSH2 0x4151 JUMP JUMPDEST PUSH1 0x40 MLOAD DUP1 SWAP2 SUB SWAP1 RETURN JUMPDEST CALLVALUE DUP1 ISZERO PUSH2 0x53D JUMPI PUSH0 PUSH0 REVERT JUMPDEST POP PUSH2 0x546 PUSH2 0x2079 JUMP JUMPDEST PUSH1 0x40 MLOAD PUSH2 0x553 SWAP2 SWAP1 PUSH2 0x4512 JUMP JUMPDEST PUSH1 0x40 MLOAD DUP1 SWAP2 SUB SWAP1 RETURN JUMPDEST PUSH2 0x576 PUSH1 0x4 DUP1 CALLDATASIZE SUB DUP2 ADD SWAP1 PUSH2 0x571 SWAP2 SWAP1 PUSH2 0x4483 JUMP JUMPDEST PUSH2 0x209D JUMP JUMPDEST PUSH1 0x40 MLOAD PUSH2 0x583 SWAP2 SWAP1 PUSH2 0x4151 JUMP JUMPDEST PUSH1 0x40 MLOAD DUP1 SWAP2 SUB SWAP1 RETURN JUMPDEST CALLVALUE DUP1 ISZERO PUSH2 0x597 JUMPI PUSH0 PUSH0 REVERT JUMPDEST POP PUSH2 0x5B2 PUSH1 0x4 DUP1 CALLDATASIZE SUB DUP2 ADD SWAP1 PUSH2 0x5AD SWAP2 SWAP1 PUSH2 0x40E8 JUMP JUMPDEST PUSH2 0x2192 JUMP JUMPDEST PUSH1 0x40 MLOAD PUSH2 0x5CA SWAP13 SWAP12 SWAP11 SWAP10 SWAP9 SWAP8 SWAP7 SWAP6 SWAP5 SWAP4 SWAP3 SWAP2 SWAP1 PUSH2 0x45EE JUMP JUMPDEST PUSH1 0x40 MLOAD DUP1 SWAP2 SUB SWAP1 RETURN JUMPDEST CALLVALUE DUP1 ISZERO PUSH2 0x5DE JUMPI PUSH0 PUSH0 REVERT JUMPDEST POP PUSH2 0x5F9 PUSH1 0x4 DUP1 CALLDATASIZE SUB DUP2 ADD SWAP1 PUSH2 0x5F4 SWAP2 SWAP1 PUSH2 0x4113 JUMP JUMPDEST PUSH2 0x236F JUMP JUMPDEST PUSH1 0x40 MLOAD PUSH2 0x606 SWAP2 SWAP1 PUSH2 0x4151 JUMP JUMPDEST PUSH1 0x40 MLOAD DUP1 SWAP2 SUB SWAP1 RETURN JUMPDEST CALLVALUE DUP1 ISZERO PUSH2 0x61A JUMPI PUSH0 PUSH0 REVERT JUMPDEST POP PUSH2 0x635 PUSH1 0x4 DUP1 CALLDATASIZE SUB DUP2 ADD SWAP1 PUSH2 0x630 SWAP2 SWAP1 PUSH2 0x3F6F JUMP JUMPDEST PUSH2 0x239A JUMP JUMPDEST PUSH1 0x40 MLOAD PUSH2 0x642 SWAP2 SWAP1 PUSH2 0x405A JUMP JUMPDEST PUSH1 0x40 MLOAD DUP1 SWAP2 SUB SWAP1 RETURN JUMPDEST CALLVALUE DUP1 ISZERO PUSH2 0x656 JUMPI PUSH0 PUSH0 REVERT JUMPDEST POP PUSH2 0x671 PUSH1 0x4 DUP1 CALLDATASIZE SUB DUP2 ADD SWAP1 PUSH2 0x66C SWAP2 SWAP1 PUSH2 0x4113 JUMP JUMPDEST PUSH2 0x242D JUMP JUMPDEST PUSH1 0x40 MLOAD PUSH2 0x67E SWAP2 SWAP1 PUSH2 0x4151 JUMP JUMPDEST PUSH1 0x40 MLOAD DUP1 SWAP2 SUB SWAP1 RETURN JUMPDEST CALLVALUE DUP1 ISZERO PUSH2 0x692 JUMPI PUSH0 PUSH0 REVERT JUMPDEST POP PUSH2 0x6AD PUSH1 0x4 DUP1 CALLDATASIZE SUB DUP2 ADD SWAP1 PUSH2 0x6A8 SWAP2 SWAP1 PUSH2 0x40E8 JUMP JUMPDEST PUSH2 0x2458 JUMP JUMPDEST STOP JUMPDEST CALLVALUE DUP1 ISZERO PUSH2 0x6BA JUMPI PUSH0 PUSH0 REVERT JUMPDEST POP PUSH2 0x6D5 PUSH1 0x4 DUP1 CALLDATASIZE SUB DUP2 ADD SWAP1 PUSH2 0x6D0 SWAP2 SWAP1 PUSH2 0x3F6F JUMP JUMPDEST PUSH2 0x252D JUMP JUMPDEST PUSH1 0x40 MLOAD PUSH2 0x6E2 SWAP2 SWAP1 PUSH2 0x4184 JUMP JUMPDEST PUSH1 0x40 MLOAD DUP1 SWAP2 SUB SWAP1 RETURN JUMPDEST CALLVALUE DUP1 ISZERO PUSH2 0x6F6 JUMPI PUSH0 PUSH0 REVERT JUMPDEST POP PUSH2 0x711 PUSH1 0x4 DUP1 CALLDATASIZE SUB DUP2 ADD SWAP1 PUSH2 0x70C SWAP2 SWAP1 PUSH2 0x3F6F JUMP JUMPDEST PUSH2 0x262B JUMP JUMPDEST STOP JUMPDEST CALLVALUE DUP1 ISZERO PUSH2 0x71E JUMPI PUSH0 PUSH0 REVERT JUMPDEST POP PUSH2 0x739 PUSH1 0x4 DUP1 CALLDATASIZE SUB DUP2 ADD SWAP1 PUSH2 0x734 SWAP2 SWAP1 PUSH2 0x4299 JUMP JUMPDEST PUSH2 0x26FE JUMP JUMPDEST STOP JUMPDEST CALLVALUE DUP1 ISZERO PUSH2 0x746 JUMPI PUSH0 PUSH0 REVERT JUMPDEST POP PUSH2 0x761 PUSH1 0x4 DUP1 CALLDATASIZE SUB DUP2 ADD SWAP1 PUSH2 0x75C SWAP2 SWAP1 PUSH2 0x40E8 JUMP JUMPDEST PUSH2 0x2997 JUMP JUMPDEST PUSH1 0x40 MLOAD PUSH2 0x774 SWAP8 SWAP7 SWAP6 SWAP5 SWAP4 SWAP3 SWAP2 SWAP1 PUSH2 0x46B4 JUMP JUMPDEST PUSH1 0x40 MLOAD DUP1 SWAP2 SUB SWAP1 RETURN JUMPDEST CALLVALUE DUP1 ISZERO PUSH2 0x788 JUMPI PUSH0 PUSH0 REVERT JUMPDEST POP PUSH2 0x7A3 PUSH1 0x4 DUP1 CALLDATASIZE SUB DUP2 ADD SWAP1 PUSH2 0x79E SWAP2 SWAP1 PUSH2 0x40E8 JUMP JUMPDEST PUSH2 0x2DC9 JUMP JUMPDEST PUSH1 0x40 MLOAD PUSH2 0x7BA SWAP12 SWAP11 SWAP10 SWAP9 SWAP8 SWAP7 SWAP6 SWAP5 SWAP4 SWAP3 SWAP2 SWAP1 PUSH2 0x4721 JUMP JUMPDEST PUSH1 0x40 MLOAD DUP1 SWAP2 SUB SWAP1 RETURN JUMPDEST CALLVALUE DUP1 ISZERO PUSH2 0x7CE JUMPI PUSH0 PUSH0 REVERT JUMPDEST POP PUSH2 0x7D7 PUSH2 0x3142 JUMP JUMPDEST PUSH1 0x40 MLOAD PUSH2 0x7E4 SWAP2 SWAP1 PUSH2 0x4151 JUMP JUMPDEST PUSH1 0x40 MLOAD DUP1 SWAP2 SUB SWAP1 RETURN JUMPDEST CALLVALUE DUP1 ISZERO PUSH2 0x7F8 JUMPI PUSH0 PUSH0 REVERT JUMPDEST POP PUSH2 0x813 PUSH1 0x4 DUP1 CALLDATASIZE SUB DUP2 ADD SWAP1 PUSH2 0x80E SWAP2 SWAP1 PUSH2 0x480E JUMP JUMPDEST PUSH2 0x3148 JUMP JUMPDEST STOP JUMPDEST PUSH2 0x82F PUSH1 0x4 DUP1 CALLDATASIZE SUB DUP2 ADD SWAP1 PUSH2 0x82A SWAP2 SWAP1 PUSH2 0x40E8 JUMP JUMPDEST PUSH2 0x35AF JUMP JUMPDEST STOP JUMPDEST CALLVALUE DUP1 ISZERO PUSH2 0x83C JUMPI PUSH0 PUSH0 REVERT JUMPDEST POP PUSH2 0x845 PUSH2 0x388C JUMP JUMPDEST PUSH1 0x40 MLOAD PUSH2 0x852 SWAP2 SWAP1 PUSH2 0x4151 JUMP JUMPDEST PUSH1 0x40 MLOAD DUP1 SWAP2 SUB SWAP1 RETURN JUMPDEST CALLVALUE DUP1 ISZERO PUSH2 0x866 JUMPI PUSH0 PUSH0 REVERT JUMPDEST POP PUSH2 0x86F PUSH2 0x3892 JUMP JUMPDEST PUSH1 0x40 MLOAD PUSH2 0x87C SWAP2 SWAP1 PUSH2 0x486C JUMP JUMPDEST PUSH1 0x40 MLOAD DUP1 SWAP2 SUB SWAP1 RETURN JUMPDEST CALLVALUE DUP1 ISZERO PUSH2 0x890 JUMPI PUSH0 PUSH0 REVERT JUMPDEST POP PUSH2 0x8AB PUSH1 0x4 DUP1 CALLDATASIZE SUB DUP2 ADD SWAP1 PUSH2 0x8A6 SWAP2 SWAP1 PUSH2 0x40E8 JUMP JUMPDEST PUSH2 0x38B7 JUMP JUMPDEST STOP JUMPDEST PUSH1 0x60 PUSH1 0x6 PUSH0 DUP4 PUSH20 0xFFFFFFFFFFFFFFFFFFFFFFFFFFFFFFFFFFFFFFFF AND PUSH20 0xFFFFFFFFFFFFFFFFFFFFFFFFFFFFFFFFFFFFFFFF AND DUP2 MSTORE PUSH1 0x20 ADD SWAP1 DUP2 MSTORE PUSH1 0x20 ADD PUSH0 KECCAK256 DUP1 SLOAD DUP1 PUSH1 0x20 MUL PUSH1 0x20 ADD PUSH1 0x40 MLOAD SWAP1 DUP2 ADD PUSH1 0x40 MSTORE DUP1 SWAP3 SWAP2 SWAP1 DUP2 DUP2 MSTORE PUSH1 0x20 ADD DUP3 DUP1 SLOAD DUP1 ISZERO PUSH2 0x934 JUMPI PUSH1 0x20 MUL DUP3 ADD SWAP2 SWAP1 PUSH0 MSTORE PUSH1 0x20 PUSH0 KECCAK256 SWAP1 JUMPDEST DUP2 SLOAD DUP2 MSTORE PUSH1 0x20 ADD SWAP1 PUSH1 0x1 ADD SWAP1 DUP1 DUP4 GT PUSH2 0x920 JUMPI JUMPDEST POP POP POP POP POP SWAP1 POP SWAP2 SWAP1 POP JUMP JUMPDEST PUSH0 PUSH0 PUSH0 PUSH1 0x2 SLOAD PUSH1 0x3 SLOAD PUSH1 0x1 SLOAD SWAP3 POP SWAP3 POP SWAP3 POP SWAP1 SWAP2 SWAP3 JUMP JUMPDEST DUP1 PUSH1 0x2 SLOAD DUP2 LT PUSH2 0x99E JUMPI DUP1 PUSH1 0x40 MLOAD PUSH32 0xEE9FFCB700000000000000000000000000000000000000000000000000000000 DUP2 MSTORE PUSH1 0x4 ADD PUSH2 0x995 SWAP2 SWAP1 PUSH2 0x4151 JUMP JUMPDEST PUSH1 0x40 MLOAD DUP1 SWAP2 SUB SWAP1 REVERT JUMPDEST DUP2 CALLER PUSH20 0xFFFFFFFFFFFFFFFFFFFFFFFFFFFFFFFFFFFFFFFF AND PUSH1 0x4 PUSH0 DUP4 DUP2 MSTORE PUSH1 0x20 ADD SWAP1 DUP2 MSTORE PUSH1 0x20 ADD PUSH0 KECCAK256 PUSH1 0x2 ADD PUSH0 SWAP1 SLOAD SWAP1 PUSH2 0x100 EXP SWAP1 DIV PUSH20 0xFFFFFFFFFFFFFFFFFFFFFFFFFFFFFFFFFFFFFFFF AND PUSH20 0xFFFFFFFFFFFFFFFFFFFFFFFFFFFFFFFFFFFFFFFF AND EQ PUSH2 0xA42 JUMPI CALLER PUSH1 0x40 MLOAD PUSH32 0x8E4A23D600000000000000000000000000000000000000000000000000000000 DUP2 MSTORE PUSH1 0x4 ADD PUSH2 0xA39 SWAP2 SWAP1 PUSH2 0x4512 JUMP JUMPDEST PUSH1 0x40 MLOAD DUP1 SWAP2 SUB SWAP1 REVERT JUMPDEST PUSH1 0x1 PUSH1 0x8 SLOAD EQ PUSH2 0xA7E JUMPI PUSH1 0x40 MLOAD PUSH32 0xC5F2BE5100000000000000000000000000000000000000000000000000000000 DUP2 MSTORE PUSH1 0x4 ADD PUSH1 0x40 MLOAD DUP1 SWAP2 SUB SWAP1 REVERT JUMPDEST PUSH1 0x2 PUSH1 0x8 DUP2 SWAP1 SSTORE POP PUSH0 PUSH1 0x4 PUSH0 DUP6 DUP2 MSTORE PUSH1 0x20 ADD SWAP1 DUP2 MSTORE PUSH1 0x20 ADD PUSH0 KECCAK256 SWAP1 POP PUSH1 0x2 PUSH1 0x5 DUP2 GT ISZERO PUSH2 0xAAE JUMPI PUSH2 0xAAD PUSH2 0x452B JUMP JUMPDEST JUMPDEST DUP2 PUSH1 0x6 ADD PUSH0 SWAP1 SLOAD SWAP1 PUSH2 0x100 EXP SWAP1 DIV PUSH1 0xFF AND PUSH1 0x5 DUP2 GT ISZERO PUSH2 0xAD1 JUMPI PUSH2 0xAD0 PUSH2 0x452B JUMP JUMPDEST JUMPDEST EQ PUSH2 0xB26 JUMPI DUP1 PUSH1 0x6 ADD PUSH0 SWAP1 SLOAD SWAP1 PUSH2 0x100 EXP SWAP1 DIV PUSH1 0xFF AND PUSH1 0x2 PUSH1 0x40 MLOAD PUSH32 0xF924664D00000000000000000000000000000000000000000000000000000000 DUP2 MSTORE PUSH1 0x4 ADD PUSH2 0xB1D SWAP3 SWAP2 SWAP1 PUSH2 0x4885 JUMP JUMPDEST PUSH1 0x40 MLOAD DUP1 SWAP2 SUB SWAP1 REVERT JUMPDEST PUSH0 DUP2 PUSH1 0x4 ADD SLOAD SUB PUSH2 0xB63 JUMPI PUSH1 0x40 MLOAD PUSH32 0xD5EF09BA00000000000000000000000000000000000000000000000000000000 DUP2 MSTORE PUSH1 0x4 ADD PUSH1 0x40 MLOAD DUP1 SWAP2 SUB SWAP1 REVERT JUMPDEST PUSH0 DUP2 PUSH1 0x4 ADD SLOAD SWAP1 POP PUSH0 PUSH1 0x64 PUSH1 0x1 SLOAD DUP4 PUSH2 0xB7C SWAP2 SWAP1 PUSH2 0x48D9 JUMP JUMPDEST PUSH2 0xB86 SWAP2 SWAP1 PUSH2 0x4947 JUMP JUMPDEST SWAP1 POP PUSH0 DUP2 DUP4 PUSH2 0xB95 SWAP2 SWAP1 PUSH2 0x4977 JUMP JUMPDEST SWAP1 POP PUSH1 0x3 DUP5 PUSH1 0x6 ADD PUSH0 PUSH2 0x100 EXP DUP2 SLOAD DUP2 PUSH1 0xFF MUL NOT AND SWAP1 DUP4 PUSH1 0x5 DUP2 GT ISZERO PUSH2 0xBBE JUMPI PUSH2 0xBBD PUSH2 0x452B JUMP JUMPDEST JUMPDEST MUL OR SWAP1 SSTORE POP TIMESTAMP DUP5 PUSH1 0xA ADD DUP2 SWAP1 SSTORE POP DUP3 PUSH1 0x3 PUSH0 DUP3 DUP3 SLOAD PUSH2 0xBDD SWAP2 SWAP1 PUSH2 0x4977 JUMP JUMPDEST SWAP3 POP POP DUP2 SWAP1 SSTORE POP PUSH0 PUSH20 0xFFFFFFFFFFFFFFFFFFFFFFFFFFFFFFFFFFFFFFFF AND PUSH1 0x9 PUSH0 SWAP1 SLOAD SWAP1 PUSH2 0x100 EXP SWAP1 DIV PUSH20 0xFFFFFFFFFFFFFFFFFFFFFFFFFFFFFFFFFFFFFFFF AND PUSH20 0xFFFFFFFFFFFFFFFFFFFFFFFFFFFFFFFFFFFFFFFF AND EQ PUSH2 0xC65 JUMPI PUSH2 0xC64 DUP5 PUSH1 0x1 ADD PUSH0 SWAP1 SLOAD SWAP1 PUSH2 0x100 EXP SWAP1 DIV PUSH20 0xFFFFFFFFFFFFFFFFFFFFFFFFFFFFFFFFFFFFFFFF AND PUSH2 0x3C12 JUMP JUMPDEST JUMPDEST PUSH0 DUP5 PUSH1 0x2 ADD PUSH0 SWAP1 SLOAD SWAP1 PUSH2 0x100 EXP SWAP1 DIV PUSH20 0xFFFFFFFFFFFFFFFFFFFFFFFFFFFFFFFFFFFFFFFF AND PUSH20 0xFFFFFFFFFFFFFFFFFFFFFFFFFFFFFFFFFFFFFFFF AND DUP3 PUSH1 0x40 MLOAD PUSH2 0xCAD SWAP1 PUSH2 0x49D7 JUMP JUMPDEST PUSH0 PUSH1 0x40 MLOAD DUP1 DUP4 SUB DUP2 DUP6 DUP8 GAS CALL SWAP3 POP POP POP RETURNDATASIZE DUP1 PUSH0 DUP2 EQ PUSH2 0xCE7 JUMPI PUSH1 0x40 MLOAD SWAP2 POP PUSH1 0x1F NOT PUSH1 0x3F RETURNDATASIZE ADD AND DUP3 ADD PUSH1 0x40 MSTORE RETURNDATASIZE DUP3 MSTORE RETURNDATASIZE PUSH0 PUSH1 0x20 DUP5 ADD RETURNDATACOPY PUSH2 0xCEC JUMP JUMPDEST PUSH1 0x60 SWAP2 POP JUMPDEST POP POP SWAP1 POP DUP1 PUSH2 0xD27 JUMPI PUSH1 0x40 MLOAD PUSH32 0x90B8EC1800000000000000000000000000000000000000000000000000000000 DUP2 MSTORE PUSH1 0x4 ADD PUSH1 0x40 MLOAD DUP1 SWAP2 SUB SWAP1 REVERT JUMPDEST DUP5 PUSH1 0x2 ADD PUSH0 SWAP1 SLOAD SWAP1 PUSH2 0x100 EXP SWAP1 DIV PUSH20 0xFFFFFFFFFFFFFFFFFFFFFFFFFFFFFFFFFFFFFFFF AND PUSH20 0xFFFFFFFFFFFFFFFFFFFFFFFFFFFFFFFFFFFFFFFF AND DUP9 PUSH32 0x8F034C05208E51E526AE64863F6F62CE04AA7D67D7568C54C28BCDA6F1CED6A9 DUP5 DUP7 PUSH1 0x40 MLOAD PUSH2 0xD93 SWAP3 SWAP2 SWAP1 PUSH2 0x49EB JUMP JUMPDEST PUSH1 0x40 MLOAD DUP1 SWAP2 SUB SWAP1 LOG3 POP POP POP POP POP PUSH1 0x1 PUSH1 0x8 DUP2 SWAP1 SSTORE POP POP POP POP JUMP JUMPDEST PUSH1 0x5 PUSH1 0x20 MSTORE DUP2 PUSH0 MSTORE PUSH1 0x40 PUSH0 KECCAK256 DUP2 DUP2 SLOAD DUP2 LT PUSH2 0xDC6 JUMPI PUSH0 DUP1 REVERT JUMPDEST SWAP1 PUSH0 MSTORE PUSH1 0x20 PUSH0 KECCAK256 ADD PUSH0 SWAP2 POP SWAP2 POP POP SLOAD DUP2 JUMP JUMPDEST PUSH0 PUSH0 PUSH20 0xFFFFFFFFFFFFFFFFFFFFFFFFFFFFFFFFFFFFFFFF AND PUSH1 0xA PUSH0 SWAP1 SLOAD SWAP1 PUSH2 0x100 EXP SWAP1 DIV PUSH20 0xFFFFFFFFFFFFFFFFFFFFFFFFFFFFFFFFFFFFFFFF AND PUSH20 0xFFFFFFFFFFFFFFFFFFFFFFFFFFFFFFFFFFFFFFFF AND SUB PUSH2 0xE35 JUMPI PUSH0 SWAP1 POP PUSH2 0xED1 JUMP JUMPDEST PUSH1 0xA PUSH0 SWAP1 SLOAD SWAP1 PUSH2 0x100 EXP SWAP1 DIV PUSH20 0xFFFFFFFFFFFFFFFFFFFFFFFFFFFFFFFFFFFFFFFF AND PUSH20 0xFFFFFFFFFFFFFFFFFFFFFFFFFFFFFFFFFFFFFFFF AND PUSH4 0x305EA318 DUP4 PUSH1 0x40 MLOAD DUP3 PUSH4 0xFFFFFFFF AND PUSH1 0xE0 SHL DUP2 MSTORE PUSH1 0x4 ADD PUSH2 0xE8F SWAP2 SWAP1 PUSH2 0x4512 JUMP JUMPDEST PUSH1 0x20 PUSH1 0x40 MLOAD DUP1 DUP4 SUB DUP2 DUP7 GAS STATICCALL ISZERO DUP1 ISZERO PUSH2 0xEAA JUMPI RETURNDATASIZE PUSH0 PUSH0 RETURNDATACOPY RETURNDATASIZE PUSH0 REVERT JUMPDEST POP POP POP POP PUSH1 0x40 MLOAD RETURNDATASIZE PUSH1 0x1F NOT PUSH1 0x1F DUP3 ADD AND DUP3 ADD DUP1 PUSH1 0x40 MSTORE POP DUP2 ADD SWAP1 PUSH2 0xECE SWAP2 SWAP1 PUSH2 0x4A3C JUMP JUMPDEST SWAP1 POP JUMPDEST SWAP2 SWAP1 POP JUMP JUMPDEST DUP2 PUSH1 0x2 SLOAD DUP2 LT PUSH2 0xF1D JUMPI DUP1 PUSH1 0x40 MLOAD PUSH32 0xEE9FFCB700000000000000000000000000000000000000000000000000000000 DUP2 MSTORE PUSH1 0x4 ADD PUSH2 0xF14 SWAP2 SWAP1 PUSH2 0x4151 JUMP JUMPDEST PUSH1 0x40 MLOAD DUP1 SWAP2 SUB SWAP1 REVERT JUMPDEST DUP3 CALLER PUSH20 0xFFFFFFFFFFFFFFFFFFFFFFFFFFFFFFFFFFFFFFFF AND PUSH1 0x4 PUSH0 DUP4 DUP2 MSTORE PUSH1 0x20 ADD SWAP1 DUP2 MSTORE PUSH1 0x20 ADD PUSH0 KECCAK256 PUSH1 0x1 ADD PUSH0 SWAP1 SLOAD SWAP1 PUSH2 0x100 EXP SWAP1 DIV PUSH20 0xFFFFFFFFFFFFFFFFFFFFFFFFFFFFFFFFFFFFFFFF AND PUSH20 0xFFFFFFFFFFFFFFFFFFFFFFFFFFFFFFFFFFFFFFFF AND EQ PUSH2 0xFC1 JUMPI CALLER PUSH1 0x40 MLOAD PUSH32 0x8E4A23D600000000000000000000000000000000000000000000000000000000 DUP2 MSTORE PUSH1 0x4 ADD PUSH2 0xFB8 SWAP2 SWAP1 PUSH2 0x4512 JUMP JUMPDEST PUSH1 0x40 MLOAD DUP1 SWAP2 SUB SWAP1 REVERT JUMPDEST PUSH0 PUSH1 0x4 PUSH0 DUP7 DUP2 MSTORE PUSH1 0x20 ADD SWAP1 DUP2 MSTORE PUSH1 0x20 ADD PUSH0 KECCAK256 SWAP1 POP PUSH1 0x1 PUSH1 0x5 DUP2 GT ISZERO PUSH2 0xFE9 JUMPI PUSH2 0xFE8 PUSH2 0x452B JUMP JUMPDEST JUMPDEST DUP2 PUSH1 0x6 ADD PUSH0 SWAP1 SLOAD SWAP1 PUSH2 0x100 EXP SWAP1 DIV PUSH1 0xFF AND PUSH1 0x5 DUP2 GT ISZERO PUSH2 0x100C JUMPI PUSH2 0x100B PUSH2 0x452B JUMP JUMPDEST JUMPDEST EQ PUSH2 0x1061 JUMPI DUP1 PUSH1 0x6 ADD PUSH0 SWAP1 SLOAD SWAP1 PUSH2 0x100 EXP SWAP1 DIV PUSH1 0xFF AND PUSH1 0x1 PUSH1 0x40 MLOAD PUSH32 0xF924664D00000000000000000000000000000000000000000000000000000000 DUP2 MSTORE PUSH1 0x4 ADD PUSH2 0x1058 SWAP3 SWAP2 SWAP1 PUSH2 0x4885 JUMP JUMPDEST PUSH1 0x40 MLOAD DUP1 SWAP2 SUB SWAP1 REVERT JUMPDEST DUP1 PUSH1 0x5 ADD SLOAD TIMESTAMP GT ISZERO PUSH2 0x109F JUMPI PUSH1 0x40 MLOAD PUSH32 0x70F65CAA00000000000000000000000000000000000000000000000000000000 DUP2 MSTORE PUSH1 0x4 ADD PUSH1 0x40 MLOAD DUP1 SWAP2 SUB SWAP1 REVERT JUMPDEST PUSH0 DUP2 PUSH1 0x5 ADD SLOAD SWAP1 POP DUP5 DUP3 PUSH1 0x5 ADD PUSH0 DUP3 DUP3 SLOAD PUSH2 0x10BA SWAP2 SWAP1 PUSH2 0x4A67 JUMP JUMPDEST SWAP3 POP POP DUP2 SWAP1 SSTORE POP DUP6 PUSH32 0x514AF8BA7ABBCAA858D00568E0788CD39416A39195EAC9780F8730CD4FCFB103 DUP3 DUP5 PUSH1 0x5 ADD SLOAD PUSH1 0x40 MLOAD PUSH2 0x10F7 SWAP3 SWAP2 SWAP1 PUSH2 0x49EB JUMP JUMPDEST PUSH1 0x40 MLOAD DUP1 SWAP2 SUB SWAP1 LOG2 POP POP POP POP POP POP JUMP JUMPDEST PUSH1 0x2 SLOAD DUP2 JUMP JUMPDEST PUSH1 0x60 PUSH1 0x7 PUSH0 DUP4 PUSH20 0xFFFFFFFFFFFFFFFFFFFFFFFFFFFFFFFFFFFFFFFF AND PUSH20 0xFFFFFFFFFFFFFFFFFFFFFFFFFFFFFFFFFFFFFFFF AND DUP2 MSTORE PUSH1 0x20 ADD SWAP1 DUP2 MSTORE PUSH1 0x20 ADD PUSH0 KECCAK256 DUP1 SLOAD DUP1 PUSH1 0x20 MUL PUSH1 0x20 ADD PUSH1 0x40 MLOAD SWAP1 DUP2 ADD PUSH1 0x40 MSTORE DUP1 SWAP3 SWAP2 SWAP1 DUP2 DUP2 MSTORE PUSH1 0x20 ADD DUP3 DUP1 SLOAD DUP1 ISZERO PUSH2 0x1194 JUMPI PUSH1 0x20 MUL DUP3 ADD SWAP2 SWAP1 PUSH0 MSTORE PUSH1 0x20 PUSH0 KECCAK256 SWAP1 JUMPDEST DUP2 SLOAD DUP2 MSTORE PUSH1 0x20 ADD SWAP1 PUSH1 0x1 ADD SWAP1 DUP1 DUP4 GT PUSH2 0x1180 JUMPI JUMPDEST POP POP POP POP POP SWAP1 POP SWAP2 SWAP1 POP JUMP JUMPDEST PUSH0 PUSH0 SWAP1 SLOAD SWAP1 PUSH2 0x100 EXP SWAP1 DIV PUSH20 0xFFFFFFFFFFFFFFFFFFFFFFFFFFFFFFFFFFFFFFFF AND PUSH20 0xFFFFFFFFFFFFFFFFFFFFFFFFFFFFFFFFFFFFFFFF AND CALLER PUSH20 0xFFFFFFFFFFFFFFFFFFFFFFFFFFFFFFFFFFFFFFFF AND EQ PUSH2 0x1230 JUMPI CALLER PUSH1 0x40 MLOAD PUSH32 0x8E4A23D600000000000000000000000000000000000000000000000000000000 DUP2 MSTORE PUSH1 0x4 ADD PUSH2 0x1227 SWAP2 SWAP1 PUSH2 0x4512 JUMP JUMPDEST PUSH1 0x40 MLOAD DUP1 SWAP2 SUB SWAP1 REVERT JUMPDEST DUP1 PUSH1 0xA PUSH0 PUSH2 0x100 EXP DUP2 SLOAD DUP2 PUSH20 0xFFFFFFFFFFFFFFFFFFFFFFFFFFFFFFFFFFFFFFFF MUL NOT AND SWAP1 DUP4 PUSH20 0xFFFFFFFFFFFFFFFFFFFFFFFFFFFFFFFFFFFFFFFF AND MUL OR SWAP1 SSTORE POP POP JUMP JUMPDEST DUP3 PUSH1 0x2 SLOAD DUP2 LT PUSH2 0x12BA JUMPI DUP1 PUSH1 0x40 MLOAD PUSH32 0xEE9FFCB700000000000000000000000000000000000000000000000000000000 DUP2 MSTORE PUSH1 0x4 ADD PUSH2 0x12B1 SWAP2 SWAP1 PUSH2 0x4151 JUMP JUMPDEST PUSH1 0x40 MLOAD DUP1 SWAP2 SUB SWAP1 REVERT JUMPDEST DUP4 CALLER PUSH20 0xFFFFFFFFFFFFFFFFFFFFFFFFFFFFFFFFFFFFFFFF AND PUSH1 0x4 PUSH0 DUP4 DUP2 MSTORE PUSH1 0x20 ADD SWAP1 DUP2 MSTORE PUSH1 0x20 ADD PUSH0 KECCAK256 PUSH1 0x3 ADD PUSH0 SWAP1 SLOAD SWAP1 PUSH2 0x100 EXP SWAP1 DIV PUSH20 0xFFFFFFFFFFFFFFFFFFFFFFFFFFFFFFFFFFFFFFFF AND PUSH20 0xFFFFFFFFFFFFFFFFFFFFFFFFFFFFFFFFFFFFFFFF AND EQ PUSH2 0x135E JUMPI CALLER PUSH1 0x40 MLOAD PUSH32 0x8E4A23D600000000000000000000000000000000000000000000000000000000 DUP2 MSTORE PUSH1 0x4 ADD PUSH2 0x1355 SWAP2 SWAP1 PUSH2 0x4512 JUMP JUMPDEST PUSH1 0x40 MLOAD DUP1 SWAP2 SUB SWAP1 REVERT JUMPDEST PUSH0 PUSH1 0x4 PUSH0 DUP8 DUP2 MSTORE PUSH1 0x20 ADD SWAP1 DUP2 MSTORE PUSH1 0x20 ADD PUSH0 KECCAK256 SWAP1 POP PUSH1 0x1 PUSH1 0x5 DUP2 GT ISZERO PUSH2 0x1386 JUMPI PUSH2 0x1385 PUSH2 0x452B JUMP JUMPDEST JUMPDEST DUP2 PUSH1 0x6 ADD PUSH0 SWAP1 SLOAD SWAP1 PUSH2 0x100 EXP SWAP1 DIV PUSH1 0xFF AND PUSH1 0x5 DUP2 GT ISZERO PUSH2 0x13A9 JUMPI PUSH2 0x13A8 PUSH2 0x452B JUMP JUMPDEST JUMPDEST EQ PUSH2 0x13FE JUMPI DUP1 PUSH1 0x6 ADD PUSH0 SWAP1 SLOAD SWAP1 PUSH2 0x100 EXP SWAP1 DIV PUSH1 0xFF AND PUSH1 0x1 PUSH1 0x40 MLOAD PUSH32 0xF924664D00000000000000000000000000000000000000000000000000000000 DUP2 MSTORE PUSH1 0x4 ADD PUSH2 0x13F5 SWAP3 SWAP2 SWAP1 PUSH2 0x4885 JUMP JUMPDEST PUSH1 0x40 MLOAD DUP1 SWAP2 SUB SWAP1 REVERT JUMPDEST DUP1 PUSH1 0x5 ADD SLOAD TIMESTAMP GT ISZERO PUSH2 0x143C JUMPI PUSH1 0x40 MLOAD PUSH32 0x70F65CAA00000000000000000000000000000000000000000000000000000000 DUP2 MSTORE PUSH1 0x4 ADD PUSH1 0x40 MLOAD DUP1 SWAP2 SUB SWAP1 REVERT JUMPDEST PUSH1 0x2 DUP2 PUSH1 0x6 ADD PUSH0 PUSH2 0x100 EXP DUP2 SLOAD DUP2 PUSH1 0xFF MUL NOT AND SWAP1 DUP4 PUSH1 0x5 DUP2 GT ISZERO PUSH2 0x1463 JUMPI PUSH2 0x1462 PUSH2 0x452B JUMP JUMPDEST JUMPDEST MUL OR SWAP1 SSTORE POP DUP5 DUP5 DUP3 PUSH1 0x8 ADD SWAP2 DUP3 PUSH2 0x147B SWAP3 SWAP2 SWAP1 PUSH2 0x4C98 JUMP JUMPDEST POP PUSH0 PUSH20 0xFFFFFFFFFFFFFFFFFFFFFFFFFFFFFFFFFFFFFFFF AND PUSH1 0xA PUSH0 SWAP1 SLOAD SWAP1 PUSH2 0x100 EXP SWAP1 DIV PUSH20 0xFFFFFFFFFFFFFFFFFFFFFFFFFFFFFFFFFFFFFFFF AND PUSH20 0xFFFFFFFFFFFFFFFFFFFFFFFFFFFFFFFFFFFFFFFF AND EQ PUSH2 0x155B JUMPI PUSH1 0xA PUSH0 SWAP1 SLOAD SWAP1 PUSH2 0x100 EXP SWAP1 DIV PUSH20 0xFFFFFFFFFFFFFFFFFFFFFFFFFFFFFFFFFFFFFFFF AND PUSH20 0xFFFFFFFFFFFFFFFFFFFFFFFFFFFFFFFFFFFFFFFF AND PUSH4 0x1D11308E CALLER PUSH1 0x1 PUSH1 0x40 MLOAD DUP4 PUSH4 0xFFFFFFFF AND PUSH1 0xE0 SHL DUP2 MSTORE PUSH1 0x4 ADD PUSH2 0x152D SWAP3 SWAP2 SWAP1 PUSH2 0x4D65 JUMP JUMPDEST PUSH0 PUSH1 0x40 MLOAD DUP1 DUP4 SUB DUP2 PUSH0 DUP8 DUP1 EXTCODESIZE ISZERO DUP1 ISZERO PUSH2 0x1544 JUMPI PUSH0 PUSH0 REVERT JUMPDEST POP GAS CALL ISZERO DUP1 ISZERO PUSH2 0x1556 JUMPI RETURNDATASIZE PUSH0 PUSH0 RETURNDATACOPY RETURNDATASIZE PUSH0 REVERT JUMPDEST POP POP POP POP JUMPDEST CALLER PUSH20 0xFFFFFFFFFFFFFFFFFFFFFFFFFFFFFFFFFFFFFFFF AND DUP7 PUSH32 0x800EF3E3B110573F2F50295CA58CB134587DEC0061753C905E35E84F2EFB8C52 DUP8 DUP8 PUSH1 0x40 MLOAD PUSH2 0x15A4 SWAP3 SWAP2 SWAP1 PUSH2 0x4DB8 JUMP JUMPDEST PUSH1 0x40 MLOAD DUP1 SWAP2 SUB SWAP1 LOG3 POP POP POP POP POP POP JUMP JUMPDEST DUP2 PUSH1 0x2 SLOAD DUP2 LT PUSH2 0x15FB JUMPI DUP1 PUSH1 0x40 MLOAD PUSH32 0xEE9FFCB700000000000000000000000000000000000000000000000000000000 DUP2 MSTORE PUSH1 0x4 ADD PUSH2 0x15F2 SWAP2 SWAP1 PUSH2 0x4151 JUMP JUMPDEST PUSH1 0x40 MLOAD DUP1 SWAP2 SUB SWAP1 REVERT JUMPDEST DUP3 CALLER PUSH20 0xFFFFFFFFFFFFFFFFFFFFFFFFFFFFFFFFFFFFFFFF AND PUSH1 0x4 PUSH0 DUP4 DUP2 MSTORE PUSH1 0x20 ADD SWAP1 DUP2 MSTORE PUSH1 0x20 ADD PUSH0 KECCAK256 PUSH1 0x1 ADD PUSH0 SWAP1 SLOAD SWAP1 PUSH2 0x100 EXP SWAP1 DIV PUSH20 0xFFFFFFFFFFFFFFFFFFFFFFFFFFFFFFFFFFFFFFFF AND PUSH20 0xFFFFFFFFFFFFFFFFFFFFFFFFFFFFFFFFFFFFFFFF AND EQ PUSH2 0x169F JUMPI CALLER PUSH1 0x40 MLOAD PUSH32 0x8E4A23D600000000000000000000000000000000000000000000000000000000 DUP2 MSTORE PUSH1 0x4 ADD PUSH2 0x1696 SWAP2 SWAP1 PUSH2 0x4512 JUMP JUMPDEST PUSH1 0x40 MLOAD DUP1 SWAP2 SUB SWAP1 REVERT JUMPDEST PUSH0 PUSH20 0xFFFFFFFFFFFFFFFFFFFFFFFFFFFFFFFFFFFFFFFF AND DUP4 PUSH20 0xFFFFFFFFFFFFFFFFFFFFFFFFFFFFFFFFFFFFFFFF AND SUB PUSH2 0x1704 JUMPI PUSH1 0x40 MLOAD PUSH32 0xE6C4247B00000000000000000000000000000000000000000000000000000000 DUP2 MSTORE PUSH1 0x4 ADD PUSH1 0x40 MLOAD DUP1 SWAP2 SUB SWAP1 REVERT JUMPDEST PUSH0 PUSH1 0x4 PUSH0 DUP7 DUP2 MSTORE PUSH1 0x20 ADD SWAP1 DUP2 MSTORE PUSH1 0x20 ADD PUSH0 KECCAK256 SWAP1 POP PUSH0 PUSH1 0x5 DUP2 GT ISZERO PUSH2 0x172B JUMPI PUSH2 0x172A PUSH2 0x452B JUMP JUMPDEST JUMPDEST DUP2 PUSH1 0x6 ADD PUSH0 SWAP1 SLOAD SWAP1 PUSH2 0x100 EXP SWAP1 DIV PUSH1 0xFF AND PUSH1 0x5 DUP2 GT ISZERO PUSH2 0x174E JUMPI PUSH2 0x174D PUSH2 0x452B JUMP JUMPDEST JUMPDEST EQ ISZERO DUP1 ISZERO PUSH2 0x1791 JUMPI POP PUSH1 0x1 PUSH1 0x5 DUP2 GT ISZERO PUSH2 0x176B JUMPI PUSH2 0x176A PUSH2 0x452B JUMP JUMPDEST JUMPDEST DUP2 PUSH1 0x6 ADD PUSH0 SWAP1 SLOAD SWAP1 PUSH2 0x100 EXP SWAP1 DIV PUSH1 0xFF AND PUSH1 0x5 DUP2 GT ISZERO PUSH2 0x178E JUMPI PUSH2 0x178D PUSH2 0x452B JUMP JUMPDEST JUMPDEST EQ ISZERO JUMPDEST ISZERO PUSH2 0x17E5 JUMPI DUP1 PUSH1 0x6 ADD PUSH0 SWAP1 SLOAD SWAP1 PUSH2 0x100 EXP SWAP1 DIV PUSH1 0xFF AND PUSH0 PUSH1 0x40 MLOAD PUSH32 0xF924664D00000000000000000000000000000000000000000000000000000000 DUP2 MSTORE PUSH1 0x4 ADD PUSH2 0x17DC SWAP3 SWAP2 SWAP1 PUSH2 0x4885 JUMP JUMPDEST PUSH1 0x40 MLOAD DUP1 SWAP2 SUB SWAP1 REVERT JUMPDEST PUSH0 DUP2 PUSH1 0x3 ADD PUSH0 SWAP1 SLOAD SWAP1 PUSH2 0x100 EXP SWAP1 DIV PUSH20 0xFFFFFFFFFFFFFFFFFFFFFFFFFFFFFFFFFFFFFFFF AND SWAP1 POP DUP5 DUP3 PUSH1 0x3 ADD PUSH0 PUSH2 0x100 EXP DUP2 SLOAD DUP2 PUSH20 0xFFFFFFFFFFFFFFFFFFFFFFFFFFFFFFFFFFFFFFFF MUL NOT AND SWAP1 DUP4 PUSH20 0xFFFFFFFFFFFFFFFFFFFFFFFFFFFFFFFFFFFFFFFF AND MUL OR SWAP1 SSTORE POP DUP6 PUSH32 0x2ACB199B487DD9D4949BF0CE3A2B36BAA7E688EB88197841015161A98B3D8747 DUP3 DUP8 PUSH1 0x40 MLOAD PUSH2 0x1880 SWAP3 SWAP2 SWAP1 PUSH2 0x4DDA JUMP JUMPDEST PUSH1 0x40 MLOAD DUP1 SWAP2 SUB SWAP1 LOG2 POP POP POP POP POP POP JUMP JUMPDEST DUP3 PUSH1 0x2 SLOAD DUP2 LT PUSH2 0x18D7 JUMPI DUP1 PUSH1 0x40 MLOAD PUSH32 0xEE9FFCB700000000000000000000000000000000000000000000000000000000 DUP2 MSTORE PUSH1 0x4 ADD PUSH2 0x18CE SWAP2 SWAP1 PUSH2 0x4151 JUMP JUMPDEST PUSH1 0x40 MLOAD DUP1 SWAP2 SUB SWAP1 REVERT JUMPDEST PUSH0 PUSH1 0x4 PUSH0 DUP7 DUP2 MSTORE PUSH1 0x20 ADD SWAP1 DUP2 MSTORE PUSH1 0x20 ADD PUSH0 KECCAK256 SWAP1 POP DUP1 PUSH1 0x1 ADD PUSH0 SWAP1 SLOAD SWAP1 PUSH2 0x100 EXP SWAP1 DIV PUSH20 0xFFFFFFFFFFFFFFFFFFFFFFFFFFFFFFFFFFFFFFFF AND PUSH20 0xFFFFFFFFFFFFFFFFFFFFFFFFFFFFFFFFFFFFFFFF AND CALLER PUSH20 0xFFFFFFFFFFFFFFFFFFFFFFFFFFFFFFFFFFFFFFFF AND EQ ISZERO DUP1 ISZERO PUSH2 0x1999 JUMPI POP DUP1 PUSH1 0x2 ADD PUSH0 SWAP1 SLOAD SWAP1 PUSH2 0x100 EXP SWAP1 DIV PUSH20 0xFFFFFFFFFFFFFFFFFFFFFFFFFFFFFFFFFFFFFFFF AND PUSH20 0xFFFFFFFFFFFFFFFFFFFFFFFFFFFFFFFFFFFFFFFF AND CALLER PUSH20 0xFFFFFFFFFFFFFFFFFFFFFFFFFFFFFFFFFFFFFFFF AND EQ ISZERO JUMPDEST ISZERO PUSH2 0x19DB JUMPI CALLER PUSH1 0x40 MLOAD PUSH32 0x8E4A23D600000000000000000000000000000000000000000000000000000000 DUP2 MSTORE PUSH1 0x4 ADD PUSH2 0x19D2 SWAP2 SWAP1 PUSH2 0x4512 JUMP JUMPDEST PUSH1 0x40 MLOAD DUP1 SWAP2 SUB SWAP1 REVERT JUMPDEST PUSH1 0x2 PUSH1 0x5 DUP2 GT ISZERO PUSH2 0x19EF JUMPI PUSH2 0x19EE PUSH2 0x452B JUMP JUMPDEST JUMPDEST DUP2 PUSH1 0x6 ADD PUSH0 SWAP1 SLOAD SWAP1 PUSH2 0x100 EXP SWAP1 DIV PUSH1 0xFF AND PUSH1 0x5 DUP2 GT ISZERO PUSH2 0x1A12 JUMPI PUSH2 0x1A11 PUSH2 0x452B JUMP JUMPDEST JUMPDEST EQ ISZERO DUP1 ISZERO PUSH2 0x1A55 JUMPI POP PUSH1 0x1 PUSH1 0x5 DUP2 GT ISZERO PUSH2 0x1A2F JUMPI PUSH2 0x1A2E PUSH2 0x452B JUMP JUMPDEST JUMPDEST DUP2 PUSH1 0x6 ADD PUSH0 SWAP1 SLOAD SWAP1 PUSH2 0x100 EXP SWAP1 DIV PUSH1 0xFF AND PUSH1 0x5 DUP2 GT ISZERO PUSH2 0x1A52 JUMPI PUSH2 0x1A51 PUSH2 0x452B JUMP JUMPDEST JUMPDEST EQ ISZERO JUMPDEST ISZERO PUSH2 0x1AAA JUMPI DUP1 PUSH1 0x6 ADD PUSH0 SWAP1 SLOAD SWAP1 PUSH2 0x100 EXP SWAP1 DIV PUSH1 0xFF AND PUSH1 0x2 PUSH1 0x40 MLOAD PUSH32 0xF924664D00000000000000000000000000000000000000000000000000000000 DUP2 MSTORE PUSH1 0x4 ADD PUSH2 0x1AA1 SWAP3 SWAP2 SWAP1 PUSH2 0x4885 JUMP JUMPDEST PUSH1 0x40 MLOAD DUP1 SWAP2 SUB SWAP1 REVERT JUMPDEST PUSH1 0x5 DUP2 PUSH1 0x6 ADD PUSH0 PUSH2 0x100 EXP DUP2 SLOAD DUP2 PUSH1 0xFF MUL NOT AND SWAP1 DUP4 PUSH1 0x5 DUP2 GT ISZERO PUSH2 0x1AD1 JUMPI PUSH2 0x1AD0 PUSH2 0x452B JUMP JUMPDEST JUMPDEST MUL OR SWAP1 SSTORE POP CALLER PUSH20 0xFFFFFFFFFFFFFFFFFFFFFFFFFFFFFFFFFFFFFFFF AND DUP6 PUSH32 0x556A5BF38CB59A9278ED161F499D231BBBED1025F2765AA08FB5688767A65E50 DUP7 DUP7 PUSH1 0x40 MLOAD PUSH2 0x1B1F SWAP3 SWAP2 SWAP1 PUSH2 0x4DB8 JUMP JUMPDEST PUSH1 0x40 MLOAD DUP1 SWAP2 SUB SWAP1 LOG3 POP POP POP POP POP JUMP JUMPDEST PUSH1 0x9 PUSH0 SWAP1 SLOAD SWAP1 PUSH2 0x100 EXP SWAP1 DIV PUSH20 0xFFFFFFFFFFFFFFFFFFFFFFFFFFFFFFFFFFFFFFFF AND DUP2 JUMP JUMPDEST PUSH0 PUSH0 PUSH20 0xFFFFFFFFFFFFFFFFFFFFFFFFFFFFFFFFFFFFFFFF AND DUP6 PUSH20 0xFFFFFFFFFFFFFFFFFFFFFFFFFFFFFFFFFFFFFFFF AND EQ DUP1 PUSH2 0x1BB9 JUMPI POP PUSH0 PUSH20 0xFFFFFFFFFFFFFFFFFFFFFFFFFFFFFFFFFFFFFFFF AND DUP5 PUSH20 0xFFFFFFFFFFFFFFFFFFFFFFFFFFFFFFFFFFFFFFFF AND EQ JUMPDEST ISZERO PUSH2 0x1BF0 JUMPI PUSH1 0x40 MLOAD PUSH32 0xE6C4247B00000000000000000000000000000000000000000000000000000000 DUP2 MSTORE PUSH1 0x4 ADD PUSH1 0x40 MLOAD DUP1 SWAP2 SUB SWAP1 REVERT JUMPDEST PUSH0 DUP4 MLOAD SUB PUSH2 0x1C2A JUMPI PUSH1 0x40 MLOAD PUSH32 0xDFA03E5000000000000000000000000000000000000000000000000000000000 DUP2 MSTORE PUSH1 0x4 ADD PUSH1 0x40 MLOAD DUP1 SWAP2 SUB SWAP1 REVERT JUMPDEST PUSH3 0x15180 DUP3 LT ISZERO PUSH2 0x1C67 JUMPI PUSH1 0x40 MLOAD PUSH32 0x2C5211C600000000000000000000000000000000000000000000000000000000 DUP2 MSTORE PUSH1 0x4 ADD PUSH1 0x40 MLOAD DUP1 SWAP2 SUB SWAP1 REVERT JUMPDEST PUSH0 PUSH1 0x2 SLOAD SWAP1 POP PUSH1 0x40 MLOAD DUP1 PUSH2 0x180 ADD PUSH1 0x40 MSTORE DUP1 DUP3 DUP2 MSTORE PUSH1 0x20 ADD CALLER PUSH20 0xFFFFFFFFFFFFFFFFFFFFFFFFFFFFFFFFFFFFFFFF AND DUP2 MSTORE PUSH1 0x20 ADD DUP8 PUSH20 0xFFFFFFFFFFFFFFFFFFFFFFFFFFFFFFFFFFFFFFFF AND DUP2 MSTORE PUSH1 0x20 ADD DUP7 PUSH20 0xFFFFFFFFFFFFFFFFFFFFFFFFFFFFFFFFFFFFFFFF AND DUP2 MSTORE PUSH1 0x20 ADD PUSH0 DUP2 MSTORE PUSH1 0x20 ADD DUP5 TIMESTAMP PUSH2 0x1CE5 SWAP2 SWAP1 PUSH2 0x4A67 JUMP JUMPDEST DUP2 MSTORE PUSH1 0x20 ADD PUSH0 PUSH1 0x5 DUP2 GT ISZERO PUSH2 0x1CFD JUMPI PUSH2 0x1CFC PUSH2 0x452B JUMP JUMPDEST JUMPDEST DUP2 MSTORE PUSH1 0x20 ADD DUP6 DUP2 MSTORE PUSH1 0x20 ADD PUSH1 0x40 MLOAD DUP1 PUSH1 0x20 ADD PUSH1 0x40 MSTORE DUP1 PUSH0 DUP2 MSTORE POP DUP2 MSTORE PUSH1 0x20 ADD TIMESTAMP DUP2 MSTORE PUSH1 0x20 ADD PUSH0 DUP2 MSTORE PUSH1 0x20 ADD PUSH0 ISZERO ISZERO DUP2 MSTORE POP PUSH1 0x4 PUSH0 DUP4 DUP2 MSTORE PUSH1 0x20 ADD SWAP1 DUP2 MSTORE PUSH1 0x20 ADD PUSH0 KECCAK256 PUSH0 DUP3 ADD MLOAD DUP2 PUSH0 ADD SSTORE PUSH1 0x20 DUP3 ADD MLOAD DUP2 PUSH1 0x1 ADD PUSH0 PUSH2 0x100 EXP DUP2 SLOAD DUP2 PUSH20 0xFFFFFFFFFFFFFFFFFFFFFFFFFFFFFFFFFFFFFFFF MUL NOT AND SWAP1 DUP4 PUSH20 0xFFFFFFFFFFFFFFFFFFFFFFFFFFFFFFFFFFFFFFFF AND MUL OR SWAP1 SSTORE POP PUSH1 0x40 DUP3 ADD MLOAD DUP2 PUSH1 0x2 ADD PUSH0 PUSH2 0x100 EXP DUP2 SLOAD DUP2 PUSH20 0xFFFFFFFFFFFFFFFFFFFFFFFFFFFFFFFFFFFFFFFF MUL NOT AND SWAP1 DUP4 PUSH20 0xFFFFFFFFFFFFFFFFFFFFFFFFFFFFFFFFFFFFFFFF AND MUL OR SWAP1 SSTORE POP PUSH1 0x60 DUP3 ADD MLOAD DUP2 PUSH1 0x3 ADD PUSH0 PUSH2 0x100 EXP DUP2 SLOAD DUP2 PUSH20 0xFFFFFFFFFFFFFFFFFFFFFFFFFFFFFFFFFFFFFFFF MUL NOT AND SWAP1 DUP4 PUSH20 0xFFFFFFFFFFFFFFFFFFFFFFFFFFFFFFFFFFFFFFFF AND MUL OR SWAP1 SSTORE POP PUSH1 0x80 DUP3 ADD MLOAD DUP2 PUSH1 0x4 ADD SSTORE PUSH1 0xA0 DUP3 ADD MLOAD DUP2 PUSH1 0x5 ADD SSTORE PUSH1 0xC0 DUP3 ADD MLOAD DUP2 PUSH1 0x6 ADD PUSH0 PUSH2 0x100 EXP DUP2 SLOAD DUP2 PUSH1 0xFF MUL NOT AND SWAP1 DUP4 PUSH1 0x5 DUP2 GT ISZERO PUSH2 0x1E57 JUMPI PUSH2 0x1E56 PUSH2 0x452B JUMP JUMPDEST JUMPDEST MUL OR SWAP1 SSTORE POP PUSH1 0xE0 DUP3 ADD MLOAD DUP2 PUSH1 0x7 ADD SWAP1 DUP2 PUSH2 0x1E71 SWAP2 SWAP1 PUSH2 0x4E01 JUMP JUMPDEST POP PUSH2 0x100 DUP3 ADD MLOAD DUP2 PUSH1 0x8 ADD SWAP1 DUP2 PUSH2 0x1E88 SWAP2 SWAP1 PUSH2 0x4E01 JUMP JUMPDEST POP PUSH2 0x120 DUP3 ADD MLOAD DUP2 PUSH1 0x9 ADD SSTORE PUSH2 0x140 DUP3 ADD MLOAD DUP2 PUSH1 0xA ADD SSTORE PUSH2 0x160 DUP3 ADD MLOAD DUP2 PUSH1 0xB ADD PUSH0 PUSH2 0x100 EXP DUP2 SLOAD DUP2 PUSH1 0xFF MUL NOT AND SWAP1 DUP4 ISZERO ISZERO MUL OR SWAP1 SSTORE POP SWAP1 POP POP PUSH1 0x5 PUSH0 CALLER PUSH20 0xFFFFFFFFFFFFFFFFFFFFFFFFFFFFFFFFFFFFFFFF AND PUSH20 0xFFFFFFFFFFFFFFFFFFFFFFFFFFFFFFFFFFFFFFFF AND DUP2 MSTORE PUSH1 0x20 ADD SWAP1 DUP2 MSTORE PUSH1 0x20 ADD PUSH0 KECCAK256 DUP2 SWAP1 DUP1 PUSH1 0x1 DUP2 SLOAD ADD DUP1 DUP3 SSTORE DUP1 SWAP2 POP POP PUSH1 0x1 SWAP1 SUB SWAP1 PUSH0 MSTORE PUSH1 0x20 PUSH0 KECCAK256 ADD PUSH0 SWAP1 SWAP2 SWAP1 SWAP2 SWAP1 SWAP2 POP SSTORE PUSH1 0x6 PUSH0 DUP8 PUSH20 0xFFFFFFFFFFFFFFFFFFFFFFFFFFFFFFFFFFFFFFFF AND PUSH20 0xFFFFFFFFFFFFFFFFFFFFFFFFFFFFFFFFFFFFFFFF AND DUP2 MSTORE PUSH1 0x20 ADD SWAP1 DUP2 MSTORE PUSH1 0x20 ADD PUSH0 KECCAK256 DUP2 SWAP1 DUP1 PUSH1 0x1 DUP2 SLOAD ADD DUP1 DUP3 SSTORE DUP1 SWAP2 POP POP PUSH1 0x1 SWAP1 SUB SWAP1 PUSH0 MSTORE PUSH1 0x20 PUSH0 KECCAK256 ADD PUSH0 SWAP1 SWAP2 SWAP1 SWAP2 SWAP1 SWAP2 POP SSTORE PUSH1 0x7 PUSH0 DUP7 PUSH20 0xFFFFFFFFFFFFFFFFFFFFFFFFFFFFFFFFFFFFFFFF AND PUSH20 0xFFFFFFFFFFFFFFFFFFFFFFFFFFFFFFFFFFFFFFFF AND DUP2 MSTORE PUSH1 0x20 ADD SWAP1 DUP2 MSTORE PUSH1 0x20 ADD PUSH0 KECCAK256 DUP2 SWAP1 DUP1 PUSH1 0x1 DUP2 SLOAD ADD DUP1 DUP3 SSTORE DUP1 SWAP2 POP POP PUSH1 0x1 SWAP1 SUB SWAP1 PUSH0 MSTORE PUSH1 0x20 PUSH0 KECCAK256 ADD PUSH0 SWAP1 SWAP2 SWAP1 SWAP2 SWAP1 SWAP2 POP SSTORE PUSH1 0x2 PUSH0 DUP2 SLOAD DUP1 SWAP3 SWAP2 SWAP1 PUSH2 0x1FF7 SWAP1 PUSH2 0x4ED0 JUMP JUMPDEST SWAP2 SWAP1 POP SSTORE POP DUP6 PUSH20 0xFFFFFFFFFFFFFFFFFFFFFFFFFFFFFFFFFFFFFFFF AND CALLER PUSH20 0xFFFFFFFFFFFFFFFFFFFFFFFFFFFFFFFFFFFFFFFF AND DUP3 PUSH32 0xFEC2E0001F23AC3E685805535A487F140C608E19FA1F37407B0FF7D71EDE5BC7 DUP9 PUSH0 DUP10 PUSH1 0x40 MLOAD PUSH2 0x205E SWAP4 SWAP3 SWAP2 SWAP1 PUSH2 0x4F50 JUMP JUMPDEST PUSH1 0x40 MLOAD DUP1 SWAP2 SUB SWAP1 LOG4 DUP1 SWAP2 POP POP SWAP5 SWAP4 POP POP POP POP JUMP JUMPDEST PUSH0 SELFBALANCE SWAP1 POP SWAP1 JUMP JUMPDEST PUSH0 PUSH0 SWAP1 SLOAD SWAP1 PUSH2 0x100 EXP SWAP1 DIV PUSH20 0xFFFFFFFFFFFFFFFFFFFFFFFFFFFFFFFFFFFFFFFF AND DUP2 JUMP JUMPDEST PUSH0 PUSH0 CALLVALUE SUB PUSH2 0x20D7 JUMPI PUSH1 0x40 MLOAD PUSH32 0x2C5211C600000000000000000000000000000000000000000000000000000000 DUP2 MSTORE PUSH1 0x4 ADD PUSH1 0x40 MLOAD DUP1 SWAP2 SUB SWAP1 REVERT JUMPDEST PUSH0 PUSH2 0x20E4 DUP7 DUP7 DUP7 DUP7 PUSH2 0x1B53 JUMP JUMPDEST SWAP1 POP PUSH0 PUSH1 0x4 PUSH0 DUP4 DUP2 MSTORE PUSH1 0x20 ADD SWAP1 DUP2 MSTORE PUSH1 0x20 ADD PUSH0 KECCAK256 SWAP1 POP CALLVALUE DUP2 PUSH1 0x4 ADD DUP2 SWAP1 SSTORE POP PUSH1 0x1 DUP2 PUSH1 0x6 ADD PUSH0 PUSH2 0x100 EXP DUP2 SLOAD DUP2 PUSH1 0xFF MUL NOT AND SWAP1 DUP4 PUSH1 0x5 DUP2 GT ISZERO PUSH2 0x212A JUMPI PUSH2 0x2129 PUSH2 0x452B JUMP JUMPDEST JUMPDEST MUL OR SWAP1 SSTORE POP CALLVALUE PUSH1 0x3 PUSH0 DUP3 DUP3 SLOAD PUSH2 0x2140 SWAP2 SWAP1 PUSH2 0x4A67 JUMP JUMPDEST SWAP3 POP POP DUP2 SWAP1 SSTORE POP DUP2 PUSH32 0xF984C0F6B056FE16B28046E36FCAFA84A00D503F88F1D0AFA768E4C206192B80 CALLVALUE DUP4 PUSH1 0x5 ADD SLOAD PUSH1 0x40 MLOAD PUSH2 0x217D SWAP3 SWAP2 SWAP1 PUSH2 0x49EB JUMP JUMPDEST PUSH1 0x40 MLOAD DUP1 SWAP2 SUB SWAP1 LOG2 DUP2 SWAP3 POP POP POP SWAP5 SWAP4 POP POP POP POP JUMP JUMPDEST PUSH1 0x4 PUSH1 0x20 MSTORE DUP1 PUSH0 MSTORE PUSH1 0x40 PUSH0 KECCAK256 PUSH0 SWAP2 POP SWAP1 POP DUP1 PUSH0 ADD SLOAD SWAP1 DUP1 PUSH1 0x1 ADD PUSH0 SWAP1 SLOAD SWAP1 PUSH2 0x100 EXP SWAP1 DIV PUSH20 0xFFFFFFFFFFFFFFFFFFFFFFFFFFFFFFFFFFFFFFFF AND SWAP1 DUP1 PUSH1 0x2 ADD PUSH0 SWAP1 SLOAD SWAP1 PUSH2 0x100 EXP SWAP1 DIV PUSH20 0xFFFFFFFFFFFFFFFFFFFFFFFFFFFFFFFFFFFFFFFF AND SWAP1 DUP1 PUSH1 0x3 ADD PUSH0 SWAP1 SLOAD SWAP1 PUSH2 0x100 EXP SWAP1 DIV PUSH20 0xFFFFFFFFFFFFFFFFFFFFFFFFFFFFFFFFFFFFFFFF AND SWAP1 DUP1 PUSH1 0x4 ADD SLOAD SWAP1 DUP1 PUSH1 0x5 ADD SLOAD SWAP1 DUP1 PUSH1 0x6 ADD PUSH0 SWAP1 SLOAD SWAP1 PUSH2 0x100 EXP SWAP1 DIV PUSH1 0xFF AND SWAP1 DUP1 PUSH1 0x7 ADD DUP1 SLOAD PUSH2 0x2244 SWAP1 PUSH2 0x4AD1 JUMP JUMPDEST DUP1 PUSH1 0x1F ADD PUSH1 0x20 DUP1 SWAP2 DIV MUL PUSH1 0x20 ADD PUSH1 0x40 MLOAD SWAP1 DUP2 ADD PUSH1 0x40 MSTORE DUP1 SWAP3 SWAP2 SWAP1 DUP2 DUP2 MSTORE PUSH1 0x20 ADD DUP3 DUP1 SLOAD PUSH2 0x2270 SWAP1 PUSH2 0x4AD1 JUMP JUMPDEST DUP1 ISZERO PUSH2 0x22BB JUMPI DUP1 PUSH1 0x1F LT PUSH2 0x2292 JUMPI PUSH2 0x100 DUP1 DUP4 SLOAD DIV MUL DUP4 MSTORE SWAP2 PUSH1 0x20 ADD SWAP2 PUSH2 0x22BB JUMP JUMPDEST DUP3 ADD SWAP2 SWAP1 PUSH0 MSTORE PUSH1 0x20 PUSH0 KECCAK256 SWAP1 JUMPDEST DUP2 SLOAD DUP2 MSTORE SWAP1 PUSH1 0x1 ADD SWAP1 PUSH1 0x20 ADD DUP1 DUP4 GT PUSH2 0x229E JUMPI DUP3 SWAP1 SUB PUSH1 0x1F AND DUP3 ADD SWAP2 JUMPDEST POP POP POP POP POP SWAP1 DUP1 PUSH1 0x8 ADD DUP1 SLOAD PUSH2 0x22D0 SWAP1 PUSH2 0x4AD1 JUMP JUMPDEST DUP1 PUSH1 0x1F ADD PUSH1 0x20 DUP1 SWAP2 DIV MUL PUSH1 0x20 ADD PUSH1 0x40 MLOAD SWAP1 DUP2 ADD PUSH1 0x40 MSTORE DUP1 SWAP3 SWAP2 SWAP1 DUP2 DUP2 MSTORE PUSH1 0x20 ADD DUP3 DUP1 SLOAD PUSH2 0x22FC SWAP1 PUSH2 0x4AD1 JUMP JUMPDEST DUP1 ISZERO PUSH2 0x2347 JUMPI DUP1 PUSH1 0x1F LT PUSH2 0x231E JUMPI PUSH2 0x100 DUP1 DUP4 SLOAD DIV MUL DUP4 MSTORE SWAP2 PUSH1 0x20 ADD SWAP2 PUSH2 0x2347 JUMP JUMPDEST DUP3 ADD SWAP2 SWAP1 PUSH0 MSTORE PUSH1 0x20 PUSH0 KECCAK256 SWAP1 JUMPDEST DUP2 SLOAD DUP2 MSTORE SWAP1 PUSH1 0x1 ADD SWAP1 PUSH1 0x20 ADD DUP1 DUP4 GT PUSH2 0x232A JUMPI DUP3 SWAP1 SUB PUSH1 0x1F AND DUP3 ADD SWAP2 JUMPDEST POP POP POP POP POP SWAP1 DUP1 PUSH1 0x9 ADD SLOAD SWAP1 DUP1 PUSH1 0xA ADD SLOAD SWAP1 DUP1 PUSH1 0xB ADD PUSH0 SWAP1 SLOAD SWAP1 PUSH2 0x100 EXP SWAP1 DIV PUSH1 0xFF AND SWAP1 POP DUP13 JUMP JUMPDEST PUSH1 0x7 PUSH1 0x20 MSTORE DUP2 PUSH0 MSTORE PUSH1 0x40 PUSH0 KECCAK256 DUP2 DUP2 SLOAD DUP2 LT PUSH2 0x2388 JUMPI PUSH0 DUP1 REVERT JUMPDEST SWAP1 PUSH0 MSTORE PUSH1 0x20 PUSH0 KECCAK256 ADD PUSH0 SWAP2 POP SWAP2 POP POP SLOAD DUP2 JUMP JUMPDEST PUSH1 0x60 PUSH1 0x5 PUSH0 DUP4 PUSH20 0xFFFFFFFFFFFFFFFFFFFFFFFFFFFFFFFFFFFFFFFF AND PUSH20 0xFFFFFFFFFFFFFFFFFFFFFFFFFFFFFFFFFFFFFFFF AND DUP2 MSTORE PUSH1 0x20 ADD SWAP1 DUP2 MSTORE PUSH1 0x20 ADD PUSH0 KECCAK256 DUP1 SLOAD DUP1 PUSH1 0x20 MUL PUSH1 0x20 ADD PUSH1 0x40 MLOAD SWAP1 DUP2 ADD PUSH1 0x40 MSTORE DUP1 SWAP3 SWAP2 SWAP1 DUP2 DUP2 MSTORE PUSH1 0x20 ADD DUP3 DUP1 SLOAD DUP1 ISZERO PUSH2 0x2421 JUMPI PUSH1 0x20 MUL DUP3 ADD SWAP2 SWAP1 PUSH0 MSTORE PUSH1 0x20 PUSH0 KECCAK256 SWAP1 JUMPDEST DUP2 SLOAD DUP2 MSTORE PUSH1 0x20 ADD SWAP1 PUSH1 0x1 ADD SWAP1 DUP1 DUP4 GT PUSH2 0x240D JUMPI JUMPDEST POP POP POP POP POP SWAP1 POP SWAP2 SWAP1 POP JUMP JUMPDEST PUSH1 0x6 PUSH1 0x20 MSTORE DUP2 PUSH0 MSTORE PUSH1 0x40 PUSH0 KECCAK256 DUP2 DUP2 SLOAD DUP2 LT PUSH2 0x2446 JUMPI PUSH0 DUP1 REVERT JUMPDEST SWAP1 PUSH0 MSTORE PUSH1 0x20 PUSH0 KECCAK256 ADD PUSH0 SWAP2 POP SWAP2 POP POP SLOAD DUP2 JUMP JUMPDEST PUSH0 PUSH0 SWAP1 SLOAD SWAP1 PUSH2 0x100 EXP SWAP1 DIV PUSH20 0xFFFFFFFFFFFFFFFFFFFFFFFFFFFFFFFFFFFFFFFF AND PUSH20 0xFFFFFFFFFFFFFFFFFFFFFFFFFFFFFFFFFFFFFFFF AND CALLER PUSH20 0xFFFFFFFFFFFFFFFFFFFFFFFFFFFFFFFFFFFFFFFF AND EQ PUSH2 0x24E8 JUMPI CALLER PUSH1 0x40 MLOAD PUSH32 0x8E4A23D600000000000000000000000000000000000000000000000000000000 DUP2 MSTORE PUSH1 0x4 ADD PUSH2 0x24DF SWAP2 SWAP1 PUSH2 0x4512 JUMP JUMPDEST PUSH1 0x40 MLOAD DUP1 SWAP2 SUB SWAP1 REVERT JUMPDEST PUSH1 0xA DUP2 GT ISZERO PUSH2 0x2523 JUMPI PUSH1 0x40 MLOAD PUSH32 0x1F3B85D300000000000000000000000000000000000000000000000000000000 DUP2 MSTORE PUSH1 0x4 ADD PUSH1 0x40 MLOAD DUP1 SWAP2 SUB SWAP1 REVERT JUMPDEST DUP1 PUSH1 0x1 DUP2 SWAP1 SSTORE POP POP JUMP JUMPDEST PUSH0 PUSH0 PUSH20 0xFFFFFFFFFFFFFFFFFFFFFFFFFFFFFFFFFFFFFFFF AND PUSH1 0x9 PUSH0 SWAP1 SLOAD SWAP1 PUSH2 0x100 EXP SWAP1 DIV PUSH20 0xFFFFFFFFFFFFFFFFFFFFFFFFFFFFFFFFFFFFFFFF AND PUSH20 0xFFFFFFFFFFFFFFFFFFFFFFFFFFFFFFFFFFFFFFFF AND SUB PUSH2 0x258A JUMPI PUSH0 SWAP1 POP PUSH2 0x2626 JUMP JUMPDEST PUSH1 0x9 PUSH0 SWAP1 SLOAD SWAP1 PUSH2 0x100 EXP SWAP1 DIV PUSH20 0xFFFFFFFFFFFFFFFFFFFFFFFFFFFFFFFFFFFFFFFF AND PUSH20 0xFFFFFFFFFFFFFFFFFFFFFFFFFFFFFFFFFFFFFFFF AND PUSH4 0xACE417E0 DUP4 PUSH1 0x40 MLOAD DUP3 PUSH4 0xFFFFFFFF AND PUSH1 0xE0 SHL DUP2 MSTORE PUSH1 0x4 ADD PUSH2 0x25E4 SWAP2 SWAP1 PUSH2 0x4512 JUMP JUMPDEST PUSH1 0x20 PUSH1 0x40 MLOAD DUP1 DUP4 SUB DUP2 DUP7 GAS STATICCALL ISZERO DUP1 ISZERO PUSH2 0x25FF JUMPI RETURNDATASIZE PUSH0 PUSH0 RETURNDATACOPY RETURNDATASIZE PUSH0 REVERT JUMPDEST POP POP POP POP PUSH1 0x40 MLOAD RETURNDATASIZE PUSH1 0x1F NOT PUSH1 0x1F DUP3 ADD AND DUP3 ADD DUP1 PUSH1 0x40 MSTORE POP DUP2 ADD SWAP1 PUSH2 0x2623 SWAP2 SWAP1 PUSH2 0x4A3C JUMP JUMPDEST SWAP1 POP JUMPDEST SWAP2 SWAP1 POP JUMP JUMPDEST PUSH0 PUSH0 SWAP1 SLOAD SWAP1 PUSH2 0x100 EXP SWAP1 DIV PUSH20 0xFFFFFFFFFFFFFFFFFFFFFFFFFFFFFFFFFFFFFFFF AND PUSH20 0xFFFFFFFFFFFFFFFFFFFFFFFFFFFFFFFFFFFFFFFF AND CALLER PUSH20 0xFFFFFFFFFFFFFFFFFFFFFFFFFFFFFFFFFFFFFFFF AND EQ PUSH2 0x26BB JUMPI CALLER PUSH1 0x40 MLOAD PUSH32 0x8E4A23D600000000000000000000000000000000000000000000000000000000 DUP2 MSTORE PUSH1 0x4 ADD PUSH2 0x26B2 SWAP2 SWAP1 PUSH2 0x4512 JUMP JUMPDEST PUSH1 0x40 MLOAD DUP1 SWAP2 SUB SWAP1 REVERT JUMPDEST DUP1 PUSH1 0x9 PUSH0 PUSH2 0x100 EXP DUP2 SLOAD DUP2 PUSH20 0xFFFFFFFFFFFFFFFFFFFFFFFFFFFFFFFFFFFFFFFF MUL NOT AND SWAP1 DUP4 PUSH20 0xFFFFFFFFFFFFFFFFFFFFFFFFFFFFFFFFFFFFFFFF AND MUL OR SWAP1 SSTORE POP POP JUMP JUMPDEST DUP2 PUSH1 0x2 SLOAD DUP2 LT PUSH2 0x2745 JUMPI DUP1 PUSH1 0x40 MLOAD PUSH32 0xEE9FFCB700000000000000000000000000000000000000000000000000000000 DUP2 MSTORE PUSH1 0x4 ADD PUSH2 0x273C SWAP2 SWAP1 PUSH2 0x4151 JUMP JUMPDEST PUSH1 0x40 MLOAD DUP1 SWAP2 SUB SWAP1 REVERT JUMPDEST DUP3 CALLER PUSH20 0xFFFFFFFFFFFFFFFFFFFFFFFFFFFFFFFFFFFFFFFF AND PUSH1 0x4 PUSH0 DUP4 DUP2 MSTORE PUSH1 0x20 ADD SWAP1 DUP2 MSTORE PUSH1 0x20 ADD PUSH0 KECCAK256 PUSH1 0x1 ADD PUSH0 SWAP1 SLOAD SWAP1 PUSH2 0x100 EXP SWAP1 DIV PUSH20 0xFFFFFFFFFFFFFFFFFFFFFFFFFFFFFFFFFFFFFFFF AND PUSH20 0xFFFFFFFFFFFFFFFFFFFFFFFFFFFFFFFFFFFFFFFF AND EQ PUSH2 0x27E9 JUMPI CALLER PUSH1 0x40 MLOAD PUSH32 0x8E4A23D600000000000000000000000000000000000000000000000000000000 DUP2 MSTORE PUSH1 0x4 ADD PUSH2 0x27E0 SWAP2 SWAP1 PUSH2 0x4512 JUMP JUMPDEST PUSH1 0x40 MLOAD DUP1 SWAP2 SUB SWAP1 REVERT JUMPDEST PUSH0 PUSH20 0xFFFFFFFFFFFFFFFFFFFFFFFFFFFFFFFFFFFFFFFF AND DUP4 PUSH20 0xFFFFFFFFFFFFFFFFFFFFFFFFFFFFFFFFFFFFFFFF AND SUB PUSH2 0x284E JUMPI PUSH1 0x40 MLOAD PUSH32 0xE6C4247B00000000000000000000000000000000000000000000000000000000 DUP2 MSTORE PUSH1 0x4 ADD PUSH1 0x40 MLOAD DUP1 SWAP2 SUB SWAP1 REVERT JUMPDEST PUSH0 PUSH1 0x4 PUSH0 DUP7 DUP2 MSTORE PUSH1 0x20 ADD SWAP1 DUP2 MSTORE PUSH1 0x20 ADD PUSH0 KECCAK256 SWAP1 POP PUSH0 PUSH1 0x5 DUP2 GT ISZERO PUSH2 0x2875 JUMPI PUSH2 0x2874 PUSH2 0x452B JUMP JUMPDEST JUMPDEST DUP2 PUSH1 0x6 ADD PUSH0 SWAP1 SLOAD SWAP1 PUSH2 0x100 EXP SWAP1 DIV PUSH1 0xFF AND PUSH1 0x5 DUP2 GT ISZERO PUSH2 0x2898 JUMPI PUSH2 0x2897 PUSH2 0x452B JUMP JUMPDEST JUMPDEST EQ PUSH2 0x28EC JUMPI DUP1 PUSH1 0x6 ADD PUSH0 SWAP1 SLOAD SWAP1 PUSH2 0x100 EXP SWAP1 DIV PUSH1 0xFF AND PUSH0 PUSH1 0x40 MLOAD PUSH32 0xF924664D00000000000000000000000000000000000000000000000000000000 DUP2 MSTORE PUSH1 0x4 ADD PUSH2 0x28E3 SWAP3 SWAP2 SWAP1 PUSH2 0x4885 JUMP JUMPDEST PUSH1 0x40 MLOAD DUP1 SWAP2 SUB SWAP1 REVERT JUMPDEST PUSH0 DUP2 PUSH1 0x2 ADD PUSH0 SWAP1 SLOAD SWAP1 PUSH2 0x100 EXP SWAP1 DIV PUSH20 0xFFFFFFFFFFFFFFFFFFFFFFFFFFFFFFFFFFFFFFFF AND SWAP1 POP DUP5 DUP3 PUSH1 0x2 ADD PUSH0 PUSH2 0x100 EXP DUP2 SLOAD DUP2 PUSH20 0xFFFFFFFFFFFFFFFFFFFFFFFFFFFFFFFFFFFFFFFF MUL NOT AND SWAP1 DUP4 PUSH20 0xFFFFFFFFFFFFFFFFFFFFFFFFFFFFFFFFFFFFFFFF AND MUL OR SWAP1 SSTORE POP DUP6 PUSH32 0xEB42F80D8691A4932E59D407B00ED90F3816304690706E7AF5182E0CB3DCBD17 DUP3 DUP8 PUSH1 0x40 MLOAD PUSH2 0x2987 SWAP3 SWAP2 SWAP1 PUSH2 0x4DDA JUMP JUMPDEST PUSH1 0x40 MLOAD DUP1 SWAP2 SUB SWAP1 LOG2 POP POP POP POP POP POP JUMP JUMPDEST PUSH0 PUSH0 PUSH0 PUSH0 PUSH0 PUSH0 PUSH0 DUP8 PUSH1 0x2 SLOAD DUP2 LT PUSH2 0x29E5 JUMPI DUP1 PUSH1 0x40 MLOAD PUSH32 0xEE9FFCB700000000000000000000000000000000000000000000000000000000 DUP2 MSTORE PUSH1 0x4 ADD PUSH2 0x29DC SWAP2 SWAP1 PUSH2 0x4151 JUMP JUMPDEST PUSH1 0x40 MLOAD DUP1 SWAP2 SUB SWAP1 REVERT JUMPDEST PUSH0 PUSH1 0x4 PUSH0 DUP12 DUP2 MSTORE PUSH1 0x20 ADD SWAP1 DUP2 MSTORE PUSH1 0x20 ADD PUSH0 KECCAK256 PUSH1 0x40 MLOAD DUP1 PUSH2 0x180 ADD PUSH1 0x40 MSTORE SWAP1 DUP2 PUSH0 DUP3 ADD SLOAD DUP2 MSTORE PUSH1 0x20 ADD PUSH1 0x1 DUP3 ADD PUSH0 SWAP1 SLOAD SWAP1 PUSH2 0x100 EXP SWAP1 DIV PUSH20 0xFFFFFFFFFFFFFFFFFFFFFFFFFFFFFFFFFFFFFFFF AND PUSH20 0xFFFFFFFFFFFFFFFFFFFFFFFFFFFFFFFFFFFFFFFF AND PUSH20 0xFFFFFFFFFFFFFFFFFFFFFFFFFFFFFFFFFFFFFFFF AND DUP2 MSTORE PUSH1 0x20 ADD PUSH1 0x2 DUP3 ADD PUSH0 SWAP1 SLOAD SWAP1 PUSH2 0x100 EXP SWAP1 DIV PUSH20 0xFFFFFFFFFFFFFFFFFFFFFFFFFFFFFFFFFFFFFFFF AND PUSH20 0xFFFFFFFFFFFFFFFFFFFFFFFFFFFFFFFFFFFFFFFF AND PUSH20 0xFFFFFFFFFFFFFFFFFFFFFFFFFFFFFFFFFFFFFFFF AND DUP2 MSTORE PUSH1 0x20 ADD PUSH1 0x3 DUP3 ADD PUSH0 SWAP1 SLOAD SWAP1 PUSH2 0x100 EXP SWAP1 DIV PUSH20 0xFFFFFFFFFFFFFFFFFFFFFFFFFFFFFFFFFFFFFFFF AND PUSH20 0xFFFFFFFFFFFFFFFFFFFFFFFFFFFFFFFFFFFFFFFF AND PUSH20 0xFFFFFFFFFFFFFFFFFFFFFFFFFFFFFFFFFFFFFFFF AND DUP2 MSTORE PUSH1 0x20 ADD PUSH1 0x4 DUP3 ADD SLOAD DUP2 MSTORE PUSH1 0x20 ADD PUSH1 0x5 DUP3 ADD SLOAD DUP2 MSTORE PUSH1 0x20 ADD PUSH1 0x6 DUP3 ADD PUSH0 SWAP1 SLOAD SWAP1 PUSH2 0x100 EXP SWAP1 DIV PUSH1 0xFF AND PUSH1 0x5 DUP2 GT ISZERO PUSH2 0x2B43 JUMPI PUSH2 0x2B42 PUSH2 0x452B JUMP JUMPDEST JUMPDEST PUSH1 0x5 DUP2 GT ISZERO PUSH2 0x2B55 JUMPI PUSH2 0x2B54 PUSH2 0x452B JUMP JUMPDEST JUMPDEST DUP2 MSTORE PUSH1 0x20 ADD PUSH1 0x7 DUP3 ADD DUP1 SLOAD PUSH2 0x2B69 SWAP1 PUSH2 0x4AD1 JUMP JUMPDEST DUP1 PUSH1 0x1F ADD PUSH1 0x20 DUP1 SWAP2 DIV MUL PUSH1 0x20 ADD PUSH1 0x40 MLOAD SWAP1 DUP2 ADD PUSH1 0x40 MSTORE DUP1 SWAP3 SWAP2 SWAP1 DUP2 DUP2 MSTORE PUSH1 0x20 ADD DUP3 DUP1 SLOAD PUSH2 0x2B95 SWAP1 PUSH2 0x4AD1 JUMP JUMPDEST DUP1 ISZERO PUSH2 0x2BE0 JUMPI DUP1 PUSH1 0x1F LT PUSH2 0x2BB7 JUMPI PUSH2 0x100 DUP1 DUP4 SLOAD DIV MUL DUP4 MSTORE SWAP2 PUSH1 0x20 ADD SWAP2 PUSH2 0x2BE0 JUMP JUMPDEST DUP3 ADD SWAP2 SWAP1 PUSH0 MSTORE PUSH1 0x20 PUSH0 KECCAK256 SWAP1 JUMPDEST DUP2 SLOAD DUP2 MSTORE SWAP1 PUSH1 0x1 ADD SWAP1 PUSH1 0x20 ADD DUP1 DUP4 GT PUSH2 0x2BC3 JUMPI DUP3 SWAP1 SUB PUSH1 0x1F AND DUP3 ADD SWAP2 JUMPDEST POP POP POP POP POP DUP2 MSTORE PUSH1 0x20 ADD PUSH1 0x8 DUP3 ADD DUP1 SLOAD PUSH2 0x2BF9 SWAP1 PUSH2 0x4AD1 JUMP JUMPDEST DUP1 PUSH1 0x1F ADD PUSH1 0x20 DUP1 SWAP2 DIV MUL PUSH1 0x20 ADD PUSH1 0x40 MLOAD SWAP1 DUP2 ADD PUSH1 0x40 MSTORE DUP1 SWAP3 SWAP2 SWAP1 DUP2 DUP2 MSTORE PUSH1 0x20 ADD DUP3 DUP1 SLOAD PUSH2 0x2C25 SWAP1 PUSH2 0x4AD1 JUMP JUMPDEST DUP1 ISZERO PUSH2 0x2C70 JUMPI DUP1 PUSH1 0x1F LT PUSH2 0x2C47 JUMPI PUSH2 0x100 DUP1 DUP4 SLOAD DIV MUL DUP4 MSTORE SWAP2 PUSH1 0x20 ADD SWAP2 PUSH2 0x2C70 JUMP JUMPDEST DUP3 ADD SWAP2 SWAP1 PUSH0 MSTORE PUSH1 0x20 PUSH0 KECCAK256 SWAP1 JUMPDEST DUP2 SLOAD DUP2 MSTORE SWAP1 PUSH1 0x1 ADD SWAP1 PUSH1 0x20 ADD DUP1 DUP4 GT PUSH2 0x2C53 JUMPI DUP3 SWAP1 SUB PUSH1 0x1F AND DUP3 ADD SWAP2 JUMPDEST POP POP POP POP POP DUP2 MSTORE PUSH1 0x20 ADD PUSH1 0x9 DUP3 ADD SLOAD DUP2 MSTORE PUSH1 0x20 ADD PUSH1 0xA DUP3 ADD SLOAD DUP2 MSTORE PUSH1 0x20 ADD PUSH1 0xB DUP3 ADD PUSH0 SWAP1 SLOAD SWAP1 PUSH2 0x100 EXP SWAP1 DIV PUSH1 0xFF AND ISZERO ISZERO ISZERO ISZERO DUP2 MSTORE POP POP SWAP1 POP PUSH0 PUSH1 0x1 PUSH1 0x5 DUP2 GT ISZERO PUSH2 0x2CBE JUMPI PUSH2 0x2CBD PUSH2 0x452B JUMP JUMPDEST JUMPDEST DUP3 PUSH1 0xC0 ADD MLOAD PUSH1 0x5 DUP2 GT ISZERO PUSH2 0x2CD5 JUMPI PUSH2 0x2CD4 PUSH2 0x452B JUMP JUMPDEST JUMPDEST EQ DUP1 ISZERO PUSH2 0x2CE6 JUMPI POP DUP2 PUSH1 0xA0 ADD MLOAD TIMESTAMP LT ISZERO JUMPDEST SWAP1 POP PUSH0 TIMESTAMP DUP4 PUSH1 0xA0 ADD MLOAD GT PUSH2 0x2CFA JUMPI PUSH0 PUSH2 0x2D0B JUMP JUMPDEST TIMESTAMP DUP4 PUSH1 0xA0 ADD MLOAD PUSH2 0x2D0A SWAP2 SWAP1 PUSH2 0x4977 JUMP JUMPDEST JUMPDEST SWAP1 POP DUP3 PUSH1 0xC0 ADD MLOAD PUSH0 DUP5 PUSH1 0x80 ADD MLOAD GT PUSH1 0x2 PUSH1 0x5 DUP2 GT ISZERO PUSH2 0x2D2D JUMPI PUSH2 0x2D2C PUSH2 0x452B JUMP JUMPDEST JUMPDEST DUP6 PUSH1 0xC0 ADD MLOAD PUSH1 0x5 DUP2 GT ISZERO PUSH2 0x2D44 JUMPI PUSH2 0x2D43 PUSH2 0x452B JUMP JUMPDEST JUMPDEST EQ DUP1 PUSH2 0x2D78 JUMPI POP PUSH1 0x3 PUSH1 0x5 DUP2 GT ISZERO PUSH2 0x2D5F JUMPI PUSH2 0x2D5E PUSH2 0x452B JUMP JUMPDEST JUMPDEST DUP6 PUSH1 0xC0 ADD MLOAD PUSH1 0x5 DUP2 GT ISZERO PUSH2 0x2D76 JUMPI PUSH2 0x2D75 PUSH2 0x452B JUMP JUMPDEST JUMPDEST EQ JUMPDEST PUSH1 0x3 PUSH1 0x5 DUP2 GT ISZERO PUSH2 0x2D8C JUMPI PUSH2 0x2D8B PUSH2 0x452B JUMP JUMPDEST JUMPDEST DUP7 PUSH1 0xC0 ADD MLOAD PUSH1 0x5 DUP2 GT ISZERO PUSH2 0x2DA3 JUMPI PUSH2 0x2DA2 PUSH2 0x452B JUMP JUMPDEST JUMPDEST EQ DUP7 PUSH2 0x160 ADD MLOAD DUP7 DUP7 SWAP11 POP SWAP11 POP SWAP11 POP SWAP11 POP SWAP11 POP SWAP11 POP SWAP11 POP POP POP POP POP SWAP2 SWAP4 SWAP6 SWAP8 SWAP1 SWAP3 SWAP5 SWAP7 POP JUMP JUMPDEST PUSH0 PUSH0 PUSH0 PUSH0 PUSH0 PUSH0 PUSH1 0x60 DUP1 PUSH0 PUSH0 PUSH0 DUP12 PUSH1 0x2 SLOAD DUP2 LT PUSH2 0x2E1C JUMPI DUP1 PUSH1 0x40 MLOAD PUSH32 0xEE9FFCB700000000000000000000000000000000000000000000000000000000 DUP2 MSTORE PUSH1 0x4 ADD PUSH2 0x2E13 SWAP2 SWAP1 PUSH2 0x4151 JUMP JUMPDEST PUSH1 0x40 MLOAD DUP1 SWAP2 SUB SWAP1 REVERT JUMPDEST PUSH0 PUSH1 0x4 PUSH0 DUP16 DUP2 MSTORE PUSH1 0x20 ADD SWAP1 DUP2 MSTORE PUSH1 0x20 ADD PUSH0 KECCAK256 PUSH1 0x40 MLOAD DUP1 PUSH2 0x180 ADD PUSH1 0x40 MSTORE SWAP1 DUP2 PUSH0 DUP3 ADD SLOAD DUP2 MSTORE PUSH1 0x20 ADD PUSH1 0x1 DUP3 ADD PUSH0 SWAP1 SLOAD SWAP1 PUSH2 0x100 EXP SWAP1 DIV PUSH20 0xFFFFFFFFFFFFFFFFFFFFFFFFFFFFFFFFFFFFFFFF AND PUSH20 0xFFFFFFFFFFFFFFFFFFFFFFFFFFFFFFFFFFFFFFFF AND PUSH20 0xFFFFFFFFFFFFFFFFFFFFFFFFFFFFFFFFFFFFFFFF AND DUP2 MSTORE PUSH1 0x20 ADD PUSH1 0x2 DUP3 ADD PUSH0 SWAP1 SLOAD SWAP1 PUSH2 0x100 EXP SWAP1 DIV PUSH20 0xFFFFFFFFFFFFFFFFFFFFFFFFFFFFFFFFFFFFFFFF AND PUSH20 0xFFFFFFFFFFFFFFFFFFFFFFFFFFFFFFFFFFFFFFFF AND PUSH20 0xFFFFFFFFFFFFFFFFFFFFFFFFFFFFFFFFFFFFFFFF AND DUP2 MSTORE PUSH1 0x20 ADD PUSH1 0x3 DUP3 ADD PUSH0 SWAP1 SLOAD SWAP1 PUSH2 0x100 EXP SWAP1 DIV PUSH20 0xFFFFFFFFFFFFFFFFFFFFFFFFFFFFFFFFFFFFFFFF AND PUSH20 0xFFFFFFFFFFFFFFFFFFFFFFFFFFFFFFFFFFFFFFFF AND PUSH20 0xFFFFFFFFFFFFFFFFFFFFFFFFFFFFFFFFFFFFFFFF AND DUP2 MSTORE PUSH1 0x20 ADD PUSH1 0x4 DUP3 ADD SLOAD DUP2 MSTORE PUSH1 0x20 ADD PUSH1 0x5 DUP3 ADD SLOAD DUP2 MSTORE PUSH1 0x20 ADD PUSH1 0x6 DUP3 ADD PUSH0 SWAP1 SLOAD SWAP1 PUSH2 0x100 EXP SWAP1 DIV PUSH1 0xFF AND PUSH1 0x5 DUP2 GT ISZERO PUSH2 0x2F7A JUMPI PUSH2 0x2F79 PUSH2 0x452B JUMP JUMPDEST JUMPDEST PUSH1 0x5 DUP2 GT ISZERO PUSH2 0x2F8C JUMPI PUSH2 0x2F8B PUSH2 0x452B JUMP JUMPDEST JUMPDEST DUP2 MSTORE PUSH1 0x20 ADD PUSH1 0x7 DUP3 ADD DUP1 SLOAD PUSH2 0x2FA0 SWAP1 PUSH2 0x4AD1 JUMP JUMPDEST DUP1 PUSH1 0x1F ADD PUSH1 0x20 DUP1 SWAP2 DIV MUL PUSH1 0x20 ADD PUSH1 0x40 MLOAD SWAP1 DUP2 ADD PUSH1 0x40 MSTORE DUP1 SWAP3 SWAP2 SWAP1 DUP2 DUP2 MSTORE PUSH1 0x20 ADD DUP3 DUP1 SLOAD PUSH2 0x2FCC SWAP1 PUSH2 0x4AD1 JUMP JUMPDEST DUP1 ISZERO PUSH2 0x3017 JUMPI DUP1 PUSH1 0x1F LT PUSH2 0x2FEE JUMPI PUSH2 0x100 DUP1 DUP4 SLOAD DIV MUL DUP4 MSTORE SWAP2 PUSH1 0x20 ADD SWAP2 PUSH2 0x3017 JUMP JUMPDEST DUP3 ADD SWAP2 SWAP1 PUSH0 MSTORE PUSH1 0x20 PUSH0 KECCAK256 SWAP1 JUMPDEST DUP2 SLOAD DUP2 MSTORE SWAP1 PUSH1 0x1 ADD SWAP1 PUSH1 0x20 ADD DUP1 DUP4 GT PUSH2 0x2FFA JUMPI DUP3 SWAP1 SUB PUSH1 0x1F AND DUP3 ADD SWAP2 JUMPDEST POP POP POP POP POP DUP2 MSTORE PUSH1 0x20 ADD PUSH1 0x8 DUP3 ADD DUP1 SLOAD PUSH2 0x3030 SWAP1 PUSH2 0x4AD1 JUMP JUMPDEST DUP1 PUSH1 0x1F ADD PUSH1 0x20 DUP1 SWAP2 DIV MUL PUSH1 0x20 ADD PUSH1 0x40 MLOAD SWAP1 DUP2 ADD PUSH1 0x40 MSTORE DUP1 SWAP3 SWAP2 SWAP1 DUP2 DUP2 MSTORE PUSH1 0x20 ADD DUP3 DUP1 SLOAD PUSH2 0x305C SWAP1 PUSH2 0x4AD1 JUMP JUMPDEST DUP1 ISZERO PUSH2 0x30A7 JUMPI DUP1 PUSH1 0x1F LT PUSH2 0x307E JUMPI PUSH2 0x100 DUP1 DUP4 SLOAD DIV MUL DUP4 MSTORE SWAP2 PUSH1 0x20 ADD SWAP2 PUSH2 0x30A7 JUMP JUMPDEST DUP3 ADD SWAP2 SWAP1 PUSH0 MSTORE PUSH1 0x20 PUSH0 KECCAK256 SWAP1 JUMPDEST DUP2 SLOAD DUP2 MSTORE SWAP1 PUSH1 0x1 ADD SWAP1 PUSH1 0x20 ADD DUP1 DUP4 GT PUSH2 0x308A JUMPI DUP3 SWAP1 SUB PUSH1 0x1F AND DUP3 ADD SWAP2 JUMPDEST POP POP POP POP POP DUP2 MSTORE PUSH1 0x20 ADD PUSH1 0x9 DUP3 ADD SLOAD DUP2 MSTORE PUSH1 0x20 ADD PUSH1 0xA DUP3 ADD SLOAD DUP2 MSTORE PUSH1 0x20 ADD PUSH1 0xB DUP3 ADD PUSH0 SWAP1 SLOAD SWAP1 PUSH2 0x100 EXP SWAP1 DIV PUSH1 0xFF AND ISZERO ISZERO ISZERO ISZERO DUP2 MSTORE POP POP SWAP1 POP DUP1 PUSH1 0x20 ADD MLOAD DUP2 PUSH1 0x40 ADD MLOAD DUP3 PUSH1 0x60 ADD MLOAD DUP4 PUSH1 0x80 ADD MLOAD DUP5 PUSH1 0xA0 ADD MLOAD DUP6 PUSH1 0xC0 ADD MLOAD DUP7 PUSH1 0xE0 ADD MLOAD DUP8 PUSH2 0x100 ADD MLOAD DUP9 PUSH2 0x120 ADD MLOAD DUP10 PUSH2 0x140 ADD MLOAD DUP11 PUSH2 0x160 ADD MLOAD SWAP13 POP SWAP13 POP SWAP13 POP SWAP13 POP SWAP13 POP SWAP13 POP SWAP13 POP SWAP13 POP SWAP13 POP SWAP13 POP SWAP13 POP POP POP SWAP2 SWAP4 SWAP6 SWAP8 SWAP10 SWAP12 SWAP1 SWAP3 SWAP5 SWAP7 SWAP9 SWAP11 POP JUMP JUMPDEST PUSH1 0x1 SLOAD DUP2 JUMP JUMPDEST PUSH0 PUSH0 SWAP1 SLOAD SWAP1 PUSH2 0x100 EXP SWAP1 DIV PUSH20 0xFFFFFFFFFFFFFFFFFFFFFFFFFFFFFFFFFFFFFFFF AND PUSH20 0xFFFFFFFFFFFFFFFFFFFFFFFFFFFFFFFFFFFFFFFF AND CALLER PUSH20 0xFFFFFFFFFFFFFFFFFFFFFFFFFFFFFFFFFFFFFFFF AND EQ PUSH2 0x31D8 JUMPI CALLER PUSH1 0x40 MLOAD PUSH32 0x8E4A23D600000000000000000000000000000000000000000000000000000000 DUP2 MSTORE PUSH1 0x4 ADD PUSH2 0x31CF SWAP2 SWAP1 PUSH2 0x4512 JUMP JUMPDEST PUSH1 0x40 MLOAD DUP1 SWAP2 SUB SWAP1 REVERT JUMPDEST DUP2 PUSH1 0x2 SLOAD DUP2 LT PUSH2 0x321F JUMPI DUP1 PUSH1 0x40 MLOAD PUSH32 0xEE9FFCB700000000000000000000000000000000000000000000000000000000 DUP2 MSTORE PUSH1 0x4 ADD PUSH2 0x3216 SWAP2 SWAP1 PUSH2 0x4151 JUMP JUMPDEST PUSH1 0x40 MLOAD DUP1 SWAP2 SUB SWAP1 REVERT JUMPDEST PUSH1 0x1 PUSH1 0x8 SLOAD EQ PUSH2 0x325B JUMPI PUSH1 0x40 MLOAD PUSH32 0xC5F2BE5100000000000000000000000000000000000000000000000000000000 DUP2 MSTORE PUSH1 0x4 ADD PUSH1 0x40 MLOAD DUP1 SWAP2 SUB SWAP1 REVERT JUMPDEST PUSH1 0x2 PUSH1 0x8 DUP2 SWAP1 SSTORE POP PUSH0 PUSH1 0x4 PUSH0 DUP6 DUP2 MSTORE PUSH1 0x20 ADD SWAP1 DUP2 MSTORE PUSH1 0x20 ADD PUSH0 KECCAK256 SWAP1 POP PUSH1 0x5 DUP1 DUP2 GT ISZERO PUSH2 0x328A JUMPI PUSH2 0x3289 PUSH2 0x452B JUMP JUMPDEST JUMPDEST DUP2 PUSH1 0x6 ADD PUSH0 SWAP1 SLOAD SWAP1 PUSH2 0x100 EXP SWAP1 DIV PUSH1 0xFF AND PUSH1 0x5 DUP2 GT ISZERO PUSH2 0x32AD JUMPI PUSH2 0x32AC PUSH2 0x452B JUMP JUMPDEST JUMPDEST EQ PUSH2 0x3302 JUMPI DUP1 PUSH1 0x6 ADD PUSH0 SWAP1 SLOAD SWAP1 PUSH2 0x100 EXP SWAP1 DIV PUSH1 0xFF AND PUSH1 0x5 PUSH1 0x40 MLOAD PUSH32 0xF924664D00000000000000000000000000000000000000000000000000000000 DUP2 MSTORE PUSH1 0x4 ADD PUSH2 0x32F9 SWAP3 SWAP2 SWAP1 PUSH2 0x4885 JUMP JUMPDEST PUSH1 0x40 MLOAD DUP1 SWAP2 SUB SWAP1 REVERT JUMPDEST PUSH1 0x64 DUP4 PUSH1 0xFF AND GT ISZERO PUSH2 0x3340 JUMPI PUSH1 0x40 MLOAD PUSH32 0x1F3B85D300000000000000000000000000000000000000000000000000000000 DUP2 MSTORE PUSH1 0x4 ADD PUSH1 0x40 MLOAD DUP1 SWAP2 SUB SWAP1 REVERT JUMPDEST PUSH0 DUP2 PUSH1 0x4 ADD SLOAD SWAP1 POP PUSH0 PUSH1 0x64 DUP6 PUSH1 0xFF AND DUP4 PUSH2 0x335A SWAP2 SWAP1 PUSH2 0x48D9 JUMP JUMPDEST PUSH2 0x3364 SWAP2 SWAP1 PUSH2 0x4947 JUMP JUMPDEST SWAP1 POP PUSH0 DUP2 DUP4 PUSH2 0x3373 SWAP2 SWAP1 PUSH2 0x4977 JUMP JUMPDEST SWAP1 POP PUSH1 0x3 DUP5 PUSH1 0x6 ADD PUSH0 PUSH2 0x100 EXP DUP2 SLOAD DUP2 PUSH1 0xFF MUL NOT AND SWAP1 DUP4 PUSH1 0x5 DUP2 GT ISZERO PUSH2 0x339C JUMPI PUSH2 0x339B PUSH2 0x452B JUMP JUMPDEST JUMPDEST MUL OR SWAP1 SSTORE POP TIMESTAMP DUP5 PUSH1 0xA ADD DUP2 SWAP1 SSTORE POP DUP3 PUSH1 0x3 PUSH0 DUP3 DUP3 SLOAD PUSH2 0x33BB SWAP2 SWAP1 PUSH2 0x4977 JUMP JUMPDEST SWAP3 POP POP DUP2 SWAP1 SSTORE POP PUSH0 DUP3 GT ISZERO PUSH2 0x348E JUMPI PUSH0 DUP5 PUSH1 0x2 ADD PUSH0 SWAP1 SLOAD SWAP1 PUSH2 0x100 EXP SWAP1 DIV PUSH20 0xFFFFFFFFFFFFFFFFFFFFFFFFFFFFFFFFFFFFFFFF AND PUSH20 0xFFFFFFFFFFFFFFFFFFFFFFFFFFFFFFFFFFFFFFFF AND DUP4 PUSH1 0x40 MLOAD PUSH2 0x3412 SWAP1 PUSH2 0x49D7 JUMP JUMPDEST PUSH0 PUSH1 0x40 MLOAD DUP1 DUP4 SUB DUP2 DUP6 DUP8 GAS CALL SWAP3 POP POP POP RETURNDATASIZE DUP1 PUSH0 DUP2 EQ PUSH2 0x344C JUMPI PUSH1 0x40 MLOAD SWAP2 POP PUSH1 0x1F NOT PUSH1 0x3F RETURNDATASIZE ADD AND DUP3 ADD PUSH1 0x40 MSTORE RETURNDATASIZE DUP3 MSTORE RETURNDATASIZE PUSH0 PUSH1 0x20 DUP5 ADD RETURNDATACOPY PUSH2 0x3451 JUMP JUMPDEST PUSH1 0x60 SWAP2 POP JUMPDEST POP POP SWAP1 POP DUP1 PUSH2 0x348C JUMPI PUSH1 0x40 MLOAD PUSH32 0x90B8EC1800000000000000000000000000000000000000000000000000000000 DUP2 MSTORE PUSH1 0x4 ADD PUSH1 0x40 MLOAD DUP1 SWAP2 SUB SWAP1 REVERT JUMPDEST POP JUMPDEST PUSH0 DUP2 GT ISZERO PUSH2 0x355A JUMPI PUSH0 DUP5 PUSH1 0x1 ADD PUSH0 SWAP1 SLOAD SWAP1 PUSH2 0x100 EXP SWAP1 DIV PUSH20 0xFFFFFFFFFFFFFFFFFFFFFFFFFFFFFFFFFFFFFFFF AND PUSH20 0xFFFFFFFFFFFFFFFFFFFFFFFFFFFFFFFFFFFFFFFF AND DUP3 PUSH1 0x40 MLOAD PUSH2 0x34DE SWAP1 PUSH2 0x49D7 JUMP JUMPDEST PUSH0 PUSH1 0x40 MLOAD DUP1 DUP4 SUB DUP2 DUP6 DUP8 GAS CALL SWAP3 POP POP POP RETURNDATASIZE DUP1 PUSH0 DUP2 EQ PUSH2 0x3518 JUMPI PUSH1 0x40 MLOAD SWAP2 POP PUSH1 0x1F NOT PUSH1 0x3F RETURNDATASIZE ADD AND DUP3 ADD PUSH1 0x40 MSTORE RETURNDATASIZE DUP3 MSTORE RETURNDATASIZE PUSH0 PUSH1 0x20 DUP5 ADD RETURNDATACOPY PUSH2 0x351D JUMP JUMPDEST PUSH1 0x60 SWAP2 POP JUMPDEST POP POP SWAP1 POP DUP1 PUSH2 0x3558 JUMPI PUSH1 0x40 MLOAD PUSH32 0x90B8EC1800000000000000000000000000000000000000000000000000000000 DUP2 MSTORE PUSH1 0x4 ADD PUSH1 0x40 MLOAD DUP1 SWAP2 SUB SWAP1 REVERT JUMPDEST POP JUMPDEST DUP7 PUSH32 0x3ACCDF79205B59D18E690F066707CAF6D0EE4D4F59DED4FA88FDEC5DDE4ACCD9 CALLER PUSH1 0x32 DUP10 PUSH1 0xFF AND GT DUP6 DUP6 PUSH1 0x40 MLOAD PUSH2 0x3596 SWAP5 SWAP4 SWAP3 SWAP2 SWAP1 PUSH2 0x4F8C JUMP JUMPDEST PUSH1 0x40 MLOAD DUP1 SWAP2 SUB SWAP1 LOG2 POP POP POP POP PUSH1 0x1 PUSH1 0x8 DUP2 SWAP1 SSTORE POP POP POP POP JUMP JUMPDEST DUP1 PUSH1 0x2 SLOAD DUP2 LT PUSH2 0x35F6 JUMPI DUP1 PUSH1 0x40 MLOAD PUSH32 0xEE9FFCB700000000000000000000000000000000000000000000000000000000 DUP2 MSTORE PUSH1 0x4 ADD PUSH2 0x35ED SWAP2 SWAP1 PUSH2 0x4151 JUMP JUMPDEST PUSH1 0x40 MLOAD DUP1 SWAP2 SUB SWAP1 REVERT JUMPDEST DUP2 CALLER PUSH20 0xFFFFFFFFFFFFFFFFFFFFFFFFFFFFFFFFFFFFFFFF AND PUSH1 0x4 PUSH0 DUP4 DUP2 MSTORE PUSH1 0x20 ADD SWAP1 DUP2 MSTORE PUSH1 0x20 ADD PUSH0 KECCAK256 PUSH1 0x1 ADD PUSH0 SWAP1 SLOAD SWAP1 PUSH2 0x100 EXP SWAP1 DIV PUSH20 0xFFFFFFFFFFFFFFFFFFFFFFFFFFFFFFFFFFFFFFFF AND PUSH20 0xFFFFFFFFFFFFFFFFFFFFFFFFFFFFFFFFFFFFFFFF AND EQ PUSH2 0x369A JUMPI CALLER PUSH1 0x40 MLOAD PUSH32 0x8E4A23D600000000000000000000000000000000000000000000000000000000 DUP2 MSTORE PUSH1 0x4 ADD PUSH2 0x3691 SWAP2 SWAP1 PUSH2 0x4512 JUMP JUMPDEST PUSH1 0x40 MLOAD DUP1 SWAP2 SUB SWAP1 REVERT JUMPDEST PUSH1 0x1 PUSH1 0x8 SLOAD EQ PUSH2 0x36D6 JUMPI PUSH1 0x40 MLOAD PUSH32 0xC5F2BE5100000000000000000000000000000000000000000000000000000000 DUP2 MSTORE PUSH1 0x4 ADD PUSH1 0x40 MLOAD DUP1 SWAP2 SUB SWAP1 REVERT JUMPDEST PUSH1 0x2 PUSH1 0x8 DUP2 SWAP1 SSTORE POP PUSH0 PUSH1 0x4 PUSH0 DUP6 DUP2 MSTORE PUSH1 0x20 ADD SWAP1 DUP2 MSTORE PUSH1 0x20 ADD PUSH0 KECCAK256 SWAP1 POP PUSH0 PUSH1 0x5 DUP2 GT ISZERO PUSH2 0x3705 JUMPI PUSH2 0x3704 PUSH2 0x452B JUMP JUMPDEST JUMPDEST DUP2 PUSH1 0x6 ADD PUSH0 SWAP1 SLOAD SWAP1 PUSH2 0x100 EXP SWAP1 DIV PUSH1 0xFF AND PUSH1 0x5 DUP2 GT ISZERO PUSH2 0x3728 JUMPI PUSH2 0x3727 PUSH2 0x452B JUMP JUMPDEST JUMPDEST EQ PUSH2 0x377C JUMPI DUP1 PUSH1 0x6 ADD PUSH0 SWAP1 SLOAD SWAP1 PUSH2 0x100 EXP SWAP1 DIV PUSH1 0xFF AND PUSH0 PUSH1 0x40 MLOAD PUSH32 0xF924664D00000000000000000000000000000000000000000000000000000000 DUP2 MSTORE PUSH1 0x4 ADD PUSH2 0x3773 SWAP3 SWAP2 SWAP1 PUSH2 0x4885 JUMP JUMPDEST PUSH1 0x40 MLOAD DUP1 SWAP2 SUB SWAP1 REVERT JUMPDEST PUSH0 CALLVALUE SUB PUSH2 0x37B5 JUMPI PUSH1 0x40 MLOAD PUSH32 0x2C5211C600000000000000000000000000000000000000000000000000000000 DUP2 MSTORE PUSH1 0x4 ADD PUSH1 0x40 MLOAD DUP1 SWAP2 SUB SWAP1 REVERT JUMPDEST PUSH0 DUP2 PUSH1 0x4 ADD SLOAD GT ISZERO PUSH2 0x37F3 JUMPI PUSH1 0x40 MLOAD PUSH32 0x5ADF638700000000000000000000000000000000000000000000000000000000 DUP2 MSTORE PUSH1 0x4 ADD PUSH1 0x40 MLOAD DUP1 SWAP2 SUB SWAP1 REVERT JUMPDEST CALLVALUE DUP2 PUSH1 0x4 ADD DUP2 SWAP1 SSTORE POP PUSH1 0x1 DUP2 PUSH1 0x6 ADD PUSH0 PUSH2 0x100 EXP DUP2 SLOAD DUP2 PUSH1 0xFF MUL NOT AND SWAP1 DUP4 PUSH1 0x5 DUP2 GT ISZERO PUSH2 0x3823 JUMPI PUSH2 0x3822 PUSH2 0x452B JUMP JUMPDEST JUMPDEST MUL OR SWAP1 SSTORE POP CALLVALUE PUSH1 0x3 PUSH0 DUP3 DUP3 SLOAD PUSH2 0x3839 SWAP2 SWAP1 PUSH2 0x4A67 JUMP JUMPDEST SWAP3 POP POP DUP2 SWAP1 SSTORE POP DUP4 PUSH32 0xF984C0F6B056FE16B28046E36FCAFA84A00D503F88F1D0AFA768E4C206192B80 CALLVALUE DUP4 PUSH1 0x5 ADD SLOAD PUSH1 0x40 MLOAD PUSH2 0x3876 SWAP3 SWAP2 SWAP1 PUSH2 0x49EB JUMP JUMPDEST PUSH1 0x40 MLOAD DUP1 SWAP2 SUB SWAP1 LOG2 POP PUSH1 0x1 PUSH1 0x8 DUP2 SWAP1 SSTORE POP POP POP POP JUMP JUMPDEST PUSH1 0x3 SLOAD DUP2 JUMP JUMPDEST PUSH1 0xA PUSH0 SWAP1 SLOAD SWAP1 PUSH2 0x100 EXP SWAP1 DIV PUSH20 0xFFFFFFFFFFFFFFFFFFFFFFFFFFFFFFFFFFFFFFFF AND DUP2 JUMP JUMPDEST DUP1 PUSH1 0x2 SLOAD DUP2 LT PUSH2 0x38FE JUMPI DUP1 PUSH1 0x40 MLOAD PUSH32 0xEE9FFCB700000000000000000000000000000000000000000000000000000000 DUP2 MSTORE PUSH1 0x4 ADD PUSH2 0x38F5 SWAP2 SWAP1 PUSH2 0x4151 JUMP JUMPDEST PUSH1 0x40 MLOAD DUP1 SWAP2 SUB SWAP1 REVERT JUMPDEST PUSH1 0x1 PUSH1 0x8 SLOAD EQ PUSH2 0x393A JUMPI PUSH1 0x40 MLOAD PUSH32 0xC5F2BE5100000000000000000000000000000000000000000000000000000000 DUP2 MSTORE PUSH1 0x4 ADD PUSH1 0x40 MLOAD DUP1 SWAP2 SUB SWAP1 REVERT JUMPDEST PUSH1 0x2 PUSH1 0x8 DUP2 SWAP1 SSTORE POP PUSH0 PUSH1 0x4 PUSH0 DUP5 DUP2 MSTORE PUSH1 0x20 ADD SWAP1 DUP2 MSTORE PUSH1 0x20 ADD PUSH0 KECCAK256 SWAP1 POP PUSH1 0x1 PUSH1 0x5 DUP2 GT ISZERO PUSH2 0x396A JUMPI PUSH2 0x3969 PUSH2 0x452B JUMP JUMPDEST JUMPDEST DUP2 PUSH1 0x6 ADD PUSH0 SWAP1 SLOAD SWAP1 PUSH2 0x100 EXP SWAP1 DIV PUSH1 0xFF AND PUSH1 0x5 DUP2 GT ISZERO PUSH2 0x398D JUMPI PUSH2 0x398C PUSH2 0x452B JUMP JUMPDEST JUMPDEST EQ PUSH2 0x39E2 JUMPI DUP1 PUSH1 0x6 ADD PUSH0 SWAP1 SLOAD SWAP1 PUSH2 0x100 EXP SWAP1 DIV PUSH1 0xFF AND PUSH1 0x1 PUSH1 0x40 MLOAD PUSH32 0xF924664D00000000000000000000000000000000000000000000000000000000 DUP2 MSTORE PUSH1 0x4 ADD PUSH2 0x39D9 SWAP3 SWAP2 SWAP1 PUSH2 0x4885 JUMP JUMPDEST PUSH1 0x40 MLOAD DUP1 SWAP2 SUB SWAP1 REVERT JUMPDEST DUP1 PUSH1 0x5 ADD SLOAD TIMESTAMP GT PUSH2 0x3A1F JUMPI PUSH1 0x40 MLOAD PUSH32 0x2EB3543000000000000000000000000000000000000000000000000000000000 DUP2 MSTORE PUSH1 0x4 ADD PUSH1 0x40 MLOAD DUP1 SWAP2 SUB SWAP1 REVERT JUMPDEST DUP1 PUSH1 0xB ADD PUSH0 SWAP1 SLOAD SWAP1 PUSH2 0x100 EXP SWAP1 DIV PUSH1 0xFF AND ISZERO PUSH2 0x3A67 JUMPI PUSH1 0x40 MLOAD PUSH32 0xA85E6F1A00000000000000000000000000000000000000000000000000000000 DUP2 MSTORE PUSH1 0x4 ADD PUSH1 0x40 MLOAD DUP1 SWAP2 SUB SWAP1 REVERT JUMPDEST PUSH0 DUP2 PUSH1 0x4 ADD SLOAD SWAP1 POP PUSH1 0x4 DUP3 PUSH1 0x6 ADD PUSH0 PUSH2 0x100 EXP DUP2 SLOAD DUP2 PUSH1 0xFF MUL NOT AND SWAP1 DUP4 PUSH1 0x5 DUP2 GT ISZERO PUSH2 0x3A96 JUMPI PUSH2 0x3A95 PUSH2 0x452B JUMP JUMPDEST JUMPDEST MUL OR SWAP1 SSTORE POP PUSH1 0x1 DUP3 PUSH1 0xB ADD PUSH0 PUSH2 0x100 EXP DUP2 SLOAD DUP2 PUSH1 0xFF MUL NOT AND SWAP1 DUP4 ISZERO ISZERO MUL OR SWAP1 SSTORE POP DUP1 PUSH1 0x3 PUSH0 DUP3 DUP3 SLOAD PUSH2 0x3AC8 SWAP2 SWAP1 PUSH2 0x4977 JUMP JUMPDEST SWAP3 POP POP DUP2 SWAP1 SSTORE POP PUSH0 DUP3 PUSH1 0x1 ADD PUSH0 SWAP1 SLOAD SWAP1 PUSH2 0x100 EXP SWAP1 DIV PUSH20 0xFFFFFFFFFFFFFFFFFFFFFFFFFFFFFFFFFFFFFFFF AND PUSH20 0xFFFFFFFFFFFFFFFFFFFFFFFFFFFFFFFFFFFFFFFF AND DUP3 PUSH1 0x40 MLOAD PUSH2 0x3B17 SWAP1 PUSH2 0x49D7 JUMP JUMPDEST PUSH0 PUSH1 0x40 MLOAD DUP1 DUP4 SUB DUP2 DUP6 DUP8 GAS CALL SWAP3 POP POP POP RETURNDATASIZE DUP1 PUSH0 DUP2 EQ PUSH2 0x3B51 JUMPI PUSH1 0x40 MLOAD SWAP2 POP PUSH1 0x1F NOT PUSH1 0x3F RETURNDATASIZE ADD AND DUP3 ADD PUSH1 0x40 MSTORE RETURNDATASIZE DUP3 MSTORE RETURNDATASIZE PUSH0 PUSH1 0x20 DUP5 ADD RETURNDATACOPY PUSH2 0x3B56 JUMP JUMPDEST PUSH1 0x60 SWAP2 POP JUMPDEST POP POP SWAP1 POP DUP1 PUSH2 0x3B91 JUMPI PUSH1 0x40 MLOAD PUSH32 0x90B8EC1800000000000000000000000000000000000000000000000000000000 DUP2 MSTORE PUSH1 0x4 ADD PUSH1 0x40 MLOAD DUP1 SWAP2 SUB SWAP1 REVERT JUMPDEST DUP3 PUSH1 0x1 ADD PUSH0 SWAP1 SLOAD SWAP1 PUSH2 0x100 EXP SWAP1 DIV PUSH20 0xFFFFFFFFFFFFFFFFFFFFFFFFFFFFFFFFFFFFFFFF AND PUSH20 0xFFFFFFFFFFFFFFFFFFFFFFFFFFFFFFFFFFFFFFFF AND DUP6 PUSH32 0x1866A9BDAC25BB7CBF867A60C0E9008732AC88DA2EC6BF1D87641A09D38128B6 DUP5 PUSH1 0x40 MLOAD PUSH2 0x3BFB SWAP2 SWAP1 PUSH2 0x4151 JUMP JUMPDEST PUSH1 0x40 MLOAD DUP1 SWAP2 SUB SWAP1 LOG3 POP POP POP PUSH1 0x1 PUSH1 0x8 DUP2 SWAP1 SSTORE POP POP POP JUMP JUMPDEST PUSH0 PUSH1 0x5 PUSH0 DUP4 PUSH20 0xFFFFFFFFFFFFFFFFFFFFFFFFFFFFFFFFFFFFFFFF AND PUSH20 0xFFFFFFFFFFFFFFFFFFFFFFFFFFFFFFFFFFFFFFFF AND DUP2 MSTORE PUSH1 0x20 ADD SWAP1 DUP2 MSTORE PUSH1 0x20 ADD PUSH0 KECCAK256 DUP1 SLOAD DUP1 PUSH1 0x20 MUL PUSH1 0x20 ADD PUSH1 0x40 MLOAD SWAP1 DUP2 ADD PUSH1 0x40 MSTORE DUP1 SWAP3 SWAP2 SWAP1 DUP2 DUP2 MSTORE PUSH1 0x20 ADD DUP3 DUP1 SLOAD DUP1 ISZERO PUSH2 0x3C98 JUMPI PUSH1 0x20 MUL DUP3 ADD SWAP2 SWAP1 PUSH0 MSTORE PUSH1 0x20 PUSH0 KECCAK256 SWAP1 JUMPDEST DUP2 SLOAD DUP2 MSTORE PUSH1 0x20 ADD SWAP1 PUSH1 0x1 ADD SWAP1 DUP1 DUP4 GT PUSH2 0x3C84 JUMPI JUMPDEST POP POP POP POP POP SWAP1 POP PUSH0 DUP2 MLOAD GT ISZERO PUSH2 0x3DFA JUMPI PUSH0 PUSH0 SWAP1 POP PUSH0 PUSH1 0x64 DUP4 MLOAD GT PUSH2 0x3CBD JUMPI DUP3 MLOAD PUSH2 0x3CC0 JUMP JUMPDEST PUSH1 0x64 JUMPDEST SWAP1 POP PUSH0 PUSH0 SWAP1 POP JUMPDEST DUP2 DUP2 LT ISZERO PUSH2 0x3D51 JUMPI PUSH1 0x3 PUSH1 0x5 DUP2 GT ISZERO PUSH2 0x3CE3 JUMPI PUSH2 0x3CE2 PUSH2 0x452B JUMP JUMPDEST JUMPDEST PUSH1 0x4 PUSH0 DUP7 DUP5 DUP2 MLOAD DUP2 LT PUSH2 0x3CF9 JUMPI PUSH2 0x3CF8 PUSH2 0x4FCF JUMP JUMPDEST JUMPDEST PUSH1 0x20 MUL PUSH1 0x20 ADD ADD MLOAD DUP2 MSTORE PUSH1 0x20 ADD SWAP1 DUP2 MSTORE PUSH1 0x20 ADD PUSH0 KECCAK256 PUSH1 0x6 ADD PUSH0 SWAP1 SLOAD SWAP1 PUSH2 0x100 EXP SWAP1 DIV PUSH1 0xFF AND PUSH1 0x5 DUP2 GT ISZERO PUSH2 0x3D30 JUMPI PUSH2 0x3D2F PUSH2 0x452B JUMP JUMPDEST JUMPDEST SUB PUSH2 0x3D44 JUMPI DUP3 DUP1 PUSH2 0x3D40 SWAP1 PUSH2 0x4ED0 JUMP JUMPDEST SWAP4 POP POP JUMPDEST DUP1 DUP1 PUSH1 0x1 ADD SWAP2 POP POP PUSH2 0x3CC7 JUMP JUMPDEST POP PUSH0 DUP2 PUSH1 0x64 DUP5 PUSH2 0x3D61 SWAP2 SWAP1 PUSH2 0x48D9 JUMP JUMPDEST PUSH2 0x3D6B SWAP2 SWAP1 PUSH2 0x4947 JUMP JUMPDEST SWAP1 POP PUSH1 0x9 PUSH0 SWAP1 SLOAD SWAP1 PUSH2 0x100 EXP SWAP1 DIV PUSH20 0xFFFFFFFFFFFFFFFFFFFFFFFFFFFFFFFFFFFFFFFF AND PUSH20 0xFFFFFFFFFFFFFFFFFFFFFFFFFFFFFFFFFFFFFFFF AND PUSH4 0xF5C91A08 DUP7 DUP4 PUSH1 0x40 MLOAD DUP4 PUSH4 0xFFFFFFFF AND PUSH1 0xE0 SHL DUP2 MSTORE PUSH1 0x4 ADD PUSH2 0x3DC9 SWAP3 SWAP2 SWAP1 PUSH2 0x4FFC JUMP JUMPDEST PUSH0 PUSH1 0x40 MLOAD DUP1 DUP4 SUB DUP2 PUSH0 DUP8 DUP1 EXTCODESIZE ISZERO DUP1 ISZERO PUSH2 0x3DE0 JUMPI PUSH0 PUSH0 REVERT JUMPDEST POP GAS CALL ISZERO DUP1 ISZERO PUSH2 0x3DF2 JUMPI RETURNDATASIZE PUSH0 PUSH0 RETURNDATACOPY RETURNDATASIZE PUSH0 REVERT JUMPDEST POP POP POP POP POP POP POP JUMPDEST POP POP JUMP JUMPDEST PUSH0 DUP3 DUP3 MSTORE PUSH1 0x20 DUP3 ADD SWAP1 POP SWAP3 SWAP2 POP POP JUMP JUMPDEST PUSH32 0x55736520637265617465416E6446756E645472616E736665722829206F722066 PUSH0 DUP3 ADD MSTORE PUSH32 0x756E645472616E73666572282900000000000000000000000000000000000000 PUSH1 0x20 DUP3 ADD MSTORE POP JUMP JUMPDEST PUSH0 PUSH2 0x3E68 PUSH1 0x2D DUP4 PUSH2 0x3DFE JUMP JUMPDEST SWAP2 POP PUSH2 0x3E73 DUP3 PUSH2 0x3E0E JUMP JUMPDEST PUSH1 0x40 DUP3 ADD SWAP1 POP SWAP2 SWAP1 POP JUMP JUMPDEST PUSH0 PUSH1 0x20 DUP3 ADD SWAP1 POP DUP2 DUP2 SUB PUSH0 DUP4 ADD MSTORE PUSH2 0x3E95 DUP2 PUSH2 0x3E5C JUMP JUMPDEST SWAP1 POP SWAP2 SWAP1 POP JUMP JUMPDEST PUSH32 0x496E76616C69642066756E6374696F6E2063616C6C0000000000000000000000 PUSH0 DUP3 ADD MSTORE POP JUMP JUMPDEST PUSH0 PUSH2 0x3ED0 PUSH1 0x15 DUP4 PUSH2 0x3DFE JUMP JUMPDEST SWAP2 POP PUSH2 0x3EDB DUP3 PUSH2 0x3E9C JUMP JUMPDEST PUSH1 0x20 DUP3 ADD SWAP1 POP SWAP2 SWAP1 POP JUMP JUMPDEST PUSH0 PUSH1 0x20 DUP3 ADD SWAP1 POP DUP2 DUP2 SUB PUSH0 DUP4 ADD MSTORE PUSH2 0x3EFD DUP2 PUSH2 0x3EC4 JUMP JUMPDEST SWAP1 POP SWAP2 SWAP1 POP JUMP JUMPDEST PUSH0 PUSH1 0x40 MLOAD SWAP1 POP SWAP1 JUMP JUMPDEST PUSH0 PUSH0 REVERT JUMPDEST PUSH0 PUSH0 REVERT JUMPDEST PUSH0 PUSH20 0xFFFFFFFFFFFFFFFFFFFFFFFFFFFFFFFFFFFFFFFF DUP3 AND SWAP1 POP SWAP2 SWAP1 POP JUMP JUMPDEST PUSH0 PUSH2 0x3F3E DUP3 PUSH2 0x3F15 JUMP JUMPDEST SWAP1 POP SWAP2 SWAP1 POP JUMP JUMPDEST PUSH2 0x3F4E DUP2 PUSH2 0x3F34 JUMP JUMPDEST DUP2 EQ PUSH2 0x3F58 JUMPI PUSH0 PUSH0 REVERT JUMPDEST POP JUMP JUMPDEST PUSH0 DUP2 CALLDATALOAD SWAP1 POP PUSH2 0x3F69 DUP2 PUSH2 0x3F45 JUMP JUMPDEST SWAP3 SWAP2 POP POP JUMP JUMPDEST PUSH0 PUSH1 0x20 DUP3 DUP5 SUB SLT ISZERO PUSH2 0x3F84 JUMPI PUSH2 0x3F83 PUSH2 0x3F0D JUMP JUMPDEST JUMPDEST PUSH0 PUSH2 0x3F91 DUP5 DUP3 DUP6 ADD PUSH2 0x3F5B JUMP JUMPDEST SWAP2 POP POP SWAP3 SWAP2 POP POP JUMP JUMPDEST PUSH0 DUP2 MLOAD SWAP1 POP SWAP2 SWAP1 POP JUMP JUMPDEST PUSH0 DUP3 DUP3 MSTORE PUSH1 0x20 DUP3 ADD SWAP1 POP SWAP3 SWAP2 POP POP JUMP JUMPDEST PUSH0 DUP2 SWAP1 POP PUSH1 0x20 DUP3 ADD SWAP1 POP SWAP2 SWAP1 POP JUMP JUMPDEST PUSH0 DUP2 SWAP1 POP SWAP2 SWAP1 POP JUMP JUMPDEST PUSH2 0x3FD5 DUP2 PUSH2 0x3FC3 JUMP JUMPDEST DUP3 MSTORE POP POP JUMP JUMPDEST PUSH0 PUSH2 0x3FE6 DUP4 DUP4 PUSH2 0x3FCC JUMP JUMPDEST PUSH1 0x20 DUP4 ADD SWAP1 POP SWAP3 SWAP2 POP POP JUMP JUMPDEST PUSH0 PUSH1 0x20 DUP3 ADD SWAP1 POP SWAP2 SWAP1 POP JUMP JUMPDEST PUSH0 PUSH2 0x4008 DUP3 PUSH2 0x3F9A JUMP JUMPDEST PUSH2 0x4012 DUP2 DUP6 PUSH2 0x3FA4 JUMP JUMPDEST SWAP4 POP PUSH2 0x401D DUP4 PUSH2 0x3FB4 JUMP JUMPDEST DUP1 PUSH0 JUMPDEST DUP4 DUP2 LT ISZERO PUSH2 0x404D JUMPI DUP2 MLOAD PUSH2 0x4034 DUP9 DUP3 PUSH2 0x3FDB JUMP JUMPDEST SWAP8 POP PUSH2 0x403F DUP4 PUSH2 0x3FF2 JUMP JUMPDEST SWAP3 POP POP PUSH1 0x1 DUP2 ADD SWAP1 POP PUSH2 0x4020 JUMP JUMPDEST POP DUP6 SWAP4 POP POP POP POP SWAP3 SWAP2 POP POP JUMP JUMPDEST PUSH0 PUSH1 0x20 DUP3 ADD SWAP1 POP DUP2 DUP2 SUB PUSH0 DUP4 ADD MSTORE PUSH2 0x4072 DUP2 DUP5 PUSH2 0x3FFE JUMP JUMPDEST SWAP1 POP SWAP3 SWAP2 POP POP JUMP JUMPDEST PUSH2 0x4083 DUP2 PUSH2 0x3FC3 JUMP JUMPDEST DUP3 MSTORE POP POP JUMP JUMPDEST PUSH0 PUSH1 0x60 DUP3 ADD SWAP1 POP PUSH2 0x409C PUSH0 DUP4 ADD DUP7 PUSH2 0x407A JUMP JUMPDEST PUSH2 0x40A9 PUSH1 0x20 DUP4 ADD DUP6 PUSH2 0x407A JUMP JUMPDEST PUSH2 0x40B6 PUSH1 0x40 DUP4 ADD DUP5 PUSH2 0x407A JUMP JUMPDEST SWAP5 SWAP4 POP POP POP POP JUMP JUMPDEST PUSH2 0x40C7 DUP2 PUSH2 0x3FC3 JUMP JUMPDEST DUP2 EQ PUSH2 0x40D1 JUMPI PUSH0 PUSH0 REVERT JUMPDEST POP JUMP JUMPDEST PUSH0 DUP2 CALLDATALOAD SWAP1 POP PUSH2 0x40E2 DUP2 PUSH2 0x40BE JUMP JUMPDEST SWAP3 SWAP2 POP POP JUMP JUMPDEST PUSH0 PUSH1 0x20 DUP3 DUP5 SUB SLT ISZERO PUSH2 0x40FD JUMPI PUSH2 0x40FC PUSH2 0x3F0D JUMP JUMPDEST JUMPDEST PUSH0 PUSH2 0x410A DUP5 DUP3 DUP6 ADD PUSH2 0x40D4 JUMP JUMPDEST SWAP2 POP POP SWAP3 SWAP2 POP POP JUMP JUMPDEST PUSH0 PUSH0 PUSH1 0x40 DUP4 DUP6 SUB SLT ISZERO PUSH2 0x4129 JUMPI PUSH2 0x4128 PUSH2 0x3F0D JUMP JUMPDEST JUMPDEST PUSH0 PUSH2 0x4136 DUP6 DUP3 DUP7 ADD PUSH2 0x3F5B JUMP JUMPDEST SWAP3 POP POP PUSH1 0x20 PUSH2 0x4147 DUP6 DUP3 DUP7 ADD PUSH2 0x40D4 JUMP JUMPDEST SWAP2 POP POP SWAP3 POP SWAP3 SWAP1 POP JUMP JUMPDEST PUSH0 PUSH1 0x20 DUP3 ADD SWAP1 POP PUSH2 0x4164 PUSH0 DUP4 ADD DUP5 PUSH2 0x407A JUMP JUMPDEST SWAP3 SWAP2 POP POP JUMP JUMPDEST PUSH0 DUP2 ISZERO ISZERO SWAP1 POP SWAP2 SWAP1 POP JUMP JUMPDEST PUSH2 0x417E DUP2 PUSH2 0x416A JUMP JUMPDEST DUP3 MSTORE POP POP JUMP JUMPDEST PUSH0 PUSH1 0x20 DUP3 ADD SWAP1 POP PUSH2 0x4197 PUSH0 DUP4 ADD DUP5 PUSH2 0x4175 JUMP JUMPDEST SWAP3 SWAP2 POP POP JUMP JUMPDEST PUSH0 PUSH0 PUSH1 0x40 DUP4 DUP6 SUB SLT ISZERO PUSH2 0x41B3 JUMPI PUSH2 0x41B2 PUSH2 0x3F0D JUMP JUMPDEST JUMPDEST PUSH0 PUSH2 0x41C0 DUP6 DUP3 DUP7 ADD PUSH2 0x40D4 JUMP JUMPDEST SWAP3 POP POP PUSH1 0x20 PUSH2 0x41D1 DUP6 DUP3 DUP7 ADD PUSH2 0x40D4 JUMP JUMPDEST SWAP2 POP POP SWAP3 POP SWAP3 SWAP1 POP JUMP JUMPDEST PUSH0 PUSH0 REVERT JUMPDEST PUSH0 PUSH0 REVERT JUMPDEST PUSH0 PUSH0 REVERT JUMPDEST PUSH0 PUSH0 DUP4 PUSH1 0x1F DUP5 ADD SLT PUSH2 0x41FC JUMPI PUSH2 0x41FB PUSH2 0x41DB JUMP JUMPDEST JUMPDEST DUP3 CALLDATALOAD SWAP1 POP PUSH8 0xFFFFFFFFFFFFFFFF DUP2 GT ISZERO PUSH2 0x4219 JUMPI PUSH2 0x4218 PUSH2 0x41DF JUMP JUMPDEST JUMPDEST PUSH1 0x20 DUP4 ADD SWAP2 POP DUP4 PUSH1 0x1 DUP3 MUL DUP4 ADD GT ISZERO PUSH2 0x4235 JUMPI PUSH2 0x4234 PUSH2 0x41E3 JUMP JUMPDEST JUMPDEST SWAP3 POP SWAP3 SWAP1 POP JUMP JUMPDEST PUSH0 PUSH0 PUSH0 PUSH1 0x40 DUP5 DUP7 SUB SLT ISZERO PUSH2 0x4253 JUMPI PUSH2 0x4252 PUSH2 0x3F0D JUMP JUMPDEST JUMPDEST PUSH0 PUSH2 0x4260 DUP7 DUP3 DUP8 ADD PUSH2 0x40D4 JUMP JUMPDEST SWAP4 POP POP PUSH1 0x20 DUP5 ADD CALLDATALOAD PUSH8 0xFFFFFFFFFFFFFFFF DUP2 GT ISZERO PUSH2 0x4281 JUMPI PUSH2 0x4280 PUSH2 0x3F11 JUMP JUMPDEST JUMPDEST PUSH2 0x428D DUP7 DUP3 DUP8 ADD PUSH2 0x41E7 JUMP JUMPDEST SWAP3 POP SWAP3 POP POP SWAP3 POP SWAP3 POP SWAP3 JUMP JUMPDEST PUSH0 PUSH0 PUSH1 0x40 DUP4 DUP6 SUB SLT ISZERO PUSH2 0x42AF JUMPI PUSH2 0x42AE PUSH2 0x3F0D JUMP JUMPDEST JUMPDEST PUSH0 PUSH2 0x42BC DUP6 DUP3 DUP7 ADD PUSH2 0x40D4 JUMP JUMPDEST SWAP3 POP POP PUSH1 0x20 PUSH2 0x42CD DUP6 DUP3 DUP7 ADD PUSH2 0x3F5B JUMP JUMPDEST SWAP2 POP POP SWAP3 POP SWAP3 SWAP1 POP JUMP JUMPDEST PUSH0 DUP2 SWAP1 POP SWAP2 SWAP1 POP JUMP JUMPDEST PUSH0 PUSH2 0x42FA PUSH2 0x42F5 PUSH2 0x42F0 DUP5 PUSH2 0x3F15 JUMP JUMPDEST PUSH2 0x42D7 JUMP JUMPDEST PUSH2 0x3F15 JUMP JUMPDEST SWAP1 POP SWAP2 SWAP1 POP JUMP JUMPDEST PUSH0 PUSH2 0x430B DUP3 PUSH2 0x42E0 JUMP JUMPDEST SWAP1 POP SWAP2 SWAP1 POP JUMP JUMPDEST PUSH0 PUSH2 0x431C DUP3 PUSH2 0x4301 JUMP JUMPDEST SWAP1 POP SWAP2 SWAP1 POP JUMP JUMPDEST PUSH2 0x432C DUP2 PUSH2 0x4312 JUMP JUMPDEST DUP3 MSTORE POP POP JUMP JUMPDEST PUSH0 PUSH1 0x20 DUP3 ADD SWAP1 POP PUSH2 0x4345 PUSH0 DUP4 ADD DUP5 PUSH2 0x4323 JUMP JUMPDEST SWAP3 SWAP2 POP POP JUMP JUMPDEST PUSH0 PUSH0 REVERT JUMPDEST PUSH0 PUSH1 0x1F NOT PUSH1 0x1F DUP4 ADD AND SWAP1 POP SWAP2 SWAP1 POP JUMP JUMPDEST PUSH32 0x4E487B7100000000000000000000000000000000000000000000000000000000 PUSH0 MSTORE PUSH1 0x41 PUSH1 0x4 MSTORE PUSH1 0x24 PUSH0 REVERT JUMPDEST PUSH2 0x4395 DUP3 PUSH2 0x434F JUMP JUMPDEST DUP2 ADD DUP2 DUP2 LT PUSH8 0xFFFFFFFFFFFFFFFF DUP3 GT OR ISZERO PUSH2 0x43B4 JUMPI PUSH2 0x43B3 PUSH2 0x435F JUMP JUMPDEST JUMPDEST DUP1 PUSH1 0x40 MSTORE POP POP POP JUMP JUMPDEST PUSH0 PUSH2 0x43C6 PUSH2 0x3F04 JUMP JUMPDEST SWAP1 POP PUSH2 0x43D2 DUP3 DUP3 PUSH2 0x438C JUMP JUMPDEST SWAP2 SWAP1 POP JUMP JUMPDEST PUSH0 PUSH8 0xFFFFFFFFFFFFFFFF DUP3 GT ISZERO PUSH2 0x43F1 JUMPI PUSH2 0x43F0 PUSH2 0x435F JUMP JUMPDEST JUMPDEST PUSH2 0x43FA DUP3 PUSH2 0x434F JUMP JUMPDEST SWAP1 POP PUSH1 0x20 DUP2 ADD SWAP1 POP SWAP2 SWAP1 POP JUMP JUMPDEST DUP3 DUP2 DUP4 CALLDATACOPY PUSH0 DUP4 DUP4 ADD MSTORE POP POP POP JUMP JUMPDEST PUSH0 PUSH2 0x4427 PUSH2 0x4422 DUP5 PUSH2 0x43D7 JUMP JUMPDEST PUSH2 0x43BD JUMP JUMPDEST SWAP1 POP DUP3 DUP2 MSTORE PUSH1 0x20 DUP2 ADD DUP5 DUP5 DUP5 ADD GT ISZERO PUSH2 0x4443 JUMPI PUSH2 0x4442 PUSH2 0x434B JUMP JUMPDEST JUMPDEST PUSH2 0x444E DUP5 DUP3 DUP6 PUSH2 0x4407 JUMP JUMPDEST POP SWAP4 SWAP3 POP POP POP JUMP JUMPDEST PUSH0 DUP3 PUSH1 0x1F DUP4 ADD SLT PUSH2 0x446A JUMPI PUSH2 0x4469 PUSH2 0x41DB JUMP JUMPDEST JUMPDEST DUP2 CALLDATALOAD PUSH2 0x447A DUP5 DUP3 PUSH1 0x20 DUP7 ADD PUSH2 0x4415 JUMP JUMPDEST SWAP2 POP POP SWAP3 SWAP2 POP POP JUMP JUMPDEST PUSH0 PUSH0 PUSH0 PUSH0 PUSH1 0x80 DUP6 DUP8 SUB SLT ISZERO PUSH2 0x449B JUMPI PUSH2 0x449A PUSH2 0x3F0D JUMP JUMPDEST JUMPDEST PUSH0 PUSH2 0x44A8 DUP8 DUP3 DUP9 ADD PUSH2 0x3F5B JUMP JUMPDEST SWAP5 POP POP PUSH1 0x20 PUSH2 0x44B9 DUP8 DUP3 DUP9 ADD PUSH2 0x3F5B JUMP JUMPDEST SWAP4 POP POP PUSH1 0x40 DUP6 ADD CALLDATALOAD PUSH8 0xFFFFFFFFFFFFFFFF DUP2 GT ISZERO PUSH2 0x44DA JUMPI PUSH2 0x44D9 PUSH2 0x3F11 JUMP JUMPDEST JUMPDEST PUSH2 0x44E6 DUP8 DUP3 DUP9 ADD PUSH2 0x4456 JUMP JUMPDEST SWAP3 POP POP PUSH1 0x60 PUSH2 0x44F7 DUP8 DUP3 DUP9 ADD PUSH2 0x40D4 JUMP JUMPDEST SWAP2 POP POP SWAP3 SWAP6 SWAP2 SWAP5 POP SWAP3 POP JUMP JUMPDEST PUSH2 0x450C DUP2 PUSH2 0x3F34 JUMP JUMPDEST DUP3 MSTORE POP POP JUMP JUMPDEST PUSH0 PUSH1 0x20 DUP3 ADD SWAP1 POP PUSH2 0x4525 PUSH0 DUP4 ADD DUP5 PUSH2 0x4503 JUMP JUMPDEST SWAP3 SWAP2 POP POP JUMP JUMPDEST PUSH32 0x4E487B7100000000000000000000000000000000000000000000000000000000 PUSH0 MSTORE PUSH1 0x21 PUSH1 0x4 MSTORE PUSH1 0x24 PUSH0 REVERT JUMPDEST PUSH1 0x6 DUP2 LT PUSH2 0x4569 JUMPI PUSH2 0x4568 PUSH2 0x452B JUMP JUMPDEST JUMPDEST POP JUMP JUMPDEST PUSH0 DUP2 SWAP1 POP PUSH2 0x4579 DUP3 PUSH2 0x4558 JUMP JUMPDEST SWAP2 SWAP1 POP JUMP JUMPDEST PUSH0 PUSH2 0x4588 DUP3 PUSH2 0x456C JUMP JUMPDEST SWAP1 POP SWAP2 SWAP1 POP JUMP JUMPDEST PUSH2 0x4598 DUP2 PUSH2 0x457E JUMP JUMPDEST DUP3 MSTORE POP POP JUMP JUMPDEST PUSH0 DUP2 MLOAD SWAP1 POP SWAP2 SWAP1 POP JUMP JUMPDEST DUP3 DUP2 DUP4 MCOPY PUSH0 DUP4 DUP4 ADD MSTORE POP POP POP JUMP JUMPDEST PUSH0 PUSH2 0x45C0 DUP3 PUSH2 0x459E JUMP JUMPDEST PUSH2 0x45CA DUP2 DUP6 PUSH2 0x3DFE JUMP JUMPDEST SWAP4 POP PUSH2 0x45DA DUP2 DUP6 PUSH1 0x20 DUP7 ADD PUSH2 0x45A8 JUMP JUMPDEST PUSH2 0x45E3 DUP2 PUSH2 0x434F JUMP JUMPDEST DUP5 ADD SWAP2 POP POP SWAP3 SWAP2 POP POP JUMP JUMPDEST PUSH0 PUSH2 0x180 DUP3 ADD SWAP1 POP PUSH2 0x4602 PUSH0 DUP4 ADD DUP16 PUSH2 0x407A JUMP JUMPDEST PUSH2 0x460F PUSH1 0x20 DUP4 ADD DUP15 PUSH2 0x4503 JUMP JUMPDEST PUSH2 0x461C PUSH1 0x40 DUP4 ADD DUP14 PUSH2 0x4503 JUMP JUMPDEST PUSH2 0x4629 PUSH1 0x60 DUP4 ADD DUP13 PUSH2 0x4503 JUMP JUMPDEST PUSH2 0x4636 PUSH1 0x80 DUP4 ADD DUP12 PUSH2 0x407A JUMP JUMPDEST PUSH2 0x4643 PUSH1 0xA0 DUP4 ADD DUP11 PUSH2 0x407A JUMP JUMPDEST PUSH2 0x4650 PUSH1 0xC0 DUP4 ADD DUP10 PUSH2 0x458F JUMP JUMPDEST DUP2 DUP2 SUB PUSH1 0xE0 DUP4 ADD MSTORE PUSH2 0x4662 DUP2 DUP9 PUSH2 0x45B6 JUMP JUMPDEST SWAP1 POP DUP2 DUP2 SUB PUSH2 0x100 DUP4 ADD MSTORE PUSH2 0x4677 DUP2 DUP8 PUSH2 0x45B6 JUMP JUMPDEST SWAP1 POP PUSH2 0x4687 PUSH2 0x120 DUP4 ADD DUP7 PUSH2 0x407A JUMP JUMPDEST PUSH2 0x4695 PUSH2 0x140 DUP4 ADD DUP6 PUSH2 0x407A JUMP JUMPDEST PUSH2 0x46A3 PUSH2 0x160 DUP4 ADD DUP5 PUSH2 0x4175 JUMP JUMPDEST SWAP14 SWAP13 POP POP POP POP POP POP POP POP POP POP POP POP POP JUMP JUMPDEST PUSH0 PUSH1 0xE0 DUP3 ADD SWAP1 POP PUSH2 0x46C7 PUSH0 DUP4 ADD DUP11 PUSH2 0x458F JUMP JUMPDEST PUSH2 0x46D4 PUSH1 0x20 DUP4 ADD DUP10 PUSH2 0x4175 JUMP JUMPDEST PUSH2 0x46E1 PUSH1 0x40 DUP4 ADD DUP9 PUSH2 0x4175 JUMP JUMPDEST PUSH2 0x46EE PUSH1 0x60 DUP4 ADD DUP8 PUSH2 0x4175 JUMP JUMPDEST PUSH2 0x46FB PUSH1 0x80 DUP4 ADD DUP7 PUSH2 0x4175 JUMP JUMPDEST PUSH2 0x4708 PUSH1 0xA0 DUP4 ADD DUP6 PUSH2 0x4175 JUMP JUMPDEST PUSH2 0x4715 PUSH1 0xC0 DUP4 ADD DUP5 PUSH2 0x407A JUMP JUMPDEST SWAP9 SWAP8 POP POP POP POP POP POP POP POP JUMP JUMPDEST PUSH0 PUSH2 0x160 DUP3 ADD SWAP1 POP PUSH2 0x4735 PUSH0 DUP4 ADD DUP15 PUSH2 0x4503 JUMP JUMPDEST PUSH2 0x4742 PUSH1 0x20 DUP4 ADD DUP14 PUSH2 0x4503 JUMP JUMPDEST PUSH2 0x474F PUSH1 0x40 DUP4 ADD DUP13 PUSH2 0x4503 JUMP JUMPDEST PUSH2 0x475C PUSH1 0x60 DUP4 ADD DUP12 PUSH2 0x407A JUMP JUMPDEST PUSH2 0x4769 PUSH1 0x80 DUP4 ADD DUP11 PUSH2 0x407A JUMP JUMPDEST PUSH2 0x4776 PUSH1 0xA0 DUP4 ADD DUP10 PUSH2 0x458F JUMP JUMPDEST DUP2 DUP2 SUB PUSH1 0xC0 DUP4 ADD MSTORE PUSH2 0x4788 DUP2 DUP9 PUSH2 0x45B6 JUMP JUMPDEST SWAP1 POP DUP2 DUP2 SUB PUSH1 0xE0 DUP4 ADD MSTORE PUSH2 0x479C DUP2 DUP8 PUSH2 0x45B6 JUMP JUMPDEST SWAP1 POP PUSH2 0x47AC PUSH2 0x100 DUP4 ADD DUP7 PUSH2 0x407A JUMP JUMPDEST PUSH2 0x47BA PUSH2 0x120 DUP4 ADD DUP6 PUSH2 0x407A JUMP JUMPDEST PUSH2 0x47C8 PUSH2 0x140 DUP4 ADD DUP5 PUSH2 0x4175 JUMP JUMPDEST SWAP13 SWAP12 POP POP POP POP POP POP POP POP POP POP POP POP JUMP JUMPDEST PUSH0 PUSH1 0xFF DUP3 AND SWAP1 POP SWAP2 SWAP1 POP JUMP JUMPDEST PUSH2 0x47ED DUP2 PUSH2 0x47D8 JUMP JUMPDEST DUP2 EQ PUSH2 0x47F7 JUMPI PUSH0 PUSH0 REVERT JUMPDEST POP JUMP JUMPDEST PUSH0 DUP2 CALLDATALOAD SWAP1 POP PUSH2 0x4808 DUP2 PUSH2 0x47E4 JUMP JUMPDEST SWAP3 SWAP2 POP POP JUMP JUMPDEST PUSH0 PUSH0 PUSH1 0x40 DUP4 DUP6 SUB SLT ISZERO PUSH2 0x4824 JUMPI PUSH2 0x4823 PUSH2 0x3F0D JUMP JUMPDEST JUMPDEST PUSH0 PUSH2 0x4831 DUP6 DUP3 DUP7 ADD PUSH2 0x40D4 JUMP JUMPDEST SWAP3 POP POP PUSH1 0x20 PUSH2 0x4842 DUP6 DUP3 DUP7 ADD PUSH2 0x47FA JUMP JUMPDEST SWAP2 POP POP SWAP3 POP SWAP3 SWAP1 POP JUMP JUMPDEST PUSH0 PUSH2 0x4856 DUP3 PUSH2 0x4301 JUMP JUMPDEST SWAP1 POP SWAP2 SWAP1 POP JUMP JUMPDEST PUSH2 0x4866 DUP2 PUSH2 0x484C JUMP JUMPDEST DUP3 MSTORE POP POP JUMP JUMPDEST PUSH0 PUSH1 0x20 DUP3 ADD SWAP1 POP PUSH2 0x487F PUSH0 DUP4 ADD DUP5 PUSH2 0x485D JUMP JUMPDEST SWAP3 SWAP2 POP POP JUMP JUMPDEST PUSH0 PUSH1 0x40 DUP3 ADD SWAP1 POP PUSH2 0x4898 PUSH0 DUP4 ADD DUP6 PUSH2 0x458F JUMP JUMPDEST PUSH2 0x48A5 PUSH1 0x20 DUP4 ADD DUP5 PUSH2 0x458F JUMP JUMPDEST SWAP4 SWAP3 POP POP POP JUMP JUMPDEST PUSH32 0x4E487B7100000000000000000000000000000000000000000000000000000000 PUSH0 MSTORE PUSH1 0x11 PUSH1 0x4 MSTORE PUSH1 0x24 PUSH0 REVERT JUMPDEST PUSH0 PUSH2 0x48E3 DUP3 PUSH2 0x3FC3 JUMP JUMPDEST SWAP2 POP PUSH2 0x48EE DUP4 PUSH2 0x3FC3 JUMP JUMPDEST SWAP3 POP DUP3 DUP3 MUL PUSH2 0x48FC DUP2 PUSH2 0x3FC3 JUMP JUMPDEST SWAP2 POP DUP3 DUP3 DIV DUP5 EQ DUP4 ISZERO OR PUSH2 0x4913 JUMPI PUSH2 0x4912 PUSH2 0x48AC JUMP JUMPDEST JUMPDEST POP SWAP3 SWAP2 POP POP JUMP JUMPDEST PUSH32 0x4E487B7100000000000000000000000000000000000000000000000000000000 PUSH0 MSTORE PUSH1 0x12 PUSH1 0x4 MSTORE PUSH1 0x24 PUSH0 REVERT JUMPDEST PUSH0 PUSH2 0x4951 DUP3 PUSH2 0x3FC3 JUMP JUMPDEST SWAP2 POP PUSH2 0x495C DUP4 PUSH2 0x3FC3 JUMP JUMPDEST SWAP3 POP DUP3 PUSH2 0x496C JUMPI PUSH2 0x496B PUSH2 0x491A JUMP JUMPDEST JUMPDEST DUP3 DUP3 DIV SWAP1 POP SWAP3 SWAP2 POP POP JUMP JUMPDEST PUSH0 PUSH2 0x4981 DUP3 PUSH2 0x3FC3 JUMP JUMPDEST SWAP2 POP PUSH2 0x498C DUP4 PUSH2 0x3FC3 JUMP JUMPDEST SWAP3 POP DUP3 DUP3 SUB SWAP1 POP DUP2 DUP2 GT ISZERO PUSH2 0x49A4 JUMPI PUSH2 0x49A3 PUSH2 0x48AC JUMP JUMPDEST JUMPDEST SWAP3 SWAP2 POP POP JUMP JUMPDEST PUSH0 DUP2 SWAP1 POP SWAP3 SWAP2 POP POP JUMP JUMPDEST POP JUMP JUMPDEST PUSH0 PUSH2 0x49C2 PUSH0 DUP4 PUSH2 0x49AA JUMP JUMPDEST SWAP2 POP PUSH2 0x49CD DUP3 PUSH2 0x49B4 JUMP JUMPDEST PUSH0 DUP3 ADD SWAP1 POP SWAP2 SWAP1 POP JUMP JUMPDEST PUSH0 PUSH2 0x49E1 DUP3 PUSH2 0x49B7 JUMP JUMPDEST SWAP2 POP DUP2 SWAP1 POP SWAP2 SWAP1 POP JUMP JUMPDEST PUSH0 PUSH1 0x40 DUP3 ADD SWAP1 POP PUSH2 0x49FE PUSH0 DUP4 ADD DUP6 PUSH2 0x407A JUMP JUMPDEST PUSH2 0x4A0B PUSH1 0x20 DUP4 ADD DUP5 PUSH2 0x407A JUMP JUMPDEST SWAP4 SWAP3 POP POP POP JUMP JUMPDEST PUSH2 0x4A1B DUP2 PUSH2 0x416A JUMP JUMPDEST DUP2 EQ PUSH2 0x4A25 JUMPI PUSH0 PUSH0 REVERT JUMPDEST POP JUMP JUMPDEST PUSH0 DUP2 MLOAD SWAP1 POP PUSH2 0x4A36 DUP2 PUSH2 0x4A12 JUMP JUMPDEST SWAP3 SWAP2 POP POP JUMP JUMPDEST PUSH0 PUSH1 0x20 DUP3 DUP5 SUB SLT ISZERO PUSH2 0x4A51 JUMPI PUSH2 0x4A50 PUSH2 0x3F0D JUMP JUMPDEST JUMPDEST PUSH0 PUSH2 0x4A5E DUP5 DUP3 DUP6 ADD PUSH2 0x4A28 JUMP JUMPDEST SWAP2 POP POP SWAP3 SWAP2 POP POP JUMP JUMPDEST PUSH0 PUSH2 0x4A71 DUP3 PUSH2 0x3FC3 JUMP JUMPDEST SWAP2 POP PUSH2 0x4A7C DUP4 PUSH2 0x3FC3 JUMP JUMPDEST SWAP3 POP DUP3 DUP3 ADD SWAP1 POP DUP1 DUP3 GT ISZERO PUSH2 0x4A94 JUMPI PUSH2 0x4A93 PUSH2 0x48AC JUMP JUMPDEST JUMPDEST SWAP3 SWAP2 POP POP JUMP JUMPDEST PUSH0 DUP3 SWAP1 POP SWAP3 SWAP2 POP POP JUMP JUMPDEST PUSH32 0x4E487B7100000000000000000000000000000000000000000000000000000000 PUSH0 MSTORE PUSH1 0x22 PUSH1 0x4 MSTORE PUSH1 0x24 PUSH0 REVERT JUMPDEST PUSH0 PUSH1 0x2 DUP3 DIV SWAP1 POP PUSH1 0x1 DUP3 AND DUP1 PUSH2 0x4AE8 JUMPI PUSH1 0x7F DUP3 AND SWAP2 POP JUMPDEST PUSH1 0x20 DUP3 LT DUP2 SUB PUSH2 0x4AFB JUMPI PUSH2 0x4AFA PUSH2 0x4AA4 JUMP JUMPDEST JUMPDEST POP SWAP2 SWAP1 POP JUMP JUMPDEST PUSH0 DUP2 SWAP1 POP DUP2 PUSH0 MSTORE PUSH1 0x20 PUSH0 KECCAK256 SWAP1 POP SWAP2 SWAP1 POP JUMP JUMPDEST PUSH0 PUSH1 0x20 PUSH1 0x1F DUP4 ADD DIV SWAP1 POP SWAP2 SWAP1 POP JUMP JUMPDEST PUSH0 DUP3 DUP3 SHL SWAP1 POP SWAP3 SWAP2 POP POP JUMP JUMPDEST PUSH0 PUSH1 0x8 DUP4 MUL PUSH2 0x4B5D PUSH32 0xFFFFFFFFFFFFFFFFFFFFFFFFFFFFFFFFFFFFFFFFFFFFFFFFFFFFFFFFFFFFFFFF DUP3 PUSH2 0x4B22 JUMP JUMPDEST PUSH2 0x4B67 DUP7 DUP4 PUSH2 0x4B22 JUMP JUMPDEST SWAP6 POP DUP1 NOT DUP5 AND SWAP4 POP DUP1 DUP7 AND DUP5 OR SWAP3 POP POP POP SWAP4 SWAP3 POP POP POP JUMP JUMPDEST PUSH0 PUSH2 0x4B99 PUSH2 0x4B94 PUSH2 0x4B8F DUP5 PUSH2 0x3FC3 JUMP JUMPDEST PUSH2 0x42D7 JUMP JUMPDEST PUSH2 0x3FC3 JUMP JUMPDEST SWAP1 POP SWAP2 SWAP1 POP JUMP JUMPDEST PUSH0 DUP2 SWAP1 POP SWAP2 SWAP1 POP JUMP JUMPDEST PUSH2 0x4BB2 DUP4 PUSH2 0x4B7F JUMP JUMPDEST PUSH2 0x4BC6 PUSH2 0x4BBE DUP3 PUSH2 0x4BA0 JUMP JUMPDEST DUP5 DUP5 SLOAD PUSH2 0x4B2E JUMP JUMPDEST DUP3 SSTORE POP POP POP POP JUMP JUMPDEST PUSH0 PUSH0 SWAP1 POP SWAP1 JUMP JUMPDEST PUSH2 0x4BDD PUSH2 0x4BCE JUMP JUMPDEST PUSH2 0x4BE8 DUP2 DUP5 DUP5 PUSH2 0x4BA9 JUMP JUMPDEST POP POP POP JUMP JUMPDEST JUMPDEST DUP2 DUP2 LT ISZERO PUSH2 0x4C0B JUMPI PUSH2 0x4C00 PUSH0 DUP3 PUSH2 0x4BD5 JUMP JUMPDEST PUSH1 0x1 DUP2 ADD SWAP1 POP PUSH2 0x4BEE JUMP JUMPDEST POP POP JUMP JUMPDEST PUSH1 0x1F DUP3 GT ISZERO PUSH2 0x4C50 JUMPI PUSH2 0x4C21 DUP2 PUSH2 0x4B01 JUMP JUMPDEST PUSH2 0x4C2A DUP5 PUSH2 0x4B13 JUMP JUMPDEST DUP2 ADD PUSH1 0x20 DUP6 LT ISZERO PUSH2 0x4C39 JUMPI DUP2 SWAP1 POP JUMPDEST PUSH2 0x4C4D PUSH2 0x4C45 DUP6 PUSH2 0x4B13 JUMP JUMPDEST DUP4 ADD DUP3 PUSH2 0x4BED JUMP JUMPDEST POP POP JUMPDEST POP POP POP JUMP JUMPDEST PUSH0 DUP3 DUP3 SHR SWAP1 POP SWAP3 SWAP2 POP POP JUMP JUMPDEST PUSH0 PUSH2 0x4C70 PUSH0 NOT DUP5 PUSH1 0x8 MUL PUSH2 0x4C55 JUMP JUMPDEST NOT DUP1 DUP4 AND SWAP2 POP POP SWAP3 SWAP2 POP POP JUMP JUMPDEST PUSH0 PUSH2 0x4C88 DUP4 DUP4 PUSH2 0x4C61 JUMP JUMPDEST SWAP2 POP DUP3 PUSH1 0x2 MUL DUP3 OR SWAP1 POP SWAP3 SWAP2 POP POP JUMP JUMPDEST PUSH2 0x4CA2 DUP4 DUP4 PUSH2 0x4A9A JUMP JUMPDEST PUSH8 0xFFFFFFFFFFFFFFFF DUP2 GT ISZERO PUSH2 0x4CBB JUMPI PUSH2 0x4CBA PUSH2 0x435F JUMP JUMPDEST JUMPDEST PUSH2 0x4CC5 DUP3 SLOAD PUSH2 0x4AD1 JUMP JUMPDEST PUSH2 0x4CD0 DUP3 DUP3 DUP6 PUSH2 0x4C0F JUMP JUMPDEST PUSH0 PUSH1 0x1F DUP4 GT PUSH1 0x1 DUP2 EQ PUSH2 0x4CFD JUMPI PUSH0 DUP5 ISZERO PUSH2 0x4CEB JUMPI DUP3 DUP8 ADD CALLDATALOAD SWAP1 POP JUMPDEST PUSH2 0x4CF5 DUP6 DUP3 PUSH2 0x4C7D JUMP JUMPDEST DUP7 SSTORE POP PUSH2 0x4D5C JUMP JUMPDEST PUSH1 0x1F NOT DUP5 AND PUSH2 0x4D0B DUP7 PUSH2 0x4B01 JUMP JUMPDEST PUSH0 JUMPDEST DUP3 DUP2 LT ISZERO PUSH2 0x4D32 JUMPI DUP5 DUP10 ADD CALLDATALOAD DUP3 SSTORE PUSH1 0x1 DUP3 ADD SWAP2 POP PUSH1 0x20 DUP6 ADD SWAP5 POP PUSH1 0x20 DUP2 ADD SWAP1 POP PUSH2 0x4D0D JUMP JUMPDEST DUP7 DUP4 LT ISZERO PUSH2 0x4D4F JUMPI DUP5 DUP10 ADD CALLDATALOAD PUSH2 0x4D4B PUSH1 0x1F DUP10 AND DUP3 PUSH2 0x4C61 JUMP JUMPDEST DUP4 SSTORE POP JUMPDEST PUSH1 0x1 PUSH1 0x2 DUP9 MUL ADD DUP9 SSTORE POP POP POP JUMPDEST POP POP POP POP POP POP POP JUMP JUMPDEST PUSH0 PUSH1 0x40 DUP3 ADD SWAP1 POP PUSH2 0x4D78 PUSH0 DUP4 ADD DUP6 PUSH2 0x4503 JUMP JUMPDEST PUSH2 0x4D85 PUSH1 0x20 DUP4 ADD DUP5 PUSH2 0x4175 JUMP JUMPDEST SWAP4 SWAP3 POP POP POP JUMP JUMPDEST PUSH0 PUSH2 0x4D97 DUP4 DUP6 PUSH2 0x3DFE JUMP JUMPDEST SWAP4 POP PUSH2 0x4DA4 DUP4 DUP6 DUP5 PUSH2 0x4407 JUMP JUMPDEST PUSH2 0x4DAD DUP4 PUSH2 0x434F JUMP JUMPDEST DUP5 ADD SWAP1 POP SWAP4 SWAP3 POP POP POP JUMP JUMPDEST PUSH0 PUSH1 0x20 DUP3 ADD SWAP1 POP DUP2 DUP2 SUB PUSH0 DUP4 ADD MSTORE PUSH2 0x4DD1 DUP2 DUP5 DUP7 PUSH2 0x4D8C JUMP JUMPDEST SWAP1 POP SWAP4 SWAP3 POP POP POP JUMP JUMPDEST PUSH0 PUSH1 0x40 DUP3 ADD SWAP1 POP PUSH2 0x4DED PUSH0 DUP4 ADD DUP6 PUSH2 0x4503 JUMP JUMPDEST PUSH2 0x4DFA PUSH1 0x20 DUP4 ADD DUP5 PUSH2 0x4503 JUMP JUMPDEST SWAP4 SWAP3 POP POP POP JUMP JUMPDEST PUSH2 0x4E0A DUP3 PUSH2 0x459E JUMP JUMPDEST PUSH8 0xFFFFFFFFFFFFFFFF DUP2 GT ISZERO PUSH2 0x4E23 JUMPI PUSH2 0x4E22 PUSH2 0x435F JUMP JUMPDEST JUMPDEST PUSH2 0x4E2D DUP3 SLOAD PUSH2 0x4AD1 JUMP JUMPDEST PUSH2 0x4E38 DUP3 DUP3 DUP6 PUSH2 0x4C0F JUMP JUMPDEST PUSH0 PUSH1 0x20 SWAP1 POP PUSH1 0x1F DUP4 GT PUSH1 0x1 DUP2 EQ PUSH2 0x4E69 JUMPI PUSH0 DUP5 ISZERO PUSH2 0x4E57 JUMPI DUP3 DUP8 ADD MLOAD SWAP1 POP JUMPDEST PUSH2 0x4E61 DUP6 DUP3 PUSH2 0x4C7D JUMP JUMPDEST DUP7 SSTORE POP PUSH2 0x4EC8 JUMP JUMPDEST PUSH1 0x1F NOT DUP5 AND PUSH2 0x4E77 DUP7 PUSH2 0x4B01 JUMP JUMPDEST PUSH0 JUMPDEST DUP3 DUP2 LT ISZERO PUSH2 0x4E9E JUMPI DUP5 DUP10 ADD MLOAD DUP3 SSTORE PUSH1 0x1 DUP3 ADD SWAP2 POP PUSH1 0x20 DUP6 ADD SWAP5 POP PUSH1 0x20 DUP2 ADD SWAP1 POP PUSH2 0x4E79 JUMP JUMPDEST DUP7 DUP4 LT ISZERO PUSH2 0x4EBB JUMPI DUP5 DUP10 ADD MLOAD PUSH2 0x4EB7 PUSH1 0x1F DUP10 AND DUP3 PUSH2 0x4C61 JUMP JUMPDEST DUP4 SSTORE POP JUMPDEST PUSH1 0x1 PUSH1 0x2 DUP9 MUL ADD DUP9 SSTORE POP POP POP JUMPDEST POP POP POP POP POP POP JUMP JUMPDEST PUSH0 PUSH2 0x4EDA DUP3 PUSH2 0x3FC3 JUMP JUMPDEST SWAP2 POP PUSH32 0xFFFFFFFFFFFFFFFFFFFFFFFFFFFFFFFFFFFFFFFFFFFFFFFFFFFFFFFFFFFFFFFF DUP3 SUB PUSH2 0x4F0C JUMPI PUSH2 0x4F0B PUSH2 0x48AC JUMP JUMPDEST JUMPDEST PUSH1 0x1 DUP3 ADD SWAP1 POP SWAP2 SWAP1 POP JUMP JUMPDEST PUSH0 DUP2 SWAP1 POP SWAP2 SWAP1 POP JUMP JUMPDEST PUSH0 PUSH2 0x4F3A PUSH2 0x4F35 PUSH2 0x4F30 DUP5 PUSH2 0x4F17 JUMP JUMPDEST PUSH2 0x42D7 JUMP JUMPDEST PUSH2 0x3FC3 JUMP JUMPDEST SWAP1 POP SWAP2 SWAP1 POP JUMP JUMPDEST PUSH2 0x4F4A DUP2 PUSH2 0x4F20 JUMP JUMPDEST DUP3 MSTORE POP POP JUMP JUMPDEST PUSH0 PUSH1 0x60 DUP3 ADD SWAP1 POP PUSH2 0x4F63 PUSH0 DUP4 ADD DUP7 PUSH2 0x4503 JUMP JUMPDEST PUSH2 0x4F70 PUSH1 0x20 DUP4 ADD DUP6 PUSH2 0x4F41 JUMP JUMPDEST DUP2 DUP2 SUB PUSH1 0x40 DUP4 ADD MSTORE PUSH2 0x4F82 DUP2 DUP5 PUSH2 0x45B6 JUMP JUMPDEST SWAP1 POP SWAP5 SWAP4 POP POP POP POP JUMP JUMPDEST PUSH0 PUSH1 0x80 DUP3 ADD SWAP1 POP PUSH2 0x4F9F PUSH0 DUP4 ADD DUP8 PUSH2 0x4503 JUMP JUMPDEST PUSH2 0x4FAC PUSH1 0x20 DUP4 ADD DUP7 PUSH2 0x4175 JUMP JUMPDEST PUSH2 0x4FB9 PUSH1 0x40 DUP4 ADD DUP6 PUSH2 0x407A JUMP JUMPDEST PUSH2 0x4FC6 PUSH1 0x60 DUP4 ADD DUP5 PUSH2 0x407A JUMP JUMPDEST SWAP6 SWAP5 POP POP POP POP POP JUMP JUMPDEST PUSH32 0x4E487B7100000000000000000000000000000000000000000000000000000000 PUSH0 MSTORE PUSH1 0x32 PUSH1 0x4 MSTORE PUSH1 0x24 PUSH0 REVERT JUMPDEST PUSH0 PUSH1 0x40 DUP3 ADD SWAP1 POP PUSH2 0x500F PUSH0 DUP4 ADD DUP6 PUSH2 0x4503 JUMP JUMPDEST PUSH2 0x501C PUSH1 0x20 DUP4 ADD DUP5 PUSH2 0x407A JUMP JUMPDEST SWAP4 SWAP3 POP POP POP JUMP INVALID LOG2 PUSH5 0x6970667358 0x22 SLT KECCAK256 SWAPN 0xA6 0x4D RETF 0x27 0xEF RETURN 0xC4 ADD 0xC1 0x21 0xDE DUP2 SWAP7 SHL SWAP15 SWAP8 DUP6 0xC6 0x4D PUSH11 0x1C4AF4FF6C6C750B3A3F78 PUSH5 0x736F6C6343 STOP ADDMOD 0x1E STOP CALLER "
		},
		"gasEstimates": {
			"creation": {
				"codeDepositCost": "4113800",
				"executionCost": "73190",
				"totalCost": "4186990"
			},
			"external": {
				"": "513",
				"createAndFundTransfer(address,address,string,uint256)": "infinite",
				"createTransfer(address,address,string,uint256)": "infinite",
				"extendDeadline(uint256,uint256)": "infinite",
				"fundTransfer(uint256)": "infinite",
				"getContractBalance()": "423",
				"getPlatformStats()": "infinite",
				"getRecipientTransfers(address)": "infinite",
				"getSenderTransfers(address)": "infinite",
				"getTransfer(uint256)": "infinite",
				"getTransferStatus(uint256)": "infinite",
				"getValidatorTransfers(address)": "infinite",
				"isUserVerified(address)": "infinite",
				"isValidatorCertified(address)": "infinite",
				"owner()": "2618",
				"platformFeePercentage()": "2536",
				"raiseDispute(uint256,string)": "infinite",
				"recipientTransfers(address,uint256)": "infinite",
				"refundTransfer(uint256)": "infinite",
				"resolveDispute(uint256,uint8)": "infinite",
				"senderTransfers(address,uint256)": "infinite",
				"setUserRegistry(address)": "infinite",
				"setValidatorRegistry(address)": "infinite",
				"totalTransfers()": "2515",
				"totalValueLocked()": "2513",
				"transfers(uint256)": "infinite",
				"updatePlatformFee(uint256)": "24776",
				"updateRecipient(uint256,address)": "infinite",
				"updateValidator(uint256,address)": "infinite",
				"userRegistry()": "infinite",
				"validateTransfer(uint256,string)": "infinite",
				"validatorRegistry()": "infinite",
				"validatorTransfers(address,uint256)": "infinite",
				"withdrawFunds(uint256)": "infinite"
			},
			"internal": {
				"_updateUserReputation(address)": "infinite"
			}
		},
		"methodIdentifiers": {
			"createAndFundTransfer(address,address,string,uint256)": "9259061e",
			"createTransfer(address,address,string,uint256)": "6353f887",
			"extendDeadline(uint256,uint256)": "2d1fdef6",
			"fundTransfer(uint256)": "eaf8294b",
			"getContractBalance()": "6f9fb98a",
			"getPlatformStats()": "136d8883",
			"getRecipientTransfers(address)": "04233456",
			"getSenderTransfers(address)": "9c51d4a1",
			"getTransfer(uint256)": "c16fe907",
			"getTransferStatus(uint256)": "b93c3770",
			"getValidatorTransfers(address)": "42b0a8ce",
			"isUserVerified(address)": "ace417e0",
			"isValidatorCertified(address)": "2beca249",
			"owner()": "8da5cb5b",
			"platformFeePercentage()": "cdd78cfc",
			"raiseDispute(uint256,string)": "5aef573c",
			"recipientTransfers(address,uint256)": "9cb80f00",
			"refundTransfer(uint256)": "f3fee05d",
			"resolveDispute(uint256,uint8)": "e55e4211",
			"senderTransfers(address,uint256)": "2bbdcb4e",
			"setUserRegistry(address)": "b0d5451b",
			"setValidatorRegistry(address)": "49773050",
			"totalTransfers()": "3bf47720",
			"totalValueLocked()": "ec18154e",
			"transfers(uint256)": "9377d711",
			"updatePlatformFee(uint256)": "aa0b5988",
			"updateRecipient(uint256,address)": "b3d50e37",
			"updateValidator(uint256,address)": "5a27cbcb",
			"userRegistry()": "5c7460d6",
			"validateTransfer(uint256,string)": "4b920afe",
			"validatorRegistry()": "f376ebbb",
			"validatorTransfers(address,uint256)": "9bfd3f9d",
			"withdrawFunds(uint256)": "155dd5ee"
		}
	},
	"abi": [
		{
			"inputs": [],
			"stateMutability": "nonpayable",
			"type": "constructor"
		},
		{
			"inputs": [],
			"name": "AlreadyFunded",
			"type": "error"
		},
		{
			"inputs": [],
			"name": "AlreadyRefunded",
			"type": "error"
		},
		{
			"inputs": [],
			"name": "DeadlineNotPassed",
			"type": "error"
		},
		{
			"inputs": [],
			"name": "DeadlinePassed",
			"type": "error"
		},
		{
			"inputs": [],
			"name": "EmptyPurpose",
			"type": "error"
		},
		{
			"inputs": [],
			"name": "InvalidAddress",
			"type": "error"
		},
		{
			"inputs": [],
			"name": "InvalidAmount",
			"type": "error"
		},
		{
			"inputs": [],
			"name": "InvalidPercentage",
			"type": "error"
		},
		{
			"inputs": [
				{
					"internalType": "enum DiasporaRemitEscrow.TransferStatus",
					"name": "current",
					"type": "uint8"
				},
				{
					"internalType": "enum DiasporaRemitEscrow.TransferStatus",
					"name": "required",
					"type": "uint8"
				}
			],
			"name": "InvalidStatus",
			"type": "error"
		},
		{
			"inputs": [],
			"name": "NotFunded",
			"type": "error"
		},
		{
			"inputs": [],
			"name": "ReentrancyDetected",
			"type": "error"
		},
		{
			"inputs": [],
			"name": "TransferFailed",
			"type": "error"
		},
		{
			"inputs": [
				{
					"internalType": "uint256",
					"name": "transferId",
					"type": "uint256"
				}
			],
			"name": "TransferNotFound",
			"type": "error"
		},
		{
			"inputs": [
				{
					"internalType": "address",
					"name": "caller",
					"type": "address"
				}
			],
			"name": "Unauthorized",
			"type": "error"
		},
		{
			"anonymous": false,
			"inputs": [
				{
					"indexed": true,
					"internalType": "uint256",
					"name": "transferId",
					"type": "uint256"
				},
				{
					"indexed": false,
					"internalType": "uint256",
					"name": "oldDeadline",
					"type": "uint256"
				},
				{
					"indexed": false,
					"internalType": "uint256",
					"name": "newDeadline",
					"type": "uint256"
				}
			],
			"name": "DeadlineExtended",
			"type": "event"
		},
		{
			"anonymous": false,
			"inputs": [
				{
					"indexed": true,
					"internalType": "uint256",
					"name": "transferId",
					"type": "uint256"
				},
				{
					"indexed": false,
					"internalType": "address",
					"name": "resolver",
					"type": "address"
				},
				{
					"indexed": false,
					"internalType": "bool",
					"name": "favorRecipient",
					"type": "bool"
				},
				{
					"indexed": false,
					"internalType": "uint256",
					"name": "recipientAmount",
					"type": "uint256"
				},
				{
					"indexed": false,
					"internalType": "uint256",
					"name": "senderAmount",
					"type": "uint256"
				}
			],
			"name": "DisputeResolved",
			"type": "event"
		},
		{
			"anonymous": false,
			"inputs": [
				{
					"indexed": true,
					"internalType": "uint256",
					"name": "transferId",
					"type": "uint256"
				},
				{
					"indexed": false,
					"internalType": "address",
					"name": "oldRecipient",
					"type": "address"
				},
				{
					"indexed": false,
					"internalType": "address",
					"name": "newRecipient",
					"type": "address"
				}
			],
			"name": "RecipientUpdated",
			"type": "event"
		},
		{
			"anonymous": false,
			"inputs": [
				{
					"indexed": true,
					"internalType": "uint256",
					"name": "transferId",
					"type": "uint256"
				},
				{
					"indexed": true,
					"internalType": "address",
					"name": "recipient",
					"type": "address"
				},
				{
					"indexed": false,
					"internalType": "uint256",
					"name": "amount",
					"type": "uint256"
				},
				{
					"indexed": false,
					"internalType": "uint256",
					"name": "platformFee",
					"type": "uint256"
				}
			],
			"name": "TransferCompleted",
			"type": "event"
		},
		{
			"anonymous": false,
			"inputs": [
				{
					"indexed": true,
					"internalType": "uint256",
					"name": "transferId",
					"type": "uint256"
				},
				{
					"indexed": true,
					"internalType": "address",
					"name": "sender",
					"type": "address"
				},
				{
					"indexed": true,
					"internalType": "address",
					"name": "recipient",
					"type": "address"
				},
				{
					"indexed": false,
					"internalType": "address",
					"name": "validator",
					"type": "address"
				},
				{
					"indexed": false,
					"internalType": "uint256",
					"name": "amount",
					"type": "uint256"
				},
				{
					"indexed": false,
					"internalType": "string",
					"name": "purpose",
					"type": "string"
				}
			],
			"name": "TransferCreated",
			"type": "event"
		},
		{
			"anonymous": false,
			"inputs": [
				{
					"indexed": true,
					"internalType": "uint256",
					"name": "transferId",
					"type": "uint256"
				},
				{
					"indexed": true,
					"internalType": "address",
					"name": "disputedBy",
					"type": "address"
				},
				{
					"indexed": false,
					"internalType": "string",
					"name": "reason",
					"type": "string"
				}
			],
			"name": "TransferDisputed",
			"type": "event"
		},
		{
			"anonymous": false,
			"inputs": [
				{
					"indexed": true,
					"internalType": "uint256",
					"name": "transferId",
					"type": "uint256"
				},
				{
					"indexed": false,
					"internalType": "uint256",
					"name": "amount",
					"type": "uint256"
				},
				{
					"indexed": false,
					"internalType": "uint256",
					"name": "deadline",
					"type": "uint256"
				}
			],
			"name": "TransferFunded",
			"type": "event"
		},
		{
			"anonymous": false,
			"inputs": [
				{
					"indexed": true,
					"internalType": "uint256",
					"name": "transferId",
					"type": "uint256"
				},
				{
					"indexed": true,
					"internalType": "address",
					"name": "sender",
					"type": "address"
				},
				{
					"indexed": false,
					"internalType": "uint256",
					"name": "amount",
					"type": "uint256"
				}
			],
			"name": "TransferRefunded",
			"type": "event"
		},
		{
			"anonymous": false,
			"inputs": [
				{
					"indexed": true,
					"internalType": "uint256",
					"name": "transferId",
					"type": "uint256"
				},
				{
					"indexed": true,
					"internalType": "address",
					"name": "validator",
					"type": "address"
				},
				{
					"indexed": false,
					"internalType": "string",
					"name": "note",
					"type": "string"
				}
			],
			"name": "TransferValidated",
			"type": "event"
		},
		{
			"anonymous": false,
			"inputs": [
				{
					"indexed": true,
					"internalType": "uint256",
					"name": "transferId",
					"type": "uint256"
				},
				{
					"indexed": false,
					"internalType": "address",
					"name": "oldValidator",
					"type": "address"
				},
				{
					"indexed": false,
					"internalType": "address",
					"name": "newValidator",
					"type": "address"
				}
			],
			"name": "ValidatorUpdated",
			"type": "event"
		},
		{
			"stateMutability": "payable",
			"type": "fallback"
		},
		{
			"inputs": [
				{
					"internalType": "address",
					"name": "_recipient",
					"type": "address"
				},
				{
					"internalType": "address",
					"name": "_validator",
					"type": "address"
				},
				{
					"internalType": "string",
					"name": "_purpose",
					"type": "string"
				},
				{
					"internalType": "uint256",
					"name": "_deadlineSeconds",
					"type": "uint256"
				}
			],
			"name": "createAndFundTransfer",
			"outputs": [
				{
					"internalType": "uint256",
					"name": "",
					"type": "uint256"
				}
			],
			"stateMutability": "payable",
			"type": "function"
		},
		{
			"inputs": [
				{
					"internalType": "address",
					"name": "_recipient",
					"type": "address"
				},
				{
					"internalType": "address",
					"name": "_validator",
					"type": "address"
				},
				{
					"internalType": "string",
					"name": "_purpose",
					"type": "string"
				},
				{
					"internalType": "uint256",
					"name": "_deadlineSeconds",
					"type": "uint256"
				}
			],
			"name": "createTransfer",
			"outputs": [
				{
					"internalType": "uint256",
					"name": "",
					"type": "uint256"
				}
			],
			"stateMutability": "nonpayable",
			"type": "function"
		},
		{
			"inputs": [
				{
					"internalType": "uint256",
					"name": "_transferId",
					"type": "uint256"
				},
				{
					"internalType": "uint256",
					"name": "_additionalSeconds",
					"type": "uint256"
				}
			],
			"name": "extendDeadline",
			"outputs": [],
			"stateMutability": "nonpayable",
			"type": "function"
		},
		{
			"inputs": [
				{
					"internalType": "uint256",
					"name": "_transferId",
					"type": "uint256"
				}
			],
			"name": "fundTransfer",
			"outputs": [],
			"stateMutability": "payable",
			"type": "function"
		},
		{
			"inputs": [],
			"name": "getContractBalance",
			"outputs": [
				{
					"internalType": "uint256",
					"name": "",
					"type": "uint256"
				}
			],
			"stateMutability": "view",
			"type": "function"
		},
		{
			"inputs": [],
			"name": "getPlatformStats",
			"outputs": [
				{
					"internalType": "uint256",
					"name": "_totalTransfers",
					"type": "uint256"
				},
				{
					"internalType": "uint256",
					"name": "_totalValueLocked",
					"type": "uint256"
				},
				{
					"internalType": "uint256",
					"name": "_platformFeePercentage",
					"type": "uint256"
				}
			],
			"stateMutability": "view",
			"type": "function"
		},
		{
			"inputs": [
				{
					"internalType": "address",
					"name": "_recipient",
					"type": "address"
				}
			],
			"name": "getRecipientTransfers",
			"outputs": [
				{
					"internalType": "uint256[]",
					"name": "",
					"type": "uint256[]"
				}
			],
			"stateMutability": "view",
			"type": "function"
		},
		{
			"inputs": [
				{
					"internalType": "address",
					"name": "_sender",
					"type": "address"
				}
			],
			"name": "getSenderTransfers",
			"outputs": [
				{
					"internalType": "uint256[]",
					"name": "",
					"type": "uint256[]"
				}
			],
			"stateMutability": "view",
			"type": "function"
		},
		{
			"inputs": [
				{
					"internalType": "uint256",
					"name": "_transferId",
					"type": "uint256"
				}
			],
			"name": "getTransfer",
			"outputs": [
				{
					"internalType": "address",
					"name": "sender",
					"type": "address"
				},
				{
					"internalType": "address",
					"name": "recipient",
					"type": "address"
				},
				{
					"internalType": "address",
					"name": "validator",
					"type": "address"
				},
				{
					"internalType": "uint256",
					"name": "amount",
					"type": "uint256"
				},
				{
					"internalType": "uint256",
					"name": "deadline",
					"type": "uint256"
				},
				{
					"internalType": "enum DiasporaRemitEscrow.TransferStatus",
					"name": "status",
					"type": "uint8"
				},
				{
					"internalType": "string",
					"name": "purpose",
					"type": "string"
				},
				{
					"internalType": "string",
					"name": "validationNote",
					"type": "string"
				},
				{
					"internalType": "uint256",
					"name": "createdAt",
					"type": "uint256"
				},
				{
					"internalType": "uint256",
					"name": "releasedAt",
					"type": "uint256"
				},
				{
					"internalType": "bool",
					"name": "isRefunded",
					"type": "bool"
				}
			],
			"stateMutability": "view",
			"type": "function"
		},
		{
			"inputs": [
				{
					"internalType": "uint256",
					"name": "_transferId",
					"type": "uint256"
				}
			],
			"name": "getTransferStatus",
			"outputs": [
				{
					"internalType": "enum DiasporaRemitEscrow.TransferStatus",
					"name": "status",
					"type": "uint8"
				},
				{
					"internalType": "bool",
					"name": "isFunded",
					"type": "bool"
				},
				{
					"internalType": "bool",
					"name": "isValidated",
					"type": "bool"
				},
				{
					"internalType": "bool",
					"name": "isCompleted",
					"type": "bool"
				},
				{
					"internalType": "bool",
					"name": "isRefunded",
					"type": "bool"
				},
				{
					"internalType": "bool",
					"name": "canRefund",
					"type": "bool"
				},
				{
					"internalType": "uint256",
					"name": "timeRemaining",
					"type": "uint256"
				}
			],
			"stateMutability": "view",
			"type": "function"
		},
		{
			"inputs": [
				{
					"internalType": "address",
					"name": "_validator",
					"type": "address"
				}
			],
			"name": "getValidatorTransfers",
			"outputs": [
				{
					"internalType": "uint256[]",
					"name": "",
					"type": "uint256[]"
				}
			],
			"stateMutability": "view",
			"type": "function"
		},
		{
			"inputs": [
				{
					"internalType": "address",
					"name": "_user",
					"type": "address"
				}
			],
			"name": "isUserVerified",
			"outputs": [
				{
					"internalType": "bool",
					"name": "",
					"type": "bool"
				}
			],
			"stateMutability": "view",
			"type": "function"
		},
		{
			"inputs": [
				{
					"internalType": "address",
					"name": "_validator",
					"type": "address"
				}
			],
			"name": "isValidatorCertified",
			"outputs": [
				{
					"internalType": "bool",
					"name": "",
					"type": "bool"
				}
			],
			"stateMutability": "view",
			"type": "function"
		},
		{
			"inputs": [],
			"name": "owner",
			"outputs": [
				{
					"internalType": "address",
					"name": "",
					"type": "address"
				}
			],
			"stateMutability": "view",
			"type": "function"
		},
		{
			"inputs": [],
			"name": "platformFeePercentage",
			"outputs": [
				{
					"internalType": "uint256",
					"name": "",
					"type": "uint256"
				}
			],
			"stateMutability": "view",
			"type": "function"
		},
		{
			"inputs": [
				{
					"internalType": "uint256",
					"name": "_transferId",
					"type": "uint256"
				},
				{
					"internalType": "string",
					"name": "_reason",
					"type": "string"
				}
			],
			"name": "raiseDispute",
			"outputs": [],
			"stateMutability": "nonpayable",
			"type": "function"
		},
		{
			"inputs": [
				{
					"internalType": "address",
					"name": "",
					"type": "address"
				},
				{
					"internalType": "uint256",
					"name": "",
					"type": "uint256"
				}
			],
			"name": "recipientTransfers",
			"outputs": [
				{
					"internalType": "uint256",
					"name": "",
					"type": "uint256"
				}
			],
			"stateMutability": "view",
			"type": "function"
		},
		{
			"inputs": [
				{
					"internalType": "uint256",
					"name": "_transferId",
					"type": "uint256"
				}
			],
			"name": "refundTransfer",
			"outputs": [],
			"stateMutability": "nonpayable",
			"type": "function"
		},
		{
			"inputs": [
				{
					"internalType": "uint256",
					"name": "_transferId",
					"type": "uint256"
				},
				{
					"internalType": "uint8",
					"name": "_percentageToRecipient",
					"type": "uint8"
				}
			],
			"name": "resolveDispute",
			"outputs": [],
			"stateMutability": "nonpayable",
			"type": "function"
		},
		{
			"inputs": [
				{
					"internalType": "address",
					"name": "",
					"type": "address"
				},
				{
					"internalType": "uint256",
					"name": "",
					"type": "uint256"
				}
			],
			"name": "senderTransfers",
			"outputs": [
				{
					"internalType": "uint256",
					"name": "",
					"type": "uint256"
				}
			],
			"stateMutability": "view",
			"type": "function"
		},
		{
			"inputs": [
				{
					"internalType": "address",
					"name": "_registry",
					"type": "address"
				}
			],
			"name": "setUserRegistry",
			"outputs": [],
			"stateMutability": "nonpayable",
			"type": "function"
		},
		{
			"inputs": [
				{
					"internalType": "address",
					"name": "_registry",
					"type": "address"
				}
			],
			"name": "setValidatorRegistry",
			"outputs": [],
			"stateMutability": "nonpayable",
			"type": "function"
		},
		{
			"inputs": [],
			"name": "totalTransfers",
			"outputs": [
				{
					"internalType": "uint256",
					"name": "",
					"type": "uint256"
				}
			],
			"stateMutability": "view",
			"type": "function"
		},
		{
			"inputs": [],
			"name": "totalValueLocked",
			"outputs": [
				{
					"internalType": "uint256",
					"name": "",
					"type": "uint256"
				}
			],
			"stateMutability": "view",
			"type": "function"
		},
		{
			"inputs": [
				{
					"internalType": "uint256",
					"name": "",
					"type": "uint256"
				}
			],
			"name": "transfers",
			"outputs": [
				{
					"internalType": "uint256",
					"name": "transferId",
					"type": "uint256"
				},
				{
					"internalType": "address",
					"name": "sender",
					"type": "address"
				},
				{
					"internalType": "address",
					"name": "recipient",
					"type": "address"
				},
				{
					"internalType": "address",
					"name": "validator",
					"type": "address"
				},
				{
					"internalType": "uint256",
					"name": "amount",
					"type": "uint256"
				},
				{
					"internalType": "uint256",
					"name": "deadline",
					"type": "uint256"
				},
				{
					"internalType": "enum DiasporaRemitEscrow.TransferStatus",
					"name": "status",
					"type": "uint8"
				},
				{
					"internalType": "string",
					"name": "purpose",
					"type": "string"
				},
				{
					"internalType": "string",
					"name": "validationNote",
					"type": "string"
				},
				{
					"internalType": "uint256",
					"name": "createdAt",
					"type": "uint256"
				},
				{
					"internalType": "uint256",
					"name": "releasedAt",
					"type": "uint256"
				},
				{
					"internalType": "bool",
					"name": "isRefunded",
					"type": "bool"
				}
			],
			"stateMutability": "view",
			"type": "function"
		},
		{
			"inputs": [
				{
					"internalType": "uint256",
					"name": "_newFeePercentage",
					"type": "uint256"
				}
			],
			"name": "updatePlatformFee",
			"outputs": [],
			"stateMutability": "nonpayable",
			"type": "function"
		},
		{
			"inputs": [
				{
					"internalType": "uint256",
					"name": "_transferId",
					"type": "uint256"
				},
				{
					"internalType": "address",
					"name": "_newRecipient",
					"type": "address"
				}
			],
			"name": "updateRecipient",
			"outputs": [],
			"stateMutability": "nonpayable",
			"type": "function"
		},
		{
			"inputs": [
				{
					"internalType": "uint256",
					"name": "_transferId",
					"type": "uint256"
				},
				{
					"internalType": "address",
					"name": "_newValidator",
					"type": "address"
				}
			],
			"name": "updateValidator",
			"outputs": [],
			"stateMutability": "nonpayable",
			"type": "function"
		},
		{
			"inputs": [],
			"name": "userRegistry",
			"outputs": [
				{
					"internalType": "contract IUserRegistry",
					"name": "",
					"type": "address"
				}
			],
			"stateMutability": "view",
			"type": "function"
		},
		{
			"inputs": [
				{
					"internalType": "uint256",
					"name": "_transferId",
					"type": "uint256"
				},
				{
					"internalType": "string",
					"name": "_note",
					"type": "string"
				}
			],
			"name": "validateTransfer",
			"outputs": [],
			"stateMutability": "nonpayable",
			"type": "function"
		},
		{
			"inputs": [],
			"name": "validatorRegistry",
			"outputs": [
				{
					"internalType": "contract IValidatorRegistry",
					"name": "",
					"type": "address"
				}
			],
			"stateMutability": "view",
			"type": "function"
		},
		{
			"inputs": [
				{
					"internalType": "address",
					"name": "",
					"type": "address"
				},
				{
					"internalType": "uint256",
					"name": "",
					"type": "uint256"
				}
			],
			"name": "validatorTransfers",
			"outputs": [
				{
					"internalType": "uint256",
					"name": "",
					"type": "uint256"
				}
			],
			"stateMutability": "view",
			"type": "function"
		},
		{
			"inputs": [
				{
					"internalType": "uint256",
					"name": "_transferId",
					"type": "uint256"
				}
			],
			"name": "withdrawFunds",
			"outputs": [],
			"stateMutability": "nonpayable",
			"type": "function"
		},
		{
			"stateMutability": "payable",
			"type": "receive"
		}
	]
}